{
  "_format": "hh-sol-artifact-1",
  "contractName": "DepositContract",
  "sourceName": "contracts/lib/DepositContract.sol",
  "abi": [
    {
      "anonymous": false,
      "inputs": [
        {
          "indexed": false,
          "internalType": "uint8",
          "name": "version",
          "type": "uint8"
        }
      ],
      "name": "Initialized",
      "type": "event"
    },
    {
      "inputs": [],
      "name": "depositCount",
      "outputs": [
        {
          "internalType": "uint256",
          "name": "",
          "type": "uint256"
        }
      ],
      "stateMutability": "view",
      "type": "function"
    },
    {
      "inputs": [],
      "name": "getDepositRoot",
      "outputs": [
        {
          "internalType": "bytes32",
          "name": "",
          "type": "bytes32"
        }
      ],
      "stateMutability": "view",
      "type": "function"
    },
    {
      "inputs": [
        {
          "internalType": "uint8",
          "name": "leafType",
          "type": "uint8"
        },
        {
          "internalType": "uint32",
          "name": "originNetwork",
          "type": "uint32"
        },
        {
          "internalType": "address",
          "name": "originAddress",
          "type": "address"
        },
        {
          "internalType": "uint32",
          "name": "destinationNetwork",
          "type": "uint32"
        },
        {
          "internalType": "address",
          "name": "destinationAddress",
          "type": "address"
        },
        {
          "internalType": "uint256",
          "name": "amount",
          "type": "uint256"
        },
        {
          "internalType": "bytes32",
          "name": "metadataHash",
          "type": "bytes32"
        }
      ],
      "name": "getLeafValue",
      "outputs": [
        {
          "internalType": "bytes32",
          "name": "",
          "type": "bytes32"
        }
      ],
      "stateMutability": "pure",
      "type": "function"
    },
    {
      "inputs": [
        {
          "internalType": "bytes32",
          "name": "leafHash",
          "type": "bytes32"
        },
        {
          "internalType": "bytes32[]",
          "name": "smtProof",
          "type": "bytes32[]"
        },
        {
          "internalType": "uint64",
          "name": "index",
          "type": "uint64"
        },
        {
          "internalType": "bytes32",
          "name": "root",
          "type": "bytes32"
        }
      ],
      "name": "verifyMerkleProof",
      "outputs": [
        {
          "internalType": "bool",
          "name": "",
          "type": "bool"
        }
      ],
      "stateMutability": "pure",
      "type": "function"
    }
  ],
  "bytecode": "0x608060405234801561001057600080fd5b50610565806100206000396000f3fe608060405234801561001057600080fd5b506004361061004c5760003560e01c80632dfdf0b5146100515780633ae050471461006d5780633da81682146100755780633e19704314610098575b600080fd5b61005a60215481565b6040519081526020015b60405180910390f35b61005a610138565b610088610083366004610343565b610220565b6040519015158152602001610064565b61005a6100a6366004610450565b6040516001600160f81b031960f889901b1660208201526001600160e01b031960e088811b821660218401526bffffffffffffffffffffffff19606089811b821660258601529188901b909216603984015285901b16603d8201526051810183905260718101829052600090609101604051602081830303815290604052805190602001209050979650505050505050565b602154600090819081805b6020811015610217578260011660010361019d576001816020811061016a5761016a6104d0565b015460408051602081019290925281018590526060016040516020818303038152906040528051906020012093506101ca565b60408051602081018690529081018390526060016040516020818303038152906040528051906020012093505b6101d56002846104e6565b6040805160208101859052908101849052909350606001604051602081830303815290604052805190602001209150808061020f90610508565b915050610143565b50919392505050565b60008467ffffffffffffffff8416825b6020811015610303578160011660010361029657868181518110610256576102566104d0565b602002602001015183604051602001610279929190918252602082015260400190565b6040516020818303038152906040528051906020012092506102e4565b828782815181106102a9576102a96104d0565b60200260200101516040516020016102cb929190918252602082015260400190565b6040516020818303038152906040528051906020012092505b6102ef6002836104e6565b9150806102fb81610508565b915050610230565b5050909114949350505050565b634e487b7160e01b600052604160045260246000fd5b803567ffffffffffffffff8116811461033e57600080fd5b919050565b6000806000806080858703121561035957600080fd5b8435935060208086013567ffffffffffffffff8082111561037957600080fd5b818801915088601f83011261038d57600080fd5b81358181111561039f5761039f610310565b8060051b604051601f19603f830116810181811085821117156103c4576103c4610310565b60405291825284820192508381018501918b8311156103e257600080fd5b938501935b82851015610400578435845293850193928501926103e7565b80985050505050505061041560408601610326565b9396929550929360600135925050565b803563ffffffff8116811461033e57600080fd5b80356001600160a01b038116811461033e57600080fd5b600080600080600080600060e0888a03121561046b57600080fd5b873560ff8116811461047c57600080fd5b965061048a60208901610425565b955061049860408901610439565b94506104a660608901610425565b93506104b460808901610439565b925060a0880135915060c0880135905092959891949750929550565b634e487b7160e01b600052603260045260246000fd5b60008261050357634e487b7160e01b600052601260045260246000fd5b500490565b60006001820161052857634e487b7160e01b600052601160045260246000fd5b506001019056fea264697066735822122093271f0ef529d176c1e1e67d543d73bd7006480792d4cf9387a284e564c85f7964736f6c634300080f0033",
  "linkReferences": {},
  "deployedLinkReferences": {}
}