{
  "_format": "hh-sol-artifact-1",
  "contractName": "DepositContract",
  "sourceName": "contracts/lib/DepositContract.sol",
  "abi": [
    {
      "inputs": [],
      "name": "MerkleTreeFull",
      "type": "error"
    },
    {
      "anonymous": false,
      "inputs": [
        {
          "indexed": false,
          "internalType": "uint8",
          "name": "version",
          "type": "uint8"
        }
      ],
      "name": "Initialized",
      "type": "event"
    },
    {
      "inputs": [],
      "name": "depositCount",
      "outputs": [
        {
          "internalType": "uint256",
          "name": "",
          "type": "uint256"
        }
      ],
      "stateMutability": "view",
      "type": "function"
    },
    {
      "inputs": [],
      "name": "getDepositRoot",
      "outputs": [
        {
          "internalType": "bytes32",
          "name": "",
          "type": "bytes32"
        }
      ],
      "stateMutability": "view",
      "type": "function"
    },
    {
      "inputs": [
        {
          "internalType": "uint8",
          "name": "leafType",
          "type": "uint8"
        },
        {
          "internalType": "uint32",
          "name": "originNetwork",
          "type": "uint32"
        },
        {
          "internalType": "address",
          "name": "originAddress",
          "type": "address"
        },
        {
          "internalType": "uint32",
          "name": "destinationNetwork",
          "type": "uint32"
        },
        {
          "internalType": "address",
          "name": "destinationAddress",
          "type": "address"
        },
        {
          "internalType": "uint256",
          "name": "amount",
          "type": "uint256"
        },
        {
          "internalType": "bytes32",
          "name": "metadataHash",
          "type": "bytes32"
        }
      ],
      "name": "getLeafValue",
      "outputs": [
        {
          "internalType": "bytes32",
          "name": "",
          "type": "bytes32"
        }
      ],
      "stateMutability": "pure",
      "type": "function"
    },
    {
      "inputs": [
        {
          "internalType": "bytes32",
          "name": "leafHash",
          "type": "bytes32"
        },
        {
          "internalType": "bytes32[32]",
          "name": "smtProof",
          "type": "bytes32[32]"
        },
        {
          "internalType": "uint32",
          "name": "index",
          "type": "uint32"
        },
        {
          "internalType": "bytes32",
          "name": "root",
          "type": "bytes32"
        }
      ],
      "name": "verifyMerkleProof",
      "outputs": [
        {
          "internalType": "bool",
          "name": "",
          "type": "bool"
        }
      ],
      "stateMutability": "pure",
      "type": "function"
    }
  ],
  "bytecode": "0x608060405234801561001057600080fd5b5061045f806100206000396000f3fe608060405234801561001057600080fd5b506004361061004c5760003560e01c80632dfdf0b5146100515780633ae050471461006d5780633e19704314610075578063fb57083414610115575b600080fd5b61005a60535481565b6040519081526020015b60405180910390f35b61005a610138565b61005a61008336600461031e565b6040516001600160f81b031960f889901b1660208201526001600160e01b031960e088811b821660218401526bffffffffffffffffffffffff19606089811b821660258601529188901b909216603984015285901b16603d8201526051810183905260718101829052600090609101604051602081830303815290604052805190602001209050979650505050505050565b61012861012336600461039e565b610215565b6040519015158152602001610064565b605354600090819081805b602081101561020c578083901c6001166001036101a0576033816020811061016d5761016d6103ec565b015460408051602081019290925281018590526060016040516020818303038152906040528051906020012093506101cd565b60408051602081018690529081018390526060016040516020818303038152906040528051906020012093505b6040805160208101849052908101839052606001604051602081830303815290604052805190602001209150808061020490610402565b915050610143565b50919392505050565b600084815b60208110156102e257600163ffffffff8616821c8116900361028557858160208110610248576102486103ec565b602002013582604051602001610268929190918252602082015260400190565b6040516020818303038152906040528051906020012091506102d0565b81868260208110610298576102986103ec565b60200201356040516020016102b7929190918252602082015260400190565b6040516020818303038152906040528051906020012091505b806102da81610402565b91505061021a565b50909114949350505050565b803563ffffffff8116811461030257600080fd5b919050565b80356001600160a01b038116811461030257600080fd5b600080600080600080600060e0888a03121561033957600080fd5b873560ff8116811461034a57600080fd5b9650610358602089016102ee565b955061036660408901610307565b9450610374606089016102ee565b935061038260808901610307565b925060a0880135915060c0880135905092959891949750929550565b60008060008061046085870312156103b557600080fd5b843593506104208501868111156103cb57600080fd5b6020860193506103da816102ee565b94979396509394610440013593505050565b634e487b7160e01b600052603260045260246000fd5b60006001820161042257634e487b7160e01b600052601160045260246000fd5b506001019056fea264697066735822122052c76119add0312dc771a2e6d8261219037b7fdd3fddf44578fc12723c5ca36064736f6c63430008110033",
  "linkReferences": {},
  "deployedLinkReferences": {}
}