{
  "_format": "hh-sol-artifact-1",
  "contractName": "PolygonZkEVM",
  "sourceName": "contracts/PolygonZkEVM.sol",
  "abi": [
    {
      "inputs": [
        {
          "internalType": "contract IPolygonZkEVMGlobalExitRoot",
          "name": "_globalExitRootManager",
          "type": "address"
        },
        {
          "internalType": "contract IERC20Upgradeable",
          "name": "_matic",
          "type": "address"
        },
        {
          "internalType": "contract IVerifierRollup",
          "name": "_rollupVerifier",
          "type": "address"
        },
        {
          "internalType": "contract IPolygonZkEVMBridge",
          "name": "_bridgeAddress",
          "type": "address"
        },
        {
          "internalType": "contract IHotShot",
          "name": "_hotshotAddress",
          "type": "address"
        },
        {
          "internalType": "uint64",
          "name": "_chainID",
          "type": "uint64"
        },
        {
          "internalType": "uint64",
          "name": "_forkID",
          "type": "uint64"
        }
      ],
      "stateMutability": "nonpayable",
      "type": "constructor"
    },
    {
      "inputs": [],
      "name": "BatchAlreadyVerified",
      "type": "error"
    },
    {
      "inputs": [],
      "name": "BatchNotSequencedOrNotSequenceEnd",
      "type": "error"
    },
    {
      "inputs": [],
      "name": "ExceedMaxVerifyBatches",
      "type": "error"
    },
    {
      "inputs": [],
      "name": "FinalNumBatchBelowLastVerifiedBatch",
      "type": "error"
    },
    {
      "inputs": [],
      "name": "FinalNumBatchDoesNotMatchPendingState",
      "type": "error"
    },
    {
      "inputs": [],
      "name": "FinalPendingStateNumInvalid",
      "type": "error"
    },
    {
      "inputs": [],
      "name": "ForceBatchTimeoutNotExpired",
      "type": "error"
    },
    {
      "inputs": [],
      "name": "ForceBatchesOverflow",
      "type": "error"
    },
    {
      "inputs": [],
      "name": "ForcedDataDoesNotMatch",
      "type": "error"
    },
    {
      "inputs": [],
      "name": "GlobalExitRootNotExist",
      "type": "error"
    },
    {
      "inputs": [],
      "name": "HaltTimeoutNotExpired",
      "type": "error"
    },
    {
      "inputs": [],
      "name": "InitNumBatchAboveLastVerifiedBatch",
      "type": "error"
    },
    {
      "inputs": [],
      "name": "InitNumBatchDoesNotMatchPendingState",
      "type": "error"
    },
    {
      "inputs": [],
      "name": "InvalidProof",
      "type": "error"
    },
    {
      "inputs": [],
      "name": "InvalidRangeBatchTimeTarget",
      "type": "error"
    },
    {
      "inputs": [],
      "name": "InvalidRangeMultiplierBatchFee",
      "type": "error"
    },
    {
      "inputs": [],
      "name": "NewAccInputHashDoesNotExist",
      "type": "error"
    },
    {
      "inputs": [],
      "name": "NewPendingStateTimeoutMustBeLower",
      "type": "error"
    },
    {
      "inputs": [],
      "name": "NewTrustedAggregatorTimeoutMustBeLower",
      "type": "error"
    },
    {
      "inputs": [],
      "name": "NotEnoughMaticAmount",
      "type": "error"
    },
    {
      "inputs": [],
      "name": "OldAccInputHashDoesNotExist",
      "type": "error"
    },
    {
      "inputs": [],
      "name": "OldStateRootDoesNotExist",
      "type": "error"
    },
    {
      "inputs": [],
      "name": "OnlyAdmin",
      "type": "error"
    },
    {
      "inputs": [],
      "name": "OnlyEmergencyState",
      "type": "error"
    },
    {
      "inputs": [],
      "name": "OnlyNotEmergencyState",
      "type": "error"
    },
    {
      "inputs": [],
      "name": "OnlyPendingAdmin",
      "type": "error"
    },
    {
      "inputs": [],
      "name": "OnlyTrustedAggregator",
      "type": "error"
    },
    {
      "inputs": [],
      "name": "OnlyTrustedSequencer",
      "type": "error"
    },
    {
      "inputs": [],
      "name": "PendingStateDoesNotExist",
      "type": "error"
    },
    {
      "inputs": [],
      "name": "PendingStateInvalid",
      "type": "error"
    },
    {
      "inputs": [],
      "name": "PendingStateNotConsolidable",
      "type": "error"
    },
    {
      "inputs": [],
      "name": "PendingStateTimeoutExceedHaltAggregationTimeout",
      "type": "error"
    },
    {
      "inputs": [],
      "name": "SequenceZeroBatches",
      "type": "error"
    },
    {
      "inputs": [],
      "name": "SequencedTimestampBelowForcedTimestamp",
      "type": "error"
    },
    {
      "inputs": [],
      "name": "SequencedTimestampInvalid",
      "type": "error"
    },
    {
      "inputs": [],
      "name": "StoredRootMustBeDifferentThanNewRoot",
      "type": "error"
    },
    {
      "inputs": [],
      "name": "TransactionsLengthAboveMax",
      "type": "error"
    },
    {
      "inputs": [],
      "name": "TrustedAggregatorTimeoutExceedHaltAggregationTimeout",
      "type": "error"
    },
    {
      "inputs": [],
      "name": "TrustedAggregatorTimeoutNotExpired",
      "type": "error"
    },
    {
      "anonymous": false,
      "inputs": [
        {
          "indexed": false,
          "internalType": "address",
          "name": "newAdmin",
          "type": "address"
        }
      ],
      "name": "AcceptAdminRole",
      "type": "event"
    },
    {
      "anonymous": false,
      "inputs": [
        {
          "indexed": true,
          "internalType": "uint64",
          "name": "numBatch",
          "type": "uint64"
        },
        {
          "indexed": false,
          "internalType": "bytes32",
          "name": "stateRoot",
          "type": "bytes32"
        },
        {
          "indexed": true,
          "internalType": "uint64",
          "name": "pendingStateNum",
          "type": "uint64"
        }
      ],
      "name": "ConsolidatePendingState",
      "type": "event"
    },
    {
      "anonymous": false,
      "inputs": [],
      "name": "EmergencyStateActivated",
      "type": "event"
    },
    {
      "anonymous": false,
      "inputs": [],
      "name": "EmergencyStateDeactivated",
      "type": "event"
    },
    {
      "anonymous": false,
      "inputs": [
        {
          "indexed": true,
          "internalType": "uint64",
          "name": "forceBatchNum",
          "type": "uint64"
        },
        {
          "indexed": false,
          "internalType": "bytes32",
          "name": "lastGlobalExitRoot",
          "type": "bytes32"
        },
        {
          "indexed": false,
          "internalType": "address",
          "name": "sequencer",
          "type": "address"
        },
        {
          "indexed": false,
          "internalType": "bytes",
          "name": "transactions",
          "type": "bytes"
        }
      ],
      "name": "ForceBatch",
      "type": "event"
    },
    {
      "anonymous": false,
      "inputs": [
        {
          "indexed": false,
          "internalType": "uint8",
          "name": "version",
          "type": "uint8"
        }
      ],
      "name": "Initialized",
      "type": "event"
    },
    {
      "anonymous": false,
      "inputs": [
        {
          "indexed": true,
          "internalType": "uint64",
          "name": "numBatch",
          "type": "uint64"
        },
        {
          "indexed": false,
          "internalType": "bytes32",
          "name": "stateRoot",
          "type": "bytes32"
        },
        {
          "indexed": true,
          "internalType": "address",
          "name": "aggregator",
          "type": "address"
        }
      ],
      "name": "OverridePendingState",
      "type": "event"
    },
    {
      "anonymous": false,
      "inputs": [
        {
          "indexed": true,
          "internalType": "address",
          "name": "previousOwner",
          "type": "address"
        },
        {
          "indexed": true,
          "internalType": "address",
          "name": "newOwner",
          "type": "address"
        }
      ],
      "name": "OwnershipTransferred",
      "type": "event"
    },
    {
      "anonymous": false,
      "inputs": [
        {
          "indexed": false,
          "internalType": "bytes32",
          "name": "storedStateRoot",
          "type": "bytes32"
        },
        {
          "indexed": false,
          "internalType": "bytes32",
          "name": "provedStateRoot",
          "type": "bytes32"
        }
      ],
      "name": "ProveNonDeterministicPendingState",
      "type": "event"
    },
    {
      "anonymous": false,
      "inputs": [
        {
          "indexed": true,
          "internalType": "uint64",
          "name": "numBatch",
          "type": "uint64"
        }
      ],
      "name": "SequenceBatches",
      "type": "event"
    },
    {
      "anonymous": false,
      "inputs": [
        {
          "indexed": true,
          "internalType": "uint64",
          "name": "numBatch",
          "type": "uint64"
        }
      ],
      "name": "SequenceForceBatches",
      "type": "event"
    },
    {
      "anonymous": false,
      "inputs": [
        {
          "indexed": false,
          "internalType": "uint16",
          "name": "newMultiplierBatchFee",
          "type": "uint16"
        }
      ],
      "name": "SetMultiplierBatchFee",
      "type": "event"
    },
    {
      "anonymous": false,
      "inputs": [
        {
          "indexed": false,
          "internalType": "uint64",
          "name": "newPendingStateTimeout",
          "type": "uint64"
        }
      ],
      "name": "SetPendingStateTimeout",
      "type": "event"
    },
    {
      "anonymous": false,
      "inputs": [
        {
          "indexed": false,
          "internalType": "address",
          "name": "newTrustedAggregator",
          "type": "address"
        }
      ],
      "name": "SetTrustedAggregator",
      "type": "event"
    },
    {
      "anonymous": false,
      "inputs": [
        {
          "indexed": false,
          "internalType": "uint64",
          "name": "newTrustedAggregatorTimeout",
          "type": "uint64"
        }
      ],
      "name": "SetTrustedAggregatorTimeout",
      "type": "event"
    },
    {
      "anonymous": false,
      "inputs": [
        {
          "indexed": false,
          "internalType": "address",
          "name": "newTrustedSequencer",
          "type": "address"
        }
      ],
      "name": "SetTrustedSequencer",
      "type": "event"
    },
    {
      "anonymous": false,
      "inputs": [
        {
          "indexed": false,
          "internalType": "string",
          "name": "newTrustedSequencerURL",
          "type": "string"
        }
      ],
      "name": "SetTrustedSequencerURL",
      "type": "event"
    },
    {
      "anonymous": false,
      "inputs": [
        {
          "indexed": false,
          "internalType": "uint64",
          "name": "newVerifyBatchTimeTarget",
          "type": "uint64"
        }
      ],
      "name": "SetVerifyBatchTimeTarget",
      "type": "event"
    },
    {
      "anonymous": false,
      "inputs": [
        {
          "indexed": false,
          "internalType": "address",
          "name": "newPendingAdmin",
          "type": "address"
        }
      ],
      "name": "TransferAdminRole",
      "type": "event"
    },
    {
      "anonymous": false,
      "inputs": [
        {
          "indexed": false,
          "internalType": "uint64",
          "name": "numBatch",
          "type": "uint64"
        },
        {
          "indexed": false,
          "internalType": "uint64",
          "name": "forkID",
          "type": "uint64"
        },
        {
          "indexed": false,
          "internalType": "string",
          "name": "version",
          "type": "string"
        }
      ],
      "name": "UpdateZkEVMVersion",
      "type": "event"
    },
    {
      "anonymous": false,
      "inputs": [
        {
          "indexed": true,
          "internalType": "uint64",
          "name": "numBatch",
          "type": "uint64"
        },
        {
          "indexed": false,
          "internalType": "bytes32",
          "name": "stateRoot",
          "type": "bytes32"
        },
        {
          "indexed": true,
          "internalType": "address",
          "name": "aggregator",
          "type": "address"
        }
      ],
      "name": "VerifyBatches",
      "type": "event"
    },
    {
      "anonymous": false,
      "inputs": [
        {
          "indexed": true,
          "internalType": "uint64",
          "name": "numBatch",
          "type": "uint64"
        },
        {
          "indexed": false,
          "internalType": "bytes32",
          "name": "stateRoot",
          "type": "bytes32"
        },
        {
          "indexed": true,
          "internalType": "address",
          "name": "aggregator",
          "type": "address"
        }
      ],
      "name": "VerifyBatchesTrustedAggregator",
      "type": "event"
    },
    {
      "inputs": [],
      "name": "acceptAdminRole",
      "outputs": [],
      "stateMutability": "nonpayable",
      "type": "function"
    },
    {
      "inputs": [
        {
          "internalType": "uint64",
          "name": "sequencedBatchNum",
          "type": "uint64"
        }
      ],
      "name": "activateEmergencyState",
      "outputs": [],
      "stateMutability": "nonpayable",
      "type": "function"
    },
    {
      "inputs": [],
      "name": "admin",
      "outputs": [
        {
          "internalType": "address",
          "name": "",
          "type": "address"
        }
      ],
      "stateMutability": "view",
      "type": "function"
    },
    {
      "inputs": [],
      "name": "batchFee",
      "outputs": [
        {
          "internalType": "uint256",
          "name": "",
          "type": "uint256"
        }
      ],
      "stateMutability": "view",
      "type": "function"
    },
    {
      "inputs": [
        {
          "internalType": "uint64",
          "name": "",
          "type": "uint64"
        }
      ],
      "name": "batchNumToStateRoot",
      "outputs": [
        {
          "internalType": "bytes32",
          "name": "",
          "type": "bytes32"
        }
      ],
      "stateMutability": "view",
      "type": "function"
    },
    {
      "inputs": [],
      "name": "bridgeAddress",
      "outputs": [
        {
          "internalType": "contract IPolygonZkEVMBridge",
          "name": "",
          "type": "address"
        }
      ],
      "stateMutability": "view",
      "type": "function"
    },
    {
      "inputs": [],
      "name": "calculateRewardPerBatch",
      "outputs": [
        {
          "internalType": "uint256",
          "name": "",
          "type": "uint256"
        }
      ],
      "stateMutability": "view",
      "type": "function"
    },
    {
      "inputs": [],
      "name": "chainID",
      "outputs": [
        {
          "internalType": "uint64",
          "name": "",
          "type": "uint64"
        }
      ],
      "stateMutability": "view",
      "type": "function"
    },
    {
      "inputs": [
        {
          "internalType": "uint64",
          "name": "pendingStateNum",
          "type": "uint64"
        }
      ],
      "name": "consolidatePendingState",
      "outputs": [],
      "stateMutability": "nonpayable",
      "type": "function"
    },
    {
      "inputs": [],
      "name": "deactivateEmergencyState",
      "outputs": [],
      "stateMutability": "nonpayable",
      "type": "function"
    },
    {
      "inputs": [
        {
          "internalType": "uint64",
          "name": "",
          "type": "uint64"
        }
      ],
      "name": "forcedBatches",
      "outputs": [
        {
          "internalType": "bytes32",
          "name": "",
          "type": "bytes32"
        }
      ],
      "stateMutability": "view",
      "type": "function"
    },
    {
      "inputs": [],
      "name": "forkID",
      "outputs": [
        {
          "internalType": "uint64",
          "name": "",
          "type": "uint64"
        }
      ],
      "stateMutability": "view",
      "type": "function"
    },
    {
      "inputs": [],
      "name": "getCurrentBatchFee",
      "outputs": [
        {
          "internalType": "uint256",
          "name": "",
          "type": "uint256"
        }
      ],
      "stateMutability": "view",
      "type": "function"
    },
    {
      "inputs": [
        {
          "internalType": "uint64",
          "name": "initNumBatch",
          "type": "uint64"
        },
        {
          "internalType": "uint64",
          "name": "finalNewBatch",
          "type": "uint64"
        },
        {
          "internalType": "bytes32",
          "name": "newLocalExitRoot",
          "type": "bytes32"
        },
        {
          "internalType": "bytes32",
          "name": "oldStateRoot",
          "type": "bytes32"
        },
        {
          "internalType": "bytes32",
          "name": "newStateRoot",
          "type": "bytes32"
        }
      ],
      "name": "getInputSnarkBytes",
      "outputs": [
        {
          "internalType": "bytes",
          "name": "",
          "type": "bytes"
        }
      ],
      "stateMutability": "view",
      "type": "function"
    },
    {
      "inputs": [],
      "name": "getLastVerifiedBatch",
      "outputs": [
        {
          "internalType": "uint64",
          "name": "",
          "type": "uint64"
        }
      ],
      "stateMutability": "view",
      "type": "function"
    },
    {
      "inputs": [],
      "name": "globalExitRootManager",
      "outputs": [
        {
          "internalType": "contract IPolygonZkEVMGlobalExitRoot",
          "name": "",
          "type": "address"
        }
      ],
      "stateMutability": "view",
      "type": "function"
    },
    {
      "inputs": [],
      "name": "hotShot",
      "outputs": [
        {
          "internalType": "contract IHotShot",
          "name": "",
          "type": "address"
        }
      ],
      "stateMutability": "view",
      "type": "function"
    },
    {
      "inputs": [
        {
          "components": [
            {
              "internalType": "address",
              "name": "admin",
              "type": "address"
            },
            {
              "internalType": "address",
              "name": "trustedSequencer",
              "type": "address"
            },
            {
              "internalType": "uint64",
              "name": "pendingStateTimeout",
              "type": "uint64"
            },
            {
              "internalType": "address",
              "name": "trustedAggregator",
              "type": "address"
            },
            {
              "internalType": "uint64",
              "name": "trustedAggregatorTimeout",
              "type": "uint64"
            }
          ],
          "internalType": "struct PolygonZkEVM.InitializePackedParameters",
          "name": "initializePackedParameters",
          "type": "tuple"
        },
        {
          "internalType": "bytes32",
          "name": "genesisRoot",
          "type": "bytes32"
        },
        {
          "internalType": "string",
          "name": "_trustedSequencerURL",
          "type": "string"
        },
        {
          "internalType": "string",
          "name": "_networkName",
          "type": "string"
        },
        {
          "internalType": "string",
          "name": "_version",
          "type": "string"
        }
      ],
      "name": "initialize",
      "outputs": [],
      "stateMutability": "nonpayable",
      "type": "function"
    },
    {
      "inputs": [],
      "name": "isEmergencyState",
      "outputs": [
        {
          "internalType": "bool",
          "name": "",
          "type": "bool"
        }
      ],
      "stateMutability": "view",
      "type": "function"
    },
    {
      "inputs": [
        {
          "internalType": "uint64",
          "name": "pendingStateNum",
          "type": "uint64"
        }
      ],
      "name": "isPendingStateConsolidable",
      "outputs": [
        {
          "internalType": "bool",
          "name": "",
          "type": "bool"
        }
      ],
      "stateMutability": "view",
      "type": "function"
    },
    {
      "inputs": [],
      "name": "lastBatchSequenced",
      "outputs": [
        {
          "internalType": "uint64",
          "name": "",
          "type": "uint64"
        }
      ],
      "stateMutability": "view",
      "type": "function"
    },
    {
      "inputs": [],
      "name": "lastForceBatch",
      "outputs": [
        {
          "internalType": "uint64",
          "name": "",
          "type": "uint64"
        }
      ],
      "stateMutability": "view",
      "type": "function"
    },
    {
      "inputs": [],
      "name": "lastForceBatchSequenced",
      "outputs": [
        {
          "internalType": "uint64",
          "name": "",
          "type": "uint64"
        }
      ],
      "stateMutability": "view",
      "type": "function"
    },
    {
      "inputs": [],
      "name": "lastPendingState",
      "outputs": [
        {
          "internalType": "uint64",
          "name": "",
          "type": "uint64"
        }
      ],
      "stateMutability": "view",
      "type": "function"
    },
    {
      "inputs": [],
      "name": "lastPendingStateConsolidated",
      "outputs": [
        {
          "internalType": "uint64",
          "name": "",
          "type": "uint64"
        }
      ],
      "stateMutability": "view",
      "type": "function"
    },
    {
      "inputs": [],
      "name": "lastTimestamp",
      "outputs": [
        {
          "internalType": "uint64",
          "name": "",
          "type": "uint64"
        }
      ],
      "stateMutability": "view",
      "type": "function"
    },
    {
      "inputs": [],
      "name": "lastVerifiedBatch",
      "outputs": [
        {
          "internalType": "uint64",
          "name": "",
          "type": "uint64"
        }
      ],
      "stateMutability": "view",
      "type": "function"
    },
    {
      "inputs": [],
      "name": "matic",
      "outputs": [
        {
          "internalType": "contract IERC20Upgradeable",
          "name": "",
          "type": "address"
        }
      ],
      "stateMutability": "view",
      "type": "function"
    },
    {
      "inputs": [],
      "name": "multiplierBatchFee",
      "outputs": [
        {
          "internalType": "uint16",
          "name": "",
          "type": "uint16"
        }
      ],
      "stateMutability": "view",
      "type": "function"
    },
    {
      "inputs": [],
      "name": "networkName",
      "outputs": [
        {
          "internalType": "string",
          "name": "",
          "type": "string"
        }
      ],
      "stateMutability": "view",
      "type": "function"
    },
    {
      "inputs": [
        {
          "internalType": "uint64",
          "name": "initPendingStateNum",
          "type": "uint64"
        },
        {
          "internalType": "uint64",
          "name": "finalPendingStateNum",
          "type": "uint64"
        },
        {
          "internalType": "uint64",
          "name": "initNumBatch",
          "type": "uint64"
        },
        {
          "internalType": "uint64",
          "name": "finalNewBatch",
          "type": "uint64"
        },
        {
          "internalType": "bytes32",
          "name": "newLocalExitRoot",
          "type": "bytes32"
        },
        {
          "internalType": "bytes32",
          "name": "newStateRoot",
          "type": "bytes32"
        },
        {
          "internalType": "uint256[2]",
          "name": "proofA",
          "type": "uint256[2]"
        },
        {
          "internalType": "uint256[2][2]",
          "name": "proofB",
          "type": "uint256[2][2]"
        },
        {
          "internalType": "uint256[2]",
          "name": "proofC",
          "type": "uint256[2]"
        }
      ],
      "name": "overridePendingState",
      "outputs": [],
      "stateMutability": "nonpayable",
      "type": "function"
    },
    {
      "inputs": [],
      "name": "owner",
      "outputs": [
        {
          "internalType": "address",
          "name": "",
          "type": "address"
        }
      ],
      "stateMutability": "view",
      "type": "function"
    },
    {
      "inputs": [],
      "name": "pendingAdmin",
      "outputs": [
        {
          "internalType": "address",
          "name": "",
          "type": "address"
        }
      ],
      "stateMutability": "view",
      "type": "function"
    },
    {
      "inputs": [],
      "name": "pendingStateTimeout",
      "outputs": [
        {
          "internalType": "uint64",
          "name": "",
          "type": "uint64"
        }
      ],
      "stateMutability": "view",
      "type": "function"
    },
    {
      "inputs": [
        {
          "internalType": "uint256",
          "name": "",
          "type": "uint256"
        }
      ],
      "name": "pendingStateTransitions",
      "outputs": [
        {
          "internalType": "uint64",
          "name": "timestamp",
          "type": "uint64"
        },
        {
          "internalType": "uint64",
          "name": "lastVerifiedBatch",
          "type": "uint64"
        },
        {
          "internalType": "bytes32",
          "name": "exitRoot",
          "type": "bytes32"
        },
        {
          "internalType": "bytes32",
          "name": "stateRoot",
          "type": "bytes32"
        }
      ],
      "stateMutability": "view",
      "type": "function"
    },
    {
      "inputs": [
        {
          "internalType": "uint64",
          "name": "initPendingStateNum",
          "type": "uint64"
        },
        {
          "internalType": "uint64",
          "name": "finalPendingStateNum",
          "type": "uint64"
        },
        {
          "internalType": "uint64",
          "name": "initNumBatch",
          "type": "uint64"
        },
        {
          "internalType": "uint64",
          "name": "finalNewBatch",
          "type": "uint64"
        },
        {
          "internalType": "bytes32",
          "name": "newLocalExitRoot",
          "type": "bytes32"
        },
        {
          "internalType": "bytes32",
          "name": "newStateRoot",
          "type": "bytes32"
        },
        {
          "internalType": "uint256[2]",
          "name": "proofA",
          "type": "uint256[2]"
        },
        {
          "internalType": "uint256[2][2]",
          "name": "proofB",
          "type": "uint256[2][2]"
        },
        {
          "internalType": "uint256[2]",
          "name": "proofC",
          "type": "uint256[2]"
        }
      ],
      "name": "proveNonDeterministicPendingState",
      "outputs": [],
      "stateMutability": "nonpayable",
      "type": "function"
    },
    {
      "inputs": [],
      "name": "renounceOwnership",
      "outputs": [],
      "stateMutability": "nonpayable",
      "type": "function"
    },
    {
      "inputs": [],
      "name": "rollupVerifier",
      "outputs": [
        {
          "internalType": "contract IVerifierRollup",
          "name": "",
          "type": "address"
        }
      ],
      "stateMutability": "view",
      "type": "function"
    },
    {
      "inputs": [
        {
          "internalType": "uint64",
          "name": "",
          "type": "uint64"
        }
      ],
      "name": "sequencedBatches",
      "outputs": [
        {
          "internalType": "bytes32",
          "name": "accInputHash",
          "type": "bytes32"
        },
        {
          "internalType": "uint64",
          "name": "sequencedTimestamp",
          "type": "uint64"
        },
        {
          "internalType": "uint64",
          "name": "previousLastBatchSequenced",
          "type": "uint64"
        }
      ],
      "stateMutability": "view",
      "type": "function"
    },
    {
      "inputs": [
        {
          "internalType": "uint16",
          "name": "newMultiplierBatchFee",
          "type": "uint16"
        }
      ],
      "name": "setMultiplierBatchFee",
      "outputs": [],
      "stateMutability": "nonpayable",
      "type": "function"
    },
    {
      "inputs": [
        {
          "internalType": "uint64",
          "name": "newPendingStateTimeout",
          "type": "uint64"
        }
      ],
      "name": "setPendingStateTimeout",
      "outputs": [],
      "stateMutability": "nonpayable",
      "type": "function"
    },
    {
      "inputs": [
        {
          "internalType": "address",
          "name": "newTrustedAggregator",
          "type": "address"
        }
      ],
      "name": "setTrustedAggregator",
      "outputs": [],
      "stateMutability": "nonpayable",
      "type": "function"
    },
    {
      "inputs": [
        {
          "internalType": "uint64",
          "name": "newTrustedAggregatorTimeout",
          "type": "uint64"
        }
      ],
      "name": "setTrustedAggregatorTimeout",
      "outputs": [],
      "stateMutability": "nonpayable",
      "type": "function"
    },
    {
      "inputs": [
        {
          "internalType": "address",
          "name": "newTrustedSequencer",
          "type": "address"
        }
      ],
      "name": "setTrustedSequencer",
      "outputs": [],
      "stateMutability": "nonpayable",
      "type": "function"
    },
    {
      "inputs": [
        {
          "internalType": "string",
          "name": "newTrustedSequencerURL",
          "type": "string"
        }
      ],
      "name": "setTrustedSequencerURL",
      "outputs": [],
      "stateMutability": "nonpayable",
      "type": "function"
    },
    {
      "inputs": [
        {
          "internalType": "uint64",
          "name": "newVerifyBatchTimeTarget",
          "type": "uint64"
        }
      ],
      "name": "setVerifyBatchTimeTarget",
      "outputs": [],
      "stateMutability": "nonpayable",
      "type": "function"
    },
    {
      "inputs": [
        {
          "internalType": "address",
          "name": "newPendingAdmin",
          "type": "address"
        }
      ],
      "name": "transferAdminRole",
      "outputs": [],
      "stateMutability": "nonpayable",
      "type": "function"
    },
    {
      "inputs": [
        {
          "internalType": "address",
          "name": "newOwner",
          "type": "address"
        }
      ],
      "name": "transferOwnership",
      "outputs": [],
      "stateMutability": "nonpayable",
      "type": "function"
    },
    {
      "inputs": [],
      "name": "trustedAggregator",
      "outputs": [
        {
          "internalType": "address",
          "name": "",
          "type": "address"
        }
      ],
      "stateMutability": "view",
      "type": "function"
    },
    {
      "inputs": [],
      "name": "trustedAggregatorTimeout",
      "outputs": [
        {
          "internalType": "uint64",
          "name": "",
          "type": "uint64"
        }
      ],
      "stateMutability": "view",
      "type": "function"
    },
    {
      "inputs": [],
      "name": "trustedSequencer",
      "outputs": [
        {
          "internalType": "address",
          "name": "",
          "type": "address"
        }
      ],
      "stateMutability": "view",
      "type": "function"
    },
    {
      "inputs": [],
      "name": "trustedSequencerURL",
      "outputs": [
        {
          "internalType": "string",
          "name": "",
          "type": "string"
        }
      ],
      "stateMutability": "view",
      "type": "function"
    },
    {
      "inputs": [],
      "name": "verifyBatchTimeTarget",
      "outputs": [
        {
          "internalType": "uint64",
          "name": "",
          "type": "uint64"
        }
      ],
      "stateMutability": "view",
      "type": "function"
    },
    {
      "inputs": [
        {
          "internalType": "uint64",
          "name": "pendingStateNum",
          "type": "uint64"
        },
        {
          "internalType": "uint64",
          "name": "initNumBatch",
          "type": "uint64"
        },
        {
          "internalType": "uint64",
          "name": "finalNewBatch",
          "type": "uint64"
        },
        {
          "internalType": "bytes32",
          "name": "newLocalExitRoot",
          "type": "bytes32"
        },
        {
          "internalType": "bytes32",
          "name": "newStateRoot",
          "type": "bytes32"
        },
        {
          "internalType": "uint256[2]",
          "name": "proofA",
          "type": "uint256[2]"
        },
        {
          "internalType": "uint256[2][2]",
          "name": "proofB",
          "type": "uint256[2][2]"
        },
        {
          "internalType": "uint256[2]",
          "name": "proofC",
          "type": "uint256[2]"
        },
        {
          "components": [
            {
              "internalType": "bytes32",
              "name": "oldAccInputHash",
              "type": "bytes32"
            },
            {
              "internalType": "bytes32",
              "name": "newAccInputHash",
              "type": "bytes32"
            },
            {
              "internalType": "bytes",
              "name": "commProof",
              "type": "bytes"
            }
          ],
          "internalType": "struct PolygonZkEVM.PackedHotShotParams",
          "name": "packedHotShotParams",
          "type": "tuple"
        }
      ],
      "name": "verifyBatches",
      "outputs": [],
      "stateMutability": "nonpayable",
      "type": "function"
    },
    {
      "inputs": [
        {
          "internalType": "uint64",
          "name": "pendingStateNum",
          "type": "uint64"
        },
        {
          "internalType": "uint64",
          "name": "initNumBatch",
          "type": "uint64"
        },
        {
          "internalType": "uint64",
          "name": "finalNewBatch",
          "type": "uint64"
        },
        {
          "internalType": "bytes32",
          "name": "newLocalExitRoot",
          "type": "bytes32"
        },
        {
          "internalType": "bytes32",
          "name": "newStateRoot",
          "type": "bytes32"
        },
        {
          "internalType": "uint256[2]",
          "name": "proofA",
          "type": "uint256[2]"
        },
        {
          "internalType": "uint256[2][2]",
          "name": "proofB",
          "type": "uint256[2][2]"
        },
        {
          "internalType": "uint256[2]",
          "name": "proofC",
          "type": "uint256[2]"
        },
        {
          "components": [
            {
              "internalType": "bytes32",
              "name": "oldAccInputHash",
              "type": "bytes32"
            },
            {
              "internalType": "bytes32",
              "name": "newAccInputHash",
              "type": "bytes32"
            },
            {
              "internalType": "bytes",
              "name": "commProof",
              "type": "bytes"
            }
          ],
          "internalType": "struct PolygonZkEVM.PackedHotShotParams",
          "name": "packedHotShotParams",
          "type": "tuple"
        }
      ],
      "name": "verifyBatchesTrustedAggregator",
      "outputs": [],
      "stateMutability": "nonpayable",
      "type": "function"
    }
  ],
  "bytecode": "0x6101606040523480156200001257600080fd5b50604051620037c8380380620037c88339810160408190526200003591620000ac565b6001600160a01b0396871660c05294861660805292851660a05290841660e052909216610100526001600160401b039182166101205216610140526200014f565b6001600160a01b03811681146200008c57600080fd5b50565b80516001600160401b0381168114620000a757600080fd5b919050565b600080600080600080600060e0888a031215620000c857600080fd5b8751620000d58162000076565b6020890151909750620000e88162000076565b6040890151909650620000fb8162000076565b60608901519095506200010e8162000076565b6080890151909450620001218162000076565b92506200013160a089016200008f565b91506200014160c089016200008f565b905092959891949750929550565b60805160a05160c05160e0516101005161012051610140516135ae6200021a6000396000818161055101528181610a7101528181611a070152612ae501526000818161069c01528181610a500152612ac40152600081816104b60152818161207f015261211e01526000818161064f01528181611abc01526123970152600081816107a701528181610d1e0152818161149101528181611bd90152611e6501526000818161083001528181612240015261267201526000818161074b015261109201526135ae6000f3fe608060405234801561001057600080fd5b50600436106102ed5760003560e01c8063841b24d711610193578063c0ed84e0116100e4578063e11f3f1811610092578063e11f3f18146107fe578063e7a7ed0214610811578063e8bf92ed1461082b578063f14916d614610852578063f2fde38b14610865578063f851a44014610878578063f8b823e41461088b57600080fd5b8063c0ed84e01461076d578063c89e42df14610775578063cfa8ed4714610788578063d02103ca146107a2578063d2e129f9146107c9578063d939b315146107dc578063dbc16976146107f657600080fd5b8063a3c573eb11610141578063a3c573eb1461064a578063aba576f114610671578063ada8f91914610684578063adc879e914610697578063afd23cbe146106be578063b4d63f58146106e6578063b6b0b0971461074657600080fd5b8063841b24d7146105e15780638c3d7301146105fb5780638da5cb5b1461060357806399f5634e146106145780639c9f3dfe1461061c5780639f0d039d1461062f578063a066215c1461063757600080fd5b80634a1a89a71161024d5780636ff512cc116101fb5780636ff512cc146104f8578063715018a61461050b5780637215541a1461051357806375c508b3146105265780637fcb365314610539578063831c7ead1461054c578063837a47381461057357600080fd5b80634a1a89a71461043b5780634a910e6a146104555780635392c5e014610468578063542028d514610496578063590ae2111461049e5780636375e13c146104b15780636b8616ce146104d857600080fd5b806326782247116102aa578063267822471461039457806329878983146103b4578063383b3be8146103ce578063394218e9146103e1578063423fa856146103f4578063456052671461040e578063458c04771461042857600080fd5b80630a0d9fbe146102f2578063107bf28c1461032757806315064c961461033c5780631816b7e51461035957806319d8ac611461036e578063220d789914610381575b600080fd5b606f5461030a9061010090046001600160401b031681565b6040516001600160401b0390911681526020015b60405180910390f35b61032f610894565b60405161031e9190612bec565b606f546103499060ff1681565b604051901515815260200161031e565b61036c610367366004612c06565b610922565b005b60735461030a906001600160401b031681565b61032f61038f366004612c46565b6109db565b607b546103a7906001600160a01b031681565b60405161031e9190612c93565b6074546103a790600160401b90046001600160a01b031681565b6103496103dc366004612ca7565b610ac9565b61036c6103ef366004612ca7565b610b10565b60735461030a90600160401b90046001600160401b031681565b60735461030a90600160801b90046001600160401b031681565b60795461030a906001600160401b031681565b60795461030a90600160401b90046001600160401b031681565b61036c610463366004612ca7565b610bfe565b610488610476366004612ca7565b60756020526000908152604090205481565b60405190815260200161031e565b61032f610c6d565b61036c6104ac366004612e01565b610c7a565b6103a77f000000000000000000000000000000000000000000000000000000000000000081565b6104886104e6366004612ca7565b60716020526000908152604090205481565b61036c610506366004612eb9565b610dce565b61036c610e4d565b61036c610521366004612ca7565b610e61565b61036c610534366004612ee2565b610f6e565b60745461030a906001600160401b031681565b61030a7f000000000000000000000000000000000000000000000000000000000000000081565b6105b6610581366004612f80565b6078602052600090815260409020805460018201546002909201546001600160401b0380831693600160401b90930416919084565b604080516001600160401b03958616815294909316602085015291830152606082015260800161031e565b60795461030a90600160c01b90046001600160401b031681565b61036c611009565b6033546001600160a01b03166103a7565b61048861108d565b61036c61062a366004612ca7565b61119a565b607054610488565b61036c610645366004612ca7565b61128d565b6103a77f000000000000000000000000000000000000000000000000000000000000000081565b61036c61067f366004612f99565b61133c565b61036c610692366004612eb9565b6115e8565b61030a7f000000000000000000000000000000000000000000000000000000000000000081565b606f546106d390600160481b900461ffff1681565b60405161ffff909116815260200161031e565b6107216106f4366004612ca7565b607260205260009081526040902080546001909101546001600160401b0380821691600160401b90041683565b604080519384526001600160401b03928316602085015291169082015260600161031e565b6103a77f000000000000000000000000000000000000000000000000000000000000000081565b61030a61165e565b61036c610783366004613078565b6116ab565b606f546103a790600160581b90046001600160a01b031681565b6103a77f000000000000000000000000000000000000000000000000000000000000000081565b61036c6107d73660046130b4565b611712565b60795461030a90600160801b90046001600160401b031681565b61036c611a8f565b61036c61080c366004612ee2565b611b35565b60735461030a90600160c01b90046001600160401b031681565b6103a77f000000000000000000000000000000000000000000000000000000000000000081565b61036c610860366004612eb9565b611c90565b61036c610873366004612eb9565b611d0f565b607a546103a7906001600160a01b031681565b61048860705481565b607780546108a190613192565b80601f01602080910402602001604051908101604052809291908181526020018280546108cd90613192565b801561091a5780601f106108ef5761010080835404028352916020019161091a565b820191906000526020600020905b8154815290600101906020018083116108fd57829003601f168201915b505050505081565b607a546001600160a01b0316331461094d57604051634755657960e01b815260040160405180910390fd5b6103e88161ffff16108061096657506103ff8161ffff16115b1561098457604051630984a67960e31b815260040160405180910390fd5b606f805461ffff60481b1916600160481b61ffff8416908102919091179091556040519081527f7019933d795eba185c180209e8ae8bffbaa25bcef293364687702c31f4d302c5906020015b60405180910390a150565b6001600160401b038086166000818152607260205260408082205493881682529020546060929115801590610a0e575081155b15610a2c5760405163340c614f60e11b815260040160405180910390fd5b80610a4a576040516366385b5160e01b815260040160405180910390fd5b3385838a7f00000000000000000000000000000000000000000000000000000000000000007f000000000000000000000000000000000000000000000000000000000000000089878d8f604051602001610aad9a999897969594939291906131cc565b6040516020818303038152906040529250505095945050505050565b6079546001600160401b0382811660009081526078602052604081205490924292610aff92600160801b90920481169116613255565b6001600160401b0316111592915050565b607a546001600160a01b03163314610b3b57604051634755657960e01b815260040160405180910390fd5b62093a806001600160401b0382161115610b6857604051631d06e87960e01b815260040160405180910390fd5b606f5460ff16610ba8576079546001600160401b03600160c01b909104811690821610610ba85760405163401636df60e01b815260040160405180910390fd5b607980546001600160c01b0316600160c01b6001600160401b038416908102919091179091556040519081527f1f4fa24c2e4bad19a7f3ec5c5485f70d46c798461c2e684f55bbd0fc661373a1906020016109d0565b607454600160401b90046001600160a01b03163314610c6157606f5460ff1615610c3b57604051630bc011ff60e21b815260040160405180910390fd5b610c4481610ac9565b610c6157604051630674f25160e11b815260040160405180910390fd5b610c6a81611d85565b50565b607680546108a190613192565b607454600160401b90046001600160a01b03163314610cac5760405163bbcbbc0560e01b815260040160405180910390fd5b610cbd898989898989898989611f1f565b6074805467ffffffffffffffff19166001600160401b0389811691821790925560009081526075602052604090208690556079541615610d0857607980546001600160801b03191690555b6040516333d6247d60e01b8152600481018790527f00000000000000000000000000000000000000000000000000000000000000006001600160a01b0316906333d6247d90602401600060405180830381600087803b158015610d6a57600080fd5b505af1158015610d7e573d6000803e3d6000fd5b50506040518781523392506001600160401b038a1691507fcb339b570a7f0b25afa7333371ff11192092a0aeace12b671f4c212f2815c6fe906020015b60405180910390a3505050505050505050565b607a546001600160a01b03163314610df957604051634755657960e01b815260040160405180910390fd5b606f8054600160581b600160f81b031916600160581b6001600160a01b038416021790556040517ff54144f9611984021529f814a1cb6a41e22c58351510a0d9f7e822618abb9cc0906109d0908390612c93565b610e556122e9565b610e5f6000612343565b565b6033546001600160a01b03163314610f66576000610e7d61165e565b9050806001600160401b0316826001600160401b031611610eb15760405163812a372d60e01b815260040160405180910390fd5b6073546001600160401b03600160401b90910481169083161180610ef057506001600160401b0380831660009081526072602052604090206001015416155b15610f0e57604051632631700560e21b815260040160405180910390fd5b6001600160401b038083166000908152607260205260409020600101544291610f3c9162093a809116613255565b6001600160401b03161115610f645760405163692baaad60e11b815260040160405180910390fd5b505b610c6a612395565b606f5460ff1615610f9257604051630bc011ff60e21b815260040160405180910390fd5b610fa3898989898989898989612410565b6001600160401b0386166000908152607560209081526040918290205482519081529081018690527f1f44c21118c4603cfb4e1b621dbcfa2b73efcececee2b99b620b2953d33a7010910160405180910390a1610ffe612395565b505050505050505050565b607b546001600160a01b031633146110345760405163d1ec4b2360e01b815260040160405180910390fd5b607b54607a80546001600160a01b0319166001600160a01b0390921691821790556040517f056dc487bbf0795d0bbb1b4f0af523a855503cff740bfb4d5475f7a90c091e8e9161108391612c93565b60405180910390a1565b6000807f00000000000000000000000000000000000000000000000000000000000000006001600160a01b03166370a08231306040518263ffffffff1660e01b81526004016110dc9190612c93565b602060405180830381865afa1580156110f9573d6000803e3d6000fd5b505050506040513d601f19601f8201168201806040525081019061111d919061327c565b9050600061112961165e565b6073546001600160401b03600160401b820481169161115991600160801b8204811691600160c01b900416613295565b6111639190613255565b61116d9190613295565b6001600160401b03169050806000036111895760009250505090565b61119381836132cb565b9250505090565b607a546001600160a01b031633146111c557604051634755657960e01b815260040160405180910390fd5b62093a806001600160401b03821611156111f257604051630cc9650760e41b815260040160405180910390fd5b606f5460ff16611232576079546001600160401b03600160801b9091048116908216106112325760405163048a05a960e41b815260040160405180910390fd5b6079805467ffffffffffffffff60801b1916600160801b6001600160401b038416908102919091179091556040519081527fc4121f4e22c69632ebb7cf1f462be0511dc034f999b52013eddfb24aab765c75906020016109d0565b607a546001600160a01b031633146112b857604051634755657960e01b815260040160405180910390fd5b62015180816001600160401b031611156112e557604051631c0cfbfd60e31b815260040160405180910390fd5b606f805468ffffffffffffffff0019166101006001600160401b038416908102919091179091556040519081527f1b023231a1ab6b5d93992f168fb44498e1a7e64cef58daff6f1c216de6a68c28906020016109d0565b606f5460ff161561136057604051630bc011ff60e21b815260040160405180910390fd5b6079546001600160401b03888116600090815260726020526040902060010154429261139792600160c01b90910481169116613255565b6001600160401b031611156113bf57604051638a0704d360e01b815260040160405180910390fd5b6103e86113cc8989613295565b6001600160401b031611156113f457604051635acfba9d60e11b815260040160405180910390fd5b61140d89898989898989896114088a6132df565b611f1f565b61141687612754565b607954600160801b90046001600160401b03166000036114fa576074805467ffffffffffffffff19166001600160401b038981169182179092556000908152607560205260409020869055607954161561147b57607980546001600160801b03191690555b6040516333d6247d60e01b8152600481018790527f00000000000000000000000000000000000000000000000000000000000000006001600160a01b0316906333d6247d90602401600060405180830381600087803b1580156114dd57600080fd5b505af11580156114f1573d6000803e3d6000fd5b505050506115ab565b611502612948565b607980546001600160401b031690600061151b836132eb565b82546001600160401b039182166101009390930a9283029282021916919091179091556040805160808101825242831681528a831660208083019182528284018c8152606084018c8152607954871660009081526078909352949091209251835492518616600160401b026001600160801b03199093169516949094171781559151600183015551600290910155505b60405185815233906001600160401b038916907f9c72852172521097ba7e1482e6b44b351323df0155f97f4ea18fcec28e1f596690602001610dbb565b607a546001600160a01b0316331461161357604051634755657960e01b815260040160405180910390fd5b607b80546001600160a01b0319166001600160a01b0383161790556040517fa5b56b7906fd0a20e3f35120dd8343db1e12e037a6c90111c7e42885e82a1ce6906109d0908390612c93565b6079546000906001600160401b03161561169b57506079546001600160401b03908116600090815260786020526040902054600160401b90041690565b506074546001600160401b031690565b607a546001600160a01b031633146116d657604051634755657960e01b815260040160405180910390fd5b60766116e28282613360565b507f6b8f723a4c7a5335cafae8a598a0aa0301be1387c037dccc085b62add6448b20816040516109d09190612bec565b600054610100900460ff16158080156117325750600054600160ff909116105b8061174c5750303b15801561174c575060005460ff166001145b6117b45760405162461bcd60e51b815260206004820152602e60248201527f496e697469616c697a61626c653a20636f6e747261637420697320616c72656160448201526d191e481a5b9a5d1a585b1a5e995960921b60648201526084015b60405180910390fd5b6000805460ff1916600117905580156117d7576000805461ff0019166101001790555b6117e46020880188612eb9565b607a80546001600160a01b0319166001600160a01b03929092169190911790556118146040880160208901612eb9565b606f80546001600160a01b0392909216600160581b02600160581b600160f81b031990921691909117905561184f6080880160608901612eb9565b607480546001600160a01b0392909216600160401b02600160401b600160e01b03199092169190911790556000805260756020527ff9e3fbf150b7a0077118526f473c53cb4734f166167e2c6213e3567dd390b4ad86905560766118b38682613360565b5060776118c08582613360565b5062093a806118d56060890160408a01612ca7565b6001600160401b031611156118fd57604051630cc9650760e41b815260040160405180910390fd5b61190d6060880160408901612ca7565b607980546001600160401b0392909216600160801b0267ffffffffffffffff60801b1990921691909117905562093a8061194d60a0890160808a01612ca7565b6001600160401b0316111561197557604051631d06e87960e01b815260040160405180910390fd5b61198560a0880160808901612ca7565b607980546001600160c01b0316600160c01b6001600160401b039390931692909202919091179055670de0b6b3a7640000607055606f80546affffffffffffffffffff0019166a03ea0000000000000708001790556119e26129ec565b7fed7be53c9f1a96a481223b15568a5b1a475e01a74b347d6ca187c8bf0c078cd660007f00000000000000000000000000000000000000000000000000000000000000008585604051611a38949392919061341f565b60405180910390a18015611a86576000805461ff0019169055604051600181527f7f26b83ff96e1f2b6a682f133852f6798a09c465da95921460cefb38474024989060200160405180910390a15b50505050505050565b607a546001600160a01b03163314611aba57604051634755657960e01b815260040160405180910390fd5b7f00000000000000000000000000000000000000000000000000000000000000006001600160a01b031663dbc169766040518163ffffffff1660e01b8152600401600060405180830381600087803b158015611b1557600080fd5b505af1158015611b29573d6000803e3d6000fd5b50505050610e5f612a60565b607454600160401b90046001600160a01b03163314611b675760405163bbcbbc0560e01b815260040160405180910390fd5b611b78898989898989898989612410565b6074805467ffffffffffffffff19166001600160401b0388811691821790925560009081526075602052604090208590556079541615611bc357607980546001600160801b03191690555b6040516333d6247d60e01b8152600481018690527f00000000000000000000000000000000000000000000000000000000000000006001600160a01b0316906333d6247d90602401600060405180830381600087803b158015611c2557600080fd5b505af1158015611c39573d6000803e3d6000fd5b5050607980546001600160c01b031661127560c71b179055505060405184815233906001600160401b038816907fcc1b5520188bf1dd3e63f98164b577c4d75c11a619ddea692112f0d1aec4cf7290602001610dbb565b607a546001600160a01b03163314611cbb57604051634755657960e01b815260040160405180910390fd5b60748054600160401b600160e01b031916600160401b6001600160a01b038416021790556040517f61f8fec29495a3078e9271456f05fb0707fd4e41f7661865f80fc437d06681ca906109d0908390612c93565b611d176122e9565b6001600160a01b038116611d7c5760405162461bcd60e51b815260206004820152602660248201527f4f776e61626c653a206e6577206f776e657220697320746865207a65726f206160448201526564647265737360d01b60648201526084016117ab565b610c6a81612343565b6079546001600160401b03600160401b9091048116908216111580611db857506079546001600160401b03908116908216115b15611dd65760405163d086b70b60e01b815260040160405180910390fd5b6001600160401b038181166000818152607860209081526040808320805460748054600160401b9283900490981667ffffffffffffffff19909816881790556002820154878652607590945293829020929092556079805467ffffffffffffffff60401b19169390940292909217909255600182015490516333d6247d60e01b815260048101919091529091907f00000000000000000000000000000000000000000000000000000000000000006001600160a01b0316906333d6247d90602401600060405180830381600087803b158015611eb157600080fd5b505af1158015611ec5573d6000803e3d6000fd5b50505050826001600160401b0316816001600160401b03167f328d3c6c0fd6f1be0515e422f2d87e59f25922cbc2233568515a0c4bc3f8510e8460020154604051611f1291815260200190565b60405180910390a3505050565b600080611f2a61165e565b90506001600160401b038b1615611fc0576079546001600160401b03908116908c161115611f6b5760405163bb14c20560e01b815260040160405180910390fd5b6001600160401b03808c1660009081526078602052604090206002810154815490945090918c8116600160401b9092041614611fba57604051632bd2e3e760e01b815260040160405180910390fd5b5061202c565b6001600160401b038a16600090815260756020526040902054915081611ff9576040516324cbdcc360e11b815260040160405180910390fd5b806001600160401b03168a6001600160401b0316111561202c57604051630f2b74f160e11b815260040160405180910390fd5b806001600160401b0316896001600160401b03161161205e5760405163b9b18f5760e01b815260040160405180910390fd5b6040516349ce899760e01b81526001600160401b038b1660048201526000907f00000000000000000000000000000000000000000000000000000000000000006001600160a01b0316906349ce899790602401602060405180830381865afa1580156120ce573d6000803e3d6000fd5b505050506040513d601f19601f820116820180604052508101906120f2919061327c565b6040516349ce899760e01b81526001600160401b038c1660048201529091506000906001600160a01b037f000000000000000000000000000000000000000000000000000000000000000016906349ce899790602401602060405180830381865afa158015612165573d6000803e3d6000fd5b505050506040513d601f19601f82011682018060405250810190612189919061327c565b9050600061219b858e8e8d8f8b612ab8565b905060007f30644e72e131a029b85045b68181585d2833e84879b9709143e1f593f00000016002836040516121d0919061346c565b602060405180830381855afa1580156121ed573d6000803e3d6000fd5b5050506040513d601f19601f82011682018060405250810190612210919061327c565b61221a9190613488565b6040805160208101825282815290516343753b4d60e01b81529192506001600160a01b037f000000000000000000000000000000000000000000000000000000000000000016916343753b4d9161227a918e918e918e919060040161349c565b602060405180830381865afa158015612297573d6000803e3d6000fd5b505050506040513d601f19601f820116820180604052508101906122bb919061350a565b6122d8576040516309bde33960e01b815260040160405180910390fd5b505050505050505050505050505050565b6033546001600160a01b03163314610e5f5760405162461bcd60e51b815260206004820181905260248201527f4f776e61626c653a2063616c6c6572206973206e6f7420746865206f776e657260448201526064016117ab565b603380546001600160a01b038381166001600160a01b0319831681179093556040519116919082907f8be0079c531659141344cd1fd0a4f28419497f9722a3daafe3b4186f6b6457e090600090a35050565b7f00000000000000000000000000000000000000000000000000000000000000006001600160a01b0316632072f6c56040518163ffffffff1660e01b8152600401600060405180830381600087803b1580156123f057600080fd5b505af1158015612404573d6000803e3d6000fd5b50505050610e5f612b40565b60006001600160401b038a16156124a4576079546001600160401b03908116908b1611156124515760405163bb14c20560e01b815260040160405180910390fd5b506001600160401b03808a1660009081526078602052604090206002810154815490928a8116600160401b909204161461249e57604051632bd2e3e760e01b815260040160405180910390fd5b5061250c565b506001600160401b038716600090815260756020526040902054806124dc576040516324cbdcc360e11b815260040160405180910390fd5b6074546001600160401b03908116908916111561250c57604051630f2b74f160e11b815260040160405180910390fd5b6079546001600160401b03908116908a16118061253b5750896001600160401b0316896001600160401b031611155b8061255c57506079546001600160401b03600160401b9091048116908a1611155b1561257a5760405163bfa7079f60e01b815260040160405180910390fd5b6001600160401b03898116600090815260786020526040902054600160401b90048116908816146125be576040516332a2a77f60e01b815260040160405180910390fd5b60006125cd898989858a6109db565b905060007f30644e72e131a029b85045b68181585d2833e84879b9709143e1f593f0000001600283604051612602919061346c565b602060405180830381855afa15801561261f573d6000803e3d6000fd5b5050506040513d601f19601f82011682018060405250810190612642919061327c565b61264c9190613488565b6040805160208101825282815290516343753b4d60e01b81529192506001600160a01b037f000000000000000000000000000000000000000000000000000000000000000016916343753b4d916126ac918a918a918a919060040161349c565b602060405180830381865afa1580156126c9573d6000803e3d6000fd5b505050506040513d601f19601f820116820180604052508101906126ed919061350a565b61270a576040516309bde33960e01b815260040160405180910390fd5b6001600160401b038b166000908152607860205260409020600201548790036127465760405163a47276bd60e01b815260040160405180910390fd5b505050505050505050505050565b600061275e61165e565b90508160008061276e8484613295565b606f546001600160401b039182169250600091612791916101009004164261352c565b90505b846001600160401b0316846001600160401b031614612831576001600160401b03808516600090815260726020526040902060018101549091168210156128255760018101546127f490600160401b90046001600160401b031686613295565b612807906001600160401b03168561353f565b6001820154600160401b90046001600160401b03169550935061282b565b50612831565b50612794565b600061283d848461352c565b90508084101561289457838103600c8111612858578061285b565b600c5b9050806103e80a81606f60099054906101000a900461ffff1661ffff160a607054028161288a5761288a6132b5565b0460705550612904565b808403600c81116128a557806128a8565b600c5b90506000816103e80a82606f60099054906101000a900461ffff1661ffff160a670de0b6b3a764000002816128df576128df6132b5565b04905080607054670de0b6b3a764000002816128fd576128fd6132b5565b0460705550505b683635c9adc5dea00000607054111561292957683635c9adc5dea00000607055611a86565b633b9aca006070541015611a8657633b9aca0060705550505050505050565b6079546001600160401b03600160401b8204811691161115610e5f5760795460009061298590600160401b90046001600160401b03166001613255565b905061299081610ac9565b15610c6a576079546000906002906129b29084906001600160401b0316613295565b6129bc9190613552565b6129c69083613255565b90506129d181610ac9565b156129e3576129df81611d85565b5050565b6129df82611d85565b600054610100900460ff16612a575760405162461bcd60e51b815260206004820152602b60248201527f496e697469616c697a61626c653a20636f6e7472616374206973206e6f74206960448201526a6e697469616c697a696e6760a81b60648201526084016117ab565b610e5f33612343565b606f5460ff16612a8357604051635386698160e01b815260040160405180910390fd5b606f805460ff191690556040517f1e5e34eea33501aecf2ebec9fe0e884a40804275ea7fe10b2ba084c8374308b390600090a1565b606033878360000151887f00000000000000000000000000000000000000000000000000000000000000007f00000000000000000000000000000000000000000000000000000000000000008988602001518a8d604051602001612b259a999897969594939291906131cc565b60405160208183030381529060405290509695505050505050565b606f5460ff1615612b6457604051630bc011ff60e21b815260040160405180910390fd5b606f805460ff191660011790556040517f2261efe5aef6fedc1fd1550b25facc9181745623049c7901287030b9ad1a549790600090a1565b60005b83811015612bb7578181015183820152602001612b9f565b50506000910152565b60008151808452612bd8816020860160208601612b9c565b601f01601f19169290920160200192915050565b602081526000612bff6020830184612bc0565b9392505050565b600060208284031215612c1857600080fd5b813561ffff81168114612bff57600080fd5b80356001600160401b0381168114612c4157600080fd5b919050565b600080600080600060a08688031215612c5e57600080fd5b612c6786612c2a565b9450612c7560208701612c2a565b94979496505050506040830135926060810135926080909101359150565b6001600160a01b0391909116815260200190565b600060208284031215612cb957600080fd5b612bff82612c2a565b8060408101831015612cd357600080fd5b92915050565b8060808101831015612cd357600080fd5b634e487b7160e01b600052604160045260246000fd5b60006001600160401b0380841115612d1a57612d1a612cea565b604051601f8501601f19908116603f01168101908282118183101715612d4257612d42612cea565b81604052809350858152868686011115612d5b57600080fd5b858560208301376000602087830101525050509392505050565b600060608284031215612d8757600080fd5b604051606081016001600160401b038282108183111715612daa57612daa612cea565b8160405282935084358352602085013560208401526040850135915080821115612dd357600080fd5b508301601f81018513612de557600080fd5b612df485823560208401612d00565b6040830152505092915050565b60008060008060008060008060006101c08a8c031215612e2057600080fd5b612e298a612c2a565b9850612e3760208b01612c2a565b9750612e4560408b01612c2a565b965060608a0135955060808a01359450612e628b60a08c01612cc2565b9350612e718b60e08c01612cd9565b9250612e818b6101608c01612cc2565b91506101a08a01356001600160401b03811115612e9d57600080fd5b612ea98c828d01612d75565b9150509295985092959850929598565b600060208284031215612ecb57600080fd5b81356001600160a01b0381168114612bff57600080fd5b60008060008060008060008060006101c08a8c031215612f0157600080fd5b612f0a8a612c2a565b9850612f1860208b01612c2a565b9750612f2660408b01612c2a565b9650612f3460608b01612c2a565b955060808a0135945060a08a01359350612f518b60c08c01612cc2565b9250612f618b6101008c01612cd9565b9150612f718b6101808c01612cc2565b90509295985092959850929598565b600060208284031215612f9257600080fd5b5035919050565b60008060008060008060008060006101c08a8c031215612fb857600080fd5b612fc18a612c2a565b9850612fcf60208b01612c2a565b9750612fdd60408b01612c2a565b965060608a0135955060808a01359450612ffa8b60a08c01612cc2565b93506130098b60e08c01612cd9565b92506130198b6101608c01612cc2565b91506101a08a01356001600160401b0381111561303557600080fd5b8a016060818d03121561304757600080fd5b809150509295985092959850929598565b600082601f83011261306957600080fd5b612bff83833560208501612d00565b60006020828403121561308a57600080fd5b81356001600160401b038111156130a057600080fd5b6130ac84828501613058565b949350505050565b6000806000806000808688036101208112156130cf57600080fd5b60a08112156130dd57600080fd5b5086955060a0870135945060c08701356001600160401b038082111561310257600080fd5b61310e8a838b01613058565b955060e089013591508082111561312457600080fd5b6131308a838b01613058565b945061010089013591508082111561314757600080fd5b818901915089601f83011261315b57600080fd5b81358181111561316a57600080fd5b8a602082850101111561317c57600080fd5b6020830194508093505050509295509295509295565b600181811c908216806131a657607f821691505b6020821081036131c657634e487b7160e01b600052602260045260246000fd5b50919050565b60609a909a1b6bffffffffffffffffffffffff19168a5260148a0198909852603489019690965260c094851b6001600160c01b031990811660548a015293851b8416605c89015291841b83166064880152606c870152608c86015260ac8501929092529190911b1660cc82015260d40190565b634e487b7160e01b600052601160045260246000fd5b6001600160401b038181168382160190808211156132755761327561323f565b5092915050565b60006020828403121561328e57600080fd5b5051919050565b6001600160401b038281168282160390808211156132755761327561323f565b634e487b7160e01b600052601260045260246000fd5b6000826132da576132da6132b5565b500490565b6000612cd33683612d75565b60006001600160401b038083168181036133075761330761323f565b6001019392505050565b601f82111561335b57600081815260208120601f850160051c810160208610156133385750805b601f850160051c820191505b8181101561335757828155600101613344565b5050505b505050565b81516001600160401b0381111561337957613379612cea565b61338d816133878454613192565b84613311565b602080601f8311600181146133c257600084156133aa5750858301515b600019600386901b1c1916600185901b178555613357565b600085815260208120601f198616915b828110156133f1578886015182559484019460019091019084016133d2565b508582101561340f5787850151600019600388901b60f8161c191681555b5050505050600190811b01905550565b60006001600160401b03808716835280861660208401525060606040830152826060830152828460808401376000608084840101526080601f19601f850116830101905095945050505050565b6000825161347e818460208701612b9c565b9190910192915050565b600082613497576134976132b5565b500690565b61012081016040808784378083018660005b60028110156134cb578382843791830191908301906001016134ae565b505050808560c08501375061010082018360005b60018110156134fe5781518352602092830192909101906001016134df565b50505095945050505050565b60006020828403121561351c57600080fd5b81518015158114612bff57600080fd5b81810381811115612cd357612cd361323f565b80820180821115612cd357612cd361323f565b60006001600160401b038084168061356c5761356c6132b5565b9216919091049291505056fea2646970667358221220e7588092ca51bd0bf4dcebba02a5f8fec3a508bc7e74c5123f59f4b68a02337664736f6c63430008110033",
  "linkReferences": {},
  "deployedLinkReferences": {}
}