{
  "_format": "hh-sol-artifact-1",
  "contractName": "PolygonZkEVM",
  "sourceName": "contracts/PolygonZkEVM.sol",
  "abi": [
    {
      "inputs": [
        {
          "internalType": "contract IPolygonZkEVMGlobalExitRoot",
          "name": "_globalExitRootManager",
          "type": "address"
        },
        {
          "internalType": "contract IERC20Upgradeable",
          "name": "_matic",
          "type": "address"
        },
        {
          "internalType": "contract IVerifierRollup",
          "name": "_rollupVerifier",
          "type": "address"
        },
        {
          "internalType": "contract IPolygonZkEVMBridge",
          "name": "_bridgeAddress",
          "type": "address"
        },
        {
          "internalType": "contract IHotShot",
          "name": "_hotshotAddress",
          "type": "address"
        },
        {
          "internalType": "uint64",
          "name": "_chainID",
          "type": "uint64"
        },
        {
          "internalType": "uint64",
          "name": "_forkID",
          "type": "uint64"
        }
      ],
      "stateMutability": "nonpayable",
      "type": "constructor"
    },
    {
      "inputs": [],
      "name": "BatchAlreadyVerified",
      "type": "error"
    },
    {
      "inputs": [],
      "name": "BatchNotSequencedOrNotSequenceEnd",
      "type": "error"
    },
    {
      "inputs": [],
      "name": "ExceedMaxVerifyBatches",
      "type": "error"
    },
    {
      "inputs": [],
      "name": "FinalNumBatchBelowLastVerifiedBatch",
      "type": "error"
    },
    {
      "inputs": [],
      "name": "FinalNumBatchDoesNotMatchPendingState",
      "type": "error"
    },
    {
      "inputs": [],
      "name": "FinalPendingStateNumInvalid",
      "type": "error"
    },
    {
      "inputs": [],
      "name": "ForceBatchTimeoutNotExpired",
      "type": "error"
    },
    {
      "inputs": [],
      "name": "ForceBatchesOverflow",
      "type": "error"
    },
    {
      "inputs": [],
      "name": "ForcedDataDoesNotMatch",
      "type": "error"
    },
    {
      "inputs": [],
      "name": "GlobalExitRootNotExist",
      "type": "error"
    },
    {
      "inputs": [],
      "name": "HaltTimeoutNotExpired",
      "type": "error"
    },
    {
      "inputs": [],
      "name": "InitNumBatchAboveLastVerifiedBatch",
      "type": "error"
    },
    {
      "inputs": [],
      "name": "InitNumBatchDoesNotMatchPendingState",
      "type": "error"
    },
    {
      "inputs": [],
      "name": "InvalidProof",
      "type": "error"
    },
    {
      "inputs": [],
      "name": "InvalidRangeBatchTimeTarget",
      "type": "error"
    },
    {
      "inputs": [],
      "name": "InvalidRangeMultiplierBatchFee",
      "type": "error"
    },
    {
      "inputs": [],
      "name": "NewAccInputHashDoesNotExist",
      "type": "error"
    },
    {
      "inputs": [],
      "name": "NewPendingStateTimeoutMustBeLower",
      "type": "error"
    },
    {
      "inputs": [],
      "name": "NewTrustedAggregatorTimeoutMustBeLower",
      "type": "error"
    },
    {
      "inputs": [],
      "name": "NotEnoughMaticAmount",
      "type": "error"
    },
    {
      "inputs": [],
      "name": "OldAccInputHashDoesNotExist",
      "type": "error"
    },
    {
      "inputs": [],
      "name": "OldStateRootDoesNotExist",
      "type": "error"
    },
    {
      "inputs": [],
      "name": "OnlyAdmin",
      "type": "error"
    },
    {
      "inputs": [],
      "name": "OnlyEmergencyState",
      "type": "error"
    },
    {
      "inputs": [],
      "name": "OnlyNotEmergencyState",
      "type": "error"
    },
    {
      "inputs": [],
      "name": "OnlyPendingAdmin",
      "type": "error"
    },
    {
      "inputs": [],
      "name": "OnlyTrustedAggregator",
      "type": "error"
    },
    {
      "inputs": [],
      "name": "OnlyTrustedSequencer",
      "type": "error"
    },
    {
      "inputs": [],
      "name": "PendingStateDoesNotExist",
      "type": "error"
    },
    {
      "inputs": [],
      "name": "PendingStateInvalid",
      "type": "error"
    },
    {
      "inputs": [],
      "name": "PendingStateNotConsolidable",
      "type": "error"
    },
    {
      "inputs": [],
      "name": "PendingStateTimeoutExceedHaltAggregationTimeout",
      "type": "error"
    },
    {
      "inputs": [],
      "name": "SequenceZeroBatches",
      "type": "error"
    },
    {
      "inputs": [],
      "name": "SequencedTimestampBelowForcedTimestamp",
      "type": "error"
    },
    {
      "inputs": [],
      "name": "SequencedTimestampInvalid",
      "type": "error"
    },
    {
      "inputs": [],
      "name": "StoredRootMustBeDifferentThanNewRoot",
      "type": "error"
    },
    {
      "inputs": [],
      "name": "TransactionsLengthAboveMax",
      "type": "error"
    },
    {
      "inputs": [],
      "name": "TrustedAggregatorTimeoutExceedHaltAggregationTimeout",
      "type": "error"
    },
    {
      "inputs": [],
      "name": "TrustedAggregatorTimeoutNotExpired",
      "type": "error"
    },
    {
      "anonymous": false,
      "inputs": [
        {
          "indexed": false,
          "internalType": "address",
          "name": "newAdmin",
          "type": "address"
        }
      ],
      "name": "AcceptAdminRole",
      "type": "event"
    },
    {
      "anonymous": false,
      "inputs": [
        {
          "indexed": true,
          "internalType": "uint64",
          "name": "numBatch",
          "type": "uint64"
        },
        {
          "indexed": false,
          "internalType": "bytes32",
          "name": "stateRoot",
          "type": "bytes32"
        },
        {
          "indexed": true,
          "internalType": "uint64",
          "name": "pendingStateNum",
          "type": "uint64"
        }
      ],
      "name": "ConsolidatePendingState",
      "type": "event"
    },
    {
      "anonymous": false,
      "inputs": [],
      "name": "EmergencyStateActivated",
      "type": "event"
    },
    {
      "anonymous": false,
      "inputs": [],
      "name": "EmergencyStateDeactivated",
      "type": "event"
    },
    {
      "anonymous": false,
      "inputs": [
        {
          "indexed": true,
          "internalType": "uint64",
          "name": "forceBatchNum",
          "type": "uint64"
        },
        {
          "indexed": false,
          "internalType": "bytes32",
          "name": "lastGlobalExitRoot",
          "type": "bytes32"
        },
        {
          "indexed": false,
          "internalType": "address",
          "name": "sequencer",
          "type": "address"
        },
        {
          "indexed": false,
          "internalType": "bytes",
          "name": "transactions",
          "type": "bytes"
        }
      ],
      "name": "ForceBatch",
      "type": "event"
    },
    {
      "anonymous": false,
      "inputs": [
        {
          "indexed": false,
          "internalType": "uint8",
          "name": "version",
          "type": "uint8"
        }
      ],
      "name": "Initialized",
      "type": "event"
    },
    {
      "anonymous": false,
      "inputs": [
        {
          "indexed": true,
          "internalType": "uint64",
          "name": "numBatch",
          "type": "uint64"
        },
        {
          "indexed": false,
          "internalType": "bytes32",
          "name": "stateRoot",
          "type": "bytes32"
        },
        {
          "indexed": true,
          "internalType": "address",
          "name": "aggregator",
          "type": "address"
        }
      ],
      "name": "OverridePendingState",
      "type": "event"
    },
    {
      "anonymous": false,
      "inputs": [
        {
          "indexed": true,
          "internalType": "address",
          "name": "previousOwner",
          "type": "address"
        },
        {
          "indexed": true,
          "internalType": "address",
          "name": "newOwner",
          "type": "address"
        }
      ],
      "name": "OwnershipTransferred",
      "type": "event"
    },
    {
      "anonymous": false,
      "inputs": [
        {
          "indexed": false,
          "internalType": "bytes32",
          "name": "storedStateRoot",
          "type": "bytes32"
        },
        {
          "indexed": false,
          "internalType": "bytes32",
          "name": "provedStateRoot",
          "type": "bytes32"
        }
      ],
      "name": "ProveNonDeterministicPendingState",
      "type": "event"
    },
    {
      "anonymous": false,
      "inputs": [
        {
          "indexed": true,
          "internalType": "uint64",
          "name": "numBatch",
          "type": "uint64"
        }
      ],
      "name": "SequenceBatches",
      "type": "event"
    },
    {
      "anonymous": false,
      "inputs": [
        {
          "indexed": true,
          "internalType": "uint64",
          "name": "numBatch",
          "type": "uint64"
        }
      ],
      "name": "SequenceForceBatches",
      "type": "event"
    },
    {
      "anonymous": false,
      "inputs": [
        {
          "indexed": false,
          "internalType": "uint16",
          "name": "newMultiplierBatchFee",
          "type": "uint16"
        }
      ],
      "name": "SetMultiplierBatchFee",
      "type": "event"
    },
    {
      "anonymous": false,
      "inputs": [
        {
          "indexed": false,
          "internalType": "uint64",
          "name": "newPendingStateTimeout",
          "type": "uint64"
        }
      ],
      "name": "SetPendingStateTimeout",
      "type": "event"
    },
    {
      "anonymous": false,
      "inputs": [
        {
          "indexed": false,
          "internalType": "address",
          "name": "newTrustedAggregator",
          "type": "address"
        }
      ],
      "name": "SetTrustedAggregator",
      "type": "event"
    },
    {
      "anonymous": false,
      "inputs": [
        {
          "indexed": false,
          "internalType": "uint64",
          "name": "newTrustedAggregatorTimeout",
          "type": "uint64"
        }
      ],
      "name": "SetTrustedAggregatorTimeout",
      "type": "event"
    },
    {
      "anonymous": false,
      "inputs": [
        {
          "indexed": false,
          "internalType": "address",
          "name": "newTrustedSequencer",
          "type": "address"
        }
      ],
      "name": "SetTrustedSequencer",
      "type": "event"
    },
    {
      "anonymous": false,
      "inputs": [
        {
          "indexed": false,
          "internalType": "string",
          "name": "newTrustedSequencerURL",
          "type": "string"
        }
      ],
      "name": "SetTrustedSequencerURL",
      "type": "event"
    },
    {
      "anonymous": false,
      "inputs": [
        {
          "indexed": false,
          "internalType": "uint64",
          "name": "newVerifyBatchTimeTarget",
          "type": "uint64"
        }
      ],
      "name": "SetVerifyBatchTimeTarget",
      "type": "event"
    },
    {
      "anonymous": false,
      "inputs": [
        {
          "indexed": false,
          "internalType": "address",
          "name": "newPendingAdmin",
          "type": "address"
        }
      ],
      "name": "TransferAdminRole",
      "type": "event"
    },
    {
      "anonymous": false,
      "inputs": [
        {
          "indexed": false,
          "internalType": "uint64",
          "name": "numBatch",
          "type": "uint64"
        },
        {
          "indexed": false,
          "internalType": "uint64",
          "name": "forkID",
          "type": "uint64"
        },
        {
          "indexed": false,
          "internalType": "string",
          "name": "version",
          "type": "string"
        }
      ],
      "name": "UpdateZkEVMVersion",
      "type": "event"
    },
    {
      "anonymous": false,
      "inputs": [
        {
          "indexed": true,
          "internalType": "uint64",
          "name": "numBatch",
          "type": "uint64"
        },
        {
          "indexed": false,
          "internalType": "bytes32",
          "name": "stateRoot",
          "type": "bytes32"
        },
        {
          "indexed": true,
          "internalType": "address",
          "name": "aggregator",
          "type": "address"
        }
      ],
      "name": "VerifyBatches",
      "type": "event"
    },
    {
      "anonymous": false,
      "inputs": [
        {
          "indexed": true,
          "internalType": "uint64",
          "name": "numBatch",
          "type": "uint64"
        },
        {
          "indexed": false,
          "internalType": "bytes32",
          "name": "stateRoot",
          "type": "bytes32"
        },
        {
          "indexed": true,
          "internalType": "address",
          "name": "aggregator",
          "type": "address"
        }
      ],
      "name": "VerifyBatchesTrustedAggregator",
      "type": "event"
    },
    {
      "inputs": [],
      "name": "acceptAdminRole",
      "outputs": [],
      "stateMutability": "nonpayable",
      "type": "function"
    },
    {
      "inputs": [
        {
          "internalType": "uint64",
          "name": "sequencedBatchNum",
          "type": "uint64"
        }
      ],
      "name": "activateEmergencyState",
      "outputs": [],
      "stateMutability": "nonpayable",
      "type": "function"
    },
    {
      "inputs": [],
      "name": "admin",
      "outputs": [
        {
          "internalType": "address",
          "name": "",
          "type": "address"
        }
      ],
      "stateMutability": "view",
      "type": "function"
    },
    {
      "inputs": [],
      "name": "batchFee",
      "outputs": [
        {
          "internalType": "uint256",
          "name": "",
          "type": "uint256"
        }
      ],
      "stateMutability": "view",
      "type": "function"
    },
    {
      "inputs": [
        {
          "internalType": "uint64",
          "name": "",
          "type": "uint64"
        }
      ],
      "name": "batchNumToStateRoot",
      "outputs": [
        {
          "internalType": "bytes32",
          "name": "",
          "type": "bytes32"
        }
      ],
      "stateMutability": "view",
      "type": "function"
    },
    {
      "inputs": [],
      "name": "bridgeAddress",
      "outputs": [
        {
          "internalType": "contract IPolygonZkEVMBridge",
          "name": "",
          "type": "address"
        }
      ],
      "stateMutability": "view",
      "type": "function"
    },
    {
      "inputs": [],
      "name": "calculateRewardPerBatch",
      "outputs": [
        {
          "internalType": "uint256",
          "name": "",
          "type": "uint256"
        }
      ],
      "stateMutability": "view",
      "type": "function"
    },
    {
      "inputs": [],
      "name": "chainID",
      "outputs": [
        {
          "internalType": "uint64",
          "name": "",
          "type": "uint64"
        }
      ],
      "stateMutability": "view",
      "type": "function"
    },
    {
      "inputs": [
        {
          "internalType": "uint64",
          "name": "pendingStateNum",
          "type": "uint64"
        }
      ],
      "name": "consolidatePendingState",
      "outputs": [],
      "stateMutability": "nonpayable",
      "type": "function"
    },
    {
      "inputs": [],
      "name": "deactivateEmergencyState",
      "outputs": [],
      "stateMutability": "nonpayable",
      "type": "function"
    },
    {
      "inputs": [
        {
          "internalType": "uint64",
          "name": "",
          "type": "uint64"
        }
      ],
      "name": "forcedBatches",
      "outputs": [
        {
          "internalType": "bytes32",
          "name": "",
          "type": "bytes32"
        }
      ],
      "stateMutability": "view",
      "type": "function"
    },
    {
      "inputs": [],
      "name": "forkID",
      "outputs": [
        {
          "internalType": "uint64",
          "name": "",
          "type": "uint64"
        }
      ],
      "stateMutability": "view",
      "type": "function"
    },
    {
      "inputs": [],
      "name": "getCurrentBatchFee",
      "outputs": [
        {
          "internalType": "uint256",
          "name": "",
          "type": "uint256"
        }
      ],
      "stateMutability": "view",
      "type": "function"
    },
    {
      "inputs": [
        {
          "internalType": "uint64",
          "name": "initNumBatch",
          "type": "uint64"
        },
        {
          "internalType": "uint64",
          "name": "finalNewBatch",
          "type": "uint64"
        },
        {
          "internalType": "bytes32",
          "name": "newLocalExitRoot",
          "type": "bytes32"
        },
        {
          "internalType": "bytes32",
          "name": "oldStateRoot",
          "type": "bytes32"
        },
        {
          "internalType": "bytes32",
          "name": "newStateRoot",
          "type": "bytes32"
        }
      ],
      "name": "getInputSnarkBytes",
      "outputs": [
        {
          "internalType": "bytes",
          "name": "",
          "type": "bytes"
        }
      ],
      "stateMutability": "view",
      "type": "function"
    },
    {
      "inputs": [],
      "name": "getLastVerifiedBatch",
      "outputs": [
        {
          "internalType": "uint64",
          "name": "",
          "type": "uint64"
        }
      ],
      "stateMutability": "view",
      "type": "function"
    },
    {
      "inputs": [],
      "name": "globalExitRootManager",
      "outputs": [
        {
          "internalType": "contract IPolygonZkEVMGlobalExitRoot",
          "name": "",
          "type": "address"
        }
      ],
      "stateMutability": "view",
      "type": "function"
    },
    {
      "inputs": [],
      "name": "hotShot",
      "outputs": [
        {
          "internalType": "contract IHotShot",
          "name": "",
          "type": "address"
        }
      ],
      "stateMutability": "view",
      "type": "function"
    },
    {
      "inputs": [
        {
          "components": [
            {
              "internalType": "address",
              "name": "admin",
              "type": "address"
            },
            {
              "internalType": "address",
              "name": "trustedSequencer",
              "type": "address"
            },
            {
              "internalType": "uint64",
              "name": "pendingStateTimeout",
              "type": "uint64"
            },
            {
              "internalType": "address",
              "name": "trustedAggregator",
              "type": "address"
            },
            {
              "internalType": "uint64",
              "name": "trustedAggregatorTimeout",
              "type": "uint64"
            }
          ],
          "internalType": "struct PolygonZkEVM.InitializePackedParameters",
          "name": "initializePackedParameters",
          "type": "tuple"
        },
        {
          "internalType": "bytes32",
          "name": "genesisRoot",
          "type": "bytes32"
        },
        {
          "internalType": "string",
          "name": "_trustedSequencerURL",
          "type": "string"
        },
        {
          "internalType": "string",
          "name": "_networkName",
          "type": "string"
        },
        {
          "internalType": "string",
          "name": "_version",
          "type": "string"
        }
      ],
      "name": "initialize",
      "outputs": [],
      "stateMutability": "nonpayable",
      "type": "function"
    },
    {
      "inputs": [],
      "name": "isEmergencyState",
      "outputs": [
        {
          "internalType": "bool",
          "name": "",
          "type": "bool"
        }
      ],
      "stateMutability": "view",
      "type": "function"
    },
    {
      "inputs": [
        {
          "internalType": "uint64",
          "name": "pendingStateNum",
          "type": "uint64"
        }
      ],
      "name": "isPendingStateConsolidable",
      "outputs": [
        {
          "internalType": "bool",
          "name": "",
          "type": "bool"
        }
      ],
      "stateMutability": "view",
      "type": "function"
    },
    {
      "inputs": [],
      "name": "lastBatchSequenced",
      "outputs": [
        {
          "internalType": "uint64",
          "name": "",
          "type": "uint64"
        }
      ],
      "stateMutability": "view",
      "type": "function"
    },
    {
      "inputs": [],
      "name": "lastForceBatch",
      "outputs": [
        {
          "internalType": "uint64",
          "name": "",
          "type": "uint64"
        }
      ],
      "stateMutability": "view",
      "type": "function"
    },
    {
      "inputs": [],
      "name": "lastForceBatchSequenced",
      "outputs": [
        {
          "internalType": "uint64",
          "name": "",
          "type": "uint64"
        }
      ],
      "stateMutability": "view",
      "type": "function"
    },
    {
      "inputs": [],
      "name": "lastPendingState",
      "outputs": [
        {
          "internalType": "uint64",
          "name": "",
          "type": "uint64"
        }
      ],
      "stateMutability": "view",
      "type": "function"
    },
    {
      "inputs": [],
      "name": "lastPendingStateConsolidated",
      "outputs": [
        {
          "internalType": "uint64",
          "name": "",
          "type": "uint64"
        }
      ],
      "stateMutability": "view",
      "type": "function"
    },
    {
      "inputs": [],
      "name": "lastTimestamp",
      "outputs": [
        {
          "internalType": "uint64",
          "name": "",
          "type": "uint64"
        }
      ],
      "stateMutability": "view",
      "type": "function"
    },
    {
      "inputs": [],
      "name": "lastVerifiedBatch",
      "outputs": [
        {
          "internalType": "uint64",
          "name": "",
          "type": "uint64"
        }
      ],
      "stateMutability": "view",
      "type": "function"
    },
    {
      "inputs": [],
      "name": "matic",
      "outputs": [
        {
          "internalType": "contract IERC20Upgradeable",
          "name": "",
          "type": "address"
        }
      ],
      "stateMutability": "view",
      "type": "function"
    },
    {
      "inputs": [],
      "name": "multiplierBatchFee",
      "outputs": [
        {
          "internalType": "uint16",
          "name": "",
          "type": "uint16"
        }
      ],
      "stateMutability": "view",
      "type": "function"
    },
    {
      "inputs": [],
      "name": "networkName",
      "outputs": [
        {
          "internalType": "string",
          "name": "",
          "type": "string"
        }
      ],
      "stateMutability": "view",
      "type": "function"
    },
    {
      "inputs": [
        {
          "internalType": "uint64",
          "name": "initPendingStateNum",
          "type": "uint64"
        },
        {
          "internalType": "uint64",
          "name": "finalPendingStateNum",
          "type": "uint64"
        },
        {
          "internalType": "uint64",
          "name": "initNumBatch",
          "type": "uint64"
        },
        {
          "internalType": "uint64",
          "name": "finalNewBatch",
          "type": "uint64"
        },
        {
          "internalType": "bytes32",
          "name": "newLocalExitRoot",
          "type": "bytes32"
        },
        {
          "internalType": "bytes32",
          "name": "newStateRoot",
          "type": "bytes32"
        },
        {
          "internalType": "uint256[2]",
          "name": "proofA",
          "type": "uint256[2]"
        },
        {
          "internalType": "uint256[2][2]",
          "name": "proofB",
          "type": "uint256[2][2]"
        },
        {
          "internalType": "uint256[2]",
          "name": "proofC",
          "type": "uint256[2]"
        }
      ],
      "name": "overridePendingState",
      "outputs": [],
      "stateMutability": "nonpayable",
      "type": "function"
    },
    {
      "inputs": [],
      "name": "owner",
      "outputs": [
        {
          "internalType": "address",
          "name": "",
          "type": "address"
        }
      ],
      "stateMutability": "view",
      "type": "function"
    },
    {
      "inputs": [],
      "name": "pendingAdmin",
      "outputs": [
        {
          "internalType": "address",
          "name": "",
          "type": "address"
        }
      ],
      "stateMutability": "view",
      "type": "function"
    },
    {
      "inputs": [],
      "name": "pendingStateTimeout",
      "outputs": [
        {
          "internalType": "uint64",
          "name": "",
          "type": "uint64"
        }
      ],
      "stateMutability": "view",
      "type": "function"
    },
    {
      "inputs": [
        {
          "internalType": "uint256",
          "name": "",
          "type": "uint256"
        }
      ],
      "name": "pendingStateTransitions",
      "outputs": [
        {
          "internalType": "uint64",
          "name": "timestamp",
          "type": "uint64"
        },
        {
          "internalType": "uint64",
          "name": "lastVerifiedBatch",
          "type": "uint64"
        },
        {
          "internalType": "bytes32",
          "name": "exitRoot",
          "type": "bytes32"
        },
        {
          "internalType": "bytes32",
          "name": "stateRoot",
          "type": "bytes32"
        }
      ],
      "stateMutability": "view",
      "type": "function"
    },
    {
      "inputs": [
        {
          "internalType": "uint64",
          "name": "initPendingStateNum",
          "type": "uint64"
        },
        {
          "internalType": "uint64",
          "name": "finalPendingStateNum",
          "type": "uint64"
        },
        {
          "internalType": "uint64",
          "name": "initNumBatch",
          "type": "uint64"
        },
        {
          "internalType": "uint64",
          "name": "finalNewBatch",
          "type": "uint64"
        },
        {
          "internalType": "bytes32",
          "name": "newLocalExitRoot",
          "type": "bytes32"
        },
        {
          "internalType": "bytes32",
          "name": "newStateRoot",
          "type": "bytes32"
        },
        {
          "internalType": "uint256[2]",
          "name": "proofA",
          "type": "uint256[2]"
        },
        {
          "internalType": "uint256[2][2]",
          "name": "proofB",
          "type": "uint256[2][2]"
        },
        {
          "internalType": "uint256[2]",
          "name": "proofC",
          "type": "uint256[2]"
        }
      ],
      "name": "proveNonDeterministicPendingState",
      "outputs": [],
      "stateMutability": "nonpayable",
      "type": "function"
    },
    {
      "inputs": [],
      "name": "renounceOwnership",
      "outputs": [],
      "stateMutability": "nonpayable",
      "type": "function"
    },
    {
      "inputs": [],
      "name": "rollupVerifier",
      "outputs": [
        {
          "internalType": "contract IVerifierRollup",
          "name": "",
          "type": "address"
        }
      ],
      "stateMutability": "view",
      "type": "function"
    },
    {
      "inputs": [
        {
          "internalType": "uint64",
          "name": "",
          "type": "uint64"
        }
      ],
      "name": "sequencedBatches",
      "outputs": [
        {
          "internalType": "bytes32",
          "name": "accInputHash",
          "type": "bytes32"
        },
        {
          "internalType": "uint64",
          "name": "sequencedTimestamp",
          "type": "uint64"
        },
        {
          "internalType": "uint64",
          "name": "previousLastBatchSequenced",
          "type": "uint64"
        }
      ],
      "stateMutability": "view",
      "type": "function"
    },
    {
      "inputs": [
        {
          "internalType": "uint16",
          "name": "newMultiplierBatchFee",
          "type": "uint16"
        }
      ],
      "name": "setMultiplierBatchFee",
      "outputs": [],
      "stateMutability": "nonpayable",
      "type": "function"
    },
    {
      "inputs": [
        {
          "internalType": "uint64",
          "name": "newPendingStateTimeout",
          "type": "uint64"
        }
      ],
      "name": "setPendingStateTimeout",
      "outputs": [],
      "stateMutability": "nonpayable",
      "type": "function"
    },
    {
      "inputs": [
        {
          "internalType": "address",
          "name": "newTrustedAggregator",
          "type": "address"
        }
      ],
      "name": "setTrustedAggregator",
      "outputs": [],
      "stateMutability": "nonpayable",
      "type": "function"
    },
    {
      "inputs": [
        {
          "internalType": "uint64",
          "name": "newTrustedAggregatorTimeout",
          "type": "uint64"
        }
      ],
      "name": "setTrustedAggregatorTimeout",
      "outputs": [],
      "stateMutability": "nonpayable",
      "type": "function"
    },
    {
      "inputs": [
        {
          "internalType": "address",
          "name": "newTrustedSequencer",
          "type": "address"
        }
      ],
      "name": "setTrustedSequencer",
      "outputs": [],
      "stateMutability": "nonpayable",
      "type": "function"
    },
    {
      "inputs": [
        {
          "internalType": "string",
          "name": "newTrustedSequencerURL",
          "type": "string"
        }
      ],
      "name": "setTrustedSequencerURL",
      "outputs": [],
      "stateMutability": "nonpayable",
      "type": "function"
    },
    {
      "inputs": [
        {
          "internalType": "uint64",
          "name": "newVerifyBatchTimeTarget",
          "type": "uint64"
        }
      ],
      "name": "setVerifyBatchTimeTarget",
      "outputs": [],
      "stateMutability": "nonpayable",
      "type": "function"
    },
    {
      "inputs": [
        {
          "internalType": "address",
          "name": "newPendingAdmin",
          "type": "address"
        }
      ],
      "name": "transferAdminRole",
      "outputs": [],
      "stateMutability": "nonpayable",
      "type": "function"
    },
    {
      "inputs": [
        {
          "internalType": "address",
          "name": "newOwner",
          "type": "address"
        }
      ],
      "name": "transferOwnership",
      "outputs": [],
      "stateMutability": "nonpayable",
      "type": "function"
    },
    {
      "inputs": [],
      "name": "trustedAggregator",
      "outputs": [
        {
          "internalType": "address",
          "name": "",
          "type": "address"
        }
      ],
      "stateMutability": "view",
      "type": "function"
    },
    {
      "inputs": [],
      "name": "trustedAggregatorTimeout",
      "outputs": [
        {
          "internalType": "uint64",
          "name": "",
          "type": "uint64"
        }
      ],
      "stateMutability": "view",
      "type": "function"
    },
    {
      "inputs": [],
      "name": "trustedSequencer",
      "outputs": [
        {
          "internalType": "address",
          "name": "",
          "type": "address"
        }
      ],
      "stateMutability": "view",
      "type": "function"
    },
    {
      "inputs": [],
      "name": "trustedSequencerURL",
      "outputs": [
        {
          "internalType": "string",
          "name": "",
          "type": "string"
        }
      ],
      "stateMutability": "view",
      "type": "function"
    },
    {
      "inputs": [],
      "name": "verifyBatchTimeTarget",
      "outputs": [
        {
          "internalType": "uint64",
          "name": "",
          "type": "uint64"
        }
      ],
      "stateMutability": "view",
      "type": "function"
    },
    {
      "inputs": [
        {
          "internalType": "uint64",
          "name": "pendingStateNum",
          "type": "uint64"
        },
        {
          "internalType": "uint64",
          "name": "initNumBatch",
          "type": "uint64"
        },
        {
          "internalType": "uint64",
          "name": "finalNewBatch",
          "type": "uint64"
        },
        {
          "internalType": "bytes32",
          "name": "newLocalExitRoot",
          "type": "bytes32"
        },
        {
          "internalType": "bytes32",
          "name": "newStateRoot",
          "type": "bytes32"
        },
        {
          "internalType": "uint256[2]",
          "name": "proofA",
          "type": "uint256[2]"
        },
        {
          "internalType": "uint256[2][2]",
          "name": "proofB",
          "type": "uint256[2][2]"
        },
        {
          "internalType": "uint256[2]",
          "name": "proofC",
          "type": "uint256[2]"
        },
        {
          "components": [
            {
              "internalType": "bytes32",
              "name": "oldAccInputHash",
              "type": "bytes32"
            },
            {
              "internalType": "bytes32",
              "name": "newAccInputHash",
              "type": "bytes32"
            },
            {
              "internalType": "bytes",
              "name": "commProof",
              "type": "bytes"
            }
          ],
          "internalType": "struct PolygonZkEVM.HotShotParameters",
          "name": "packed",
          "type": "tuple"
        }
      ],
      "name": "verifyBatches",
      "outputs": [],
      "stateMutability": "nonpayable",
      "type": "function"
    },
    {
      "inputs": [
        {
          "internalType": "uint64",
          "name": "pendingStateNum",
          "type": "uint64"
        },
        {
          "internalType": "uint64",
          "name": "initNumBatch",
          "type": "uint64"
        },
        {
          "internalType": "uint64",
          "name": "finalNewBatch",
          "type": "uint64"
        },
        {
          "internalType": "bytes32",
          "name": "newLocalExitRoot",
          "type": "bytes32"
        },
        {
          "internalType": "bytes32",
          "name": "newStateRoot",
          "type": "bytes32"
        },
        {
          "internalType": "bytes32",
          "name": "oldAccInputHash",
          "type": "bytes32"
        },
        {
          "internalType": "bytes32",
          "name": "newAccInputHash",
          "type": "bytes32"
        },
        {
          "internalType": "uint256[2]",
          "name": "proofA",
          "type": "uint256[2]"
        },
        {
          "internalType": "uint256[2][2]",
          "name": "proofB",
          "type": "uint256[2][2]"
        },
        {
          "internalType": "uint256[2]",
          "name": "proofC",
          "type": "uint256[2]"
        },
        {
          "internalType": "bytes",
          "name": "commProof",
          "type": "bytes"
        }
      ],
      "name": "verifyBatchesTrustedAggregator",
      "outputs": [],
      "stateMutability": "nonpayable",
      "type": "function"
    }
  ],
  "bytecode": "0x6101606040523480156200001257600080fd5b5060405162003b8238038062003b828339810160408190526200003591620000ac565b6001600160a01b0396871660c05294861660805292851660a05290841660e052909216610100526001600160401b039182166101205216610140526200014f565b6001600160a01b03811681146200008c57600080fd5b50565b80516001600160401b0381168114620000a757600080fd5b919050565b600080600080600080600060e0888a031215620000c857600080fd5b8751620000d58162000076565b6020890151909750620000e88162000076565b6040890151909650620000fb8162000076565b60608901519095506200010e8162000076565b6080890151909450620001218162000076565b92506200013160a089016200008f565b91506200014160c089016200008f565b905092959891949750929550565b60805160a05160c05160e051610100516101205161014051613961620002216000396000818161053e01528181610a71015281816118c20152612c0201526000818161068901528181610a500152612be10152600081816104a30152818161254f01526125ee01526000818161063c01528181611b2101526120320152600081816107940152818161133d01528181611a4101528181611c3e0152611eca0152600081816108300152818161230d015261271001526000818161073801528181610f3e01526127dd01526139616000f3fe608060405234801561001057600080fd5b50600436106102ed5760003560e01c80638c3d730111610193578063c89e42df116100e4578063e11f3f1811610092578063e11f3f18146107fe578063e7a7ed0214610811578063e8bf92ed1461082b578063f14916d614610852578063f2fde38b14610865578063f851a44014610878578063f8b823e41461088b57600080fd5b8063c89e42df14610762578063cfa8ed4714610775578063d02103ca1461078f578063d2e129f9146107b6578063d939b315146107c9578063d9794136146107e3578063dbc16976146107f657600080fd5b8063aba576f111610141578063aba576f11461065e578063ada8f91914610671578063adc879e914610684578063afd23cbe146106ab578063b4d63f58146106d3578063b6b0b09714610733578063c0ed84e01461075a57600080fd5b80638c3d7301146105e85780638da5cb5b146105f057806399f5634e146106015780639c9f3dfe146106095780639f0d039d1461061c578063a066215c14610624578063a3c573eb1461063757600080fd5b80634a1a89a71161024d578063715018a6116101fb578063715018a6146104f85780637215541a1461050057806375c508b3146105135780637fcb365314610526578063831c7ead14610539578063837a473814610560578063841b24d7146105ce57600080fd5b80634a1a89a71461043b5780634a910e6a146104555780635392c5e014610468578063542028d5146104965780636375e13c1461049e5780636b8616ce146104c55780636ff512cc146104e557600080fd5b806326782247116102aa578063267822471461039457806329878983146103b4578063383b3be8146103ce578063394218e9146103e1578063423fa856146103f4578063456052671461040e578063458c04771461042857600080fd5b80630a0d9fbe146102f2578063107bf28c1461032757806315064c961461033c5780631816b7e51461035957806319d8ac611461036e578063220d789914610381575b600080fd5b606f5461030a9061010090046001600160401b031681565b6040516001600160401b0390911681526020015b60405180910390f35b61032f610894565b60405161031e9190612f66565b606f546103499060ff1681565b604051901515815260200161031e565b61036c610367366004612f80565b610922565b005b60735461030a906001600160401b031681565b61032f61038f366004612fc0565b6109db565b607b546103a7906001600160a01b031681565b60405161031e919061300d565b6074546103a790600160401b90046001600160a01b031681565b6103496103dc366004613021565b610ac9565b61036c6103ef366004613021565b610b10565b60735461030a90600160401b90046001600160401b031681565b60735461030a90600160801b90046001600160401b031681565b60795461030a906001600160401b031681565b60795461030a90600160401b90046001600160401b031681565b61036c610463366004613021565b610bfe565b610488610476366004613021565b60756020526000908152604090205481565b60405190815260200161031e565b61032f610c6d565b6103a77f000000000000000000000000000000000000000000000000000000000000000081565b6104886104d3366004613021565b60716020526000908152604090205481565b61036c6104f336600461303c565b610c7a565b61036c610cf9565b61036c61050e366004613021565b610d0d565b61036c61052136600461308d565b610e1a565b60745461030a906001600160401b031681565b61030a7f000000000000000000000000000000000000000000000000000000000000000081565b6105a361056e36600461312b565b6078602052600090815260409020805460018201546002909201546001600160401b0380831693600160401b90930416919084565b604080516001600160401b03958616815294909316602085015291830152606082015260800161031e565b60795461030a90600160c01b90046001600160401b031681565b61036c610eb5565b6033546001600160a01b03166103a7565b610488610f39565b61036c610617366004613021565b611046565b607054610488565b61036c610632366004613021565b611139565b6103a77f000000000000000000000000000000000000000000000000000000000000000081565b61036c61066c366004613144565b6111e8565b61036c61067f36600461303c565b6114a3565b61030a7f000000000000000000000000000000000000000000000000000000000000000081565b606f546106c090600160481b900461ffff1681565b60405161ffff909116815260200161031e565b61070e6106e1366004613021565b607260205260009081526040902080546001909101546001600160401b0380821691600160401b90041683565b604080519384526001600160401b03928316602085015291169082015260600161031e565b6103a77f000000000000000000000000000000000000000000000000000000000000000081565b61030a611519565b61036c6107703660046132ae565b611566565b606f546103a790600160581b90046001600160a01b031681565b6103a77f000000000000000000000000000000000000000000000000000000000000000081565b61036c6107c436600461332a565b6115cd565b60795461030a90600160801b90046001600160401b031681565b61036c6107f13660046133dc565b61194a565b61036c611af4565b61036c61080c36600461308d565b611b9a565b60735461030a90600160c01b90046001600160401b031681565b6103a77f000000000000000000000000000000000000000000000000000000000000000081565b61036c61086036600461303c565b611cf5565b61036c61087336600461303c565b611d74565b607a546103a7906001600160a01b031681565b61048860705481565b607780546108a1906134b3565b80601f01602080910402602001604051908101604052809291908181526020018280546108cd906134b3565b801561091a5780601f106108ef5761010080835404028352916020019161091a565b820191906000526020600020905b8154815290600101906020018083116108fd57829003601f168201915b505050505081565b607a546001600160a01b0316331461094d57604051634755657960e01b815260040160405180910390fd5b6103e88161ffff16108061096657506103ff8161ffff16115b1561098457604051630984a67960e31b815260040160405180910390fd5b606f805461ffff60481b1916600160481b61ffff8416908102919091179091556040519081527f7019933d795eba185c180209e8ae8bffbaa25bcef293364687702c31f4d302c5906020015b60405180910390a150565b6001600160401b038086166000818152607260205260408082205493881682529020546060929115801590610a0e575081155b15610a2c5760405163340c614f60e11b815260040160405180910390fd5b80610a4a576040516366385b5160e01b815260040160405180910390fd5b3385838a7f00000000000000000000000000000000000000000000000000000000000000007f000000000000000000000000000000000000000000000000000000000000000089878d8f604051602001610aad9a999897969594939291906134ed565b6040516020818303038152906040529250505095945050505050565b6079546001600160401b0382811660009081526078602052604081205490924292610aff92600160801b90920481169116613576565b6001600160401b0316111592915050565b607a546001600160a01b03163314610b3b57604051634755657960e01b815260040160405180910390fd5b62093a806001600160401b0382161115610b6857604051631d06e87960e01b815260040160405180910390fd5b606f5460ff16610ba8576079546001600160401b03600160c01b909104811690821610610ba85760405163401636df60e01b815260040160405180910390fd5b607980546001600160c01b0316600160c01b6001600160401b038416908102919091179091556040519081527f1f4fa24c2e4bad19a7f3ec5c5485f70d46c798461c2e684f55bbd0fc661373a1906020016109d0565b607454600160401b90046001600160a01b03163314610c6157606f5460ff1615610c3b57604051630bc011ff60e21b815260040160405180910390fd5b610c4481610ac9565b610c6157604051630674f25160e11b815260040160405180910390fd5b610c6a81611dea565b50565b607680546108a1906134b3565b607a546001600160a01b03163314610ca557604051634755657960e01b815260040160405180910390fd5b606f8054600160581b600160f81b031916600160581b6001600160a01b038416021790556040517ff54144f9611984021529f814a1cb6a41e22c58351510a0d9f7e822618abb9cc0906109d090839061300d565b610d01611f84565b610d0b6000611fde565b565b6033546001600160a01b03163314610e12576000610d29611519565b9050806001600160401b0316826001600160401b031611610d5d5760405163812a372d60e01b815260040160405180910390fd5b6073546001600160401b03600160401b90910481169083161180610d9c57506001600160401b0380831660009081526072602052604090206001015416155b15610dba57604051632631700560e21b815260040160405180910390fd5b6001600160401b038083166000908152607260205260409020600101544291610de89162093a809116613576565b6001600160401b03161115610e105760405163692baaad60e11b815260040160405180910390fd5b505b610c6a612030565b606f5460ff1615610e3e57604051630bc011ff60e21b815260040160405180910390fd5b610e4f8989898989898989896120ab565b6001600160401b0386166000908152607560209081526040918290205482519081529081018690527f1f44c21118c4603cfb4e1b621dbcfa2b73efcececee2b99b620b2953d33a7010910160405180910390a1610eaa612030565b505050505050505050565b607b546001600160a01b03163314610ee05760405163d1ec4b2360e01b815260040160405180910390fd5b607b54607a80546001600160a01b0319166001600160a01b0390921691821790556040517f056dc487bbf0795d0bbb1b4f0af523a855503cff740bfb4d5475f7a90c091e8e91610f2f9161300d565b60405180910390a1565b6000807f00000000000000000000000000000000000000000000000000000000000000006001600160a01b03166370a08231306040518263ffffffff1660e01b8152600401610f88919061300d565b602060405180830381865afa158015610fa5573d6000803e3d6000fd5b505050506040513d601f19601f82011682018060405250810190610fc9919061359d565b90506000610fd5611519565b6073546001600160401b03600160401b820481169161100591600160801b8204811691600160c01b9004166135b6565b61100f9190613576565b61101991906135b6565b6001600160401b03169050806000036110355760009250505090565b61103f81836135ec565b9250505090565b607a546001600160a01b0316331461107157604051634755657960e01b815260040160405180910390fd5b62093a806001600160401b038216111561109e57604051630cc9650760e41b815260040160405180910390fd5b606f5460ff166110de576079546001600160401b03600160801b9091048116908216106110de5760405163048a05a960e41b815260040160405180910390fd5b6079805467ffffffffffffffff60801b1916600160801b6001600160401b038416908102919091179091556040519081527fc4121f4e22c69632ebb7cf1f462be0511dc034f999b52013eddfb24aab765c75906020016109d0565b607a546001600160a01b0316331461116457604051634755657960e01b815260040160405180910390fd5b62015180816001600160401b0316111561119157604051631c0cfbfd60e31b815260040160405180910390fd5b606f805468ffffffffffffffff0019166101006001600160401b038416908102919091179091556040519081527f1b023231a1ab6b5d93992f168fb44498e1a7e64cef58daff6f1c216de6a68c28906020016109d0565b606f5460ff161561120c57604051630bc011ff60e21b815260040160405180910390fd5b6079546001600160401b03888116600090815260726020526040902060010154429261124392600160c01b90910481169116613576565b6001600160401b0316111561126b57604051638a0704d360e01b815260040160405180910390fd5b6103e861127889896135b6565b6001600160401b031611156112a057604051635acfba9d60e11b815260040160405180910390fd5b6112b989898989898989896112b48a613600565b6123ef565b6112c287612815565b607954600160801b90046001600160401b03166000036113a6576074805467ffffffffffffffff19166001600160401b038981169182179092556000908152607560205260409020869055607954161561132757607980546001600160801b03191690555b6040516333d6247d60e01b8152600481018790527f00000000000000000000000000000000000000000000000000000000000000006001600160a01b0316906333d6247d90602401600060405180830381600087803b15801561138957600080fd5b505af115801561139d573d6000803e3d6000fd5b50505050611457565b6113ae612a09565b607980546001600160401b03169060006113c783613688565b82546001600160401b039182166101009390930a9283029282021916919091179091556040805160808101825242831681528a831660208083019182528284018c8152606084018c8152607954871660009081526078909352949091209251835492518616600160401b026001600160801b03199093169516949094171781559151600183015551600290910155505b60405185815233906001600160401b038916907f9c72852172521097ba7e1482e6b44b351323df0155f97f4ea18fcec28e1f5966906020015b60405180910390a3505050505050505050565b607a546001600160a01b031633146114ce57604051634755657960e01b815260040160405180910390fd5b607b80546001600160a01b0319166001600160a01b0383161790556040517fa5b56b7906fd0a20e3f35120dd8343db1e12e037a6c90111c7e42885e82a1ce6906109d090839061300d565b6079546000906001600160401b03161561155657506079546001600160401b03908116600090815260786020526040902054600160401b90041690565b506074546001600160401b031690565b607a546001600160a01b0316331461159157604051634755657960e01b815260040160405180910390fd5b607661159d82826136fc565b507f6b8f723a4c7a5335cafae8a598a0aa0301be1387c037dccc085b62add6448b20816040516109d09190612f66565b600054610100900460ff16158080156115ed5750600054600160ff909116105b806116075750303b158015611607575060005460ff166001145b61166f5760405162461bcd60e51b815260206004820152602e60248201527f496e697469616c697a61626c653a20636f6e747261637420697320616c72656160448201526d191e481a5b9a5d1a585b1a5e995960921b60648201526084015b60405180910390fd5b6000805460ff191660011790558015611692576000805461ff0019166101001790555b61169f602088018861303c565b607a80546001600160a01b0319166001600160a01b03929092169190911790556116cf604088016020890161303c565b606f80546001600160a01b0392909216600160581b02600160581b600160f81b031990921691909117905561170a608088016060890161303c565b607480546001600160a01b0392909216600160401b02600160401b600160e01b03199092169190911790556000805260756020527ff9e3fbf150b7a0077118526f473c53cb4734f166167e2c6213e3567dd390b4ad869055607661176e86826136fc565b50607761177b85826136fc565b5062093a806117906060890160408a01613021565b6001600160401b031611156117b857604051630cc9650760e41b815260040160405180910390fd5b6117c86060880160408901613021565b607980546001600160401b0392909216600160801b0267ffffffffffffffff60801b1990921691909117905562093a8061180860a0890160808a01613021565b6001600160401b0316111561183057604051631d06e87960e01b815260040160405180910390fd5b61184060a0880160808901613021565b607980546001600160c01b0316600160c01b6001600160401b039390931692909202919091179055670de0b6b3a7640000607055606f80546affffffffffffffffffff0019166a03ea00000000000007080017905561189d612aad565b7fed7be53c9f1a96a481223b15568a5b1a475e01a74b347d6ca187c8bf0c078cd660007f000000000000000000000000000000000000000000000000000000000000000085856040516118f394939291906137bb565b60405180910390a18015611941576000805461ff0019169055604051600181527f7f26b83ff96e1f2b6a682f133852f6798a09c465da95921460cefb38474024989060200160405180910390a15b50505050505050565b607454600160401b90046001600160a01b0316331461197c5760405163bbcbbc0560e01b815260040160405180910390fd5b6000604051806060016040528089815260200188815260200184848080601f016020809104026020016040519081016040528093929190818152602001838380828437600092019190915250505091525090506119e08d8d8d8d8d8b8b8b896123ef565b6074805467ffffffffffffffff19166001600160401b038d811691821790925560009081526075602052604090208a90556079541615611a2b57607980546001600160801b03191690555b6040516333d6247d60e01b8152600481018b90527f00000000000000000000000000000000000000000000000000000000000000006001600160a01b0316906333d6247d90602401600060405180830381600087803b158015611a8d57600080fd5b505af1158015611aa1573d6000803e3d6000fd5b50506040518b81523392506001600160401b038e1691507fcb339b570a7f0b25afa7333371ff11192092a0aeace12b671f4c212f2815c6fe9060200160405180910390a350505050505050505050505050565b607a546001600160a01b03163314611b1f57604051634755657960e01b815260040160405180910390fd5b7f00000000000000000000000000000000000000000000000000000000000000006001600160a01b031663dbc169766040518163ffffffff1660e01b8152600401600060405180830381600087803b158015611b7a57600080fd5b505af1158015611b8e573d6000803e3d6000fd5b50505050610d0b612b21565b607454600160401b90046001600160a01b03163314611bcc5760405163bbcbbc0560e01b815260040160405180910390fd5b611bdd8989898989898989896120ab565b6074805467ffffffffffffffff19166001600160401b0388811691821790925560009081526075602052604090208590556079541615611c2857607980546001600160801b03191690555b6040516333d6247d60e01b8152600481018690527f00000000000000000000000000000000000000000000000000000000000000006001600160a01b0316906333d6247d90602401600060405180830381600087803b158015611c8a57600080fd5b505af1158015611c9e573d6000803e3d6000fd5b5050607980546001600160c01b031661127560c71b179055505060405184815233906001600160401b038816907fcc1b5520188bf1dd3e63f98164b577c4d75c11a619ddea692112f0d1aec4cf7290602001611490565b607a546001600160a01b03163314611d2057604051634755657960e01b815260040160405180910390fd5b60748054600160401b600160e01b031916600160401b6001600160a01b038416021790556040517f61f8fec29495a3078e9271456f05fb0707fd4e41f7661865f80fc437d06681ca906109d090839061300d565b611d7c611f84565b6001600160a01b038116611de15760405162461bcd60e51b815260206004820152602660248201527f4f776e61626c653a206e6577206f776e657220697320746865207a65726f206160448201526564647265737360d01b6064820152608401611666565b610c6a81611fde565b6079546001600160401b03600160401b9091048116908216111580611e1d57506079546001600160401b03908116908216115b15611e3b5760405163d086b70b60e01b815260040160405180910390fd5b6001600160401b038181166000818152607860209081526040808320805460748054600160401b9283900490981667ffffffffffffffff19909816881790556002820154878652607590945293829020929092556079805467ffffffffffffffff60401b19169390940292909217909255600182015490516333d6247d60e01b815260048101919091529091907f00000000000000000000000000000000000000000000000000000000000000006001600160a01b0316906333d6247d90602401600060405180830381600087803b158015611f1657600080fd5b505af1158015611f2a573d6000803e3d6000fd5b50505050826001600160401b0316816001600160401b03167f328d3c6c0fd6f1be0515e422f2d87e59f25922cbc2233568515a0c4bc3f8510e8460020154604051611f7791815260200190565b60405180910390a3505050565b6033546001600160a01b03163314610d0b5760405162461bcd60e51b815260206004820181905260248201527f4f776e61626c653a2063616c6c6572206973206e6f7420746865206f776e65726044820152606401611666565b603380546001600160a01b038381166001600160a01b0319831681179093556040519116919082907f8be0079c531659141344cd1fd0a4f28419497f9722a3daafe3b4186f6b6457e090600090a35050565b7f00000000000000000000000000000000000000000000000000000000000000006001600160a01b0316632072f6c56040518163ffffffff1660e01b8152600401600060405180830381600087803b15801561208b57600080fd5b505af115801561209f573d6000803e3d6000fd5b50505050610d0b612b79565b60006001600160401b038a161561213f576079546001600160401b03908116908b1611156120ec5760405163bb14c20560e01b815260040160405180910390fd5b506001600160401b03808a1660009081526078602052604090206002810154815490928a8116600160401b909204161461213957604051632bd2e3e760e01b815260040160405180910390fd5b506121a7565b506001600160401b03871660009081526075602052604090205480612177576040516324cbdcc360e11b815260040160405180910390fd5b6074546001600160401b0390811690891611156121a757604051630f2b74f160e11b815260040160405180910390fd5b6079546001600160401b03908116908a1611806121d65750896001600160401b0316896001600160401b031611155b806121f757506079546001600160401b03600160401b9091048116908a1611155b156122155760405163bfa7079f60e01b815260040160405180910390fd5b6001600160401b03898116600090815260786020526040902054600160401b9004811690881614612259576040516332a2a77f60e01b815260040160405180910390fd5b6000612268898989858a6109db565b905060007f30644e72e131a029b85045b68181585d2833e84879b9709143e1f593f000000160028360405161229d9190613808565b602060405180830381855afa1580156122ba573d6000803e3d6000fd5b5050506040513d601f19601f820116820180604052508101906122dd919061359d565b6122e79190613824565b6040805160208101825282815290516343753b4d60e01b81529192506001600160a01b037f000000000000000000000000000000000000000000000000000000000000000016916343753b4d91612347918a918a918a9190600401613838565b602060405180830381865afa158015612364573d6000803e3d6000fd5b505050506040513d601f19601f8201168201806040525081019061238891906138a6565b6123a5576040516309bde33960e01b815260040160405180910390fd5b6001600160401b038b166000908152607860205260409020600201548790036123e15760405163a47276bd60e01b815260040160405180910390fd5b505050505050505050505050565b6000806123fa611519565b90506001600160401b038b1615612490576079546001600160401b03908116908c16111561243b5760405163bb14c20560e01b815260040160405180910390fd5b6001600160401b03808c1660009081526078602052604090206002810154815490945090918c8116600160401b909204161461248a57604051632bd2e3e760e01b815260040160405180910390fd5b506124fc565b6001600160401b038a166000908152607560205260409020549150816124c9576040516324cbdcc360e11b815260040160405180910390fd5b806001600160401b03168a6001600160401b031611156124fc57604051630f2b74f160e11b815260040160405180910390fd5b806001600160401b0316896001600160401b03161161252e5760405163b9b18f5760e01b815260040160405180910390fd5b6040516349ce899760e01b81526001600160401b038b1660048201526000907f00000000000000000000000000000000000000000000000000000000000000006001600160a01b0316906349ce899790602401602060405180830381865afa15801561259e573d6000803e3d6000fd5b505050506040513d601f19601f820116820180604052508101906125c2919061359d565b6040516349ce899760e01b81526001600160401b038c1660048201529091506000906001600160a01b037f000000000000000000000000000000000000000000000000000000000000000016906349ce899790602401602060405180830381865afa158015612635573d6000803e3d6000fd5b505050506040513d601f19601f82011682018060405250810190612659919061359d565b9050600061266b858e8e8d8f8b612bd5565b905060007f30644e72e131a029b85045b68181585d2833e84879b9709143e1f593f00000016002836040516126a09190613808565b602060405180830381855afa1580156126bd573d6000803e3d6000fd5b5050506040513d601f19601f820116820180604052508101906126e0919061359d565b6126ea9190613824565b6040805160208101825282815290516343753b4d60e01b81529192506001600160a01b037f000000000000000000000000000000000000000000000000000000000000000016916343753b4d9161274a918e918e918e9190600401613838565b602060405180830381865afa158015612767573d6000803e3d6000fd5b505050506040513d601f19601f8201168201806040525081019061278b91906138a6565b6127a8576040516309bde33960e01b815260040160405180910390fd5b61280433868f6127b891906135b6565b6001600160401b03166127c9610f39565b6127d391906138c8565b6001600160a01b037f0000000000000000000000000000000000000000000000000000000000000000169190612c5d565b505050505050505050505050505050565b600061281f611519565b90508160008061282f84846135b6565b606f546001600160401b03918216925060009161285291610100900416426138df565b90505b846001600160401b0316846001600160401b0316146128f2576001600160401b03808516600090815260726020526040902060018101549091168210156128e65760018101546128b590600160401b90046001600160401b0316866135b6565b6128c8906001600160401b0316856138f2565b6001820154600160401b90046001600160401b0316955093506128ec565b506128f2565b50612855565b60006128fe84846138df565b90508084101561295557838103600c8111612919578061291c565b600c5b9050806103e80a81606f60099054906101000a900461ffff1661ffff160a607054028161294b5761294b6135d6565b04607055506129c5565b808403600c81116129665780612969565b600c5b90506000816103e80a82606f60099054906101000a900461ffff1661ffff160a670de0b6b3a764000002816129a0576129a06135d6565b04905080607054670de0b6b3a764000002816129be576129be6135d6565b0460705550505b683635c9adc5dea0000060705411156129ea57683635c9adc5dea00000607055611941565b633b9aca00607054101561194157633b9aca0060705550505050505050565b6079546001600160401b03600160401b8204811691161115610d0b57607954600090612a4690600160401b90046001600160401b03166001613576565b9050612a5181610ac9565b15610c6a57607954600090600290612a739084906001600160401b03166135b6565b612a7d9190613905565b612a879083613576565b9050612a9281610ac9565b15612aa457612aa081611dea565b5050565b612aa082611dea565b600054610100900460ff16612b185760405162461bcd60e51b815260206004820152602b60248201527f496e697469616c697a61626c653a20636f6e7472616374206973206e6f74206960448201526a6e697469616c697a696e6760a81b6064820152608401611666565b610d0b33611fde565b606f5460ff16612b4457604051635386698160e01b815260040160405180910390fd5b606f805460ff191690556040517f1e5e34eea33501aecf2ebec9fe0e884a40804275ea7fe10b2ba084c8374308b390600090a1565b606f5460ff1615612b9d57604051630bc011ff60e21b815260040160405180910390fd5b606f805460ff191660011790556040517f2261efe5aef6fedc1fd1550b25facc9181745623049c7901287030b9ad1a549790600090a1565b606033878360000151887f00000000000000000000000000000000000000000000000000000000000000007f00000000000000000000000000000000000000000000000000000000000000008988602001518a8d604051602001612c429a999897969594939291906134ed565b60405160208183030381529060405290509695505050505050565b604080516001600160a01b038416602482015260448082018490528251808303909101815260649091019091526020810180516001600160e01b031663a9059cbb60e01b179052612caf908490612cb4565b505050565b6000612d09826040518060400160405280602081526020017f5361666545524332303a206c6f772d6c6576656c2063616c6c206661696c6564815250856001600160a01b0316612d869092919063ffffffff16565b805190915015612caf5780806020019051810190612d2791906138a6565b612caf5760405162461bcd60e51b815260206004820152602a60248201527f5361666545524332303a204552433230206f7065726174696f6e20646964206e6044820152691bdd081cdd58d8d9595960b21b6064820152608401611666565b6060612d958484600085612d9d565b949350505050565b606082471015612dfe5760405162461bcd60e51b815260206004820152602660248201527f416464726573733a20696e73756666696369656e742062616c616e636520666f6044820152651c8818d85b1b60d21b6064820152608401611666565b600080866001600160a01b03168587604051612e1a9190613808565b60006040518083038185875af1925050503d8060008114612e57576040519150601f19603f3d011682016040523d82523d6000602084013e612e5c565b606091505b5091509150612e6d87838387612e78565b979650505050505050565b60608315612ee7578251600003612ee0576001600160a01b0385163b612ee05760405162461bcd60e51b815260206004820152601d60248201527f416464726573733a2063616c6c20746f206e6f6e2d636f6e74726163740000006044820152606401611666565b5081612d95565b612d958383815115612efc5781518083602001fd5b8060405162461bcd60e51b81526004016116669190612f66565b60005b83811015612f31578181015183820152602001612f19565b50506000910152565b60008151808452612f52816020860160208601612f16565b601f01601f19169290920160200192915050565b602081526000612f796020830184612f3a565b9392505050565b600060208284031215612f9257600080fd5b813561ffff81168114612f7957600080fd5b80356001600160401b0381168114612fbb57600080fd5b919050565b600080600080600060a08688031215612fd857600080fd5b612fe186612fa4565b9450612fef60208701612fa4565b94979496505050506040830135926060810135926080909101359150565b6001600160a01b0391909116815260200190565b60006020828403121561303357600080fd5b612f7982612fa4565b60006020828403121561304e57600080fd5b81356001600160a01b0381168114612f7957600080fd5b806040810183101561307657600080fd5b92915050565b806080810183101561307657600080fd5b60008060008060008060008060006101c08a8c0312156130ac57600080fd5b6130b58a612fa4565b98506130c360208b01612fa4565b97506130d160408b01612fa4565b96506130df60608b01612fa4565b955060808a0135945060a08a013593506130fc8b60c08c01613065565b925061310c8b6101008c0161307c565b915061311c8b6101808c01613065565b90509295985092959850929598565b60006020828403121561313d57600080fd5b5035919050565b60008060008060008060008060006101c08a8c03121561316357600080fd5b61316c8a612fa4565b985061317a60208b01612fa4565b975061318860408b01612fa4565b965060608a0135955060808a013594506131a58b60a08c01613065565b93506131b48b60e08c0161307c565b92506131c48b6101608c01613065565b91506101a08a01356001600160401b038111156131e057600080fd5b8a016060818d0312156131f257600080fd5b809150509295985092959850929598565b634e487b7160e01b600052604160045260246000fd5b60006001600160401b038084111561323357613233613203565b604051601f8501601f19908116603f0116810190828211818310171561325b5761325b613203565b8160405280935085815286868601111561327457600080fd5b858560208301376000602087830101525050509392505050565b600082601f83011261329f57600080fd5b612f7983833560208501613219565b6000602082840312156132c057600080fd5b81356001600160401b038111156132d657600080fd5b612d958482850161328e565b60008083601f8401126132f457600080fd5b5081356001600160401b0381111561330b57600080fd5b60208301915083602082850101111561332357600080fd5b9250929050565b60008060008060008086880361012081121561334557600080fd5b60a081121561335357600080fd5b5086955060a0870135945060c08701356001600160401b038082111561337857600080fd5b6133848a838b0161328e565b955060e089013591508082111561339a57600080fd5b6133a68a838b0161328e565b94506101008901359150808211156133bd57600080fd5b506133ca89828a016132e2565b979a9699509497509295939492505050565b6000806000806000806000806000806000806102008d8f0312156133ff57600080fd5b6134088d612fa4565b9b5061341660208e01612fa4565b9a5061342460408e01612fa4565b995060608d0135985060808d0135975060a08d0135965060c08d0135955061344f8e60e08f01613065565b945061345f8e6101208f0161307c565b935061346f8e6101a08f01613065565b92506001600160401b036101e08e0135111561348a57600080fd5b61349b8e6101e08f01358f016132e2565b81935080925050509295989b509295989b509295989b565b600181811c908216806134c757607f821691505b6020821081036134e757634e487b7160e01b600052602260045260246000fd5b50919050565b60609a909a1b6bffffffffffffffffffffffff19168a5260148a0198909852603489019690965260c094851b6001600160c01b031990811660548a015293851b8416605c89015291841b83166064880152606c870152608c86015260ac8501929092529190911b1660cc82015260d40190565b634e487b7160e01b600052601160045260246000fd5b6001600160401b0381811683821601908082111561359657613596613560565b5092915050565b6000602082840312156135af57600080fd5b5051919050565b6001600160401b0382811682821603908082111561359657613596613560565b634e487b7160e01b600052601260045260246000fd5b6000826135fb576135fb6135d6565b500490565b60006060823603121561361257600080fd5b604051606081016001600160401b03828210818311171561363557613635613203565b816040528435835260208501356020840152604085013591508082111561365b57600080fd5b50830136601f82011261366d57600080fd5b61367c36823560208401613219565b60408301525092915050565b60006001600160401b038083168181036136a4576136a4613560565b6001019392505050565b601f821115612caf57600081815260208120601f850160051c810160208610156136d55750805b601f850160051c820191505b818110156136f4578281556001016136e1565b505050505050565b81516001600160401b0381111561371557613715613203565b6137298161372384546134b3565b846136ae565b602080601f83116001811461375e57600084156137465750858301515b600019600386901b1c1916600185901b1785556136f4565b600085815260208120601f198616915b8281101561378d5788860151825594840194600190910190840161376e565b50858210156137ab5787850151600019600388901b60f8161c191681555b5050505050600190811b01905550565b60006001600160401b03808716835280861660208401525060606040830152826060830152828460808401376000608084840101526080601f19601f850116830101905095945050505050565b6000825161381a818460208701612f16565b9190910192915050565b600082613833576138336135d6565b500690565b61012081016040808784378083018660005b60028110156138675783828437918301919083019060010161384a565b505050808560c08501375061010082018360005b600181101561389a57815183526020928301929091019060010161387b565b50505095945050505050565b6000602082840312156138b857600080fd5b81518015158114612f7957600080fd5b808202811582820484141761307657613076613560565b8181038181111561307657613076613560565b8082018082111561307657613076613560565b60006001600160401b038084168061391f5761391f6135d6565b9216919091049291505056fea2646970667358221220face9c80f1a2e4c475600b210327190011b07d3e4e6a2c12866ed3fb3463506064736f6c63430008110033",
  "linkReferences": {},
  "deployedLinkReferences": {}
}