{
  "_format": "hh-sol-artifact-1",
  "contractName": "PolygonZkEVM",
  "sourceName": "contracts/PolygonZkEVM.sol",
  "abi": [
    {
      "inputs": [
        {
          "internalType": "contract IPolygonZkEVMGlobalExitRoot",
          "name": "_globalExitRootManager",
          "type": "address"
        },
        {
          "internalType": "contract IERC20Upgradeable",
          "name": "_matic",
          "type": "address"
        },
        {
          "internalType": "contract IVerifierRollup",
          "name": "_rollupVerifier",
          "type": "address"
        },
        {
          "internalType": "contract IPolygonZkEVMBridge",
          "name": "_bridgeAddress",
          "type": "address"
        },
        {
          "internalType": "contract IHotShot",
          "name": "_hotshotAddress",
          "type": "address"
        },
        {
          "internalType": "uint64",
          "name": "_chainID",
          "type": "uint64"
        },
        {
          "internalType": "uint64",
          "name": "_forkID",
          "type": "uint64"
        }
      ],
      "stateMutability": "nonpayable",
      "type": "constructor"
    },
    {
      "inputs": [],
      "name": "BatchAlreadyVerified",
      "type": "error"
    },
    {
      "inputs": [],
      "name": "BatchNotSequencedOrNotSequenceEnd",
      "type": "error"
    },
    {
      "inputs": [],
      "name": "ExceedMaxVerifyBatches",
      "type": "error"
    },
    {
      "inputs": [],
      "name": "FinalNumBatchBelowLastVerifiedBatch",
      "type": "error"
    },
    {
      "inputs": [],
      "name": "FinalNumBatchDoesNotMatchPendingState",
      "type": "error"
    },
    {
      "inputs": [],
      "name": "FinalPendingStateNumInvalid",
      "type": "error"
    },
    {
      "inputs": [],
      "name": "ForceBatchTimeoutNotExpired",
      "type": "error"
    },
    {
      "inputs": [],
      "name": "ForceBatchesOverflow",
      "type": "error"
    },
    {
      "inputs": [],
      "name": "ForcedDataDoesNotMatch",
      "type": "error"
    },
    {
      "inputs": [],
      "name": "GlobalExitRootNotExist",
      "type": "error"
    },
    {
      "inputs": [],
      "name": "HaltTimeoutNotExpired",
      "type": "error"
    },
    {
      "inputs": [],
      "name": "InitNumBatchAboveLastVerifiedBatch",
      "type": "error"
    },
    {
      "inputs": [],
      "name": "InitNumBatchDoesNotMatchPendingState",
      "type": "error"
    },
    {
      "inputs": [],
      "name": "InvalidProof",
      "type": "error"
    },
    {
      "inputs": [],
      "name": "InvalidRangeBatchTimeTarget",
      "type": "error"
    },
    {
      "inputs": [],
      "name": "InvalidRangeMultiplierBatchFee",
      "type": "error"
    },
    {
      "inputs": [],
      "name": "NewAccInputHashDoesNotExist",
      "type": "error"
    },
    {
      "inputs": [],
      "name": "NewPendingStateTimeoutMustBeLower",
      "type": "error"
    },
    {
      "inputs": [],
      "name": "NewTrustedAggregatorTimeoutMustBeLower",
      "type": "error"
    },
    {
      "inputs": [],
      "name": "NotEnoughMaticAmount",
      "type": "error"
    },
    {
      "inputs": [],
      "name": "OldAccInputHashDoesNotExist",
      "type": "error"
    },
    {
      "inputs": [],
      "name": "OldStateRootDoesNotExist",
      "type": "error"
    },
    {
      "inputs": [],
      "name": "OnlyAdmin",
      "type": "error"
    },
    {
      "inputs": [],
      "name": "OnlyEmergencyState",
      "type": "error"
    },
    {
      "inputs": [],
      "name": "OnlyNotEmergencyState",
      "type": "error"
    },
    {
      "inputs": [],
      "name": "OnlyPendingAdmin",
      "type": "error"
    },
    {
      "inputs": [],
      "name": "OnlyTrustedAggregator",
      "type": "error"
    },
    {
      "inputs": [],
      "name": "OnlyTrustedSequencer",
      "type": "error"
    },
    {
      "inputs": [],
      "name": "PendingStateDoesNotExist",
      "type": "error"
    },
    {
      "inputs": [],
      "name": "PendingStateInvalid",
      "type": "error"
    },
    {
      "inputs": [],
      "name": "PendingStateNotConsolidable",
      "type": "error"
    },
    {
      "inputs": [],
      "name": "PendingStateTimeoutExceedHaltAggregationTimeout",
      "type": "error"
    },
    {
      "inputs": [],
      "name": "SequenceZeroBatches",
      "type": "error"
    },
    {
      "inputs": [],
      "name": "SequencedTimestampBelowForcedTimestamp",
      "type": "error"
    },
    {
      "inputs": [],
      "name": "SequencedTimestampInvalid",
      "type": "error"
    },
    {
      "inputs": [],
      "name": "StoredRootMustBeDifferentThanNewRoot",
      "type": "error"
    },
    {
      "inputs": [],
      "name": "TransactionsLengthAboveMax",
      "type": "error"
    },
    {
      "inputs": [],
      "name": "TrustedAggregatorTimeoutExceedHaltAggregationTimeout",
      "type": "error"
    },
    {
      "inputs": [],
      "name": "TrustedAggregatorTimeoutNotExpired",
      "type": "error"
    },
    {
      "anonymous": false,
      "inputs": [
        {
          "indexed": false,
          "internalType": "address",
          "name": "newAdmin",
          "type": "address"
        }
      ],
      "name": "AcceptAdminRole",
      "type": "event"
    },
    {
      "anonymous": false,
      "inputs": [
        {
          "indexed": true,
          "internalType": "uint64",
          "name": "numBatch",
          "type": "uint64"
        },
        {
          "indexed": false,
          "internalType": "bytes32",
          "name": "stateRoot",
          "type": "bytes32"
        },
        {
          "indexed": true,
          "internalType": "uint64",
          "name": "pendingStateNum",
          "type": "uint64"
        }
      ],
      "name": "ConsolidatePendingState",
      "type": "event"
    },
    {
      "anonymous": false,
      "inputs": [],
      "name": "EmergencyStateActivated",
      "type": "event"
    },
    {
      "anonymous": false,
      "inputs": [],
      "name": "EmergencyStateDeactivated",
      "type": "event"
    },
    {
      "anonymous": false,
      "inputs": [
        {
          "indexed": true,
          "internalType": "uint64",
          "name": "forceBatchNum",
          "type": "uint64"
        },
        {
          "indexed": false,
          "internalType": "bytes32",
          "name": "lastGlobalExitRoot",
          "type": "bytes32"
        },
        {
          "indexed": false,
          "internalType": "address",
          "name": "sequencer",
          "type": "address"
        },
        {
          "indexed": false,
          "internalType": "bytes",
          "name": "transactions",
          "type": "bytes"
        }
      ],
      "name": "ForceBatch",
      "type": "event"
    },
    {
      "anonymous": false,
      "inputs": [
        {
          "indexed": false,
          "internalType": "uint8",
          "name": "version",
          "type": "uint8"
        }
      ],
      "name": "Initialized",
      "type": "event"
    },
    {
      "anonymous": false,
      "inputs": [
        {
          "indexed": true,
          "internalType": "uint64",
          "name": "numBatch",
          "type": "uint64"
        },
        {
          "indexed": false,
          "internalType": "bytes32",
          "name": "stateRoot",
          "type": "bytes32"
        },
        {
          "indexed": true,
          "internalType": "address",
          "name": "aggregator",
          "type": "address"
        }
      ],
      "name": "OverridePendingState",
      "type": "event"
    },
    {
      "anonymous": false,
      "inputs": [
        {
          "indexed": true,
          "internalType": "address",
          "name": "previousOwner",
          "type": "address"
        },
        {
          "indexed": true,
          "internalType": "address",
          "name": "newOwner",
          "type": "address"
        }
      ],
      "name": "OwnershipTransferred",
      "type": "event"
    },
    {
      "anonymous": false,
      "inputs": [
        {
          "indexed": false,
          "internalType": "bytes32",
          "name": "storedStateRoot",
          "type": "bytes32"
        },
        {
          "indexed": false,
          "internalType": "bytes32",
          "name": "provedStateRoot",
          "type": "bytes32"
        }
      ],
      "name": "ProveNonDeterministicPendingState",
      "type": "event"
    },
    {
      "anonymous": false,
      "inputs": [
        {
          "indexed": true,
          "internalType": "uint64",
          "name": "numBatch",
          "type": "uint64"
        }
      ],
      "name": "SequenceBatches",
      "type": "event"
    },
    {
      "anonymous": false,
      "inputs": [
        {
          "indexed": true,
          "internalType": "uint64",
          "name": "numBatch",
          "type": "uint64"
        }
      ],
      "name": "SequenceForceBatches",
      "type": "event"
    },
    {
      "anonymous": false,
      "inputs": [
        {
          "indexed": false,
          "internalType": "uint16",
          "name": "newMultiplierBatchFee",
          "type": "uint16"
        }
      ],
      "name": "SetMultiplierBatchFee",
      "type": "event"
    },
    {
      "anonymous": false,
      "inputs": [
        {
          "indexed": false,
          "internalType": "uint64",
          "name": "newPendingStateTimeout",
          "type": "uint64"
        }
      ],
      "name": "SetPendingStateTimeout",
      "type": "event"
    },
    {
      "anonymous": false,
      "inputs": [
        {
          "indexed": false,
          "internalType": "address",
          "name": "newTrustedAggregator",
          "type": "address"
        }
      ],
      "name": "SetTrustedAggregator",
      "type": "event"
    },
    {
      "anonymous": false,
      "inputs": [
        {
          "indexed": false,
          "internalType": "uint64",
          "name": "newTrustedAggregatorTimeout",
          "type": "uint64"
        }
      ],
      "name": "SetTrustedAggregatorTimeout",
      "type": "event"
    },
    {
      "anonymous": false,
      "inputs": [
        {
          "indexed": false,
          "internalType": "address",
          "name": "newTrustedSequencer",
          "type": "address"
        }
      ],
      "name": "SetTrustedSequencer",
      "type": "event"
    },
    {
      "anonymous": false,
      "inputs": [
        {
          "indexed": false,
          "internalType": "string",
          "name": "newTrustedSequencerURL",
          "type": "string"
        }
      ],
      "name": "SetTrustedSequencerURL",
      "type": "event"
    },
    {
      "anonymous": false,
      "inputs": [
        {
          "indexed": false,
          "internalType": "uint64",
          "name": "newVerifyBatchTimeTarget",
          "type": "uint64"
        }
      ],
      "name": "SetVerifyBatchTimeTarget",
      "type": "event"
    },
    {
      "anonymous": false,
      "inputs": [
        {
          "indexed": false,
          "internalType": "address",
          "name": "newPendingAdmin",
          "type": "address"
        }
      ],
      "name": "TransferAdminRole",
      "type": "event"
    },
    {
      "anonymous": false,
      "inputs": [
        {
          "indexed": false,
          "internalType": "uint64",
          "name": "numBatch",
          "type": "uint64"
        },
        {
          "indexed": false,
          "internalType": "uint64",
          "name": "forkID",
          "type": "uint64"
        },
        {
          "indexed": false,
          "internalType": "string",
          "name": "version",
          "type": "string"
        }
      ],
      "name": "UpdateZkEVMVersion",
      "type": "event"
    },
    {
      "anonymous": false,
      "inputs": [
        {
          "indexed": true,
          "internalType": "uint64",
          "name": "numBatch",
          "type": "uint64"
        },
        {
          "indexed": false,
          "internalType": "bytes32",
          "name": "stateRoot",
          "type": "bytes32"
        },
        {
          "indexed": true,
          "internalType": "address",
          "name": "aggregator",
          "type": "address"
        }
      ],
      "name": "VerifyBatches",
      "type": "event"
    },
    {
      "anonymous": false,
      "inputs": [
        {
          "indexed": true,
          "internalType": "uint64",
          "name": "numBatch",
          "type": "uint64"
        },
        {
          "indexed": false,
          "internalType": "bytes32",
          "name": "stateRoot",
          "type": "bytes32"
        },
        {
          "indexed": true,
          "internalType": "address",
          "name": "aggregator",
          "type": "address"
        }
      ],
      "name": "VerifyBatchesTrustedAggregator",
      "type": "event"
    },
    {
      "inputs": [],
      "name": "acceptAdminRole",
      "outputs": [],
      "stateMutability": "nonpayable",
      "type": "function"
    },
    {
      "inputs": [
        {
          "internalType": "uint64",
          "name": "sequencedBatchNum",
          "type": "uint64"
        }
      ],
      "name": "activateEmergencyState",
      "outputs": [],
      "stateMutability": "nonpayable",
      "type": "function"
    },
    {
      "inputs": [],
      "name": "admin",
      "outputs": [
        {
          "internalType": "address",
          "name": "",
          "type": "address"
        }
      ],
      "stateMutability": "view",
      "type": "function"
    },
    {
      "inputs": [],
      "name": "batchFee",
      "outputs": [
        {
          "internalType": "uint256",
          "name": "",
          "type": "uint256"
        }
      ],
      "stateMutability": "view",
      "type": "function"
    },
    {
      "inputs": [
        {
          "internalType": "uint64",
          "name": "",
          "type": "uint64"
        }
      ],
      "name": "batchNumToStateRoot",
      "outputs": [
        {
          "internalType": "bytes32",
          "name": "",
          "type": "bytes32"
        }
      ],
      "stateMutability": "view",
      "type": "function"
    },
    {
      "inputs": [],
      "name": "bridgeAddress",
      "outputs": [
        {
          "internalType": "contract IPolygonZkEVMBridge",
          "name": "",
          "type": "address"
        }
      ],
      "stateMutability": "view",
      "type": "function"
    },
    {
      "inputs": [],
      "name": "calculateRewardPerBatch",
      "outputs": [
        {
          "internalType": "uint256",
          "name": "",
          "type": "uint256"
        }
      ],
      "stateMutability": "view",
      "type": "function"
    },
    {
      "inputs": [],
      "name": "chainID",
      "outputs": [
        {
          "internalType": "uint64",
          "name": "",
          "type": "uint64"
        }
      ],
      "stateMutability": "view",
      "type": "function"
    },
    {
      "inputs": [
        {
          "internalType": "uint64",
          "name": "pendingStateNum",
          "type": "uint64"
        }
      ],
      "name": "consolidatePendingState",
      "outputs": [],
      "stateMutability": "nonpayable",
      "type": "function"
    },
    {
      "inputs": [],
      "name": "deactivateEmergencyState",
      "outputs": [],
      "stateMutability": "nonpayable",
      "type": "function"
    },
    {
      "inputs": [
        {
          "internalType": "uint64",
          "name": "",
          "type": "uint64"
        }
      ],
      "name": "forcedBatches",
      "outputs": [
        {
          "internalType": "bytes32",
          "name": "",
          "type": "bytes32"
        }
      ],
      "stateMutability": "view",
      "type": "function"
    },
    {
      "inputs": [],
      "name": "forkID",
      "outputs": [
        {
          "internalType": "uint64",
          "name": "",
          "type": "uint64"
        }
      ],
      "stateMutability": "view",
      "type": "function"
    },
    {
      "inputs": [],
      "name": "getCurrentBatchFee",
      "outputs": [
        {
          "internalType": "uint256",
          "name": "",
          "type": "uint256"
        }
      ],
      "stateMutability": "view",
      "type": "function"
    },
    {
      "inputs": [
        {
          "internalType": "uint64",
          "name": "initNumBatch",
          "type": "uint64"
        },
        {
          "internalType": "uint64",
          "name": "finalNewBatch",
          "type": "uint64"
        },
        {
          "internalType": "bytes32",
          "name": "newLocalExitRoot",
          "type": "bytes32"
        },
        {
          "internalType": "bytes32",
          "name": "oldStateRoot",
          "type": "bytes32"
        },
        {
          "internalType": "bytes32",
          "name": "newStateRoot",
          "type": "bytes32"
        }
      ],
      "name": "getInputSnarkBytes",
      "outputs": [
        {
          "internalType": "bytes",
          "name": "",
          "type": "bytes"
        }
      ],
      "stateMutability": "view",
      "type": "function"
    },
    {
      "inputs": [],
      "name": "getLastVerifiedBatch",
      "outputs": [
        {
          "internalType": "uint64",
          "name": "",
          "type": "uint64"
        }
      ],
      "stateMutability": "view",
      "type": "function"
    },
    {
      "inputs": [],
      "name": "globalExitRootManager",
      "outputs": [
        {
          "internalType": "contract IPolygonZkEVMGlobalExitRoot",
          "name": "",
          "type": "address"
        }
      ],
      "stateMutability": "view",
      "type": "function"
    },
    {
      "inputs": [],
      "name": "hotShot",
      "outputs": [
        {
          "internalType": "contract IHotShot",
          "name": "",
          "type": "address"
        }
      ],
      "stateMutability": "view",
      "type": "function"
    },
    {
      "inputs": [
        {
          "components": [
            {
              "internalType": "address",
              "name": "admin",
              "type": "address"
            },
            {
              "internalType": "address",
              "name": "trustedSequencer",
              "type": "address"
            },
            {
              "internalType": "uint64",
              "name": "pendingStateTimeout",
              "type": "uint64"
            },
            {
              "internalType": "address",
              "name": "trustedAggregator",
              "type": "address"
            },
            {
              "internalType": "uint64",
              "name": "trustedAggregatorTimeout",
              "type": "uint64"
            }
          ],
          "internalType": "struct PolygonZkEVM.InitializePackedParameters",
          "name": "initializePackedParameters",
          "type": "tuple"
        },
        {
          "internalType": "bytes32",
          "name": "genesisRoot",
          "type": "bytes32"
        },
        {
          "internalType": "string",
          "name": "_trustedSequencerURL",
          "type": "string"
        },
        {
          "internalType": "string",
          "name": "_networkName",
          "type": "string"
        },
        {
          "internalType": "string",
          "name": "_version",
          "type": "string"
        }
      ],
      "name": "initialize",
      "outputs": [],
      "stateMutability": "nonpayable",
      "type": "function"
    },
    {
      "inputs": [],
      "name": "isEmergencyState",
      "outputs": [
        {
          "internalType": "bool",
          "name": "",
          "type": "bool"
        }
      ],
      "stateMutability": "view",
      "type": "function"
    },
    {
      "inputs": [
        {
          "internalType": "uint64",
          "name": "pendingStateNum",
          "type": "uint64"
        }
      ],
      "name": "isPendingStateConsolidable",
      "outputs": [
        {
          "internalType": "bool",
          "name": "",
          "type": "bool"
        }
      ],
      "stateMutability": "view",
      "type": "function"
    },
    {
      "inputs": [],
      "name": "lastBatchSequenced",
      "outputs": [
        {
          "internalType": "uint64",
          "name": "",
          "type": "uint64"
        }
      ],
      "stateMutability": "view",
      "type": "function"
    },
    {
      "inputs": [],
      "name": "lastForceBatch",
      "outputs": [
        {
          "internalType": "uint64",
          "name": "",
          "type": "uint64"
        }
      ],
      "stateMutability": "view",
      "type": "function"
    },
    {
      "inputs": [],
      "name": "lastForceBatchSequenced",
      "outputs": [
        {
          "internalType": "uint64",
          "name": "",
          "type": "uint64"
        }
      ],
      "stateMutability": "view",
      "type": "function"
    },
    {
      "inputs": [],
      "name": "lastPendingState",
      "outputs": [
        {
          "internalType": "uint64",
          "name": "",
          "type": "uint64"
        }
      ],
      "stateMutability": "view",
      "type": "function"
    },
    {
      "inputs": [],
      "name": "lastPendingStateConsolidated",
      "outputs": [
        {
          "internalType": "uint64",
          "name": "",
          "type": "uint64"
        }
      ],
      "stateMutability": "view",
      "type": "function"
    },
    {
      "inputs": [],
      "name": "lastTimestamp",
      "outputs": [
        {
          "internalType": "uint64",
          "name": "",
          "type": "uint64"
        }
      ],
      "stateMutability": "view",
      "type": "function"
    },
    {
      "inputs": [],
      "name": "lastVerifiedBatch",
      "outputs": [
        {
          "internalType": "uint64",
          "name": "",
          "type": "uint64"
        }
      ],
      "stateMutability": "view",
      "type": "function"
    },
    {
      "inputs": [],
      "name": "matic",
      "outputs": [
        {
          "internalType": "contract IERC20Upgradeable",
          "name": "",
          "type": "address"
        }
      ],
      "stateMutability": "view",
      "type": "function"
    },
    {
      "inputs": [],
      "name": "multiplierBatchFee",
      "outputs": [
        {
          "internalType": "uint16",
          "name": "",
          "type": "uint16"
        }
      ],
      "stateMutability": "view",
      "type": "function"
    },
    {
      "inputs": [],
      "name": "networkName",
      "outputs": [
        {
          "internalType": "string",
          "name": "",
          "type": "string"
        }
      ],
      "stateMutability": "view",
      "type": "function"
    },
    {
      "inputs": [
        {
          "internalType": "uint64",
          "name": "initPendingStateNum",
          "type": "uint64"
        },
        {
          "internalType": "uint64",
          "name": "finalPendingStateNum",
          "type": "uint64"
        },
        {
          "internalType": "uint64",
          "name": "initNumBatch",
          "type": "uint64"
        },
        {
          "internalType": "uint64",
          "name": "finalNewBatch",
          "type": "uint64"
        },
        {
          "internalType": "bytes32",
          "name": "newLocalExitRoot",
          "type": "bytes32"
        },
        {
          "internalType": "bytes32",
          "name": "newStateRoot",
          "type": "bytes32"
        },
        {
          "internalType": "uint256[2]",
          "name": "proofA",
          "type": "uint256[2]"
        },
        {
          "internalType": "uint256[2][2]",
          "name": "proofB",
          "type": "uint256[2][2]"
        },
        {
          "internalType": "uint256[2]",
          "name": "proofC",
          "type": "uint256[2]"
        }
      ],
      "name": "overridePendingState",
      "outputs": [],
      "stateMutability": "nonpayable",
      "type": "function"
    },
    {
      "inputs": [],
      "name": "owner",
      "outputs": [
        {
          "internalType": "address",
          "name": "",
          "type": "address"
        }
      ],
      "stateMutability": "view",
      "type": "function"
    },
    {
      "inputs": [],
      "name": "pendingAdmin",
      "outputs": [
        {
          "internalType": "address",
          "name": "",
          "type": "address"
        }
      ],
      "stateMutability": "view",
      "type": "function"
    },
    {
      "inputs": [],
      "name": "pendingStateTimeout",
      "outputs": [
        {
          "internalType": "uint64",
          "name": "",
          "type": "uint64"
        }
      ],
      "stateMutability": "view",
      "type": "function"
    },
    {
      "inputs": [
        {
          "internalType": "uint256",
          "name": "",
          "type": "uint256"
        }
      ],
      "name": "pendingStateTransitions",
      "outputs": [
        {
          "internalType": "uint64",
          "name": "timestamp",
          "type": "uint64"
        },
        {
          "internalType": "uint64",
          "name": "lastVerifiedBatch",
          "type": "uint64"
        },
        {
          "internalType": "bytes32",
          "name": "exitRoot",
          "type": "bytes32"
        },
        {
          "internalType": "bytes32",
          "name": "stateRoot",
          "type": "bytes32"
        }
      ],
      "stateMutability": "view",
      "type": "function"
    },
    {
      "inputs": [
        {
          "internalType": "uint64",
          "name": "initPendingStateNum",
          "type": "uint64"
        },
        {
          "internalType": "uint64",
          "name": "finalPendingStateNum",
          "type": "uint64"
        },
        {
          "internalType": "uint64",
          "name": "initNumBatch",
          "type": "uint64"
        },
        {
          "internalType": "uint64",
          "name": "finalNewBatch",
          "type": "uint64"
        },
        {
          "internalType": "bytes32",
          "name": "newLocalExitRoot",
          "type": "bytes32"
        },
        {
          "internalType": "bytes32",
          "name": "newStateRoot",
          "type": "bytes32"
        },
        {
          "internalType": "uint256[2]",
          "name": "proofA",
          "type": "uint256[2]"
        },
        {
          "internalType": "uint256[2][2]",
          "name": "proofB",
          "type": "uint256[2][2]"
        },
        {
          "internalType": "uint256[2]",
          "name": "proofC",
          "type": "uint256[2]"
        }
      ],
      "name": "proveNonDeterministicPendingState",
      "outputs": [],
      "stateMutability": "nonpayable",
      "type": "function"
    },
    {
      "inputs": [],
      "name": "renounceOwnership",
      "outputs": [],
      "stateMutability": "nonpayable",
      "type": "function"
    },
    {
      "inputs": [],
      "name": "rollupVerifier",
      "outputs": [
        {
          "internalType": "contract IVerifierRollup",
          "name": "",
          "type": "address"
        }
      ],
      "stateMutability": "view",
      "type": "function"
    },
    {
      "inputs": [
        {
          "internalType": "uint64",
          "name": "",
          "type": "uint64"
        }
      ],
      "name": "sequencedBatches",
      "outputs": [
        {
          "internalType": "bytes32",
          "name": "accInputHash",
          "type": "bytes32"
        },
        {
          "internalType": "uint64",
          "name": "sequencedTimestamp",
          "type": "uint64"
        },
        {
          "internalType": "uint64",
          "name": "previousLastBatchSequenced",
          "type": "uint64"
        }
      ],
      "stateMutability": "view",
      "type": "function"
    },
    {
      "inputs": [
        {
          "internalType": "uint16",
          "name": "newMultiplierBatchFee",
          "type": "uint16"
        }
      ],
      "name": "setMultiplierBatchFee",
      "outputs": [],
      "stateMutability": "nonpayable",
      "type": "function"
    },
    {
      "inputs": [
        {
          "internalType": "uint64",
          "name": "newPendingStateTimeout",
          "type": "uint64"
        }
      ],
      "name": "setPendingStateTimeout",
      "outputs": [],
      "stateMutability": "nonpayable",
      "type": "function"
    },
    {
      "inputs": [
        {
          "internalType": "address",
          "name": "newTrustedAggregator",
          "type": "address"
        }
      ],
      "name": "setTrustedAggregator",
      "outputs": [],
      "stateMutability": "nonpayable",
      "type": "function"
    },
    {
      "inputs": [
        {
          "internalType": "uint64",
          "name": "newTrustedAggregatorTimeout",
          "type": "uint64"
        }
      ],
      "name": "setTrustedAggregatorTimeout",
      "outputs": [],
      "stateMutability": "nonpayable",
      "type": "function"
    },
    {
      "inputs": [
        {
          "internalType": "address",
          "name": "newTrustedSequencer",
          "type": "address"
        }
      ],
      "name": "setTrustedSequencer",
      "outputs": [],
      "stateMutability": "nonpayable",
      "type": "function"
    },
    {
      "inputs": [
        {
          "internalType": "string",
          "name": "newTrustedSequencerURL",
          "type": "string"
        }
      ],
      "name": "setTrustedSequencerURL",
      "outputs": [],
      "stateMutability": "nonpayable",
      "type": "function"
    },
    {
      "inputs": [
        {
          "internalType": "uint64",
          "name": "newVerifyBatchTimeTarget",
          "type": "uint64"
        }
      ],
      "name": "setVerifyBatchTimeTarget",
      "outputs": [],
      "stateMutability": "nonpayable",
      "type": "function"
    },
    {
      "inputs": [
        {
          "internalType": "address",
          "name": "newPendingAdmin",
          "type": "address"
        }
      ],
      "name": "transferAdminRole",
      "outputs": [],
      "stateMutability": "nonpayable",
      "type": "function"
    },
    {
      "inputs": [
        {
          "internalType": "address",
          "name": "newOwner",
          "type": "address"
        }
      ],
      "name": "transferOwnership",
      "outputs": [],
      "stateMutability": "nonpayable",
      "type": "function"
    },
    {
      "inputs": [],
      "name": "trustedAggregator",
      "outputs": [
        {
          "internalType": "address",
          "name": "",
          "type": "address"
        }
      ],
      "stateMutability": "view",
      "type": "function"
    },
    {
      "inputs": [],
      "name": "trustedAggregatorTimeout",
      "outputs": [
        {
          "internalType": "uint64",
          "name": "",
          "type": "uint64"
        }
      ],
      "stateMutability": "view",
      "type": "function"
    },
    {
      "inputs": [],
      "name": "trustedSequencer",
      "outputs": [
        {
          "internalType": "address",
          "name": "",
          "type": "address"
        }
      ],
      "stateMutability": "view",
      "type": "function"
    },
    {
      "inputs": [],
      "name": "trustedSequencerURL",
      "outputs": [
        {
          "internalType": "string",
          "name": "",
          "type": "string"
        }
      ],
      "stateMutability": "view",
      "type": "function"
    },
    {
      "inputs": [],
      "name": "verifyBatchTimeTarget",
      "outputs": [
        {
          "internalType": "uint64",
          "name": "",
          "type": "uint64"
        }
      ],
      "stateMutability": "view",
      "type": "function"
    },
    {
      "inputs": [
        {
          "components": [
            {
              "internalType": "uint64",
              "name": "pendingStateNum",
              "type": "uint64"
            },
            {
              "internalType": "uint64",
              "name": "initNumBatch",
              "type": "uint64"
            },
            {
              "internalType": "uint64",
              "name": "finalNewBatch",
              "type": "uint64"
            },
            {
              "internalType": "bytes32",
              "name": "newLocalExitRoot",
              "type": "bytes32"
            },
            {
              "internalType": "bytes32",
              "name": "newStateRoot",
              "type": "bytes32"
            },
            {
              "internalType": "bytes32",
              "name": "oldAccInputHash",
              "type": "bytes32"
            },
            {
              "internalType": "bytes32",
              "name": "newAccInputHash",
              "type": "bytes32"
            }
          ],
          "internalType": "struct PolygonZkEVM.VerifyBatchPackedParameters",
          "name": "packed",
          "type": "tuple"
        },
        {
          "internalType": "uint256[2]",
          "name": "proofA",
          "type": "uint256[2]"
        },
        {
          "internalType": "uint256[2][2]",
          "name": "proofB",
          "type": "uint256[2][2]"
        },
        {
          "internalType": "uint256[2]",
          "name": "proofC",
          "type": "uint256[2]"
        },
        {
          "internalType": "bytes",
          "name": "commProof",
          "type": "bytes"
        }
      ],
      "name": "verifyBatches",
      "outputs": [],
      "stateMutability": "nonpayable",
      "type": "function"
    },
    {
      "inputs": [
        {
          "internalType": "uint64",
          "name": "pendingStateNum",
          "type": "uint64"
        },
        {
          "internalType": "uint64",
          "name": "initNumBatch",
          "type": "uint64"
        },
        {
          "internalType": "uint64",
          "name": "finalNewBatch",
          "type": "uint64"
        },
        {
          "internalType": "bytes32",
          "name": "newLocalExitRoot",
          "type": "bytes32"
        },
        {
          "internalType": "bytes32",
          "name": "newStateRoot",
          "type": "bytes32"
        },
        {
          "internalType": "bytes32",
          "name": "oldAccInputHash",
          "type": "bytes32"
        },
        {
          "internalType": "bytes32",
          "name": "newAccInputHash",
          "type": "bytes32"
        },
        {
          "internalType": "uint256[2]",
          "name": "proofA",
          "type": "uint256[2]"
        },
        {
          "internalType": "uint256[2][2]",
          "name": "proofB",
          "type": "uint256[2][2]"
        },
        {
          "internalType": "uint256[2]",
          "name": "proofC",
          "type": "uint256[2]"
        },
        {
          "internalType": "bytes",
          "name": "commProof",
          "type": "bytes"
        }
      ],
      "name": "verifyBatchesTrustedAggregator",
      "outputs": [],
      "stateMutability": "nonpayable",
      "type": "function"
    }
  ],
  "bytecode": "0x6101606040523480156200001257600080fd5b5060405162003c3d38038062003c3d8339810160408190526200003591620000ac565b6001600160a01b0396871660c05294861660805292851660a05290841660e052909216610100526001600160401b039182166101205216610140526200014f565b6001600160a01b03811681146200008c57600080fd5b50565b80516001600160401b0381168114620000a757600080fd5b919050565b600080600080600080600060e0888a031215620000c857600080fd5b8751620000d58162000076565b6020890151909750620000e88162000076565b6040890151909650620000fb8162000076565b60608901519095506200010e8162000076565b6080890151909450620001218162000076565b92506200013160a089016200008f565b91506200014160c089016200008f565b905092959891949750929550565b60805160a05160c05160e051610100516101205161014051613a1c620002216000396000818161055101528181610a71015281816119900152612c9601526000818161068901528181610a500152612c750152600081816104b6015281816121db015261228001526000818161064f01528181611beb01526127ea01526000818161079401528181610e5801528181611b0b01528181611d080152611fa20152600081816108300152818161239e0152612ac5015260008181610738015281816112c7015261246f0152613a1c6000f3fe608060405234801561001057600080fd5b50600436106102ed5760003560e01c8063841b24d711610193578063c89e42df116100e4578063e11f3f1811610092578063e11f3f18146107fe578063e7a7ed0214610811578063e8bf92ed1461082b578063f14916d614610852578063f2fde38b14610865578063f851a44014610878578063f8b823e41461088b57600080fd5b8063c89e42df14610762578063cfa8ed4714610775578063d02103ca1461078f578063d2e129f9146107b6578063d939b315146107c9578063d9794136146107e3578063dbc16976146107f657600080fd5b8063a3c573eb11610141578063a3c573eb1461064a578063ada8f91914610671578063adc879e914610684578063afd23cbe146106ab578063b4d63f58146106d3578063b6b0b09714610733578063c0ed84e01461075a57600080fd5b8063841b24d7146105e15780638c3d7301146105fb5780638da5cb5b1461060357806399f5634e146106145780639c9f3dfe1461061c5780639f0d039d1461062f578063a066215c1461063757600080fd5b80634a1a89a71161024d5780636ff512cc116101fb5780636ff512cc146104f8578063715018a61461050b5780637215541a1461051357806375c508b3146105265780637fcb365314610539578063831c7ead1461054c578063837a47381461057357600080fd5b80634a1a89a71461043b5780634a910e6a146104555780635392c5e014610468578063542028d5146104965780635e0ab44f1461049e5780636375e13c146104b15780636b8616ce146104d857600080fd5b806326782247116102aa578063267822471461039457806329878983146103b4578063383b3be8146103ce578063394218e9146103e1578063423fa856146103f4578063456052671461040e578063458c04771461042857600080fd5b80630a0d9fbe146102f2578063107bf28c1461032757806315064c961461033c5780631816b7e51461035957806319d8ac611461036e578063220d789914610381575b600080fd5b606f5461030a9061010090046001600160401b031681565b6040516001600160401b0390911681526020015b60405180910390f35b61032f610894565b60405161031e919061305f565b606f546103499060ff1681565b604051901515815260200161031e565b61036c610367366004613079565b610922565b005b60735461030a906001600160401b031681565b61032f61038f3660046130b9565b6109db565b607b546103a7906001600160a01b031681565b60405161031e9190613106565b6074546103a790600160401b90046001600160a01b031681565b6103496103dc36600461311a565b610ac9565b61036c6103ef36600461311a565b610b10565b60735461030a90600160401b90046001600160401b031681565b60735461030a90600160801b90046001600160401b031681565b60795461030a906001600160401b031681565b60795461030a90600160401b90046001600160401b031681565b61036c61046336600461311a565b610bfe565b61048861047636600461311a565b60756020526000908152604090205481565b60405190815260200161031e565b61032f610c6d565b61036c6104ac36600461319f565b610c7a565b6103a77f000000000000000000000000000000000000000000000000000000000000000081565b6104886104e636600461311a565b60716020526000908152604090205481565b61036c610506366004613233565b611003565b61036c611082565b61036c61052136600461311a565b611096565b61036c61053436600461325c565b6111a3565b60745461030a906001600160401b031681565b61030a7f000000000000000000000000000000000000000000000000000000000000000081565b6105b66105813660046132fa565b6078602052600090815260409020805460018201546002909201546001600160401b0380831693600160401b90930416919084565b604080516001600160401b03958616815294909316602085015291830152606082015260800161031e565b60795461030a90600160c01b90046001600160401b031681565b61036c61123e565b6033546001600160a01b03166103a7565b6104886112c2565b61036c61062a36600461311a565b6113cf565b607054610488565b61036c61064536600461311a565b6114c2565b6103a77f000000000000000000000000000000000000000000000000000000000000000081565b61036c61067f366004613233565b611571565b61030a7f000000000000000000000000000000000000000000000000000000000000000081565b606f546106c090600160481b900461ffff1681565b60405161ffff909116815260200161031e565b61070e6106e136600461311a565b607260205260009081526040902080546001909101546001600160401b0380821691600160401b90041683565b604080519384526001600160401b03928316602085015291169082015260600161031e565b6103a77f000000000000000000000000000000000000000000000000000000000000000081565b61030a6115e7565b61036c6107703660046133b5565b611634565b606f546103a790600160581b90046001600160a01b031681565b6103a77f000000000000000000000000000000000000000000000000000000000000000081565b61036c6107c43660046133e9565b61169b565b60795461030a90600160801b90046001600160401b031681565b61036c6107f1366004613489565b611a18565b61036c611bbe565b61036c61080c36600461325c565b611c64565b60735461030a90600160c01b90046001600160401b031681565b6103a77f000000000000000000000000000000000000000000000000000000000000000081565b61036c610860366004613233565b611dcd565b61036c610873366004613233565b611e4c565b607a546103a7906001600160a01b031681565b61048860705481565b607780546108a190613560565b80601f01602080910402602001604051908101604052809291908181526020018280546108cd90613560565b801561091a5780601f106108ef5761010080835404028352916020019161091a565b820191906000526020600020905b8154815290600101906020018083116108fd57829003601f168201915b505050505081565b607a546001600160a01b0316331461094d57604051634755657960e01b815260040160405180910390fd5b6103e88161ffff16108061096657506103ff8161ffff16115b1561098457604051630984a67960e31b815260040160405180910390fd5b606f805461ffff60481b1916600160481b61ffff8416908102919091179091556040519081527f7019933d795eba185c180209e8ae8bffbaa25bcef293364687702c31f4d302c5906020015b60405180910390a150565b6001600160401b038086166000818152607260205260408082205493881682529020546060929115801590610a0e575081155b15610a2c5760405163340c614f60e11b815260040160405180910390fd5b80610a4a576040516366385b5160e01b815260040160405180910390fd5b3385838a7f00000000000000000000000000000000000000000000000000000000000000007f000000000000000000000000000000000000000000000000000000000000000089878d8f604051602001610aad9a9998979695949392919061359a565b6040516020818303038152906040529250505095945050505050565b6079546001600160401b0382811660009081526078602052604081205490924292610aff92600160801b90920481169116613623565b6001600160401b0316111592915050565b607a546001600160a01b03163314610b3b57604051634755657960e01b815260040160405180910390fd5b62093a806001600160401b0382161115610b6857604051631d06e87960e01b815260040160405180910390fd5b606f5460ff16610ba8576079546001600160401b03600160c01b909104811690821610610ba85760405163401636df60e01b815260040160405180910390fd5b607980546001600160c01b0316600160c01b6001600160401b038416908102919091179091556040519081527f1f4fa24c2e4bad19a7f3ec5c5485f70d46c798461c2e684f55bbd0fc661373a1906020016109d0565b607454600160401b90046001600160a01b03163314610c6157606f5460ff1615610c3b57604051630bc011ff60e21b815260040160405180910390fd5b610c4481610ac9565b610c6157604051630674f25160e11b815260040160405180910390fd5b610c6a81611ec2565b50565b607680546108a190613560565b606f5460ff1615610c9e57604051630bc011ff60e21b815260040160405180910390fd5b6079544290600160c01b90046001600160401b031660726000610cc760608b0160408c0161311a565b6001600160401b039081168252602082019290925260400160002060010154610cf1929116613623565b6001600160401b03161115610d1957604051638a0704d360e01b815260040160405180910390fd5b6103e8610d2c604088016020890161311a565b610d3c6060890160408a0161311a565b610d46919061364a565b6001600160401b03161115610d6e57604051635acfba9d60e11b815260040160405180910390fd5b610d8a610d803688900388018861366a565b868686868661205c565b610da2610d9d606088016040890161311a565b6124a4565b607954600160801b90046001600160401b0316600003610ec157610dcc606087016040880161311a565b6074805467ffffffffffffffff19166001600160401b0392909216919091179055608086013560756000610e0660608a0160408b0161311a565b6001600160401b0390811682526020820192909252604001600020919091556079541615610e3f57607980546001600160801b03191690555b6040516333d6247d60e01b8152606087013560048201527f00000000000000000000000000000000000000000000000000000000000000006001600160a01b0316906333d6247d90602401600060405180830381600087803b158015610ea457600080fd5b505af1158015610eb8573d6000803e3d6000fd5b50505050610fa4565b610ec9612698565b607980546001600160401b0316906000610ee283613700565b91906101000a8154816001600160401b0302191690836001600160401b03160217905550506040518060800160405280426001600160401b03168152602001876040016020810190610f34919061311a565b6001600160401b0390811682526060808a013560208085019190915260808b0135604094850152607954831660009081526078825284902085518154928701518516600160401b026001600160801b03199093169416939093171782559183015160018201559101516002909101555b33610fb5606088016040890161311a565b6001600160401b03167f9c72852172521097ba7e1482e6b44b351323df0155f97f4ea18fcec28e1f59668860800135604051610ff391815260200190565b60405180910390a3505050505050565b607a546001600160a01b0316331461102e57604051634755657960e01b815260040160405180910390fd5b606f8054600160581b600160f81b031916600160581b6001600160a01b038416021790556040517ff54144f9611984021529f814a1cb6a41e22c58351510a0d9f7e822618abb9cc0906109d0908390613106565b61108a61273c565b6110946000612796565b565b6033546001600160a01b0316331461119b5760006110b26115e7565b9050806001600160401b0316826001600160401b0316116110e65760405163812a372d60e01b815260040160405180910390fd5b6073546001600160401b03600160401b9091048116908316118061112557506001600160401b0380831660009081526072602052604090206001015416155b1561114357604051632631700560e21b815260040160405180910390fd5b6001600160401b0380831660009081526072602052604090206001015442916111719162093a809116613623565b6001600160401b031611156111995760405163692baaad60e11b815260040160405180910390fd5b505b610c6a6127e8565b606f5460ff16156111c757604051630bc011ff60e21b815260040160405180910390fd5b6111d8898989898989898989612863565b6001600160401b0386166000908152607560209081526040918290205482519081529081018690527f1f44c21118c4603cfb4e1b621dbcfa2b73efcececee2b99b620b2953d33a7010910160405180910390a16112336127e8565b505050505050505050565b607b546001600160a01b031633146112695760405163d1ec4b2360e01b815260040160405180910390fd5b607b54607a80546001600160a01b0319166001600160a01b0390921691821790556040517f056dc487bbf0795d0bbb1b4f0af523a855503cff740bfb4d5475f7a90c091e8e916112b891613106565b60405180910390a1565b6000807f00000000000000000000000000000000000000000000000000000000000000006001600160a01b03166370a08231306040518263ffffffff1660e01b81526004016113119190613106565b602060405180830381865afa15801561132e573d6000803e3d6000fd5b505050506040513d601f19601f820116820180604052508101906113529190613726565b9050600061135e6115e7565b6073546001600160401b03600160401b820481169161138e91600160801b8204811691600160c01b90041661364a565b6113989190613623565b6113a2919061364a565b6001600160401b03169050806000036113be5760009250505090565b6113c88183613755565b9250505090565b607a546001600160a01b031633146113fa57604051634755657960e01b815260040160405180910390fd5b62093a806001600160401b038216111561142757604051630cc9650760e41b815260040160405180910390fd5b606f5460ff16611467576079546001600160401b03600160801b9091048116908216106114675760405163048a05a960e41b815260040160405180910390fd5b6079805467ffffffffffffffff60801b1916600160801b6001600160401b038416908102919091179091556040519081527fc4121f4e22c69632ebb7cf1f462be0511dc034f999b52013eddfb24aab765c75906020016109d0565b607a546001600160a01b031633146114ed57604051634755657960e01b815260040160405180910390fd5b62015180816001600160401b0316111561151a57604051631c0cfbfd60e31b815260040160405180910390fd5b606f805468ffffffffffffffff0019166101006001600160401b038416908102919091179091556040519081527f1b023231a1ab6b5d93992f168fb44498e1a7e64cef58daff6f1c216de6a68c28906020016109d0565b607a546001600160a01b0316331461159c57604051634755657960e01b815260040160405180910390fd5b607b80546001600160a01b0319166001600160a01b0383161790556040517fa5b56b7906fd0a20e3f35120dd8343db1e12e037a6c90111c7e42885e82a1ce6906109d0908390613106565b6079546000906001600160401b03161561162457506079546001600160401b03908116600090815260786020526040902054600160401b90041690565b506074546001600160401b031690565b607a546001600160a01b0316331461165f57604051634755657960e01b815260040160405180910390fd5b607661166b82826137b7565b507f6b8f723a4c7a5335cafae8a598a0aa0301be1387c037dccc085b62add6448b20816040516109d0919061305f565b600054610100900460ff16158080156116bb5750600054600160ff909116105b806116d55750303b1580156116d5575060005460ff166001145b61173d5760405162461bcd60e51b815260206004820152602e60248201527f496e697469616c697a61626c653a20636f6e747261637420697320616c72656160448201526d191e481a5b9a5d1a585b1a5e995960921b60648201526084015b60405180910390fd5b6000805460ff191660011790558015611760576000805461ff0019166101001790555b61176d6020880188613233565b607a80546001600160a01b0319166001600160a01b039290921691909117905561179d6040880160208901613233565b606f80546001600160a01b0392909216600160581b02600160581b600160f81b03199092169190911790556117d86080880160608901613233565b607480546001600160a01b0392909216600160401b02600160401b600160e01b03199092169190911790556000805260756020527ff9e3fbf150b7a0077118526f473c53cb4734f166167e2c6213e3567dd390b4ad869055607661183c86826137b7565b50607761184985826137b7565b5062093a8061185e6060890160408a0161311a565b6001600160401b0316111561188657604051630cc9650760e41b815260040160405180910390fd5b611896606088016040890161311a565b607980546001600160401b0392909216600160801b0267ffffffffffffffff60801b1990921691909117905562093a806118d660a0890160808a0161311a565b6001600160401b031611156118fe57604051631d06e87960e01b815260040160405180910390fd5b61190e60a088016080890161311a565b607980546001600160c01b0316600160c01b6001600160401b039390931692909202919091179055670de0b6b3a7640000607055606f80546affffffffffffffffffff0019166a03ea00000000000007080017905561196b612b99565b7fed7be53c9f1a96a481223b15568a5b1a475e01a74b347d6ca187c8bf0c078cd660007f000000000000000000000000000000000000000000000000000000000000000085856040516119c19493929190613876565b60405180910390a18015611a0f576000805461ff0019169055604051600181527f7f26b83ff96e1f2b6a682f133852f6798a09c465da95921460cefb38474024989060200160405180910390a15b50505050505050565b607454600160401b90046001600160a01b03163314611a4a5760405163bbcbbc0560e01b815260040160405180910390fd5b60006040518060e001604052808e6001600160401b031681526020018d6001600160401b031681526020018c6001600160401b031681526020018b81526020018a8152602001898152602001888152509050611aaa81878787878761205c565b6074805467ffffffffffffffff19166001600160401b038d811691821790925560009081526075602052604090208a90556079541615611af557607980546001600160801b03191690555b6040516333d6247d60e01b8152600481018b90527f00000000000000000000000000000000000000000000000000000000000000006001600160a01b0316906333d6247d90602401600060405180830381600087803b158015611b5757600080fd5b505af1158015611b6b573d6000803e3d6000fd5b50506040518b81523392506001600160401b038e1691507fcb339b570a7f0b25afa7333371ff11192092a0aeace12b671f4c212f2815c6fe9060200160405180910390a350505050505050505050505050565b607a546001600160a01b03163314611be957604051634755657960e01b815260040160405180910390fd5b7f00000000000000000000000000000000000000000000000000000000000000006001600160a01b031663dbc169766040518163ffffffff1660e01b8152600401600060405180830381600087803b158015611c4457600080fd5b505af1158015611c58573d6000803e3d6000fd5b50505050611094612c0d565b607454600160401b90046001600160a01b03163314611c965760405163bbcbbc0560e01b815260040160405180910390fd5b611ca7898989898989898989612863565b6074805467ffffffffffffffff19166001600160401b0388811691821790925560009081526075602052604090208590556079541615611cf257607980546001600160801b03191690555b6040516333d6247d60e01b8152600481018690527f00000000000000000000000000000000000000000000000000000000000000006001600160a01b0316906333d6247d90602401600060405180830381600087803b158015611d5457600080fd5b505af1158015611d68573d6000803e3d6000fd5b5050607980546001600160c01b031661127560c71b179055505060405184815233906001600160401b038816907fcc1b5520188bf1dd3e63f98164b577c4d75c11a619ddea692112f0d1aec4cf729060200160405180910390a3505050505050505050565b607a546001600160a01b03163314611df857604051634755657960e01b815260040160405180910390fd5b60748054600160401b600160e01b031916600160401b6001600160a01b038416021790556040517f61f8fec29495a3078e9271456f05fb0707fd4e41f7661865f80fc437d06681ca906109d0908390613106565b611e5461273c565b6001600160a01b038116611eb95760405162461bcd60e51b815260206004820152602660248201527f4f776e61626c653a206e6577206f776e657220697320746865207a65726f206160448201526564647265737360d01b6064820152608401611734565b610c6a81612796565b6079546001600160401b03600160401b9091048116908216111580611ef557506079546001600160401b03908116908216115b15611f135760405163d086b70b60e01b815260040160405180910390fd5b6001600160401b038181166000818152607860209081526040808320805460748054600160401b9283900490981667ffffffffffffffff19909816881790556002820154878652607590945293829020929092556079805467ffffffffffffffff60401b19169390940292909217909255600182015490516333d6247d60e01b815260048101919091529091907f00000000000000000000000000000000000000000000000000000000000000006001600160a01b0316906333d6247d90602401600060405180830381600087803b158015611fee57600080fd5b505af1158015612002573d6000803e3d6000fd5b50505050826001600160401b0316816001600160401b03167f328d3c6c0fd6f1be0515e422f2d87e59f25922cbc2233568515a0c4bc3f8510e846002015460405161204f91815260200190565b60405180910390a3505050565b6000806120676115e7565b88519091506001600160401b0316156121095760795488516001600160401b03918216911611156120ab5760405163bb14c20560e01b815260040160405180910390fd5b87516001600160401b03908116600090815260786020908152604090912060028101548154928c01519095509092908116600160401b909204161461210357604051632bd2e3e760e01b815260040160405180910390fd5b5061217e565b6020808901516001600160401b0316600090815260759091526040902054915081612147576040516324cbdcc360e11b815260040160405180910390fd5b806001600160401b031688602001516001600160401b0316111561217e57604051630f2b74f160e11b815260040160405180910390fd5b806001600160401b031688604001516001600160401b0316116121b45760405163b9b18f5760e01b815260040160405180910390fd5b60208801516040516349ce899760e01b81526001600160401b0390911660048201526000907f00000000000000000000000000000000000000000000000000000000000000006001600160a01b0316906349ce899790602401602060405180830381865afa15801561222a573d6000803e3d6000fd5b505050506040513d601f19601f8201168201806040525081019061224e9190613726565b6040808b015190516349ce899760e01b81526001600160401b0390911660048201529091506000906001600160a01b037f000000000000000000000000000000000000000000000000000000000000000016906349ce899790602401602060405180830381865afa1580156122c7573d6000803e3d6000fd5b505050506040513d601f19601f820116820180604052508101906122eb9190613726565b905060006122f9858c612c65565b905060007f30644e72e131a029b85045b68181585d2833e84879b9709143e1f593f000000160028360405161232e91906138c3565b602060405180830381855afa15801561234b573d6000803e3d6000fd5b5050506040513d601f19601f8201168201806040525081019061236e9190613726565b61237891906138df565b6040805160208101825282815290516343753b4d60e01b81529192506001600160a01b037f000000000000000000000000000000000000000000000000000000000000000016916343753b4d916123d8918f918f918f91906004016138f3565b602060405180830381865afa1580156123f5573d6000803e3d6000fd5b505050506040513d601f19601f820116820180604052508101906124199190613961565b612436576040516309bde33960e01b815260040160405180910390fd5b61249633868e6040015161244a919061364a565b6001600160401b031661245b6112c2565b6124659190613983565b6001600160a01b037f0000000000000000000000000000000000000000000000000000000000000000169190612cfa565b505050505050505050505050565b60006124ae6115e7565b9050816000806124be848461364a565b606f546001600160401b0391821692506000916124e1916101009004164261399a565b90505b846001600160401b0316846001600160401b031614612581576001600160401b038085166000908152607260205260409020600181015490911682101561257557600181015461254490600160401b90046001600160401b03168661364a565b612557906001600160401b0316856139ad565b6001820154600160401b90046001600160401b03169550935061257b565b50612581565b506124e4565b600061258d848461399a565b9050808410156125e457838103600c81116125a857806125ab565b600c5b9050806103e80a81606f60099054906101000a900461ffff1661ffff160a60705402816125da576125da61373f565b0460705550612654565b808403600c81116125f557806125f8565b600c5b90506000816103e80a82606f60099054906101000a900461ffff1661ffff160a670de0b6b3a7640000028161262f5761262f61373f565b04905080607054670de0b6b3a7640000028161264d5761264d61373f565b0460705550505b683635c9adc5dea00000607054111561267957683635c9adc5dea00000607055611a0f565b633b9aca006070541015611a0f57633b9aca0060705550505050505050565b6079546001600160401b03600160401b8204811691161115611094576079546000906126d590600160401b90046001600160401b03166001613623565b90506126e081610ac9565b15610c6a576079546000906002906127029084906001600160401b031661364a565b61270c91906139c0565b6127169083613623565b905061272181610ac9565b156127335761272f81611ec2565b5050565b61272f82611ec2565b6033546001600160a01b031633146110945760405162461bcd60e51b815260206004820181905260248201527f4f776e61626c653a2063616c6c6572206973206e6f7420746865206f776e65726044820152606401611734565b603380546001600160a01b038381166001600160a01b0319831681179093556040519116919082907f8be0079c531659141344cd1fd0a4f28419497f9722a3daafe3b4186f6b6457e090600090a35050565b7f00000000000000000000000000000000000000000000000000000000000000006001600160a01b0316632072f6c56040518163ffffffff1660e01b8152600401600060405180830381600087803b15801561284357600080fd5b505af1158015612857573d6000803e3d6000fd5b50505050611094612d51565b60006001600160401b038a16156128f7576079546001600160401b03908116908b1611156128a45760405163bb14c20560e01b815260040160405180910390fd5b506001600160401b03808a1660009081526078602052604090206002810154815490928a8116600160401b90920416146128f157604051632bd2e3e760e01b815260040160405180910390fd5b5061295f565b506001600160401b0387166000908152607560205260409020548061292f576040516324cbdcc360e11b815260040160405180910390fd5b6074546001600160401b03908116908916111561295f57604051630f2b74f160e11b815260040160405180910390fd5b6079546001600160401b03908116908a16118061298e5750896001600160401b0316896001600160401b031611155b806129af57506079546001600160401b03600160401b9091048116908a1611155b156129cd5760405163bfa7079f60e01b815260040160405180910390fd5b6001600160401b03898116600090815260786020526040902054600160401b9004811690881614612a11576040516332a2a77f60e01b815260040160405180910390fd5b6000612a20898989858a6109db565b905060007f30644e72e131a029b85045b68181585d2833e84879b9709143e1f593f0000001600283604051612a5591906138c3565b602060405180830381855afa158015612a72573d6000803e3d6000fd5b5050506040513d601f19601f82011682018060405250810190612a959190613726565b612a9f91906138df565b6040805160208101825282815290516343753b4d60e01b81529192506001600160a01b037f000000000000000000000000000000000000000000000000000000000000000016916343753b4d91612aff918a918a918a91906004016138f3565b602060405180830381865afa158015612b1c573d6000803e3d6000fd5b505050506040513d601f19601f82011682018060405250810190612b409190613961565b612b5d576040516309bde33960e01b815260040160405180910390fd5b6001600160401b038b166000908152607860205260409020600201548790036124965760405163a47276bd60e01b815260040160405180910390fd5b600054610100900460ff16612c045760405162461bcd60e51b815260206004820152602b60248201527f496e697469616c697a61626c653a20636f6e7472616374206973206e6f74206960448201526a6e697469616c697a696e6760a81b6064820152608401611734565b61109433612796565b606f5460ff16612c3057604051635386698160e01b815260040160405180910390fd5b606f805460ff191690556040517f1e5e34eea33501aecf2ebec9fe0e884a40804275ea7fe10b2ba084c8374308b390600090a1565b606033838360a0015184602001517f00000000000000000000000000000000000000000000000000000000000000007f000000000000000000000000000000000000000000000000000000000000000087608001518860c0015189606001518a60400151604051602001612ce29a9998979695949392919061359a565b60405160208183030381529060405290505b92915050565b604080516001600160a01b038416602482015260448082018490528251808303909101815260649091019091526020810180516001600160e01b031663a9059cbb60e01b179052612d4c908490612dad565b505050565b606f5460ff1615612d7557604051630bc011ff60e21b815260040160405180910390fd5b606f805460ff191660011790556040517f2261efe5aef6fedc1fd1550b25facc9181745623049c7901287030b9ad1a549790600090a1565b6000612e02826040518060400160405280602081526020017f5361666545524332303a206c6f772d6c6576656c2063616c6c206661696c6564815250856001600160a01b0316612e7f9092919063ffffffff16565b805190915015612d4c5780806020019051810190612e209190613961565b612d4c5760405162461bcd60e51b815260206004820152602a60248201527f5361666545524332303a204552433230206f7065726174696f6e20646964206e6044820152691bdd081cdd58d8d9595960b21b6064820152608401611734565b6060612e8e8484600085612e96565b949350505050565b606082471015612ef75760405162461bcd60e51b815260206004820152602660248201527f416464726573733a20696e73756666696369656e742062616c616e636520666f6044820152651c8818d85b1b60d21b6064820152608401611734565b600080866001600160a01b03168587604051612f1391906138c3565b60006040518083038185875af1925050503d8060008114612f50576040519150601f19603f3d011682016040523d82523d6000602084013e612f55565b606091505b5091509150612f6687838387612f71565b979650505050505050565b60608315612fe0578251600003612fd9576001600160a01b0385163b612fd95760405162461bcd60e51b815260206004820152601d60248201527f416464726573733a2063616c6c20746f206e6f6e2d636f6e74726163740000006044820152606401611734565b5081612e8e565b612e8e8383815115612ff55781518083602001fd5b8060405162461bcd60e51b8152600401611734919061305f565b60005b8381101561302a578181015183820152602001613012565b50506000910152565b6000815180845261304b81602086016020860161300f565b601f01601f19169290920160200192915050565b6020815260006130726020830184613033565b9392505050565b60006020828403121561308b57600080fd5b813561ffff8116811461307257600080fd5b80356001600160401b03811681146130b457600080fd5b919050565b600080600080600060a086880312156130d157600080fd5b6130da8661309d565b94506130e86020870161309d565b94979496505050506040830135926060810135926080909101359150565b6001600160a01b0391909116815260200190565b60006020828403121561312c57600080fd5b6130728261309d565b8060408101831015612cf457600080fd5b8060808101831015612cf457600080fd5b60008083601f84011261316957600080fd5b5081356001600160401b0381111561318057600080fd5b60208301915083602082850101111561319857600080fd5b9250929050565b6000806000806000808688036102008112156131ba57600080fd5b60e08112156131c857600080fd5b508695506131d98860e08901613135565b94506131e9886101208901613146565b93506131f9886101a08901613135565b92506101e08701356001600160401b0381111561321557600080fd5b61322189828a01613157565b979a9699509497509295939492505050565b60006020828403121561324557600080fd5b81356001600160a01b038116811461307257600080fd5b60008060008060008060008060006101c08a8c03121561327b57600080fd5b6132848a61309d565b985061329260208b0161309d565b97506132a060408b0161309d565b96506132ae60608b0161309d565b955060808a0135945060a08a013593506132cb8b60c08c01613135565b92506132db8b6101008c01613146565b91506132eb8b6101808c01613135565b90509295985092959850929598565b60006020828403121561330c57600080fd5b5035919050565b634e487b7160e01b600052604160045260246000fd5b600082601f83011261333a57600080fd5b81356001600160401b038082111561335457613354613313565b604051601f8301601f19908116603f0116810190828211818310171561337c5761337c613313565b8160405283815286602085880101111561339557600080fd5b836020870160208301376000602085830101528094505050505092915050565b6000602082840312156133c757600080fd5b81356001600160401b038111156133dd57600080fd5b612e8e84828501613329565b60008060008060008086880361012081121561340457600080fd5b60a081121561341257600080fd5b5086955060a0870135945060c08701356001600160401b038082111561343757600080fd5b6134438a838b01613329565b955060e089013591508082111561345957600080fd5b6134658a838b01613329565b945061010089013591508082111561347c57600080fd5b5061322189828a01613157565b6000806000806000806000806000806000806102008d8f0312156134ac57600080fd5b6134b58d61309d565b9b506134c360208e0161309d565b9a506134d160408e0161309d565b995060608d0135985060808d0135975060a08d0135965060c08d013595506134fc8e60e08f01613135565b945061350c8e6101208f01613146565b935061351c8e6101a08f01613135565b92506001600160401b036101e08e0135111561353757600080fd5b6135488e6101e08f01358f01613157565b81935080925050509295989b509295989b509295989b565b600181811c9082168061357457607f821691505b60208210810361359457634e487b7160e01b600052602260045260246000fd5b50919050565b60609a909a1b6bffffffffffffffffffffffff19168a5260148a0198909852603489019690965260c094851b6001600160c01b031990811660548a015293851b8416605c89015291841b83166064880152606c870152608c86015260ac8501929092529190911b1660cc82015260d40190565b634e487b7160e01b600052601160045260246000fd5b6001600160401b038181168382160190808211156136435761364361360d565b5092915050565b6001600160401b038281168282160390808211156136435761364361360d565b600060e0828403121561367c57600080fd5b60405160e081018181106001600160401b038211171561369e5761369e613313565b6040526136aa8361309d565b81526136b86020840161309d565b60208201526136c96040840161309d565b6040820152606083013560608201526080830135608082015260a083013560a082015260c083013560c08201528091505092915050565b60006001600160401b0380831681810361371c5761371c61360d565b6001019392505050565b60006020828403121561373857600080fd5b5051919050565b634e487b7160e01b600052601260045260246000fd5b6000826137645761376461373f565b500490565b601f821115612d4c57600081815260208120601f850160051c810160208610156137905750805b601f850160051c820191505b818110156137af5782815560010161379c565b505050505050565b81516001600160401b038111156137d0576137d0613313565b6137e4816137de8454613560565b84613769565b602080601f83116001811461381957600084156138015750858301515b600019600386901b1c1916600185901b1785556137af565b600085815260208120601f198616915b8281101561384857888601518255948401946001909101908401613829565b50858210156138665787850151600019600388901b60f8161c191681555b5050505050600190811b01905550565b60006001600160401b03808716835280861660208401525060606040830152826060830152828460808401376000608084840101526080601f19601f850116830101905095945050505050565b600082516138d581846020870161300f565b9190910192915050565b6000826138ee576138ee61373f565b500690565b61012081016040808784378083018660005b600281101561392257838284379183019190830190600101613905565b505050808560c08501375061010082018360005b6001811015613955578151835260209283019290910190600101613936565b50505095945050505050565b60006020828403121561397357600080fd5b8151801515811461307257600080fd5b8082028115828204841417612cf457612cf461360d565b81810381811115612cf457612cf461360d565b80820180821115612cf457612cf461360d565b60006001600160401b03808416806139da576139da61373f565b9216919091049291505056fea2646970667358221220062a4e601a0d0b976735370a7255d0eca5d0a7d0108a13dc3cf63cd02f2b4f5d64736f6c63430008110033",
  "linkReferences": {},
  "deployedLinkReferences": {}
}