{
  "_format": "hh-sol-artifact-1",
  "contractName": "PolygonZkEVM",
  "sourceName": "contracts/PolygonZkEVM.sol",
  "abi": [
    {
      "inputs": [
        {
          "internalType": "contract IPolygonZkEVMGlobalExitRoot",
          "name": "_globalExitRootManager",
          "type": "address"
        },
        {
          "internalType": "contract IERC20Upgradeable",
          "name": "_matic",
          "type": "address"
        },
        {
          "internalType": "contract IVerifierRollup",
          "name": "_rollupVerifier",
          "type": "address"
        },
        {
          "internalType": "contract IPolygonZkEVMBridge",
          "name": "_bridgeAddress",
          "type": "address"
        },
        {
          "internalType": "contract IHotShot",
          "name": "_hotshotAddress",
          "type": "address"
        },
        {
          "internalType": "uint64",
          "name": "_chainID",
          "type": "uint64"
        },
        {
          "internalType": "uint64",
          "name": "_forkID",
          "type": "uint64"
        }
      ],
      "stateMutability": "nonpayable",
      "type": "constructor"
    },
    {
      "inputs": [],
      "name": "BatchAlreadyVerified",
      "type": "error"
    },
    {
      "inputs": [],
      "name": "BatchNotSequencedOrNotSequenceEnd",
      "type": "error"
    },
    {
      "inputs": [],
      "name": "ExceedMaxVerifyBatches",
      "type": "error"
    },
    {
      "inputs": [],
      "name": "FinalNumBatchBelowLastVerifiedBatch",
      "type": "error"
    },
    {
      "inputs": [],
      "name": "FinalNumBatchDoesNotMatchPendingState",
      "type": "error"
    },
    {
      "inputs": [],
      "name": "FinalPendingStateNumInvalid",
      "type": "error"
    },
    {
      "inputs": [],
      "name": "ForceBatchTimeoutNotExpired",
      "type": "error"
    },
    {
      "inputs": [],
      "name": "ForceBatchesOverflow",
      "type": "error"
    },
    {
      "inputs": [],
      "name": "ForcedDataDoesNotMatch",
      "type": "error"
    },
    {
      "inputs": [],
      "name": "GlobalExitRootNotExist",
      "type": "error"
    },
    {
      "inputs": [],
      "name": "HaltTimeoutNotExpired",
      "type": "error"
    },
    {
      "inputs": [],
      "name": "InitNumBatchAboveLastVerifiedBatch",
      "type": "error"
    },
    {
      "inputs": [],
      "name": "InitNumBatchDoesNotMatchPendingState",
      "type": "error"
    },
    {
      "inputs": [],
      "name": "InvalidProof",
      "type": "error"
    },
    {
      "inputs": [],
      "name": "InvalidRangeBatchTimeTarget",
      "type": "error"
    },
    {
      "inputs": [],
      "name": "InvalidRangeMultiplierBatchFee",
      "type": "error"
    },
    {
      "inputs": [],
      "name": "NewAccInputHashDoesNotExist",
      "type": "error"
    },
    {
      "inputs": [],
      "name": "NewPendingStateTimeoutMustBeLower",
      "type": "error"
    },
    {
      "inputs": [],
      "name": "NewTrustedAggregatorTimeoutMustBeLower",
      "type": "error"
    },
    {
      "inputs": [],
      "name": "NotEnoughMaticAmount",
      "type": "error"
    },
    {
      "inputs": [],
      "name": "OldAccInputHashDoesNotExist",
      "type": "error"
    },
    {
      "inputs": [],
      "name": "OldStateRootDoesNotExist",
      "type": "error"
    },
    {
      "inputs": [],
      "name": "OnlyAdmin",
      "type": "error"
    },
    {
      "inputs": [],
      "name": "OnlyEmergencyState",
      "type": "error"
    },
    {
      "inputs": [],
      "name": "OnlyNotEmergencyState",
      "type": "error"
    },
    {
      "inputs": [],
      "name": "OnlyPendingAdmin",
      "type": "error"
    },
    {
      "inputs": [],
      "name": "OnlyTrustedAggregator",
      "type": "error"
    },
    {
      "inputs": [],
      "name": "OnlyTrustedSequencer",
      "type": "error"
    },
    {
      "inputs": [],
      "name": "PendingStateDoesNotExist",
      "type": "error"
    },
    {
      "inputs": [],
      "name": "PendingStateInvalid",
      "type": "error"
    },
    {
      "inputs": [],
      "name": "PendingStateNotConsolidable",
      "type": "error"
    },
    {
      "inputs": [],
      "name": "PendingStateTimeoutExceedHaltAggregationTimeout",
      "type": "error"
    },
    {
      "inputs": [],
      "name": "SequenceZeroBatches",
      "type": "error"
    },
    {
      "inputs": [],
      "name": "SequencedTimestampBelowForcedTimestamp",
      "type": "error"
    },
    {
      "inputs": [],
      "name": "SequencedTimestampInvalid",
      "type": "error"
    },
    {
      "inputs": [],
      "name": "StoredRootMustBeDifferentThanNewRoot",
      "type": "error"
    },
    {
      "inputs": [],
      "name": "TransactionsLengthAboveMax",
      "type": "error"
    },
    {
      "inputs": [],
      "name": "TrustedAggregatorTimeoutExceedHaltAggregationTimeout",
      "type": "error"
    },
    {
      "inputs": [],
      "name": "TrustedAggregatorTimeoutNotExpired",
      "type": "error"
    },
    {
      "anonymous": false,
      "inputs": [
        {
          "indexed": false,
          "internalType": "address",
          "name": "newAdmin",
          "type": "address"
        }
      ],
      "name": "AcceptAdminRole",
      "type": "event"
    },
    {
      "anonymous": false,
      "inputs": [
        {
          "indexed": true,
          "internalType": "uint64",
          "name": "numBatch",
          "type": "uint64"
        },
        {
          "indexed": false,
          "internalType": "bytes32",
          "name": "stateRoot",
          "type": "bytes32"
        },
        {
          "indexed": true,
          "internalType": "uint64",
          "name": "pendingStateNum",
          "type": "uint64"
        }
      ],
      "name": "ConsolidatePendingState",
      "type": "event"
    },
    {
      "anonymous": false,
      "inputs": [],
      "name": "EmergencyStateActivated",
      "type": "event"
    },
    {
      "anonymous": false,
      "inputs": [],
      "name": "EmergencyStateDeactivated",
      "type": "event"
    },
    {
      "anonymous": false,
      "inputs": [
        {
          "indexed": true,
          "internalType": "uint64",
          "name": "forceBatchNum",
          "type": "uint64"
        },
        {
          "indexed": false,
          "internalType": "bytes32",
          "name": "lastGlobalExitRoot",
          "type": "bytes32"
        },
        {
          "indexed": false,
          "internalType": "address",
          "name": "sequencer",
          "type": "address"
        },
        {
          "indexed": false,
          "internalType": "bytes",
          "name": "transactions",
          "type": "bytes"
        }
      ],
      "name": "ForceBatch",
      "type": "event"
    },
    {
      "anonymous": false,
      "inputs": [
        {
          "indexed": false,
          "internalType": "uint8",
          "name": "version",
          "type": "uint8"
        }
      ],
      "name": "Initialized",
      "type": "event"
    },
    {
      "anonymous": false,
      "inputs": [
        {
          "indexed": true,
          "internalType": "uint64",
          "name": "numBatch",
          "type": "uint64"
        },
        {
          "indexed": false,
          "internalType": "bytes32",
          "name": "stateRoot",
          "type": "bytes32"
        },
        {
          "indexed": true,
          "internalType": "address",
          "name": "aggregator",
          "type": "address"
        }
      ],
      "name": "OverridePendingState",
      "type": "event"
    },
    {
      "anonymous": false,
      "inputs": [
        {
          "indexed": true,
          "internalType": "address",
          "name": "previousOwner",
          "type": "address"
        },
        {
          "indexed": true,
          "internalType": "address",
          "name": "newOwner",
          "type": "address"
        }
      ],
      "name": "OwnershipTransferred",
      "type": "event"
    },
    {
      "anonymous": false,
      "inputs": [
        {
          "indexed": false,
          "internalType": "bytes32",
          "name": "storedStateRoot",
          "type": "bytes32"
        },
        {
          "indexed": false,
          "internalType": "bytes32",
          "name": "provedStateRoot",
          "type": "bytes32"
        }
      ],
      "name": "ProveNonDeterministicPendingState",
      "type": "event"
    },
    {
      "anonymous": false,
      "inputs": [
        {
          "indexed": true,
          "internalType": "uint64",
          "name": "numBatch",
          "type": "uint64"
        }
      ],
      "name": "SequenceBatches",
      "type": "event"
    },
    {
      "anonymous": false,
      "inputs": [
        {
          "indexed": true,
          "internalType": "uint64",
          "name": "numBatch",
          "type": "uint64"
        }
      ],
      "name": "SequenceForceBatches",
      "type": "event"
    },
    {
      "anonymous": false,
      "inputs": [
        {
          "indexed": false,
          "internalType": "uint16",
          "name": "newMultiplierBatchFee",
          "type": "uint16"
        }
      ],
      "name": "SetMultiplierBatchFee",
      "type": "event"
    },
    {
      "anonymous": false,
      "inputs": [
        {
          "indexed": false,
          "internalType": "uint64",
          "name": "newPendingStateTimeout",
          "type": "uint64"
        }
      ],
      "name": "SetPendingStateTimeout",
      "type": "event"
    },
    {
      "anonymous": false,
      "inputs": [
        {
          "indexed": false,
          "internalType": "address",
          "name": "newTrustedAggregator",
          "type": "address"
        }
      ],
      "name": "SetTrustedAggregator",
      "type": "event"
    },
    {
      "anonymous": false,
      "inputs": [
        {
          "indexed": false,
          "internalType": "uint64",
          "name": "newTrustedAggregatorTimeout",
          "type": "uint64"
        }
      ],
      "name": "SetTrustedAggregatorTimeout",
      "type": "event"
    },
    {
      "anonymous": false,
      "inputs": [
        {
          "indexed": false,
          "internalType": "address",
          "name": "newTrustedSequencer",
          "type": "address"
        }
      ],
      "name": "SetTrustedSequencer",
      "type": "event"
    },
    {
      "anonymous": false,
      "inputs": [
        {
          "indexed": false,
          "internalType": "string",
          "name": "newTrustedSequencerURL",
          "type": "string"
        }
      ],
      "name": "SetTrustedSequencerURL",
      "type": "event"
    },
    {
      "anonymous": false,
      "inputs": [
        {
          "indexed": false,
          "internalType": "uint64",
          "name": "newVerifyBatchTimeTarget",
          "type": "uint64"
        }
      ],
      "name": "SetVerifyBatchTimeTarget",
      "type": "event"
    },
    {
      "anonymous": false,
      "inputs": [
        {
          "indexed": false,
          "internalType": "address",
          "name": "newPendingAdmin",
          "type": "address"
        }
      ],
      "name": "TransferAdminRole",
      "type": "event"
    },
    {
      "anonymous": false,
      "inputs": [
        {
          "indexed": false,
          "internalType": "uint64",
          "name": "numBatch",
          "type": "uint64"
        },
        {
          "indexed": false,
          "internalType": "uint64",
          "name": "forkID",
          "type": "uint64"
        },
        {
          "indexed": false,
          "internalType": "string",
          "name": "version",
          "type": "string"
        }
      ],
      "name": "UpdateZkEVMVersion",
      "type": "event"
    },
    {
      "anonymous": false,
      "inputs": [
        {
          "indexed": true,
          "internalType": "uint64",
          "name": "numBatch",
          "type": "uint64"
        },
        {
          "indexed": false,
          "internalType": "bytes32",
          "name": "stateRoot",
          "type": "bytes32"
        },
        {
          "indexed": true,
          "internalType": "address",
          "name": "aggregator",
          "type": "address"
        }
      ],
      "name": "VerifyBatches",
      "type": "event"
    },
    {
      "anonymous": false,
      "inputs": [
        {
          "indexed": true,
          "internalType": "uint64",
          "name": "numBatch",
          "type": "uint64"
        },
        {
          "indexed": false,
          "internalType": "bytes32",
          "name": "stateRoot",
          "type": "bytes32"
        },
        {
          "indexed": true,
          "internalType": "address",
          "name": "aggregator",
          "type": "address"
        }
      ],
      "name": "VerifyBatchesTrustedAggregator",
      "type": "event"
    },
    {
      "inputs": [],
      "name": "acceptAdminRole",
      "outputs": [],
      "stateMutability": "nonpayable",
      "type": "function"
    },
    {
      "inputs": [
        {
          "internalType": "uint64",
          "name": "sequencedBatchNum",
          "type": "uint64"
        }
      ],
      "name": "activateEmergencyState",
      "outputs": [],
      "stateMutability": "nonpayable",
      "type": "function"
    },
    {
      "inputs": [],
      "name": "admin",
      "outputs": [
        {
          "internalType": "address",
          "name": "",
          "type": "address"
        }
      ],
      "stateMutability": "view",
      "type": "function"
    },
    {
      "inputs": [],
      "name": "batchFee",
      "outputs": [
        {
          "internalType": "uint256",
          "name": "",
          "type": "uint256"
        }
      ],
      "stateMutability": "view",
      "type": "function"
    },
    {
      "inputs": [
        {
          "internalType": "uint64",
          "name": "",
          "type": "uint64"
        }
      ],
      "name": "batchNumToStateRoot",
      "outputs": [
        {
          "internalType": "bytes32",
          "name": "",
          "type": "bytes32"
        }
      ],
      "stateMutability": "view",
      "type": "function"
    },
    {
      "inputs": [],
      "name": "bridgeAddress",
      "outputs": [
        {
          "internalType": "contract IPolygonZkEVMBridge",
          "name": "",
          "type": "address"
        }
      ],
      "stateMutability": "view",
      "type": "function"
    },
    {
      "inputs": [],
      "name": "calculateRewardPerBatch",
      "outputs": [
        {
          "internalType": "uint256",
          "name": "",
          "type": "uint256"
        }
      ],
      "stateMutability": "view",
      "type": "function"
    },
    {
      "inputs": [],
      "name": "chainID",
      "outputs": [
        {
          "internalType": "uint64",
          "name": "",
          "type": "uint64"
        }
      ],
      "stateMutability": "view",
      "type": "function"
    },
    {
      "inputs": [
        {
          "internalType": "uint64",
          "name": "pendingStateNum",
          "type": "uint64"
        }
      ],
      "name": "consolidatePendingState",
      "outputs": [],
      "stateMutability": "nonpayable",
      "type": "function"
    },
    {
      "inputs": [],
      "name": "deactivateEmergencyState",
      "outputs": [],
      "stateMutability": "nonpayable",
      "type": "function"
    },
    {
      "inputs": [
        {
          "internalType": "bytes",
          "name": "transactions",
          "type": "bytes"
        },
        {
          "internalType": "uint256",
          "name": "maticAmount",
          "type": "uint256"
        }
      ],
      "name": "forceBatch",
      "outputs": [],
      "stateMutability": "nonpayable",
      "type": "function"
    },
    {
      "inputs": [
        {
          "internalType": "uint64",
          "name": "",
          "type": "uint64"
        }
      ],
      "name": "forcedBatches",
      "outputs": [
        {
          "internalType": "bytes32",
          "name": "",
          "type": "bytes32"
        }
      ],
      "stateMutability": "view",
      "type": "function"
    },
    {
      "inputs": [],
      "name": "forkID",
      "outputs": [
        {
          "internalType": "uint64",
          "name": "",
          "type": "uint64"
        }
      ],
      "stateMutability": "view",
      "type": "function"
    },
    {
      "inputs": [],
      "name": "getCurrentBatchFee",
      "outputs": [
        {
          "internalType": "uint256",
          "name": "",
          "type": "uint256"
        }
      ],
      "stateMutability": "view",
      "type": "function"
    },
    {
      "inputs": [
        {
          "internalType": "uint64",
          "name": "initNumBatch",
          "type": "uint64"
        },
        {
          "internalType": "uint64",
          "name": "finalNewBatch",
          "type": "uint64"
        },
        {
          "internalType": "bytes32",
          "name": "newLocalExitRoot",
          "type": "bytes32"
        },
        {
          "internalType": "bytes32",
          "name": "oldStateRoot",
          "type": "bytes32"
        },
        {
          "internalType": "bytes32",
          "name": "newStateRoot",
          "type": "bytes32"
        }
      ],
      "name": "getInputSnarkBytes",
      "outputs": [
        {
          "internalType": "bytes",
          "name": "",
          "type": "bytes"
        }
      ],
      "stateMutability": "view",
      "type": "function"
    },
    {
      "inputs": [],
      "name": "getLastVerifiedBatch",
      "outputs": [
        {
          "internalType": "uint64",
          "name": "",
          "type": "uint64"
        }
      ],
      "stateMutability": "view",
      "type": "function"
    },
    {
      "inputs": [],
      "name": "globalExitRootManager",
      "outputs": [
        {
          "internalType": "contract IPolygonZkEVMGlobalExitRoot",
          "name": "",
          "type": "address"
        }
      ],
      "stateMutability": "view",
      "type": "function"
    },
    {
      "inputs": [],
      "name": "hotShot",
      "outputs": [
        {
          "internalType": "contract IHotShot",
          "name": "",
          "type": "address"
        }
      ],
      "stateMutability": "view",
      "type": "function"
    },
    {
      "inputs": [
        {
          "components": [
            {
              "internalType": "address",
              "name": "admin",
              "type": "address"
            },
            {
              "internalType": "address",
              "name": "trustedSequencer",
              "type": "address"
            },
            {
              "internalType": "uint64",
              "name": "pendingStateTimeout",
              "type": "uint64"
            },
            {
              "internalType": "address",
              "name": "trustedAggregator",
              "type": "address"
            },
            {
              "internalType": "uint64",
              "name": "trustedAggregatorTimeout",
              "type": "uint64"
            }
          ],
          "internalType": "struct PolygonZkEVM.InitializePackedParameters",
          "name": "initializePackedParameters",
          "type": "tuple"
        },
        {
          "internalType": "bytes32",
          "name": "genesisRoot",
          "type": "bytes32"
        },
        {
          "internalType": "string",
          "name": "_trustedSequencerURL",
          "type": "string"
        },
        {
          "internalType": "string",
          "name": "_networkName",
          "type": "string"
        },
        {
          "internalType": "string",
          "name": "_version",
          "type": "string"
        }
      ],
      "name": "initialize",
      "outputs": [],
      "stateMutability": "nonpayable",
      "type": "function"
    },
    {
      "inputs": [],
      "name": "isEmergencyState",
      "outputs": [
        {
          "internalType": "bool",
          "name": "",
          "type": "bool"
        }
      ],
      "stateMutability": "view",
      "type": "function"
    },
    {
      "inputs": [
        {
          "internalType": "uint64",
          "name": "pendingStateNum",
          "type": "uint64"
        }
      ],
      "name": "isPendingStateConsolidable",
      "outputs": [
        {
          "internalType": "bool",
          "name": "",
          "type": "bool"
        }
      ],
      "stateMutability": "view",
      "type": "function"
    },
    {
      "inputs": [],
      "name": "lastBatchSequenced",
      "outputs": [
        {
          "internalType": "uint64",
          "name": "",
          "type": "uint64"
        }
      ],
      "stateMutability": "view",
      "type": "function"
    },
    {
      "inputs": [],
      "name": "lastForceBatch",
      "outputs": [
        {
          "internalType": "uint64",
          "name": "",
          "type": "uint64"
        }
      ],
      "stateMutability": "view",
      "type": "function"
    },
    {
      "inputs": [],
      "name": "lastForceBatchSequenced",
      "outputs": [
        {
          "internalType": "uint64",
          "name": "",
          "type": "uint64"
        }
      ],
      "stateMutability": "view",
      "type": "function"
    },
    {
      "inputs": [],
      "name": "lastPendingState",
      "outputs": [
        {
          "internalType": "uint64",
          "name": "",
          "type": "uint64"
        }
      ],
      "stateMutability": "view",
      "type": "function"
    },
    {
      "inputs": [],
      "name": "lastPendingStateConsolidated",
      "outputs": [
        {
          "internalType": "uint64",
          "name": "",
          "type": "uint64"
        }
      ],
      "stateMutability": "view",
      "type": "function"
    },
    {
      "inputs": [],
      "name": "lastTimestamp",
      "outputs": [
        {
          "internalType": "uint64",
          "name": "",
          "type": "uint64"
        }
      ],
      "stateMutability": "view",
      "type": "function"
    },
    {
      "inputs": [],
      "name": "lastVerifiedBatch",
      "outputs": [
        {
          "internalType": "uint64",
          "name": "",
          "type": "uint64"
        }
      ],
      "stateMutability": "view",
      "type": "function"
    },
    {
      "inputs": [],
      "name": "matic",
      "outputs": [
        {
          "internalType": "contract IERC20Upgradeable",
          "name": "",
          "type": "address"
        }
      ],
      "stateMutability": "view",
      "type": "function"
    },
    {
      "inputs": [],
      "name": "multiplierBatchFee",
      "outputs": [
        {
          "internalType": "uint16",
          "name": "",
          "type": "uint16"
        }
      ],
      "stateMutability": "view",
      "type": "function"
    },
    {
      "inputs": [],
      "name": "networkName",
      "outputs": [
        {
          "internalType": "string",
          "name": "",
          "type": "string"
        }
      ],
      "stateMutability": "view",
      "type": "function"
    },
    {
      "inputs": [
        {
          "internalType": "uint64",
          "name": "initPendingStateNum",
          "type": "uint64"
        },
        {
          "internalType": "uint64",
          "name": "finalPendingStateNum",
          "type": "uint64"
        },
        {
          "internalType": "uint64",
          "name": "initNumBatch",
          "type": "uint64"
        },
        {
          "internalType": "uint64",
          "name": "finalNewBatch",
          "type": "uint64"
        },
        {
          "internalType": "bytes32",
          "name": "newLocalExitRoot",
          "type": "bytes32"
        },
        {
          "internalType": "bytes32",
          "name": "newStateRoot",
          "type": "bytes32"
        },
        {
          "internalType": "uint256[2]",
          "name": "proofA",
          "type": "uint256[2]"
        },
        {
          "internalType": "uint256[2][2]",
          "name": "proofB",
          "type": "uint256[2][2]"
        },
        {
          "internalType": "uint256[2]",
          "name": "proofC",
          "type": "uint256[2]"
        }
      ],
      "name": "overridePendingState",
      "outputs": [],
      "stateMutability": "nonpayable",
      "type": "function"
    },
    {
      "inputs": [],
      "name": "owner",
      "outputs": [
        {
          "internalType": "address",
          "name": "",
          "type": "address"
        }
      ],
      "stateMutability": "view",
      "type": "function"
    },
    {
      "inputs": [],
      "name": "pendingAdmin",
      "outputs": [
        {
          "internalType": "address",
          "name": "",
          "type": "address"
        }
      ],
      "stateMutability": "view",
      "type": "function"
    },
    {
      "inputs": [],
      "name": "pendingStateTimeout",
      "outputs": [
        {
          "internalType": "uint64",
          "name": "",
          "type": "uint64"
        }
      ],
      "stateMutability": "view",
      "type": "function"
    },
    {
      "inputs": [
        {
          "internalType": "uint256",
          "name": "",
          "type": "uint256"
        }
      ],
      "name": "pendingStateTransitions",
      "outputs": [
        {
          "internalType": "uint64",
          "name": "timestamp",
          "type": "uint64"
        },
        {
          "internalType": "uint64",
          "name": "lastVerifiedBatch",
          "type": "uint64"
        },
        {
          "internalType": "bytes32",
          "name": "exitRoot",
          "type": "bytes32"
        },
        {
          "internalType": "bytes32",
          "name": "stateRoot",
          "type": "bytes32"
        }
      ],
      "stateMutability": "view",
      "type": "function"
    },
    {
      "inputs": [
        {
          "internalType": "uint64",
          "name": "initPendingStateNum",
          "type": "uint64"
        },
        {
          "internalType": "uint64",
          "name": "finalPendingStateNum",
          "type": "uint64"
        },
        {
          "internalType": "uint64",
          "name": "initNumBatch",
          "type": "uint64"
        },
        {
          "internalType": "uint64",
          "name": "finalNewBatch",
          "type": "uint64"
        },
        {
          "internalType": "bytes32",
          "name": "newLocalExitRoot",
          "type": "bytes32"
        },
        {
          "internalType": "bytes32",
          "name": "newStateRoot",
          "type": "bytes32"
        },
        {
          "internalType": "uint256[2]",
          "name": "proofA",
          "type": "uint256[2]"
        },
        {
          "internalType": "uint256[2][2]",
          "name": "proofB",
          "type": "uint256[2][2]"
        },
        {
          "internalType": "uint256[2]",
          "name": "proofC",
          "type": "uint256[2]"
        }
      ],
      "name": "proveNonDeterministicPendingState",
      "outputs": [],
      "stateMutability": "nonpayable",
      "type": "function"
    },
    {
      "inputs": [],
      "name": "renounceOwnership",
      "outputs": [],
      "stateMutability": "nonpayable",
      "type": "function"
    },
    {
      "inputs": [],
      "name": "rollupVerifier",
      "outputs": [
        {
          "internalType": "contract IVerifierRollup",
          "name": "",
          "type": "address"
        }
      ],
      "stateMutability": "view",
      "type": "function"
    },
    {
      "inputs": [
        {
          "components": [
            {
              "internalType": "bytes",
              "name": "transactions",
              "type": "bytes"
            },
            {
              "internalType": "bytes32",
              "name": "globalExitRoot",
              "type": "bytes32"
            },
            {
              "internalType": "uint64",
              "name": "timestamp",
              "type": "uint64"
            },
            {
              "internalType": "uint64",
              "name": "minForcedTimestamp",
              "type": "uint64"
            }
          ],
          "internalType": "struct PolygonZkEVM.BatchData[]",
          "name": "batches",
          "type": "tuple[]"
        },
        {
          "internalType": "address",
          "name": "feeRecipient",
          "type": "address"
        }
      ],
      "name": "sequenceBatches",
      "outputs": [],
      "stateMutability": "nonpayable",
      "type": "function"
    },
    {
      "inputs": [
        {
          "components": [
            {
              "internalType": "bytes",
              "name": "transactions",
              "type": "bytes"
            },
            {
              "internalType": "bytes32",
              "name": "globalExitRoot",
              "type": "bytes32"
            },
            {
              "internalType": "uint64",
              "name": "minForcedTimestamp",
              "type": "uint64"
            }
          ],
          "internalType": "struct PolygonZkEVM.ForcedBatchData[]",
          "name": "batches",
          "type": "tuple[]"
        }
      ],
      "name": "sequenceForceBatches",
      "outputs": [],
      "stateMutability": "nonpayable",
      "type": "function"
    },
    {
      "inputs": [
        {
          "internalType": "uint64",
          "name": "",
          "type": "uint64"
        }
      ],
      "name": "sequencedBatches",
      "outputs": [
        {
          "internalType": "bytes32",
          "name": "accInputHash",
          "type": "bytes32"
        },
        {
          "internalType": "uint64",
          "name": "sequencedTimestamp",
          "type": "uint64"
        },
        {
          "internalType": "uint64",
          "name": "previousLastBatchSequenced",
          "type": "uint64"
        }
      ],
      "stateMutability": "view",
      "type": "function"
    },
    {
      "inputs": [
        {
          "internalType": "uint16",
          "name": "newMultiplierBatchFee",
          "type": "uint16"
        }
      ],
      "name": "setMultiplierBatchFee",
      "outputs": [],
      "stateMutability": "nonpayable",
      "type": "function"
    },
    {
      "inputs": [
        {
          "internalType": "uint64",
          "name": "newPendingStateTimeout",
          "type": "uint64"
        }
      ],
      "name": "setPendingStateTimeout",
      "outputs": [],
      "stateMutability": "nonpayable",
      "type": "function"
    },
    {
      "inputs": [
        {
          "internalType": "address",
          "name": "newTrustedAggregator",
          "type": "address"
        }
      ],
      "name": "setTrustedAggregator",
      "outputs": [],
      "stateMutability": "nonpayable",
      "type": "function"
    },
    {
      "inputs": [
        {
          "internalType": "uint64",
          "name": "newTrustedAggregatorTimeout",
          "type": "uint64"
        }
      ],
      "name": "setTrustedAggregatorTimeout",
      "outputs": [],
      "stateMutability": "nonpayable",
      "type": "function"
    },
    {
      "inputs": [
        {
          "internalType": "address",
          "name": "newTrustedSequencer",
          "type": "address"
        }
      ],
      "name": "setTrustedSequencer",
      "outputs": [],
      "stateMutability": "nonpayable",
      "type": "function"
    },
    {
      "inputs": [
        {
          "internalType": "string",
          "name": "newTrustedSequencerURL",
          "type": "string"
        }
      ],
      "name": "setTrustedSequencerURL",
      "outputs": [],
      "stateMutability": "nonpayable",
      "type": "function"
    },
    {
      "inputs": [
        {
          "internalType": "uint64",
          "name": "newVerifyBatchTimeTarget",
          "type": "uint64"
        }
      ],
      "name": "setVerifyBatchTimeTarget",
      "outputs": [],
      "stateMutability": "nonpayable",
      "type": "function"
    },
    {
      "inputs": [
        {
          "internalType": "address",
          "name": "newPendingAdmin",
          "type": "address"
        }
      ],
      "name": "transferAdminRole",
      "outputs": [],
      "stateMutability": "nonpayable",
      "type": "function"
    },
    {
      "inputs": [
        {
          "internalType": "address",
          "name": "newOwner",
          "type": "address"
        }
      ],
      "name": "transferOwnership",
      "outputs": [],
      "stateMutability": "nonpayable",
      "type": "function"
    },
    {
      "inputs": [],
      "name": "trustedAggregator",
      "outputs": [
        {
          "internalType": "address",
          "name": "",
          "type": "address"
        }
      ],
      "stateMutability": "view",
      "type": "function"
    },
    {
      "inputs": [],
      "name": "trustedAggregatorTimeout",
      "outputs": [
        {
          "internalType": "uint64",
          "name": "",
          "type": "uint64"
        }
      ],
      "stateMutability": "view",
      "type": "function"
    },
    {
      "inputs": [],
      "name": "trustedSequencer",
      "outputs": [
        {
          "internalType": "address",
          "name": "",
          "type": "address"
        }
      ],
      "stateMutability": "view",
      "type": "function"
    },
    {
      "inputs": [],
      "name": "trustedSequencerURL",
      "outputs": [
        {
          "internalType": "string",
          "name": "",
          "type": "string"
        }
      ],
      "stateMutability": "view",
      "type": "function"
    },
    {
      "inputs": [],
      "name": "verifyBatchTimeTarget",
      "outputs": [
        {
          "internalType": "uint64",
          "name": "",
          "type": "uint64"
        }
      ],
      "stateMutability": "view",
      "type": "function"
    },
    {
      "inputs": [
        {
          "internalType": "uint64",
          "name": "pendingStateNum",
          "type": "uint64"
        },
        {
          "internalType": "uint64",
          "name": "initNumBatch",
          "type": "uint64"
        },
        {
          "internalType": "uint64",
          "name": "finalNewBatch",
          "type": "uint64"
        },
        {
          "internalType": "bytes32",
          "name": "newLocalExitRoot",
          "type": "bytes32"
        },
        {
          "internalType": "bytes32",
          "name": "newStateRoot",
          "type": "bytes32"
        },
        {
          "internalType": "uint256[2]",
          "name": "proofA",
          "type": "uint256[2]"
        },
        {
          "internalType": "uint256[2][2]",
          "name": "proofB",
          "type": "uint256[2][2]"
        },
        {
          "internalType": "uint256[2]",
          "name": "proofC",
          "type": "uint256[2]"
        },
        {
          "components": [
            {
              "internalType": "bytes32",
              "name": "oldAccInputHash",
              "type": "bytes32"
            },
            {
              "internalType": "bytes32",
              "name": "newAccInputHash",
              "type": "bytes32"
            },
            {
              "internalType": "bytes",
              "name": "commProof",
              "type": "bytes"
            }
          ],
          "internalType": "struct PolygonZkEVM.PackedHotShotParams",
          "name": "packedHotShotParams",
          "type": "tuple"
        }
      ],
      "name": "verifyBatches",
      "outputs": [],
      "stateMutability": "nonpayable",
      "type": "function"
    },
    {
      "inputs": [
        {
          "internalType": "uint64",
          "name": "pendingStateNum",
          "type": "uint64"
        },
        {
          "internalType": "uint64",
          "name": "initNumBatch",
          "type": "uint64"
        },
        {
          "internalType": "uint64",
          "name": "finalNewBatch",
          "type": "uint64"
        },
        {
          "internalType": "bytes32",
          "name": "newLocalExitRoot",
          "type": "bytes32"
        },
        {
          "internalType": "bytes32",
          "name": "newStateRoot",
          "type": "bytes32"
        },
        {
          "internalType": "bytes32",
          "name": "oldAccInputHash",
          "type": "bytes32"
        },
        {
          "internalType": "bytes32",
          "name": "newAccInputHash",
          "type": "bytes32"
        },
        {
          "internalType": "uint256[2]",
          "name": "proofA",
          "type": "uint256[2]"
        },
        {
          "internalType": "uint256[2][2]",
          "name": "proofB",
          "type": "uint256[2][2]"
        },
        {
          "internalType": "uint256[2]",
          "name": "proofC",
          "type": "uint256[2]"
        },
        {
          "internalType": "bytes",
          "name": "commProof",
          "type": "bytes"
        }
      ],
      "name": "verifyBatchesTrustedAggregator",
      "outputs": [],
      "stateMutability": "nonpayable",
      "type": "function"
    }
  ],
  "bytecode": "0x6101606040523480156200001257600080fd5b5060405162004a7738038062004a778339810160408190526200003591620000ac565b6001600160a01b0396871660c05294861660805292851660a05290841660e052909216610100526001600160401b039182166101205216610140526200014f565b6001600160a01b03811681146200008c57600080fd5b50565b80516001600160401b0381168114620000a757600080fd5b919050565b600080600080600080600060e0888a031215620000c857600080fd5b8751620000d58162000076565b6020890151909750620000e88162000076565b6040890151909650620000fb8162000076565b60608901519095506200010e8162000076565b6080890151909450620001218162000076565b92506200013160a089016200008f565b91506200014160c089016200008f565b905092959891949750929550565b60805160a05160c05160e05161010051610120516101405161483a6200023d6000396000818161057201528181610acb01528181611e4c01526138c60152600081816106bd01528181610aaa01526138a50152600081816104d7015281816131e0015261327f015260008181610670015281816123f40152612cc30152600081816107c801528181610ef9015281816118c70152818161231401528181612511015281816126770152612a4601526000818161087701528181612f9e01526133a101526000818161076c01528181611194015281816114c80152818161264b015261346e015261483a6000f3fe608060405234801561001057600080fd5b506004361061030e5760003560e01c80638da5cb5b1161019e578063cfa8ed47116100ef578063e11f3f181161009d578063e11f3f1814610845578063e7a7ed0214610858578063e8bf92ed14610872578063eaeb077b14610899578063f14916d6146108ac578063f2fde38b146108bf578063f851a440146108d2578063f8b823e4146108e557600080fd5b8063cfa8ed47146107a9578063d02103ca146107c3578063d2e129f9146107ea578063d8d1091b146107fd578063d939b31514610810578063d97941361461082a578063dbc169761461083d57600080fd5b8063ada8f9191161014c578063ada8f919146106a5578063adc879e9146106b8578063afd23cbe146106df578063b4d63f5814610707578063b6b0b09714610767578063c0ed84e01461078e578063c89e42df1461079657600080fd5b80638da5cb5b1461062457806399f5634e146106355780639c9f3dfe1461063d5780639f0d039d14610650578063a066215c14610658578063a3c573eb1461066b578063aba576f11461069257600080fd5b80634a910e6a11610263578063715018a611610211578063715018a61461052c5780637215541a1461053457806375c508b3146105475780637fcb36531461055a578063831c7ead1461056d578063837a473814610594578063841b24d7146106025780638c3d73011461061c57600080fd5b80634a910e6a146104765780635392c5e014610489578063542028d5146104b75780635e9145c9146104bf5780636375e13c146104d25780636b8616ce146104f95780636ff512cc1461051957600080fd5b806329878983116102c057806329878983146103d5578063383b3be8146103ef578063394218e914610402578063423fa85614610415578063456052671461042f578063458c0477146104495780634a1a89a71461045c57600080fd5b80630a0d9fbe14610313578063107bf28c1461034857806315064c961461035d5780631816b7e51461037a57806319d8ac611461038f578063220d7899146103a257806326782247146103b5575b600080fd5b606f5461032b9061010090046001600160401b031681565b6040516001600160401b0390911681526020015b60405180910390f35b6103506108ee565b60405161033f9190613b31565b606f5461036a9060ff1681565b604051901515815260200161033f565b61038d610388366004613b4b565b61097c565b005b60735461032b906001600160401b031681565b6103506103b0366004613b8b565b610a35565b607b546103c8906001600160a01b031681565b60405161033f9190613bd8565b6074546103c890600160401b90046001600160a01b031681565b61036a6103fd366004613bec565b610b23565b61038d610410366004613bec565b610b6a565b60735461032b90600160401b90046001600160401b031681565b60735461032b90600160801b90046001600160401b031681565b60795461032b906001600160401b031681565b60795461032b90600160401b90046001600160401b031681565b61038d610484366004613bec565b610c58565b6104a9610497366004613bec565b60756020526000908152604090205481565b60405190815260200161033f565b610350610cc7565b61038d6104cd366004613c69565b610cd4565b6103c87f000000000000000000000000000000000000000000000000000000000000000081565b6104a9610507366004613bec565b60716020526000908152604090205481565b61038d610527366004613cbc565b611204565b61038d611283565b61038d610542366004613bec565b611297565b61038d610555366004613cff565b6113a4565b60745461032b906001600160401b031681565b61032b7f000000000000000000000000000000000000000000000000000000000000000081565b6105d76105a2366004613d9d565b6078602052600090815260409020805460018201546002909201546001600160401b0380831693600160401b90930416919084565b604080516001600160401b03958616815294909316602085015291830152606082015260800161033f565b60795461032b90600160c01b90046001600160401b031681565b61038d61143f565b6033546001600160a01b03166103c8565b6104a96114c3565b61038d61064b366004613bec565b6115d0565b6070546104a9565b61038d610666366004613bec565b6116c3565b6103c87f000000000000000000000000000000000000000000000000000000000000000081565b61038d6106a0366004613db6565b611772565b61038d6106b3366004613cbc565b611a2d565b61032b7f000000000000000000000000000000000000000000000000000000000000000081565b606f546106f490600160481b900461ffff1681565b60405161ffff909116815260200161033f565b610742610715366004613bec565b607260205260009081526040902080546001909101546001600160401b0380821691600160401b90041683565b604080519384526001600160401b03928316602085015291169082015260600161033f565b6103c87f000000000000000000000000000000000000000000000000000000000000000081565b61032b611aa3565b61038d6107a4366004613f3f565b611af0565b606f546103c890600160581b90046001600160a01b031681565b6103c87f000000000000000000000000000000000000000000000000000000000000000081565b61038d6107f8366004613fb4565b611b57565b61038d61080b366004614066565b611ed4565b60795461032b90600160801b90046001600160401b031681565b61038d6108383660046140a7565b61221d565b61038d6123c7565b61038d610853366004613cff565b61246d565b60735461032b90600160c01b90046001600160401b031681565b6103c87f000000000000000000000000000000000000000000000000000000000000000081565b61038d6108a736600461417e565b6125c8565b61038d6108ba366004613cbc565b612871565b61038d6108cd366004613cbc565b6128f0565b607a546103c8906001600160a01b031681565b6104a960705481565b607780546108fb906141c9565b80601f0160208091040260200160405190810160405280929190818152602001828054610927906141c9565b80156109745780601f1061094957610100808354040283529160200191610974565b820191906000526020600020905b81548152906001019060200180831161095757829003601f168201915b505050505081565b607a546001600160a01b031633146109a757604051634755657960e01b815260040160405180910390fd5b6103e88161ffff1610806109c057506103ff8161ffff16115b156109de57604051630984a67960e31b815260040160405180910390fd5b606f805461ffff60481b1916600160481b61ffff8416908102919091179091556040519081527f7019933d795eba185c180209e8ae8bffbaa25bcef293364687702c31f4d302c5906020015b60405180910390a150565b6001600160401b038086166000818152607260205260408082205493881682529020546060929115801590610a68575081155b15610a865760405163340c614f60e11b815260040160405180910390fd5b80610aa4576040516366385b5160e01b815260040160405180910390fd5b3385838a7f00000000000000000000000000000000000000000000000000000000000000007f000000000000000000000000000000000000000000000000000000000000000089878d8f604051602001610b079a99989796959493929190614203565b6040516020818303038152906040529250505095945050505050565b6079546001600160401b0382811660009081526078602052604081205490924292610b5992600160801b90920481169116614287565b6001600160401b0316111592915050565b607a546001600160a01b03163314610b9557604051634755657960e01b815260040160405180910390fd5b62093a806001600160401b0382161115610bc257604051631d06e87960e01b815260040160405180910390fd5b606f5460ff16610c02576079546001600160401b03600160c01b909104811690821610610c025760405163401636df60e01b815260040160405180910390fd5b607980546001600160c01b0316600160c01b6001600160401b038416908102919091179091556040519081527f1f4fa24c2e4bad19a7f3ec5c5485f70d46c798461c2e684f55bbd0fc661373a190602001610a2a565b607454600160401b90046001600160a01b03163314610cbb57606f5460ff1615610c9557604051630bc011ff60e21b815260040160405180910390fd5b610c9e81610b23565b610cbb57604051630674f25160e11b815260040160405180910390fd5b610cc481612966565b50565b607680546108fb906141c9565b606f5460ff1615610cf857604051630bc011ff60e21b815260040160405180910390fd5b606f54600160581b90046001600160a01b03163314610d2a576040516311e7be1560e01b815260040160405180910390fd5b816000819003610d4d5760405163cb591a5f60e01b815260040160405180910390fd5b6103e8811115610d7057604051635acfba9d60e11b815260040160405180910390fd5b6073546001600160401b03600160401b82048116600081815260726020526040812054838516949293600160801b909304909216919082905b868110156110575760008a8a83818110610dc557610dc56142ae565b9050602002810190610dd791906142c4565b610de0906142e4565b805180516020909101206060820151919250906001600160401b031615610ecf5785610e0b81614370565b96505060008183602001518460600151604051602001610e2d93929190614396565b60408051601f1981840301815291815281516020928301206001600160401b038a16600090815260719093529120549091508114610e7e5760405163671ebaaf60e11b815260040160405180910390fd5b6001600160401b038088166000908152607160205260408082209190915560608501519085015190821691161015610ec957604051633fbd5c3960e11b815260040160405180910390fd5b50610fb4565b602082015115801590610f70575060208201516040516312bd9b1960e11b815260048101919091527f00000000000000000000000000000000000000000000000000000000000000006001600160a01b03169063257b3632906024016020604051808303816000875af1158015610f4a573d6000803e3d6000fd5b505050506040513d601f19601f82011682018060405250810190610f6e91906143b9565b155b15610f8e576040516373bd668d60e01b815260040160405180910390fd5b815151620493e01015610fb4576040516328a69b1f60e21b815260040160405180910390fd5b876001600160401b031682604001516001600160401b03161080610fe457504282604001516001600160401b0316115b15611002576040516375413c8b60e11b815260040160405180910390fd5b8481836020015184604001518d6040516020016110239594939291906143d2565b604051602081830303815290604052805190602001209450816040015197505050808061104f90614411565b915050610da9565b506110628685614287565b6073549094506001600160401b03600160c01b9091048116908416111561109c5760405163c630a00d60e01b815260040160405180910390fd5b60006110a8828561442a565b6110bb906001600160401b03168861444a565b60408051606081018252858152426001600160401b03908116602080840191825260738054600160401b9081900485168688019081528d861660008181526072909552979093209551865592516001909501805492519585166001600160801b03199384161795851684029590951790945583548c8416911617930292909217905590915082811690851614611171576073805467ffffffffffffffff60801b1916600160801b6001600160401b038716021790555b6111bc33308361118060705490565b61118a919061445d565b6001600160a01b037f000000000000000000000000000000000000000000000000000000000000000016929190612b00565b6111c4612b71565b6040516001600160401b038616907f303446e6a8cb73c83dff421c0b1d5e5ce0719dab1bff13660fc254e58cc17fce90600090a250505050505050505050565b607a546001600160a01b0316331461122f57604051634755657960e01b815260040160405180910390fd5b606f8054600160581b600160f81b031916600160581b6001600160a01b038416021790556040517ff54144f9611984021529f814a1cb6a41e22c58351510a0d9f7e822618abb9cc090610a2a908390613bd8565b61128b612c15565b6112956000612c6f565b565b6033546001600160a01b0316331461139c5760006112b3611aa3565b9050806001600160401b0316826001600160401b0316116112e75760405163812a372d60e01b815260040160405180910390fd5b6073546001600160401b03600160401b9091048116908316118061132657506001600160401b0380831660009081526072602052604090206001015416155b1561134457604051632631700560e21b815260040160405180910390fd5b6001600160401b0380831660009081526072602052604090206001015442916113729162093a809116614287565b6001600160401b0316111561139a5760405163692baaad60e11b815260040160405180910390fd5b505b610cc4612cc1565b606f5460ff16156113c857604051630bc011ff60e21b815260040160405180910390fd5b6113d9898989898989898989612d3c565b6001600160401b0386166000908152607560209081526040918290205482519081529081018690527f1f44c21118c4603cfb4e1b621dbcfa2b73efcececee2b99b620b2953d33a7010910160405180910390a1611434612cc1565b505050505050505050565b607b546001600160a01b0316331461146a5760405163d1ec4b2360e01b815260040160405180910390fd5b607b54607a80546001600160a01b0319166001600160a01b0390921691821790556040517f056dc487bbf0795d0bbb1b4f0af523a855503cff740bfb4d5475f7a90c091e8e916114b991613bd8565b60405180910390a1565b6000807f00000000000000000000000000000000000000000000000000000000000000006001600160a01b03166370a08231306040518263ffffffff1660e01b81526004016115129190613bd8565b602060405180830381865afa15801561152f573d6000803e3d6000fd5b505050506040513d601f19601f8201168201806040525081019061155391906143b9565b9050600061155f611aa3565b6073546001600160401b03600160401b820481169161158f91600160801b8204811691600160c01b90041661442a565b6115999190614287565b6115a3919061442a565b6001600160401b03169050806000036115bf5760009250505090565b6115c9818361448a565b9250505090565b607a546001600160a01b031633146115fb57604051634755657960e01b815260040160405180910390fd5b62093a806001600160401b038216111561162857604051630cc9650760e41b815260040160405180910390fd5b606f5460ff16611668576079546001600160401b03600160801b9091048116908216106116685760405163048a05a960e41b815260040160405180910390fd5b6079805467ffffffffffffffff60801b1916600160801b6001600160401b038416908102919091179091556040519081527fc4121f4e22c69632ebb7cf1f462be0511dc034f999b52013eddfb24aab765c7590602001610a2a565b607a546001600160a01b031633146116ee57604051634755657960e01b815260040160405180910390fd5b62015180816001600160401b0316111561171b57604051631c0cfbfd60e31b815260040160405180910390fd5b606f805468ffffffffffffffff0019166101006001600160401b038416908102919091179091556040519081527f1b023231a1ab6b5d93992f168fb44498e1a7e64cef58daff6f1c216de6a68c2890602001610a2a565b606f5460ff161561179657604051630bc011ff60e21b815260040160405180910390fd5b6079546001600160401b0388811660009081526072602052604090206001015442926117cd92600160c01b90910481169116614287565b6001600160401b031611156117f557604051638a0704d360e01b815260040160405180910390fd5b6103e8611802898961442a565b6001600160401b0316111561182a57604051635acfba9d60e11b815260040160405180910390fd5b611843898989898989898961183e8a61449e565b613080565b61184c876134a6565b607954600160801b90046001600160401b0316600003611930576074805467ffffffffffffffff19166001600160401b03898116918217909255600090815260756020526040902086905560795416156118b157607980546001600160801b03191690555b6040516333d6247d60e01b8152600481018790527f00000000000000000000000000000000000000000000000000000000000000006001600160a01b0316906333d6247d90602401600060405180830381600087803b15801561191357600080fd5b505af1158015611927573d6000803e3d6000fd5b505050506119e1565b611938612b71565b607980546001600160401b031690600061195183614370565b82546001600160401b039182166101009390930a9283029282021916919091179091556040805160808101825242831681528a831660208083019182528284018c8152606084018c8152607954871660009081526078909352949091209251835492518616600160401b026001600160801b03199093169516949094171781559151600183015551600290910155505b60405185815233906001600160401b038916907f9c72852172521097ba7e1482e6b44b351323df0155f97f4ea18fcec28e1f5966906020015b60405180910390a3505050505050505050565b607a546001600160a01b03163314611a5857604051634755657960e01b815260040160405180910390fd5b607b80546001600160a01b0319166001600160a01b0383161790556040517fa5b56b7906fd0a20e3f35120dd8343db1e12e037a6c90111c7e42885e82a1ce690610a2a908390613bd8565b6079546000906001600160401b031615611ae057506079546001600160401b03908116600090815260786020526040902054600160401b90041690565b506074546001600160401b031690565b607a546001600160a01b03163314611b1b57604051634755657960e01b815260040160405180910390fd5b6076611b278282614545565b507f6b8f723a4c7a5335cafae8a598a0aa0301be1387c037dccc085b62add6448b2081604051610a2a9190613b31565b600054610100900460ff1615808015611b775750600054600160ff909116105b80611b915750303b158015611b91575060005460ff166001145b611bf95760405162461bcd60e51b815260206004820152602e60248201527f496e697469616c697a61626c653a20636f6e747261637420697320616c72656160448201526d191e481a5b9a5d1a585b1a5e995960921b60648201526084015b60405180910390fd5b6000805460ff191660011790558015611c1c576000805461ff0019166101001790555b611c296020880188613cbc565b607a80546001600160a01b0319166001600160a01b0392909216919091179055611c596040880160208901613cbc565b606f80546001600160a01b0392909216600160581b02600160581b600160f81b0319909216919091179055611c946080880160608901613cbc565b607480546001600160a01b0392909216600160401b02600160401b600160e01b03199092169190911790556000805260756020527ff9e3fbf150b7a0077118526f473c53cb4734f166167e2c6213e3567dd390b4ad8690556076611cf88682614545565b506077611d058582614545565b5062093a80611d1a6060890160408a01613bec565b6001600160401b03161115611d4257604051630cc9650760e41b815260040160405180910390fd5b611d526060880160408901613bec565b607980546001600160401b0392909216600160801b0267ffffffffffffffff60801b1990921691909117905562093a80611d9260a0890160808a01613bec565b6001600160401b03161115611dba57604051631d06e87960e01b815260040160405180910390fd5b611dca60a0880160808901613bec565b607980546001600160c01b0316600160c01b6001600160401b039390931692909202919091179055670de0b6b3a7640000607055606f80546affffffffffffffffffff0019166a03ea000000000000070800179055611e2761369a565b7fed7be53c9f1a96a481223b15568a5b1a475e01a74b347d6ca187c8bf0c078cd660007f00000000000000000000000000000000000000000000000000000000000000008585604051611e7d949392919061462d565b60405180910390a18015611ecb576000805461ff0019169055604051600181527f7f26b83ff96e1f2b6a682f133852f6798a09c465da95921460cefb38474024989060200160405180910390a15b50505050505050565b606f5460ff1615611ef857604051630bc011ff60e21b815260040160405180910390fd5b806000819003611f1b5760405163cb591a5f60e01b815260040160405180910390fd5b6103e8811115611f3e57604051635acfba9d60e11b815260040160405180910390fd5b6073546001600160401b03600160c01b8204811691611f66918491600160801b900416614664565b1115611f855760405163c630a00d60e01b815260040160405180910390fd5b6073546001600160401b03600160401b820481166000818152607260205260408120549193600160801b9004909216915b84811015612125576000878783818110611fd257611fd26142ae565b9050602002810190611fe49190614677565b611fed9061468d565b905083611ff981614370565b825180516020918201208185015160408087015190519499509194506000936120259386939101614396565b60408051601f1981840301815291815281516020928301206001600160401b0389166000908152607190935291205490915081146120765760405163671ebaaf60e11b815260040160405180910390fd5b6001600160401b03861660009081526071602052604081205561209a60018961444a565b84036120da5742600084604001516120b29190614287565b6001600160401b031611156120da5760405163c44a082160e01b815260040160405180910390fd5b8482846020015142336040516020016120f79594939291906143d2565b604051602081830303815290604052805190602001209450505050808061211d90614411565b915050611fb6565b506121308484614287565b607380546001600160401b0342811667ffffffffffffffff199092168217808455604080516060810182528781526020808201958652600160401b9384900485168284019081528589166000818152607290935284832093518455965160019390930180549151871686026001600160801b031990921693871693909317179091558554938916600160801b0267ffffffffffffffff60801b1993860293909316600160401b600160c01b031990941693909317919091179093559151929550917f648a61dd2438f072f5a1960939abd30f37aea80d2e94c9792ad142d3e0a490a49190a2505050505050565b607454600160401b90046001600160a01b0316331461224f5760405163bbcbbc0560e01b815260040160405180910390fd5b6000604051806060016040528089815260200188815260200184848080601f016020809104026020016040519081016040528093929190818152602001838380828437600092019190915250505091525090506122b38d8d8d8d8d8b8b8b89613080565b6074805467ffffffffffffffff19166001600160401b038d811691821790925560009081526075602052604090208a905560795416156122fe57607980546001600160801b03191690555b6040516333d6247d60e01b8152600481018b90527f00000000000000000000000000000000000000000000000000000000000000006001600160a01b0316906333d6247d90602401600060405180830381600087803b15801561236057600080fd5b505af1158015612374573d6000803e3d6000fd5b50506040518b81523392506001600160401b038e1691507fcb339b570a7f0b25afa7333371ff11192092a0aeace12b671f4c212f2815c6fe9060200160405180910390a350505050505050505050505050565b607a546001600160a01b031633146123f257604051634755657960e01b815260040160405180910390fd5b7f00000000000000000000000000000000000000000000000000000000000000006001600160a01b031663dbc169766040518163ffffffff1660e01b8152600401600060405180830381600087803b15801561244d57600080fd5b505af1158015612461573d6000803e3d6000fd5b5050505061129561370e565b607454600160401b90046001600160a01b0316331461249f5760405163bbcbbc0560e01b815260040160405180910390fd5b6124b0898989898989898989612d3c565b6074805467ffffffffffffffff19166001600160401b03888116918217909255600090815260756020526040902085905560795416156124fb57607980546001600160801b03191690555b6040516333d6247d60e01b8152600481018690527f00000000000000000000000000000000000000000000000000000000000000006001600160a01b0316906333d6247d90602401600060405180830381600087803b15801561255d57600080fd5b505af1158015612571573d6000803e3d6000fd5b5050607980546001600160c01b031661127560c71b179055505060405184815233906001600160401b038816907fcc1b5520188bf1dd3e63f98164b577c4d75c11a619ddea692112f0d1aec4cf7290602001611a1a565b606f5460ff16156125ec57604051630bc011ff60e21b815260040160405180910390fd5b60006125f760705490565b90508181111561261a57604051634732fdb560e01b815260040160405180910390fd5b620493e083111561263e576040516328a69b1f60e21b815260040160405180910390fd5b6126736001600160a01b037f000000000000000000000000000000000000000000000000000000000000000016333084612b00565b60007f00000000000000000000000000000000000000000000000000000000000000006001600160a01b0316633ed691ef6040518163ffffffff1660e01b8152600401602060405180830381865afa1580156126d3573d6000803e3d6000fd5b505050506040513d601f19601f820116820180604052508101906126f791906143b9565b60738054919250600160c01b9091046001600160401b031690601861271b83614370565b91906101000a8154816001600160401b0302191690836001600160401b031602179055505084846040516127509291906146ed565b6040519081900381206127699183904290602001614396565b60408051808303601f190181529181528151602092830120607354600160c01b90046001600160401b03166000908152607190935291205532330361280d57607354604080518381523360208201526060918101829052600091810191909152600160c01b9091046001600160401b0316907ff94bb37db835f1ab585ee00041849a09b12cd081d77fa15ca070757619cbc9319060800160405180910390a261286a565b607360189054906101000a90046001600160401b03166001600160401b03167ff94bb37db835f1ab585ee00041849a09b12cd081d77fa15ca070757619cbc9318233888860405161286194939291906146fd565b60405180910390a25b5050505050565b607a546001600160a01b0316331461289c57604051634755657960e01b815260040160405180910390fd5b60748054600160401b600160e01b031916600160401b6001600160a01b038416021790556040517f61f8fec29495a3078e9271456f05fb0707fd4e41f7661865f80fc437d06681ca90610a2a908390613bd8565b6128f8612c15565b6001600160a01b03811661295d5760405162461bcd60e51b815260206004820152602660248201527f4f776e61626c653a206e6577206f776e657220697320746865207a65726f206160448201526564647265737360d01b6064820152608401611bf0565b610cc481612c6f565b6079546001600160401b03600160401b909104811690821611158061299957506079546001600160401b03908116908216115b156129b75760405163d086b70b60e01b815260040160405180910390fd5b6001600160401b038181166000818152607860209081526040808320805460748054600160401b9283900490981667ffffffffffffffff19909816881790556002820154878652607590945293829020929092556079805467ffffffffffffffff60401b19169390940292909217909255600182015490516333d6247d60e01b815260048101919091529091907f00000000000000000000000000000000000000000000000000000000000000006001600160a01b0316906333d6247d90602401600060405180830381600087803b158015612a9257600080fd5b505af1158015612aa6573d6000803e3d6000fd5b50505050826001600160401b0316816001600160401b03167f328d3c6c0fd6f1be0515e422f2d87e59f25922cbc2233568515a0c4bc3f8510e8460020154604051612af391815260200190565b60405180910390a3505050565b6040516001600160a01b0380851660248301528316604482015260648101829052612b6b9085906323b872dd60e01b906084015b60408051601f198184030181529190526020810180516001600160e01b03166001600160e01b031990931692909217909152613766565b50505050565b6079546001600160401b03600160401b820481169116111561129557607954600090612bae90600160401b90046001600160401b03166001614287565b9050612bb981610b23565b15610cc457607954600090600290612bdb9084906001600160401b031661442a565b612be59190614728565b612bef9083614287565b9050612bfa81610b23565b15612c0c57612c0881612966565b5050565b612c0882612966565b6033546001600160a01b031633146112955760405162461bcd60e51b815260206004820181905260248201527f4f776e61626c653a2063616c6c6572206973206e6f7420746865206f776e65726044820152606401611bf0565b603380546001600160a01b038381166001600160a01b0319831681179093556040519116919082907f8be0079c531659141344cd1fd0a4f28419497f9722a3daafe3b4186f6b6457e090600090a35050565b7f00000000000000000000000000000000000000000000000000000000000000006001600160a01b0316632072f6c56040518163ffffffff1660e01b8152600401600060405180830381600087803b158015612d1c57600080fd5b505af1158015612d30573d6000803e3d6000fd5b5050505061129561383d565b60006001600160401b038a1615612dd0576079546001600160401b03908116908b161115612d7d5760405163bb14c20560e01b815260040160405180910390fd5b506001600160401b03808a1660009081526078602052604090206002810154815490928a8116600160401b9092041614612dca57604051632bd2e3e760e01b815260040160405180910390fd5b50612e38565b506001600160401b03871660009081526075602052604090205480612e08576040516324cbdcc360e11b815260040160405180910390fd5b6074546001600160401b039081169089161115612e3857604051630f2b74f160e11b815260040160405180910390fd5b6079546001600160401b03908116908a161180612e675750896001600160401b0316896001600160401b031611155b80612e8857506079546001600160401b03600160401b9091048116908a1611155b15612ea65760405163bfa7079f60e01b815260040160405180910390fd5b6001600160401b03898116600090815260786020526040902054600160401b9004811690881614612eea576040516332a2a77f60e01b815260040160405180910390fd5b6000612ef9898989858a610a35565b905060007f30644e72e131a029b85045b68181585d2833e84879b9709143e1f593f0000001600283604051612f2e919061474e565b602060405180830381855afa158015612f4b573d6000803e3d6000fd5b5050506040513d601f19601f82011682018060405250810190612f6e91906143b9565b612f789190614760565b6040805160208101825282815290516343753b4d60e01b81529192506001600160a01b037f000000000000000000000000000000000000000000000000000000000000000016916343753b4d91612fd8918a918a918a9190600401614774565b602060405180830381865afa158015612ff5573d6000803e3d6000fd5b505050506040513d601f19601f8201168201806040525081019061301991906147e2565b613036576040516309bde33960e01b815260040160405180910390fd5b6001600160401b038b166000908152607860205260409020600201548790036130725760405163a47276bd60e01b815260040160405180910390fd5b505050505050505050505050565b60008061308b611aa3565b90506001600160401b038b1615613121576079546001600160401b03908116908c1611156130cc5760405163bb14c20560e01b815260040160405180910390fd5b6001600160401b03808c1660009081526078602052604090206002810154815490945090918c8116600160401b909204161461311b57604051632bd2e3e760e01b815260040160405180910390fd5b5061318d565b6001600160401b038a1660009081526075602052604090205491508161315a576040516324cbdcc360e11b815260040160405180910390fd5b806001600160401b03168a6001600160401b0316111561318d57604051630f2b74f160e11b815260040160405180910390fd5b806001600160401b0316896001600160401b0316116131bf5760405163b9b18f5760e01b815260040160405180910390fd5b6040516349ce899760e01b81526001600160401b038b1660048201526000907f00000000000000000000000000000000000000000000000000000000000000006001600160a01b0316906349ce899790602401602060405180830381865afa15801561322f573d6000803e3d6000fd5b505050506040513d601f19601f8201168201806040525081019061325391906143b9565b6040516349ce899760e01b81526001600160401b038c1660048201529091506000906001600160a01b037f000000000000000000000000000000000000000000000000000000000000000016906349ce899790602401602060405180830381865afa1580156132c6573d6000803e3d6000fd5b505050506040513d601f19601f820116820180604052508101906132ea91906143b9565b905060006132fc858e8e8d8f8b613899565b905060007f30644e72e131a029b85045b68181585d2833e84879b9709143e1f593f0000001600283604051613331919061474e565b602060405180830381855afa15801561334e573d6000803e3d6000fd5b5050506040513d601f19601f8201168201806040525081019061337191906143b9565b61337b9190614760565b6040805160208101825282815290516343753b4d60e01b81529192506001600160a01b037f000000000000000000000000000000000000000000000000000000000000000016916343753b4d916133db918e918e918e9190600401614774565b602060405180830381865afa1580156133f8573d6000803e3d6000fd5b505050506040513d601f19601f8201168201806040525081019061341c91906147e2565b613439576040516309bde33960e01b815260040160405180910390fd5b61349533868f613449919061442a565b6001600160401b031661345a6114c3565b613464919061445d565b6001600160a01b037f0000000000000000000000000000000000000000000000000000000000000000169190613921565b505050505050505050505050505050565b60006134b0611aa3565b9050816000806134c0848461442a565b606f546001600160401b0391821692506000916134e3916101009004164261444a565b90505b846001600160401b0316846001600160401b031614613583576001600160401b038085166000908152607260205260409020600181015490911682101561357757600181015461354690600160401b90046001600160401b03168661442a565b613559906001600160401b031685614664565b6001820154600160401b90046001600160401b03169550935061357d565b50613583565b506134e6565b600061358f848461444a565b9050808410156135e657838103600c81116135aa57806135ad565b600c5b9050806103e80a81606f60099054906101000a900461ffff1661ffff160a60705402816135dc576135dc614474565b0460705550613656565b808403600c81116135f757806135fa565b600c5b90506000816103e80a82606f60099054906101000a900461ffff1661ffff160a670de0b6b3a7640000028161363157613631614474565b04905080607054670de0b6b3a7640000028161364f5761364f614474565b0460705550505b683635c9adc5dea00000607054111561367b57683635c9adc5dea00000607055611ecb565b633b9aca006070541015611ecb57633b9aca0060705550505050505050565b600054610100900460ff166137055760405162461bcd60e51b815260206004820152602b60248201527f496e697469616c697a61626c653a20636f6e7472616374206973206e6f74206960448201526a6e697469616c697a696e6760a81b6064820152608401611bf0565b61129533612c6f565b606f5460ff1661373157604051635386698160e01b815260040160405180910390fd5b606f805460ff191690556040517f1e5e34eea33501aecf2ebec9fe0e884a40804275ea7fe10b2ba084c8374308b390600090a1565b60006137bb826040518060400160405280602081526020017f5361666545524332303a206c6f772d6c6576656c2063616c6c206661696c6564815250856001600160a01b03166139519092919063ffffffff16565b80519091501561383857808060200190518101906137d991906147e2565b6138385760405162461bcd60e51b815260206004820152602a60248201527f5361666545524332303a204552433230206f7065726174696f6e20646964206e6044820152691bdd081cdd58d8d9595960b21b6064820152608401611bf0565b505050565b606f5460ff161561386157604051630bc011ff60e21b815260040160405180910390fd5b606f805460ff191660011790556040517f2261efe5aef6fedc1fd1550b25facc9181745623049c7901287030b9ad1a549790600090a1565b606033878360000151887f00000000000000000000000000000000000000000000000000000000000000007f00000000000000000000000000000000000000000000000000000000000000008988602001518a8d6040516020016139069a99989796959493929190614203565b60405160208183030381529060405290509695505050505050565b6040516001600160a01b03831660248201526044810182905261383890849063a9059cbb60e01b90606401612b34565b60606139608484600085613968565b949350505050565b6060824710156139c95760405162461bcd60e51b815260206004820152602660248201527f416464726573733a20696e73756666696369656e742062616c616e636520666f6044820152651c8818d85b1b60d21b6064820152608401611bf0565b600080866001600160a01b031685876040516139e5919061474e565b60006040518083038185875af1925050503d8060008114613a22576040519150601f19603f3d011682016040523d82523d6000602084013e613a27565b606091505b5091509150613a3887838387613a43565b979650505050505050565b60608315613ab2578251600003613aab576001600160a01b0385163b613aab5760405162461bcd60e51b815260206004820152601d60248201527f416464726573733a2063616c6c20746f206e6f6e2d636f6e74726163740000006044820152606401611bf0565b5081613960565b6139608383815115613ac75781518083602001fd5b8060405162461bcd60e51b8152600401611bf09190613b31565b60005b83811015613afc578181015183820152602001613ae4565b50506000910152565b60008151808452613b1d816020860160208601613ae1565b601f01601f19169290920160200192915050565b602081526000613b446020830184613b05565b9392505050565b600060208284031215613b5d57600080fd5b813561ffff81168114613b4457600080fd5b80356001600160401b0381168114613b8657600080fd5b919050565b600080600080600060a08688031215613ba357600080fd5b613bac86613b6f565b9450613bba60208701613b6f565b94979496505050506040830135926060810135926080909101359150565b6001600160a01b0391909116815260200190565b600060208284031215613bfe57600080fd5b613b4482613b6f565b60008083601f840112613c1957600080fd5b5081356001600160401b03811115613c3057600080fd5b6020830191508360208260051b8501011115613c4b57600080fd5b9250929050565b80356001600160a01b0381168114613b8657600080fd5b600080600060408486031215613c7e57600080fd5b83356001600160401b03811115613c9457600080fd5b613ca086828701613c07565b9094509250613cb3905060208501613c52565b90509250925092565b600060208284031215613cce57600080fd5b613b4482613c52565b8060408101831015613ce857600080fd5b92915050565b8060808101831015613ce857600080fd5b60008060008060008060008060006101c08a8c031215613d1e57600080fd5b613d278a613b6f565b9850613d3560208b01613b6f565b9750613d4360408b01613b6f565b9650613d5160608b01613b6f565b955060808a0135945060a08a01359350613d6e8b60c08c01613cd7565b9250613d7e8b6101008c01613cee565b9150613d8e8b6101808c01613cd7565b90509295985092959850929598565b600060208284031215613daf57600080fd5b5035919050565b60008060008060008060008060006101c08a8c031215613dd557600080fd5b613dde8a613b6f565b9850613dec60208b01613b6f565b9750613dfa60408b01613b6f565b965060608a0135955060808a01359450613e178b60a08c01613cd7565b9350613e268b60e08c01613cee565b9250613e368b6101608c01613cd7565b91506101a08a01356001600160401b03811115613e5257600080fd5b8a016060818d031215613e6457600080fd5b809150509295985092959850929598565b634e487b7160e01b600052604160045260246000fd5b604051606081016001600160401b0381118282101715613ead57613ead613e75565b60405290565b600082601f830112613ec457600080fd5b81356001600160401b0380821115613ede57613ede613e75565b604051601f8301601f19908116603f01168101908282118183101715613f0657613f06613e75565b81604052838152866020858801011115613f1f57600080fd5b836020870160208301376000602085830101528094505050505092915050565b600060208284031215613f5157600080fd5b81356001600160401b03811115613f6757600080fd5b61396084828501613eb3565b60008083601f840112613f8557600080fd5b5081356001600160401b03811115613f9c57600080fd5b602083019150836020828501011115613c4b57600080fd5b600080600080600080868803610120811215613fcf57600080fd5b60a0811215613fdd57600080fd5b5086955060a0870135945060c08701356001600160401b038082111561400257600080fd5b61400e8a838b01613eb3565b955060e089013591508082111561402457600080fd5b6140308a838b01613eb3565b945061010089013591508082111561404757600080fd5b5061405489828a01613f73565b979a9699509497509295939492505050565b6000806020838503121561407957600080fd5b82356001600160401b0381111561408f57600080fd5b61409b85828601613c07565b90969095509350505050565b6000806000806000806000806000806000806102008d8f0312156140ca57600080fd5b6140d38d613b6f565b9b506140e160208e01613b6f565b9a506140ef60408e01613b6f565b995060608d0135985060808d0135975060a08d0135965060c08d0135955061411a8e60e08f01613cd7565b945061412a8e6101208f01613cee565b935061413a8e6101a08f01613cd7565b92506001600160401b036101e08e0135111561415557600080fd5b6141668e6101e08f01358f01613f73565b81935080925050509295989b509295989b509295989b565b60008060006040848603121561419357600080fd5b83356001600160401b038111156141a957600080fd5b6141b586828701613f73565b909790965060209590950135949350505050565b600181811c908216806141dd57607f821691505b6020821081036141fd57634e487b7160e01b600052602260045260246000fd5b50919050565b60609a909a1b6001600160601b0319168a5260148a0198909852603489019690965260c094851b6001600160c01b031990811660548a015293851b8416605c89015291841b83166064880152606c870152608c86015260ac8501929092529190911b1660cc82015260d40190565b634e487b7160e01b600052601160045260246000fd5b6001600160401b038181168382160190808211156142a7576142a7614271565b5092915050565b634e487b7160e01b600052603260045260246000fd5b60008235607e198336030181126142da57600080fd5b9190910192915050565b6000608082360312156142f657600080fd5b604051608081016001600160401b03828210818311171561431957614319613e75565b81604052843591508082111561432e57600080fd5b5061433b36828601613eb3565b8252506020830135602082015261435460408401613b6f565b604082015261436560608401613b6f565b606082015292915050565b60006001600160401b0380831681810361438c5761438c614271565b6001019392505050565b928352602083019190915260c01b6001600160c01b031916604082015260480190565b6000602082840312156143cb57600080fd5b5051919050565b9485526020850193909352604084019190915260c01b6001600160c01b0319166060808401919091521b6001600160601b0319166068820152607c0190565b60006001820161442357614423614271565b5060010190565b6001600160401b038281168282160390808211156142a7576142a7614271565b81810381811115613ce857613ce8614271565b8082028115828204841417613ce857613ce8614271565b634e487b7160e01b600052601260045260246000fd5b60008261449957614499614474565b500490565b6000606082360312156144b057600080fd5b6144b8613e8b565b823581526020830135602082015260408301356001600160401b038111156144df57600080fd5b6144eb36828601613eb3565b60408301525092915050565b601f82111561383857600081815260208120601f850160051c8101602086101561451e5750805b601f850160051c820191505b8181101561453d5782815560010161452a565b505050505050565b81516001600160401b0381111561455e5761455e613e75565b6145728161456c84546141c9565b846144f7565b602080601f8311600181146145a7576000841561458f5750858301515b600019600386901b1c1916600185901b17855561453d565b600085815260208120601f198616915b828110156145d6578886015182559484019460019091019084016145b7565b50858210156145f45787850151600019600388901b60f8161c191681555b5050505050600190811b01905550565b81835281816020850137506000828201602090810191909152601f909101601f19169091010190565b60006001600160401b0380871683528086166020840152506060604083015261465a606083018486614604565b9695505050505050565b80820180821115613ce857613ce8614271565b60008235605e198336030181126142da57600080fd5b60006060823603121561469f57600080fd5b6146a7613e8b565b82356001600160401b038111156146bd57600080fd5b6146c936828601613eb3565b825250602083013560208201526146e260408401613b6f565b604082015292915050565b8183823760009101908152919050565b8481526001600160a01b038416602082015260606040820181905260009061465a9083018486614604565b60006001600160401b038084168061474257614742614474565b92169190910492915050565b600082516142da818460208701613ae1565b60008261476f5761476f614474565b500690565b61012081016040808784378083018660005b60028110156147a357838284379183019190830190600101614786565b505050808560c08501375061010082018360005b60018110156147d65781518352602092830192909101906001016147b7565b50505095945050505050565b6000602082840312156147f457600080fd5b81518015158114613b4457600080fdfea2646970667358221220bfad683892f0b3757d7e32d30f1242e0be68d4a4c3d3663044ae2d6abf5bbcf564736f6c63430008110033",
  "linkReferences": {},
  "deployedLinkReferences": {}
}