{
  "_format": "hh-sol-artifact-1",
  "contractName": "PolygonZkEVM",
  "sourceName": "contracts/PolygonZkEVM.sol",
  "abi": [
    {
      "inputs": [
        {
          "internalType": "contract IPolygonZkEVMGlobalExitRoot",
          "name": "_globalExitRootManager",
          "type": "address"
        },
        {
          "internalType": "contract IERC20Upgradeable",
          "name": "_matic",
          "type": "address"
        },
        {
          "internalType": "contract IVerifierRollup",
          "name": "_rollupVerifier",
          "type": "address"
        },
        {
          "internalType": "contract IPolygonZkEVMBridge",
          "name": "_bridgeAddress",
          "type": "address"
        },
        {
          "internalType": "uint64",
          "name": "_chainID",
          "type": "uint64"
        },
        {
          "internalType": "uint64",
          "name": "_forkID",
          "type": "uint64"
        }
      ],
      "stateMutability": "nonpayable",
      "type": "constructor"
    },
    {
      "inputs": [],
      "name": "BatchAlreadyVerified",
      "type": "error"
    },
    {
      "inputs": [],
      "name": "BatchNotSequencedOrNotSequenceEnd",
      "type": "error"
    },
    {
      "inputs": [],
      "name": "ExceedMaxVerifyBatches",
      "type": "error"
    },
    {
      "inputs": [],
      "name": "FinalNumBatchBelowLastVerifiedBatch",
      "type": "error"
    },
    {
      "inputs": [],
      "name": "FinalNumBatchDoesNotMatchPendingState",
      "type": "error"
    },
    {
      "inputs": [],
      "name": "FinalPendingStateNumInvalid",
      "type": "error"
    },
    {
      "inputs": [],
      "name": "ForceBatchTimeoutNotExpired",
      "type": "error"
    },
    {
      "inputs": [],
      "name": "ForceBatchesOverflow",
      "type": "error"
    },
    {
      "inputs": [],
      "name": "ForcedDataDoesNotMatch",
      "type": "error"
    },
    {
      "inputs": [],
      "name": "GlobalExitRootNotExist",
      "type": "error"
    },
    {
      "inputs": [],
      "name": "HaltTimeoutNotExpired",
      "type": "error"
    },
    {
      "inputs": [],
      "name": "InitNumBatchAboveLastVerifiedBatch",
      "type": "error"
    },
    {
      "inputs": [],
      "name": "InitNumBatchDoesNotMatchPendingState",
      "type": "error"
    },
    {
      "inputs": [],
      "name": "InvalidProof",
      "type": "error"
    },
    {
      "inputs": [],
      "name": "InvalidRangeBatchTimeTarget",
      "type": "error"
    },
    {
      "inputs": [],
      "name": "InvalidRangeMultiplierBatchFee",
      "type": "error"
    },
    {
      "inputs": [],
      "name": "NewAccInputHashDoesNotExist",
      "type": "error"
    },
    {
      "inputs": [],
      "name": "NewPendingStateTimeoutMustBeLower",
      "type": "error"
    },
    {
      "inputs": [],
      "name": "NewTrustedAggregatorTimeoutMustBeLower",
      "type": "error"
    },
    {
      "inputs": [],
      "name": "NotEnoughMaticAmount",
      "type": "error"
    },
    {
      "inputs": [],
      "name": "OldAccInputHashDoesNotExist",
      "type": "error"
    },
    {
      "inputs": [],
      "name": "OldStateRootDoesNotExist",
      "type": "error"
    },
    {
      "inputs": [],
      "name": "OnlyAdmin",
      "type": "error"
    },
    {
      "inputs": [],
      "name": "OnlyEmergencyState",
      "type": "error"
    },
    {
      "inputs": [],
      "name": "OnlyNotEmergencyState",
      "type": "error"
    },
    {
      "inputs": [],
      "name": "OnlyPendingAdmin",
      "type": "error"
    },
    {
      "inputs": [],
      "name": "OnlyTrustedAggregator",
      "type": "error"
    },
    {
      "inputs": [],
      "name": "OnlyTrustedSequencer",
      "type": "error"
    },
    {
      "inputs": [],
      "name": "PendingStateDoesNotExist",
      "type": "error"
    },
    {
      "inputs": [],
      "name": "PendingStateInvalid",
      "type": "error"
    },
    {
      "inputs": [],
      "name": "PendingStateNotConsolidable",
      "type": "error"
    },
    {
      "inputs": [],
      "name": "PendingStateTimeoutExceedHaltAggregationTimeout",
      "type": "error"
    },
    {
      "inputs": [],
      "name": "SequenceZeroBatches",
      "type": "error"
    },
    {
      "inputs": [],
      "name": "SequencedTimestampBelowForcedTimestamp",
      "type": "error"
    },
    {
      "inputs": [],
      "name": "SequencedTimestampInvalid",
      "type": "error"
    },
    {
      "inputs": [],
      "name": "StoredRootMustBeDifferentThanNewRoot",
      "type": "error"
    },
    {
      "inputs": [],
      "name": "TransactionsLengthAboveMax",
      "type": "error"
    },
    {
      "inputs": [],
      "name": "TrustedAggregatorTimeoutExceedHaltAggregationTimeout",
      "type": "error"
    },
    {
      "inputs": [],
      "name": "TrustedAggregatorTimeoutNotExpired",
      "type": "error"
    },
    {
      "anonymous": false,
      "inputs": [
        {
          "indexed": false,
          "internalType": "address",
          "name": "newAdmin",
          "type": "address"
        }
      ],
      "name": "AcceptAdminRole",
      "type": "event"
    },
    {
      "anonymous": false,
      "inputs": [
        {
          "indexed": true,
          "internalType": "uint64",
          "name": "numBatch",
          "type": "uint64"
        },
        {
          "indexed": false,
          "internalType": "bytes32",
          "name": "stateRoot",
          "type": "bytes32"
        },
        {
          "indexed": true,
          "internalType": "uint64",
          "name": "pendingStateNum",
          "type": "uint64"
        }
      ],
      "name": "ConsolidatePendingState",
      "type": "event"
    },
    {
      "anonymous": false,
      "inputs": [],
      "name": "EmergencyStateActivated",
      "type": "event"
    },
    {
      "anonymous": false,
      "inputs": [],
      "name": "EmergencyStateDeactivated",
      "type": "event"
    },
    {
      "anonymous": false,
      "inputs": [
        {
          "indexed": true,
          "internalType": "uint64",
          "name": "forceBatchNum",
          "type": "uint64"
        },
        {
          "indexed": false,
          "internalType": "bytes32",
          "name": "lastGlobalExitRoot",
          "type": "bytes32"
        },
        {
          "indexed": false,
          "internalType": "address",
          "name": "sequencer",
          "type": "address"
        },
        {
          "indexed": false,
          "internalType": "bytes",
          "name": "transactions",
          "type": "bytes"
        }
      ],
      "name": "ForceBatch",
      "type": "event"
    },
    {
      "anonymous": false,
      "inputs": [
        {
          "indexed": false,
          "internalType": "uint8",
          "name": "version",
          "type": "uint8"
        }
      ],
      "name": "Initialized",
      "type": "event"
    },
    {
      "anonymous": false,
      "inputs": [
        {
          "indexed": true,
          "internalType": "uint64",
          "name": "numBatch",
          "type": "uint64"
        },
        {
          "indexed": false,
          "internalType": "bytes32",
          "name": "stateRoot",
          "type": "bytes32"
        },
        {
          "indexed": true,
          "internalType": "address",
          "name": "aggregator",
          "type": "address"
        }
      ],
      "name": "OverridePendingState",
      "type": "event"
    },
    {
      "anonymous": false,
      "inputs": [
        {
          "indexed": true,
          "internalType": "address",
          "name": "previousOwner",
          "type": "address"
        },
        {
          "indexed": true,
          "internalType": "address",
          "name": "newOwner",
          "type": "address"
        }
      ],
      "name": "OwnershipTransferred",
      "type": "event"
    },
    {
      "anonymous": false,
      "inputs": [
        {
          "indexed": false,
          "internalType": "bytes32",
          "name": "storedStateRoot",
          "type": "bytes32"
        },
        {
          "indexed": false,
          "internalType": "bytes32",
          "name": "provedStateRoot",
          "type": "bytes32"
        }
      ],
      "name": "ProveNonDeterministicPendingState",
      "type": "event"
    },
    {
      "anonymous": false,
      "inputs": [
        {
          "indexed": true,
          "internalType": "uint64",
          "name": "numBatch",
          "type": "uint64"
        }
      ],
      "name": "SequenceBatches",
      "type": "event"
    },
    {
      "anonymous": false,
      "inputs": [
        {
          "indexed": true,
          "internalType": "uint64",
          "name": "numBatch",
          "type": "uint64"
        }
      ],
      "name": "SequenceForceBatches",
      "type": "event"
    },
    {
      "anonymous": false,
      "inputs": [
        {
          "indexed": false,
          "internalType": "uint16",
          "name": "newMultiplierBatchFee",
          "type": "uint16"
        }
      ],
      "name": "SetMultiplierBatchFee",
      "type": "event"
    },
    {
      "anonymous": false,
      "inputs": [
        {
          "indexed": false,
          "internalType": "uint64",
          "name": "newPendingStateTimeout",
          "type": "uint64"
        }
      ],
      "name": "SetPendingStateTimeout",
      "type": "event"
    },
    {
      "anonymous": false,
      "inputs": [
        {
          "indexed": false,
          "internalType": "address",
          "name": "newTrustedAggregator",
          "type": "address"
        }
      ],
      "name": "SetTrustedAggregator",
      "type": "event"
    },
    {
      "anonymous": false,
      "inputs": [
        {
          "indexed": false,
          "internalType": "uint64",
          "name": "newTrustedAggregatorTimeout",
          "type": "uint64"
        }
      ],
      "name": "SetTrustedAggregatorTimeout",
      "type": "event"
    },
    {
      "anonymous": false,
      "inputs": [
        {
          "indexed": false,
          "internalType": "address",
          "name": "newTrustedSequencer",
          "type": "address"
        }
      ],
      "name": "SetTrustedSequencer",
      "type": "event"
    },
    {
      "anonymous": false,
      "inputs": [
        {
          "indexed": false,
          "internalType": "string",
          "name": "newTrustedSequencerURL",
          "type": "string"
        }
      ],
      "name": "SetTrustedSequencerURL",
      "type": "event"
    },
    {
      "anonymous": false,
      "inputs": [
        {
          "indexed": false,
          "internalType": "uint64",
          "name": "newVerifyBatchTimeTarget",
          "type": "uint64"
        }
      ],
      "name": "SetVerifyBatchTimeTarget",
      "type": "event"
    },
    {
      "anonymous": false,
      "inputs": [
        {
          "indexed": false,
          "internalType": "address",
          "name": "newPendingAdmin",
          "type": "address"
        }
      ],
      "name": "TransferAdminRole",
      "type": "event"
    },
    {
      "anonymous": false,
      "inputs": [
        {
          "indexed": false,
          "internalType": "uint64",
          "name": "numBatch",
          "type": "uint64"
        },
        {
          "indexed": false,
          "internalType": "uint64",
          "name": "forkID",
          "type": "uint64"
        },
        {
          "indexed": false,
          "internalType": "string",
          "name": "version",
          "type": "string"
        }
      ],
      "name": "UpdateZkEVMVersion",
      "type": "event"
    },
    {
      "anonymous": false,
      "inputs": [
        {
          "indexed": true,
          "internalType": "uint64",
          "name": "numBatch",
          "type": "uint64"
        },
        {
          "indexed": false,
          "internalType": "bytes32",
          "name": "stateRoot",
          "type": "bytes32"
        },
        {
          "indexed": true,
          "internalType": "address",
          "name": "aggregator",
          "type": "address"
        }
      ],
      "name": "VerifyBatches",
      "type": "event"
    },
    {
      "anonymous": false,
      "inputs": [
        {
          "indexed": true,
          "internalType": "uint64",
          "name": "numBatch",
          "type": "uint64"
        },
        {
          "indexed": false,
          "internalType": "bytes32",
          "name": "stateRoot",
          "type": "bytes32"
        },
        {
          "indexed": true,
          "internalType": "address",
          "name": "aggregator",
          "type": "address"
        }
      ],
      "name": "VerifyBatchesTrustedAggregator",
      "type": "event"
    },
    {
      "inputs": [],
      "name": "_FORCE_BATCH_TIMEOUT",
      "outputs": [
        {
          "internalType": "uint64",
          "name": "",
          "type": "uint64"
        }
      ],
      "stateMutability": "view",
      "type": "function"
    },
    {
      "inputs": [],
      "name": "acceptAdminRole",
      "outputs": [],
      "stateMutability": "nonpayable",
      "type": "function"
    },
    {
      "inputs": [
        {
          "internalType": "uint64",
          "name": "sequencedBatchNum",
          "type": "uint64"
        }
      ],
      "name": "activateEmergencyState",
      "outputs": [],
      "stateMutability": "nonpayable",
      "type": "function"
    },
    {
      "inputs": [],
      "name": "admin",
      "outputs": [
        {
          "internalType": "address",
          "name": "",
          "type": "address"
        }
      ],
      "stateMutability": "view",
      "type": "function"
    },
    {
      "inputs": [],
      "name": "batchFee",
      "outputs": [
        {
          "internalType": "uint256",
          "name": "",
          "type": "uint256"
        }
      ],
      "stateMutability": "view",
      "type": "function"
    },
    {
      "inputs": [
        {
          "internalType": "uint64",
          "name": "",
          "type": "uint64"
        }
      ],
      "name": "batchNumToStateRoot",
      "outputs": [
        {
          "internalType": "bytes32",
          "name": "",
          "type": "bytes32"
        }
      ],
      "stateMutability": "view",
      "type": "function"
    },
    {
      "inputs": [],
      "name": "bridgeAddress",
      "outputs": [
        {
          "internalType": "contract IPolygonZkEVMBridge",
          "name": "",
          "type": "address"
        }
      ],
      "stateMutability": "view",
      "type": "function"
    },
    {
      "inputs": [],
      "name": "calculateRewardPerBatch",
      "outputs": [
        {
          "internalType": "uint256",
          "name": "",
          "type": "uint256"
        }
      ],
      "stateMutability": "view",
      "type": "function"
    },
    {
      "inputs": [],
      "name": "chainID",
      "outputs": [
        {
          "internalType": "uint64",
          "name": "",
          "type": "uint64"
        }
      ],
      "stateMutability": "view",
      "type": "function"
    },
    {
      "inputs": [
        {
          "internalType": "uint64",
          "name": "pendingStateNum",
          "type": "uint64"
        }
      ],
      "name": "consolidatePendingState",
      "outputs": [],
      "stateMutability": "nonpayable",
      "type": "function"
    },
    {
      "inputs": [],
      "name": "deactivateEmergencyState",
      "outputs": [],
      "stateMutability": "nonpayable",
      "type": "function"
    },
    {
      "inputs": [
        {
          "internalType": "bytes",
          "name": "transactions",
          "type": "bytes"
        },
        {
          "internalType": "uint256",
          "name": "maticAmount",
          "type": "uint256"
        }
      ],
      "name": "forceBatch",
      "outputs": [],
      "stateMutability": "nonpayable",
      "type": "function"
    },
    {
      "inputs": [
        {
          "internalType": "uint64",
          "name": "",
          "type": "uint64"
        }
      ],
      "name": "forcedBatches",
      "outputs": [
        {
          "internalType": "bytes32",
          "name": "",
          "type": "bytes32"
        }
      ],
      "stateMutability": "view",
      "type": "function"
    },
    {
      "inputs": [],
      "name": "forkID",
      "outputs": [
        {
          "internalType": "uint64",
          "name": "",
          "type": "uint64"
        }
      ],
      "stateMutability": "view",
      "type": "function"
    },
    {
      "inputs": [],
      "name": "getCurrentBatchFee",
      "outputs": [
        {
          "internalType": "uint256",
          "name": "",
          "type": "uint256"
        }
      ],
      "stateMutability": "view",
      "type": "function"
    },
    {
      "inputs": [
        {
          "internalType": "uint64",
          "name": "initNumBatch",
          "type": "uint64"
        },
        {
          "internalType": "uint64",
          "name": "finalNewBatch",
          "type": "uint64"
        },
        {
          "internalType": "bytes32",
          "name": "newLocalExitRoot",
          "type": "bytes32"
        },
        {
          "internalType": "bytes32",
          "name": "oldStateRoot",
          "type": "bytes32"
        },
        {
          "internalType": "bytes32",
          "name": "newStateRoot",
          "type": "bytes32"
        }
      ],
      "name": "getInputSnarkBytes",
      "outputs": [
        {
          "internalType": "bytes",
          "name": "",
          "type": "bytes"
        }
      ],
      "stateMutability": "view",
      "type": "function"
    },
    {
      "inputs": [],
      "name": "getLastVerifiedBatch",
      "outputs": [
        {
          "internalType": "uint64",
          "name": "",
          "type": "uint64"
        }
      ],
      "stateMutability": "view",
      "type": "function"
    },
    {
      "inputs": [],
      "name": "globalExitRootManager",
      "outputs": [
        {
          "internalType": "contract IPolygonZkEVMGlobalExitRoot",
          "name": "",
          "type": "address"
        }
      ],
      "stateMutability": "view",
      "type": "function"
    },
    {
      "inputs": [
        {
          "components": [
            {
              "internalType": "address",
              "name": "admin",
              "type": "address"
            },
            {
              "internalType": "address",
              "name": "trustedSequencer",
              "type": "address"
            },
            {
              "internalType": "uint64",
              "name": "pendingStateTimeout",
              "type": "uint64"
            },
            {
              "internalType": "address",
              "name": "trustedAggregator",
              "type": "address"
            },
            {
              "internalType": "uint64",
              "name": "trustedAggregatorTimeout",
              "type": "uint64"
            }
          ],
          "internalType": "struct PolygonZkEVM.InitializePackedParameters",
          "name": "initializePackedParameters",
          "type": "tuple"
        },
        {
          "internalType": "bytes32",
          "name": "genesisRoot",
          "type": "bytes32"
        },
        {
          "internalType": "string",
          "name": "_trustedSequencerURL",
          "type": "string"
        },
        {
          "internalType": "string",
          "name": "_networkName",
          "type": "string"
        },
        {
          "internalType": "string",
          "name": "_version",
          "type": "string"
        }
      ],
      "name": "initialize",
      "outputs": [],
      "stateMutability": "nonpayable",
      "type": "function"
    },
    {
      "inputs": [],
      "name": "isEmergencyState",
      "outputs": [
        {
          "internalType": "bool",
          "name": "",
          "type": "bool"
        }
      ],
      "stateMutability": "view",
      "type": "function"
    },
    {
      "inputs": [
        {
          "internalType": "uint64",
          "name": "pendingStateNum",
          "type": "uint64"
        }
      ],
      "name": "isPendingStateConsolidable",
      "outputs": [
        {
          "internalType": "bool",
          "name": "",
          "type": "bool"
        }
      ],
      "stateMutability": "view",
      "type": "function"
    },
    {
      "inputs": [],
      "name": "lastBatchSequenced",
      "outputs": [
        {
          "internalType": "uint64",
          "name": "",
          "type": "uint64"
        }
      ],
      "stateMutability": "view",
      "type": "function"
    },
    {
      "inputs": [],
      "name": "lastForceBatch",
      "outputs": [
        {
          "internalType": "uint64",
          "name": "",
          "type": "uint64"
        }
      ],
      "stateMutability": "view",
      "type": "function"
    },
    {
      "inputs": [],
      "name": "lastForceBatchSequenced",
      "outputs": [
        {
          "internalType": "uint64",
          "name": "",
          "type": "uint64"
        }
      ],
      "stateMutability": "view",
      "type": "function"
    },
    {
      "inputs": [],
      "name": "lastPendingState",
      "outputs": [
        {
          "internalType": "uint64",
          "name": "",
          "type": "uint64"
        }
      ],
      "stateMutability": "view",
      "type": "function"
    },
    {
      "inputs": [],
      "name": "lastPendingStateConsolidated",
      "outputs": [
        {
          "internalType": "uint64",
          "name": "",
          "type": "uint64"
        }
      ],
      "stateMutability": "view",
      "type": "function"
    },
    {
      "inputs": [],
      "name": "lastTimestamp",
      "outputs": [
        {
          "internalType": "uint64",
          "name": "",
          "type": "uint64"
        }
      ],
      "stateMutability": "view",
      "type": "function"
    },
    {
      "inputs": [],
      "name": "lastVerifiedBatch",
      "outputs": [
        {
          "internalType": "uint64",
          "name": "",
          "type": "uint64"
        }
      ],
      "stateMutability": "view",
      "type": "function"
    },
    {
      "inputs": [],
      "name": "matic",
      "outputs": [
        {
          "internalType": "contract IERC20Upgradeable",
          "name": "",
          "type": "address"
        }
      ],
      "stateMutability": "view",
      "type": "function"
    },
    {
      "inputs": [],
      "name": "multiplierBatchFee",
      "outputs": [
        {
          "internalType": "uint16",
          "name": "",
          "type": "uint16"
        }
      ],
      "stateMutability": "view",
      "type": "function"
    },
    {
      "inputs": [],
      "name": "networkName",
      "outputs": [
        {
          "internalType": "string",
          "name": "",
          "type": "string"
        }
      ],
      "stateMutability": "view",
      "type": "function"
    },
    {
      "inputs": [
        {
          "internalType": "uint64",
          "name": "initPendingStateNum",
          "type": "uint64"
        },
        {
          "internalType": "uint64",
          "name": "finalPendingStateNum",
          "type": "uint64"
        },
        {
          "internalType": "uint64",
          "name": "initNumBatch",
          "type": "uint64"
        },
        {
          "internalType": "uint64",
          "name": "finalNewBatch",
          "type": "uint64"
        },
        {
          "internalType": "bytes32",
          "name": "newLocalExitRoot",
          "type": "bytes32"
        },
        {
          "internalType": "bytes32",
          "name": "newStateRoot",
          "type": "bytes32"
        },
        {
          "internalType": "uint256[2]",
          "name": "proofA",
          "type": "uint256[2]"
        },
        {
          "internalType": "uint256[2][2]",
          "name": "proofB",
          "type": "uint256[2][2]"
        },
        {
          "internalType": "uint256[2]",
          "name": "proofC",
          "type": "uint256[2]"
        }
      ],
      "name": "overridePendingState",
      "outputs": [],
      "stateMutability": "nonpayable",
      "type": "function"
    },
    {
      "inputs": [],
      "name": "owner",
      "outputs": [
        {
          "internalType": "address",
          "name": "",
          "type": "address"
        }
      ],
      "stateMutability": "view",
      "type": "function"
    },
    {
      "inputs": [],
      "name": "pendingAdmin",
      "outputs": [
        {
          "internalType": "address",
          "name": "",
          "type": "address"
        }
      ],
      "stateMutability": "view",
      "type": "function"
    },
    {
      "inputs": [],
      "name": "pendingStateTimeout",
      "outputs": [
        {
          "internalType": "uint64",
          "name": "",
          "type": "uint64"
        }
      ],
      "stateMutability": "view",
      "type": "function"
    },
    {
      "inputs": [
        {
          "internalType": "uint256",
          "name": "",
          "type": "uint256"
        }
      ],
      "name": "pendingStateTransitions",
      "outputs": [
        {
          "internalType": "uint64",
          "name": "timestamp",
          "type": "uint64"
        },
        {
          "internalType": "uint64",
          "name": "lastVerifiedBatch",
          "type": "uint64"
        },
        {
          "internalType": "bytes32",
          "name": "exitRoot",
          "type": "bytes32"
        },
        {
          "internalType": "bytes32",
          "name": "stateRoot",
          "type": "bytes32"
        }
      ],
      "stateMutability": "view",
      "type": "function"
    },
    {
      "inputs": [
        {
          "internalType": "uint64",
          "name": "initPendingStateNum",
          "type": "uint64"
        },
        {
          "internalType": "uint64",
          "name": "finalPendingStateNum",
          "type": "uint64"
        },
        {
          "internalType": "uint64",
          "name": "initNumBatch",
          "type": "uint64"
        },
        {
          "internalType": "uint64",
          "name": "finalNewBatch",
          "type": "uint64"
        },
        {
          "internalType": "bytes32",
          "name": "newLocalExitRoot",
          "type": "bytes32"
        },
        {
          "internalType": "bytes32",
          "name": "newStateRoot",
          "type": "bytes32"
        },
        {
          "internalType": "uint256[2]",
          "name": "proofA",
          "type": "uint256[2]"
        },
        {
          "internalType": "uint256[2][2]",
          "name": "proofB",
          "type": "uint256[2][2]"
        },
        {
          "internalType": "uint256[2]",
          "name": "proofC",
          "type": "uint256[2]"
        }
      ],
      "name": "proveNonDeterministicPendingState",
      "outputs": [],
      "stateMutability": "nonpayable",
      "type": "function"
    },
    {
      "inputs": [],
      "name": "renounceOwnership",
      "outputs": [],
      "stateMutability": "nonpayable",
      "type": "function"
    },
    {
      "inputs": [],
      "name": "rollupVerifier",
      "outputs": [
        {
          "internalType": "contract IVerifierRollup",
          "name": "",
          "type": "address"
        }
      ],
      "stateMutability": "view",
      "type": "function"
    },
    {
      "inputs": [
        {
          "components": [
            {
              "internalType": "bytes",
              "name": "transactions",
              "type": "bytes"
            },
            {
              "internalType": "bytes32",
              "name": "globalExitRoot",
              "type": "bytes32"
            },
            {
              "internalType": "uint64",
              "name": "timestamp",
              "type": "uint64"
            },
            {
              "internalType": "uint64",
              "name": "minForcedTimestamp",
              "type": "uint64"
            }
          ],
          "internalType": "struct PolygonZkEVM.BatchData[]",
          "name": "batches",
          "type": "tuple[]"
        },
        {
          "internalType": "address",
          "name": "feeRecipient",
          "type": "address"
        }
      ],
      "name": "sequenceBatches",
      "outputs": [],
      "stateMutability": "nonpayable",
      "type": "function"
    },
    {
      "inputs": [
        {
          "components": [
            {
              "internalType": "bytes",
              "name": "transactions",
              "type": "bytes"
            },
            {
              "internalType": "bytes32",
              "name": "globalExitRoot",
              "type": "bytes32"
            },
            {
              "internalType": "uint64",
              "name": "minForcedTimestamp",
              "type": "uint64"
            }
          ],
          "internalType": "struct PolygonZkEVM.ForcedBatchData[]",
          "name": "batches",
          "type": "tuple[]"
        }
      ],
      "name": "sequenceForceBatches",
      "outputs": [],
      "stateMutability": "nonpayable",
      "type": "function"
    },
    {
      "inputs": [
        {
          "internalType": "uint64",
          "name": "",
          "type": "uint64"
        }
      ],
      "name": "sequencedBatches",
      "outputs": [
        {
          "internalType": "bytes32",
          "name": "accInputHash",
          "type": "bytes32"
        },
        {
          "internalType": "uint64",
          "name": "sequencedTimestamp",
          "type": "uint64"
        },
        {
          "internalType": "uint64",
          "name": "previousLastBatchSequenced",
          "type": "uint64"
        }
      ],
      "stateMutability": "view",
      "type": "function"
    },
    {
      "inputs": [
        {
          "internalType": "uint16",
          "name": "newMultiplierBatchFee",
          "type": "uint16"
        }
      ],
      "name": "setMultiplierBatchFee",
      "outputs": [],
      "stateMutability": "nonpayable",
      "type": "function"
    },
    {
      "inputs": [
        {
          "internalType": "uint64",
          "name": "newPendingStateTimeout",
          "type": "uint64"
        }
      ],
      "name": "setPendingStateTimeout",
      "outputs": [],
      "stateMutability": "nonpayable",
      "type": "function"
    },
    {
      "inputs": [
        {
          "internalType": "address",
          "name": "newTrustedAggregator",
          "type": "address"
        }
      ],
      "name": "setTrustedAggregator",
      "outputs": [],
      "stateMutability": "nonpayable",
      "type": "function"
    },
    {
      "inputs": [
        {
          "internalType": "uint64",
          "name": "newTrustedAggregatorTimeout",
          "type": "uint64"
        }
      ],
      "name": "setTrustedAggregatorTimeout",
      "outputs": [],
      "stateMutability": "nonpayable",
      "type": "function"
    },
    {
      "inputs": [
        {
          "internalType": "address",
          "name": "newTrustedSequencer",
          "type": "address"
        }
      ],
      "name": "setTrustedSequencer",
      "outputs": [],
      "stateMutability": "nonpayable",
      "type": "function"
    },
    {
      "inputs": [
        {
          "internalType": "string",
          "name": "newTrustedSequencerURL",
          "type": "string"
        }
      ],
      "name": "setTrustedSequencerURL",
      "outputs": [],
      "stateMutability": "nonpayable",
      "type": "function"
    },
    {
      "inputs": [
        {
          "internalType": "uint64",
          "name": "newVerifyBatchTimeTarget",
          "type": "uint64"
        }
      ],
      "name": "setVerifyBatchTimeTarget",
      "outputs": [],
      "stateMutability": "nonpayable",
      "type": "function"
    },
    {
      "inputs": [
        {
          "internalType": "address",
          "name": "newPendingAdmin",
          "type": "address"
        }
      ],
      "name": "transferAdminRole",
      "outputs": [],
      "stateMutability": "nonpayable",
      "type": "function"
    },
    {
      "inputs": [
        {
          "internalType": "address",
          "name": "newOwner",
          "type": "address"
        }
      ],
      "name": "transferOwnership",
      "outputs": [],
      "stateMutability": "nonpayable",
      "type": "function"
    },
    {
      "inputs": [],
      "name": "trustedAggregator",
      "outputs": [
        {
          "internalType": "address",
          "name": "",
          "type": "address"
        }
      ],
      "stateMutability": "view",
      "type": "function"
    },
    {
      "inputs": [],
      "name": "trustedAggregatorTimeout",
      "outputs": [
        {
          "internalType": "uint64",
          "name": "",
          "type": "uint64"
        }
      ],
      "stateMutability": "view",
      "type": "function"
    },
    {
      "inputs": [],
      "name": "trustedSequencer",
      "outputs": [
        {
          "internalType": "address",
          "name": "",
          "type": "address"
        }
      ],
      "stateMutability": "view",
      "type": "function"
    },
    {
      "inputs": [],
      "name": "trustedSequencerURL",
      "outputs": [
        {
          "internalType": "string",
          "name": "",
          "type": "string"
        }
      ],
      "stateMutability": "view",
      "type": "function"
    },
    {
      "inputs": [],
      "name": "verifyBatchTimeTarget",
      "outputs": [
        {
          "internalType": "uint64",
          "name": "",
          "type": "uint64"
        }
      ],
      "stateMutability": "view",
      "type": "function"
    },
    {
      "inputs": [
        {
          "internalType": "uint64",
          "name": "pendingStateNum",
          "type": "uint64"
        },
        {
          "internalType": "uint64",
          "name": "initNumBatch",
          "type": "uint64"
        },
        {
          "internalType": "uint64",
          "name": "finalNewBatch",
          "type": "uint64"
        },
        {
          "internalType": "bytes32",
          "name": "newLocalExitRoot",
          "type": "bytes32"
        },
        {
          "internalType": "bytes32",
          "name": "newStateRoot",
          "type": "bytes32"
        },
        {
          "internalType": "uint256[2]",
          "name": "proofA",
          "type": "uint256[2]"
        },
        {
          "internalType": "uint256[2][2]",
          "name": "proofB",
          "type": "uint256[2][2]"
        },
        {
          "internalType": "uint256[2]",
          "name": "proofC",
          "type": "uint256[2]"
        }
      ],
      "name": "verifyBatches",
      "outputs": [],
      "stateMutability": "nonpayable",
      "type": "function"
    },
    {
      "inputs": [
        {
          "internalType": "uint64",
          "name": "pendingStateNum",
          "type": "uint64"
        },
        {
          "internalType": "uint64",
          "name": "initNumBatch",
          "type": "uint64"
        },
        {
          "internalType": "uint64",
          "name": "finalNewBatch",
          "type": "uint64"
        },
        {
          "internalType": "bytes32",
          "name": "newLocalExitRoot",
          "type": "bytes32"
        },
        {
          "internalType": "bytes32",
          "name": "newStateRoot",
          "type": "bytes32"
        },
        {
          "internalType": "uint256[2]",
          "name": "proofA",
          "type": "uint256[2]"
        },
        {
          "internalType": "uint256[2][2]",
          "name": "proofB",
          "type": "uint256[2][2]"
        },
        {
          "internalType": "uint256[2]",
          "name": "proofC",
          "type": "uint256[2]"
        }
      ],
      "name": "verifyBatchesTrustedAggregator",
      "outputs": [],
      "stateMutability": "nonpayable",
      "type": "function"
    }
  ],
  "bytecode": "0x6101406040523480156200001257600080fd5b506040516200464e3803806200464e8339810160408190526200003591620000a5565b6001600160a01b0395861660c05293851660805291841660a05290921660e0526001600160401b0391821661010052166101205262000131565b6001600160a01b03811681146200008557600080fd5b50565b80516001600160401b0381168114620000a057600080fd5b919050565b60008060008060008060c08789031215620000bf57600080fd5b8651620000cc816200006f565b6020880151909650620000df816200006f565b6040880151909550620000f2816200006f565b606088015190945062000105816200006f565b9250620001156080880162000088565b91506200012560a0880162000088565b90509295509295509295565b60805160a05160c05160e0516101005161012051614456620001f86000396000818161055e01528181610aed0152611e6a01526000818161069e0152610ac301526000818161066401528181612268015261316c0152600081816107a901528181610dcc015281816111d201528181612385015281816124f9015281816127960152612f9301526000818161084501528181612b1f015261344701526000818161074d0152818161146d015281816117a1015281816124cd0152612bea01526144566000f3fe608060405234801561001057600080fd5b506004361061030e5760003560e01c80638c3d73011161019e578063cfa8ed47116100ef578063e7a7ed021161009d578063e7a7ed0214610826578063e8bf92ed14610840578063eaeb077b14610867578063f020c93e1461087a578063f14916d61461088d578063f2fde38b146108a0578063f851a440146108b3578063f8b823e4146108c657600080fd5b8063cfa8ed471461078a578063d02103ca146107a4578063d2e129f9146107cb578063d8d1091b146107de578063d939b315146107f1578063dbc169761461080b578063e11f3f181461081357600080fd5b8063ada8f9191161014c578063ada8f91914610686578063adc879e914610699578063afd23cbe146106c0578063b4d63f58146106e8578063b6b0b09714610748578063c0ed84e01461076f578063c89e42df1461077757600080fd5b80638c3d7301146106105780638da5cb5b1461061857806399f5634e146106295780639c9f3dfe146106315780639f0d039d14610644578063a066215c1461064c578063a3c573eb1461065f57600080fd5b80634a1a89a711610263578063715018a611610211578063715018a6146105185780637215541a1461052057806375c508b3146105335780637fcb365314610546578063831c7ead14610559578063837a473814610580578063841b24d7146105ee578063888ce0981461060857600080fd5b80634a1a89a71461046f5780634a910e6a146104895780635392c5e01461049c578063542028d5146104ca5780635e9145c9146104d25780636b8616ce146104e55780636ff512cc1461050557600080fd5b806329878983116102c057806329878983146103d5578063383b3be8146103ef578063394218e914610402578063423fa85614610415578063456052671461042f578063458c0477146104495780634834a3431461045c57600080fd5b80630a0d9fbe14610313578063107bf28c1461034857806315064c961461035d5780631816b7e51461037a57806319d8ac611461038f578063220d7899146103a257806326782247146103b5575b600080fd5b606f5461032b9061010090046001600160401b031681565b6040516001600160401b0390911681526020015b60405180910390f35b6103506108cf565b60405161033f919061392a565b606f5461036a9060ff1681565b604051901515815260200161033f565b61038d610388366004613944565b61095d565b005b60735461032b906001600160401b031681565b6103506103b0366004613984565b610a16565b607b546103c8906001600160a01b031681565b60405161033f91906139d1565b6074546103c890600160401b90046001600160a01b031681565b61036a6103fd3660046139e5565b610b4b565b61038d6104103660046139e5565b610b92565b60735461032b90600160401b90046001600160401b031681565b60735461032b90600160801b90046001600160401b031681565b60795461032b906001600160401b031681565b61038d61046a366004613a28565b610c80565b60795461032b90600160401b90046001600160401b031681565b61038d6104973660046139e5565b610f31565b6104bc6104aa3660046139e5565b60756020526000908152604090205481565b60405190815260200161033f565b610350610fa0565b61038d6104e0366004613b17565b610fad565b6104bc6104f33660046139e5565b60716020526000908152604090205481565b61038d610513366004613b6a565b6114dd565b61038d61155c565b61038d61052e3660046139e5565b611570565b61038d610541366004613b85565b61167d565b60745461032b906001600160401b031681565b61032b7f000000000000000000000000000000000000000000000000000000000000000081565b6105c361058e366004613c23565b6078602052600090815260409020805460018201546002909201546001600160401b0380831693600160401b90930416919084565b604080516001600160401b03958616815294909316602085015291830152606082015260800161033f565b60795461032b90600160c01b90046001600160401b031681565b61032b600081565b61038d611718565b6033546001600160a01b03166103c8565b6104bc61179c565b61038d61063f3660046139e5565b6118a9565b6070546104bc565b61038d61065a3660046139e5565b61199c565b6103c87f000000000000000000000000000000000000000000000000000000000000000081565b61038d610694366004613b6a565b611a4b565b61032b7f000000000000000000000000000000000000000000000000000000000000000081565b606f546106d590600160481b900461ffff1681565b60405161ffff909116815260200161033f565b6107236106f63660046139e5565b607260205260009081526040902080546001909101546001600160401b0380821691600160401b90041683565b604080519384526001600160401b03928316602085015291169082015260600161033f565b6103c87f000000000000000000000000000000000000000000000000000000000000000081565b61032b611ac1565b61038d610785366004613cde565b611b0e565b606f546103c890600160581b90046001600160a01b031681565b6103c87f000000000000000000000000000000000000000000000000000000000000000081565b61038d6107d9366004613d53565b611b75565b61038d6107ec366004613e05565b611ef2565b60795461032b90600160801b90046001600160401b031681565b61038d61223b565b61038d610821366004613b85565b6122e1565b60735461032b90600160c01b90046001600160401b031681565b6103c87f000000000000000000000000000000000000000000000000000000000000000081565b61038d610875366004613e46565b61244a565b61038d610888366004613a28565b6126f3565b61038d61089b366004613b6a565b612837565b61038d6108ae366004613b6a565b6128b6565b607a546103c8906001600160a01b031681565b6104bc60705481565b607780546108dc90613e91565b80601f016020809104026020016040519081016040528092919081815260200182805461090890613e91565b80156109555780601f1061092a57610100808354040283529160200191610955565b820191906000526020600020905b81548152906001019060200180831161093857829003601f168201915b505050505081565b607a546001600160a01b0316331461098857604051634755657960e01b815260040160405180910390fd5b6103e88161ffff1610806109a157506103ff8161ffff16115b156109bf57604051630984a67960e31b815260040160405180910390fd5b606f805461ffff60481b1916600160481b61ffff8416908102919091179091556040519081527f7019933d795eba185c180209e8ae8bffbaa25bcef293364687702c31f4d302c5906020015b60405180910390a150565b6001600160401b038086166000818152607260205260408082205493881682529020546060929115801590610a49575081155b15610a675760405163340c614f60e11b815260040160405180910390fd5b80610a85576040516366385b5160e01b815260040160405180910390fd5b604080516001600160601b03193360601b166020820152603481019690965260548601929092526001600160c01b031960c098891b811660748701527f0000000000000000000000000000000000000000000000000000000000000000891b8116607c8701527f0000000000000000000000000000000000000000000000000000000000000000891b81166084870152608c86019490945260ac85015260cc840194909452509290931b90911660ec830152805180830360d401815260f4909201905290565b6079546001600160401b0382811660009081526078602052604081205490924292610b8192600160801b90920481169116613ee1565b6001600160401b0316111592915050565b607a546001600160a01b03163314610bbd57604051634755657960e01b815260040160405180910390fd5b62093a806001600160401b0382161115610bea57604051631d06e87960e01b815260040160405180910390fd5b606f5460ff16610c2a576079546001600160401b03600160c01b909104811690821610610c2a5760405163401636df60e01b815260040160405180910390fd5b607980546001600160c01b0316600160c01b6001600160401b038416908102919091179091556040519081527f1f4fa24c2e4bad19a7f3ec5c5485f70d46c798461c2e684f55bbd0fc661373a190602001610a0b565b606f5460ff1615610ca457604051630bc011ff60e21b815260040160405180910390fd5b6079546001600160401b038781166000908152607260205260409020600101544292610cdb92600160c01b90910481169116613ee1565b6001600160401b03161115610d0357604051638a0704d360e01b815260040160405180910390fd5b6103e8610d108888613f08565b6001600160401b03161115610d3857604051635acfba9d60e11b815260040160405180910390fd5b610d48888888888888888861292c565b610d5186612c1f565b607954600160801b90046001600160401b0316600003610e35576074805467ffffffffffffffff19166001600160401b0388811691821790925560009081526075602052604090208590556079541615610db657607980546001600160801b03191690555b6040516333d6247d60e01b8152600481018690527f00000000000000000000000000000000000000000000000000000000000000006001600160a01b0316906333d6247d90602401600060405180830381600087803b158015610e1857600080fd5b505af1158015610e2c573d6000803e3d6000fd5b50505050610ee6565b610e3d612e13565b607980546001600160401b0316906000610e5683613f28565b82546001600160401b039182166101009390930a92830292820219169190911790915560408051608081018252428316815289831660208083019182528284018b8152606084018b8152607954871660009081526078909352949091209251835492518616600160401b026001600160801b03199093169516949094171781559151600183015551600290910155505b60405184815233906001600160401b038816907f9c72852172521097ba7e1482e6b44b351323df0155f97f4ea18fcec28e1f5966906020015b60405180910390a35050505050505050565b607454600160401b90046001600160a01b03163314610f9457606f5460ff1615610f6e57604051630bc011ff60e21b815260040160405180910390fd5b610f7781610b4b565b610f9457604051630674f25160e11b815260040160405180910390fd5b610f9d81612eb3565b50565b607680546108dc90613e91565b606f5460ff1615610fd157604051630bc011ff60e21b815260040160405180910390fd5b606f54600160581b90046001600160a01b03163314611003576040516311e7be1560e01b815260040160405180910390fd5b8160008190036110265760405163cb591a5f60e01b815260040160405180910390fd5b6103e881111561104957604051635acfba9d60e11b815260040160405180910390fd5b6073546001600160401b03600160401b82048116600081815260726020526040812054838516949293600160801b909304909216919082905b868110156113305760008a8a8381811061109e5761109e613f4e565b90506020028101906110b09190613f64565b6110b990613f84565b805180516020909101206060820151919250906001600160401b0316156111a857856110e481613f28565b9650506000818360200151846060015160405160200161110693929190614010565b60408051601f1981840301815291815281516020928301206001600160401b038a166000908152607190935291205490915081146111575760405163671ebaaf60e11b815260040160405180910390fd5b6001600160401b0380881660009081526071602052604080822091909155606085015190850151908216911610156111a257604051633fbd5c3960e11b815260040160405180910390fd5b5061128d565b602082015115801590611249575060208201516040516312bd9b1960e11b815260048101919091527f00000000000000000000000000000000000000000000000000000000000000006001600160a01b03169063257b3632906024016020604051808303816000875af1158015611223573d6000803e3d6000fd5b505050506040513d601f19601f820116820180604052508101906112479190614033565b155b15611267576040516373bd668d60e01b815260040160405180910390fd5b815151620493e0101561128d576040516328a69b1f60e21b815260040160405180910390fd5b876001600160401b031682604001516001600160401b031610806112bd57504282604001516001600160401b0316115b156112db576040516375413c8b60e11b815260040160405180910390fd5b8481836020015184604001518d6040516020016112fc95949392919061404c565b60405160208183030381529060405280519060200120945081604001519750505080806113289061408b565b915050611082565b5061133b8685613ee1565b6073549094506001600160401b03600160c01b909104811690841611156113755760405163c630a00d60e01b815260040160405180910390fd5b60006113818285613f08565b611394906001600160401b0316886140a4565b60408051606081018252858152426001600160401b03908116602080840191825260738054600160401b9081900485168688019081528d861660008181526072909552979093209551865592516001909501805492519585166001600160801b03199384161795851684029590951790945583548c841691161793029290921790559091508281169085161461144a576073805467ffffffffffffffff60801b1916600160801b6001600160401b038716021790555b61149533308361145960705490565b61146391906140b7565b6001600160a01b037f00000000000000000000000000000000000000000000000000000000000000001692919061304d565b61149d612e13565b6040516001600160401b038616907f303446e6a8cb73c83dff421c0b1d5e5ce0719dab1bff13660fc254e58cc17fce90600090a250505050505050505050565b607a546001600160a01b0316331461150857604051634755657960e01b815260040160405180910390fd5b606f8054600160581b600160f81b031916600160581b6001600160a01b038416021790556040517ff54144f9611984021529f814a1cb6a41e22c58351510a0d9f7e822618abb9cc090610a0b9083906139d1565b6115646130be565b61156e6000613118565b565b6033546001600160a01b0316331461167557600061158c611ac1565b9050806001600160401b0316826001600160401b0316116115c05760405163812a372d60e01b815260040160405180910390fd5b6073546001600160401b03600160401b909104811690831611806115ff57506001600160401b0380831660009081526072602052604090206001015416155b1561161d57604051632631700560e21b815260040160405180910390fd5b6001600160401b03808316600090815260726020526040902060010154429161164b9162093a809116613ee1565b6001600160401b031611156116735760405163692baaad60e11b815260040160405180910390fd5b505b610f9d61316a565b606f5460ff16156116a157604051630bc011ff60e21b815260040160405180910390fd5b6116b28989898989898989896131e5565b6001600160401b0386166000908152607560209081526040918290205482519081529081018690527f1f44c21118c4603cfb4e1b621dbcfa2b73efcececee2b99b620b2953d33a7010910160405180910390a161170d61316a565b505050505050505050565b607b546001600160a01b031633146117435760405163d1ec4b2360e01b815260040160405180910390fd5b607b54607a80546001600160a01b0319166001600160a01b0390921691821790556040517f056dc487bbf0795d0bbb1b4f0af523a855503cff740bfb4d5475f7a90c091e8e91611792916139d1565b60405180910390a1565b6000807f00000000000000000000000000000000000000000000000000000000000000006001600160a01b03166370a08231306040518263ffffffff1660e01b81526004016117eb91906139d1565b602060405180830381865afa158015611808573d6000803e3d6000fd5b505050506040513d601f19601f8201168201806040525081019061182c9190614033565b90506000611838611ac1565b6073546001600160401b03600160401b820481169161186891600160801b8204811691600160c01b900416613f08565b6118729190613ee1565b61187c9190613f08565b6001600160401b03169050806000036118985760009250505090565b6118a281836140e4565b9250505090565b607a546001600160a01b031633146118d457604051634755657960e01b815260040160405180910390fd5b62093a806001600160401b038216111561190157604051630cc9650760e41b815260040160405180910390fd5b606f5460ff16611941576079546001600160401b03600160801b9091048116908216106119415760405163048a05a960e41b815260040160405180910390fd5b6079805467ffffffffffffffff60801b1916600160801b6001600160401b038416908102919091179091556040519081527fc4121f4e22c69632ebb7cf1f462be0511dc034f999b52013eddfb24aab765c7590602001610a0b565b607a546001600160a01b031633146119c757604051634755657960e01b815260040160405180910390fd5b62015180816001600160401b031611156119f457604051631c0cfbfd60e31b815260040160405180910390fd5b606f805468ffffffffffffffff0019166101006001600160401b038416908102919091179091556040519081527f1b023231a1ab6b5d93992f168fb44498e1a7e64cef58daff6f1c216de6a68c2890602001610a0b565b607a546001600160a01b03163314611a7657604051634755657960e01b815260040160405180910390fd5b607b80546001600160a01b0319166001600160a01b0383161790556040517fa5b56b7906fd0a20e3f35120dd8343db1e12e037a6c90111c7e42885e82a1ce690610a0b9083906139d1565b6079546000906001600160401b031615611afe57506079546001600160401b03908116600090815260786020526040902054600160401b90041690565b506074546001600160401b031690565b607a546001600160a01b03163314611b3957604051634755657960e01b815260040160405180910390fd5b6076611b458282614146565b507f6b8f723a4c7a5335cafae8a598a0aa0301be1387c037dccc085b62add6448b2081604051610a0b919061392a565b600054610100900460ff1615808015611b955750600054600160ff909116105b80611baf5750303b158015611baf575060005460ff166001145b611c175760405162461bcd60e51b815260206004820152602e60248201527f496e697469616c697a61626c653a20636f6e747261637420697320616c72656160448201526d191e481a5b9a5d1a585b1a5e995960921b60648201526084015b60405180910390fd5b6000805460ff191660011790558015611c3a576000805461ff0019166101001790555b611c476020880188613b6a565b607a80546001600160a01b0319166001600160a01b0392909216919091179055611c776040880160208901613b6a565b606f80546001600160a01b0392909216600160581b02600160581b600160f81b0319909216919091179055611cb26080880160608901613b6a565b607480546001600160a01b0392909216600160401b02600160401b600160e01b03199092169190911790556000805260756020527ff9e3fbf150b7a0077118526f473c53cb4734f166167e2c6213e3567dd390b4ad8690556076611d168682614146565b506077611d238582614146565b5062093a80611d386060890160408a016139e5565b6001600160401b03161115611d6057604051630cc9650760e41b815260040160405180910390fd5b611d7060608801604089016139e5565b607980546001600160401b0392909216600160801b0267ffffffffffffffff60801b1990921691909117905562093a80611db060a0890160808a016139e5565b6001600160401b03161115611dd857604051631d06e87960e01b815260040160405180910390fd5b611de860a08801608089016139e5565b607980546001600160c01b0316600160c01b6001600160401b039390931692909202919091179055670de0b6b3a7640000607055606f80546affffffffffffffffffff0019166a03ea000000000000070800179055611e4561351b565b7fed7be53c9f1a96a481223b15568a5b1a475e01a74b347d6ca187c8bf0c078cd660007f00000000000000000000000000000000000000000000000000000000000000008585604051611e9b949392919061422e565b60405180910390a18015611ee9576000805461ff0019169055604051600181527f7f26b83ff96e1f2b6a682f133852f6798a09c465da95921460cefb38474024989060200160405180910390a15b50505050505050565b606f5460ff1615611f1657604051630bc011ff60e21b815260040160405180910390fd5b806000819003611f395760405163cb591a5f60e01b815260040160405180910390fd5b6103e8811115611f5c57604051635acfba9d60e11b815260040160405180910390fd5b6073546001600160401b03600160c01b8204811691611f84918491600160801b900416614265565b1115611fa35760405163c630a00d60e01b815260040160405180910390fd5b6073546001600160401b03600160401b820481166000818152607260205260408120549193600160801b9004909216915b84811015612143576000878783818110611ff057611ff0613f4e565b90506020028101906120029190614278565b61200b9061428e565b90508361201781613f28565b825180516020918201208185015160408087015190519499509194506000936120439386939101614010565b60408051601f1981840301815291815281516020928301206001600160401b0389166000908152607190935291205490915081146120945760405163671ebaaf60e11b815260040160405180910390fd5b6001600160401b0386166000908152607160205260408120556120b86001896140a4565b84036120f85742600084604001516120d09190613ee1565b6001600160401b031611156120f85760405163c44a082160e01b815260040160405180910390fd5b84828460200151423360405160200161211595949392919061404c565b604051602081830303815290604052805190602001209450505050808061213b9061408b565b915050611fd4565b5061214e8484613ee1565b607380546001600160401b0342811667ffffffffffffffff199092168217808455604080516060810182528781526020808201958652600160401b9384900485168284019081528589166000818152607290935284832093518455965160019390930180549151871686026001600160801b031990921693871693909317179091558554938916600160801b0267ffffffffffffffff60801b1993860293909316600160401b600160c01b031990941693909317919091179093559151929550917f648a61dd2438f072f5a1960939abd30f37aea80d2e94c9792ad142d3e0a490a49190a2505050505050565b607a546001600160a01b0316331461226657604051634755657960e01b815260040160405180910390fd5b7f00000000000000000000000000000000000000000000000000000000000000006001600160a01b031663dbc169766040518163ffffffff1660e01b8152600401600060405180830381600087803b1580156122c157600080fd5b505af11580156122d5573d6000803e3d6000fd5b5050505061156e61358f565b607454600160401b90046001600160a01b031633146123135760405163bbcbbc0560e01b815260040160405180910390fd5b6123248989898989898989896131e5565b6074805467ffffffffffffffff19166001600160401b038881169182179092556000908152607560205260409020859055607954161561236f57607980546001600160801b03191690555b6040516333d6247d60e01b8152600481018690527f00000000000000000000000000000000000000000000000000000000000000006001600160a01b0316906333d6247d90602401600060405180830381600087803b1580156123d157600080fd5b505af11580156123e5573d6000803e3d6000fd5b5050607980546001600160c01b031661127560c71b179055505060405184815233906001600160401b038816907fcc1b5520188bf1dd3e63f98164b577c4d75c11a619ddea692112f0d1aec4cf729060200160405180910390a3505050505050505050565b606f5460ff161561246e57604051630bc011ff60e21b815260040160405180910390fd5b600061247960705490565b90508181111561249c57604051634732fdb560e01b815260040160405180910390fd5b620493e08311156124c0576040516328a69b1f60e21b815260040160405180910390fd5b6124f56001600160a01b037f00000000000000000000000000000000000000000000000000000000000000001633308461304d565b60007f00000000000000000000000000000000000000000000000000000000000000006001600160a01b0316633ed691ef6040518163ffffffff1660e01b8152600401602060405180830381865afa158015612555573d6000803e3d6000fd5b505050506040513d601f19601f820116820180604052508101906125799190614033565b60738054919250600160c01b9091046001600160401b031690601861259d83613f28565b91906101000a8154816001600160401b0302191690836001600160401b031602179055505084846040516125d2929190614309565b6040519081900381206125eb9183904290602001614010565b60408051808303601f190181529181528151602092830120607354600160c01b90046001600160401b03166000908152607190935291205532330361268f57607354604080518381523360208201526060918101829052600091810191909152600160c01b9091046001600160401b0316907ff94bb37db835f1ab585ee00041849a09b12cd081d77fa15ca070757619cbc9319060800160405180910390a26126ec565b607360189054906101000a90046001600160401b03166001600160401b03167ff94bb37db835f1ab585ee00041849a09b12cd081d77fa15ca070757619cbc931823388886040516126e39493929190614319565b60405180910390a25b5050505050565b607454600160401b90046001600160a01b031633146127255760405163bbcbbc0560e01b815260040160405180910390fd5b612735888888888888888861292c565b6074805467ffffffffffffffff19166001600160401b038881169182179092556000908152607560205260409020859055607954161561278057607980546001600160801b03191690555b6040516333d6247d60e01b8152600481018690527f00000000000000000000000000000000000000000000000000000000000000006001600160a01b0316906333d6247d90602401600060405180830381600087803b1580156127e257600080fd5b505af11580156127f6573d6000803e3d6000fd5b50506040518681523392506001600160401b03891691507fcb339b570a7f0b25afa7333371ff11192092a0aeace12b671f4c212f2815c6fe90602001610f1f565b607a546001600160a01b0316331461286257604051634755657960e01b815260040160405180910390fd5b60748054600160401b600160e01b031916600160401b6001600160a01b038416021790556040517f61f8fec29495a3078e9271456f05fb0707fd4e41f7661865f80fc437d06681ca90610a0b9083906139d1565b6128be6130be565b6001600160a01b0381166129235760405162461bcd60e51b815260206004820152602660248201527f4f776e61626c653a206e6577206f776e657220697320746865207a65726f206160448201526564647265737360d01b6064820152608401611c0e565b610f9d81613118565b600080612937611ac1565b90506001600160401b038a16156129cd576079546001600160401b03908116908b1611156129785760405163bb14c20560e01b815260040160405180910390fd5b6001600160401b03808b1660009081526078602052604090206002810154815490945090918b8116600160401b90920416146129c757604051632bd2e3e760e01b815260040160405180910390fd5b50612a39565b6001600160401b038916600090815260756020526040902054915081612a06576040516324cbdcc360e11b815260040160405180910390fd5b806001600160401b0316896001600160401b03161115612a3957604051630f2b74f160e11b815260040160405180910390fd5b806001600160401b0316886001600160401b031611612a6b5760405163b9b18f5760e01b815260040160405180910390fd5b6000612a7a8a8a8a868b610a16565b905060007f30644e72e131a029b85045b68181585d2833e84879b9709143e1f593f0000001600283604051612aaf9190614344565b602060405180830381855afa158015612acc573d6000803e3d6000fd5b5050506040513d601f19601f82011682018060405250810190612aef9190614033565b612af99190614356565b6040805160208101825282815290516343753b4d60e01b81529192506001600160a01b037f000000000000000000000000000000000000000000000000000000000000000016916343753b4d91612b59918b918b918b919060040161436a565b602060405180830381865afa158015612b76573d6000803e3d6000fd5b505050506040513d601f19601f82011682018060405250810190612b9a91906143d8565b612bb7576040516309bde33960e01b815260040160405180910390fd5b612c1133612bc5858d613f08565b6001600160401b0316612bd661179c565b612be091906140b7565b6001600160a01b037f00000000000000000000000000000000000000000000000000000000000000001691906135e7565b505050505050505050505050565b6000612c29611ac1565b905081600080612c398484613f08565b606f546001600160401b039182169250600091612c5c91610100900416426140a4565b90505b846001600160401b0316846001600160401b031614612cfc576001600160401b0380851660009081526072602052604090206001810154909116821015612cf0576001810154612cbf90600160401b90046001600160401b031686613f08565b612cd2906001600160401b031685614265565b6001820154600160401b90046001600160401b031695509350612cf6565b50612cfc565b50612c5f565b6000612d0884846140a4565b905080841015612d5f57838103600c8111612d235780612d26565b600c5b9050806103e80a81606f60099054906101000a900461ffff1661ffff160a6070540281612d5557612d556140ce565b0460705550612dcf565b808403600c8111612d705780612d73565b600c5b90506000816103e80a82606f60099054906101000a900461ffff1661ffff160a670de0b6b3a76400000281612daa57612daa6140ce565b04905080607054670de0b6b3a76400000281612dc857612dc86140ce565b0460705550505b683635c9adc5dea000006070541115612df457683635c9adc5dea00000607055611ee9565b633b9aca006070541015611ee957633b9aca0060705550505050505050565b6079546001600160401b03600160401b820481169116111561156e57607954600090612e5090600160401b90046001600160401b03166001613ee1565b9050612e5b81610b4b565b15610f9d57607954600090600290612e7d9084906001600160401b0316613f08565b612e8791906143fa565b612e919083613ee1565b9050612e9c81610b4b565b15612eae57612eaa81612eb3565b5050565b612eaa825b6079546001600160401b03600160401b9091048116908216111580612ee657506079546001600160401b03908116908216115b15612f045760405163d086b70b60e01b815260040160405180910390fd5b6001600160401b038181166000818152607860209081526040808320805460748054600160401b9283900490981667ffffffffffffffff19909816881790556002820154878652607590945293829020929092556079805467ffffffffffffffff60401b19169390940292909217909255600182015490516333d6247d60e01b815260048101919091529091907f00000000000000000000000000000000000000000000000000000000000000006001600160a01b0316906333d6247d90602401600060405180830381600087803b158015612fdf57600080fd5b505af1158015612ff3573d6000803e3d6000fd5b50505050826001600160401b0316816001600160401b03167f328d3c6c0fd6f1be0515e422f2d87e59f25922cbc2233568515a0c4bc3f8510e846002015460405161304091815260200190565b60405180910390a3505050565b6040516001600160a01b03808516602483015283166044820152606481018290526130b89085906323b872dd60e01b906084015b60408051601f198184030181529190526020810180516001600160e01b03166001600160e01b03199093169290921790915261361c565b50505050565b6033546001600160a01b0316331461156e5760405162461bcd60e51b815260206004820181905260248201527f4f776e61626c653a2063616c6c6572206973206e6f7420746865206f776e65726044820152606401611c0e565b603380546001600160a01b038381166001600160a01b0319831681179093556040519116919082907f8be0079c531659141344cd1fd0a4f28419497f9722a3daafe3b4186f6b6457e090600090a35050565b7f00000000000000000000000000000000000000000000000000000000000000006001600160a01b0316632072f6c56040518163ffffffff1660e01b8152600401600060405180830381600087803b1580156131c557600080fd5b505af11580156131d9573d6000803e3d6000fd5b5050505061156e6136ee565b60006001600160401b038a1615613279576079546001600160401b03908116908b1611156132265760405163bb14c20560e01b815260040160405180910390fd5b506001600160401b03808a1660009081526078602052604090206002810154815490928a8116600160401b909204161461327357604051632bd2e3e760e01b815260040160405180910390fd5b506132e1565b506001600160401b038716600090815260756020526040902054806132b1576040516324cbdcc360e11b815260040160405180910390fd5b6074546001600160401b0390811690891611156132e157604051630f2b74f160e11b815260040160405180910390fd5b6079546001600160401b03908116908a1611806133105750896001600160401b0316896001600160401b031611155b8061333157506079546001600160401b03600160401b9091048116908a1611155b1561334f5760405163bfa7079f60e01b815260040160405180910390fd5b6001600160401b03898116600090815260786020526040902054600160401b9004811690881614613393576040516332a2a77f60e01b815260040160405180910390fd5b60006133a2898989858a610a16565b905060007f30644e72e131a029b85045b68181585d2833e84879b9709143e1f593f00000016002836040516133d79190614344565b602060405180830381855afa1580156133f4573d6000803e3d6000fd5b5050506040513d601f19601f820116820180604052508101906134179190614033565b6134219190614356565b6040805160208101825282815290516343753b4d60e01b81529192506001600160a01b037f000000000000000000000000000000000000000000000000000000000000000016916343753b4d91613481918a918a918a919060040161436a565b602060405180830381865afa15801561349e573d6000803e3d6000fd5b505050506040513d601f19601f820116820180604052508101906134c291906143d8565b6134df576040516309bde33960e01b815260040160405180910390fd5b6001600160401b038b16600090815260786020526040902060020154879003612c115760405163a47276bd60e01b815260040160405180910390fd5b600054610100900460ff166135865760405162461bcd60e51b815260206004820152602b60248201527f496e697469616c697a61626c653a20636f6e7472616374206973206e6f74206960448201526a6e697469616c697a696e6760a81b6064820152608401611c0e565b61156e33613118565b606f5460ff166135b257604051635386698160e01b815260040160405180910390fd5b606f805460ff191690556040517f1e5e34eea33501aecf2ebec9fe0e884a40804275ea7fe10b2ba084c8374308b390600090a1565b6040516001600160a01b03831660248201526044810182905261361790849063a9059cbb60e01b90606401613081565b505050565b6000613671826040518060400160405280602081526020017f5361666545524332303a206c6f772d6c6576656c2063616c6c206661696c6564815250856001600160a01b031661374a9092919063ffffffff16565b805190915015613617578080602001905181019061368f91906143d8565b6136175760405162461bcd60e51b815260206004820152602a60248201527f5361666545524332303a204552433230206f7065726174696f6e20646964206e6044820152691bdd081cdd58d8d9595960b21b6064820152608401611c0e565b606f5460ff161561371257604051630bc011ff60e21b815260040160405180910390fd5b606f805460ff191660011790556040517f2261efe5aef6fedc1fd1550b25facc9181745623049c7901287030b9ad1a549790600090a1565b60606137598484600085613761565b949350505050565b6060824710156137c25760405162461bcd60e51b815260206004820152602660248201527f416464726573733a20696e73756666696369656e742062616c616e636520666f6044820152651c8818d85b1b60d21b6064820152608401611c0e565b600080866001600160a01b031685876040516137de9190614344565b60006040518083038185875af1925050503d806000811461381b576040519150601f19603f3d011682016040523d82523d6000602084013e613820565b606091505b50915091506138318783838761383c565b979650505050505050565b606083156138ab5782516000036138a4576001600160a01b0385163b6138a45760405162461bcd60e51b815260206004820152601d60248201527f416464726573733a2063616c6c20746f206e6f6e2d636f6e74726163740000006044820152606401611c0e565b5081613759565b61375983838151156138c05781518083602001fd5b8060405162461bcd60e51b8152600401611c0e919061392a565b60005b838110156138f55781810151838201526020016138dd565b50506000910152565b600081518084526139168160208601602086016138da565b601f01601f19169290920160200192915050565b60208152600061393d60208301846138fe565b9392505050565b60006020828403121561395657600080fd5b813561ffff8116811461393d57600080fd5b80356001600160401b038116811461397f57600080fd5b919050565b600080600080600060a0868803121561399c57600080fd5b6139a586613968565b94506139b360208701613968565b94979496505050506040830135926060810135926080909101359150565b6001600160a01b0391909116815260200190565b6000602082840312156139f757600080fd5b61393d82613968565b8060408101831015613a1157600080fd5b92915050565b8060808101831015613a1157600080fd5b6000806000806000806000806101a0898b031215613a4557600080fd5b613a4e89613968565b9750613a5c60208a01613968565b9650613a6a60408a01613968565b95506060890135945060808901359350613a878a60a08b01613a00565b9250613a968a60e08b01613a17565b9150613aa68a6101608b01613a00565b90509295985092959890939650565b60008083601f840112613ac757600080fd5b5081356001600160401b03811115613ade57600080fd5b6020830191508360208260051b8501011115613af957600080fd5b9250929050565b80356001600160a01b038116811461397f57600080fd5b600080600060408486031215613b2c57600080fd5b83356001600160401b03811115613b4257600080fd5b613b4e86828701613ab5565b9094509250613b61905060208501613b00565b90509250925092565b600060208284031215613b7c57600080fd5b61393d82613b00565b60008060008060008060008060006101c08a8c031215613ba457600080fd5b613bad8a613968565b9850613bbb60208b01613968565b9750613bc960408b01613968565b9650613bd760608b01613968565b955060808a0135945060a08a01359350613bf48b60c08c01613a00565b9250613c048b6101008c01613a17565b9150613c148b6101808c01613a00565b90509295985092959850929598565b600060208284031215613c3557600080fd5b5035919050565b634e487b7160e01b600052604160045260246000fd5b600082601f830112613c6357600080fd5b81356001600160401b0380821115613c7d57613c7d613c3c565b604051601f8301601f19908116603f01168101908282118183101715613ca557613ca5613c3c565b81604052838152866020858801011115613cbe57600080fd5b836020870160208301376000602085830101528094505050505092915050565b600060208284031215613cf057600080fd5b81356001600160401b03811115613d0657600080fd5b61375984828501613c52565b60008083601f840112613d2457600080fd5b5081356001600160401b03811115613d3b57600080fd5b602083019150836020828501011115613af957600080fd5b600080600080600080868803610120811215613d6e57600080fd5b60a0811215613d7c57600080fd5b5086955060a0870135945060c08701356001600160401b0380821115613da157600080fd5b613dad8a838b01613c52565b955060e0890135915080821115613dc357600080fd5b613dcf8a838b01613c52565b9450610100890135915080821115613de657600080fd5b50613df389828a01613d12565b979a9699509497509295939492505050565b60008060208385031215613e1857600080fd5b82356001600160401b03811115613e2e57600080fd5b613e3a85828601613ab5565b90969095509350505050565b600080600060408486031215613e5b57600080fd5b83356001600160401b03811115613e7157600080fd5b613e7d86828701613d12565b909790965060209590950135949350505050565b600181811c90821680613ea557607f821691505b602082108103613ec557634e487b7160e01b600052602260045260246000fd5b50919050565b634e487b7160e01b600052601160045260246000fd5b6001600160401b03818116838216019080821115613f0157613f01613ecb565b5092915050565b6001600160401b03828116828216039080821115613f0157613f01613ecb565b60006001600160401b03808316818103613f4457613f44613ecb565b6001019392505050565b634e487b7160e01b600052603260045260246000fd5b60008235607e19833603018112613f7a57600080fd5b9190910192915050565b600060808236031215613f9657600080fd5b604051608081016001600160401b038282108183111715613fb957613fb9613c3c565b816040528435915080821115613fce57600080fd5b50613fdb36828601613c52565b82525060208301356020820152613ff460408401613968565b604082015261400560608401613968565b606082015292915050565b928352602083019190915260c01b6001600160c01b031916604082015260480190565b60006020828403121561404557600080fd5b5051919050565b9485526020850193909352604084019190915260c01b6001600160c01b0319166060808401919091521b6001600160601b0319166068820152607c0190565b60006001820161409d5761409d613ecb565b5060010190565b81810381811115613a1157613a11613ecb565b8082028115828204841417613a1157613a11613ecb565b634e487b7160e01b600052601260045260246000fd5b6000826140f3576140f36140ce565b500490565b601f82111561361757600081815260208120601f850160051c8101602086101561411f5750805b601f850160051c820191505b8181101561413e5782815560010161412b565b505050505050565b81516001600160401b0381111561415f5761415f613c3c565b6141738161416d8454613e91565b846140f8565b602080601f8311600181146141a857600084156141905750858301515b600019600386901b1c1916600185901b17855561413e565b600085815260208120601f198616915b828110156141d7578886015182559484019460019091019084016141b8565b50858210156141f55787850151600019600388901b60f8161c191681555b5050505050600190811b01905550565b81835281816020850137506000828201602090810191909152601f909101601f19169091010190565b60006001600160401b0380871683528086166020840152506060604083015261425b606083018486614205565b9695505050505050565b80820180821115613a1157613a11613ecb565b60008235605e19833603018112613f7a57600080fd5b6000606082360312156142a057600080fd5b604051606081016001600160401b0382821081831117156142c3576142c3613c3c565b8160405284359150808211156142d857600080fd5b506142e536828601613c52565b825250602083013560208201526142fe60408401613968565b604082015292915050565b8183823760009101908152919050565b8481526001600160a01b038416602082015260606040820181905260009061425b9083018486614205565b60008251613f7a8184602087016138da565b600082614365576143656140ce565b500690565b61012081016040808784378083018660005b60028110156143995783828437918301919083019060010161437c565b505050808560c08501375061010082018360005b60018110156143cc5781518352602092830192909101906001016143ad565b50505095945050505050565b6000602082840312156143ea57600080fd5b8151801515811461393d57600080fd5b60006001600160401b0380841680614414576144146140ce565b9216919091049291505056fea26469706673582212209bceb5e3f5c11cd9b68d3073418218db6ba0c45271ec26ef36dd7feae486280264736f6c63430008110033",
  "linkReferences": {},
  "deployedLinkReferences": {}
}