{
  "_format": "hh-sol-artifact-1",
  "contractName": "PolygonZkEVM",
  "sourceName": "contracts/PolygonZkEVM.sol",
  "abi": [
    {
      "inputs": [
        {
          "internalType": "contract IPolygonZkEVMGlobalExitRoot",
          "name": "_globalExitRootManager",
          "type": "address"
        },
        {
          "internalType": "contract IERC20Upgradeable",
          "name": "_matic",
          "type": "address"
        },
        {
          "internalType": "contract IVerifierRollup",
          "name": "_rollupVerifier",
          "type": "address"
        },
        {
          "internalType": "contract IPolygonZkEVMBridge",
          "name": "_bridgeAddress",
          "type": "address"
        },
        {
          "internalType": "contract IHotShot",
          "name": "_hotshotAddress",
          "type": "address"
        },
        {
          "internalType": "uint64",
          "name": "_chainID",
          "type": "uint64"
        },
        {
          "internalType": "uint64",
          "name": "_forkID",
          "type": "uint64"
        }
      ],
      "stateMutability": "nonpayable",
      "type": "constructor"
    },
    {
      "inputs": [],
      "name": "BatchAlreadyVerified",
      "type": "error"
    },
    {
      "inputs": [],
      "name": "BatchNotSequencedOrNotSequenceEnd",
      "type": "error"
    },
    {
      "inputs": [],
      "name": "ExceedMaxVerifyBatches",
      "type": "error"
    },
    {
      "inputs": [],
      "name": "FinalNumBatchBelowLastVerifiedBatch",
      "type": "error"
    },
    {
      "inputs": [],
      "name": "FinalNumBatchDoesNotMatchPendingState",
      "type": "error"
    },
    {
      "inputs": [],
      "name": "FinalPendingStateNumInvalid",
      "type": "error"
    },
    {
      "inputs": [],
      "name": "ForceBatchTimeoutNotExpired",
      "type": "error"
    },
    {
      "inputs": [],
      "name": "ForceBatchesOverflow",
      "type": "error"
    },
    {
      "inputs": [],
      "name": "ForcedDataDoesNotMatch",
      "type": "error"
    },
    {
      "inputs": [],
      "name": "GlobalExitRootNotExist",
      "type": "error"
    },
    {
      "inputs": [],
      "name": "HaltTimeoutNotExpired",
      "type": "error"
    },
    {
      "inputs": [],
      "name": "InitNumBatchAboveLastVerifiedBatch",
      "type": "error"
    },
    {
      "inputs": [],
      "name": "InitNumBatchDoesNotMatchPendingState",
      "type": "error"
    },
    {
      "inputs": [],
      "name": "InvalidProof",
      "type": "error"
    },
    {
      "inputs": [],
      "name": "InvalidRangeBatchTimeTarget",
      "type": "error"
    },
    {
      "inputs": [],
      "name": "InvalidRangeMultiplierBatchFee",
      "type": "error"
    },
    {
      "inputs": [],
      "name": "NewAccInputHashDoesNotExist",
      "type": "error"
    },
    {
      "inputs": [],
      "name": "NewPendingStateTimeoutMustBeLower",
      "type": "error"
    },
    {
      "inputs": [],
      "name": "NewTrustedAggregatorTimeoutMustBeLower",
      "type": "error"
    },
    {
      "inputs": [],
      "name": "NotEnoughMaticAmount",
      "type": "error"
    },
    {
      "inputs": [],
      "name": "OldAccInputHashDoesNotExist",
      "type": "error"
    },
    {
      "inputs": [],
      "name": "OldStateRootDoesNotExist",
      "type": "error"
    },
    {
      "inputs": [],
      "name": "OnlyAdmin",
      "type": "error"
    },
    {
      "inputs": [],
      "name": "OnlyEmergencyState",
      "type": "error"
    },
    {
      "inputs": [],
      "name": "OnlyNotEmergencyState",
      "type": "error"
    },
    {
      "inputs": [],
      "name": "OnlyPendingAdmin",
      "type": "error"
    },
    {
      "inputs": [],
      "name": "OnlyTrustedAggregator",
      "type": "error"
    },
    {
      "inputs": [],
      "name": "OnlyTrustedSequencer",
      "type": "error"
    },
    {
      "inputs": [],
      "name": "PendingStateDoesNotExist",
      "type": "error"
    },
    {
      "inputs": [],
      "name": "PendingStateInvalid",
      "type": "error"
    },
    {
      "inputs": [],
      "name": "PendingStateNotConsolidable",
      "type": "error"
    },
    {
      "inputs": [],
      "name": "PendingStateTimeoutExceedHaltAggregationTimeout",
      "type": "error"
    },
    {
      "inputs": [],
      "name": "SequenceZeroBatches",
      "type": "error"
    },
    {
      "inputs": [],
      "name": "SequencedTimestampBelowForcedTimestamp",
      "type": "error"
    },
    {
      "inputs": [],
      "name": "SequencedTimestampInvalid",
      "type": "error"
    },
    {
      "inputs": [],
      "name": "StoredRootMustBeDifferentThanNewRoot",
      "type": "error"
    },
    {
      "inputs": [],
      "name": "TransactionsLengthAboveMax",
      "type": "error"
    },
    {
      "inputs": [],
      "name": "TrustedAggregatorTimeoutExceedHaltAggregationTimeout",
      "type": "error"
    },
    {
      "inputs": [],
      "name": "TrustedAggregatorTimeoutNotExpired",
      "type": "error"
    },
    {
      "anonymous": false,
      "inputs": [
        {
          "indexed": false,
          "internalType": "address",
          "name": "newAdmin",
          "type": "address"
        }
      ],
      "name": "AcceptAdminRole",
      "type": "event"
    },
    {
      "anonymous": false,
      "inputs": [
        {
          "indexed": true,
          "internalType": "uint64",
          "name": "numBatch",
          "type": "uint64"
        },
        {
          "indexed": false,
          "internalType": "bytes32",
          "name": "stateRoot",
          "type": "bytes32"
        },
        {
          "indexed": true,
          "internalType": "uint64",
          "name": "pendingStateNum",
          "type": "uint64"
        }
      ],
      "name": "ConsolidatePendingState",
      "type": "event"
    },
    {
      "anonymous": false,
      "inputs": [],
      "name": "EmergencyStateActivated",
      "type": "event"
    },
    {
      "anonymous": false,
      "inputs": [],
      "name": "EmergencyStateDeactivated",
      "type": "event"
    },
    {
      "anonymous": false,
      "inputs": [
        {
          "indexed": true,
          "internalType": "uint64",
          "name": "forceBatchNum",
          "type": "uint64"
        },
        {
          "indexed": false,
          "internalType": "bytes32",
          "name": "lastGlobalExitRoot",
          "type": "bytes32"
        },
        {
          "indexed": false,
          "internalType": "address",
          "name": "sequencer",
          "type": "address"
        },
        {
          "indexed": false,
          "internalType": "bytes",
          "name": "transactions",
          "type": "bytes"
        }
      ],
      "name": "ForceBatch",
      "type": "event"
    },
    {
      "anonymous": false,
      "inputs": [
        {
          "indexed": false,
          "internalType": "uint8",
          "name": "version",
          "type": "uint8"
        }
      ],
      "name": "Initialized",
      "type": "event"
    },
    {
      "anonymous": false,
      "inputs": [
        {
          "indexed": true,
          "internalType": "uint64",
          "name": "numBatch",
          "type": "uint64"
        },
        {
          "indexed": false,
          "internalType": "bytes32",
          "name": "stateRoot",
          "type": "bytes32"
        },
        {
          "indexed": true,
          "internalType": "address",
          "name": "aggregator",
          "type": "address"
        }
      ],
      "name": "OverridePendingState",
      "type": "event"
    },
    {
      "anonymous": false,
      "inputs": [
        {
          "indexed": true,
          "internalType": "address",
          "name": "previousOwner",
          "type": "address"
        },
        {
          "indexed": true,
          "internalType": "address",
          "name": "newOwner",
          "type": "address"
        }
      ],
      "name": "OwnershipTransferred",
      "type": "event"
    },
    {
      "anonymous": false,
      "inputs": [
        {
          "indexed": false,
          "internalType": "bytes32",
          "name": "storedStateRoot",
          "type": "bytes32"
        },
        {
          "indexed": false,
          "internalType": "bytes32",
          "name": "provedStateRoot",
          "type": "bytes32"
        }
      ],
      "name": "ProveNonDeterministicPendingState",
      "type": "event"
    },
    {
      "anonymous": false,
      "inputs": [
        {
          "indexed": true,
          "internalType": "uint64",
          "name": "numBatch",
          "type": "uint64"
        }
      ],
      "name": "SequenceBatches",
      "type": "event"
    },
    {
      "anonymous": false,
      "inputs": [
        {
          "indexed": true,
          "internalType": "uint64",
          "name": "numBatch",
          "type": "uint64"
        }
      ],
      "name": "SequenceForceBatches",
      "type": "event"
    },
    {
      "anonymous": false,
      "inputs": [
        {
          "indexed": false,
          "internalType": "uint16",
          "name": "newMultiplierBatchFee",
          "type": "uint16"
        }
      ],
      "name": "SetMultiplierBatchFee",
      "type": "event"
    },
    {
      "anonymous": false,
      "inputs": [
        {
          "indexed": false,
          "internalType": "uint64",
          "name": "newPendingStateTimeout",
          "type": "uint64"
        }
      ],
      "name": "SetPendingStateTimeout",
      "type": "event"
    },
    {
      "anonymous": false,
      "inputs": [
        {
          "indexed": false,
          "internalType": "address",
          "name": "newTrustedAggregator",
          "type": "address"
        }
      ],
      "name": "SetTrustedAggregator",
      "type": "event"
    },
    {
      "anonymous": false,
      "inputs": [
        {
          "indexed": false,
          "internalType": "uint64",
          "name": "newTrustedAggregatorTimeout",
          "type": "uint64"
        }
      ],
      "name": "SetTrustedAggregatorTimeout",
      "type": "event"
    },
    {
      "anonymous": false,
      "inputs": [
        {
          "indexed": false,
          "internalType": "address",
          "name": "newTrustedSequencer",
          "type": "address"
        }
      ],
      "name": "SetTrustedSequencer",
      "type": "event"
    },
    {
      "anonymous": false,
      "inputs": [
        {
          "indexed": false,
          "internalType": "string",
          "name": "newTrustedSequencerURL",
          "type": "string"
        }
      ],
      "name": "SetTrustedSequencerURL",
      "type": "event"
    },
    {
      "anonymous": false,
      "inputs": [
        {
          "indexed": false,
          "internalType": "uint64",
          "name": "newVerifyBatchTimeTarget",
          "type": "uint64"
        }
      ],
      "name": "SetVerifyBatchTimeTarget",
      "type": "event"
    },
    {
      "anonymous": false,
      "inputs": [
        {
          "indexed": false,
          "internalType": "address",
          "name": "newPendingAdmin",
          "type": "address"
        }
      ],
      "name": "TransferAdminRole",
      "type": "event"
    },
    {
      "anonymous": false,
      "inputs": [
        {
          "indexed": false,
          "internalType": "uint64",
          "name": "numBatch",
          "type": "uint64"
        },
        {
          "indexed": false,
          "internalType": "uint64",
          "name": "forkID",
          "type": "uint64"
        },
        {
          "indexed": false,
          "internalType": "string",
          "name": "version",
          "type": "string"
        }
      ],
      "name": "UpdateZkEVMVersion",
      "type": "event"
    },
    {
      "anonymous": false,
      "inputs": [
        {
          "indexed": true,
          "internalType": "uint64",
          "name": "numBatch",
          "type": "uint64"
        },
        {
          "indexed": false,
          "internalType": "bytes32",
          "name": "stateRoot",
          "type": "bytes32"
        },
        {
          "indexed": true,
          "internalType": "address",
          "name": "aggregator",
          "type": "address"
        }
      ],
      "name": "VerifyBatches",
      "type": "event"
    },
    {
      "anonymous": false,
      "inputs": [
        {
          "indexed": true,
          "internalType": "uint64",
          "name": "numBatch",
          "type": "uint64"
        },
        {
          "indexed": false,
          "internalType": "bytes32",
          "name": "stateRoot",
          "type": "bytes32"
        },
        {
          "indexed": true,
          "internalType": "address",
          "name": "aggregator",
          "type": "address"
        }
      ],
      "name": "VerifyBatchesTrustedAggregator",
      "type": "event"
    },
    {
      "inputs": [],
      "name": "acceptAdminRole",
      "outputs": [],
      "stateMutability": "nonpayable",
      "type": "function"
    },
    {
      "inputs": [
        {
          "internalType": "uint64",
          "name": "sequencedBatchNum",
          "type": "uint64"
        }
      ],
      "name": "activateEmergencyState",
      "outputs": [],
      "stateMutability": "nonpayable",
      "type": "function"
    },
    {
      "inputs": [],
      "name": "admin",
      "outputs": [
        {
          "internalType": "address",
          "name": "",
          "type": "address"
        }
      ],
      "stateMutability": "view",
      "type": "function"
    },
    {
      "inputs": [],
      "name": "batchFee",
      "outputs": [
        {
          "internalType": "uint256",
          "name": "",
          "type": "uint256"
        }
      ],
      "stateMutability": "view",
      "type": "function"
    },
    {
      "inputs": [
        {
          "internalType": "uint64",
          "name": "",
          "type": "uint64"
        }
      ],
      "name": "batchNumToStateRoot",
      "outputs": [
        {
          "internalType": "bytes32",
          "name": "",
          "type": "bytes32"
        }
      ],
      "stateMutability": "view",
      "type": "function"
    },
    {
      "inputs": [],
      "name": "bridgeAddress",
      "outputs": [
        {
          "internalType": "contract IPolygonZkEVMBridge",
          "name": "",
          "type": "address"
        }
      ],
      "stateMutability": "view",
      "type": "function"
    },
    {
      "inputs": [],
      "name": "calculateRewardPerBatch",
      "outputs": [
        {
          "internalType": "uint256",
          "name": "",
          "type": "uint256"
        }
      ],
      "stateMutability": "view",
      "type": "function"
    },
    {
      "inputs": [],
      "name": "chainID",
      "outputs": [
        {
          "internalType": "uint64",
          "name": "",
          "type": "uint64"
        }
      ],
      "stateMutability": "view",
      "type": "function"
    },
    {
      "inputs": [
        {
          "internalType": "uint64",
          "name": "pendingStateNum",
          "type": "uint64"
        }
      ],
      "name": "consolidatePendingState",
      "outputs": [],
      "stateMutability": "nonpayable",
      "type": "function"
    },
    {
      "inputs": [],
      "name": "deactivateEmergencyState",
      "outputs": [],
      "stateMutability": "nonpayable",
      "type": "function"
    },
    {
      "inputs": [
        {
          "internalType": "uint64",
          "name": "",
          "type": "uint64"
        }
      ],
      "name": "forcedBatches",
      "outputs": [
        {
          "internalType": "bytes32",
          "name": "",
          "type": "bytes32"
        }
      ],
      "stateMutability": "view",
      "type": "function"
    },
    {
      "inputs": [],
      "name": "forkID",
      "outputs": [
        {
          "internalType": "uint64",
          "name": "",
          "type": "uint64"
        }
      ],
      "stateMutability": "view",
      "type": "function"
    },
    {
      "inputs": [],
      "name": "getCurrentBatchFee",
      "outputs": [
        {
          "internalType": "uint256",
          "name": "",
          "type": "uint256"
        }
      ],
      "stateMutability": "view",
      "type": "function"
    },
    {
      "inputs": [
        {
          "internalType": "uint64",
          "name": "initNumBatch",
          "type": "uint64"
        },
        {
          "internalType": "uint64",
          "name": "finalNewBatch",
          "type": "uint64"
        },
        {
          "internalType": "bytes32",
          "name": "newLocalExitRoot",
          "type": "bytes32"
        },
        {
          "internalType": "bytes32",
          "name": "oldStateRoot",
          "type": "bytes32"
        },
        {
          "internalType": "bytes32",
          "name": "newStateRoot",
          "type": "bytes32"
        }
      ],
      "name": "getInputSnarkBytes",
      "outputs": [
        {
          "internalType": "bytes",
          "name": "",
          "type": "bytes"
        }
      ],
      "stateMutability": "view",
      "type": "function"
    },
    {
      "inputs": [],
      "name": "getLastVerifiedBatch",
      "outputs": [
        {
          "internalType": "uint64",
          "name": "",
          "type": "uint64"
        }
      ],
      "stateMutability": "view",
      "type": "function"
    },
    {
      "inputs": [],
      "name": "globalExitRootManager",
      "outputs": [
        {
          "internalType": "contract IPolygonZkEVMGlobalExitRoot",
          "name": "",
          "type": "address"
        }
      ],
      "stateMutability": "view",
      "type": "function"
    },
    {
      "inputs": [],
      "name": "hotShot",
      "outputs": [
        {
          "internalType": "contract IHotShot",
          "name": "",
          "type": "address"
        }
      ],
      "stateMutability": "view",
      "type": "function"
    },
    {
      "inputs": [
        {
          "components": [
            {
              "internalType": "address",
              "name": "admin",
              "type": "address"
            },
            {
              "internalType": "address",
              "name": "trustedSequencer",
              "type": "address"
            },
            {
              "internalType": "uint64",
              "name": "pendingStateTimeout",
              "type": "uint64"
            },
            {
              "internalType": "address",
              "name": "trustedAggregator",
              "type": "address"
            },
            {
              "internalType": "uint64",
              "name": "trustedAggregatorTimeout",
              "type": "uint64"
            }
          ],
          "internalType": "struct PolygonZkEVM.InitializePackedParameters",
          "name": "initializePackedParameters",
          "type": "tuple"
        },
        {
          "internalType": "bytes32",
          "name": "genesisRoot",
          "type": "bytes32"
        },
        {
          "internalType": "string",
          "name": "_trustedSequencerURL",
          "type": "string"
        },
        {
          "internalType": "string",
          "name": "_networkName",
          "type": "string"
        },
        {
          "internalType": "string",
          "name": "_version",
          "type": "string"
        }
      ],
      "name": "initialize",
      "outputs": [],
      "stateMutability": "nonpayable",
      "type": "function"
    },
    {
      "inputs": [],
      "name": "isEmergencyState",
      "outputs": [
        {
          "internalType": "bool",
          "name": "",
          "type": "bool"
        }
      ],
      "stateMutability": "view",
      "type": "function"
    },
    {
      "inputs": [
        {
          "internalType": "uint64",
          "name": "pendingStateNum",
          "type": "uint64"
        }
      ],
      "name": "isPendingStateConsolidable",
      "outputs": [
        {
          "internalType": "bool",
          "name": "",
          "type": "bool"
        }
      ],
      "stateMutability": "view",
      "type": "function"
    },
    {
      "inputs": [],
      "name": "lastBatchSequenced",
      "outputs": [
        {
          "internalType": "uint64",
          "name": "",
          "type": "uint64"
        }
      ],
      "stateMutability": "view",
      "type": "function"
    },
    {
      "inputs": [],
      "name": "lastForceBatch",
      "outputs": [
        {
          "internalType": "uint64",
          "name": "",
          "type": "uint64"
        }
      ],
      "stateMutability": "view",
      "type": "function"
    },
    {
      "inputs": [],
      "name": "lastForceBatchSequenced",
      "outputs": [
        {
          "internalType": "uint64",
          "name": "",
          "type": "uint64"
        }
      ],
      "stateMutability": "view",
      "type": "function"
    },
    {
      "inputs": [],
      "name": "lastPendingState",
      "outputs": [
        {
          "internalType": "uint64",
          "name": "",
          "type": "uint64"
        }
      ],
      "stateMutability": "view",
      "type": "function"
    },
    {
      "inputs": [],
      "name": "lastPendingStateConsolidated",
      "outputs": [
        {
          "internalType": "uint64",
          "name": "",
          "type": "uint64"
        }
      ],
      "stateMutability": "view",
      "type": "function"
    },
    {
      "inputs": [],
      "name": "lastTimestamp",
      "outputs": [
        {
          "internalType": "uint64",
          "name": "",
          "type": "uint64"
        }
      ],
      "stateMutability": "view",
      "type": "function"
    },
    {
      "inputs": [],
      "name": "lastVerifiedBatch",
      "outputs": [
        {
          "internalType": "uint64",
          "name": "",
          "type": "uint64"
        }
      ],
      "stateMutability": "view",
      "type": "function"
    },
    {
      "inputs": [],
      "name": "matic",
      "outputs": [
        {
          "internalType": "contract IERC20Upgradeable",
          "name": "",
          "type": "address"
        }
      ],
      "stateMutability": "view",
      "type": "function"
    },
    {
      "inputs": [],
      "name": "multiplierBatchFee",
      "outputs": [
        {
          "internalType": "uint16",
          "name": "",
          "type": "uint16"
        }
      ],
      "stateMutability": "view",
      "type": "function"
    },
    {
      "inputs": [],
      "name": "networkName",
      "outputs": [
        {
          "internalType": "string",
          "name": "",
          "type": "string"
        }
      ],
      "stateMutability": "view",
      "type": "function"
    },
    {
      "inputs": [
        {
          "internalType": "uint64",
          "name": "initPendingStateNum",
          "type": "uint64"
        },
        {
          "internalType": "uint64",
          "name": "finalPendingStateNum",
          "type": "uint64"
        },
        {
          "internalType": "uint64",
          "name": "initNumBatch",
          "type": "uint64"
        },
        {
          "internalType": "uint64",
          "name": "finalNewBatch",
          "type": "uint64"
        },
        {
          "internalType": "bytes32",
          "name": "newLocalExitRoot",
          "type": "bytes32"
        },
        {
          "internalType": "bytes32",
          "name": "newStateRoot",
          "type": "bytes32"
        },
        {
          "internalType": "uint256[2]",
          "name": "proofA",
          "type": "uint256[2]"
        },
        {
          "internalType": "uint256[2][2]",
          "name": "proofB",
          "type": "uint256[2][2]"
        },
        {
          "internalType": "uint256[2]",
          "name": "proofC",
          "type": "uint256[2]"
        }
      ],
      "name": "overridePendingState",
      "outputs": [],
      "stateMutability": "nonpayable",
      "type": "function"
    },
    {
      "inputs": [],
      "name": "owner",
      "outputs": [
        {
          "internalType": "address",
          "name": "",
          "type": "address"
        }
      ],
      "stateMutability": "view",
      "type": "function"
    },
    {
      "inputs": [],
      "name": "pendingAdmin",
      "outputs": [
        {
          "internalType": "address",
          "name": "",
          "type": "address"
        }
      ],
      "stateMutability": "view",
      "type": "function"
    },
    {
      "inputs": [],
      "name": "pendingStateTimeout",
      "outputs": [
        {
          "internalType": "uint64",
          "name": "",
          "type": "uint64"
        }
      ],
      "stateMutability": "view",
      "type": "function"
    },
    {
      "inputs": [
        {
          "internalType": "uint256",
          "name": "",
          "type": "uint256"
        }
      ],
      "name": "pendingStateTransitions",
      "outputs": [
        {
          "internalType": "uint64",
          "name": "timestamp",
          "type": "uint64"
        },
        {
          "internalType": "uint64",
          "name": "lastVerifiedBatch",
          "type": "uint64"
        },
        {
          "internalType": "bytes32",
          "name": "exitRoot",
          "type": "bytes32"
        },
        {
          "internalType": "bytes32",
          "name": "stateRoot",
          "type": "bytes32"
        }
      ],
      "stateMutability": "view",
      "type": "function"
    },
    {
      "inputs": [
        {
          "internalType": "uint64",
          "name": "initPendingStateNum",
          "type": "uint64"
        },
        {
          "internalType": "uint64",
          "name": "finalPendingStateNum",
          "type": "uint64"
        },
        {
          "internalType": "uint64",
          "name": "initNumBatch",
          "type": "uint64"
        },
        {
          "internalType": "uint64",
          "name": "finalNewBatch",
          "type": "uint64"
        },
        {
          "internalType": "bytes32",
          "name": "newLocalExitRoot",
          "type": "bytes32"
        },
        {
          "internalType": "bytes32",
          "name": "newStateRoot",
          "type": "bytes32"
        },
        {
          "internalType": "uint256[2]",
          "name": "proofA",
          "type": "uint256[2]"
        },
        {
          "internalType": "uint256[2][2]",
          "name": "proofB",
          "type": "uint256[2][2]"
        },
        {
          "internalType": "uint256[2]",
          "name": "proofC",
          "type": "uint256[2]"
        }
      ],
      "name": "proveNonDeterministicPendingState",
      "outputs": [],
      "stateMutability": "nonpayable",
      "type": "function"
    },
    {
      "inputs": [],
      "name": "renounceOwnership",
      "outputs": [],
      "stateMutability": "nonpayable",
      "type": "function"
    },
    {
      "inputs": [],
      "name": "rollupVerifier",
      "outputs": [
        {
          "internalType": "contract IVerifierRollup",
          "name": "",
          "type": "address"
        }
      ],
      "stateMutability": "view",
      "type": "function"
    },
    {
      "inputs": [
        {
          "internalType": "uint64",
          "name": "",
          "type": "uint64"
        }
      ],
      "name": "sequencedBatches",
      "outputs": [
        {
          "internalType": "bytes32",
          "name": "accInputHash",
          "type": "bytes32"
        },
        {
          "internalType": "uint64",
          "name": "sequencedTimestamp",
          "type": "uint64"
        },
        {
          "internalType": "uint64",
          "name": "previousLastBatchSequenced",
          "type": "uint64"
        }
      ],
      "stateMutability": "view",
      "type": "function"
    },
    {
      "inputs": [
        {
          "internalType": "uint16",
          "name": "newMultiplierBatchFee",
          "type": "uint16"
        }
      ],
      "name": "setMultiplierBatchFee",
      "outputs": [],
      "stateMutability": "nonpayable",
      "type": "function"
    },
    {
      "inputs": [
        {
          "internalType": "uint64",
          "name": "newPendingStateTimeout",
          "type": "uint64"
        }
      ],
      "name": "setPendingStateTimeout",
      "outputs": [],
      "stateMutability": "nonpayable",
      "type": "function"
    },
    {
      "inputs": [
        {
          "internalType": "address",
          "name": "newTrustedAggregator",
          "type": "address"
        }
      ],
      "name": "setTrustedAggregator",
      "outputs": [],
      "stateMutability": "nonpayable",
      "type": "function"
    },
    {
      "inputs": [
        {
          "internalType": "uint64",
          "name": "newTrustedAggregatorTimeout",
          "type": "uint64"
        }
      ],
      "name": "setTrustedAggregatorTimeout",
      "outputs": [],
      "stateMutability": "nonpayable",
      "type": "function"
    },
    {
      "inputs": [
        {
          "internalType": "address",
          "name": "newTrustedSequencer",
          "type": "address"
        }
      ],
      "name": "setTrustedSequencer",
      "outputs": [],
      "stateMutability": "nonpayable",
      "type": "function"
    },
    {
      "inputs": [
        {
          "internalType": "string",
          "name": "newTrustedSequencerURL",
          "type": "string"
        }
      ],
      "name": "setTrustedSequencerURL",
      "outputs": [],
      "stateMutability": "nonpayable",
      "type": "function"
    },
    {
      "inputs": [
        {
          "internalType": "uint64",
          "name": "newVerifyBatchTimeTarget",
          "type": "uint64"
        }
      ],
      "name": "setVerifyBatchTimeTarget",
      "outputs": [],
      "stateMutability": "nonpayable",
      "type": "function"
    },
    {
      "inputs": [
        {
          "internalType": "address",
          "name": "newPendingAdmin",
          "type": "address"
        }
      ],
      "name": "transferAdminRole",
      "outputs": [],
      "stateMutability": "nonpayable",
      "type": "function"
    },
    {
      "inputs": [
        {
          "internalType": "address",
          "name": "newOwner",
          "type": "address"
        }
      ],
      "name": "transferOwnership",
      "outputs": [],
      "stateMutability": "nonpayable",
      "type": "function"
    },
    {
      "inputs": [],
      "name": "trustedAggregator",
      "outputs": [
        {
          "internalType": "address",
          "name": "",
          "type": "address"
        }
      ],
      "stateMutability": "view",
      "type": "function"
    },
    {
      "inputs": [],
      "name": "trustedAggregatorTimeout",
      "outputs": [
        {
          "internalType": "uint64",
          "name": "",
          "type": "uint64"
        }
      ],
      "stateMutability": "view",
      "type": "function"
    },
    {
      "inputs": [],
      "name": "trustedSequencer",
      "outputs": [
        {
          "internalType": "address",
          "name": "",
          "type": "address"
        }
      ],
      "stateMutability": "view",
      "type": "function"
    },
    {
      "inputs": [],
      "name": "trustedSequencerURL",
      "outputs": [
        {
          "internalType": "string",
          "name": "",
          "type": "string"
        }
      ],
      "stateMutability": "view",
      "type": "function"
    },
    {
      "inputs": [],
      "name": "verifyBatchTimeTarget",
      "outputs": [
        {
          "internalType": "uint64",
          "name": "",
          "type": "uint64"
        }
      ],
      "stateMutability": "view",
      "type": "function"
    },
    {
      "inputs": [
        {
          "internalType": "uint64",
          "name": "pendingStateNum",
          "type": "uint64"
        },
        {
          "internalType": "uint64",
          "name": "initNumBatch",
          "type": "uint64"
        },
        {
          "internalType": "uint64",
          "name": "finalNewBatch",
          "type": "uint64"
        },
        {
          "internalType": "bytes32",
          "name": "newLocalExitRoot",
          "type": "bytes32"
        },
        {
          "internalType": "bytes32",
          "name": "newStateRoot",
          "type": "bytes32"
        },
        {
          "internalType": "uint256[2]",
          "name": "proofA",
          "type": "uint256[2]"
        },
        {
          "internalType": "uint256[2][2]",
          "name": "proofB",
          "type": "uint256[2][2]"
        },
        {
          "internalType": "uint256[2]",
          "name": "proofC",
          "type": "uint256[2]"
        },
        {
          "components": [
            {
              "internalType": "bytes32",
              "name": "oldAccInputHash",
              "type": "bytes32"
            },
            {
              "internalType": "bytes32",
              "name": "newAccInputHash",
              "type": "bytes32"
            },
            {
              "internalType": "bytes",
              "name": "commProof",
              "type": "bytes"
            }
          ],
          "internalType": "struct PolygonZkEVM.PackedHotShotParams",
          "name": "packedHotShotParams",
          "type": "tuple"
        }
      ],
      "name": "verifyBatches",
      "outputs": [],
      "stateMutability": "nonpayable",
      "type": "function"
    },
    {
      "inputs": [
        {
          "internalType": "uint64",
          "name": "pendingStateNum",
          "type": "uint64"
        },
        {
          "internalType": "uint64",
          "name": "initNumBatch",
          "type": "uint64"
        },
        {
          "internalType": "uint64",
          "name": "finalNewBatch",
          "type": "uint64"
        },
        {
          "internalType": "bytes32",
          "name": "newLocalExitRoot",
          "type": "bytes32"
        },
        {
          "internalType": "bytes32",
          "name": "newStateRoot",
          "type": "bytes32"
        },
        {
          "internalType": "uint256[2]",
          "name": "proofA",
          "type": "uint256[2]"
        },
        {
          "internalType": "uint256[2][2]",
          "name": "proofB",
          "type": "uint256[2][2]"
        },
        {
          "internalType": "uint256[2]",
          "name": "proofC",
          "type": "uint256[2]"
        },
        {
          "components": [
            {
              "internalType": "bytes32",
              "name": "oldAccInputHash",
              "type": "bytes32"
            },
            {
              "internalType": "bytes32",
              "name": "newAccInputHash",
              "type": "bytes32"
            },
            {
              "internalType": "bytes",
              "name": "commProof",
              "type": "bytes"
            }
          ],
          "internalType": "struct PolygonZkEVM.PackedHotShotParams",
          "name": "packedHotShotParams",
          "type": "tuple"
        }
      ],
      "name": "verifyBatchesTrustedAggregator",
      "outputs": [],
      "stateMutability": "nonpayable",
      "type": "function"
    }
  ],
  "bytecode": "0x6101606040523480156200001257600080fd5b5060405162003af238038062003af28339810160408190526200003591620000ac565b6001600160a01b0396871660c05294861660805292851660a05290841660e052909216610100526001600160401b039182166101205216610140526200014f565b6001600160a01b03811681146200008c57600080fd5b50565b80516001600160401b0381168114620000a757600080fd5b919050565b600080600080600080600060e0888a031215620000c857600080fd5b8751620000d58162000076565b6020890151909750620000e88162000076565b6040890151909650620000fb8162000076565b60608901519095506200010e8162000076565b6080890151909450620001218162000076565b92506200013160a089016200008f565b91506200014160c089016200008f565b905092959891949750929550565b60805160a05160c05160e0516101005161012051610140516138d1620002216000396000818161055101528181610a7101528181611a070152612b4101526000818161069c01528181610a500152612b200152600081816104b60152818161207f015261211e01526000818161064f01528181611abc01526123f30152600081816107a701528181610d1e0152818161149101528181611bd90152611e650152600081816108300152818161224001526126ce01526000818161074b01528181611092015261230d01526138d16000f3fe608060405234801561001057600080fd5b50600436106102ed5760003560e01c8063841b24d711610193578063c0ed84e0116100e4578063e11f3f1811610092578063e11f3f18146107fe578063e7a7ed0214610811578063e8bf92ed1461082b578063f14916d614610852578063f2fde38b14610865578063f851a44014610878578063f8b823e41461088b57600080fd5b8063c0ed84e01461076d578063c89e42df14610775578063cfa8ed4714610788578063d02103ca146107a2578063d2e129f9146107c9578063d939b315146107dc578063dbc16976146107f657600080fd5b8063a3c573eb11610141578063a3c573eb1461064a578063aba576f114610671578063ada8f91914610684578063adc879e914610697578063afd23cbe146106be578063b4d63f58146106e6578063b6b0b0971461074657600080fd5b8063841b24d7146105e15780638c3d7301146105fb5780638da5cb5b1461060357806399f5634e146106145780639c9f3dfe1461061c5780639f0d039d1461062f578063a066215c1461063757600080fd5b80634a1a89a71161024d5780636ff512cc116101fb5780636ff512cc146104f8578063715018a61461050b5780637215541a1461051357806375c508b3146105265780637fcb365314610539578063831c7ead1461054c578063837a47381461057357600080fd5b80634a1a89a71461043b5780634a910e6a146104555780635392c5e014610468578063542028d514610496578063590ae2111461049e5780636375e13c146104b15780636b8616ce146104d857600080fd5b806326782247116102aa578063267822471461039457806329878983146103b4578063383b3be8146103ce578063394218e9146103e1578063423fa856146103f4578063456052671461040e578063458c04771461042857600080fd5b80630a0d9fbe146102f2578063107bf28c1461032757806315064c961461033c5780631816b7e51461035957806319d8ac611461036e578063220d789914610381575b600080fd5b606f5461030a9061010090046001600160401b031681565b6040516001600160401b0390911681526020015b60405180910390f35b61032f610894565b60405161031e9190612f01565b606f546103499060ff1681565b604051901515815260200161031e565b61036c610367366004612f1b565b610922565b005b60735461030a906001600160401b031681565b61032f61038f366004612f5b565b6109db565b607b546103a7906001600160a01b031681565b60405161031e9190612fa8565b6074546103a790600160401b90046001600160a01b031681565b6103496103dc366004612fbc565b610ac9565b61036c6103ef366004612fbc565b610b10565b60735461030a90600160401b90046001600160401b031681565b60735461030a90600160801b90046001600160401b031681565b60795461030a906001600160401b031681565b60795461030a90600160401b90046001600160401b031681565b61036c610463366004612fbc565b610bfe565b610488610476366004612fbc565b60756020526000908152604090205481565b60405190815260200161031e565b61032f610c6d565b61036c6104ac366004613116565b610c7a565b6103a77f000000000000000000000000000000000000000000000000000000000000000081565b6104886104e6366004612fbc565b60716020526000908152604090205481565b61036c6105063660046131ce565b610dce565b61036c610e4d565b61036c610521366004612fbc565b610e61565b61036c6105343660046131f7565b610f6e565b60745461030a906001600160401b031681565b61030a7f000000000000000000000000000000000000000000000000000000000000000081565b6105b6610581366004613295565b6078602052600090815260409020805460018201546002909201546001600160401b0380831693600160401b90930416919084565b604080516001600160401b03958616815294909316602085015291830152606082015260800161031e565b60795461030a90600160c01b90046001600160401b031681565b61036c611009565b6033546001600160a01b03166103a7565b61048861108d565b61036c61062a366004612fbc565b61119a565b607054610488565b61036c610645366004612fbc565b61128d565b6103a77f000000000000000000000000000000000000000000000000000000000000000081565b61036c61067f3660046132ae565b61133c565b61036c6106923660046131ce565b6115e8565b61030a7f000000000000000000000000000000000000000000000000000000000000000081565b606f546106d390600160481b900461ffff1681565b60405161ffff909116815260200161031e565b6107216106f4366004612fbc565b607260205260009081526040902080546001909101546001600160401b0380821691600160401b90041683565b604080519384526001600160401b03928316602085015291169082015260600161031e565b6103a77f000000000000000000000000000000000000000000000000000000000000000081565b61030a61165e565b61036c61078336600461338d565b6116ab565b606f546103a790600160581b90046001600160a01b031681565b6103a77f000000000000000000000000000000000000000000000000000000000000000081565b61036c6107d73660046133c1565b611712565b60795461030a90600160801b90046001600160401b031681565b61036c611a8f565b61036c61080c3660046131f7565b611b35565b60735461030a90600160c01b90046001600160401b031681565b6103a77f000000000000000000000000000000000000000000000000000000000000000081565b61036c6108603660046131ce565b611c90565b61036c6108733660046131ce565b611d0f565b607a546103a7906001600160a01b031681565b61048860705481565b607780546108a19061349f565b80601f01602080910402602001604051908101604052809291908181526020018280546108cd9061349f565b801561091a5780601f106108ef5761010080835404028352916020019161091a565b820191906000526020600020905b8154815290600101906020018083116108fd57829003601f168201915b505050505081565b607a546001600160a01b0316331461094d57604051634755657960e01b815260040160405180910390fd5b6103e88161ffff16108061096657506103ff8161ffff16115b1561098457604051630984a67960e31b815260040160405180910390fd5b606f805461ffff60481b1916600160481b61ffff8416908102919091179091556040519081527f7019933d795eba185c180209e8ae8bffbaa25bcef293364687702c31f4d302c5906020015b60405180910390a150565b6001600160401b038086166000818152607260205260408082205493881682529020546060929115801590610a0e575081155b15610a2c5760405163340c614f60e11b815260040160405180910390fd5b80610a4a576040516366385b5160e01b815260040160405180910390fd5b3385838a7f00000000000000000000000000000000000000000000000000000000000000007f000000000000000000000000000000000000000000000000000000000000000089878d8f604051602001610aad9a999897969594939291906134d9565b6040516020818303038152906040529250505095945050505050565b6079546001600160401b0382811660009081526078602052604081205490924292610aff92600160801b90920481169116613562565b6001600160401b0316111592915050565b607a546001600160a01b03163314610b3b57604051634755657960e01b815260040160405180910390fd5b62093a806001600160401b0382161115610b6857604051631d06e87960e01b815260040160405180910390fd5b606f5460ff16610ba8576079546001600160401b03600160c01b909104811690821610610ba85760405163401636df60e01b815260040160405180910390fd5b607980546001600160c01b0316600160c01b6001600160401b038416908102919091179091556040519081527f1f4fa24c2e4bad19a7f3ec5c5485f70d46c798461c2e684f55bbd0fc661373a1906020016109d0565b607454600160401b90046001600160a01b03163314610c6157606f5460ff1615610c3b57604051630bc011ff60e21b815260040160405180910390fd5b610c4481610ac9565b610c6157604051630674f25160e11b815260040160405180910390fd5b610c6a81611d85565b50565b607680546108a19061349f565b607454600160401b90046001600160a01b03163314610cac5760405163bbcbbc0560e01b815260040160405180910390fd5b610cbd898989898989898989611f1f565b6074805467ffffffffffffffff19166001600160401b0389811691821790925560009081526075602052604090208690556079541615610d0857607980546001600160801b03191690555b6040516333d6247d60e01b8152600481018790527f00000000000000000000000000000000000000000000000000000000000000006001600160a01b0316906333d6247d90602401600060405180830381600087803b158015610d6a57600080fd5b505af1158015610d7e573d6000803e3d6000fd5b50506040518781523392506001600160401b038a1691507fcb339b570a7f0b25afa7333371ff11192092a0aeace12b671f4c212f2815c6fe906020015b60405180910390a3505050505050505050565b607a546001600160a01b03163314610df957604051634755657960e01b815260040160405180910390fd5b606f8054600160581b600160f81b031916600160581b6001600160a01b038416021790556040517ff54144f9611984021529f814a1cb6a41e22c58351510a0d9f7e822618abb9cc0906109d0908390612fa8565b610e55612345565b610e5f600061239f565b565b6033546001600160a01b03163314610f66576000610e7d61165e565b9050806001600160401b0316826001600160401b031611610eb15760405163812a372d60e01b815260040160405180910390fd5b6073546001600160401b03600160401b90910481169083161180610ef057506001600160401b0380831660009081526072602052604090206001015416155b15610f0e57604051632631700560e21b815260040160405180910390fd5b6001600160401b038083166000908152607260205260409020600101544291610f3c9162093a809116613562565b6001600160401b03161115610f645760405163692baaad60e11b815260040160405180910390fd5b505b610c6a6123f1565b606f5460ff1615610f9257604051630bc011ff60e21b815260040160405180910390fd5b610fa389898989898989898961246c565b6001600160401b0386166000908152607560209081526040918290205482519081529081018690527f1f44c21118c4603cfb4e1b621dbcfa2b73efcececee2b99b620b2953d33a7010910160405180910390a1610ffe6123f1565b505050505050505050565b607b546001600160a01b031633146110345760405163d1ec4b2360e01b815260040160405180910390fd5b607b54607a80546001600160a01b0319166001600160a01b0390921691821790556040517f056dc487bbf0795d0bbb1b4f0af523a855503cff740bfb4d5475f7a90c091e8e9161108391612fa8565b60405180910390a1565b6000807f00000000000000000000000000000000000000000000000000000000000000006001600160a01b03166370a08231306040518263ffffffff1660e01b81526004016110dc9190612fa8565b602060405180830381865afa1580156110f9573d6000803e3d6000fd5b505050506040513d601f19601f8201168201806040525081019061111d9190613589565b9050600061112961165e565b6073546001600160401b03600160401b820481169161115991600160801b8204811691600160c01b9004166135a2565b6111639190613562565b61116d91906135a2565b6001600160401b03169050806000036111895760009250505090565b61119381836135d8565b9250505090565b607a546001600160a01b031633146111c557604051634755657960e01b815260040160405180910390fd5b62093a806001600160401b03821611156111f257604051630cc9650760e41b815260040160405180910390fd5b606f5460ff16611232576079546001600160401b03600160801b9091048116908216106112325760405163048a05a960e41b815260040160405180910390fd5b6079805467ffffffffffffffff60801b1916600160801b6001600160401b038416908102919091179091556040519081527fc4121f4e22c69632ebb7cf1f462be0511dc034f999b52013eddfb24aab765c75906020016109d0565b607a546001600160a01b031633146112b857604051634755657960e01b815260040160405180910390fd5b62015180816001600160401b031611156112e557604051631c0cfbfd60e31b815260040160405180910390fd5b606f805468ffffffffffffffff0019166101006001600160401b038416908102919091179091556040519081527f1b023231a1ab6b5d93992f168fb44498e1a7e64cef58daff6f1c216de6a68c28906020016109d0565b606f5460ff161561136057604051630bc011ff60e21b815260040160405180910390fd5b6079546001600160401b03888116600090815260726020526040902060010154429261139792600160c01b90910481169116613562565b6001600160401b031611156113bf57604051638a0704d360e01b815260040160405180910390fd5b6103e86113cc89896135a2565b6001600160401b031611156113f457604051635acfba9d60e11b815260040160405180910390fd5b61140d89898989898989896114088a6135ec565b611f1f565b611416876127b0565b607954600160801b90046001600160401b03166000036114fa576074805467ffffffffffffffff19166001600160401b038981169182179092556000908152607560205260409020869055607954161561147b57607980546001600160801b03191690555b6040516333d6247d60e01b8152600481018790527f00000000000000000000000000000000000000000000000000000000000000006001600160a01b0316906333d6247d90602401600060405180830381600087803b1580156114dd57600080fd5b505af11580156114f1573d6000803e3d6000fd5b505050506115ab565b6115026129a4565b607980546001600160401b031690600061151b836135f8565b82546001600160401b039182166101009390930a9283029282021916919091179091556040805160808101825242831681528a831660208083019182528284018c8152606084018c8152607954871660009081526078909352949091209251835492518616600160401b026001600160801b03199093169516949094171781559151600183015551600290910155505b60405185815233906001600160401b038916907f9c72852172521097ba7e1482e6b44b351323df0155f97f4ea18fcec28e1f596690602001610dbb565b607a546001600160a01b0316331461161357604051634755657960e01b815260040160405180910390fd5b607b80546001600160a01b0319166001600160a01b0383161790556040517fa5b56b7906fd0a20e3f35120dd8343db1e12e037a6c90111c7e42885e82a1ce6906109d0908390612fa8565b6079546000906001600160401b03161561169b57506079546001600160401b03908116600090815260786020526040902054600160401b90041690565b506074546001600160401b031690565b607a546001600160a01b031633146116d657604051634755657960e01b815260040160405180910390fd5b60766116e2828261366c565b507f6b8f723a4c7a5335cafae8a598a0aa0301be1387c037dccc085b62add6448b20816040516109d09190612f01565b600054610100900460ff16158080156117325750600054600160ff909116105b8061174c5750303b15801561174c575060005460ff166001145b6117b45760405162461bcd60e51b815260206004820152602e60248201527f496e697469616c697a61626c653a20636f6e747261637420697320616c72656160448201526d191e481a5b9a5d1a585b1a5e995960921b60648201526084015b60405180910390fd5b6000805460ff1916600117905580156117d7576000805461ff0019166101001790555b6117e460208801886131ce565b607a80546001600160a01b0319166001600160a01b039290921691909117905561181460408801602089016131ce565b606f80546001600160a01b0392909216600160581b02600160581b600160f81b031990921691909117905561184f60808801606089016131ce565b607480546001600160a01b0392909216600160401b02600160401b600160e01b03199092169190911790556000805260756020527ff9e3fbf150b7a0077118526f473c53cb4734f166167e2c6213e3567dd390b4ad86905560766118b3868261366c565b5060776118c0858261366c565b5062093a806118d56060890160408a01612fbc565b6001600160401b031611156118fd57604051630cc9650760e41b815260040160405180910390fd5b61190d6060880160408901612fbc565b607980546001600160401b0392909216600160801b0267ffffffffffffffff60801b1990921691909117905562093a8061194d60a0890160808a01612fbc565b6001600160401b0316111561197557604051631d06e87960e01b815260040160405180910390fd5b61198560a0880160808901612fbc565b607980546001600160c01b0316600160c01b6001600160401b039390931692909202919091179055670de0b6b3a7640000607055606f80546affffffffffffffffffff0019166a03ea0000000000000708001790556119e2612a48565b7fed7be53c9f1a96a481223b15568a5b1a475e01a74b347d6ca187c8bf0c078cd660007f00000000000000000000000000000000000000000000000000000000000000008585604051611a38949392919061372b565b60405180910390a18015611a86576000805461ff0019169055604051600181527f7f26b83ff96e1f2b6a682f133852f6798a09c465da95921460cefb38474024989060200160405180910390a15b50505050505050565b607a546001600160a01b03163314611aba57604051634755657960e01b815260040160405180910390fd5b7f00000000000000000000000000000000000000000000000000000000000000006001600160a01b031663dbc169766040518163ffffffff1660e01b8152600401600060405180830381600087803b158015611b1557600080fd5b505af1158015611b29573d6000803e3d6000fd5b50505050610e5f612abc565b607454600160401b90046001600160a01b03163314611b675760405163bbcbbc0560e01b815260040160405180910390fd5b611b7889898989898989898961246c565b6074805467ffffffffffffffff19166001600160401b0388811691821790925560009081526075602052604090208590556079541615611bc357607980546001600160801b03191690555b6040516333d6247d60e01b8152600481018690527f00000000000000000000000000000000000000000000000000000000000000006001600160a01b0316906333d6247d90602401600060405180830381600087803b158015611c2557600080fd5b505af1158015611c39573d6000803e3d6000fd5b5050607980546001600160c01b031661127560c71b179055505060405184815233906001600160401b038816907fcc1b5520188bf1dd3e63f98164b577c4d75c11a619ddea692112f0d1aec4cf7290602001610dbb565b607a546001600160a01b03163314611cbb57604051634755657960e01b815260040160405180910390fd5b60748054600160401b600160e01b031916600160401b6001600160a01b038416021790556040517f61f8fec29495a3078e9271456f05fb0707fd4e41f7661865f80fc437d06681ca906109d0908390612fa8565b611d17612345565b6001600160a01b038116611d7c5760405162461bcd60e51b815260206004820152602660248201527f4f776e61626c653a206e6577206f776e657220697320746865207a65726f206160448201526564647265737360d01b60648201526084016117ab565b610c6a8161239f565b6079546001600160401b03600160401b9091048116908216111580611db857506079546001600160401b03908116908216115b15611dd65760405163d086b70b60e01b815260040160405180910390fd5b6001600160401b038181166000818152607860209081526040808320805460748054600160401b9283900490981667ffffffffffffffff19909816881790556002820154878652607590945293829020929092556079805467ffffffffffffffff60401b19169390940292909217909255600182015490516333d6247d60e01b815260048101919091529091907f00000000000000000000000000000000000000000000000000000000000000006001600160a01b0316906333d6247d90602401600060405180830381600087803b158015611eb157600080fd5b505af1158015611ec5573d6000803e3d6000fd5b50505050826001600160401b0316816001600160401b03167f328d3c6c0fd6f1be0515e422f2d87e59f25922cbc2233568515a0c4bc3f8510e8460020154604051611f1291815260200190565b60405180910390a3505050565b600080611f2a61165e565b90506001600160401b038b1615611fc0576079546001600160401b03908116908c161115611f6b5760405163bb14c20560e01b815260040160405180910390fd5b6001600160401b03808c1660009081526078602052604090206002810154815490945090918c8116600160401b9092041614611fba57604051632bd2e3e760e01b815260040160405180910390fd5b5061202c565b6001600160401b038a16600090815260756020526040902054915081611ff9576040516324cbdcc360e11b815260040160405180910390fd5b806001600160401b03168a6001600160401b0316111561202c57604051630f2b74f160e11b815260040160405180910390fd5b806001600160401b0316896001600160401b03161161205e5760405163b9b18f5760e01b815260040160405180910390fd5b6040516349ce899760e01b81526001600160401b038b1660048201526000907f00000000000000000000000000000000000000000000000000000000000000006001600160a01b0316906349ce899790602401602060405180830381865afa1580156120ce573d6000803e3d6000fd5b505050506040513d601f19601f820116820180604052508101906120f29190613589565b6040516349ce899760e01b81526001600160401b038c1660048201529091506000906001600160a01b037f000000000000000000000000000000000000000000000000000000000000000016906349ce899790602401602060405180830381865afa158015612165573d6000803e3d6000fd5b505050506040513d601f19601f820116820180604052508101906121899190613589565b9050600061219b858e8e8d8f8b612b14565b905060007f30644e72e131a029b85045b68181585d2833e84879b9709143e1f593f00000016002836040516121d09190613778565b602060405180830381855afa1580156121ed573d6000803e3d6000fd5b5050506040513d601f19601f820116820180604052508101906122109190613589565b61221a9190613794565b6040805160208101825282815290516343753b4d60e01b81529192506001600160a01b037f000000000000000000000000000000000000000000000000000000000000000016916343753b4d9161227a918e918e918e91906004016137a8565b602060405180830381865afa158015612297573d6000803e3d6000fd5b505050506040513d601f19601f820116820180604052508101906122bb9190613816565b6122d8576040516309bde33960e01b815260040160405180910390fd5b61233433868f6122e891906135a2565b6001600160401b03166122f961108d565b6123039190613838565b6001600160a01b037f0000000000000000000000000000000000000000000000000000000000000000169190612b9c565b505050505050505050505050505050565b6033546001600160a01b03163314610e5f5760405162461bcd60e51b815260206004820181905260248201527f4f776e61626c653a2063616c6c6572206973206e6f7420746865206f776e657260448201526064016117ab565b603380546001600160a01b038381166001600160a01b0319831681179093556040519116919082907f8be0079c531659141344cd1fd0a4f28419497f9722a3daafe3b4186f6b6457e090600090a35050565b7f00000000000000000000000000000000000000000000000000000000000000006001600160a01b0316632072f6c56040518163ffffffff1660e01b8152600401600060405180830381600087803b15801561244c57600080fd5b505af1158015612460573d6000803e3d6000fd5b50505050610e5f612bf3565b60006001600160401b038a1615612500576079546001600160401b03908116908b1611156124ad5760405163bb14c20560e01b815260040160405180910390fd5b506001600160401b03808a1660009081526078602052604090206002810154815490928a8116600160401b90920416146124fa57604051632bd2e3e760e01b815260040160405180910390fd5b50612568565b506001600160401b03871660009081526075602052604090205480612538576040516324cbdcc360e11b815260040160405180910390fd5b6074546001600160401b03908116908916111561256857604051630f2b74f160e11b815260040160405180910390fd5b6079546001600160401b03908116908a1611806125975750896001600160401b0316896001600160401b031611155b806125b857506079546001600160401b03600160401b9091048116908a1611155b156125d65760405163bfa7079f60e01b815260040160405180910390fd5b6001600160401b03898116600090815260786020526040902054600160401b900481169088161461261a576040516332a2a77f60e01b815260040160405180910390fd5b6000612629898989858a6109db565b905060007f30644e72e131a029b85045b68181585d2833e84879b9709143e1f593f000000160028360405161265e9190613778565b602060405180830381855afa15801561267b573d6000803e3d6000fd5b5050506040513d601f19601f8201168201806040525081019061269e9190613589565b6126a89190613794565b6040805160208101825282815290516343753b4d60e01b81529192506001600160a01b037f000000000000000000000000000000000000000000000000000000000000000016916343753b4d91612708918a918a918a91906004016137a8565b602060405180830381865afa158015612725573d6000803e3d6000fd5b505050506040513d601f19601f820116820180604052508101906127499190613816565b612766576040516309bde33960e01b815260040160405180910390fd5b6001600160401b038b166000908152607860205260409020600201548790036127a25760405163a47276bd60e01b815260040160405180910390fd5b505050505050505050505050565b60006127ba61165e565b9050816000806127ca84846135a2565b606f546001600160401b0391821692506000916127ed916101009004164261384f565b90505b846001600160401b0316846001600160401b03161461288d576001600160401b038085166000908152607260205260409020600181015490911682101561288157600181015461285090600160401b90046001600160401b0316866135a2565b612863906001600160401b031685613862565b6001820154600160401b90046001600160401b031695509350612887565b5061288d565b506127f0565b6000612899848461384f565b9050808410156128f057838103600c81116128b457806128b7565b600c5b9050806103e80a81606f60099054906101000a900461ffff1661ffff160a60705402816128e6576128e66135c2565b0460705550612960565b808403600c81116129015780612904565b600c5b90506000816103e80a82606f60099054906101000a900461ffff1661ffff160a670de0b6b3a7640000028161293b5761293b6135c2565b04905080607054670de0b6b3a76400000281612959576129596135c2565b0460705550505b683635c9adc5dea00000607054111561298557683635c9adc5dea00000607055611a86565b633b9aca006070541015611a8657633b9aca0060705550505050505050565b6079546001600160401b03600160401b8204811691161115610e5f576079546000906129e190600160401b90046001600160401b03166001613562565b90506129ec81610ac9565b15610c6a57607954600090600290612a0e9084906001600160401b03166135a2565b612a189190613875565b612a229083613562565b9050612a2d81610ac9565b15612a3f57612a3b81611d85565b5050565b612a3b82611d85565b600054610100900460ff16612ab35760405162461bcd60e51b815260206004820152602b60248201527f496e697469616c697a61626c653a20636f6e7472616374206973206e6f74206960448201526a6e697469616c697a696e6760a81b60648201526084016117ab565b610e5f3361239f565b606f5460ff16612adf57604051635386698160e01b815260040160405180910390fd5b606f805460ff191690556040517f1e5e34eea33501aecf2ebec9fe0e884a40804275ea7fe10b2ba084c8374308b390600090a1565b606033878360000151887f00000000000000000000000000000000000000000000000000000000000000007f00000000000000000000000000000000000000000000000000000000000000008988602001518a8d604051602001612b819a999897969594939291906134d9565b60405160208183030381529060405290509695505050505050565b604080516001600160a01b038416602482015260448082018490528251808303909101815260649091019091526020810180516001600160e01b031663a9059cbb60e01b179052612bee908490612c4f565b505050565b606f5460ff1615612c1757604051630bc011ff60e21b815260040160405180910390fd5b606f805460ff191660011790556040517f2261efe5aef6fedc1fd1550b25facc9181745623049c7901287030b9ad1a549790600090a1565b6000612ca4826040518060400160405280602081526020017f5361666545524332303a206c6f772d6c6576656c2063616c6c206661696c6564815250856001600160a01b0316612d219092919063ffffffff16565b805190915015612bee5780806020019051810190612cc29190613816565b612bee5760405162461bcd60e51b815260206004820152602a60248201527f5361666545524332303a204552433230206f7065726174696f6e20646964206e6044820152691bdd081cdd58d8d9595960b21b60648201526084016117ab565b6060612d308484600085612d38565b949350505050565b606082471015612d995760405162461bcd60e51b815260206004820152602660248201527f416464726573733a20696e73756666696369656e742062616c616e636520666f6044820152651c8818d85b1b60d21b60648201526084016117ab565b600080866001600160a01b03168587604051612db59190613778565b60006040518083038185875af1925050503d8060008114612df2576040519150601f19603f3d011682016040523d82523d6000602084013e612df7565b606091505b5091509150612e0887838387612e13565b979650505050505050565b60608315612e82578251600003612e7b576001600160a01b0385163b612e7b5760405162461bcd60e51b815260206004820152601d60248201527f416464726573733a2063616c6c20746f206e6f6e2d636f6e747261637400000060448201526064016117ab565b5081612d30565b612d308383815115612e975781518083602001fd5b8060405162461bcd60e51b81526004016117ab9190612f01565b60005b83811015612ecc578181015183820152602001612eb4565b50506000910152565b60008151808452612eed816020860160208601612eb1565b601f01601f19169290920160200192915050565b602081526000612f146020830184612ed5565b9392505050565b600060208284031215612f2d57600080fd5b813561ffff81168114612f1457600080fd5b80356001600160401b0381168114612f5657600080fd5b919050565b600080600080600060a08688031215612f7357600080fd5b612f7c86612f3f565b9450612f8a60208701612f3f565b94979496505050506040830135926060810135926080909101359150565b6001600160a01b0391909116815260200190565b600060208284031215612fce57600080fd5b612f1482612f3f565b8060408101831015612fe857600080fd5b92915050565b8060808101831015612fe857600080fd5b634e487b7160e01b600052604160045260246000fd5b60006001600160401b038084111561302f5761302f612fff565b604051601f8501601f19908116603f0116810190828211818310171561305757613057612fff565b8160405280935085815286868601111561307057600080fd5b858560208301376000602087830101525050509392505050565b60006060828403121561309c57600080fd5b604051606081016001600160401b0382821081831117156130bf576130bf612fff565b81604052829350843583526020850135602084015260408501359150808211156130e857600080fd5b508301601f810185136130fa57600080fd5b61310985823560208401613015565b6040830152505092915050565b60008060008060008060008060006101c08a8c03121561313557600080fd5b61313e8a612f3f565b985061314c60208b01612f3f565b975061315a60408b01612f3f565b965060608a0135955060808a013594506131778b60a08c01612fd7565b93506131868b60e08c01612fee565b92506131968b6101608c01612fd7565b91506101a08a01356001600160401b038111156131b257600080fd5b6131be8c828d0161308a565b9150509295985092959850929598565b6000602082840312156131e057600080fd5b81356001600160a01b0381168114612f1457600080fd5b60008060008060008060008060006101c08a8c03121561321657600080fd5b61321f8a612f3f565b985061322d60208b01612f3f565b975061323b60408b01612f3f565b965061324960608b01612f3f565b955060808a0135945060a08a013593506132668b60c08c01612fd7565b92506132768b6101008c01612fee565b91506132868b6101808c01612fd7565b90509295985092959850929598565b6000602082840312156132a757600080fd5b5035919050565b60008060008060008060008060006101c08a8c0312156132cd57600080fd5b6132d68a612f3f565b98506132e460208b01612f3f565b97506132f260408b01612f3f565b965060608a0135955060808a0135945061330f8b60a08c01612fd7565b935061331e8b60e08c01612fee565b925061332e8b6101608c01612fd7565b91506101a08a01356001600160401b0381111561334a57600080fd5b8a016060818d03121561335c57600080fd5b809150509295985092959850929598565b600082601f83011261337e57600080fd5b612f1483833560208501613015565b60006020828403121561339f57600080fd5b81356001600160401b038111156133b557600080fd5b612d308482850161336d565b6000806000806000808688036101208112156133dc57600080fd5b60a08112156133ea57600080fd5b5086955060a0870135945060c08701356001600160401b038082111561340f57600080fd5b61341b8a838b0161336d565b955060e089013591508082111561343157600080fd5b61343d8a838b0161336d565b945061010089013591508082111561345457600080fd5b818901915089601f83011261346857600080fd5b81358181111561347757600080fd5b8a602082850101111561348957600080fd5b6020830194508093505050509295509295509295565b600181811c908216806134b357607f821691505b6020821081036134d357634e487b7160e01b600052602260045260246000fd5b50919050565b60609a909a1b6bffffffffffffffffffffffff19168a5260148a0198909852603489019690965260c094851b6001600160c01b031990811660548a015293851b8416605c89015291841b83166064880152606c870152608c86015260ac8501929092529190911b1660cc82015260d40190565b634e487b7160e01b600052601160045260246000fd5b6001600160401b038181168382160190808211156135825761358261354c565b5092915050565b60006020828403121561359b57600080fd5b5051919050565b6001600160401b038281168282160390808211156135825761358261354c565b634e487b7160e01b600052601260045260246000fd5b6000826135e7576135e76135c2565b500490565b6000612fe8368361308a565b60006001600160401b038083168181036136145761361461354c565b6001019392505050565b601f821115612bee57600081815260208120601f850160051c810160208610156136455750805b601f850160051c820191505b8181101561366457828155600101613651565b505050505050565b81516001600160401b0381111561368557613685612fff565b61369981613693845461349f565b8461361e565b602080601f8311600181146136ce57600084156136b65750858301515b600019600386901b1c1916600185901b178555613664565b600085815260208120601f198616915b828110156136fd578886015182559484019460019091019084016136de565b508582101561371b5787850151600019600388901b60f8161c191681555b5050505050600190811b01905550565b60006001600160401b03808716835280861660208401525060606040830152826060830152828460808401376000608084840101526080601f19601f850116830101905095945050505050565b6000825161378a818460208701612eb1565b9190910192915050565b6000826137a3576137a36135c2565b500690565b61012081016040808784378083018660005b60028110156137d7578382843791830191908301906001016137ba565b505050808560c08501375061010082018360005b600181101561380a5781518352602092830192909101906001016137eb565b50505095945050505050565b60006020828403121561382857600080fd5b81518015158114612f1457600080fd5b8082028115828204841417612fe857612fe861354c565b81810381811115612fe857612fe861354c565b80820180821115612fe857612fe861354c565b60006001600160401b038084168061388f5761388f6135c2565b9216919091049291505056fea2646970667358221220a5f22a17ed7cf1420048cd5b1cd0b8702e5e4386192f25025e0dd8ac6269e8ba64736f6c63430008110033",
  "linkReferences": {},
  "deployedLinkReferences": {}
}