{
  "_format": "hh-sol-artifact-1",
  "contractName": "PolygonZkEVM",
  "sourceName": "contracts/PolygonZkEVM.sol",
  "abi": [
    {
      "inputs": [
        {
          "internalType": "contract IPolygonZkEVMGlobalExitRoot",
          "name": "_globalExitRootManager",
          "type": "address"
        },
        {
          "internalType": "contract IERC20Upgradeable",
          "name": "_matic",
          "type": "address"
        },
        {
          "internalType": "contract IVerifierRollup",
          "name": "_rollupVerifier",
          "type": "address"
        },
        {
          "internalType": "contract IPolygonZkEVMBridge",
          "name": "_bridgeAddress",
          "type": "address"
        },
        {
          "internalType": "uint64",
          "name": "_chainID",
          "type": "uint64"
        },
        {
          "internalType": "uint64",
          "name": "_forkID",
          "type": "uint64"
        }
      ],
      "stateMutability": "nonpayable",
      "type": "constructor"
    },
    {
      "inputs": [],
      "name": "BatchAlreadyVerified",
      "type": "error"
    },
    {
      "inputs": [],
      "name": "BatchNotSequencedOrNotSequenceEnd",
      "type": "error"
    },
    {
      "inputs": [],
      "name": "ExceedMaxVerifyBatches",
      "type": "error"
    },
    {
      "inputs": [],
      "name": "FinalNumBatchBelowLastVerifiedBatch",
      "type": "error"
    },
    {
      "inputs": [],
      "name": "FinalNumBatchDoesNotMatchPendingState",
      "type": "error"
    },
    {
      "inputs": [],
      "name": "FinalPendingStateNumInvalid",
      "type": "error"
    },
    {
      "inputs": [],
      "name": "ForceBatchTimeoutNotExpired",
      "type": "error"
    },
    {
      "inputs": [],
      "name": "ForceBatchesOverflow",
      "type": "error"
    },
    {
      "inputs": [],
      "name": "ForcedDataDoesNotMatch",
      "type": "error"
    },
    {
      "inputs": [],
      "name": "GlobalExitRootNotExist",
      "type": "error"
    },
    {
      "inputs": [],
      "name": "HaltTimeoutNotExpired",
      "type": "error"
    },
    {
      "inputs": [],
      "name": "InitNumBatchAboveLastVerifiedBatch",
      "type": "error"
    },
    {
      "inputs": [],
      "name": "InitNumBatchDoesNotMatchPendingState",
      "type": "error"
    },
    {
      "inputs": [],
      "name": "InvalidProof",
      "type": "error"
    },
    {
      "inputs": [],
      "name": "InvalidRangeBatchTimeTarget",
      "type": "error"
    },
    {
      "inputs": [],
      "name": "InvalidRangeMultiplierBatchFee",
      "type": "error"
    },
    {
      "inputs": [],
      "name": "NewAccInputHashDoesNotExist",
      "type": "error"
    },
    {
      "inputs": [],
      "name": "NewPendingStateTimeoutMustBeLower",
      "type": "error"
    },
    {
      "inputs": [],
      "name": "NewTrustedAggregatorTimeoutMustBeLower",
      "type": "error"
    },
    {
      "inputs": [],
      "name": "NotEnoughMaticAmount",
      "type": "error"
    },
    {
      "inputs": [],
      "name": "OldAccInputHashDoesNotExist",
      "type": "error"
    },
    {
      "inputs": [],
      "name": "OldStateRootDoesNotExist",
      "type": "error"
    },
    {
      "inputs": [],
      "name": "OnlyAdmin",
      "type": "error"
    },
    {
      "inputs": [],
      "name": "OnlyEmergencyState",
      "type": "error"
    },
    {
      "inputs": [],
      "name": "OnlyNotEmergencyState",
      "type": "error"
    },
    {
      "inputs": [],
      "name": "OnlyPendingAdmin",
      "type": "error"
    },
    {
      "inputs": [],
      "name": "OnlyTrustedAggregator",
      "type": "error"
    },
    {
      "inputs": [],
      "name": "OnlyTrustedSequencer",
      "type": "error"
    },
    {
      "inputs": [],
      "name": "PendingStateDoesNotExist",
      "type": "error"
    },
    {
      "inputs": [],
      "name": "PendingStateInvalid",
      "type": "error"
    },
    {
      "inputs": [],
      "name": "PendingStateNotConsolidable",
      "type": "error"
    },
    {
      "inputs": [],
      "name": "PendingStateTimeoutExceedHaltAggregationTimeout",
      "type": "error"
    },
    {
      "inputs": [],
      "name": "SequenceZeroBatches",
      "type": "error"
    },
    {
      "inputs": [],
      "name": "SequencedTimestampBelowForcedTimestamp",
      "type": "error"
    },
    {
      "inputs": [],
      "name": "SequencedTimestampInvalid",
      "type": "error"
    },
    {
      "inputs": [],
      "name": "StoredRootMustBeDifferentThanNewRoot",
      "type": "error"
    },
    {
      "inputs": [],
      "name": "TransactionsLengthAboveMax",
      "type": "error"
    },
    {
      "inputs": [],
      "name": "TrustedAggregatorTimeoutExceedHaltAggregationTimeout",
      "type": "error"
    },
    {
      "inputs": [],
      "name": "TrustedAggregatorTimeoutNotExpired",
      "type": "error"
    },
    {
      "anonymous": false,
      "inputs": [
        {
          "indexed": false,
          "internalType": "address",
          "name": "newAdmin",
          "type": "address"
        }
      ],
      "name": "AcceptAdminRole",
      "type": "event"
    },
    {
      "anonymous": false,
      "inputs": [
        {
          "indexed": true,
          "internalType": "uint64",
          "name": "numBatch",
          "type": "uint64"
        },
        {
          "indexed": false,
          "internalType": "bytes32",
          "name": "stateRoot",
          "type": "bytes32"
        },
        {
          "indexed": true,
          "internalType": "uint64",
          "name": "pendingStateNum",
          "type": "uint64"
        }
      ],
      "name": "ConsolidatePendingState",
      "type": "event"
    },
    {
      "anonymous": false,
      "inputs": [],
      "name": "EmergencyStateActivated",
      "type": "event"
    },
    {
      "anonymous": false,
      "inputs": [],
      "name": "EmergencyStateDeactivated",
      "type": "event"
    },
    {
      "anonymous": false,
      "inputs": [
        {
          "indexed": true,
          "internalType": "uint64",
          "name": "forceBatchNum",
          "type": "uint64"
        },
        {
          "indexed": false,
          "internalType": "bytes32",
          "name": "lastGlobalExitRoot",
          "type": "bytes32"
        },
        {
          "indexed": false,
          "internalType": "address",
          "name": "sequencer",
          "type": "address"
        },
        {
          "indexed": false,
          "internalType": "bytes",
          "name": "transactions",
          "type": "bytes"
        }
      ],
      "name": "ForceBatch",
      "type": "event"
    },
    {
      "anonymous": false,
      "inputs": [
        {
          "indexed": false,
          "internalType": "uint8",
          "name": "version",
          "type": "uint8"
        }
      ],
      "name": "Initialized",
      "type": "event"
    },
    {
      "anonymous": false,
      "inputs": [
        {
          "indexed": true,
          "internalType": "uint64",
          "name": "numBatch",
          "type": "uint64"
        },
        {
          "indexed": false,
          "internalType": "bytes32",
          "name": "stateRoot",
          "type": "bytes32"
        },
        {
          "indexed": true,
          "internalType": "address",
          "name": "aggregator",
          "type": "address"
        }
      ],
      "name": "OverridePendingState",
      "type": "event"
    },
    {
      "anonymous": false,
      "inputs": [
        {
          "indexed": true,
          "internalType": "address",
          "name": "previousOwner",
          "type": "address"
        },
        {
          "indexed": true,
          "internalType": "address",
          "name": "newOwner",
          "type": "address"
        }
      ],
      "name": "OwnershipTransferred",
      "type": "event"
    },
    {
      "anonymous": false,
      "inputs": [
        {
          "indexed": false,
          "internalType": "bytes32",
          "name": "storedStateRoot",
          "type": "bytes32"
        },
        {
          "indexed": false,
          "internalType": "bytes32",
          "name": "provedStateRoot",
          "type": "bytes32"
        }
      ],
      "name": "ProveNonDeterministicPendingState",
      "type": "event"
    },
    {
      "anonymous": false,
      "inputs": [
        {
          "indexed": true,
          "internalType": "uint64",
          "name": "numBatch",
          "type": "uint64"
        }
      ],
      "name": "SequenceBatches",
      "type": "event"
    },
    {
      "anonymous": false,
      "inputs": [
        {
          "indexed": true,
          "internalType": "uint64",
          "name": "numBatch",
          "type": "uint64"
        }
      ],
      "name": "SequenceForceBatches",
      "type": "event"
    },
    {
      "anonymous": false,
      "inputs": [
        {
          "indexed": false,
          "internalType": "uint16",
          "name": "newMultiplierBatchFee",
          "type": "uint16"
        }
      ],
      "name": "SetMultiplierBatchFee",
      "type": "event"
    },
    {
      "anonymous": false,
      "inputs": [
        {
          "indexed": false,
          "internalType": "uint64",
          "name": "newPendingStateTimeout",
          "type": "uint64"
        }
      ],
      "name": "SetPendingStateTimeout",
      "type": "event"
    },
    {
      "anonymous": false,
      "inputs": [
        {
          "indexed": false,
          "internalType": "address",
          "name": "newTrustedAggregator",
          "type": "address"
        }
      ],
      "name": "SetTrustedAggregator",
      "type": "event"
    },
    {
      "anonymous": false,
      "inputs": [
        {
          "indexed": false,
          "internalType": "uint64",
          "name": "newTrustedAggregatorTimeout",
          "type": "uint64"
        }
      ],
      "name": "SetTrustedAggregatorTimeout",
      "type": "event"
    },
    {
      "anonymous": false,
      "inputs": [
        {
          "indexed": false,
          "internalType": "address",
          "name": "newTrustedSequencer",
          "type": "address"
        }
      ],
      "name": "SetTrustedSequencer",
      "type": "event"
    },
    {
      "anonymous": false,
      "inputs": [
        {
          "indexed": false,
          "internalType": "string",
          "name": "newTrustedSequencerURL",
          "type": "string"
        }
      ],
      "name": "SetTrustedSequencerURL",
      "type": "event"
    },
    {
      "anonymous": false,
      "inputs": [
        {
          "indexed": false,
          "internalType": "uint64",
          "name": "newVerifyBatchTimeTarget",
          "type": "uint64"
        }
      ],
      "name": "SetVerifyBatchTimeTarget",
      "type": "event"
    },
    {
      "anonymous": false,
      "inputs": [
        {
          "indexed": false,
          "internalType": "address",
          "name": "newPendingAdmin",
          "type": "address"
        }
      ],
      "name": "TransferAdminRole",
      "type": "event"
    },
    {
      "anonymous": false,
      "inputs": [
        {
          "indexed": false,
          "internalType": "uint64",
          "name": "numBatch",
          "type": "uint64"
        },
        {
          "indexed": false,
          "internalType": "uint64",
          "name": "forkID",
          "type": "uint64"
        },
        {
          "indexed": false,
          "internalType": "string",
          "name": "version",
          "type": "string"
        }
      ],
      "name": "UpdateZkEVMVersion",
      "type": "event"
    },
    {
      "anonymous": false,
      "inputs": [
        {
          "indexed": true,
          "internalType": "uint64",
          "name": "numBatch",
          "type": "uint64"
        },
        {
          "indexed": false,
          "internalType": "bytes32",
          "name": "stateRoot",
          "type": "bytes32"
        },
        {
          "indexed": true,
          "internalType": "address",
          "name": "aggregator",
          "type": "address"
        }
      ],
      "name": "VerifyBatches",
      "type": "event"
    },
    {
      "anonymous": false,
      "inputs": [
        {
          "indexed": true,
          "internalType": "uint64",
          "name": "numBatch",
          "type": "uint64"
        },
        {
          "indexed": false,
          "internalType": "bytes32",
          "name": "stateRoot",
          "type": "bytes32"
        },
        {
          "indexed": true,
          "internalType": "address",
          "name": "aggregator",
          "type": "address"
        }
      ],
      "name": "VerifyBatchesTrustedAggregator",
      "type": "event"
    },
    {
      "inputs": [],
      "name": "acceptAdminRole",
      "outputs": [],
      "stateMutability": "nonpayable",
      "type": "function"
    },
    {
      "inputs": [
        {
          "internalType": "uint64",
          "name": "sequencedBatchNum",
          "type": "uint64"
        }
      ],
      "name": "activateEmergencyState",
      "outputs": [],
      "stateMutability": "nonpayable",
      "type": "function"
    },
    {
      "inputs": [],
      "name": "admin",
      "outputs": [
        {
          "internalType": "address",
          "name": "",
          "type": "address"
        }
      ],
      "stateMutability": "view",
      "type": "function"
    },
    {
      "inputs": [],
      "name": "batchFee",
      "outputs": [
        {
          "internalType": "uint256",
          "name": "",
          "type": "uint256"
        }
      ],
      "stateMutability": "view",
      "type": "function"
    },
    {
      "inputs": [
        {
          "internalType": "uint64",
          "name": "",
          "type": "uint64"
        }
      ],
      "name": "batchNumToStateRoot",
      "outputs": [
        {
          "internalType": "bytes32",
          "name": "",
          "type": "bytes32"
        }
      ],
      "stateMutability": "view",
      "type": "function"
    },
    {
      "inputs": [],
      "name": "bridgeAddress",
      "outputs": [
        {
          "internalType": "contract IPolygonZkEVMBridge",
          "name": "",
          "type": "address"
        }
      ],
      "stateMutability": "view",
      "type": "function"
    },
    {
      "inputs": [],
      "name": "calculateRewardPerBatch",
      "outputs": [
        {
          "internalType": "uint256",
          "name": "",
          "type": "uint256"
        }
      ],
      "stateMutability": "view",
      "type": "function"
    },
    {
      "inputs": [],
      "name": "chainID",
      "outputs": [
        {
          "internalType": "uint64",
          "name": "",
          "type": "uint64"
        }
      ],
      "stateMutability": "view",
      "type": "function"
    },
    {
      "inputs": [
        {
          "internalType": "uint64",
          "name": "pendingStateNum",
          "type": "uint64"
        }
      ],
      "name": "consolidatePendingState",
      "outputs": [],
      "stateMutability": "nonpayable",
      "type": "function"
    },
    {
      "inputs": [],
      "name": "deactivateEmergencyState",
      "outputs": [],
      "stateMutability": "nonpayable",
      "type": "function"
    },
    {
      "inputs": [
        {
          "internalType": "bytes",
          "name": "transactions",
          "type": "bytes"
        },
        {
          "internalType": "uint256",
          "name": "maticAmount",
          "type": "uint256"
        }
      ],
      "name": "forceBatch",
      "outputs": [],
      "stateMutability": "nonpayable",
      "type": "function"
    },
    {
      "inputs": [
        {
          "internalType": "uint64",
          "name": "",
          "type": "uint64"
        }
      ],
      "name": "forcedBatches",
      "outputs": [
        {
          "internalType": "bytes32",
          "name": "",
          "type": "bytes32"
        }
      ],
      "stateMutability": "view",
      "type": "function"
    },
    {
      "inputs": [],
      "name": "forkID",
      "outputs": [
        {
          "internalType": "uint64",
          "name": "",
          "type": "uint64"
        }
      ],
      "stateMutability": "view",
      "type": "function"
    },
    {
      "inputs": [],
      "name": "getCurrentBatchFee",
      "outputs": [
        {
          "internalType": "uint256",
          "name": "",
          "type": "uint256"
        }
      ],
      "stateMutability": "view",
      "type": "function"
    },
    {
      "inputs": [
        {
          "internalType": "uint64",
          "name": "initNumBatch",
          "type": "uint64"
        },
        {
          "internalType": "uint64",
          "name": "finalNewBatch",
          "type": "uint64"
        },
        {
          "internalType": "bytes32",
          "name": "newLocalExitRoot",
          "type": "bytes32"
        },
        {
          "internalType": "bytes32",
          "name": "oldStateRoot",
          "type": "bytes32"
        },
        {
          "internalType": "bytes32",
          "name": "newStateRoot",
          "type": "bytes32"
        }
      ],
      "name": "getInputSnarkBytes",
      "outputs": [
        {
          "internalType": "bytes",
          "name": "",
          "type": "bytes"
        }
      ],
      "stateMutability": "view",
      "type": "function"
    },
    {
      "inputs": [],
      "name": "getLastVerifiedBatch",
      "outputs": [
        {
          "internalType": "uint64",
          "name": "",
          "type": "uint64"
        }
      ],
      "stateMutability": "view",
      "type": "function"
    },
    {
      "inputs": [],
      "name": "globalExitRootManager",
      "outputs": [
        {
          "internalType": "contract IPolygonZkEVMGlobalExitRoot",
          "name": "",
          "type": "address"
        }
      ],
      "stateMutability": "view",
      "type": "function"
    },
    {
      "inputs": [
        {
          "components": [
            {
              "internalType": "address",
              "name": "admin",
              "type": "address"
            },
            {
              "internalType": "address",
              "name": "trustedSequencer",
              "type": "address"
            },
            {
              "internalType": "uint64",
              "name": "pendingStateTimeout",
              "type": "uint64"
            },
            {
              "internalType": "address",
              "name": "trustedAggregator",
              "type": "address"
            },
            {
              "internalType": "uint64",
              "name": "trustedAggregatorTimeout",
              "type": "uint64"
            }
          ],
          "internalType": "struct PolygonZkEVM.InitializePackedParameters",
          "name": "initializePackedParameters",
          "type": "tuple"
        },
        {
          "internalType": "bytes32",
          "name": "genesisRoot",
          "type": "bytes32"
        },
        {
          "internalType": "string",
          "name": "_trustedSequencerURL",
          "type": "string"
        },
        {
          "internalType": "string",
          "name": "_networkName",
          "type": "string"
        },
        {
          "internalType": "string",
          "name": "_version",
          "type": "string"
        }
      ],
      "name": "initialize",
      "outputs": [],
      "stateMutability": "nonpayable",
      "type": "function"
    },
    {
      "inputs": [],
      "name": "isEmergencyState",
      "outputs": [
        {
          "internalType": "bool",
          "name": "",
          "type": "bool"
        }
      ],
      "stateMutability": "view",
      "type": "function"
    },
    {
      "inputs": [
        {
          "internalType": "uint64",
          "name": "pendingStateNum",
          "type": "uint64"
        }
      ],
      "name": "isPendingStateConsolidable",
      "outputs": [
        {
          "internalType": "bool",
          "name": "",
          "type": "bool"
        }
      ],
      "stateMutability": "view",
      "type": "function"
    },
    {
      "inputs": [],
      "name": "lastBatchSequenced",
      "outputs": [
        {
          "internalType": "uint64",
          "name": "",
          "type": "uint64"
        }
      ],
      "stateMutability": "view",
      "type": "function"
    },
    {
      "inputs": [],
      "name": "lastForceBatch",
      "outputs": [
        {
          "internalType": "uint64",
          "name": "",
          "type": "uint64"
        }
      ],
      "stateMutability": "view",
      "type": "function"
    },
    {
      "inputs": [],
      "name": "lastForceBatchSequenced",
      "outputs": [
        {
          "internalType": "uint64",
          "name": "",
          "type": "uint64"
        }
      ],
      "stateMutability": "view",
      "type": "function"
    },
    {
      "inputs": [],
      "name": "lastPendingState",
      "outputs": [
        {
          "internalType": "uint64",
          "name": "",
          "type": "uint64"
        }
      ],
      "stateMutability": "view",
      "type": "function"
    },
    {
      "inputs": [],
      "name": "lastPendingStateConsolidated",
      "outputs": [
        {
          "internalType": "uint64",
          "name": "",
          "type": "uint64"
        }
      ],
      "stateMutability": "view",
      "type": "function"
    },
    {
      "inputs": [],
      "name": "lastTimestamp",
      "outputs": [
        {
          "internalType": "uint64",
          "name": "",
          "type": "uint64"
        }
      ],
      "stateMutability": "view",
      "type": "function"
    },
    {
      "inputs": [],
      "name": "lastVerifiedBatch",
      "outputs": [
        {
          "internalType": "uint64",
          "name": "",
          "type": "uint64"
        }
      ],
      "stateMutability": "view",
      "type": "function"
    },
    {
      "inputs": [],
      "name": "matic",
      "outputs": [
        {
          "internalType": "contract IERC20Upgradeable",
          "name": "",
          "type": "address"
        }
      ],
      "stateMutability": "view",
      "type": "function"
    },
    {
      "inputs": [],
      "name": "multiplierBatchFee",
      "outputs": [
        {
          "internalType": "uint16",
          "name": "",
          "type": "uint16"
        }
      ],
      "stateMutability": "view",
      "type": "function"
    },
    {
      "inputs": [],
      "name": "networkName",
      "outputs": [
        {
          "internalType": "string",
          "name": "",
          "type": "string"
        }
      ],
      "stateMutability": "view",
      "type": "function"
    },
    {
      "inputs": [
        {
          "internalType": "uint64",
          "name": "initPendingStateNum",
          "type": "uint64"
        },
        {
          "internalType": "uint64",
          "name": "finalPendingStateNum",
          "type": "uint64"
        },
        {
          "internalType": "uint64",
          "name": "initNumBatch",
          "type": "uint64"
        },
        {
          "internalType": "uint64",
          "name": "finalNewBatch",
          "type": "uint64"
        },
        {
          "internalType": "bytes32",
          "name": "newLocalExitRoot",
          "type": "bytes32"
        },
        {
          "internalType": "bytes32",
          "name": "newStateRoot",
          "type": "bytes32"
        },
        {
          "internalType": "uint256[2]",
          "name": "proofA",
          "type": "uint256[2]"
        },
        {
          "internalType": "uint256[2][2]",
          "name": "proofB",
          "type": "uint256[2][2]"
        },
        {
          "internalType": "uint256[2]",
          "name": "proofC",
          "type": "uint256[2]"
        }
      ],
      "name": "overridePendingState",
      "outputs": [],
      "stateMutability": "nonpayable",
      "type": "function"
    },
    {
      "inputs": [],
      "name": "owner",
      "outputs": [
        {
          "internalType": "address",
          "name": "",
          "type": "address"
        }
      ],
      "stateMutability": "view",
      "type": "function"
    },
    {
      "inputs": [],
      "name": "pendingAdmin",
      "outputs": [
        {
          "internalType": "address",
          "name": "",
          "type": "address"
        }
      ],
      "stateMutability": "view",
      "type": "function"
    },
    {
      "inputs": [],
      "name": "pendingStateTimeout",
      "outputs": [
        {
          "internalType": "uint64",
          "name": "",
          "type": "uint64"
        }
      ],
      "stateMutability": "view",
      "type": "function"
    },
    {
      "inputs": [
        {
          "internalType": "uint256",
          "name": "",
          "type": "uint256"
        }
      ],
      "name": "pendingStateTransitions",
      "outputs": [
        {
          "internalType": "uint64",
          "name": "timestamp",
          "type": "uint64"
        },
        {
          "internalType": "uint64",
          "name": "lastVerifiedBatch",
          "type": "uint64"
        },
        {
          "internalType": "bytes32",
          "name": "exitRoot",
          "type": "bytes32"
        },
        {
          "internalType": "bytes32",
          "name": "stateRoot",
          "type": "bytes32"
        }
      ],
      "stateMutability": "view",
      "type": "function"
    },
    {
      "inputs": [
        {
          "internalType": "uint64",
          "name": "initPendingStateNum",
          "type": "uint64"
        },
        {
          "internalType": "uint64",
          "name": "finalPendingStateNum",
          "type": "uint64"
        },
        {
          "internalType": "uint64",
          "name": "initNumBatch",
          "type": "uint64"
        },
        {
          "internalType": "uint64",
          "name": "finalNewBatch",
          "type": "uint64"
        },
        {
          "internalType": "bytes32",
          "name": "newLocalExitRoot",
          "type": "bytes32"
        },
        {
          "internalType": "bytes32",
          "name": "newStateRoot",
          "type": "bytes32"
        },
        {
          "internalType": "uint256[2]",
          "name": "proofA",
          "type": "uint256[2]"
        },
        {
          "internalType": "uint256[2][2]",
          "name": "proofB",
          "type": "uint256[2][2]"
        },
        {
          "internalType": "uint256[2]",
          "name": "proofC",
          "type": "uint256[2]"
        }
      ],
      "name": "proveNonDeterministicPendingState",
      "outputs": [],
      "stateMutability": "nonpayable",
      "type": "function"
    },
    {
      "inputs": [],
      "name": "renounceOwnership",
      "outputs": [],
      "stateMutability": "nonpayable",
      "type": "function"
    },
    {
      "inputs": [],
      "name": "rollupVerifier",
      "outputs": [
        {
          "internalType": "contract IVerifierRollup",
          "name": "",
          "type": "address"
        }
      ],
      "stateMutability": "view",
      "type": "function"
    },
    {
      "inputs": [
        {
          "components": [
            {
              "internalType": "bytes",
              "name": "transactions",
              "type": "bytes"
            },
            {
              "internalType": "bytes32",
              "name": "globalExitRoot",
              "type": "bytes32"
            },
            {
              "internalType": "uint64",
              "name": "timestamp",
              "type": "uint64"
            },
            {
              "internalType": "uint64",
              "name": "minForcedTimestamp",
              "type": "uint64"
            }
          ],
          "internalType": "struct PolygonZkEVM.BatchData[]",
          "name": "batches",
          "type": "tuple[]"
        },
        {
          "internalType": "address",
          "name": "feeRecipient",
          "type": "address"
        }
      ],
      "name": "sequenceBatches",
      "outputs": [],
      "stateMutability": "nonpayable",
      "type": "function"
    },
    {
      "inputs": [
        {
          "components": [
            {
              "internalType": "bytes",
              "name": "transactions",
              "type": "bytes"
            },
            {
              "internalType": "bytes32",
              "name": "globalExitRoot",
              "type": "bytes32"
            },
            {
              "internalType": "uint64",
              "name": "minForcedTimestamp",
              "type": "uint64"
            }
          ],
          "internalType": "struct PolygonZkEVM.ForcedBatchData[]",
          "name": "batches",
          "type": "tuple[]"
        }
      ],
      "name": "sequenceForceBatches",
      "outputs": [],
      "stateMutability": "nonpayable",
      "type": "function"
    },
    {
      "inputs": [
        {
          "internalType": "uint64",
          "name": "",
          "type": "uint64"
        }
      ],
      "name": "sequencedBatches",
      "outputs": [
        {
          "internalType": "bytes32",
          "name": "accInputHash",
          "type": "bytes32"
        },
        {
          "internalType": "uint64",
          "name": "sequencedTimestamp",
          "type": "uint64"
        },
        {
          "internalType": "uint64",
          "name": "previousLastBatchSequenced",
          "type": "uint64"
        }
      ],
      "stateMutability": "view",
      "type": "function"
    },
    {
      "inputs": [
        {
          "internalType": "uint16",
          "name": "newMultiplierBatchFee",
          "type": "uint16"
        }
      ],
      "name": "setMultiplierBatchFee",
      "outputs": [],
      "stateMutability": "nonpayable",
      "type": "function"
    },
    {
      "inputs": [
        {
          "internalType": "uint64",
          "name": "newPendingStateTimeout",
          "type": "uint64"
        }
      ],
      "name": "setPendingStateTimeout",
      "outputs": [],
      "stateMutability": "nonpayable",
      "type": "function"
    },
    {
      "inputs": [
        {
          "internalType": "address",
          "name": "newTrustedAggregator",
          "type": "address"
        }
      ],
      "name": "setTrustedAggregator",
      "outputs": [],
      "stateMutability": "nonpayable",
      "type": "function"
    },
    {
      "inputs": [
        {
          "internalType": "uint64",
          "name": "newTrustedAggregatorTimeout",
          "type": "uint64"
        }
      ],
      "name": "setTrustedAggregatorTimeout",
      "outputs": [],
      "stateMutability": "nonpayable",
      "type": "function"
    },
    {
      "inputs": [
        {
          "internalType": "address",
          "name": "newTrustedSequencer",
          "type": "address"
        }
      ],
      "name": "setTrustedSequencer",
      "outputs": [],
      "stateMutability": "nonpayable",
      "type": "function"
    },
    {
      "inputs": [
        {
          "internalType": "string",
          "name": "newTrustedSequencerURL",
          "type": "string"
        }
      ],
      "name": "setTrustedSequencerURL",
      "outputs": [],
      "stateMutability": "nonpayable",
      "type": "function"
    },
    {
      "inputs": [
        {
          "internalType": "uint64",
          "name": "newVerifyBatchTimeTarget",
          "type": "uint64"
        }
      ],
      "name": "setVerifyBatchTimeTarget",
      "outputs": [],
      "stateMutability": "nonpayable",
      "type": "function"
    },
    {
      "inputs": [
        {
          "internalType": "address",
          "name": "newPendingAdmin",
          "type": "address"
        }
      ],
      "name": "transferAdminRole",
      "outputs": [],
      "stateMutability": "nonpayable",
      "type": "function"
    },
    {
      "inputs": [
        {
          "internalType": "address",
          "name": "newOwner",
          "type": "address"
        }
      ],
      "name": "transferOwnership",
      "outputs": [],
      "stateMutability": "nonpayable",
      "type": "function"
    },
    {
      "inputs": [],
      "name": "trustedAggregator",
      "outputs": [
        {
          "internalType": "address",
          "name": "",
          "type": "address"
        }
      ],
      "stateMutability": "view",
      "type": "function"
    },
    {
      "inputs": [],
      "name": "trustedAggregatorTimeout",
      "outputs": [
        {
          "internalType": "uint64",
          "name": "",
          "type": "uint64"
        }
      ],
      "stateMutability": "view",
      "type": "function"
    },
    {
      "inputs": [],
      "name": "trustedSequencer",
      "outputs": [
        {
          "internalType": "address",
          "name": "",
          "type": "address"
        }
      ],
      "stateMutability": "view",
      "type": "function"
    },
    {
      "inputs": [],
      "name": "trustedSequencerURL",
      "outputs": [
        {
          "internalType": "string",
          "name": "",
          "type": "string"
        }
      ],
      "stateMutability": "view",
      "type": "function"
    },
    {
      "inputs": [],
      "name": "verifyBatchTimeTarget",
      "outputs": [
        {
          "internalType": "uint64",
          "name": "",
          "type": "uint64"
        }
      ],
      "stateMutability": "view",
      "type": "function"
    },
    {
      "inputs": [
        {
          "internalType": "uint64",
          "name": "pendingStateNum",
          "type": "uint64"
        },
        {
          "internalType": "uint64",
          "name": "initNumBatch",
          "type": "uint64"
        },
        {
          "internalType": "uint64",
          "name": "finalNewBatch",
          "type": "uint64"
        },
        {
          "internalType": "bytes32",
          "name": "newLocalExitRoot",
          "type": "bytes32"
        },
        {
          "internalType": "bytes32",
          "name": "newStateRoot",
          "type": "bytes32"
        },
        {
          "internalType": "uint256[2]",
          "name": "proofA",
          "type": "uint256[2]"
        },
        {
          "internalType": "uint256[2][2]",
          "name": "proofB",
          "type": "uint256[2][2]"
        },
        {
          "internalType": "uint256[2]",
          "name": "proofC",
          "type": "uint256[2]"
        }
      ],
      "name": "verifyBatches",
      "outputs": [],
      "stateMutability": "nonpayable",
      "type": "function"
    },
    {
      "inputs": [
        {
          "internalType": "uint64",
          "name": "pendingStateNum",
          "type": "uint64"
        },
        {
          "internalType": "uint64",
          "name": "initNumBatch",
          "type": "uint64"
        },
        {
          "internalType": "uint64",
          "name": "finalNewBatch",
          "type": "uint64"
        },
        {
          "internalType": "bytes32",
          "name": "newLocalExitRoot",
          "type": "bytes32"
        },
        {
          "internalType": "bytes32",
          "name": "newStateRoot",
          "type": "bytes32"
        },
        {
          "internalType": "uint256[2]",
          "name": "proofA",
          "type": "uint256[2]"
        },
        {
          "internalType": "uint256[2][2]",
          "name": "proofB",
          "type": "uint256[2][2]"
        },
        {
          "internalType": "uint256[2]",
          "name": "proofC",
          "type": "uint256[2]"
        }
      ],
      "name": "verifyBatchesTrustedAggregator",
      "outputs": [],
      "stateMutability": "nonpayable",
      "type": "function"
    }
  ],
  "bytecode": "0x6101406040523480156200001257600080fd5b506040516200463b3803806200463b8339810160408190526200003591620000a5565b6001600160a01b0395861660c05293851660805291841660a05290921660e0526001600160401b0391821661010052166101205262000131565b6001600160a01b03811681146200008557600080fd5b50565b80516001600160401b0381168114620000a057600080fd5b919050565b60008060008060008060c08789031215620000bf57600080fd5b8651620000cc816200006f565b6020880151909650620000df816200006f565b6040880151909550620000f2816200006f565b606088015190945062000105816200006f565b9250620001156080880162000088565b91506200012560a0880162000088565b90509295509295509295565b60805160a05160c05160e0516101005161012051614443620001f86000396000818161055301528181610ada0152611e5701526000818161068b0152610ab001526000818161065101528181612255015261315901526000818161079601528181610db9015281816111bf01528181612372015281816124e6015281816127830152612f8001526000818161083201528181612b0c015261343401526000818161073a0152818161145a0152818161178e015281816124ba0152612bd701526144436000f3fe608060405234801561001057600080fd5b50600436106103035760003560e01c80638c3d73011161019e578063cfa8ed47116100ef578063e7a7ed021161009d578063e7a7ed0214610813578063e8bf92ed1461082d578063eaeb077b14610854578063f020c93e14610867578063f14916d61461087a578063f2fde38b1461088d578063f851a440146108a0578063f8b823e4146108b357600080fd5b8063cfa8ed4714610777578063d02103ca14610791578063d2e129f9146107b8578063d8d1091b146107cb578063d939b315146107de578063dbc16976146107f8578063e11f3f181461080057600080fd5b8063ada8f9191161014c578063ada8f91914610673578063adc879e914610686578063afd23cbe146106ad578063b4d63f58146106d5578063b6b0b09714610735578063c0ed84e01461075c578063c89e42df1461076457600080fd5b80638c3d7301146105fd5780638da5cb5b1461060557806399f5634e146106165780639c9f3dfe1461061e5780639f0d039d14610631578063a066215c14610639578063a3c573eb1461064c57600080fd5b80634a1a89a711610258578063715018a611610206578063715018a61461050d5780637215541a1461051557806375c508b3146105285780637fcb36531461053b578063831c7ead1461054e578063837a473814610575578063841b24d7146105e357600080fd5b80634a1a89a7146104645780634a910e6a1461047e5780635392c5e014610491578063542028d5146104bf5780635e9145c9146104c75780636b8616ce146104da5780636ff512cc146104fa57600080fd5b806329878983116102b557806329878983146103ca578063383b3be8146103e4578063394218e9146103f7578063423fa8561461040a5780634560526714610424578063458c04771461043e5780634834a3431461045157600080fd5b80630a0d9fbe14610308578063107bf28c1461033d57806315064c96146103525780631816b7e51461036f57806319d8ac6114610384578063220d78991461039757806326782247146103aa575b600080fd5b606f546103209061010090046001600160401b031681565b6040516001600160401b0390911681526020015b60405180910390f35b6103456108bc565b6040516103349190613917565b606f5461035f9060ff1681565b6040519015158152602001610334565b61038261037d366004613931565b61094a565b005b607354610320906001600160401b031681565b6103456103a5366004613971565b610a03565b607b546103bd906001600160a01b031681565b60405161033491906139be565b6074546103bd90600160401b90046001600160a01b031681565b61035f6103f23660046139d2565b610b38565b6103826104053660046139d2565b610b7f565b60735461032090600160401b90046001600160401b031681565b60735461032090600160801b90046001600160401b031681565b607954610320906001600160401b031681565b61038261045f366004613a15565b610c6d565b60795461032090600160401b90046001600160401b031681565b61038261048c3660046139d2565b610f1e565b6104b161049f3660046139d2565b60756020526000908152604090205481565b604051908152602001610334565b610345610f8d565b6103826104d5366004613b04565b610f9a565b6104b16104e83660046139d2565b60716020526000908152604090205481565b610382610508366004613b57565b6114ca565b610382611549565b6103826105233660046139d2565b61155d565b610382610536366004613b72565b61166a565b607454610320906001600160401b031681565b6103207f000000000000000000000000000000000000000000000000000000000000000081565b6105b8610583366004613c10565b6078602052600090815260409020805460018201546002909201546001600160401b0380831693600160401b90930416919084565b604080516001600160401b039586168152949093166020850152918301526060820152608001610334565b60795461032090600160c01b90046001600160401b031681565b610382611705565b6033546001600160a01b03166103bd565b6104b1611789565b61038261062c3660046139d2565b611896565b6070546104b1565b6103826106473660046139d2565b611989565b6103bd7f000000000000000000000000000000000000000000000000000000000000000081565b610382610681366004613b57565b611a38565b6103207f000000000000000000000000000000000000000000000000000000000000000081565b606f546106c290600160481b900461ffff1681565b60405161ffff9091168152602001610334565b6107106106e33660046139d2565b607260205260009081526040902080546001909101546001600160401b0380821691600160401b90041683565b604080519384526001600160401b039283166020850152911690820152606001610334565b6103bd7f000000000000000000000000000000000000000000000000000000000000000081565b610320611aae565b610382610772366004613ccb565b611afb565b606f546103bd90600160581b90046001600160a01b031681565b6103bd7f000000000000000000000000000000000000000000000000000000000000000081565b6103826107c6366004613d40565b611b62565b6103826107d9366004613df2565b611edf565b60795461032090600160801b90046001600160401b031681565b610382612228565b61038261080e366004613b72565b6122ce565b60735461032090600160c01b90046001600160401b031681565b6103bd7f000000000000000000000000000000000000000000000000000000000000000081565b610382610862366004613e33565b612437565b610382610875366004613a15565b6126e0565b610382610888366004613b57565b612824565b61038261089b366004613b57565b6128a3565b607a546103bd906001600160a01b031681565b6104b160705481565b607780546108c990613e7e565b80601f01602080910402602001604051908101604052809291908181526020018280546108f590613e7e565b80156109425780601f1061091757610100808354040283529160200191610942565b820191906000526020600020905b81548152906001019060200180831161092557829003601f168201915b505050505081565b607a546001600160a01b0316331461097557604051634755657960e01b815260040160405180910390fd5b6103e88161ffff16108061098e57506103ff8161ffff16115b156109ac57604051630984a67960e31b815260040160405180910390fd5b606f805461ffff60481b1916600160481b61ffff8416908102919091179091556040519081527f7019933d795eba185c180209e8ae8bffbaa25bcef293364687702c31f4d302c5906020015b60405180910390a150565b6001600160401b038086166000818152607260205260408082205493881682529020546060929115801590610a36575081155b15610a545760405163340c614f60e11b815260040160405180910390fd5b80610a72576040516366385b5160e01b815260040160405180910390fd5b604080516001600160601b03193360601b166020820152603481019690965260548601929092526001600160c01b031960c098891b811660748701527f0000000000000000000000000000000000000000000000000000000000000000891b8116607c8701527f0000000000000000000000000000000000000000000000000000000000000000891b81166084870152608c86019490945260ac85015260cc840194909452509290931b90911660ec830152805180830360d401815260f4909201905290565b6079546001600160401b0382811660009081526078602052604081205490924292610b6e92600160801b90920481169116613ece565b6001600160401b0316111592915050565b607a546001600160a01b03163314610baa57604051634755657960e01b815260040160405180910390fd5b62093a806001600160401b0382161115610bd757604051631d06e87960e01b815260040160405180910390fd5b606f5460ff16610c17576079546001600160401b03600160c01b909104811690821610610c175760405163401636df60e01b815260040160405180910390fd5b607980546001600160c01b0316600160c01b6001600160401b038416908102919091179091556040519081527f1f4fa24c2e4bad19a7f3ec5c5485f70d46c798461c2e684f55bbd0fc661373a1906020016109f8565b606f5460ff1615610c9157604051630bc011ff60e21b815260040160405180910390fd5b6079546001600160401b038781166000908152607260205260409020600101544292610cc892600160c01b90910481169116613ece565b6001600160401b03161115610cf057604051638a0704d360e01b815260040160405180910390fd5b6103e8610cfd8888613ef5565b6001600160401b03161115610d2557604051635acfba9d60e11b815260040160405180910390fd5b610d358888888888888888612919565b610d3e86612c0c565b607954600160801b90046001600160401b0316600003610e22576074805467ffffffffffffffff19166001600160401b0388811691821790925560009081526075602052604090208590556079541615610da357607980546001600160801b03191690555b6040516333d6247d60e01b8152600481018690527f00000000000000000000000000000000000000000000000000000000000000006001600160a01b0316906333d6247d90602401600060405180830381600087803b158015610e0557600080fd5b505af1158015610e19573d6000803e3d6000fd5b50505050610ed3565b610e2a612e00565b607980546001600160401b0316906000610e4383613f15565b82546001600160401b039182166101009390930a92830292820219169190911790915560408051608081018252428316815289831660208083019182528284018b8152606084018b8152607954871660009081526078909352949091209251835492518616600160401b026001600160801b03199093169516949094171781559151600183015551600290910155505b60405184815233906001600160401b038816907f9c72852172521097ba7e1482e6b44b351323df0155f97f4ea18fcec28e1f5966906020015b60405180910390a35050505050505050565b607454600160401b90046001600160a01b03163314610f8157606f5460ff1615610f5b57604051630bc011ff60e21b815260040160405180910390fd5b610f6481610b38565b610f8157604051630674f25160e11b815260040160405180910390fd5b610f8a81612ea0565b50565b607680546108c990613e7e565b606f5460ff1615610fbe57604051630bc011ff60e21b815260040160405180910390fd5b606f54600160581b90046001600160a01b03163314610ff0576040516311e7be1560e01b815260040160405180910390fd5b8160008190036110135760405163cb591a5f60e01b815260040160405180910390fd5b6103e881111561103657604051635acfba9d60e11b815260040160405180910390fd5b6073546001600160401b03600160401b82048116600081815260726020526040812054838516949293600160801b909304909216919082905b8681101561131d5760008a8a8381811061108b5761108b613f3b565b905060200281019061109d9190613f51565b6110a690613f71565b805180516020909101206060820151919250906001600160401b03161561119557856110d181613f15565b965050600081836020015184606001516040516020016110f393929190613ffd565b60408051601f1981840301815291815281516020928301206001600160401b038a166000908152607190935291205490915081146111445760405163671ebaaf60e11b815260040160405180910390fd5b6001600160401b03808816600090815260716020526040808220919091556060850151908501519082169116101561118f57604051633fbd5c3960e11b815260040160405180910390fd5b5061127a565b602082015115801590611236575060208201516040516312bd9b1960e11b815260048101919091527f00000000000000000000000000000000000000000000000000000000000000006001600160a01b03169063257b3632906024016020604051808303816000875af1158015611210573d6000803e3d6000fd5b505050506040513d601f19601f820116820180604052508101906112349190614020565b155b15611254576040516373bd668d60e01b815260040160405180910390fd5b815151620493e0101561127a576040516328a69b1f60e21b815260040160405180910390fd5b876001600160401b031682604001516001600160401b031610806112aa57504282604001516001600160401b0316115b156112c8576040516375413c8b60e11b815260040160405180910390fd5b8481836020015184604001518d6040516020016112e9959493929190614039565b604051602081830303815290604052805190602001209450816040015197505050808061131590614078565b91505061106f565b506113288685613ece565b6073549094506001600160401b03600160c01b909104811690841611156113625760405163c630a00d60e01b815260040160405180910390fd5b600061136e8285613ef5565b611381906001600160401b031688614091565b60408051606081018252858152426001600160401b03908116602080840191825260738054600160401b9081900485168688019081528d861660008181526072909552979093209551865592516001909501805492519585166001600160801b03199384161795851684029590951790945583548c8416911617930292909217905590915082811690851614611437576073805467ffffffffffffffff60801b1916600160801b6001600160401b038716021790555b61148233308361144660705490565b61145091906140a4565b6001600160a01b037f00000000000000000000000000000000000000000000000000000000000000001692919061303a565b61148a612e00565b6040516001600160401b038616907f303446e6a8cb73c83dff421c0b1d5e5ce0719dab1bff13660fc254e58cc17fce90600090a250505050505050505050565b607a546001600160a01b031633146114f557604051634755657960e01b815260040160405180910390fd5b606f8054600160581b600160f81b031916600160581b6001600160a01b038416021790556040517ff54144f9611984021529f814a1cb6a41e22c58351510a0d9f7e822618abb9cc0906109f89083906139be565b6115516130ab565b61155b6000613105565b565b6033546001600160a01b03163314611662576000611579611aae565b9050806001600160401b0316826001600160401b0316116115ad5760405163812a372d60e01b815260040160405180910390fd5b6073546001600160401b03600160401b909104811690831611806115ec57506001600160401b0380831660009081526072602052604090206001015416155b1561160a57604051632631700560e21b815260040160405180910390fd5b6001600160401b0380831660009081526072602052604090206001015442916116389162093a809116613ece565b6001600160401b031611156116605760405163692baaad60e11b815260040160405180910390fd5b505b610f8a613157565b606f5460ff161561168e57604051630bc011ff60e21b815260040160405180910390fd5b61169f8989898989898989896131d2565b6001600160401b0386166000908152607560209081526040918290205482519081529081018690527f1f44c21118c4603cfb4e1b621dbcfa2b73efcececee2b99b620b2953d33a7010910160405180910390a16116fa613157565b505050505050505050565b607b546001600160a01b031633146117305760405163d1ec4b2360e01b815260040160405180910390fd5b607b54607a80546001600160a01b0319166001600160a01b0390921691821790556040517f056dc487bbf0795d0bbb1b4f0af523a855503cff740bfb4d5475f7a90c091e8e9161177f916139be565b60405180910390a1565b6000807f00000000000000000000000000000000000000000000000000000000000000006001600160a01b03166370a08231306040518263ffffffff1660e01b81526004016117d891906139be565b602060405180830381865afa1580156117f5573d6000803e3d6000fd5b505050506040513d601f19601f820116820180604052508101906118199190614020565b90506000611825611aae565b6073546001600160401b03600160401b820481169161185591600160801b8204811691600160c01b900416613ef5565b61185f9190613ece565b6118699190613ef5565b6001600160401b03169050806000036118855760009250505090565b61188f81836140d1565b9250505090565b607a546001600160a01b031633146118c157604051634755657960e01b815260040160405180910390fd5b62093a806001600160401b03821611156118ee57604051630cc9650760e41b815260040160405180910390fd5b606f5460ff1661192e576079546001600160401b03600160801b90910481169082161061192e5760405163048a05a960e41b815260040160405180910390fd5b6079805467ffffffffffffffff60801b1916600160801b6001600160401b038416908102919091179091556040519081527fc4121f4e22c69632ebb7cf1f462be0511dc034f999b52013eddfb24aab765c75906020016109f8565b607a546001600160a01b031633146119b457604051634755657960e01b815260040160405180910390fd5b62015180816001600160401b031611156119e157604051631c0cfbfd60e31b815260040160405180910390fd5b606f805468ffffffffffffffff0019166101006001600160401b038416908102919091179091556040519081527f1b023231a1ab6b5d93992f168fb44498e1a7e64cef58daff6f1c216de6a68c28906020016109f8565b607a546001600160a01b03163314611a6357604051634755657960e01b815260040160405180910390fd5b607b80546001600160a01b0319166001600160a01b0383161790556040517fa5b56b7906fd0a20e3f35120dd8343db1e12e037a6c90111c7e42885e82a1ce6906109f89083906139be565b6079546000906001600160401b031615611aeb57506079546001600160401b03908116600090815260786020526040902054600160401b90041690565b506074546001600160401b031690565b607a546001600160a01b03163314611b2657604051634755657960e01b815260040160405180910390fd5b6076611b328282614133565b507f6b8f723a4c7a5335cafae8a598a0aa0301be1387c037dccc085b62add6448b20816040516109f89190613917565b600054610100900460ff1615808015611b825750600054600160ff909116105b80611b9c5750303b158015611b9c575060005460ff166001145b611c045760405162461bcd60e51b815260206004820152602e60248201527f496e697469616c697a61626c653a20636f6e747261637420697320616c72656160448201526d191e481a5b9a5d1a585b1a5e995960921b60648201526084015b60405180910390fd5b6000805460ff191660011790558015611c27576000805461ff0019166101001790555b611c346020880188613b57565b607a80546001600160a01b0319166001600160a01b0392909216919091179055611c646040880160208901613b57565b606f80546001600160a01b0392909216600160581b02600160581b600160f81b0319909216919091179055611c9f6080880160608901613b57565b607480546001600160a01b0392909216600160401b02600160401b600160e01b03199092169190911790556000805260756020527ff9e3fbf150b7a0077118526f473c53cb4734f166167e2c6213e3567dd390b4ad8690556076611d038682614133565b506077611d108582614133565b5062093a80611d256060890160408a016139d2565b6001600160401b03161115611d4d57604051630cc9650760e41b815260040160405180910390fd5b611d5d60608801604089016139d2565b607980546001600160401b0392909216600160801b0267ffffffffffffffff60801b1990921691909117905562093a80611d9d60a0890160808a016139d2565b6001600160401b03161115611dc557604051631d06e87960e01b815260040160405180910390fd5b611dd560a08801608089016139d2565b607980546001600160c01b0316600160c01b6001600160401b039390931692909202919091179055670de0b6b3a7640000607055606f80546affffffffffffffffffff0019166a03ea000000000000070800179055611e32613508565b7fed7be53c9f1a96a481223b15568a5b1a475e01a74b347d6ca187c8bf0c078cd660007f00000000000000000000000000000000000000000000000000000000000000008585604051611e88949392919061421b565b60405180910390a18015611ed6576000805461ff0019169055604051600181527f7f26b83ff96e1f2b6a682f133852f6798a09c465da95921460cefb38474024989060200160405180910390a15b50505050505050565b606f5460ff1615611f0357604051630bc011ff60e21b815260040160405180910390fd5b806000819003611f265760405163cb591a5f60e01b815260040160405180910390fd5b6103e8811115611f4957604051635acfba9d60e11b815260040160405180910390fd5b6073546001600160401b03600160c01b8204811691611f71918491600160801b900416614252565b1115611f905760405163c630a00d60e01b815260040160405180910390fd5b6073546001600160401b03600160401b820481166000818152607260205260408120549193600160801b9004909216915b84811015612130576000878783818110611fdd57611fdd613f3b565b9050602002810190611fef9190614265565b611ff89061427b565b90508361200481613f15565b825180516020918201208185015160408087015190519499509194506000936120309386939101613ffd565b60408051601f1981840301815291815281516020928301206001600160401b0389166000908152607190935291205490915081146120815760405163671ebaaf60e11b815260040160405180910390fd5b6001600160401b0386166000908152607160205260408120556120a5600189614091565b84036120e55742600084604001516120bd9190613ece565b6001600160401b031611156120e55760405163c44a082160e01b815260040160405180910390fd5b848284602001514233604051602001612102959493929190614039565b604051602081830303815290604052805190602001209450505050808061212890614078565b915050611fc1565b5061213b8484613ece565b607380546001600160401b0342811667ffffffffffffffff199092168217808455604080516060810182528781526020808201958652600160401b9384900485168284019081528589166000818152607290935284832093518455965160019390930180549151871686026001600160801b031990921693871693909317179091558554938916600160801b0267ffffffffffffffff60801b1993860293909316600160401b600160c01b031990941693909317919091179093559151929550917f648a61dd2438f072f5a1960939abd30f37aea80d2e94c9792ad142d3e0a490a49190a2505050505050565b607a546001600160a01b0316331461225357604051634755657960e01b815260040160405180910390fd5b7f00000000000000000000000000000000000000000000000000000000000000006001600160a01b031663dbc169766040518163ffffffff1660e01b8152600401600060405180830381600087803b1580156122ae57600080fd5b505af11580156122c2573d6000803e3d6000fd5b5050505061155b61357c565b607454600160401b90046001600160a01b031633146123005760405163bbcbbc0560e01b815260040160405180910390fd5b6123118989898989898989896131d2565b6074805467ffffffffffffffff19166001600160401b038881169182179092556000908152607560205260409020859055607954161561235c57607980546001600160801b03191690555b6040516333d6247d60e01b8152600481018690527f00000000000000000000000000000000000000000000000000000000000000006001600160a01b0316906333d6247d90602401600060405180830381600087803b1580156123be57600080fd5b505af11580156123d2573d6000803e3d6000fd5b5050607980546001600160c01b031661127560c71b179055505060405184815233906001600160401b038816907fcc1b5520188bf1dd3e63f98164b577c4d75c11a619ddea692112f0d1aec4cf729060200160405180910390a3505050505050505050565b606f5460ff161561245b57604051630bc011ff60e21b815260040160405180910390fd5b600061246660705490565b90508181111561248957604051634732fdb560e01b815260040160405180910390fd5b620493e08311156124ad576040516328a69b1f60e21b815260040160405180910390fd5b6124e26001600160a01b037f00000000000000000000000000000000000000000000000000000000000000001633308461303a565b60007f00000000000000000000000000000000000000000000000000000000000000006001600160a01b0316633ed691ef6040518163ffffffff1660e01b8152600401602060405180830381865afa158015612542573d6000803e3d6000fd5b505050506040513d601f19601f820116820180604052508101906125669190614020565b60738054919250600160c01b9091046001600160401b031690601861258a83613f15565b91906101000a8154816001600160401b0302191690836001600160401b031602179055505084846040516125bf9291906142f6565b6040519081900381206125d89183904290602001613ffd565b60408051808303601f190181529181528151602092830120607354600160c01b90046001600160401b03166000908152607190935291205532330361267c57607354604080518381523360208201526060918101829052600091810191909152600160c01b9091046001600160401b0316907ff94bb37db835f1ab585ee00041849a09b12cd081d77fa15ca070757619cbc9319060800160405180910390a26126d9565b607360189054906101000a90046001600160401b03166001600160401b03167ff94bb37db835f1ab585ee00041849a09b12cd081d77fa15ca070757619cbc931823388886040516126d09493929190614306565b60405180910390a25b5050505050565b607454600160401b90046001600160a01b031633146127125760405163bbcbbc0560e01b815260040160405180910390fd5b6127228888888888888888612919565b6074805467ffffffffffffffff19166001600160401b038881169182179092556000908152607560205260409020859055607954161561276d57607980546001600160801b03191690555b6040516333d6247d60e01b8152600481018690527f00000000000000000000000000000000000000000000000000000000000000006001600160a01b0316906333d6247d90602401600060405180830381600087803b1580156127cf57600080fd5b505af11580156127e3573d6000803e3d6000fd5b50506040518681523392506001600160401b03891691507fcb339b570a7f0b25afa7333371ff11192092a0aeace12b671f4c212f2815c6fe90602001610f0c565b607a546001600160a01b0316331461284f57604051634755657960e01b815260040160405180910390fd5b60748054600160401b600160e01b031916600160401b6001600160a01b038416021790556040517f61f8fec29495a3078e9271456f05fb0707fd4e41f7661865f80fc437d06681ca906109f89083906139be565b6128ab6130ab565b6001600160a01b0381166129105760405162461bcd60e51b815260206004820152602660248201527f4f776e61626c653a206e6577206f776e657220697320746865207a65726f206160448201526564647265737360d01b6064820152608401611bfb565b610f8a81613105565b600080612924611aae565b90506001600160401b038a16156129ba576079546001600160401b03908116908b1611156129655760405163bb14c20560e01b815260040160405180910390fd5b6001600160401b03808b1660009081526078602052604090206002810154815490945090918b8116600160401b90920416146129b457604051632bd2e3e760e01b815260040160405180910390fd5b50612a26565b6001600160401b0389166000908152607560205260409020549150816129f3576040516324cbdcc360e11b815260040160405180910390fd5b806001600160401b0316896001600160401b03161115612a2657604051630f2b74f160e11b815260040160405180910390fd5b806001600160401b0316886001600160401b031611612a585760405163b9b18f5760e01b815260040160405180910390fd5b6000612a678a8a8a868b610a03565b905060007f30644e72e131a029b85045b68181585d2833e84879b9709143e1f593f0000001600283604051612a9c9190614331565b602060405180830381855afa158015612ab9573d6000803e3d6000fd5b5050506040513d601f19601f82011682018060405250810190612adc9190614020565b612ae69190614343565b6040805160208101825282815290516343753b4d60e01b81529192506001600160a01b037f000000000000000000000000000000000000000000000000000000000000000016916343753b4d91612b46918b918b918b9190600401614357565b602060405180830381865afa158015612b63573d6000803e3d6000fd5b505050506040513d601f19601f82011682018060405250810190612b8791906143c5565b612ba4576040516309bde33960e01b815260040160405180910390fd5b612bfe33612bb2858d613ef5565b6001600160401b0316612bc3611789565b612bcd91906140a4565b6001600160a01b037f00000000000000000000000000000000000000000000000000000000000000001691906135d4565b505050505050505050505050565b6000612c16611aae565b905081600080612c268484613ef5565b606f546001600160401b039182169250600091612c499161010090041642614091565b90505b846001600160401b0316846001600160401b031614612ce9576001600160401b0380851660009081526072602052604090206001810154909116821015612cdd576001810154612cac90600160401b90046001600160401b031686613ef5565b612cbf906001600160401b031685614252565b6001820154600160401b90046001600160401b031695509350612ce3565b50612ce9565b50612c4c565b6000612cf58484614091565b905080841015612d4c57838103600c8111612d105780612d13565b600c5b9050806103e80a81606f60099054906101000a900461ffff1661ffff160a6070540281612d4257612d426140bb565b0460705550612dbc565b808403600c8111612d5d5780612d60565b600c5b90506000816103e80a82606f60099054906101000a900461ffff1661ffff160a670de0b6b3a76400000281612d9757612d976140bb565b04905080607054670de0b6b3a76400000281612db557612db56140bb565b0460705550505b683635c9adc5dea000006070541115612de157683635c9adc5dea00000607055611ed6565b633b9aca006070541015611ed657633b9aca0060705550505050505050565b6079546001600160401b03600160401b820481169116111561155b57607954600090612e3d90600160401b90046001600160401b03166001613ece565b9050612e4881610b38565b15610f8a57607954600090600290612e6a9084906001600160401b0316613ef5565b612e7491906143e7565b612e7e9083613ece565b9050612e8981610b38565b15612e9b57612e9781612ea0565b5050565b612e97825b6079546001600160401b03600160401b9091048116908216111580612ed357506079546001600160401b03908116908216115b15612ef15760405163d086b70b60e01b815260040160405180910390fd5b6001600160401b038181166000818152607860209081526040808320805460748054600160401b9283900490981667ffffffffffffffff19909816881790556002820154878652607590945293829020929092556079805467ffffffffffffffff60401b19169390940292909217909255600182015490516333d6247d60e01b815260048101919091529091907f00000000000000000000000000000000000000000000000000000000000000006001600160a01b0316906333d6247d90602401600060405180830381600087803b158015612fcc57600080fd5b505af1158015612fe0573d6000803e3d6000fd5b50505050826001600160401b0316816001600160401b03167f328d3c6c0fd6f1be0515e422f2d87e59f25922cbc2233568515a0c4bc3f8510e846002015460405161302d91815260200190565b60405180910390a3505050565b6040516001600160a01b03808516602483015283166044820152606481018290526130a59085906323b872dd60e01b906084015b60408051601f198184030181529190526020810180516001600160e01b03166001600160e01b031990931692909217909152613609565b50505050565b6033546001600160a01b0316331461155b5760405162461bcd60e51b815260206004820181905260248201527f4f776e61626c653a2063616c6c6572206973206e6f7420746865206f776e65726044820152606401611bfb565b603380546001600160a01b038381166001600160a01b0319831681179093556040519116919082907f8be0079c531659141344cd1fd0a4f28419497f9722a3daafe3b4186f6b6457e090600090a35050565b7f00000000000000000000000000000000000000000000000000000000000000006001600160a01b0316632072f6c56040518163ffffffff1660e01b8152600401600060405180830381600087803b1580156131b257600080fd5b505af11580156131c6573d6000803e3d6000fd5b5050505061155b6136db565b60006001600160401b038a1615613266576079546001600160401b03908116908b1611156132135760405163bb14c20560e01b815260040160405180910390fd5b506001600160401b03808a1660009081526078602052604090206002810154815490928a8116600160401b909204161461326057604051632bd2e3e760e01b815260040160405180910390fd5b506132ce565b506001600160401b0387166000908152607560205260409020548061329e576040516324cbdcc360e11b815260040160405180910390fd5b6074546001600160401b0390811690891611156132ce57604051630f2b74f160e11b815260040160405180910390fd5b6079546001600160401b03908116908a1611806132fd5750896001600160401b0316896001600160401b031611155b8061331e57506079546001600160401b03600160401b9091048116908a1611155b1561333c5760405163bfa7079f60e01b815260040160405180910390fd5b6001600160401b03898116600090815260786020526040902054600160401b9004811690881614613380576040516332a2a77f60e01b815260040160405180910390fd5b600061338f898989858a610a03565b905060007f30644e72e131a029b85045b68181585d2833e84879b9709143e1f593f00000016002836040516133c49190614331565b602060405180830381855afa1580156133e1573d6000803e3d6000fd5b5050506040513d601f19601f820116820180604052508101906134049190614020565b61340e9190614343565b6040805160208101825282815290516343753b4d60e01b81529192506001600160a01b037f000000000000000000000000000000000000000000000000000000000000000016916343753b4d9161346e918a918a918a9190600401614357565b602060405180830381865afa15801561348b573d6000803e3d6000fd5b505050506040513d601f19601f820116820180604052508101906134af91906143c5565b6134cc576040516309bde33960e01b815260040160405180910390fd5b6001600160401b038b16600090815260786020526040902060020154879003612bfe5760405163a47276bd60e01b815260040160405180910390fd5b600054610100900460ff166135735760405162461bcd60e51b815260206004820152602b60248201527f496e697469616c697a61626c653a20636f6e7472616374206973206e6f74206960448201526a6e697469616c697a696e6760a81b6064820152608401611bfb565b61155b33613105565b606f5460ff1661359f57604051635386698160e01b815260040160405180910390fd5b606f805460ff191690556040517f1e5e34eea33501aecf2ebec9fe0e884a40804275ea7fe10b2ba084c8374308b390600090a1565b6040516001600160a01b03831660248201526044810182905261360490849063a9059cbb60e01b9060640161306e565b505050565b600061365e826040518060400160405280602081526020017f5361666545524332303a206c6f772d6c6576656c2063616c6c206661696c6564815250856001600160a01b03166137379092919063ffffffff16565b805190915015613604578080602001905181019061367c91906143c5565b6136045760405162461bcd60e51b815260206004820152602a60248201527f5361666545524332303a204552433230206f7065726174696f6e20646964206e6044820152691bdd081cdd58d8d9595960b21b6064820152608401611bfb565b606f5460ff16156136ff57604051630bc011ff60e21b815260040160405180910390fd5b606f805460ff191660011790556040517f2261efe5aef6fedc1fd1550b25facc9181745623049c7901287030b9ad1a549790600090a1565b6060613746848460008561374e565b949350505050565b6060824710156137af5760405162461bcd60e51b815260206004820152602660248201527f416464726573733a20696e73756666696369656e742062616c616e636520666f6044820152651c8818d85b1b60d21b6064820152608401611bfb565b600080866001600160a01b031685876040516137cb9190614331565b60006040518083038185875af1925050503d8060008114613808576040519150601f19603f3d011682016040523d82523d6000602084013e61380d565b606091505b509150915061381e87838387613829565b979650505050505050565b60608315613898578251600003613891576001600160a01b0385163b6138915760405162461bcd60e51b815260206004820152601d60248201527f416464726573733a2063616c6c20746f206e6f6e2d636f6e74726163740000006044820152606401611bfb565b5081613746565b61374683838151156138ad5781518083602001fd5b8060405162461bcd60e51b8152600401611bfb9190613917565b60005b838110156138e25781810151838201526020016138ca565b50506000910152565b600081518084526139038160208601602086016138c7565b601f01601f19169290920160200192915050565b60208152600061392a60208301846138eb565b9392505050565b60006020828403121561394357600080fd5b813561ffff8116811461392a57600080fd5b80356001600160401b038116811461396c57600080fd5b919050565b600080600080600060a0868803121561398957600080fd5b61399286613955565b94506139a060208701613955565b94979496505050506040830135926060810135926080909101359150565b6001600160a01b0391909116815260200190565b6000602082840312156139e457600080fd5b61392a82613955565b80604081018310156139fe57600080fd5b92915050565b80608081018310156139fe57600080fd5b6000806000806000806000806101a0898b031215613a3257600080fd5b613a3b89613955565b9750613a4960208a01613955565b9650613a5760408a01613955565b95506060890135945060808901359350613a748a60a08b016139ed565b9250613a838a60e08b01613a04565b9150613a938a6101608b016139ed565b90509295985092959890939650565b60008083601f840112613ab457600080fd5b5081356001600160401b03811115613acb57600080fd5b6020830191508360208260051b8501011115613ae657600080fd5b9250929050565b80356001600160a01b038116811461396c57600080fd5b600080600060408486031215613b1957600080fd5b83356001600160401b03811115613b2f57600080fd5b613b3b86828701613aa2565b9094509250613b4e905060208501613aed565b90509250925092565b600060208284031215613b6957600080fd5b61392a82613aed565b60008060008060008060008060006101c08a8c031215613b9157600080fd5b613b9a8a613955565b9850613ba860208b01613955565b9750613bb660408b01613955565b9650613bc460608b01613955565b955060808a0135945060a08a01359350613be18b60c08c016139ed565b9250613bf18b6101008c01613a04565b9150613c018b6101808c016139ed565b90509295985092959850929598565b600060208284031215613c2257600080fd5b5035919050565b634e487b7160e01b600052604160045260246000fd5b600082601f830112613c5057600080fd5b81356001600160401b0380821115613c6a57613c6a613c29565b604051601f8301601f19908116603f01168101908282118183101715613c9257613c92613c29565b81604052838152866020858801011115613cab57600080fd5b836020870160208301376000602085830101528094505050505092915050565b600060208284031215613cdd57600080fd5b81356001600160401b03811115613cf357600080fd5b61374684828501613c3f565b60008083601f840112613d1157600080fd5b5081356001600160401b03811115613d2857600080fd5b602083019150836020828501011115613ae657600080fd5b600080600080600080868803610120811215613d5b57600080fd5b60a0811215613d6957600080fd5b5086955060a0870135945060c08701356001600160401b0380821115613d8e57600080fd5b613d9a8a838b01613c3f565b955060e0890135915080821115613db057600080fd5b613dbc8a838b01613c3f565b9450610100890135915080821115613dd357600080fd5b50613de089828a01613cff565b979a9699509497509295939492505050565b60008060208385031215613e0557600080fd5b82356001600160401b03811115613e1b57600080fd5b613e2785828601613aa2565b90969095509350505050565b600080600060408486031215613e4857600080fd5b83356001600160401b03811115613e5e57600080fd5b613e6a86828701613cff565b909790965060209590950135949350505050565b600181811c90821680613e9257607f821691505b602082108103613eb257634e487b7160e01b600052602260045260246000fd5b50919050565b634e487b7160e01b600052601160045260246000fd5b6001600160401b03818116838216019080821115613eee57613eee613eb8565b5092915050565b6001600160401b03828116828216039080821115613eee57613eee613eb8565b60006001600160401b03808316818103613f3157613f31613eb8565b6001019392505050565b634e487b7160e01b600052603260045260246000fd5b60008235607e19833603018112613f6757600080fd5b9190910192915050565b600060808236031215613f8357600080fd5b604051608081016001600160401b038282108183111715613fa657613fa6613c29565b816040528435915080821115613fbb57600080fd5b50613fc836828601613c3f565b82525060208301356020820152613fe160408401613955565b6040820152613ff260608401613955565b606082015292915050565b928352602083019190915260c01b6001600160c01b031916604082015260480190565b60006020828403121561403257600080fd5b5051919050565b9485526020850193909352604084019190915260c01b6001600160c01b0319166060808401919091521b6001600160601b0319166068820152607c0190565b60006001820161408a5761408a613eb8565b5060010190565b818103818111156139fe576139fe613eb8565b80820281158282048414176139fe576139fe613eb8565b634e487b7160e01b600052601260045260246000fd5b6000826140e0576140e06140bb565b500490565b601f82111561360457600081815260208120601f850160051c8101602086101561410c5750805b601f850160051c820191505b8181101561412b57828155600101614118565b505050505050565b81516001600160401b0381111561414c5761414c613c29565b6141608161415a8454613e7e565b846140e5565b602080601f831160018114614195576000841561417d5750858301515b600019600386901b1c1916600185901b17855561412b565b600085815260208120601f198616915b828110156141c4578886015182559484019460019091019084016141a5565b50858210156141e25787850151600019600388901b60f8161c191681555b5050505050600190811b01905550565b81835281816020850137506000828201602090810191909152601f909101601f19169091010190565b60006001600160401b038087168352808616602084015250606060408301526142486060830184866141f2565b9695505050505050565b808201808211156139fe576139fe613eb8565b60008235605e19833603018112613f6757600080fd5b60006060823603121561428d57600080fd5b604051606081016001600160401b0382821081831117156142b0576142b0613c29565b8160405284359150808211156142c557600080fd5b506142d236828601613c3f565b825250602083013560208201526142eb60408401613955565b604082015292915050565b8183823760009101908152919050565b8481526001600160a01b038416602082015260606040820181905260009061424890830184866141f2565b60008251613f678184602087016138c7565b600082614352576143526140bb565b500690565b61012081016040808784378083018660005b600281101561438657838284379183019190830190600101614369565b505050808560c08501375061010082018360005b60018110156143b957815183526020928301929091019060010161439a565b50505095945050505050565b6000602082840312156143d757600080fd5b8151801515811461392a57600080fd5b60006001600160401b0380841680614401576144016140bb565b9216919091049291505056fea26469706673582212208411abb62c78ccce2207ca87770e0fad2e185230b2d565f4015617de5ff2eb7064736f6c63430008110033",
  "linkReferences": {},
  "deployedLinkReferences": {}
}