{
  "_format": "hh-sol-artifact-1",
  "contractName": "PolygonZkEVM",
  "sourceName": "contracts/PolygonZkEVM.sol",
  "abi": [
    {
      "anonymous": false,
      "inputs": [
        {
          "indexed": true,
          "internalType": "uint64",
          "name": "numBatch",
          "type": "uint64"
        },
        {
          "indexed": false,
          "internalType": "bytes32",
          "name": "stateRoot",
          "type": "bytes32"
        },
        {
          "indexed": true,
          "internalType": "uint64",
          "name": "pendingStateNum",
          "type": "uint64"
        }
      ],
      "name": "ConsolidatePendingState",
      "type": "event"
    },
    {
      "anonymous": false,
      "inputs": [],
      "name": "EmergencyStateActivated",
      "type": "event"
    },
    {
      "anonymous": false,
      "inputs": [],
      "name": "EmergencyStateDeactivated",
      "type": "event"
    },
    {
      "anonymous": false,
      "inputs": [
        {
          "indexed": true,
          "internalType": "uint64",
          "name": "forceBatchNum",
          "type": "uint64"
        },
        {
          "indexed": false,
          "internalType": "bytes32",
          "name": "lastGlobalExitRoot",
          "type": "bytes32"
        },
        {
          "indexed": false,
          "internalType": "address",
          "name": "sequencer",
          "type": "address"
        },
        {
          "indexed": false,
          "internalType": "bytes",
          "name": "transactions",
          "type": "bytes"
        }
      ],
      "name": "ForceBatch",
      "type": "event"
    },
    {
      "anonymous": false,
      "inputs": [
        {
          "indexed": false,
          "internalType": "uint8",
          "name": "version",
          "type": "uint8"
        }
      ],
      "name": "Initialized",
      "type": "event"
    },
    {
      "anonymous": false,
      "inputs": [
        {
          "indexed": true,
          "internalType": "uint64",
          "name": "numBatch",
          "type": "uint64"
        },
        {
          "indexed": false,
          "internalType": "bytes32",
          "name": "stateRoot",
          "type": "bytes32"
        },
        {
          "indexed": true,
          "internalType": "address",
          "name": "aggregator",
          "type": "address"
        }
      ],
      "name": "OverridePendingState",
      "type": "event"
    },
    {
      "anonymous": false,
      "inputs": [
        {
          "indexed": true,
          "internalType": "address",
          "name": "previousOwner",
          "type": "address"
        },
        {
          "indexed": true,
          "internalType": "address",
          "name": "newOwner",
          "type": "address"
        }
      ],
      "name": "OwnershipTransferred",
      "type": "event"
    },
    {
      "anonymous": false,
      "inputs": [
        {
          "indexed": false,
          "internalType": "bytes32",
          "name": "storedStateRoot",
          "type": "bytes32"
        },
        {
          "indexed": false,
          "internalType": "bytes32",
          "name": "provedStateRoot",
          "type": "bytes32"
        }
      ],
      "name": "ProveNonDeterministicPendingState",
      "type": "event"
    },
    {
      "anonymous": false,
      "inputs": [
        {
          "indexed": true,
          "internalType": "uint64",
          "name": "numBatch",
          "type": "uint64"
        }
      ],
      "name": "SequenceBatches",
      "type": "event"
    },
    {
      "anonymous": false,
      "inputs": [
        {
          "indexed": true,
          "internalType": "uint64",
          "name": "numBatch",
          "type": "uint64"
        }
      ],
      "name": "SequenceForceBatches",
      "type": "event"
    },
    {
      "anonymous": false,
      "inputs": [
        {
          "indexed": false,
          "internalType": "address",
          "name": "newAdmin",
          "type": "address"
        }
      ],
      "name": "SetAdmin",
      "type": "event"
    },
    {
      "anonymous": false,
      "inputs": [
        {
          "indexed": false,
          "internalType": "bool",
          "name": "newForceBatchAllowed",
          "type": "bool"
        }
      ],
      "name": "SetForceBatchAllowed",
      "type": "event"
    },
    {
      "anonymous": false,
      "inputs": [
        {
          "indexed": false,
          "internalType": "uint16",
          "name": "newMultiplierBatchFee",
          "type": "uint16"
        }
      ],
      "name": "SetMultiplierBatchFee",
      "type": "event"
    },
    {
      "anonymous": false,
      "inputs": [
        {
          "indexed": false,
          "internalType": "uint64",
          "name": "newPendingStateTimeout",
          "type": "uint64"
        }
      ],
      "name": "SetPendingStateTimeout",
      "type": "event"
    },
    {
      "anonymous": false,
      "inputs": [
        {
          "indexed": false,
          "internalType": "address",
          "name": "newTrustedAggregator",
          "type": "address"
        }
      ],
      "name": "SetTrustedAggregator",
      "type": "event"
    },
    {
      "anonymous": false,
      "inputs": [
        {
          "indexed": false,
          "internalType": "uint64",
          "name": "newTrustedAggregatorTimeout",
          "type": "uint64"
        }
      ],
      "name": "SetTrustedAggregatorTimeout",
      "type": "event"
    },
    {
      "anonymous": false,
      "inputs": [
        {
          "indexed": false,
          "internalType": "address",
          "name": "newTrustedSequencer",
          "type": "address"
        }
      ],
      "name": "SetTrustedSequencer",
      "type": "event"
    },
    {
      "anonymous": false,
      "inputs": [
        {
          "indexed": false,
          "internalType": "string",
          "name": "newTrustedSequencerURL",
          "type": "string"
        }
      ],
      "name": "SetTrustedSequencerURL",
      "type": "event"
    },
    {
      "anonymous": false,
      "inputs": [
        {
          "indexed": false,
          "internalType": "uint64",
          "name": "newVeryBatchTimeTarget",
          "type": "uint64"
        }
      ],
      "name": "SetVeryBatchTimeTarget",
      "type": "event"
    },
    {
      "anonymous": false,
      "inputs": [
        {
          "indexed": true,
          "internalType": "uint64",
          "name": "numBatch",
          "type": "uint64"
        },
        {
          "indexed": false,
          "internalType": "bytes32",
          "name": "stateRoot",
          "type": "bytes32"
        },
        {
          "indexed": true,
          "internalType": "address",
          "name": "aggregator",
          "type": "address"
        }
      ],
      "name": "TrustedVerifyBatches",
      "type": "event"
    },
    {
      "anonymous": false,
      "inputs": [
        {
          "indexed": true,
          "internalType": "uint64",
          "name": "numBatch",
          "type": "uint64"
        },
        {
          "indexed": false,
          "internalType": "bytes32",
          "name": "stateRoot",
          "type": "bytes32"
        },
        {
          "indexed": true,
          "internalType": "address",
          "name": "aggregator",
          "type": "address"
        }
      ],
      "name": "VerifyBatches",
      "type": "event"
    },
    {
      "inputs": [],
      "name": "FORCE_BATCH_TIMEOUT",
      "outputs": [
        {
          "internalType": "uint64",
          "name": "",
          "type": "uint64"
        }
      ],
      "stateMutability": "view",
      "type": "function"
    },
    {
      "inputs": [],
      "name": "HALT_AGGREGATION_TIMEOUT",
      "outputs": [
        {
          "internalType": "uint64",
          "name": "",
          "type": "uint64"
        }
      ],
      "stateMutability": "view",
      "type": "function"
    },
    {
      "inputs": [],
      "name": "MAX_BATCH_MULTIPLIER",
      "outputs": [
        {
          "internalType": "uint256",
          "name": "",
          "type": "uint256"
        }
      ],
      "stateMutability": "view",
      "type": "function"
    },
    {
      "inputs": [],
      "name": "MAX_TRANSACTIONS_BYTE_LENGTH",
      "outputs": [
        {
          "internalType": "uint256",
          "name": "",
          "type": "uint256"
        }
      ],
      "stateMutability": "view",
      "type": "function"
    },
    {
      "inputs": [],
      "name": "MAX_VERIFY_BATCHES",
      "outputs": [
        {
          "internalType": "uint64",
          "name": "",
          "type": "uint64"
        }
      ],
      "stateMutability": "view",
      "type": "function"
    },
    {
      "inputs": [
        {
          "internalType": "uint64",
          "name": "sequencedBatchNum",
          "type": "uint64"
        }
      ],
      "name": "activateEmergencyState",
      "outputs": [],
      "stateMutability": "nonpayable",
      "type": "function"
    },
    {
      "inputs": [],
      "name": "admin",
      "outputs": [
        {
          "internalType": "address",
          "name": "",
          "type": "address"
        }
      ],
      "stateMutability": "view",
      "type": "function"
    },
    {
      "inputs": [],
      "name": "batchFee",
      "outputs": [
        {
          "internalType": "uint256",
          "name": "",
          "type": "uint256"
        }
      ],
      "stateMutability": "view",
      "type": "function"
    },
    {
      "inputs": [
        {
          "internalType": "uint64",
          "name": "",
          "type": "uint64"
        }
      ],
      "name": "batchNumToStateRoot",
      "outputs": [
        {
          "internalType": "bytes32",
          "name": "",
          "type": "bytes32"
        }
      ],
      "stateMutability": "view",
      "type": "function"
    },
    {
      "inputs": [],
      "name": "bridgeAddress",
      "outputs": [
        {
          "internalType": "contract IPolygonZkEVMBridge",
          "name": "",
          "type": "address"
        }
      ],
      "stateMutability": "view",
      "type": "function"
    },
    {
      "inputs": [],
      "name": "calculateRewardPerBatch",
      "outputs": [
        {
          "internalType": "uint256",
          "name": "",
          "type": "uint256"
        }
      ],
      "stateMutability": "view",
      "type": "function"
    },
    {
      "inputs": [],
      "name": "chainID",
      "outputs": [
        {
          "internalType": "uint64",
          "name": "",
          "type": "uint64"
        }
      ],
      "stateMutability": "view",
      "type": "function"
    },
    {
      "inputs": [
        {
          "internalType": "uint64",
          "name": "pendingStateNum",
          "type": "uint64"
        }
      ],
      "name": "consolidatePendingState",
      "outputs": [],
      "stateMutability": "nonpayable",
      "type": "function"
    },
    {
      "inputs": [],
      "name": "deactivateEmergencyState",
      "outputs": [],
      "stateMutability": "nonpayable",
      "type": "function"
    },
    {
      "inputs": [
        {
          "internalType": "bytes",
          "name": "transactions",
          "type": "bytes"
        },
        {
          "internalType": "uint256",
          "name": "maticAmount",
          "type": "uint256"
        }
      ],
      "name": "forceBatch",
      "outputs": [],
      "stateMutability": "nonpayable",
      "type": "function"
    },
    {
      "inputs": [],
      "name": "forceBatchAllowed",
      "outputs": [
        {
          "internalType": "bool",
          "name": "",
          "type": "bool"
        }
      ],
      "stateMutability": "view",
      "type": "function"
    },
    {
      "inputs": [
        {
          "internalType": "uint64",
          "name": "",
          "type": "uint64"
        }
      ],
      "name": "forcedBatches",
      "outputs": [
        {
          "internalType": "bytes32",
          "name": "",
          "type": "bytes32"
        }
      ],
      "stateMutability": "view",
      "type": "function"
    },
    {
      "inputs": [],
      "name": "getCurrentBatchFee",
      "outputs": [
        {
          "internalType": "uint256",
          "name": "",
          "type": "uint256"
        }
      ],
      "stateMutability": "view",
      "type": "function"
    },
    {
      "inputs": [
        {
          "internalType": "uint64",
          "name": "initNumBatch",
          "type": "uint64"
        },
        {
          "internalType": "uint64",
          "name": "finalNewBatch",
          "type": "uint64"
        },
        {
          "internalType": "bytes32",
          "name": "newLocalExitRoot",
          "type": "bytes32"
        },
        {
          "internalType": "bytes32",
          "name": "oldStateRoot",
          "type": "bytes32"
        },
        {
          "internalType": "bytes32",
          "name": "newStateRoot",
          "type": "bytes32"
        }
      ],
      "name": "getInputSnarkBytes",
      "outputs": [
        {
          "internalType": "bytes",
          "name": "",
          "type": "bytes"
        }
      ],
      "stateMutability": "view",
      "type": "function"
    },
    {
      "inputs": [],
      "name": "getLastVerifiedBatch",
      "outputs": [
        {
          "internalType": "uint64",
          "name": "",
          "type": "uint64"
        }
      ],
      "stateMutability": "view",
      "type": "function"
    },
    {
      "inputs": [],
      "name": "globalExitRootManager",
      "outputs": [
        {
          "internalType": "contract IPolygonZkEVMGlobalExitRoot",
          "name": "",
          "type": "address"
        }
      ],
      "stateMutability": "view",
      "type": "function"
    },
    {
      "inputs": [
        {
          "internalType": "contract IPolygonZkEVMGlobalExitRoot",
          "name": "_globalExitRootManager",
          "type": "address"
        },
        {
          "internalType": "contract IERC20Upgradeable",
          "name": "_matic",
          "type": "address"
        },
        {
          "internalType": "contract IVerifierRollup",
          "name": "_rollupVerifier",
          "type": "address"
        },
        {
          "internalType": "contract IPolygonZkEVMBridge",
          "name": "_bridgeAddress",
          "type": "address"
        },
        {
          "components": [
            {
              "internalType": "address",
              "name": "admin",
              "type": "address"
            },
            {
              "internalType": "uint64",
              "name": "chainID",
              "type": "uint64"
            },
            {
              "internalType": "address",
              "name": "trustedSequencer",
              "type": "address"
            },
            {
              "internalType": "uint64",
              "name": "pendingStateTimeout",
              "type": "uint64"
            },
            {
              "internalType": "bool",
              "name": "forceBatchAllowed",
              "type": "bool"
            },
            {
              "internalType": "address",
              "name": "trustedAggregator",
              "type": "address"
            },
            {
              "internalType": "uint64",
              "name": "trustedAggregatorTimeout",
              "type": "uint64"
            }
          ],
          "internalType": "struct PolygonZkEVM.InitializePackedParameters",
          "name": "initializePackedParameters",
          "type": "tuple"
        },
        {
          "internalType": "bytes32",
          "name": "genesisRoot",
          "type": "bytes32"
        },
        {
          "internalType": "string",
          "name": "_trustedSequencerURL",
          "type": "string"
        },
        {
          "internalType": "string",
          "name": "_networkName",
          "type": "string"
        }
      ],
      "name": "initialize",
      "outputs": [],
      "stateMutability": "nonpayable",
      "type": "function"
    },
    {
      "inputs": [],
      "name": "isEmergencyState",
      "outputs": [
        {
          "internalType": "bool",
          "name": "",
          "type": "bool"
        }
      ],
      "stateMutability": "view",
      "type": "function"
    },
    {
      "inputs": [
        {
          "internalType": "uint64",
          "name": "pendingStateNum",
          "type": "uint64"
        }
      ],
      "name": "isPendingStateConsolidable",
      "outputs": [
        {
          "internalType": "bool",
          "name": "",
          "type": "bool"
        }
      ],
      "stateMutability": "view",
      "type": "function"
    },
    {
      "inputs": [],
      "name": "lastBatchSequenced",
      "outputs": [
        {
          "internalType": "uint64",
          "name": "",
          "type": "uint64"
        }
      ],
      "stateMutability": "view",
      "type": "function"
    },
    {
      "inputs": [],
      "name": "lastForceBatch",
      "outputs": [
        {
          "internalType": "uint64",
          "name": "",
          "type": "uint64"
        }
      ],
      "stateMutability": "view",
      "type": "function"
    },
    {
      "inputs": [],
      "name": "lastForceBatchSequenced",
      "outputs": [
        {
          "internalType": "uint64",
          "name": "",
          "type": "uint64"
        }
      ],
      "stateMutability": "view",
      "type": "function"
    },
    {
      "inputs": [],
      "name": "lastPendingState",
      "outputs": [
        {
          "internalType": "uint64",
          "name": "",
          "type": "uint64"
        }
      ],
      "stateMutability": "view",
      "type": "function"
    },
    {
      "inputs": [],
      "name": "lastPendingStateConsolidated",
      "outputs": [
        {
          "internalType": "uint64",
          "name": "",
          "type": "uint64"
        }
      ],
      "stateMutability": "view",
      "type": "function"
    },
    {
      "inputs": [],
      "name": "lastTimestamp",
      "outputs": [
        {
          "internalType": "uint64",
          "name": "",
          "type": "uint64"
        }
      ],
      "stateMutability": "view",
      "type": "function"
    },
    {
      "inputs": [],
      "name": "lastVerifiedBatch",
      "outputs": [
        {
          "internalType": "uint64",
          "name": "",
          "type": "uint64"
        }
      ],
      "stateMutability": "view",
      "type": "function"
    },
    {
      "inputs": [],
      "name": "matic",
      "outputs": [
        {
          "internalType": "contract IERC20Upgradeable",
          "name": "",
          "type": "address"
        }
      ],
      "stateMutability": "view",
      "type": "function"
    },
    {
      "inputs": [],
      "name": "multiplierBatchFee",
      "outputs": [
        {
          "internalType": "uint16",
          "name": "",
          "type": "uint16"
        }
      ],
      "stateMutability": "view",
      "type": "function"
    },
    {
      "inputs": [],
      "name": "networkName",
      "outputs": [
        {
          "internalType": "string",
          "name": "",
          "type": "string"
        }
      ],
      "stateMutability": "view",
      "type": "function"
    },
    {
      "inputs": [
        {
          "internalType": "uint64",
          "name": "initPendingStateNum",
          "type": "uint64"
        },
        {
          "internalType": "uint64",
          "name": "finalPendingStateNum",
          "type": "uint64"
        },
        {
          "internalType": "uint64",
          "name": "initNumBatch",
          "type": "uint64"
        },
        {
          "internalType": "uint64",
          "name": "finalNewBatch",
          "type": "uint64"
        },
        {
          "internalType": "bytes32",
          "name": "newLocalExitRoot",
          "type": "bytes32"
        },
        {
          "internalType": "bytes32",
          "name": "newStateRoot",
          "type": "bytes32"
        },
        {
          "internalType": "uint256[2]",
          "name": "proofA",
          "type": "uint256[2]"
        },
        {
          "internalType": "uint256[2][2]",
          "name": "proofB",
          "type": "uint256[2][2]"
        },
        {
          "internalType": "uint256[2]",
          "name": "proofC",
          "type": "uint256[2]"
        }
      ],
      "name": "overridePendingState",
      "outputs": [],
      "stateMutability": "nonpayable",
      "type": "function"
    },
    {
      "inputs": [],
      "name": "owner",
      "outputs": [
        {
          "internalType": "address",
          "name": "",
          "type": "address"
        }
      ],
      "stateMutability": "view",
      "type": "function"
    },
    {
      "inputs": [],
      "name": "pendingStateTimeout",
      "outputs": [
        {
          "internalType": "uint64",
          "name": "",
          "type": "uint64"
        }
      ],
      "stateMutability": "view",
      "type": "function"
    },
    {
      "inputs": [
        {
          "internalType": "uint256",
          "name": "",
          "type": "uint256"
        }
      ],
      "name": "pendingStateTransitions",
      "outputs": [
        {
          "internalType": "uint64",
          "name": "timestamp",
          "type": "uint64"
        },
        {
          "internalType": "uint64",
          "name": "lastVerifiedBatch",
          "type": "uint64"
        },
        {
          "internalType": "bytes32",
          "name": "exitRoot",
          "type": "bytes32"
        },
        {
          "internalType": "bytes32",
          "name": "stateRoot",
          "type": "bytes32"
        }
      ],
      "stateMutability": "view",
      "type": "function"
    },
    {
      "inputs": [
        {
          "internalType": "uint64",
          "name": "initPendingStateNum",
          "type": "uint64"
        },
        {
          "internalType": "uint64",
          "name": "finalPendingStateNum",
          "type": "uint64"
        },
        {
          "internalType": "uint64",
          "name": "initNumBatch",
          "type": "uint64"
        },
        {
          "internalType": "uint64",
          "name": "finalNewBatch",
          "type": "uint64"
        },
        {
          "internalType": "bytes32",
          "name": "newLocalExitRoot",
          "type": "bytes32"
        },
        {
          "internalType": "bytes32",
          "name": "newStateRoot",
          "type": "bytes32"
        },
        {
          "internalType": "uint256[2]",
          "name": "proofA",
          "type": "uint256[2]"
        },
        {
          "internalType": "uint256[2][2]",
          "name": "proofB",
          "type": "uint256[2][2]"
        },
        {
          "internalType": "uint256[2]",
          "name": "proofC",
          "type": "uint256[2]"
        }
      ],
      "name": "proveNonDeterministicPendingState",
      "outputs": [],
      "stateMutability": "nonpayable",
      "type": "function"
    },
    {
      "inputs": [],
      "name": "renounceOwnership",
      "outputs": [],
      "stateMutability": "nonpayable",
      "type": "function"
    },
    {
      "inputs": [],
      "name": "rollupVerifier",
      "outputs": [
        {
          "internalType": "contract IVerifierRollup",
          "name": "",
          "type": "address"
        }
      ],
      "stateMutability": "view",
      "type": "function"
    },
    {
      "inputs": [
        {
          "components": [
            {
              "internalType": "bytes",
              "name": "transactions",
              "type": "bytes"
            },
            {
              "internalType": "bytes32",
              "name": "globalExitRoot",
              "type": "bytes32"
            },
            {
              "internalType": "uint64",
              "name": "timestamp",
              "type": "uint64"
            },
            {
              "internalType": "uint64",
              "name": "minForcedTimestamp",
              "type": "uint64"
            }
          ],
          "internalType": "struct PolygonZkEVM.BatchData[]",
          "name": "batches",
          "type": "tuple[]"
        }
      ],
      "name": "sequenceBatches",
      "outputs": [],
      "stateMutability": "nonpayable",
      "type": "function"
    },
    {
      "inputs": [
        {
          "components": [
            {
              "internalType": "bytes",
              "name": "transactions",
              "type": "bytes"
            },
            {
              "internalType": "bytes32",
              "name": "globalExitRoot",
              "type": "bytes32"
            },
            {
              "internalType": "uint64",
              "name": "minForcedTimestamp",
              "type": "uint64"
            }
          ],
          "internalType": "struct PolygonZkEVM.ForcedBatchData[]",
          "name": "batches",
          "type": "tuple[]"
        }
      ],
      "name": "sequenceForceBatches",
      "outputs": [],
      "stateMutability": "nonpayable",
      "type": "function"
    },
    {
      "inputs": [
        {
          "internalType": "uint64",
          "name": "",
          "type": "uint64"
        }
      ],
      "name": "sequencedBatches",
      "outputs": [
        {
          "internalType": "bytes32",
          "name": "accInputHash",
          "type": "bytes32"
        },
        {
          "internalType": "uint64",
          "name": "sequencedTimestamp",
          "type": "uint64"
        },
        {
          "internalType": "uint64",
          "name": "previousLastBatchSequenced",
          "type": "uint64"
        }
      ],
      "stateMutability": "view",
      "type": "function"
    },
    {
      "inputs": [
        {
          "internalType": "address",
          "name": "newAdmin",
          "type": "address"
        }
      ],
      "name": "setAdmin",
      "outputs": [],
      "stateMutability": "nonpayable",
      "type": "function"
    },
    {
      "inputs": [
        {
          "internalType": "bool",
          "name": "newForceBatchAllowed",
          "type": "bool"
        }
      ],
      "name": "setForceBatchAllowed",
      "outputs": [],
      "stateMutability": "nonpayable",
      "type": "function"
    },
    {
      "inputs": [
        {
          "internalType": "uint16",
          "name": "newMultiplierBatchFee",
          "type": "uint16"
        }
      ],
      "name": "setMultiplierBatchFee",
      "outputs": [],
      "stateMutability": "nonpayable",
      "type": "function"
    },
    {
      "inputs": [
        {
          "internalType": "uint64",
          "name": "newPendingStateTimeout",
          "type": "uint64"
        }
      ],
      "name": "setPendingStateTimeout",
      "outputs": [],
      "stateMutability": "nonpayable",
      "type": "function"
    },
    {
      "inputs": [
        {
          "internalType": "address",
          "name": "newTrustedAggregator",
          "type": "address"
        }
      ],
      "name": "setTrustedAggregator",
      "outputs": [],
      "stateMutability": "nonpayable",
      "type": "function"
    },
    {
      "inputs": [
        {
          "internalType": "uint64",
          "name": "newTrustedAggregatorTimeout",
          "type": "uint64"
        }
      ],
      "name": "setTrustedAggregatorTimeout",
      "outputs": [],
      "stateMutability": "nonpayable",
      "type": "function"
    },
    {
      "inputs": [
        {
          "internalType": "address",
          "name": "newTrustedSequencer",
          "type": "address"
        }
      ],
      "name": "setTrustedSequencer",
      "outputs": [],
      "stateMutability": "nonpayable",
      "type": "function"
    },
    {
      "inputs": [
        {
          "internalType": "string",
          "name": "newTrustedSequencerURL",
          "type": "string"
        }
      ],
      "name": "setTrustedSequencerURL",
      "outputs": [],
      "stateMutability": "nonpayable",
      "type": "function"
    },
    {
      "inputs": [
        {
          "internalType": "uint64",
          "name": "newVeryBatchTimeTarget",
          "type": "uint64"
        }
      ],
      "name": "setVeryBatchTimeTarget",
      "outputs": [],
      "stateMutability": "nonpayable",
      "type": "function"
    },
    {
      "inputs": [
        {
          "internalType": "address",
          "name": "newOwner",
          "type": "address"
        }
      ],
      "name": "transferOwnership",
      "outputs": [],
      "stateMutability": "nonpayable",
      "type": "function"
    },
    {
      "inputs": [],
      "name": "trustedAggregator",
      "outputs": [
        {
          "internalType": "address",
          "name": "",
          "type": "address"
        }
      ],
      "stateMutability": "view",
      "type": "function"
    },
    {
      "inputs": [],
      "name": "trustedAggregatorTimeout",
      "outputs": [
        {
          "internalType": "uint64",
          "name": "",
          "type": "uint64"
        }
      ],
      "stateMutability": "view",
      "type": "function"
    },
    {
      "inputs": [],
      "name": "trustedSequencer",
      "outputs": [
        {
          "internalType": "address",
          "name": "",
          "type": "address"
        }
      ],
      "stateMutability": "view",
      "type": "function"
    },
    {
      "inputs": [],
      "name": "trustedSequencerURL",
      "outputs": [
        {
          "internalType": "string",
          "name": "",
          "type": "string"
        }
      ],
      "stateMutability": "view",
      "type": "function"
    },
    {
      "inputs": [
        {
          "internalType": "uint64",
          "name": "pendingStateNum",
          "type": "uint64"
        },
        {
          "internalType": "uint64",
          "name": "initNumBatch",
          "type": "uint64"
        },
        {
          "internalType": "uint64",
          "name": "finalNewBatch",
          "type": "uint64"
        },
        {
          "internalType": "bytes32",
          "name": "newLocalExitRoot",
          "type": "bytes32"
        },
        {
          "internalType": "bytes32",
          "name": "newStateRoot",
          "type": "bytes32"
        },
        {
          "internalType": "uint256[2]",
          "name": "proofA",
          "type": "uint256[2]"
        },
        {
          "internalType": "uint256[2][2]",
          "name": "proofB",
          "type": "uint256[2][2]"
        },
        {
          "internalType": "uint256[2]",
          "name": "proofC",
          "type": "uint256[2]"
        }
      ],
      "name": "trustedVerifyBatches",
      "outputs": [],
      "stateMutability": "nonpayable",
      "type": "function"
    },
    {
      "inputs": [
        {
          "internalType": "uint64",
          "name": "pendingStateNum",
          "type": "uint64"
        },
        {
          "internalType": "uint64",
          "name": "initNumBatch",
          "type": "uint64"
        },
        {
          "internalType": "uint64",
          "name": "finalNewBatch",
          "type": "uint64"
        },
        {
          "internalType": "bytes32",
          "name": "newLocalExitRoot",
          "type": "bytes32"
        },
        {
          "internalType": "bytes32",
          "name": "newStateRoot",
          "type": "bytes32"
        },
        {
          "internalType": "uint256[2]",
          "name": "proofA",
          "type": "uint256[2]"
        },
        {
          "internalType": "uint256[2][2]",
          "name": "proofB",
          "type": "uint256[2][2]"
        },
        {
          "internalType": "uint256[2]",
          "name": "proofC",
          "type": "uint256[2]"
        }
      ],
      "name": "verifyBatches",
      "outputs": [],
      "stateMutability": "nonpayable",
      "type": "function"
    },
    {
      "inputs": [],
      "name": "veryBatchTimeTarget",
      "outputs": [
        {
          "internalType": "uint64",
          "name": "",
          "type": "uint64"
        }
      ],
      "stateMutability": "view",
      "type": "function"
    }
  ],
  "bytecode": "0x608060405234801561001057600080fd5b506154fc806100206000396000f3fe608060405234801561001057600080fd5b506004361061032f5760003560e01c80638da5cb5b116101b4578063cfa8ed47116100fa578063e7a7ed021161009d578063e7a7ed021461080c578063e8bf92ed14610826578063eaeb077b14610839578063edc411211461084c578063f14916d61461085f578063f2fde38b14610872578063f851a44014610885578063f8b823e41461089857600080fd5b8063cfa8ed471461077a578063d02103ca14610794578063d8d1091b146107a7578063d8f54db0146107ba578063d939b315146107ce578063dbc16976146107e8578063e11f3f18146107f0578063e217cfd61461080357600080fd5b8063ab9fc5ef11610162578063ab9fc5ef14610688578063adc879e914610690578063afd23cbe146106aa578063b4d63f58146106d2578063b6b0b09714610732578063c0ed84e01461074c578063c89e42df14610754578063cf1363061461076757600080fd5b80638da5cb5b1461062157806399f5634e146106325780639c9f3dfe1461063a5780639eb831b91461064d5780639f0d039d14610655578063a3c573eb1461065d578063aa58bad61461067057600080fd5b80634a910e6a11610279578063715018a611610227578063715018a61461053b5780637215541a1461054357806375c508b3146105565780637fcb365314610569578063837a47381461057c578063841b24d7146105ea5780638b48931e146106045780638c4a0af71461060e57600080fd5b80634a910e6a146104a75780635392c5e0146104ba578063542028d5146104da57806360943d6a146104e25780636b8616ce146104f55780636ff512cc14610515578063704b6c021461052857600080fd5b8063383b3be8116102e1578063383b3be8146103fa578063394218e91461040d5780633c15826714610420578063423fa85614610433578063456052671461044d578063458c0477146104675780634834a3431461047a5780634a1a89a71461048d57600080fd5b8063107bf28c1461033457806315064c96146103525780631816b7e51461036f57806319d8ac6114610384578063220d7899146103af57806329878983146103c25780632d0889d3146103e2575b600080fd5b61033c6108a1565b6040516103499190614640565b60405180910390f35b60655461035f9060ff1681565b6040519015158152602001610349565b61038261037d36600461465a565b61092f565b005b606854610397906001600160401b031681565b6040516001600160401b039091168152602001610349565b61033c6103bd36600461469a565b610a59565b606a546103d5906001600160a01b031681565b60405161034991906146e7565b6103ec620493e081565b604051908152602001610349565b61035f6104083660046146fb565b610bfa565b61038261041b3660046146fb565b610c41565b61038261042e366004614838565b610dfd565b60685461039790600160401b90046001600160401b031681565b60685461039790600160801b90046001600160401b031681565b607254610397906001600160401b031681565b610382610488366004614976565b6115c4565b60725461039790600160401b90046001600160401b031681565b6103826104b53660046146fb565b61190d565b6103ec6104c83660046146fb565b606d6020526000908152604090205481565b61033c6119c3565b6103826104f0366004614a18565b6119d0565b6103ec6105033660046146fb565b60666020526000908152604090205481565b610382610523366004614aef565b611d2b565b610382610536366004614aef565b611da9565b610382611e1e565b6103826105513660046146fb565b611e32565b610382610564366004614b0c565b612039565b606954610397906001600160401b031681565b6105bf61058a366004614baa565b6071602052600090815260409020805460018201546002909201546001600160401b0380831693600160401b90930416919084565b604080516001600160401b039586168152949093166020850152918301526060820152608001610349565b60725461039790600160c01b90046001600160401b031681565b61039762093a8081565b61038261061c366004614bd1565b6120c8565b6033546001600160a01b03166103d5565b6103ec61213f565b6103826106483660046146fb565b612227565b6103ec600c81565b6074546103ec565b6070546103d5906001600160a01b031681565b6065546103979061010090046001600160401b031681565b610397600081565b606c5461039790600160a81b90046001600160401b031681565b6065546106bf90600160481b900461ffff1681565b60405161ffff9091168152602001610349565b61070d6106e03660046146fb565b606760205260009081526040902080546001909101546001600160401b0380821691600160401b90041683565b604080519384526001600160401b039283166020850152911690820152606001610349565b6065546103d590600160581b90046001600160a01b031681565b6103976123d5565b610382610762366004614bee565b612422565b6103826107753660046146fb565b612488565b6069546103d590600160401b90046001600160a01b031681565b606c546103d5906001600160a01b031681565b6103826107b5366004614c22565b612509565b606c5461035f90600160a01b900460ff1681565b60725461039790600160801b90046001600160401b031681565b6103826129c7565b6103826107fe366004614b0c565b612a83565b6103976103e881565b60685461039790600160c01b90046001600160401b031681565b606b546103d5906001600160a01b031681565b610382610847366004614d14565b612bc8565b61038261085a366004614976565b612ef1565b61038261086d366004614aef565b613011565b610382610880366004614aef565b613086565b6073546103d5906001600160a01b031681565b6103ec60745481565b606f80546108ae90614d58565b80601f01602080910402602001604051908101604052809291908181526020018280546108da90614d58565b80156109275780601f106108fc57610100808354040283529160200191610927565b820191906000526020600020905b81548152906001019060200180831161090a57829003601f168201915b505050505081565b6073546001600160a01b031633146109625760405162461bcd60e51b815260040161095990614d92565b60405180910390fd5b6103e88161ffff161015801561097d57506104008161ffff16105b610a025760405162461bcd60e51b815260206004820152604a60248201527f506f6c79676f6e5a6b45564d3a3a7365744d756c7469706c696572426174636860448201527f4665653a206e65774d756c7469706c696572426174636846656520696e636f72606482015269726563742072616e676560b01b608482015260a401610959565b6065805461ffff60481b1916600160481b61ffff8416908102919091179091556040519081527f7019933d795eba185c180209e8ae8bffbaa25bcef293364687702c31f4d302c5906020015b60405180910390a150565b6001600160401b03808616600081815260676020526040808220549388168252902054606092911580610a8b57508115155b610aff576040805162461bcd60e51b81526020600482015260248101919091527f506f6c79676f6e5a6b45564d3a3a676574496e707574536e61726b427974657360448201527f3a206f6c64416363496e7075744861736820646f6573206e6f742065786973746064820152608401610959565b80610b74576040805162461bcd60e51b81526020600482015260248101919091527f506f6c79676f6e5a6b45564d3a3a676574496e707574536e61726b427974657360448201527f3a206e6577416363496e7075744861736820646f6573206e6f742065786973746064820152608401610959565b606c54604080516001600160601b03193360601b166020820152603481019790975260548701939093526001600160c01b031960c0998a1b81166074880152600160a81b909104891b8116607c870152608486019490945260a485015260c4840194909452509290931b90911660e4830152805180830360cc01815260ec909201905290565b6072546001600160401b0382811660009081526071602052604081205490924292610c3092600160801b90920481169116614deb565b6001600160401b0316111592915050565b6073546001600160a01b03163314610c6b5760405162461bcd60e51b815260040161095990614d92565b62093a806001600160401b0382161115610d045760405162461bcd60e51b815260206004820152604e60248201527f506f6c79676f6e5a6b45564d3a3a73657454727573746564416767726567617460448201527f6f7254696d656f75743a20457863656564206d61782068616c7420616767726560648201526d19d85d1a5bdb881d1a5b595bdd5d60921b608482015260a401610959565b60655460ff16610da7576072546001600160401b03600160c01b909104811690821610610da75760405162461bcd60e51b8152602060048201526044602482018190527f506f6c79676f6e5a6b45564d3a3a736574547275737465644167677265676174908201527f6f7254696d656f75743a204e65772074696d656f7574206d757374206265206c60648201526337bbb2b960e11b608482015260a401610959565b607280546001600160c01b0316600160c01b6001600160401b038416908102919091179091556040519081527f1f4fa24c2e4bad19a7f3ec5c5485f70d46c798461c2e684f55bbd0fc661373a190602001610a4e565b60655460ff1615610e205760405162461bcd60e51b815260040161095990614e16565b606954600160401b90046001600160a01b03163314610ea75760405162461bcd60e51b815260206004820152603a60248201527f506f6c79676f6e5a6b45564d3a3a6f6e6c795472757374656453657175656e6360448201527f65723a204f6e6c7920747275737465642073657175656e6365720000000000006064820152608401610959565b805180610f1c5760405162461bcd60e51b815260206004820152603d60248201527f506f6c79676f6e5a6b45564d3a3a73657175656e6365426174636865733a204160448201527f74206c65617374206d7573742073657175656e636520312062617463680000006064820152608401610959565b6103e88110610f95576040805162461bcd60e51b81526020600482015260248101919091527f506f6c79676f6e5a6b45564d3a3a73657175656e6365426174636865733a204360448201527f616e6e6f742073657175656e63652074686174206d616e7920626174636865736064820152608401610959565b6068546001600160401b03600160401b82048116600081815260676020526040812054838516949293600160801b90930490921691905b858110156113fa576000878281518110610fe857610fe8614e7e565b60200260200101519050600081606001516001600160401b03161115611178578361101281614e94565b94505060008160000151805190602001208260200151836060015160405160200161103f93929190614eba565b60408051601f1981840301815291815281516020928301206001600160401b0388166000908152606690935291205490915081146110d35760405162461bcd60e51b815260206004820152603d60248201526000805160206154a783398151915260448201527f6f7263656420626174636865732064617461206d757374206d617463680000006064820152608401610959565b81606001516001600160401b031682604001516001600160401b031610156111725760405162461bcd60e51b815260206004820152605860248201526000805160206154a783398151915260448201527f6f7263656420626174636865732074696d657374616d70206d757374206265206064820152773134b3b3b2b91037b91032b8bab0b6103a3430b71036b4b760411b608482015260a401610959565b506112ed565b602081015115806112015750606c5460208201516040516312bd9b1960e11b81526001600160a01b039092169163257b3632916111bb9160040190815260200190565b6020604051808303816000875af11580156111da573d6000803e3d6000fd5b505050506040513d601f19601f820116820180604052508101906111fe9190614edd565b15155b6112735760405162461bcd60e51b815260206004820152603a60248201527f506f6c79676f6e5a6b45564d3a3a73657175656e6365426174636865733a204760448201527f6c6f62616c206578697420726f6f74206d7573742065786973740000000000006064820152608401610959565b805151620493e0116112ed5760405162461bcd60e51b815260206004820152603a60248201527f506f6c79676f6e5a6b45564d3a3a73657175656e6365426174636865733a205460448201527f72616e73616374696f6e73206279746573206f766572666c6f770000000000006064820152608401610959565b856001600160401b031681604001516001600160401b03161015801561132057504281604001516001600160401b031611155b6113925760405162461bcd60e51b815260206004820152603d60248201527f506f6c79676f6e5a6b45564d3a3a73657175656e6365426174636865733a205460448201527f696d657374616d70206d75737420626520696e736964652072616e67650000006064820152608401610959565b805180516020918201208183015160408085015190516113b9948894939291339101614ef6565b60405160208183030381529060405280519060200120925084806113dc90614e94565b955050806040015195505080806113f290614f35565b915050610fcc565b506068546001600160401b03600160c01b9091048116908316111561146d5760405162461bcd60e51b815260206004820152603560248201526000805160206154a78339815191526044820152746f7263652062617463686573206f766572666c6f7760581b6064820152608401610959565b60685460009061148d90600160801b90046001600160401b031684614f4e565b6114a0906001600160401b031687614f76565b60408051606081018252848152426001600160401b03908116602080840191825260688054600160401b9081900485168688019081528c861660008181526067909552979093209551865592516001909501805492519585166001600160801b03199384161795851684029590951790945583548b841691161793029290921767ffffffffffffffff60801b1916600160801b928716929092029190911790556074549091506115759033903090849061155a9190614f8d565b606554600160581b90046001600160a01b03169291906130fc565b61157d613167565b606854604051600160401b9091046001600160401b0316907f303446e6a8cb73c83dff421c0b1d5e5ce0719dab1bff13660fc254e58cc17fce90600090a250505050505050565b60655460ff16156115e75760405162461bcd60e51b815260040161095990614e16565b6072546001600160401b03878116600090815260676020526040902060010154429261161e92600160c01b90910481169116614deb565b6001600160401b031611156116a75760405162461bcd60e51b815260206004820152604360248201527f506f6c79676f6e5a6b45564d3a3a766572696679426174636865733a2054727560448201527f737465642061676772656761746f722074696d656f7574206e6f7420657870696064820152621c995960ea1b608482015260a401610959565b6103e86116b48888614f4e565b6001600160401b0316106117305760405162461bcd60e51b815260206004820152603c60248201527f506f6c79676f6e5a6b45564d3a3a766572696679426174636865733a2043616e60448201527f6e6f74207665726966792074686174206d616e792062617463686573000000006064820152608401610959565b611740888888888888888861320b565b6117498661370e565b607254600160801b90046001600160401b0316600003611811576069805467ffffffffffffffff19166001600160401b038881169182179092556000908152606d6020526040902085905560725416156117ae57607280546001600160801b03191690555b606c546040516333d6247d60e01b8152600481018790526001600160a01b03909116906333d6247d90602401600060405180830381600087803b1580156117f457600080fd5b505af1158015611808573d6000803e3d6000fd5b505050506118c2565b611819613167565b607280546001600160401b031690600061183283614e94565b82546001600160401b039182166101009390930a92830292820219169190911790915560408051608081018252428316815289831660208083019182528284018b8152606084018b8152607254871660009081526071909352949091209251835492518616600160401b026001600160801b03199093169516949094171781559151600183015551600290910155505b60405184815233906001600160401b038816907f9c72852172521097ba7e1482e6b44b351323df0155f97f4ea18fcec28e1f5966906020015b60405180910390a35050505050505050565b606a546001600160a01b031633146119b75761192881610bfa565b6119b75760405162461bcd60e51b815260206004820152605460248201527f506f6c79676f6e5a6b45564d3a3a636f6e736f6c696461746550656e64696e6760448201527f53746174653a2050656e64696e67207374617465206973206e6f7420726561646064820152731e481d1bc818994818dbdb9cdbdb1a59185d195960621b608482015260a401610959565b6119c0816138f4565b50565b606e80546108ae90614d58565b600054610100900460ff16158080156119f05750600054600160ff909116105b80611a0a5750303b158015611a0a575060005460ff166001145b611a6d5760405162461bcd60e51b815260206004820152602e60248201527f496e697469616c697a61626c653a20636f6e747261637420697320616c72656160448201526d191e481a5b9a5d1a585b1a5e995960921b6064820152608401610959565b6000805460ff191660011790558015611a90576000805461ff0019166101001790555b606c80546001600160a01b03199081166001600160a01b038c81169190911790925560658054600160581b600160f81b031916600160581b8c851602179055606b805482168a841617905560708054909116918816919091179055611af86020860186614aef565b607380546001600160a01b0319166001600160a01b0392909216919091179055611b286060860160408701614aef565b606980546001600160a01b0392909216600160401b02600160401b600160e01b0319909216919091179055611b6360c0860160a08701614aef565b606a80546001600160a01b0319166001600160a01b039290921691909117905560008052606d6020527fda90043ba5b4096ba14704bc227ab0d3167da15b887e62ab2e76e37daa711356849055611bc060e0860160c087016146fb565b607280546001600160401b0392909216600160c01b026001600160c01b03909216919091179055611bf760408601602087016146fb565b606c80546001600160401b0392909216600160a81b0267ffffffffffffffff60a81b19909216919091179055611c3360808601606087016146fb565b607280546001600160401b0392909216600160801b0267ffffffffffffffff60801b19909216919091179055611c6f60a0860160808701614bd1565b606c8054911515600160a01b0260ff60a01b19909216919091179055606e611c978482614ff2565b50606f611ca48382614ff2565b50670de0b6b3a7640000607455606580546affffffffffffffffffff0019166a03ea000000000000070800179055611cda613ad9565b8015611d20576000805461ff0019169055604051600181527f7f26b83ff96e1f2b6a682f133852f6798a09c465da95921460cefb38474024989060200160405180910390a15b505050505050505050565b6073546001600160a01b03163314611d555760405162461bcd60e51b815260040161095990614d92565b60698054600160401b600160e01b031916600160401b6001600160a01b038416021790556040517ff54144f9611984021529f814a1cb6a41e22c58351510a0d9f7e822618abb9cc090610a4e9083906146e7565b6073546001600160a01b03163314611dd35760405162461bcd60e51b815260040161095990614d92565b607380546001600160a01b0319166001600160a01b0383161790556040517f5a272403b402d892977df56625f4164ccaf70ca3863991c43ecfe76a6905b0a190610a4e9083906146e7565b611e26613b4d565b611e306000613ba7565b565b6033546001600160a01b03163314612031576000611e4e6123d5565b9050806001600160401b0316826001600160401b031611611ec55760405162461bcd60e51b815260206004820152603c602482015260008051602061542783398151915260448201527f746174653a20426174636820616c7265616479207665726966696564000000006064820152608401610959565b6068546001600160401b03600160401b909104811690831611801590611f0757506001600160401b038083166000908152606760205260409020600101541615155b611f805760405162461bcd60e51b8152602060048201526050602482015260008051602061542783398151915260448201527f746174653a204261746368206e6f742073657175656e636564206f72206e6f7460648201526f20656e64206f662073657175656e636560801b608482015260a401610959565b6001600160401b038083166000908152606760205260409020600101544291611fae9162093a809116614deb565b6001600160401b0316111561202f5760405162461bcd60e51b815260206004820152604d602482015260008051602061542783398151915260448201527f746174653a204167677265676174696f6e2068616c742074696d656f7574206960648201526c1cc81b9bdd08195e1c1a5c9959609a1b608482015260a401610959565b505b6119c0613bf9565b60655460ff161561205c5760405162461bcd60e51b815260040161095990614e16565b61206d898989898989898989613c69565b6001600160401b0386166000908152606d60209081526040918290205482519081529081018690527f1f44c21118c4603cfb4e1b621dbcfa2b73efcececee2b99b620b2953d33a7010910160405180910390a1611d20613bf9565b6073546001600160a01b031633146120f25760405162461bcd60e51b815260040161095990614d92565b606c8054821515600160a01b0260ff60a01b199091161790556040517fbacda50a4a8575be1d91a7ebe29ee45056f3a94f12a2281eb6b43afa33bcefe690610a4e90831515815260200190565b6065546040516370a0823160e01b81526000918291600160581b9091046001600160a01b0316906370a082319061217a9030906004016146e7565b602060405180830381865afa158015612197573d6000803e3d6000fd5b505050506040513d601f19601f820116820180604052508101906121bb9190614edd565b905060006121c76123d5565b6068546001600160401b03600160401b82048116916121f791600160801b8204811691600160c01b900416614f4e565b6122019190614deb565b61220b9190614f4e565b6001600160401b0316905061222081836150c7565b9250505090565b6073546001600160a01b031633146122515760405162461bcd60e51b815260040161095990614d92565b62093a806001600160401b03821611156122e55760405162461bcd60e51b815260206004820152604960248201527f506f6c79676f6e5a6b45564d3a3a73657450656e64696e67537461746554696d60448201527f656f75743a20457863656564206d61782068616c74206167677265676174696f6064820152681b881d1a5b595bdd5d60ba1b608482015260a401610959565b60655460ff1661237a576072546001600160401b03600160801b90910481169082161061237a5760405162461bcd60e51b815260206004820152603f60248201527f506f6c79676f6e5a6b45564d3a3a73657450656e64696e67537461746554696d60448201527f656f75743a204e65772074696d656f7574206d757374206265206c6f776572006064820152608401610959565b6072805467ffffffffffffffff60801b1916600160801b6001600160401b038416908102919091179091556040519081527fc4121f4e22c69632ebb7cf1f462be0511dc034f999b52013eddfb24aab765c7590602001610a4e565b6072546000906001600160401b03161561241257506072546001600160401b03908116600090815260716020526040902054600160401b90041690565b506069546001600160401b031690565b6073546001600160a01b0316331461244c5760405162461bcd60e51b815260040161095990614d92565b606e6124588282614ff2565b507f6b8f723a4c7a5335cafae8a598a0aa0301be1387c037dccc085b62add6448b2081604051610a4e9190614640565b6073546001600160a01b031633146124b25760405162461bcd60e51b815260040161095990614d92565b6065805468ffffffffffffffff0019166101006001600160401b038416908102919091179091556040519081527f03a12f7e53d2a9e31a9e913d85c12c4c38feb92abe003c111329298af088437f90602001610a4e565b60655460ff161561252c5760405162461bcd60e51b815260040161095990614e16565b606c54600160a01b900460ff16151560011461255a5760405162461bcd60e51b8152600401610959906150db565b8051806125bd5760405162461bcd60e51b815260206004820152603f602482015260008051602061548783398151915260448201527f65733a204d75737420666f726365206174206c656173742031206261746368006064820152608401610959565b6103e8811061262e5760405162461bcd60e51b8152602060048201526043602482015260008051602061548783398151915260448201527f65733a2043616e6e6f74207665726966792074686174206d616e79206261746360648201526268657360e81b608482015260a401610959565b6068546001600160401b03600160c01b8204811691612656918491600160801b900416615144565b11156126b25760405162461bcd60e51b81526020600482015260376024820152600080516020615487833981519152604482015276195cce88119bdc98d94818985d18da081a5b9d985b1a59604a1b6064820152608401610959565b6068546001600160401b03600160401b820481166000818152606760205260408120549193600160801b9004909216915b848110156128de5760008682815181106126ff576126ff614e7e565b60200260200101519050838061271490614e94565b94505060008160000151805190602001208260200151836040015160405160200161274193929190614eba565b60408051601f1981840301815291815281516020928301206001600160401b0388166000908152606690935291205490915081146127e05760405162461bcd60e51b8152602060048201526042602482015260008051602061548783398151915260448201527f65733a20466f7263656420626174636865732064617461206d757374206d61746064820152610c6d60f31b608482015260a401610959565b6127eb600188614f76565b83036128805742600083604001516128039190614deb565b6001600160401b031611156128805760405162461bcd60e51b8152602060048201526049602482015260008051602061548783398151915260448201527f65733a20466f72636564206261746368206973206e6f7420696e2074696d656f6064820152681d5d081c195c9a5bd960ba1b608482015260a401610959565b81518051602091820120818401516040516128a393889392914291339101614ef6565b60405160208183030381529060405280519060200120935085806128c690614e94565b965050505080806128d690614f35565b9150506126e3565b506068805467ffffffffffffffff1916426001600160401b03908116918217808455604080516060810182528681526020808201958652600160401b9384900485168284019081528a861660008181526067909352848320935184559651600193909301805491519387166001600160801b0319909216919091179286168502929092179091558554600160401b600160c01b03191694830267ffffffffffffffff60801b191694909417600160801b88851602179485905551930416917f648a61dd2438f072f5a1960939abd30f37aea80d2e94c9792ad142d3e0a490a49190a25050505050565b60655460ff166129e95760405162461bcd60e51b81526004016109599061515c565b6073546001600160a01b03163314612a135760405162461bcd60e51b815260040161095990614d92565b607060009054906101000a90046001600160a01b03166001600160a01b031663dbc169766040518163ffffffff1660e01b8152600401600060405180830381600087803b158015612a6357600080fd5b505af1158015612a77573d6000803e3d6000fd5b50505050611e3061429f565b606a546001600160a01b03163314612aad5760405162461bcd60e51b8152600401610959906151b9565b612abe898989898989898989613c69565b6069805467ffffffffffffffff19166001600160401b038881169182179092556000908152606d602052604090208590556072541615612b0957607280546001600160801b03191690555b606c546040516333d6247d60e01b8152600481018790526001600160a01b03909116906333d6247d90602401600060405180830381600087803b158015612b4f57600080fd5b505af1158015612b63573d6000803e3d6000fd5b5050607280546001600160c01b031661127560c71b179055505060405184815233906001600160401b038816907fcc1b5520188bf1dd3e63f98164b577c4d75c11a619ddea692112f0d1aec4cf729060200160405180910390a3505050505050505050565b60655460ff1615612beb5760405162461bcd60e51b815260040161095990614e16565b606c54600160a01b900460ff161515600114612c195760405162461bcd60e51b8152600401610959906150db565b6000612c2460745490565b905081811115612c895760405162461bcd60e51b815260206004820152602a60248201527f506f6c79676f6e5a6b45564d3a3a666f72636542617463683a204e6f7420656e6044820152696f756768206d6174696360b01b6064820152608401610959565b620493e0835110612cfa5760405162461bcd60e51b815260206004820152603560248201527f506f6c79676f6e5a6b45564d3a3a666f72636542617463683a205472616e73616044820152746374696f6e73206279746573206f766572666c6f7760581b6064820152608401610959565b606554612d1990600160581b90046001600160a01b03163330846130fc565b606c5460408051633ed691ef60e01b815290516000926001600160a01b031691633ed691ef9160048083019260209291908290030181865afa158015612d63573d6000803e3d6000fd5b505050506040513d601f19601f82011682018060405250810190612d879190614edd565b60688054919250600160c01b9091046001600160401b0316906018612dab83614e94565b91906101000a8154816001600160401b0302191690836001600160401b031602179055505083805190602001208142604051602001612dec93929190614eba565b60408051808303601f190181529181528151602092830120606854600160c01b90046001600160401b031660009081526066909352912055323303612e9057606854604080518381523360208201526060918101829052600091810191909152600160c01b9091046001600160401b0316907ff94bb37db835f1ab585ee00041849a09b12cd081d77fa15ca070757619cbc9319060800160405180910390a2612eeb565b606860189054906101000a90046001600160401b03166001600160401b03167ff94bb37db835f1ab585ee00041849a09b12cd081d77fa15ca070757619cbc931823387604051612ee293929190615216565b60405180910390a25b50505050565b606a546001600160a01b03163314612f1b5760405162461bcd60e51b8152600401610959906151b9565b612f2b888888888888888861320b565b6069805467ffffffffffffffff19166001600160401b038881169182179092556000908152606d602052604090208590556072541615612f7657607280546001600160801b03191690555b606c546040516333d6247d60e01b8152600481018790526001600160a01b03909116906333d6247d90602401600060405180830381600087803b158015612fbc57600080fd5b505af1158015612fd0573d6000803e3d6000fd5b50506040518681523392506001600160401b03891691507f0c0ce073a7d7b5850c04ccc4b20ee7d3179d5f57d0ac44399565792c0f72fce7906020016118fb565b6073546001600160a01b0316331461303b5760405162461bcd60e51b815260040161095990614d92565b606a80546001600160a01b0319166001600160a01b0383161790556040517f61f8fec29495a3078e9271456f05fb0707fd4e41f7661865f80fc437d06681ca90610a4e9083906146e7565b61308e613b4d565b6001600160a01b0381166130f35760405162461bcd60e51b815260206004820152602660248201527f4f776e61626c653a206e6577206f776e657220697320746865207a65726f206160448201526564647265737360d01b6064820152608401610959565b6119c081613ba7565b6040516001600160a01b0380851660248301528316604482015260648101829052612eeb9085906323b872dd60e01b906084015b60408051601f198184030181529190526020810180516001600160e01b03166001600160e01b0319909316929092179091526142f6565b6072546001600160401b03600160401b8204811691161115611e30576072546000906131a490600160401b90046001600160401b03166001614deb565b90506131af81610bfa565b156119c0576072546000906002906131d19084906001600160401b0316614f4e565b6131db9190615249565b6131e59083614deb565b90506131f081610bfa565b15613202576131fe816138f4565b5050565b6131fe826138f4565b6000806132166123d5565b90506001600160401b038a161561337c576072546001600160401b03908116908b1611156132ce5760405162461bcd60e51b815260206004820152605960248201527f506f6c79676f6e5a6b45564d3a3a5f766572696679426174636865733a20706560448201527f6e64696e6753746174654e756d206d757374206265206c657373206f7220657160648201527875616c207468616e206c61737450656e64696e67537461746560381b608482015260a401610959565b6001600160401b03808b1660009081526071602052604090206002810154815490945090918b8116600160401b90920416146133765760405162461bcd60e51b815260206004820152604d602482015260008051602061544783398151915260448201527f69744e756d4261746368206d757374206d61746368207468652070656e64696e60648201526c0ce40e6e8c2e8ca40c4c2e8c6d609b1b608482015260a401610959565b506134a2565b6001600160401b0389166000908152606d60205260409020549150816134065760405162461bcd60e51b815260206004820152604460248201819052600080516020615447833981519152908201527f69744e756d426174636820737461746520726f6f7420646f6573206e6f7420656064820152631e1a5cdd60e21b608482015260a401610959565b806001600160401b0316896001600160401b031611156134a25760405162461bcd60e51b815260206004820152605e602482015260008051602061544783398151915260448201527f69744e756d4261746368206d757374206265206c657373206f7220657175616c60648201527f207468616e2063757272656e744c617374566572696669656442617463680000608482015260a401610959565b806001600160401b0316886001600160401b03161161354a5760405162461bcd60e51b815260206004820152605860248201527f506f6c79676f6e5a6b45564d3a3a5f766572696679426174636865733a20666960448201527f6e616c4e65774261746368206d75737420626520626967676572207468616e206064820152770c6eae4e4cadce898c2e6e8accae4d2ccd2cac884c2e8c6d60431b608482015260a401610959565b60006135598a8a8a868b610a59565b905060007f30644e72e131a029b85045b68181585d2833e84879b9709143e1f593f000000160028360405161358e919061526f565b602060405180830381855afa1580156135ab573d6000803e3d6000fd5b5050506040513d601f19601f820116820180604052508101906135ce9190614edd565b6135d8919061528b565b606b546040805160208101825283815290516343753b4d60e01b81529293506001600160a01b03909116916343753b4d9161361c918b918b918b919060040161529f565b602060405180830381865afa158015613639573d6000803e3d6000fd5b505050506040513d601f19601f8201168201806040525081019061365d9190615319565b6136bd5760405162461bcd60e51b815260206004820152602b60248201527f506f6c79676f6e5a6b45564d3a3a5f766572696679426174636865733a20496e60448201526a3b30b634b210383937b7b360a91b6064820152608401610959565b613700336136cb858d614f4e565b6001600160401b03166136dc61213f565b6136e69190614f8d565b606554600160581b90046001600160a01b031691906143cd565b505050505050505050505050565b60006137186123d5565b9050816000806137288484614f4e565b6001600160401b031690505b836001600160401b0316836001600160401b0316146137da576001600160401b03808416600090815260676020526040902060655460018201549192610100909104811691613784911642614f76565b11156137bf5760018101546137a990600160401b90046001600160401b031685614f4e565b6137bc906001600160401b031684615144565b92505b60010154600160401b90046001600160401b03169250613734565b60006137e68383614f76565b9050828110156138605760006137fc8285614f76565b9050600c811161380c578061380f565b600c5b905061381c816003614f8d565b61382790600a61541a565b606554613840908390600160481b900461ffff1661541a565b60745461384d9190614f8d565b61385791906150c7565b607455506138ec565b600061386c8483614f76565b9050600c811161387c578061387f565b600c5b9050600061388e826003614f8d565b61389990600a61541a565b6065546138b2908490600160481b900461ffff1661541a565b6074546138bf9190614f8d565b6138c991906150c7565b9050806074546074546138dc9190614f8d565b6138e691906150c7565b60745550505b505050505050565b6001600160401b0381161580159061392157506072546001600160401b03600160401b9091048116908216115b801561393c57506072546001600160401b0390811690821611155b6139ae5760405162461bcd60e51b815260206004820152603f60248201527f506f6c79676f6e5a6b45564d3a3a5f636f6e736f6c696461746550656e64696e60448201527f6753746174653a2070656e64696e6753746174654e756d20696e76616c6964006064820152608401610959565b6001600160401b038181166000818152607160209081526040808320805460698054600160401b9283900490981667ffffffffffffffff19909816881790556002820154878652606d90945293829020929092556072805467ffffffffffffffff60401b19169390940292909217909255606c54600183015491516333d6247d60e01b815260048101929092529192916001600160a01b0316906333d6247d90602401600060405180830381600087803b158015613a6b57600080fd5b505af1158015613a7f573d6000803e3d6000fd5b50505050826001600160401b0316816001600160401b03167f328d3c6c0fd6f1be0515e422f2d87e59f25922cbc2233568515a0c4bc3f8510e8460020154604051613acc91815260200190565b60405180910390a3505050565b600054610100900460ff16613b445760405162461bcd60e51b815260206004820152602b60248201527f496e697469616c697a61626c653a20636f6e7472616374206973206e6f74206960448201526a6e697469616c697a696e6760a81b6064820152608401610959565b611e3033613ba7565b6033546001600160a01b03163314611e305760405162461bcd60e51b815260206004820181905260248201527f4f776e61626c653a2063616c6c6572206973206e6f7420746865206f776e65726044820152606401610959565b603380546001600160a01b038381166001600160a01b0319831681179093556040519116919082907f8be0079c531659141344cd1fd0a4f28419497f9722a3daafe3b4186f6b6457e090600090a35050565b607060009054906101000a90046001600160a01b03166001600160a01b0316632072f6c56040518163ffffffff1660e01b8152600401600060405180830381600087803b158015613c4957600080fd5b505af1158015613c5d573d6000803e3d6000fd5b50505050611e306143fd565b60006001600160401b038a1615613dd9576072546001600160401b03908116908b161115613d215760405162461bcd60e51b8152602060048201526065602482015260008051602061546783398151915260448201527f696e6753746174653a2070656e64696e6753746174654e756d206d757374206260648201527f65206c657373206f7220657175616c207468616e206c61737450656e64696e67608482015264537461746560d81b60a482015260c401610959565b506001600160401b03808a1660009081526071602052604090206002810154815490928a8116600160401b9092041614613dd35760405162461bcd60e51b8152602060048201526059602482015260008051602061546783398151915260448201527f696e6753746174653a20696e69744e756d4261746368206d757374206d6174636064820152780d040e8d0ca40e0cadcc8d2dcce40e6e8c2e8ca40c4c2e8c6d603b1b608482015260a401610959565b50613f12565b506001600160401b0387166000908152606d602052604090205480613e6d5760405162461bcd60e51b8152602060048201526050602482015260008051602061546783398151915260448201527f696e6753746174653a20696e69744e756d426174636820737461746520726f6f60648201526f1d08191bd95cc81b9bdd08195e1a5cdd60821b608482015260a401610959565b6069546001600160401b039081169089161115613f125760405162461bcd60e51b8152602060048201526063602482015260008051602061546783398151915260448201527f696e6753746174653a20696e69744e756d4261746368206d757374206265206c60648201527f657373206f7220657175616c207468616e206c617374566572696669656442616084820152620e8c6d60eb1b60a482015260c401610959565b6072546001600160401b03908116908a1611801590613f425750896001600160401b0316896001600160401b0316115b8015613f6357506072546001600160401b03600160401b9091048116908a16115b613fd45760405162461bcd60e51b8152602060048201526048602482015260008051602061546783398151915260448201527f696e6753746174653a2066696e616c50656e64696e6753746174654e756d20696064820152671b98dbdc9c9958dd60c21b608482015260a401610959565b6001600160401b03898116600090815260716020526040902054600160401b900481169088161461408d5760405162461bcd60e51b8152602060048201526063602482015260008051602061546783398151915260448201527f696e6753746174653a2066696e616c4e65774261746368206d7573742062652060648201527f657175616c207468616e2063757272656e744c617374566572696669656442616084820152620e8c6d60eb1b60a482015260c401610959565b600061409c898989858a610a59565b905060007f30644e72e131a029b85045b68181585d2833e84879b9709143e1f593f00000016002836040516140d1919061526f565b602060405180830381855afa1580156140ee573d6000803e3d6000fd5b5050506040513d601f19601f820116820180604052508101906141119190614edd565b61411b919061528b565b606b546040805160208101825283815290516343753b4d60e01b81529293506001600160a01b03909116916343753b4d9161415f918a918a918a919060040161529f565b602060405180830381865afa15801561417c573d6000803e3d6000fd5b505050506040513d601f19601f820116820180604052508101906141a09190615319565b6141fa5760405162461bcd60e51b8152602060048201526037602482015260008051602061546783398151915260448201527634b733a9ba30ba329d1024b73b30b634b210383937b7b360491b6064820152608401610959565b6001600160401b038b166000908152607160205260409020600201548790036137005760405162461bcd60e51b815260206004820152605b602482015260008051602061546783398151915260448201527f696e6753746174653a2053746f72656420726f6f74206d75737420626520646960648201527f66666572656e74207468616e206e657720737461746520726f6f740000000000608482015260a401610959565b60655460ff166142c15760405162461bcd60e51b81526004016109599061515c565b6065805460ff191690556040517f1e5e34eea33501aecf2ebec9fe0e884a40804275ea7fe10b2ba084c8374308b390600090a1565b600061434b826040518060400160405280602081526020017f5361666545524332303a206c6f772d6c6576656c2063616c6c206661696c6564815250856001600160a01b03166144589092919063ffffffff16565b8051909150156143c857808060200190518101906143699190615319565b6143c85760405162461bcd60e51b815260206004820152602a60248201527f5361666545524332303a204552433230206f7065726174696f6e20646964206e6044820152691bdd081cdd58d8d9595960b21b6064820152608401610959565b505050565b6040516001600160a01b0383166024820152604481018290526143c890849063a9059cbb60e01b90606401613130565b60655460ff16156144205760405162461bcd60e51b815260040161095990614e16565b6065805460ff191660011790556040517f2261efe5aef6fedc1fd1550b25facc9181745623049c7901287030b9ad1a549790600090a1565b6060614467848460008561446f565b949350505050565b6060824710156144d05760405162461bcd60e51b815260206004820152602660248201527f416464726573733a20696e73756666696369656e742062616c616e636520666f6044820152651c8818d85b1b60d21b6064820152608401610959565b600080866001600160a01b031685876040516144ec919061526f565b60006040518083038185875af1925050503d8060008114614529576040519150601f19603f3d011682016040523d82523d6000602084013e61452e565b606091505b509150915061453f8783838761454a565b979650505050505050565b606083156145b95782516000036145b2576001600160a01b0385163b6145b25760405162461bcd60e51b815260206004820152601d60248201527f416464726573733a2063616c6c20746f206e6f6e2d636f6e74726163740000006044820152606401610959565b5081614467565b61446783838151156145ce5781518083602001fd5b8060405162461bcd60e51b81526004016109599190614640565b60005b838110156146035781810151838201526020016145eb565b83811115612eeb5750506000910152565b6000815180845261462c8160208601602086016145e8565b601f01601f19169290920160200192915050565b6020815260006146536020830184614614565b9392505050565b60006020828403121561466c57600080fd5b813561ffff8116811461465357600080fd5b80356001600160401b038116811461469557600080fd5b919050565b600080600080600060a086880312156146b257600080fd5b6146bb8661467e565b94506146c96020870161467e565b94979496505050506040830135926060810135926080909101359150565b6001600160a01b0391909116815260200190565b60006020828403121561470d57600080fd5b6146538261467e565b634e487b7160e01b600052604160045260246000fd5b604051608081016001600160401b038111828210171561474e5761474e614716565b60405290565b604051606081016001600160401b038111828210171561474e5761474e614716565b604051601f8201601f191681016001600160401b038111828210171561479e5761479e614716565b604052919050565b60006001600160401b038211156147bf576147bf614716565b5060051b60200190565b600082601f8301126147da57600080fd5b81356001600160401b038111156147f3576147f3614716565b614806601f8201601f1916602001614776565b81815284602083860101111561481b57600080fd5b816020850160208301376000918101602001919091529392505050565b6000602080838503121561484b57600080fd5b82356001600160401b038082111561486257600080fd5b818501915085601f83011261487657600080fd5b8135614889614884826147a6565b614776565b81815260059190911b830184019084810190888311156148a857600080fd5b8585015b83811015614941578035858111156148c45760008081fd5b86016080818c03601f19018113156148dc5760008081fd5b6148e461472c565b89830135888111156148f65760008081fd5b6149048e8c838701016147c9565b8252506040808401358b830152606061491e81860161467e565b8284015261492d84860161467e565b9083015250855250509186019186016148ac565b5098975050505050505050565b806040810183101561495f57600080fd5b92915050565b806080810183101561495f57600080fd5b6000806000806000806000806101a0898b03121561499357600080fd5b61499c8961467e565b97506149aa60208a0161467e565b96506149b860408a0161467e565b955060608901359450608089013593506149d58a60a08b0161494e565b92506149e48a60e08b01614965565b91506149f48a6101608b0161494e565b90509295985092959890939650565b6001600160a01b03811681146119c057600080fd5b600080600080600080600080888a036101c0811215614a3657600080fd5b8935614a4181614a03565b985060208a0135614a5181614a03565b975060408a0135614a6181614a03565b965060608a0135614a7181614a03565b955060e0607f1982011215614a8557600080fd5b5060808901935061016089013592506101808901356001600160401b0380821115614aaf57600080fd5b614abb8c838d016147c9565b93506101a08b0135915080821115614ad257600080fd5b50614adf8b828c016147c9565b9150509295985092959890939650565b600060208284031215614b0157600080fd5b813561465381614a03565b60008060008060008060008060006101c08a8c031215614b2b57600080fd5b614b348a61467e565b9850614b4260208b0161467e565b9750614b5060408b0161467e565b9650614b5e60608b0161467e565b955060808a0135945060a08a01359350614b7b8b60c08c0161494e565b9250614b8b8b6101008c01614965565b9150614b9b8b6101808c0161494e565b90509295985092959850929598565b600060208284031215614bbc57600080fd5b5035919050565b80151581146119c057600080fd5b600060208284031215614be357600080fd5b813561465381614bc3565b600060208284031215614c0057600080fd5b81356001600160401b03811115614c1657600080fd5b614467848285016147c9565b60006020808385031215614c3557600080fd5b82356001600160401b0380821115614c4c57600080fd5b818501915085601f830112614c6057600080fd5b8135614c6e614884826147a6565b81815260059190911b83018401908481019088831115614c8d57600080fd5b8585015b8381101561494157803585811115614ca95760008081fd5b86016060818c03601f1901811315614cc15760008081fd5b614cc9614754565b8983013588811115614cdb5760008081fd5b614ce98e8c838701016147c9565b8252506040808401358b830152614d0183850161467e565b9082015285525050918601918601614c91565b60008060408385031215614d2757600080fd5b82356001600160401b03811115614d3d57600080fd5b614d49858286016147c9565b95602094909401359450505050565b600181811c90821680614d6c57607f821691505b602082108103614d8c57634e487b7160e01b600052602260045260246000fd5b50919050565b60208082526023908201527f506f6c79676f6e5a6b45564d3a3a6f6e6c7941646d696e3a204f6e6c7920616460408201526236b4b760e91b606082015260800190565b634e487b7160e01b600052601160045260246000fd5b60006001600160401b03808316818516808303821115614e0d57614e0d614dd5565b01949350505050565b60208082526042908201527f456d657267656e63794d616e616765723a3a69664e6f74456d657267656e637960408201527f53746174653a206f6e6c79206966206e6f7420656d657267656e637920737461606082015261746560f01b608082015260a00190565b634e487b7160e01b600052603260045260246000fd5b60006001600160401b03808316818103614eb057614eb0614dd5565b6001019392505050565b928352602083019190915260c01b6001600160c01b031916604082015260480190565b600060208284031215614eef57600080fd5b5051919050565b9485526020850193909352604084019190915260c01b6001600160c01b0319166060808401919091521b6001600160601b0319166068820152607c0190565b600060018201614f4757614f47614dd5565b5060010190565b60006001600160401b0383811690831681811015614f6e57614f6e614dd5565b039392505050565b600082821015614f8857614f88614dd5565b500390565b6000816000190483118215151615614fa757614fa7614dd5565b500290565b601f8211156143c857600081815260208120601f850160051c81016020861015614fd35750805b601f850160051c820191505b818110156138ec57828155600101614fdf565b81516001600160401b0381111561500b5761500b614716565b61501f816150198454614d58565b84614fac565b602080601f831160018114615054576000841561503c5750858301515b600019600386901b1c1916600185901b1785556138ec565b600085815260208120601f198616915b8281101561508357888601518255948401946001909101908401615064565b50858210156150a15787850151600019600388901b60f8161c191681555b5050505050600190811b01905550565b634e487b7160e01b600052601260045260246000fd5b6000826150d6576150d66150b1565b500490565b60208082526043908201527f506f6c79676f6e5a6b45564d3a3a6973466f7263654261746368416c6c6f776560408201527f643a204f6e6c7920696620666f72636520626174636820697320617661696c61606082015262626c6560e81b608082015260a00190565b6000821982111561515757615157614dd5565b500190565b6020808252603b908201527f456d657267656e63794d616e616765723a3a6966456d657267656e637953746160408201527f74653a206f6e6c7920696620656d657267656e63792073746174650000000000606082015260800190565b6020808252603c908201527f506f6c79676f6e5a6b45564d3a3a6f6e6c79547275737465644167677265676160408201527f746f723a204f6e6c7920747275737465642061676772656761746f7200000000606082015260800190565b8381526001600160a01b038316602082015260606040820181905260009061524090830184614614565b95945050505050565b60006001600160401b0380841680615263576152636150b1565b92169190910492915050565b600082516152818184602087016145e8565b9190910192915050565b60008261529a5761529a6150b1565b500690565b61012081016040808784376000838201818152879190815b60028110156152d7578484833790840182815292840192906001016152b7565b5050828760c0870137610100850181815286935091505b600181101561530d5782518252602092830192909101906001016152ee565b50505095945050505050565b60006020828403121561532b57600080fd5b815161465381614bc3565b600181815b8085111561537157816000190482111561535757615357614dd5565b8085161561536457918102915b93841c939080029061533b565b509250929050565b6000826153885750600161495f565b816153955750600061495f565b81600181146153ab57600281146153b5576153d1565b600191505061495f565b60ff8411156153c6576153c6614dd5565b50506001821b61495f565b5060208310610133831016604e8410600b84101617156153f4575081810a61495f565b6153fe8383615336565b806000190482111561541257615412614dd5565b029392505050565b6000614653838361537956fe506f6c79676f6e5a6b45564d3a3a6163746976617465456d657267656e637953506f6c79676f6e5a6b45564d3a3a5f766572696679426174636865733a20696e506f6c79676f6e5a6b45564d3a3a5f70726f766544697374696e637450656e64506f6c79676f6e5a6b45564d3a3a73657175656e6365466f7263654261746368506f6c79676f6e5a6b45564d3a3a73657175656e6365426174636865733a2046a264697066735822122031cc3fa0975dc285784bdbbf317f7f4297a343bf66ee98a05a9e15f9916b07e064736f6c634300080f0033",
  "linkReferences": {},
  "deployedLinkReferences": {}
}