{
  "_format": "hh-sol-artifact-1",
  "contractName": "SendData",
  "sourceName": "contracts/mocks/SequenceBatchesMock.sol",
  "abi": [
    {
      "inputs": [
        {
          "internalType": "address",
          "name": "destination",
          "type": "address"
        },
        {
          "internalType": "bytes",
          "name": "data",
          "type": "bytes"
        }
      ],
      "name": "sendData",
      "outputs": [],
      "stateMutability": "nonpayable",
      "type": "function"
    }
  ],
  "bytecode": "0x608060405234801561001057600080fd5b506101f1806100206000396000f3fe608060405234801561001057600080fd5b506004361061002b5760003560e01c80638823d22414610030575b600080fd5b61004361003e3660046100bc565b610045565b005b816001600160a01b03168160405161005d919061018c565b6000604051808303816000865af19150503d806000811461009a576040519150601f19603f3d011682016040523d82523d6000602084013e61009f565b606091505b5050505050565b634e487b7160e01b600052604160045260246000fd5b600080604083850312156100cf57600080fd5b82356001600160a01b03811681146100e657600080fd5b9150602083013567ffffffffffffffff8082111561010357600080fd5b818501915085601f83011261011757600080fd5b813581811115610129576101296100a6565b604051601f8201601f19908116603f01168101908382118183101715610151576101516100a6565b8160405282815288602084870101111561016a57600080fd5b8260208601602083013760006020848301015280955050505050509250929050565b6000825160005b818110156101ad5760208186018101518583015201610193565b50600092019182525091905056fea2646970667358221220623331cc4f39a3b2461c6f4e896b23eb18c5461d3228db02bb771c1ae9dd840a64736f6c63430008110033",
  "linkReferences": {},
  "deployedLinkReferences": {}
}