{
  "_format": "hh-sol-artifact-1",
  "contractName": "DepositContractMock",
  "sourceName": "contracts/mocks/DepositContractMock.sol",
  "abi": [
    {
      "inputs": [],
      "stateMutability": "nonpayable",
      "type": "constructor"
    },
    {
      "inputs": [],
      "name": "MerkleTreeFull",
      "type": "error"
    },
    {
      "anonymous": false,
      "inputs": [
        {
          "indexed": false,
          "internalType": "uint8",
          "name": "version",
          "type": "uint8"
        }
      ],
      "name": "Initialized",
      "type": "event"
    },
    {
      "inputs": [
        {
          "internalType": "uint8",
          "name": "leafType",
          "type": "uint8"
        },
        {
          "internalType": "uint32",
          "name": "originNetwork",
          "type": "uint32"
        },
        {
          "internalType": "address",
          "name": "originTokenAddress",
          "type": "address"
        },
        {
          "internalType": "uint32",
          "name": "destinationNetwork",
          "type": "uint32"
        },
        {
          "internalType": "address",
          "name": "destinationAddress",
          "type": "address"
        },
        {
          "internalType": "uint256",
          "name": "amount",
          "type": "uint256"
        },
        {
          "internalType": "bytes32",
          "name": "metadataHash",
          "type": "bytes32"
        }
      ],
      "name": "deposit",
      "outputs": [],
      "stateMutability": "nonpayable",
      "type": "function"
    },
    {
      "inputs": [],
      "name": "depositCount",
      "outputs": [
        {
          "internalType": "uint256",
          "name": "",
          "type": "uint256"
        }
      ],
      "stateMutability": "view",
      "type": "function"
    },
    {
      "inputs": [],
      "name": "getDepositRoot",
      "outputs": [
        {
          "internalType": "bytes32",
          "name": "",
          "type": "bytes32"
        }
      ],
      "stateMutability": "view",
      "type": "function"
    },
    {
      "inputs": [
        {
          "internalType": "uint8",
          "name": "leafType",
          "type": "uint8"
        },
        {
          "internalType": "uint32",
          "name": "originNetwork",
          "type": "uint32"
        },
        {
          "internalType": "address",
          "name": "originAddress",
          "type": "address"
        },
        {
          "internalType": "uint32",
          "name": "destinationNetwork",
          "type": "uint32"
        },
        {
          "internalType": "address",
          "name": "destinationAddress",
          "type": "address"
        },
        {
          "internalType": "uint256",
          "name": "amount",
          "type": "uint256"
        },
        {
          "internalType": "bytes32",
          "name": "metadataHash",
          "type": "bytes32"
        }
      ],
      "name": "getLeafValue",
      "outputs": [
        {
          "internalType": "bytes32",
          "name": "",
          "type": "bytes32"
        }
      ],
      "stateMutability": "pure",
      "type": "function"
    },
    {
      "inputs": [],
      "name": "initialize",
      "outputs": [],
      "stateMutability": "nonpayable",
      "type": "function"
    },
    {
      "inputs": [
        {
          "internalType": "bytes32",
          "name": "leafHash",
          "type": "bytes32"
        },
        {
          "internalType": "bytes32[32]",
          "name": "smtProof",
          "type": "bytes32[32]"
        },
        {
          "internalType": "uint32",
          "name": "index",
          "type": "uint32"
        },
        {
          "internalType": "bytes32",
          "name": "root",
          "type": "bytes32"
        }
      ],
      "name": "verifyMerkleProof",
      "outputs": [
        {
          "internalType": "bool",
          "name": "",
          "type": "bool"
        }
      ],
      "stateMutability": "pure",
      "type": "function"
    }
  ],
  "bytecode": "0x608060405234801561001057600080fd5b5061001961001e565b61014b565b600054610100900460ff161580801561003e5750600054600160ff909116105b8061006957506100573061013c60201b61045a1760201c565b158015610069575060005460ff166001145b6100d05760405162461bcd60e51b815260206004820152602e60248201527f496e697469616c697a61626c653a20636f6e747261637420697320616c72656160448201526d191e481a5b9a5d1a585b1a5e995960921b606482015260840160405180910390fd5b6000805460ff1916600117905580156100f3576000805461ff0019166101001790555b8015610139576000805461ff0019169055604051600181527f7f26b83ff96e1f2b6a682f133852f6798a09c465da95921460cefb38474024989060200160405180910390a15b50565b6001600160a01b03163b151590565b6107ee8061015a6000396000f3fe608060405234801561001057600080fd5b50600436106100625760003560e01c80632dfdf0b5146100675780633ae05047146100835780633e1970431461008b5780638129fc1c1461009e57806382c01902146100a8578063fb570834146100bb575b600080fd5b61007060535481565b6040519081526020015b60405180910390f35b6100706100de565b610070610099366004610583565b6101bb565b6100a661024d565b005b6100a66100b6366004610583565b610361565b6100ce6100c9366004610603565b610381565b604051901515815260200161007a565b605354600090819081805b60208110156101b2578083901c600116600103610146576033816020811061011357610113610651565b01546040805160208101929092528101859052606001604051602081830303815290604052805190602001209350610173565b60408051602081018690529081018390526060016040516020818303038152906040528051906020012093505b604080516020810184905290810183905260600160405160208183030381529060405280519060200120915080806101aa9061067d565b9150506100e9565b50919392505050565b6040516001600160f81b031960f889901b1660208201526001600160e01b031960e088811b821660218401526bffffffffffffffffffffffff19606089811b821660258601529188901b909216603984015285901b16603d8201526051810183905260718101829052600090609101604051602081830303815290604052805190602001209050979650505050505050565b600054610100900460ff161580801561026d5750600054600160ff909116105b8061028e575061027c3061045a565b15801561028e575060005460ff166001145b6102f55760405162461bcd60e51b815260206004820152602e60248201527f496e697469616c697a61626c653a20636f6e747261637420697320616c72656160448201526d191e481a5b9a5d1a585b1a5e995960921b606482015260840160405180910390fd5b6000805460ff191660011790558015610318576000805461ff0019166101001790555b801561035e576000805461ff0019169055604051600181527f7f26b83ff96e1f2b6a682f133852f6798a09c465da95921460cefb38474024989060200160405180910390a15b50565b610378610373888888888888886101bb565b610469565b50505050505050565b600084815b602081101561044e57600163ffffffff8616821c811690036103f1578581602081106103b4576103b4610651565b6020020135826040516020016103d4929190918252602082015260400190565b60405160208183030381529060405280519060200120915061043c565b8186826020811061040457610404610651565b6020020135604051602001610423929190918252602082015260400190565b6040516020818303038152906040528051906020012091505b806104468161067d565b915050610386565b50909114949350505050565b6001600160a01b03163b151590565b8060016104786020600261077c565b610482919061078f565b605354106104a3576040516377ae67b360e11b815260040160405180910390fd5b60006053600081546104b49061067d565b9182905550905060005b6020811015610545578082901c6001166001036104f15782603382602081106104e9576104e9610651565b015550505050565b6033816020811061050457610504610651565b01546040805160208101929092528101849052606001604051602081830303815290604052805190602001209250808061053d9061067d565b9150506104be565b5061054e6107a2565b505050565b803563ffffffff8116811461056757600080fd5b919050565b80356001600160a01b038116811461056757600080fd5b600080600080600080600060e0888a03121561059e57600080fd5b873560ff811681146105af57600080fd5b96506105bd60208901610553565b95506105cb6040890161056c565b94506105d960608901610553565b93506105e76080890161056c565b925060a0880135915060c0880135905092959891949750929550565b600080600080610460858703121561061a57600080fd5b8435935061042085018681111561063057600080fd5b60208601935061063f81610553565b94979396509394610440013593505050565b634e487b7160e01b600052603260045260246000fd5b634e487b7160e01b600052601160045260246000fd5b60006001820161068f5761068f610667565b5060010190565b600181815b808511156106d15781600019048211156106b7576106b7610667565b808516156106c457918102915b93841c939080029061069b565b509250929050565b6000826106e857506001610776565b816106f557506000610776565b816001811461070b576002811461071557610731565b6001915050610776565b60ff84111561072657610726610667565b50506001821b610776565b5060208310610133831016604e8410600b8410161715610754575081810a610776565b61075e8383610696565b806000190482111561077257610772610667565b0290505b92915050565b600061078883836106d9565b9392505050565b8181038181111561077657610776610667565b634e487b7160e01b600052600160045260246000fdfea26469706673582212205c929741a6a47d85721a9d50bb9d0ec51ac9f613b1b1e806508e76e0d40b227f64736f6c63430008110033",
  "linkReferences": {},
  "deployedLinkReferences": {}
}