{
  "_format": "hh-sol-artifact-1",
  "contractName": "DepositContractMock",
  "sourceName": "contracts/mocks/DepositContractMock.sol",
  "abi": [
    {
      "inputs": [],
      "stateMutability": "nonpayable",
      "type": "constructor"
    },
    {
      "anonymous": false,
      "inputs": [
        {
          "indexed": false,
          "internalType": "uint8",
          "name": "version",
          "type": "uint8"
        }
      ],
      "name": "Initialized",
      "type": "event"
    },
    {
      "inputs": [
        {
          "internalType": "uint8",
          "name": "leafType",
          "type": "uint8"
        },
        {
          "internalType": "uint32",
          "name": "originNetwork",
          "type": "uint32"
        },
        {
          "internalType": "address",
          "name": "originTokenAddress",
          "type": "address"
        },
        {
          "internalType": "uint32",
          "name": "destinationNetwork",
          "type": "uint32"
        },
        {
          "internalType": "address",
          "name": "destinationAddress",
          "type": "address"
        },
        {
          "internalType": "uint256",
          "name": "amount",
          "type": "uint256"
        },
        {
          "internalType": "bytes32",
          "name": "metadataHash",
          "type": "bytes32"
        }
      ],
      "name": "deposit",
      "outputs": [],
      "stateMutability": "nonpayable",
      "type": "function"
    },
    {
      "inputs": [],
      "name": "depositCount",
      "outputs": [
        {
          "internalType": "uint256",
          "name": "",
          "type": "uint256"
        }
      ],
      "stateMutability": "view",
      "type": "function"
    },
    {
      "inputs": [],
      "name": "getDepositRoot",
      "outputs": [
        {
          "internalType": "bytes32",
          "name": "",
          "type": "bytes32"
        }
      ],
      "stateMutability": "view",
      "type": "function"
    },
    {
      "inputs": [
        {
          "internalType": "uint8",
          "name": "leafType",
          "type": "uint8"
        },
        {
          "internalType": "uint32",
          "name": "originNetwork",
          "type": "uint32"
        },
        {
          "internalType": "address",
          "name": "originAddress",
          "type": "address"
        },
        {
          "internalType": "uint32",
          "name": "destinationNetwork",
          "type": "uint32"
        },
        {
          "internalType": "address",
          "name": "destinationAddress",
          "type": "address"
        },
        {
          "internalType": "uint256",
          "name": "amount",
          "type": "uint256"
        },
        {
          "internalType": "bytes32",
          "name": "metadataHash",
          "type": "bytes32"
        }
      ],
      "name": "getLeafValue",
      "outputs": [
        {
          "internalType": "bytes32",
          "name": "",
          "type": "bytes32"
        }
      ],
      "stateMutability": "pure",
      "type": "function"
    },
    {
      "inputs": [],
      "name": "initialize",
      "outputs": [],
      "stateMutability": "nonpayable",
      "type": "function"
    },
    {
      "inputs": [
        {
          "internalType": "bytes32",
          "name": "leafHash",
          "type": "bytes32"
        },
        {
          "internalType": "bytes32[]",
          "name": "smtProof",
          "type": "bytes32[]"
        },
        {
          "internalType": "uint64",
          "name": "index",
          "type": "uint64"
        },
        {
          "internalType": "bytes32",
          "name": "root",
          "type": "bytes32"
        }
      ],
      "name": "verifyMerkleProof",
      "outputs": [
        {
          "internalType": "bool",
          "name": "",
          "type": "bool"
        }
      ],
      "stateMutability": "pure",
      "type": "function"
    }
  ],
  "bytecode": "0x608060405234801561001057600080fd5b5061001961001e565b61014b565b600054610100900460ff161580801561003e5750600054600160ff909116105b8061006957506100573061013c60201b61047d1760201c565b158015610069575060005460ff166001145b6100d05760405162461bcd60e51b815260206004820152602e60248201527f496e697469616c697a61626c653a20636f6e747261637420697320616c72656160448201526d191e481a5b9a5d1a585b1a5e995960921b606482015260840160405180910390fd5b6000805460ff1916600117905580156100f3576000805461ff0019166101001790555b8015610139576000805461ff0019169055604051600181527f7f26b83ff96e1f2b6a682f133852f6798a09c465da95921460cefb38474024989060200160405180910390a15b50565b6001600160a01b03163b151590565b6109618061015a6000396000f3fe608060405234801561001057600080fd5b50600436106100625760003560e01c80632dfdf0b5146100675780633ae05047146100835780633da816821461008b5780633e197043146100ae5780638129fc1c146100c157806382c01902146100cb575b600080fd5b61007060215481565b6040519081526020015b60405180910390f35b6100706100de565b61009e6100993660046105f9565b6101c6565b604051901515815260200161007a565b6100706100bc366004610706565b6102b6565b6100c9610348565b005b6100c96100d9366004610706565b61045d565b602154600090819081805b60208110156101bd5782600116600103610143576001816020811061011057610110610786565b01546040805160208101929092528101859052606001604051602081830303815290604052805190602001209350610170565b60408051602081018690529081018390526060016040516020818303038152906040528051906020012093505b61017b6002846107b2565b604080516020810185905290810184905290935060600160405160208183030381529060405280519060200120915080806101b5906107d4565b9150506100e9565b50919392505050565b60008467ffffffffffffffff8416825b60208110156102a9578160011660010361023c578681815181106101fc576101fc610786565b60200260200101518360405160200161021f929190918252602082015260400190565b60405160208183030381529060405280519060200120925061028a565b8287828151811061024f5761024f610786565b6020026020010151604051602001610271929190918252602082015260400190565b6040516020818303038152906040528051906020012092505b6102956002836107b2565b9150806102a1816107d4565b9150506101d6565b5050909114949350505050565b6040516001600160f81b031960f889901b1660208201526001600160e01b031960e088811b821660218401526bffffffffffffffffffffffff19606089811b821660258601529188901b909216603984015285901b16603d8201526051810183905260718101829052600090609101604051602081830303815290604052805190602001209050979650505050505050565b600054610100900460ff16158080156103685750600054600160ff909116105b8061038957506103773061047d565b158015610389575060005460ff166001145b6103f15760405162461bcd60e51b815260206004820152602e60248201527f496e697469616c697a61626c653a20636f6e747261637420697320616c72656160448201526d191e481a5b9a5d1a585b1a5e995960921b60648201526084015b60405180910390fd5b6000805460ff191660011790558015610414576000805461ff0019166101001790555b801561045a576000805461ff0019169055604051600181527f7f26b83ff96e1f2b6a682f133852f6798a09c465da95921460cefb38474024989060200160405180910390a15b50565b61047461046f888888888888886102b6565b61048c565b50505050505050565b6001600160a01b03163b151590565b80600161049b602060026108d3565b6104a591906108e6565b602154106105085760405162461bcd60e51b815260206004820152602a60248201527f4465706f736974436f6e74726163743a5f6465706f7369743a204d65726b6c65604482015269081d1c995948199d5b1b60b21b60648201526084016103e8565b60016021600082825461051b91906108fd565b909155505060215460005b60208110156105b8578160011660010361055657826001826020811061054e5761054e610786565b015550505050565b6001816020811061056957610569610786565b015460408051602081019290925281018490526060016040516020818303038152906040528051906020012092506002826105a491906107b2565b9150806105b0816107d4565b915050610526565b506105c1610915565b505050565b634e487b7160e01b600052604160045260246000fd5b803567ffffffffffffffff811681146105f457600080fd5b919050565b6000806000806080858703121561060f57600080fd5b8435935060208086013567ffffffffffffffff8082111561062f57600080fd5b818801915088601f83011261064357600080fd5b813581811115610655576106556105c6565b8060051b604051601f19603f8301168101818110858211171561067a5761067a6105c6565b60405291825284820192508381018501918b83111561069857600080fd5b938501935b828510156106b65784358452938501939285019261069d565b8098505050505050506106cb604086016105dc565b9396929550929360600135925050565b803563ffffffff811681146105f457600080fd5b80356001600160a01b03811681146105f457600080fd5b600080600080600080600060e0888a03121561072157600080fd5b873560ff8116811461073257600080fd5b9650610740602089016106db565b955061074e604089016106ef565b945061075c606089016106db565b935061076a608089016106ef565b925060a0880135915060c0880135905092959891949750929550565b634e487b7160e01b600052603260045260246000fd5b634e487b7160e01b600052601160045260246000fd5b6000826107cf57634e487b7160e01b600052601260045260246000fd5b500490565b6000600182016107e6576107e661079c565b5060010190565b600181815b8085111561082857816000190482111561080e5761080e61079c565b8085161561081b57918102915b93841c93908002906107f2565b509250929050565b60008261083f575060016108cd565b8161084c575060006108cd565b8160018114610862576002811461086c57610888565b60019150506108cd565b60ff84111561087d5761087d61079c565b50506001821b6108cd565b5060208310610133831016604e8410600b84101617156108ab575081810a6108cd565b6108b583836107ed565b80600019048211156108c9576108c961079c565b0290505b92915050565b60006108df8383610830565b9392505050565b6000828210156108f8576108f861079c565b500390565b600082198211156109105761091061079c565b500190565b634e487b7160e01b600052600160045260246000fdfea26469706673582212209d00e59e949eb36ca0320c4966a15f4990b5c03099ed6911b5d7063c9fe0378964736f6c634300080f0033",
  "linkReferences": {},
  "deployedLinkReferences": {}
}