{
  "_format": "hh-sol-artifact-1",
  "contractName": "ERC20WeirdMetadata",
  "sourceName": "contracts/mocks/ERC20WeirdMetadata.sol",
  "abi": [
    {
      "inputs": [
        {
          "internalType": "bytes32",
          "name": "name_",
          "type": "bytes32"
        },
        {
          "internalType": "bytes",
          "name": "symbol_",
          "type": "bytes"
        },
        {
          "internalType": "uint256",
          "name": "decimals_",
          "type": "uint256"
        }
      ],
      "stateMutability": "nonpayable",
      "type": "constructor"
    },
    {
      "anonymous": false,
      "inputs": [
        {
          "indexed": true,
          "internalType": "address",
          "name": "owner",
          "type": "address"
        },
        {
          "indexed": true,
          "internalType": "address",
          "name": "spender",
          "type": "address"
        },
        {
          "indexed": false,
          "internalType": "uint256",
          "name": "value",
          "type": "uint256"
        }
      ],
      "name": "Approval",
      "type": "event"
    },
    {
      "anonymous": false,
      "inputs": [
        {
          "indexed": true,
          "internalType": "address",
          "name": "from",
          "type": "address"
        },
        {
          "indexed": true,
          "internalType": "address",
          "name": "to",
          "type": "address"
        },
        {
          "indexed": false,
          "internalType": "uint256",
          "name": "value",
          "type": "uint256"
        }
      ],
      "name": "Transfer",
      "type": "event"
    },
    {
      "inputs": [
        {
          "internalType": "address",
          "name": "owner",
          "type": "address"
        },
        {
          "internalType": "address",
          "name": "spender",
          "type": "address"
        }
      ],
      "name": "allowance",
      "outputs": [
        {
          "internalType": "uint256",
          "name": "",
          "type": "uint256"
        }
      ],
      "stateMutability": "view",
      "type": "function"
    },
    {
      "inputs": [
        {
          "internalType": "address",
          "name": "spender",
          "type": "address"
        },
        {
          "internalType": "uint256",
          "name": "amount",
          "type": "uint256"
        }
      ],
      "name": "approve",
      "outputs": [
        {
          "internalType": "bool",
          "name": "",
          "type": "bool"
        }
      ],
      "stateMutability": "nonpayable",
      "type": "function"
    },
    {
      "inputs": [
        {
          "internalType": "address",
          "name": "account",
          "type": "address"
        }
      ],
      "name": "balanceOf",
      "outputs": [
        {
          "internalType": "uint256",
          "name": "",
          "type": "uint256"
        }
      ],
      "stateMutability": "view",
      "type": "function"
    },
    {
      "inputs": [],
      "name": "decimals",
      "outputs": [
        {
          "internalType": "uint256",
          "name": "",
          "type": "uint256"
        }
      ],
      "stateMutability": "view",
      "type": "function"
    },
    {
      "inputs": [
        {
          "internalType": "address",
          "name": "spender",
          "type": "address"
        },
        {
          "internalType": "uint256",
          "name": "subtractedValue",
          "type": "uint256"
        }
      ],
      "name": "decreaseAllowance",
      "outputs": [
        {
          "internalType": "bool",
          "name": "",
          "type": "bool"
        }
      ],
      "stateMutability": "nonpayable",
      "type": "function"
    },
    {
      "inputs": [
        {
          "internalType": "address",
          "name": "spender",
          "type": "address"
        },
        {
          "internalType": "uint256",
          "name": "addedValue",
          "type": "uint256"
        }
      ],
      "name": "increaseAllowance",
      "outputs": [
        {
          "internalType": "bool",
          "name": "",
          "type": "bool"
        }
      ],
      "stateMutability": "nonpayable",
      "type": "function"
    },
    {
      "inputs": [],
      "name": "isRevert",
      "outputs": [
        {
          "internalType": "bool",
          "name": "",
          "type": "bool"
        }
      ],
      "stateMutability": "view",
      "type": "function"
    },
    {
      "inputs": [
        {
          "internalType": "address",
          "name": "account",
          "type": "address"
        },
        {
          "internalType": "uint256",
          "name": "amount",
          "type": "uint256"
        }
      ],
      "name": "mint",
      "outputs": [],
      "stateMutability": "nonpayable",
      "type": "function"
    },
    {
      "inputs": [],
      "name": "name",
      "outputs": [
        {
          "internalType": "bytes32",
          "name": "",
          "type": "bytes32"
        }
      ],
      "stateMutability": "view",
      "type": "function"
    },
    {
      "inputs": [
        {
          "internalType": "uint256",
          "name": "newDecimals",
          "type": "uint256"
        }
      ],
      "name": "setDecimals",
      "outputs": [],
      "stateMutability": "nonpayable",
      "type": "function"
    },
    {
      "inputs": [],
      "name": "symbol",
      "outputs": [
        {
          "internalType": "bytes",
          "name": "",
          "type": "bytes"
        }
      ],
      "stateMutability": "view",
      "type": "function"
    },
    {
      "inputs": [],
      "name": "toggleIsRevert",
      "outputs": [],
      "stateMutability": "nonpayable",
      "type": "function"
    },
    {
      "inputs": [],
      "name": "totalSupply",
      "outputs": [
        {
          "internalType": "uint256",
          "name": "",
          "type": "uint256"
        }
      ],
      "stateMutability": "view",
      "type": "function"
    },
    {
      "inputs": [
        {
          "internalType": "address",
          "name": "to",
          "type": "address"
        },
        {
          "internalType": "uint256",
          "name": "amount",
          "type": "uint256"
        }
      ],
      "name": "transfer",
      "outputs": [
        {
          "internalType": "bool",
          "name": "",
          "type": "bool"
        }
      ],
      "stateMutability": "nonpayable",
      "type": "function"
    },
    {
      "inputs": [
        {
          "internalType": "address",
          "name": "from",
          "type": "address"
        },
        {
          "internalType": "address",
          "name": "to",
          "type": "address"
        },
        {
          "internalType": "uint256",
          "name": "amount",
          "type": "uint256"
        }
      ],
      "name": "transferFrom",
      "outputs": [
        {
          "internalType": "bool",
          "name": "",
          "type": "bool"
        }
      ],
      "stateMutability": "nonpayable",
      "type": "function"
    }
  ],
  "bytecode": "0x60806040523480156200001157600080fd5b5060405162000c9d38038062000c9d83398101604081905262000034916200006a565b60038390556004620000478382620001e2565b5060055550620002ae9050565b634e487b7160e01b600052604160045260246000fd5b6000806000606084860312156200008057600080fd5b8351602080860151919450906001600160401b0380821115620000a257600080fd5b818701915087601f830112620000b757600080fd5b815181811115620000cc57620000cc62000054565b604051601f8201601f19908116603f01168101908382118183101715620000f757620000f762000054565b816040528281528a868487010111156200011057600080fd5b600093505b8284101562000134578484018601518185018701529285019262000115565b6000868483010152809750505050505050604084015190509250925092565b600181811c908216806200016857607f821691505b6020821081036200018957634e487b7160e01b600052602260045260246000fd5b50919050565b601f821115620001dd57600081815260208120601f850160051c81016020861015620001b85750805b601f850160051c820191505b81811015620001d957828155600101620001c4565b5050505b505050565b81516001600160401b03811115620001fe57620001fe62000054565b62000216816200020f845462000153565b846200018f565b602080601f8311600181146200024e5760008415620002355750858301515b600019600386901b1c1916600185901b178555620001d9565b600085815260208120601f198616915b828110156200027f578886015182559484019460019091019084016200025e565b50858210156200029e5787850151600019600388901b60f8161c191681555b5050505050600190811b01905550565b6109df80620002be6000396000f3fe608060405234801561001057600080fd5b50600436106100d55760003560e01c80633ccafd11116100875780633ccafd111461016757806340c10f191461017457806370a08231146101875780638c8885c8146101b057806395d89b41146101c3578063a457c2d7146101d8578063a9059cbb146101eb578063dd62ed3e146101fe57600080fd5b806306fdde03146100da578063095ea7b3146100f557806315a87bee1461011857806318160ddd1461013157806323b872dd14610139578063313ce5671461014c5780633950935114610154575b600080fd5b6100e2610211565b6040519081526020015b60405180910390f35b61010861010336600461082c565b61022b565b60405190151581526020016100ec565b61012f6006805460ff19811660ff90911615179055565b005b6002546100e2565b610108610147366004610856565b610245565b6100e2610269565b61010861016236600461082c565b610283565b6006546101089060ff1681565b61012f61018236600461082c565b6102a5565b6100e2610195366004610892565b6001600160a01b031660009081526020819052604090205490565b61012f6101be3660046108b4565b600555565b6101cb6102b3565b6040516100ec91906108cd565b6101086101e636600461082c565b610356565b6101086101f936600461082c565b6103d6565b6100e261020c36600461091b565b6103e4565b60065460009060ff161561022457600080fd5b5060035490565b60003361023981858561040f565b60019150505b92915050565b600033610253858285610533565b61025e8585856105ad565b506001949350505050565b60065460009060ff161561027c57600080fd5b5060055490565b60003361023981858561029683836103e4565b6102a0919061094e565b61040f565b6102af8282610751565b5050565b60065460609060ff16156102c657600080fd5b600480546102d39061096f565b80601f01602080910402602001604051908101604052809291908181526020018280546102ff9061096f565b801561034c5780601f106103215761010080835404028352916020019161034c565b820191906000526020600020905b81548152906001019060200180831161032f57829003601f168201915b5050505050905090565b6000338161036482866103e4565b9050838110156103c95760405162461bcd60e51b815260206004820152602560248201527f45524332303a2064656372656173656420616c6c6f77616e63652062656c6f77604482015264207a65726f60d81b60648201526084015b60405180910390fd5b61025e828686840361040f565b6000336102398185856105ad565b6001600160a01b03918216600090815260016020908152604080832093909416825291909152205490565b6001600160a01b0383166104715760405162461bcd60e51b8152602060048201526024808201527f45524332303a20617070726f76652066726f6d20746865207a65726f206164646044820152637265737360e01b60648201526084016103c0565b6001600160a01b0382166104d25760405162461bcd60e51b815260206004820152602260248201527f45524332303a20617070726f766520746f20746865207a65726f206164647265604482015261737360f01b60648201526084016103c0565b6001600160a01b0383811660008181526001602090815260408083209487168084529482529182902085905590518481527f8c5be1e5ebec7d5bd14f71427d1e84f3dd0314c0f7b2291e5b200ac8c7c3b925910160405180910390a3505050565b600061053f84846103e4565b905060001981146105a7578181101561059a5760405162461bcd60e51b815260206004820152601d60248201527f45524332303a20696e73756666696369656e7420616c6c6f77616e636500000060448201526064016103c0565b6105a7848484840361040f565b50505050565b6001600160a01b0383166106115760405162461bcd60e51b815260206004820152602560248201527f45524332303a207472616e736665722066726f6d20746865207a65726f206164604482015264647265737360d81b60648201526084016103c0565b6001600160a01b0382166106735760405162461bcd60e51b815260206004820152602360248201527f45524332303a207472616e7366657220746f20746865207a65726f206164647260448201526265737360e81b60648201526084016103c0565b6001600160a01b038316600090815260208190526040902054818110156106eb5760405162461bcd60e51b815260206004820152602660248201527f45524332303a207472616e7366657220616d6f756e7420657863656564732062604482015265616c616e636560d01b60648201526084016103c0565b6001600160a01b03848116600081815260208181526040808320878703905593871680835291849020805487019055925185815290927fddf252ad1be2c89b69c2b068fc378daa952ba7f163c4a11628f55a4df523b3ef910160405180910390a36105a7565b6001600160a01b0382166107a75760405162461bcd60e51b815260206004820152601f60248201527f45524332303a206d696e7420746f20746865207a65726f20616464726573730060448201526064016103c0565b80600260008282546107b9919061094e565b90915550506001600160a01b038216600081815260208181526040808320805486019055518481527fddf252ad1be2c89b69c2b068fc378daa952ba7f163c4a11628f55a4df523b3ef910160405180910390a35050565b80356001600160a01b038116811461082757600080fd5b919050565b6000806040838503121561083f57600080fd5b61084883610810565b946020939093013593505050565b60008060006060848603121561086b57600080fd5b61087484610810565b925061088260208501610810565b9150604084013590509250925092565b6000602082840312156108a457600080fd5b6108ad82610810565b9392505050565b6000602082840312156108c657600080fd5b5035919050565b600060208083528351808285015260005b818110156108fa578581018301518582016040015282016108de565b506000604082860101526040601f19601f8301168501019250505092915050565b6000806040838503121561092e57600080fd5b61093783610810565b915061094560208401610810565b90509250929050565b8082018082111561023f57634e487b7160e01b600052601160045260246000fd5b600181811c9082168061098357607f821691505b6020821081036109a357634e487b7160e01b600052602260045260246000fd5b5091905056fea2646970667358221220fec5716d37324383adb52c0e93a59d93c41bb9f27d35d0a7694762eb2299cc0064736f6c63430008110033",
  "linkReferences": {},
  "deployedLinkReferences": {}
}