{
  "_format": "hh-sol-artifact-1",
  "contractName": "PolygonZkEVMTimelock",
  "sourceName": "contracts/PolygonZkEVMTimelock.sol",
  "abi": [
    {
      "inputs": [
        {
          "internalType": "uint256",
          "name": "minDelay",
          "type": "uint256"
        },
        {
          "internalType": "address[]",
          "name": "proposers",
          "type": "address[]"
        },
        {
          "internalType": "address[]",
          "name": "executors",
          "type": "address[]"
        },
        {
          "internalType": "address",
          "name": "admin",
          "type": "address"
        },
        {
          "internalType": "contract PolygonZkEVM",
          "name": "_polygonZkEVM",
          "type": "address"
        }
      ],
      "stateMutability": "nonpayable",
      "type": "constructor"
    },
    {
      "anonymous": false,
      "inputs": [
        {
          "indexed": true,
          "internalType": "bytes32",
          "name": "id",
          "type": "bytes32"
        },
        {
          "indexed": true,
          "internalType": "uint256",
          "name": "index",
          "type": "uint256"
        },
        {
          "indexed": false,
          "internalType": "address",
          "name": "target",
          "type": "address"
        },
        {
          "indexed": false,
          "internalType": "uint256",
          "name": "value",
          "type": "uint256"
        },
        {
          "indexed": false,
          "internalType": "bytes",
          "name": "data",
          "type": "bytes"
        }
      ],
      "name": "CallExecuted",
      "type": "event"
    },
    {
      "anonymous": false,
      "inputs": [
        {
          "indexed": true,
          "internalType": "bytes32",
          "name": "id",
          "type": "bytes32"
        },
        {
          "indexed": true,
          "internalType": "uint256",
          "name": "index",
          "type": "uint256"
        },
        {
          "indexed": false,
          "internalType": "address",
          "name": "target",
          "type": "address"
        },
        {
          "indexed": false,
          "internalType": "uint256",
          "name": "value",
          "type": "uint256"
        },
        {
          "indexed": false,
          "internalType": "bytes",
          "name": "data",
          "type": "bytes"
        },
        {
          "indexed": false,
          "internalType": "bytes32",
          "name": "predecessor",
          "type": "bytes32"
        },
        {
          "indexed": false,
          "internalType": "uint256",
          "name": "delay",
          "type": "uint256"
        }
      ],
      "name": "CallScheduled",
      "type": "event"
    },
    {
      "anonymous": false,
      "inputs": [
        {
          "indexed": true,
          "internalType": "bytes32",
          "name": "id",
          "type": "bytes32"
        }
      ],
      "name": "Cancelled",
      "type": "event"
    },
    {
      "anonymous": false,
      "inputs": [
        {
          "indexed": false,
          "internalType": "uint256",
          "name": "oldDuration",
          "type": "uint256"
        },
        {
          "indexed": false,
          "internalType": "uint256",
          "name": "newDuration",
          "type": "uint256"
        }
      ],
      "name": "MinDelayChange",
      "type": "event"
    },
    {
      "anonymous": false,
      "inputs": [
        {
          "indexed": true,
          "internalType": "bytes32",
          "name": "role",
          "type": "bytes32"
        },
        {
          "indexed": true,
          "internalType": "bytes32",
          "name": "previousAdminRole",
          "type": "bytes32"
        },
        {
          "indexed": true,
          "internalType": "bytes32",
          "name": "newAdminRole",
          "type": "bytes32"
        }
      ],
      "name": "RoleAdminChanged",
      "type": "event"
    },
    {
      "anonymous": false,
      "inputs": [
        {
          "indexed": true,
          "internalType": "bytes32",
          "name": "role",
          "type": "bytes32"
        },
        {
          "indexed": true,
          "internalType": "address",
          "name": "account",
          "type": "address"
        },
        {
          "indexed": true,
          "internalType": "address",
          "name": "sender",
          "type": "address"
        }
      ],
      "name": "RoleGranted",
      "type": "event"
    },
    {
      "anonymous": false,
      "inputs": [
        {
          "indexed": true,
          "internalType": "bytes32",
          "name": "role",
          "type": "bytes32"
        },
        {
          "indexed": true,
          "internalType": "address",
          "name": "account",
          "type": "address"
        },
        {
          "indexed": true,
          "internalType": "address",
          "name": "sender",
          "type": "address"
        }
      ],
      "name": "RoleRevoked",
      "type": "event"
    },
    {
      "inputs": [],
      "name": "CANCELLER_ROLE",
      "outputs": [
        {
          "internalType": "bytes32",
          "name": "",
          "type": "bytes32"
        }
      ],
      "stateMutability": "view",
      "type": "function"
    },
    {
      "inputs": [],
      "name": "DEFAULT_ADMIN_ROLE",
      "outputs": [
        {
          "internalType": "bytes32",
          "name": "",
          "type": "bytes32"
        }
      ],
      "stateMutability": "view",
      "type": "function"
    },
    {
      "inputs": [],
      "name": "EXECUTOR_ROLE",
      "outputs": [
        {
          "internalType": "bytes32",
          "name": "",
          "type": "bytes32"
        }
      ],
      "stateMutability": "view",
      "type": "function"
    },
    {
      "inputs": [],
      "name": "PROPOSER_ROLE",
      "outputs": [
        {
          "internalType": "bytes32",
          "name": "",
          "type": "bytes32"
        }
      ],
      "stateMutability": "view",
      "type": "function"
    },
    {
      "inputs": [],
      "name": "TIMELOCK_ADMIN_ROLE",
      "outputs": [
        {
          "internalType": "bytes32",
          "name": "",
          "type": "bytes32"
        }
      ],
      "stateMutability": "view",
      "type": "function"
    },
    {
      "inputs": [
        {
          "internalType": "bytes32",
          "name": "id",
          "type": "bytes32"
        }
      ],
      "name": "cancel",
      "outputs": [],
      "stateMutability": "nonpayable",
      "type": "function"
    },
    {
      "inputs": [
        {
          "internalType": "address",
          "name": "target",
          "type": "address"
        },
        {
          "internalType": "uint256",
          "name": "value",
          "type": "uint256"
        },
        {
          "internalType": "bytes",
          "name": "payload",
          "type": "bytes"
        },
        {
          "internalType": "bytes32",
          "name": "predecessor",
          "type": "bytes32"
        },
        {
          "internalType": "bytes32",
          "name": "salt",
          "type": "bytes32"
        }
      ],
      "name": "execute",
      "outputs": [],
      "stateMutability": "payable",
      "type": "function"
    },
    {
      "inputs": [
        {
          "internalType": "address[]",
          "name": "targets",
          "type": "address[]"
        },
        {
          "internalType": "uint256[]",
          "name": "values",
          "type": "uint256[]"
        },
        {
          "internalType": "bytes[]",
          "name": "payloads",
          "type": "bytes[]"
        },
        {
          "internalType": "bytes32",
          "name": "predecessor",
          "type": "bytes32"
        },
        {
          "internalType": "bytes32",
          "name": "salt",
          "type": "bytes32"
        }
      ],
      "name": "executeBatch",
      "outputs": [],
      "stateMutability": "payable",
      "type": "function"
    },
    {
      "inputs": [],
      "name": "getMinDelay",
      "outputs": [
        {
          "internalType": "uint256",
          "name": "duration",
          "type": "uint256"
        }
      ],
      "stateMutability": "view",
      "type": "function"
    },
    {
      "inputs": [
        {
          "internalType": "bytes32",
          "name": "role",
          "type": "bytes32"
        }
      ],
      "name": "getRoleAdmin",
      "outputs": [
        {
          "internalType": "bytes32",
          "name": "",
          "type": "bytes32"
        }
      ],
      "stateMutability": "view",
      "type": "function"
    },
    {
      "inputs": [
        {
          "internalType": "bytes32",
          "name": "id",
          "type": "bytes32"
        }
      ],
      "name": "getTimestamp",
      "outputs": [
        {
          "internalType": "uint256",
          "name": "timestamp",
          "type": "uint256"
        }
      ],
      "stateMutability": "view",
      "type": "function"
    },
    {
      "inputs": [
        {
          "internalType": "bytes32",
          "name": "role",
          "type": "bytes32"
        },
        {
          "internalType": "address",
          "name": "account",
          "type": "address"
        }
      ],
      "name": "grantRole",
      "outputs": [],
      "stateMutability": "nonpayable",
      "type": "function"
    },
    {
      "inputs": [
        {
          "internalType": "bytes32",
          "name": "role",
          "type": "bytes32"
        },
        {
          "internalType": "address",
          "name": "account",
          "type": "address"
        }
      ],
      "name": "hasRole",
      "outputs": [
        {
          "internalType": "bool",
          "name": "",
          "type": "bool"
        }
      ],
      "stateMutability": "view",
      "type": "function"
    },
    {
      "inputs": [
        {
          "internalType": "address",
          "name": "target",
          "type": "address"
        },
        {
          "internalType": "uint256",
          "name": "value",
          "type": "uint256"
        },
        {
          "internalType": "bytes",
          "name": "data",
          "type": "bytes"
        },
        {
          "internalType": "bytes32",
          "name": "predecessor",
          "type": "bytes32"
        },
        {
          "internalType": "bytes32",
          "name": "salt",
          "type": "bytes32"
        }
      ],
      "name": "hashOperation",
      "outputs": [
        {
          "internalType": "bytes32",
          "name": "hash",
          "type": "bytes32"
        }
      ],
      "stateMutability": "pure",
      "type": "function"
    },
    {
      "inputs": [
        {
          "internalType": "address[]",
          "name": "targets",
          "type": "address[]"
        },
        {
          "internalType": "uint256[]",
          "name": "values",
          "type": "uint256[]"
        },
        {
          "internalType": "bytes[]",
          "name": "payloads",
          "type": "bytes[]"
        },
        {
          "internalType": "bytes32",
          "name": "predecessor",
          "type": "bytes32"
        },
        {
          "internalType": "bytes32",
          "name": "salt",
          "type": "bytes32"
        }
      ],
      "name": "hashOperationBatch",
      "outputs": [
        {
          "internalType": "bytes32",
          "name": "hash",
          "type": "bytes32"
        }
      ],
      "stateMutability": "pure",
      "type": "function"
    },
    {
      "inputs": [
        {
          "internalType": "bytes32",
          "name": "id",
          "type": "bytes32"
        }
      ],
      "name": "isOperation",
      "outputs": [
        {
          "internalType": "bool",
          "name": "registered",
          "type": "bool"
        }
      ],
      "stateMutability": "view",
      "type": "function"
    },
    {
      "inputs": [
        {
          "internalType": "bytes32",
          "name": "id",
          "type": "bytes32"
        }
      ],
      "name": "isOperationDone",
      "outputs": [
        {
          "internalType": "bool",
          "name": "done",
          "type": "bool"
        }
      ],
      "stateMutability": "view",
      "type": "function"
    },
    {
      "inputs": [
        {
          "internalType": "bytes32",
          "name": "id",
          "type": "bytes32"
        }
      ],
      "name": "isOperationPending",
      "outputs": [
        {
          "internalType": "bool",
          "name": "pending",
          "type": "bool"
        }
      ],
      "stateMutability": "view",
      "type": "function"
    },
    {
      "inputs": [
        {
          "internalType": "bytes32",
          "name": "id",
          "type": "bytes32"
        }
      ],
      "name": "isOperationReady",
      "outputs": [
        {
          "internalType": "bool",
          "name": "ready",
          "type": "bool"
        }
      ],
      "stateMutability": "view",
      "type": "function"
    },
    {
      "inputs": [
        {
          "internalType": "address",
          "name": "",
          "type": "address"
        },
        {
          "internalType": "address",
          "name": "",
          "type": "address"
        },
        {
          "internalType": "uint256[]",
          "name": "",
          "type": "uint256[]"
        },
        {
          "internalType": "uint256[]",
          "name": "",
          "type": "uint256[]"
        },
        {
          "internalType": "bytes",
          "name": "",
          "type": "bytes"
        }
      ],
      "name": "onERC1155BatchReceived",
      "outputs": [
        {
          "internalType": "bytes4",
          "name": "",
          "type": "bytes4"
        }
      ],
      "stateMutability": "nonpayable",
      "type": "function"
    },
    {
      "inputs": [
        {
          "internalType": "address",
          "name": "",
          "type": "address"
        },
        {
          "internalType": "address",
          "name": "",
          "type": "address"
        },
        {
          "internalType": "uint256",
          "name": "",
          "type": "uint256"
        },
        {
          "internalType": "uint256",
          "name": "",
          "type": "uint256"
        },
        {
          "internalType": "bytes",
          "name": "",
          "type": "bytes"
        }
      ],
      "name": "onERC1155Received",
      "outputs": [
        {
          "internalType": "bytes4",
          "name": "",
          "type": "bytes4"
        }
      ],
      "stateMutability": "nonpayable",
      "type": "function"
    },
    {
      "inputs": [
        {
          "internalType": "address",
          "name": "",
          "type": "address"
        },
        {
          "internalType": "address",
          "name": "",
          "type": "address"
        },
        {
          "internalType": "uint256",
          "name": "",
          "type": "uint256"
        },
        {
          "internalType": "bytes",
          "name": "",
          "type": "bytes"
        }
      ],
      "name": "onERC721Received",
      "outputs": [
        {
          "internalType": "bytes4",
          "name": "",
          "type": "bytes4"
        }
      ],
      "stateMutability": "nonpayable",
      "type": "function"
    },
    {
      "inputs": [],
      "name": "polygonZkEVM",
      "outputs": [
        {
          "internalType": "contract PolygonZkEVM",
          "name": "",
          "type": "address"
        }
      ],
      "stateMutability": "view",
      "type": "function"
    },
    {
      "inputs": [
        {
          "internalType": "bytes32",
          "name": "role",
          "type": "bytes32"
        },
        {
          "internalType": "address",
          "name": "account",
          "type": "address"
        }
      ],
      "name": "renounceRole",
      "outputs": [],
      "stateMutability": "nonpayable",
      "type": "function"
    },
    {
      "inputs": [
        {
          "internalType": "bytes32",
          "name": "role",
          "type": "bytes32"
        },
        {
          "internalType": "address",
          "name": "account",
          "type": "address"
        }
      ],
      "name": "revokeRole",
      "outputs": [],
      "stateMutability": "nonpayable",
      "type": "function"
    },
    {
      "inputs": [
        {
          "internalType": "address",
          "name": "target",
          "type": "address"
        },
        {
          "internalType": "uint256",
          "name": "value",
          "type": "uint256"
        },
        {
          "internalType": "bytes",
          "name": "data",
          "type": "bytes"
        },
        {
          "internalType": "bytes32",
          "name": "predecessor",
          "type": "bytes32"
        },
        {
          "internalType": "bytes32",
          "name": "salt",
          "type": "bytes32"
        },
        {
          "internalType": "uint256",
          "name": "delay",
          "type": "uint256"
        }
      ],
      "name": "schedule",
      "outputs": [],
      "stateMutability": "nonpayable",
      "type": "function"
    },
    {
      "inputs": [
        {
          "internalType": "address[]",
          "name": "targets",
          "type": "address[]"
        },
        {
          "internalType": "uint256[]",
          "name": "values",
          "type": "uint256[]"
        },
        {
          "internalType": "bytes[]",
          "name": "payloads",
          "type": "bytes[]"
        },
        {
          "internalType": "bytes32",
          "name": "predecessor",
          "type": "bytes32"
        },
        {
          "internalType": "bytes32",
          "name": "salt",
          "type": "bytes32"
        },
        {
          "internalType": "uint256",
          "name": "delay",
          "type": "uint256"
        }
      ],
      "name": "scheduleBatch",
      "outputs": [],
      "stateMutability": "nonpayable",
      "type": "function"
    },
    {
      "inputs": [
        {
          "internalType": "bytes4",
          "name": "interfaceId",
          "type": "bytes4"
        }
      ],
      "name": "supportsInterface",
      "outputs": [
        {
          "internalType": "bool",
          "name": "",
          "type": "bool"
        }
      ],
      "stateMutability": "view",
      "type": "function"
    },
    {
      "inputs": [
        {
          "internalType": "uint256",
          "name": "newDelay",
          "type": "uint256"
        }
      ],
      "name": "updateDelay",
      "outputs": [],
      "stateMutability": "nonpayable",
      "type": "function"
    },
    {
      "stateMutability": "payable",
      "type": "receive"
    }
  ],
  "bytecode": "0x60806040523480156200001157600080fd5b50604051620023ed380380620023ed833981016040819052620000349162000440565b84848484620000536000805160206200236d8339815191528062000257565b6200007d6000805160206200238d8339815191526000805160206200236d83398151915262000257565b620000a7600080516020620023ad8339815191526000805160206200236d83398151915262000257565b620000d1600080516020620023cd8339815191526000805160206200236d83398151915262000257565b620000ec6000805160206200236d83398151915230620002a2565b6001600160a01b038116156200011757620001176000805160206200236d83398151915282620002a2565b60005b83518110156200019d57620001616000805160206200238d8339815191528583815181106200014d576200014d620004e1565b6020026020010151620002a260201b60201c565b6200018a600080516020620023cd8339815191528583815181106200014d576200014d620004e1565b6200019581620004f7565b90506200011a565b5060005b8251811015620001e757620001d4600080516020620023ad8339815191528483815181106200014d576200014d620004e1565b620001df81620004f7565b9050620001a1565b5060028490556040805160008152602081018690527f11c24f4ead16507c69ac467fbd5e4eed5fb5c699626d2cc6d66421df253886d5910160405180910390a15050600380546001600160a01b0319166001600160a01b039490941693909317909255506200051f945050505050565b600082815260208190526040808220600101805490849055905190918391839186917fbd79b86ffe0ab8e8776151514217cd7cacd52c909f66475c3af44e129f0b00ff9190a4505050565b620002ae8282620002b2565b5050565b6000828152602081815260408083206001600160a01b038516845290915290205460ff16620002ae576000828152602081815260408083206001600160a01b03851684529091529020805460ff191660011790556200030e3390565b6001600160a01b0316816001600160a01b0316837f2f8788117e7eff1d82e926ec794901d17c78024a50270940304540a733656f0d60405160405180910390a45050565b634e487b7160e01b600052604160045260246000fd5b6001600160a01b03811681146200037e57600080fd5b50565b80516200038e8162000368565b919050565b600082601f830112620003a557600080fd5b815160206001600160401b0380831115620003c457620003c462000352565b8260051b604051601f19603f83011681018181108482111715620003ec57620003ec62000352565b6040529384528581018301938381019250878511156200040b57600080fd5b83870191505b848210156200043557620004258262000381565b8352918301919083019062000411565b979650505050505050565b600080600080600060a086880312156200045957600080fd5b855160208701519095506001600160401b03808211156200047957600080fd5b6200048789838a0162000393565b955060408801519150808211156200049e57600080fd5b50620004ad8882890162000393565b9350506060860151620004c08162000368565b6080870151909250620004d38162000368565b809150509295509295909350565b634e487b7160e01b600052603260045260246000fd5b6000600182016200051857634e487b7160e01b600052601160045260246000fd5b5060010190565b611e3e806200052f6000396000f3fe6080604052600436106101865760003560e01c806364d62353116100d7578063b1c5f42711610085578063b1c5f427146104c8578063bc197c81146104e8578063c4d252f514610514578063d45c443514610534578063d547741f14610561578063e38335e514610581578063f23a6e6114610594578063f27a0c92146105c057600080fd5b806364d62353146103dd5780638065657f146103fd5780638f2a0bb01461041d5780638f61f4f51461043d57806391d148541461045f578063a217fddf1461047f578063b08e51c01461049457600080fd5b8063248a9ca311610134578063248a9ca3146102c45780632ab0f529146102f45780632f2ff15d1461032557806331d507501461034557806336568abe146103655780633a6aae7214610385578063584b153e146103bd57600080fd5b806301d5062a1461019257806301ffc9a7146101b457806307bd0265146101e95780630d3cf6fc14610219578063134008d31461024d57806313bc9f2014610260578063150b7a021461028057600080fd5b3661018d57005b600080fd5b34801561019e57600080fd5b506101b26101ad3660046113dc565b6105d5565b005b3480156101c057600080fd5b506101d46101cf366004611450565b610658565b60405190151581526020015b60405180910390f35b3480156101f557600080fd5b5061020b600080516020611de983398151915281565b6040519081526020016101e0565b34801561022557600080fd5b5061020b7f5f58e3a2316349923ce3780f8d587db2d72378aed66a8261c916544fa6846ca581565b6101b261025b36600461147a565b610683565b34801561026c57600080fd5b506101d461027b3660046114e5565b610726565b34801561028c57600080fd5b506102ab61029b3660046115b3565b630a85bd0160e11b949350505050565b6040516001600160e01b031990911681526020016101e0565b3480156102d057600080fd5b5061020b6102df3660046114e5565b60009081526020819052604090206001015490565b34801561030057600080fd5b506101d461030f3660046114e5565b6000908152600160208190526040909120541490565b34801561033157600080fd5b506101b261034036600461161a565b61074c565b34801561035157600080fd5b506101d46103603660046114e5565b610776565b34801561037157600080fd5b506101b261038036600461161a565b61078f565b34801561039157600080fd5b506003546103a5906001600160a01b031681565b6040516001600160a01b0390911681526020016101e0565b3480156103c957600080fd5b506101d46103d83660046114e5565b610812565b3480156103e957600080fd5b506101b26103f83660046114e5565b610828565b34801561040957600080fd5b5061020b61041836600461147a565b6108cc565b34801561042957600080fd5b506101b261043836600461168a565b61090b565b34801561044957600080fd5b5061020b600080516020611dc983398151915281565b34801561046b57600080fd5b506101d461047a36600461161a565b610a4b565b34801561048b57600080fd5b5061020b600081565b3480156104a057600080fd5b5061020b7ffd643c72710c63c0180259aba6b2d05451e3591a24e58b62239378085726f78381565b3480156104d457600080fd5b5061020b6104e336600461173b565b610a74565b3480156104f457600080fd5b506102ab610503366004611862565b63bc197c8160e01b95945050505050565b34801561052057600080fd5b506101b261052f3660046114e5565b610ab9565b34801561054057600080fd5b5061020b61054f3660046114e5565b60009081526001602052604090205490565b34801561056d57600080fd5b506101b261057c36600461161a565b610b8e565b6101b261058f36600461173b565b610bb3565b3480156105a057600080fd5b506102ab6105af36600461190b565b63f23a6e6160e01b95945050505050565b3480156105cc57600080fd5b5061020b610d2b565b600080516020611dc98339815191526105ed81610dab565b60006105fd8989898989896108cc565b90506106098184610db8565b6000817f4cf4410cc57040e44862ef0f45f3dd5a5e02db8eb8add648d4b0e236f1d07dca8b8b8b8b8b8a60405161064596959493929190611998565b60405180910390a3505050505050505050565b60006001600160e01b03198216630271189760e51b148061067d575061067d82610eac565b92915050565b600080516020611de983398151915261069d816000610a4b565b6106ab576106ab8133610ee1565b60006106bb8888888888886108cc565b90506106c78185610f3a565b6106d388888888610fd6565b6000817fc2617efa69bab66782fa219543714338489c4e9e178271560a91b82c3f612b588a8a8a8a60405161070b94939291906119d5565b60405180910390a361071c816110a9565b5050505050505050565b6000818152600160205260408120546001811180156107455750428111155b9392505050565b60008281526020819052604090206001015461076781610dab565b61077183836110e2565b505050565b60008181526001602052604081205481905b1192915050565b6001600160a01b03811633146108045760405162461bcd60e51b815260206004820152602f60248201527f416363657373436f6e74726f6c3a2063616e206f6e6c792072656e6f756e636560448201526e103937b632b9903337b91039b2b63360891b60648201526084015b60405180910390fd5b61080e8282611166565b5050565b6000818152600160208190526040822054610788565b33301461088b5760405162461bcd60e51b815260206004820152602b60248201527f54696d656c6f636b436f6e74726f6c6c65723a2063616c6c6572206d7573742060448201526a62652074696d656c6f636b60a81b60648201526084016107fb565b60025460408051918252602082018390527f11c24f4ead16507c69ac467fbd5e4eed5fb5c699626d2cc6d66421df253886d5910160405180910390a1600255565b60008686868686866040516020016108e996959493929190611998565b6040516020818303038152906040528051906020012090509695505050505050565b600080516020611dc983398151915261092381610dab565b8887146109425760405162461bcd60e51b81526004016107fb90611a07565b8885146109615760405162461bcd60e51b81526004016107fb90611a07565b60006109738b8b8b8b8b8b8b8b610a74565b905061097f8184610db8565b60005b8a811015610a3d5780827f4cf4410cc57040e44862ef0f45f3dd5a5e02db8eb8add648d4b0e236f1d07dca8e8e858181106109bf576109bf611a4a565b90506020020160208101906109d49190611a60565b8d8d868181106109e6576109e6611a4a565b905060200201358c8c878181106109ff576109ff611a4a565b9050602002810190610a119190611a7b565b8c8b604051610a2596959493929190611998565b60405180910390a3610a3681611ad7565b9050610982565b505050505050505050505050565b6000918252602082815260408084206001600160a01b0393909316845291905290205460ff1690565b60008888888888888888604051602001610a95989796959493929190611b81565b60405160208183030381529060405280519060200120905098975050505050505050565b7ffd643c72710c63c0180259aba6b2d05451e3591a24e58b62239378085726f783610ae381610dab565b610aec82610812565b610b525760405162461bcd60e51b815260206004820152603160248201527f54696d656c6f636b436f6e74726f6c6c65723a206f7065726174696f6e2063616044820152701b9b9bdd0818994818d85b98d95b1b1959607a1b60648201526084016107fb565b6000828152600160205260408082208290555183917fbaa1eb22f2a492ba1a5fea61b8df4d27c6c8b5f3971e63bb58fa14ff72eedb7091a25050565b600082815260208190526040902060010154610ba981610dab565b6107718383611166565b600080516020611de9833981519152610bcd816000610a4b565b610bdb57610bdb8133610ee1565b878614610bfa5760405162461bcd60e51b81526004016107fb90611a07565b878414610c195760405162461bcd60e51b81526004016107fb90611a07565b6000610c2b8a8a8a8a8a8a8a8a610a74565b9050610c378185610f3a565b60005b89811015610d155760008b8b83818110610c5657610c56611a4a565b9050602002016020810190610c6b9190611a60565b905060008a8a84818110610c8157610c81611a4a565b9050602002013590503660008a8a86818110610c9f57610c9f611a4a565b9050602002810190610cb19190611a7b565b91509150610cc184848484610fd6565b84867fc2617efa69bab66782fa219543714338489c4e9e178271560a91b82c3f612b5886868686604051610cf894939291906119d5565b60405180910390a35050505080610d0e90611ad7565b9050610c3a565b50610d1f816110a9565b50505050505050505050565b60035460408051630a83264b60e11b815290516000926001600160a01b0316916315064c969160048083019260209291908290030181865afa158015610d75573d6000803e3d6000fd5b505050506040513d601f19601f82011682018060405250810190610d999190611c2c565b15610da45750600090565b5060025490565b610db58133610ee1565b50565b610dc182610776565b15610e265760405162461bcd60e51b815260206004820152602f60248201527f54696d656c6f636b436f6e74726f6c6c65723a206f7065726174696f6e20616c60448201526e1c9958591e481cd8da19591d5b1959608a1b60648201526084016107fb565b610e2e610d2b565b811015610e8c5760405162461bcd60e51b815260206004820152602660248201527f54696d656c6f636b436f6e74726f6c6c65723a20696e73756666696369656e746044820152652064656c617960d01b60648201526084016107fb565b610e968142611c4e565b6000928352600160205260409092209190915550565b60006001600160e01b03198216637965db0b60e01b148061067d57506301ffc9a760e01b6001600160e01b031983161461067d565b610eeb8282610a4b565b61080e57610ef8816111cb565b610f038360206111dd565b604051602001610f14929190611c96565b60408051601f198184030181529082905262461bcd60e51b82526107fb91600401611d05565b610f4382610726565b610f5f5760405162461bcd60e51b81526004016107fb90611d38565b801580610f7b5750600081815260016020819052604090912054145b61080e5760405162461bcd60e51b815260206004820152602660248201527f54696d656c6f636b436f6e74726f6c6c65723a206d697373696e6720646570656044820152656e64656e637960d01b60648201526084016107fb565b6000846001600160a01b0316848484604051610ff3929190611d82565b60006040518083038185875af1925050503d8060008114611030576040519150601f19603f3d011682016040523d82523d6000602084013e611035565b606091505b50509050806110a25760405162461bcd60e51b815260206004820152603360248201527f54696d656c6f636b436f6e74726f6c6c65723a20756e6465726c79696e6720746044820152721c985b9cd858dd1a5bdb881c995d995c9d1959606a1b60648201526084016107fb565b5050505050565b6110b281610726565b6110ce5760405162461bcd60e51b81526004016107fb90611d38565b600090815260016020819052604090912055565b6110ec8282610a4b565b61080e576000828152602081815260408083206001600160a01b03851684529091529020805460ff191660011790556111223390565b6001600160a01b0316816001600160a01b0316837f2f8788117e7eff1d82e926ec794901d17c78024a50270940304540a733656f0d60405160405180910390a45050565b6111708282610a4b565b1561080e576000828152602081815260408083206001600160a01b0385168085529252808320805460ff1916905551339285917ff6391f5c32d9c69d2a47ea670b442974b53935d1edc7fd64eb21e047a839171b9190a45050565b606061067d6001600160a01b03831660145b606060006111ec836002611d92565b6111f7906002611c4e565b6001600160401b0381111561120e5761120e6114fe565b6040519080825280601f01601f191660200182016040528015611238576020820181803683370190505b509050600360fc1b8160008151811061125357611253611a4a565b60200101906001600160f81b031916908160001a905350600f60fb1b8160018151811061128257611282611a4a565b60200101906001600160f81b031916908160001a90535060006112a6846002611d92565b6112b1906001611c4e565b90505b6001811115611329576f181899199a1a9b1b9c1cb0b131b232b360811b85600f16601081106112e5576112e5611a4a565b1a60f81b8282815181106112fb576112fb611a4a565b60200101906001600160f81b031916908160001a90535060049490941c9361132281611db1565b90506112b4565b5083156107455760405162461bcd60e51b815260206004820181905260248201527f537472696e67733a20686578206c656e67746820696e73756666696369656e7460448201526064016107fb565b80356001600160a01b038116811461138f57600080fd5b919050565b60008083601f8401126113a657600080fd5b5081356001600160401b038111156113bd57600080fd5b6020830191508360208285010111156113d557600080fd5b9250929050565b600080600080600080600060c0888a0312156113f757600080fd5b61140088611378565b96506020880135955060408801356001600160401b0381111561142257600080fd5b61142e8a828b01611394565b989b979a50986060810135976080820135975060a09091013595509350505050565b60006020828403121561146257600080fd5b81356001600160e01b03198116811461074557600080fd5b60008060008060008060a0878903121561149357600080fd5b61149c87611378565b95506020870135945060408701356001600160401b038111156114be57600080fd5b6114ca89828a01611394565b979a9699509760608101359660809091013595509350505050565b6000602082840312156114f757600080fd5b5035919050565b634e487b7160e01b600052604160045260246000fd5b604051601f8201601f191681016001600160401b038111828210171561153c5761153c6114fe565b604052919050565b600082601f83011261155557600080fd5b81356001600160401b0381111561156e5761156e6114fe565b611581601f8201601f1916602001611514565b81815284602083860101111561159657600080fd5b816020850160208301376000918101602001919091529392505050565b600080600080608085870312156115c957600080fd5b6115d285611378565b93506115e060208601611378565b92506040850135915060608501356001600160401b0381111561160257600080fd5b61160e87828801611544565b91505092959194509250565b6000806040838503121561162d57600080fd5b8235915061163d60208401611378565b90509250929050565b60008083601f84011261165857600080fd5b5081356001600160401b0381111561166f57600080fd5b6020830191508360208260051b85010111156113d557600080fd5b600080600080600080600080600060c08a8c0312156116a857600080fd5b89356001600160401b03808211156116bf57600080fd5b6116cb8d838e01611646565b909b50995060208c01359150808211156116e457600080fd5b6116f08d838e01611646565b909950975060408c013591508082111561170957600080fd5b506117168c828d01611646565b9a9d999c50979a969997986060880135976080810135975060a0013595509350505050565b60008060008060008060008060a0898b03121561175757600080fd5b88356001600160401b038082111561176e57600080fd5b61177a8c838d01611646565b909a50985060208b013591508082111561179357600080fd5b61179f8c838d01611646565b909850965060408b01359150808211156117b857600080fd5b506117c58b828c01611646565b999c989b509699959896976060870135966080013595509350505050565b600082601f8301126117f457600080fd5b813560206001600160401b0382111561180f5761180f6114fe565b8160051b61181e828201611514565b928352848101820192828101908785111561183857600080fd5b83870192505b848310156118575782358252918301919083019061183e565b979650505050505050565b600080600080600060a0868803121561187a57600080fd5b61188386611378565b945061189160208701611378565b935060408601356001600160401b03808211156118ad57600080fd5b6118b989838a016117e3565b945060608801359150808211156118cf57600080fd5b6118db89838a016117e3565b935060808801359150808211156118f157600080fd5b506118fe88828901611544565b9150509295509295909350565b600080600080600060a0868803121561192357600080fd5b61192c86611378565b945061193a60208701611378565b9350604086013592506060860135915060808601356001600160401b0381111561196357600080fd5b6118fe88828901611544565b81835281816020850137506000828201602090810191909152601f909101601f19169091010190565b60018060a01b038716815285602082015260a0604082015260006119c060a08301868861196f565b60608301949094525060800152949350505050565b60018060a01b03851681528360208201526060604082015260006119fd60608301848661196f565b9695505050505050565b60208082526023908201527f54696d656c6f636b436f6e74726f6c6c65723a206c656e677468206d69736d616040820152620e8c6d60eb1b606082015260800190565b634e487b7160e01b600052603260045260246000fd5b600060208284031215611a7257600080fd5b61074582611378565b6000808335601e19843603018112611a9257600080fd5b8301803591506001600160401b03821115611aac57600080fd5b6020019150368190038213156113d557600080fd5b634e487b7160e01b600052601160045260246000fd5b600060018201611ae957611ae9611ac1565b5060010190565b81835260006020808501808196508560051b810191508460005b87811015611b745782840389528135601e19883603018112611b2b57600080fd5b870185810190356001600160401b03811115611b4657600080fd5b803603821315611b5557600080fd5b611b6086828461196f565b9a87019a9550505090840190600101611b0a565b5091979650505050505050565b60a0808252810188905260008960c08301825b8b811015611bc2576001600160a01b03611bad84611378565b16825260209283019290910190600101611b94565b5083810360208501528881526001600160fb1b03891115611be257600080fd5b8860051b9150818a602083013781810191505060208101600081526020848303016040850152611c1381888a611af0565b6060850196909652505050608001529695505050505050565b600060208284031215611c3e57600080fd5b8151801515811461074557600080fd5b60008219821115611c6157611c61611ac1565b500190565b60005b83811015611c81578181015183820152602001611c69565b83811115611c90576000848401525b50505050565b76020b1b1b2b9b9a1b7b73a3937b61d1030b1b1b7bab73a1604d1b815260008351611cc8816017850160208801611c66565b7001034b99036b4b9b9b4b733903937b6329607d1b6017918401918201528351611cf9816028840160208801611c66565b01602801949350505050565b6020815260008251806020840152611d24816040850160208701611c66565b601f01601f19169190910160400192915050565b6020808252602a908201527f54696d656c6f636b436f6e74726f6c6c65723a206f7065726174696f6e206973604082015269206e6f7420726561647960b01b606082015260800190565b8183823760009101908152919050565b6000816000190483118215151615611dac57611dac611ac1565b500290565b600081611dc057611dc0611ac1565b50600019019056feb09aa5aeb3702cfd50b6b62bc4532604938f21248a27a1d5ca736082b6819cc1d8aa0f3194971a2a116679f7c2090f6939c8d4e01a2a8d7e41d55e5351469e63a2646970667358221220c3c7e9acae6f98eeed5693827abeb8498a7170202b038dc9112e3b856e59b54664736f6c634300080f00335f58e3a2316349923ce3780f8d587db2d72378aed66a8261c916544fa6846ca5b09aa5aeb3702cfd50b6b62bc4532604938f21248a27a1d5ca736082b6819cc1d8aa0f3194971a2a116679f7c2090f6939c8d4e01a2a8d7e41d55e5351469e63fd643c72710c63c0180259aba6b2d05451e3591a24e58b62239378085726f783",
  "linkReferences": {},
  "deployedLinkReferences": {}
}