{
  "_format": "hh-sol-artifact-1",
  "contractName": "PolygonZkEVMMock",
  "sourceName": "contracts/mocks/PolygonZkEVMMock.sol",
  "abi": [
    {
      "anonymous": false,
      "inputs": [
        {
          "indexed": true,
          "internalType": "uint64",
          "name": "numBatch",
          "type": "uint64"
        },
        {
          "indexed": false,
          "internalType": "bytes32",
          "name": "stateRoot",
          "type": "bytes32"
        },
        {
          "indexed": true,
          "internalType": "uint64",
          "name": "pendingStateNum",
          "type": "uint64"
        }
      ],
      "name": "ConsolidatePendingState",
      "type": "event"
    },
    {
      "anonymous": false,
      "inputs": [],
      "name": "EmergencyStateActivated",
      "type": "event"
    },
    {
      "anonymous": false,
      "inputs": [],
      "name": "EmergencyStateDeactivated",
      "type": "event"
    },
    {
      "anonymous": false,
      "inputs": [
        {
          "indexed": true,
          "internalType": "uint64",
          "name": "forceBatchNum",
          "type": "uint64"
        },
        {
          "indexed": false,
          "internalType": "bytes32",
          "name": "lastGlobalExitRoot",
          "type": "bytes32"
        },
        {
          "indexed": false,
          "internalType": "address",
          "name": "sequencer",
          "type": "address"
        },
        {
          "indexed": false,
          "internalType": "bytes",
          "name": "transactions",
          "type": "bytes"
        }
      ],
      "name": "ForceBatch",
      "type": "event"
    },
    {
      "anonymous": false,
      "inputs": [
        {
          "indexed": false,
          "internalType": "uint8",
          "name": "version",
          "type": "uint8"
        }
      ],
      "name": "Initialized",
      "type": "event"
    },
    {
      "anonymous": false,
      "inputs": [
        {
          "indexed": true,
          "internalType": "uint64",
          "name": "numBatch",
          "type": "uint64"
        },
        {
          "indexed": false,
          "internalType": "bytes32",
          "name": "stateRoot",
          "type": "bytes32"
        },
        {
          "indexed": true,
          "internalType": "address",
          "name": "aggregator",
          "type": "address"
        }
      ],
      "name": "OverridePendingState",
      "type": "event"
    },
    {
      "anonymous": false,
      "inputs": [
        {
          "indexed": true,
          "internalType": "address",
          "name": "previousOwner",
          "type": "address"
        },
        {
          "indexed": true,
          "internalType": "address",
          "name": "newOwner",
          "type": "address"
        }
      ],
      "name": "OwnershipTransferred",
      "type": "event"
    },
    {
      "anonymous": false,
      "inputs": [
        {
          "indexed": false,
          "internalType": "bytes32",
          "name": "storedStateRoot",
          "type": "bytes32"
        },
        {
          "indexed": false,
          "internalType": "bytes32",
          "name": "provedStateRoot",
          "type": "bytes32"
        }
      ],
      "name": "ProveNonDeterministicPendingState",
      "type": "event"
    },
    {
      "anonymous": false,
      "inputs": [
        {
          "indexed": true,
          "internalType": "uint64",
          "name": "numBatch",
          "type": "uint64"
        }
      ],
      "name": "SequenceBatches",
      "type": "event"
    },
    {
      "anonymous": false,
      "inputs": [
        {
          "indexed": true,
          "internalType": "uint64",
          "name": "numBatch",
          "type": "uint64"
        }
      ],
      "name": "SequenceForceBatches",
      "type": "event"
    },
    {
      "anonymous": false,
      "inputs": [
        {
          "indexed": false,
          "internalType": "address",
          "name": "newAdmin",
          "type": "address"
        }
      ],
      "name": "SetAdmin",
      "type": "event"
    },
    {
      "anonymous": false,
      "inputs": [
        {
          "indexed": false,
          "internalType": "bool",
          "name": "newForceBatchAllowed",
          "type": "bool"
        }
      ],
      "name": "SetForceBatchAllowed",
      "type": "event"
    },
    {
      "anonymous": false,
      "inputs": [
        {
          "indexed": false,
          "internalType": "uint16",
          "name": "newMultiplierBatchFee",
          "type": "uint16"
        }
      ],
      "name": "SetMultiplierBatchFee",
      "type": "event"
    },
    {
      "anonymous": false,
      "inputs": [
        {
          "indexed": false,
          "internalType": "uint64",
          "name": "newPendingStateTimeout",
          "type": "uint64"
        }
      ],
      "name": "SetPendingStateTimeout",
      "type": "event"
    },
    {
      "anonymous": false,
      "inputs": [
        {
          "indexed": false,
          "internalType": "address",
          "name": "newTrustedAggregator",
          "type": "address"
        }
      ],
      "name": "SetTrustedAggregator",
      "type": "event"
    },
    {
      "anonymous": false,
      "inputs": [
        {
          "indexed": false,
          "internalType": "uint64",
          "name": "newTrustedAggregatorTimeout",
          "type": "uint64"
        }
      ],
      "name": "SetTrustedAggregatorTimeout",
      "type": "event"
    },
    {
      "anonymous": false,
      "inputs": [
        {
          "indexed": false,
          "internalType": "address",
          "name": "newTrustedSequencer",
          "type": "address"
        }
      ],
      "name": "SetTrustedSequencer",
      "type": "event"
    },
    {
      "anonymous": false,
      "inputs": [
        {
          "indexed": false,
          "internalType": "string",
          "name": "newTrustedSequencerURL",
          "type": "string"
        }
      ],
      "name": "SetTrustedSequencerURL",
      "type": "event"
    },
    {
      "anonymous": false,
      "inputs": [
        {
          "indexed": false,
          "internalType": "uint64",
          "name": "newVeryBatchTimeTarget",
          "type": "uint64"
        }
      ],
      "name": "SetVeryBatchTimeTarget",
      "type": "event"
    },
    {
      "anonymous": false,
      "inputs": [
        {
          "indexed": true,
          "internalType": "uint64",
          "name": "numBatch",
          "type": "uint64"
        },
        {
          "indexed": false,
          "internalType": "bytes32",
          "name": "stateRoot",
          "type": "bytes32"
        },
        {
          "indexed": true,
          "internalType": "address",
          "name": "aggregator",
          "type": "address"
        }
      ],
      "name": "TrustedVerifyBatches",
      "type": "event"
    },
    {
      "anonymous": false,
      "inputs": [
        {
          "indexed": true,
          "internalType": "uint64",
          "name": "numBatch",
          "type": "uint64"
        },
        {
          "indexed": false,
          "internalType": "bytes32",
          "name": "stateRoot",
          "type": "bytes32"
        },
        {
          "indexed": true,
          "internalType": "address",
          "name": "aggregator",
          "type": "address"
        }
      ],
      "name": "VerifyBatches",
      "type": "event"
    },
    {
      "inputs": [],
      "name": "FORCE_BATCH_TIMEOUT",
      "outputs": [
        {
          "internalType": "uint64",
          "name": "",
          "type": "uint64"
        }
      ],
      "stateMutability": "view",
      "type": "function"
    },
    {
      "inputs": [],
      "name": "HALT_AGGREGATION_TIMEOUT",
      "outputs": [
        {
          "internalType": "uint64",
          "name": "",
          "type": "uint64"
        }
      ],
      "stateMutability": "view",
      "type": "function"
    },
    {
      "inputs": [],
      "name": "MAX_BATCH_MULTIPLIER",
      "outputs": [
        {
          "internalType": "uint256",
          "name": "",
          "type": "uint256"
        }
      ],
      "stateMutability": "view",
      "type": "function"
    },
    {
      "inputs": [],
      "name": "MAX_TRANSACTIONS_BYTE_LENGTH",
      "outputs": [
        {
          "internalType": "uint256",
          "name": "",
          "type": "uint256"
        }
      ],
      "stateMutability": "view",
      "type": "function"
    },
    {
      "inputs": [],
      "name": "MAX_VERIFY_BATCHES",
      "outputs": [
        {
          "internalType": "uint64",
          "name": "",
          "type": "uint64"
        }
      ],
      "stateMutability": "view",
      "type": "function"
    },
    {
      "inputs": [
        {
          "internalType": "uint64",
          "name": "sequencedBatchNum",
          "type": "uint64"
        }
      ],
      "name": "activateEmergencyState",
      "outputs": [],
      "stateMutability": "nonpayable",
      "type": "function"
    },
    {
      "inputs": [],
      "name": "admin",
      "outputs": [
        {
          "internalType": "address",
          "name": "",
          "type": "address"
        }
      ],
      "stateMutability": "view",
      "type": "function"
    },
    {
      "inputs": [],
      "name": "batchFee",
      "outputs": [
        {
          "internalType": "uint256",
          "name": "",
          "type": "uint256"
        }
      ],
      "stateMutability": "view",
      "type": "function"
    },
    {
      "inputs": [
        {
          "internalType": "uint64",
          "name": "",
          "type": "uint64"
        }
      ],
      "name": "batchNumToStateRoot",
      "outputs": [
        {
          "internalType": "bytes32",
          "name": "",
          "type": "bytes32"
        }
      ],
      "stateMutability": "view",
      "type": "function"
    },
    {
      "inputs": [],
      "name": "bridgeAddress",
      "outputs": [
        {
          "internalType": "contract IPolygonZkEVMBridge",
          "name": "",
          "type": "address"
        }
      ],
      "stateMutability": "view",
      "type": "function"
    },
    {
      "inputs": [
        {
          "internalType": "bytes32",
          "name": "currentAccInputHash",
          "type": "bytes32"
        },
        {
          "internalType": "bytes",
          "name": "transactions",
          "type": "bytes"
        },
        {
          "internalType": "bytes32",
          "name": "globalExitRoot",
          "type": "bytes32"
        },
        {
          "internalType": "uint64",
          "name": "timestamp",
          "type": "uint64"
        },
        {
          "internalType": "address",
          "name": "sequencerAddress",
          "type": "address"
        }
      ],
      "name": "calculateAccInputHash",
      "outputs": [
        {
          "internalType": "bytes32",
          "name": "",
          "type": "bytes32"
        }
      ],
      "stateMutability": "pure",
      "type": "function"
    },
    {
      "inputs": [],
      "name": "calculateRewardPerBatch",
      "outputs": [
        {
          "internalType": "uint256",
          "name": "",
          "type": "uint256"
        }
      ],
      "stateMutability": "view",
      "type": "function"
    },
    {
      "inputs": [],
      "name": "chainID",
      "outputs": [
        {
          "internalType": "uint64",
          "name": "",
          "type": "uint64"
        }
      ],
      "stateMutability": "view",
      "type": "function"
    },
    {
      "inputs": [
        {
          "internalType": "uint64",
          "name": "pendingStateNum",
          "type": "uint64"
        }
      ],
      "name": "consolidatePendingState",
      "outputs": [],
      "stateMutability": "nonpayable",
      "type": "function"
    },
    {
      "inputs": [],
      "name": "deactivateEmergencyState",
      "outputs": [],
      "stateMutability": "nonpayable",
      "type": "function"
    },
    {
      "inputs": [
        {
          "internalType": "bytes",
          "name": "transactions",
          "type": "bytes"
        },
        {
          "internalType": "uint256",
          "name": "maticAmount",
          "type": "uint256"
        }
      ],
      "name": "forceBatch",
      "outputs": [],
      "stateMutability": "nonpayable",
      "type": "function"
    },
    {
      "inputs": [],
      "name": "forceBatchAllowed",
      "outputs": [
        {
          "internalType": "bool",
          "name": "",
          "type": "bool"
        }
      ],
      "stateMutability": "view",
      "type": "function"
    },
    {
      "inputs": [
        {
          "internalType": "uint64",
          "name": "",
          "type": "uint64"
        }
      ],
      "name": "forcedBatches",
      "outputs": [
        {
          "internalType": "bytes32",
          "name": "",
          "type": "bytes32"
        }
      ],
      "stateMutability": "view",
      "type": "function"
    },
    {
      "inputs": [],
      "name": "getCurrentBatchFee",
      "outputs": [
        {
          "internalType": "uint256",
          "name": "",
          "type": "uint256"
        }
      ],
      "stateMutability": "view",
      "type": "function"
    },
    {
      "inputs": [
        {
          "internalType": "uint64",
          "name": "initNumBatch",
          "type": "uint64"
        },
        {
          "internalType": "uint64",
          "name": "finalNewBatch",
          "type": "uint64"
        },
        {
          "internalType": "bytes32",
          "name": "newLocalExitRoot",
          "type": "bytes32"
        },
        {
          "internalType": "bytes32",
          "name": "oldStateRoot",
          "type": "bytes32"
        },
        {
          "internalType": "bytes32",
          "name": "newStateRoot",
          "type": "bytes32"
        }
      ],
      "name": "getInputSnarkBytes",
      "outputs": [
        {
          "internalType": "bytes",
          "name": "",
          "type": "bytes"
        }
      ],
      "stateMutability": "view",
      "type": "function"
    },
    {
      "inputs": [],
      "name": "getLastVerifiedBatch",
      "outputs": [
        {
          "internalType": "uint64",
          "name": "",
          "type": "uint64"
        }
      ],
      "stateMutability": "view",
      "type": "function"
    },
    {
      "inputs": [
        {
          "internalType": "uint64",
          "name": "pendingStateNum",
          "type": "uint64"
        },
        {
          "internalType": "uint64",
          "name": "initNumBatch",
          "type": "uint64"
        },
        {
          "internalType": "uint64",
          "name": "finalNewBatch",
          "type": "uint64"
        },
        {
          "internalType": "bytes32",
          "name": "newLocalExitRoot",
          "type": "bytes32"
        },
        {
          "internalType": "bytes32",
          "name": "newStateRoot",
          "type": "bytes32"
        }
      ],
      "name": "getNextSnarkInput",
      "outputs": [
        {
          "internalType": "uint256",
          "name": "",
          "type": "uint256"
        }
      ],
      "stateMutability": "view",
      "type": "function"
    },
    {
      "inputs": [],
      "name": "globalExitRootManager",
      "outputs": [
        {
          "internalType": "contract IPolygonZkEVMGlobalExitRoot",
          "name": "",
          "type": "address"
        }
      ],
      "stateMutability": "view",
      "type": "function"
    },
    {
      "inputs": [
        {
          "internalType": "contract IPolygonZkEVMGlobalExitRoot",
          "name": "_globalExitRootManager",
          "type": "address"
        },
        {
          "internalType": "contract IERC20Upgradeable",
          "name": "_matic",
          "type": "address"
        },
        {
          "internalType": "contract IVerifierRollup",
          "name": "_rollupVerifier",
          "type": "address"
        },
        {
          "internalType": "contract IPolygonZkEVMBridge",
          "name": "_bridgeAddress",
          "type": "address"
        },
        {
          "components": [
            {
              "internalType": "address",
              "name": "admin",
              "type": "address"
            },
            {
              "internalType": "uint64",
              "name": "chainID",
              "type": "uint64"
            },
            {
              "internalType": "address",
              "name": "trustedSequencer",
              "type": "address"
            },
            {
              "internalType": "uint64",
              "name": "pendingStateTimeout",
              "type": "uint64"
            },
            {
              "internalType": "bool",
              "name": "forceBatchAllowed",
              "type": "bool"
            },
            {
              "internalType": "address",
              "name": "trustedAggregator",
              "type": "address"
            },
            {
              "internalType": "uint64",
              "name": "trustedAggregatorTimeout",
              "type": "uint64"
            }
          ],
          "internalType": "struct PolygonZkEVM.InitializePackedParameters",
          "name": "initializePackedParameters",
          "type": "tuple"
        },
        {
          "internalType": "bytes32",
          "name": "genesisRoot",
          "type": "bytes32"
        },
        {
          "internalType": "string",
          "name": "_trustedSequencerURL",
          "type": "string"
        },
        {
          "internalType": "string",
          "name": "_networkName",
          "type": "string"
        }
      ],
      "name": "initialize",
      "outputs": [],
      "stateMutability": "nonpayable",
      "type": "function"
    },
    {
      "inputs": [],
      "name": "isEmergencyState",
      "outputs": [
        {
          "internalType": "bool",
          "name": "",
          "type": "bool"
        }
      ],
      "stateMutability": "view",
      "type": "function"
    },
    {
      "inputs": [
        {
          "internalType": "uint64",
          "name": "pendingStateNum",
          "type": "uint64"
        }
      ],
      "name": "isPendingStateConsolidable",
      "outputs": [
        {
          "internalType": "bool",
          "name": "",
          "type": "bool"
        }
      ],
      "stateMutability": "view",
      "type": "function"
    },
    {
      "inputs": [],
      "name": "lastBatchSequenced",
      "outputs": [
        {
          "internalType": "uint64",
          "name": "",
          "type": "uint64"
        }
      ],
      "stateMutability": "view",
      "type": "function"
    },
    {
      "inputs": [],
      "name": "lastForceBatch",
      "outputs": [
        {
          "internalType": "uint64",
          "name": "",
          "type": "uint64"
        }
      ],
      "stateMutability": "view",
      "type": "function"
    },
    {
      "inputs": [],
      "name": "lastForceBatchSequenced",
      "outputs": [
        {
          "internalType": "uint64",
          "name": "",
          "type": "uint64"
        }
      ],
      "stateMutability": "view",
      "type": "function"
    },
    {
      "inputs": [],
      "name": "lastPendingState",
      "outputs": [
        {
          "internalType": "uint64",
          "name": "",
          "type": "uint64"
        }
      ],
      "stateMutability": "view",
      "type": "function"
    },
    {
      "inputs": [],
      "name": "lastPendingStateConsolidated",
      "outputs": [
        {
          "internalType": "uint64",
          "name": "",
          "type": "uint64"
        }
      ],
      "stateMutability": "view",
      "type": "function"
    },
    {
      "inputs": [],
      "name": "lastTimestamp",
      "outputs": [
        {
          "internalType": "uint64",
          "name": "",
          "type": "uint64"
        }
      ],
      "stateMutability": "view",
      "type": "function"
    },
    {
      "inputs": [],
      "name": "lastVerifiedBatch",
      "outputs": [
        {
          "internalType": "uint64",
          "name": "",
          "type": "uint64"
        }
      ],
      "stateMutability": "view",
      "type": "function"
    },
    {
      "inputs": [],
      "name": "matic",
      "outputs": [
        {
          "internalType": "contract IERC20Upgradeable",
          "name": "",
          "type": "address"
        }
      ],
      "stateMutability": "view",
      "type": "function"
    },
    {
      "inputs": [],
      "name": "multiplierBatchFee",
      "outputs": [
        {
          "internalType": "uint16",
          "name": "",
          "type": "uint16"
        }
      ],
      "stateMutability": "view",
      "type": "function"
    },
    {
      "inputs": [],
      "name": "networkName",
      "outputs": [
        {
          "internalType": "string",
          "name": "",
          "type": "string"
        }
      ],
      "stateMutability": "view",
      "type": "function"
    },
    {
      "inputs": [
        {
          "internalType": "uint64",
          "name": "initPendingStateNum",
          "type": "uint64"
        },
        {
          "internalType": "uint64",
          "name": "finalPendingStateNum",
          "type": "uint64"
        },
        {
          "internalType": "uint64",
          "name": "initNumBatch",
          "type": "uint64"
        },
        {
          "internalType": "uint64",
          "name": "finalNewBatch",
          "type": "uint64"
        },
        {
          "internalType": "bytes32",
          "name": "newLocalExitRoot",
          "type": "bytes32"
        },
        {
          "internalType": "bytes32",
          "name": "newStateRoot",
          "type": "bytes32"
        },
        {
          "internalType": "uint256[2]",
          "name": "proofA",
          "type": "uint256[2]"
        },
        {
          "internalType": "uint256[2][2]",
          "name": "proofB",
          "type": "uint256[2][2]"
        },
        {
          "internalType": "uint256[2]",
          "name": "proofC",
          "type": "uint256[2]"
        }
      ],
      "name": "overridePendingState",
      "outputs": [],
      "stateMutability": "nonpayable",
      "type": "function"
    },
    {
      "inputs": [],
      "name": "owner",
      "outputs": [
        {
          "internalType": "address",
          "name": "",
          "type": "address"
        }
      ],
      "stateMutability": "view",
      "type": "function"
    },
    {
      "inputs": [],
      "name": "pendingStateTimeout",
      "outputs": [
        {
          "internalType": "uint64",
          "name": "",
          "type": "uint64"
        }
      ],
      "stateMutability": "view",
      "type": "function"
    },
    {
      "inputs": [
        {
          "internalType": "uint256",
          "name": "",
          "type": "uint256"
        }
      ],
      "name": "pendingStateTransitions",
      "outputs": [
        {
          "internalType": "uint64",
          "name": "timestamp",
          "type": "uint64"
        },
        {
          "internalType": "uint64",
          "name": "lastVerifiedBatch",
          "type": "uint64"
        },
        {
          "internalType": "bytes32",
          "name": "exitRoot",
          "type": "bytes32"
        },
        {
          "internalType": "bytes32",
          "name": "stateRoot",
          "type": "bytes32"
        }
      ],
      "stateMutability": "view",
      "type": "function"
    },
    {
      "inputs": [
        {
          "internalType": "uint64",
          "name": "initPendingStateNum",
          "type": "uint64"
        },
        {
          "internalType": "uint64",
          "name": "finalPendingStateNum",
          "type": "uint64"
        },
        {
          "internalType": "uint64",
          "name": "initNumBatch",
          "type": "uint64"
        },
        {
          "internalType": "uint64",
          "name": "finalNewBatch",
          "type": "uint64"
        },
        {
          "internalType": "bytes32",
          "name": "newLocalExitRoot",
          "type": "bytes32"
        },
        {
          "internalType": "bytes32",
          "name": "newStateRoot",
          "type": "bytes32"
        },
        {
          "internalType": "uint256[2]",
          "name": "proofA",
          "type": "uint256[2]"
        },
        {
          "internalType": "uint256[2][2]",
          "name": "proofB",
          "type": "uint256[2][2]"
        },
        {
          "internalType": "uint256[2]",
          "name": "proofC",
          "type": "uint256[2]"
        }
      ],
      "name": "proveNonDeterministicPendingState",
      "outputs": [],
      "stateMutability": "nonpayable",
      "type": "function"
    },
    {
      "inputs": [],
      "name": "renounceOwnership",
      "outputs": [],
      "stateMutability": "nonpayable",
      "type": "function"
    },
    {
      "inputs": [],
      "name": "rollupVerifier",
      "outputs": [
        {
          "internalType": "contract IVerifierRollup",
          "name": "",
          "type": "address"
        }
      ],
      "stateMutability": "view",
      "type": "function"
    },
    {
      "inputs": [
        {
          "components": [
            {
              "internalType": "bytes",
              "name": "transactions",
              "type": "bytes"
            },
            {
              "internalType": "bytes32",
              "name": "globalExitRoot",
              "type": "bytes32"
            },
            {
              "internalType": "uint64",
              "name": "timestamp",
              "type": "uint64"
            },
            {
              "internalType": "uint64",
              "name": "minForcedTimestamp",
              "type": "uint64"
            }
          ],
          "internalType": "struct PolygonZkEVM.BatchData[]",
          "name": "batches",
          "type": "tuple[]"
        }
      ],
      "name": "sequenceBatches",
      "outputs": [],
      "stateMutability": "nonpayable",
      "type": "function"
    },
    {
      "inputs": [
        {
          "components": [
            {
              "internalType": "bytes",
              "name": "transactions",
              "type": "bytes"
            },
            {
              "internalType": "bytes32",
              "name": "globalExitRoot",
              "type": "bytes32"
            },
            {
              "internalType": "uint64",
              "name": "minForcedTimestamp",
              "type": "uint64"
            }
          ],
          "internalType": "struct PolygonZkEVM.ForcedBatchData[]",
          "name": "batches",
          "type": "tuple[]"
        }
      ],
      "name": "sequenceForceBatches",
      "outputs": [],
      "stateMutability": "nonpayable",
      "type": "function"
    },
    {
      "inputs": [
        {
          "internalType": "uint64",
          "name": "",
          "type": "uint64"
        }
      ],
      "name": "sequencedBatches",
      "outputs": [
        {
          "internalType": "bytes32",
          "name": "accInputHash",
          "type": "bytes32"
        },
        {
          "internalType": "uint64",
          "name": "sequencedTimestamp",
          "type": "uint64"
        },
        {
          "internalType": "uint64",
          "name": "previousLastBatchSequenced",
          "type": "uint64"
        }
      ],
      "stateMutability": "view",
      "type": "function"
    },
    {
      "inputs": [
        {
          "internalType": "address",
          "name": "newAdmin",
          "type": "address"
        }
      ],
      "name": "setAdmin",
      "outputs": [],
      "stateMutability": "nonpayable",
      "type": "function"
    },
    {
      "inputs": [
        {
          "internalType": "bool",
          "name": "newForceBatchAllowed",
          "type": "bool"
        }
      ],
      "name": "setForceBatchAllowed",
      "outputs": [],
      "stateMutability": "nonpayable",
      "type": "function"
    },
    {
      "inputs": [
        {
          "internalType": "uint16",
          "name": "newMultiplierBatchFee",
          "type": "uint16"
        }
      ],
      "name": "setMultiplierBatchFee",
      "outputs": [],
      "stateMutability": "nonpayable",
      "type": "function"
    },
    {
      "inputs": [
        {
          "internalType": "string",
          "name": "_networkName",
          "type": "string"
        }
      ],
      "name": "setNetworkName",
      "outputs": [],
      "stateMutability": "nonpayable",
      "type": "function"
    },
    {
      "inputs": [
        {
          "internalType": "uint64",
          "name": "newPendingStateTimeout",
          "type": "uint64"
        }
      ],
      "name": "setPendingStateTimeout",
      "outputs": [],
      "stateMutability": "nonpayable",
      "type": "function"
    },
    {
      "inputs": [
        {
          "internalType": "uint64",
          "name": "_numBatch",
          "type": "uint64"
        }
      ],
      "name": "setSequencedBatch",
      "outputs": [],
      "stateMutability": "nonpayable",
      "type": "function"
    },
    {
      "inputs": [
        {
          "internalType": "uint64",
          "name": "batchNum",
          "type": "uint64"
        },
        {
          "internalType": "bytes32",
          "name": "accInputData",
          "type": "bytes32"
        },
        {
          "internalType": "uint64",
          "name": "timestamp",
          "type": "uint64"
        },
        {
          "internalType": "uint64",
          "name": "lastPendingStateConsolidated",
          "type": "uint64"
        }
      ],
      "name": "setSequencedBatches",
      "outputs": [],
      "stateMutability": "nonpayable",
      "type": "function"
    },
    {
      "inputs": [
        {
          "internalType": "bytes32",
          "name": "newStateRoot",
          "type": "bytes32"
        },
        {
          "internalType": "uint64",
          "name": "batchNum",
          "type": "uint64"
        }
      ],
      "name": "setStateRoot",
      "outputs": [],
      "stateMutability": "nonpayable",
      "type": "function"
    },
    {
      "inputs": [
        {
          "internalType": "address",
          "name": "newTrustedAggregator",
          "type": "address"
        }
      ],
      "name": "setTrustedAggregator",
      "outputs": [],
      "stateMutability": "nonpayable",
      "type": "function"
    },
    {
      "inputs": [
        {
          "internalType": "uint64",
          "name": "newTrustedAggregatorTimeout",
          "type": "uint64"
        }
      ],
      "name": "setTrustedAggregatorTimeout",
      "outputs": [],
      "stateMutability": "nonpayable",
      "type": "function"
    },
    {
      "inputs": [
        {
          "internalType": "address",
          "name": "newTrustedSequencer",
          "type": "address"
        }
      ],
      "name": "setTrustedSequencer",
      "outputs": [],
      "stateMutability": "nonpayable",
      "type": "function"
    },
    {
      "inputs": [
        {
          "internalType": "string",
          "name": "newTrustedSequencerURL",
          "type": "string"
        }
      ],
      "name": "setTrustedSequencerURL",
      "outputs": [],
      "stateMutability": "nonpayable",
      "type": "function"
    },
    {
      "inputs": [
        {
          "internalType": "uint64",
          "name": "_numBatch",
          "type": "uint64"
        }
      ],
      "name": "setVerifiedBatch",
      "outputs": [],
      "stateMutability": "nonpayable",
      "type": "function"
    },
    {
      "inputs": [
        {
          "internalType": "contract IVerifierRollup",
          "name": "_rollupVerifier",
          "type": "address"
        }
      ],
      "name": "setVerifier",
      "outputs": [],
      "stateMutability": "nonpayable",
      "type": "function"
    },
    {
      "inputs": [
        {
          "internalType": "uint64",
          "name": "newVeryBatchTimeTarget",
          "type": "uint64"
        }
      ],
      "name": "setVeryBatchTimeTarget",
      "outputs": [],
      "stateMutability": "nonpayable",
      "type": "function"
    },
    {
      "inputs": [
        {
          "internalType": "address",
          "name": "newOwner",
          "type": "address"
        }
      ],
      "name": "transferOwnership",
      "outputs": [],
      "stateMutability": "nonpayable",
      "type": "function"
    },
    {
      "inputs": [],
      "name": "trustedAggregator",
      "outputs": [
        {
          "internalType": "address",
          "name": "",
          "type": "address"
        }
      ],
      "stateMutability": "view",
      "type": "function"
    },
    {
      "inputs": [],
      "name": "trustedAggregatorTimeout",
      "outputs": [
        {
          "internalType": "uint64",
          "name": "",
          "type": "uint64"
        }
      ],
      "stateMutability": "view",
      "type": "function"
    },
    {
      "inputs": [],
      "name": "trustedSequencer",
      "outputs": [
        {
          "internalType": "address",
          "name": "",
          "type": "address"
        }
      ],
      "stateMutability": "view",
      "type": "function"
    },
    {
      "inputs": [],
      "name": "trustedSequencerURL",
      "outputs": [
        {
          "internalType": "string",
          "name": "",
          "type": "string"
        }
      ],
      "stateMutability": "view",
      "type": "function"
    },
    {
      "inputs": [
        {
          "internalType": "uint64",
          "name": "pendingStateNum",
          "type": "uint64"
        },
        {
          "internalType": "uint64",
          "name": "initNumBatch",
          "type": "uint64"
        },
        {
          "internalType": "uint64",
          "name": "finalNewBatch",
          "type": "uint64"
        },
        {
          "internalType": "bytes32",
          "name": "newLocalExitRoot",
          "type": "bytes32"
        },
        {
          "internalType": "bytes32",
          "name": "newStateRoot",
          "type": "bytes32"
        },
        {
          "internalType": "uint256[2]",
          "name": "proofA",
          "type": "uint256[2]"
        },
        {
          "internalType": "uint256[2][2]",
          "name": "proofB",
          "type": "uint256[2][2]"
        },
        {
          "internalType": "uint256[2]",
          "name": "proofC",
          "type": "uint256[2]"
        }
      ],
      "name": "trustedVerifyBatches",
      "outputs": [],
      "stateMutability": "nonpayable",
      "type": "function"
    },
    {
      "inputs": [
        {
          "internalType": "uint64",
          "name": "pendingStateNum",
          "type": "uint64"
        },
        {
          "internalType": "uint64",
          "name": "initNumBatch",
          "type": "uint64"
        },
        {
          "internalType": "uint64",
          "name": "finalNewBatch",
          "type": "uint64"
        },
        {
          "internalType": "bytes32",
          "name": "newLocalExitRoot",
          "type": "bytes32"
        },
        {
          "internalType": "bytes32",
          "name": "newStateRoot",
          "type": "bytes32"
        },
        {
          "internalType": "uint256[2]",
          "name": "proofA",
          "type": "uint256[2]"
        },
        {
          "internalType": "uint256[2][2]",
          "name": "proofB",
          "type": "uint256[2][2]"
        },
        {
          "internalType": "uint256[2]",
          "name": "proofC",
          "type": "uint256[2]"
        }
      ],
      "name": "trustedVerifyBatchesMock",
      "outputs": [],
      "stateMutability": "nonpayable",
      "type": "function"
    },
    {
      "inputs": [
        {
          "internalType": "uint64",
          "name": "pendingStateNum",
          "type": "uint64"
        },
        {
          "internalType": "uint64",
          "name": "initNumBatch",
          "type": "uint64"
        },
        {
          "internalType": "uint64",
          "name": "finalNewBatch",
          "type": "uint64"
        },
        {
          "internalType": "bytes32",
          "name": "newLocalExitRoot",
          "type": "bytes32"
        },
        {
          "internalType": "bytes32",
          "name": "newStateRoot",
          "type": "bytes32"
        },
        {
          "internalType": "uint256[2]",
          "name": "proofA",
          "type": "uint256[2]"
        },
        {
          "internalType": "uint256[2][2]",
          "name": "proofB",
          "type": "uint256[2][2]"
        },
        {
          "internalType": "uint256[2]",
          "name": "proofC",
          "type": "uint256[2]"
        }
      ],
      "name": "verifyBatches",
      "outputs": [],
      "stateMutability": "nonpayable",
      "type": "function"
    },
    {
      "inputs": [],
      "name": "veryBatchTimeTarget",
      "outputs": [
        {
          "internalType": "uint64",
          "name": "",
          "type": "uint64"
        }
      ],
      "stateMutability": "view",
      "type": "function"
    }
  ],
  "bytecode": "0x608060405234801561001057600080fd5b50615f0280620000216000396000f3fe608060405234801561001057600080fd5b50600436106103925760003560e01c806396dc3d39116101e0578063cfa8ed4711610110578063e7a7ed02116100a8578063e7a7ed0214610903578063e8bf92ed1461091d578063eaeb077b14610930578063edc4112114610943578063f14916d614610956578063f2fde38b14610969578063f851a4401461097c578063f8b823e41461098f578063fe16564f1461099857600080fd5b8063cfa8ed471461085e578063d02103ca14610878578063d8d1091b1461088b578063d8f54db01461089e578063d939b315146108b2578063dbc16976146108cc578063e0d17441146108d4578063e11f3f18146108e7578063e217cfd6146108fa57600080fd5b8063ab9fc5ef11610183578063ab9fc5ef14610759578063adc879e914610761578063afd23cbe1461077b578063b4d63f58146107a3578063b6b0b09714610803578063c0cad3021461081d578063c0ed84e014610830578063c89e42df14610838578063cf1363061461084b57600080fd5b806396dc3d39146106dd57806399f5634e146106f05780639b796760146106f85780639c9f3dfe1461070b5780639eb831b91461071e5780639f0d039d14610726578063a3c573eb1461072e578063aa58bad61461074157600080fd5b80634a910e6a116102c6578063715018a61161025e578063715018a6146105e65780637215541a146105ee57806375c508b3146106015780637fcb365314610614578063837a473814610627578063841b24d7146106955780638b48931e146106af5780638c4a0af7146106b95780638da5cb5b146106cc57600080fd5b80634a910e6a1461052c5780635392c5e01461053f578063542028d51461055f5780635437988d14610567578063574f649e1461057a57806360943d6a1461058d5780636b8616ce146105a05780636ff512cc146105c0578063704b6c02146105d357600080fd5b80632d0889d3116103395780632d0889d314610475578063383b3be81461047f578063394218e9146104925780633c158267146104a5578063423fa856146104b857806345605267146104d2578063458c0477146104ec5780634834a343146104ff5780634a1a89a71461051257600080fd5b80630eaa86ea14610397578063107bf28c146103bd57806310a01a72146103d257806315064c96146103e75780631816b7e51461040457806319d8ac6114610417578063220d7899146104425780632987898314610455575b600080fd5b6103aa6103a5366004614c64565b6109ab565b6040519081526020015b60405180910390f35b6103c5610b7a565b6040516103b49190614d11565b6103e56103e0366004614d53565b610c08565b005b6065546103f49060ff1681565b60405190151581526020016103b4565b6103e5610412366004614de0565b610e51565b60685461042a906001600160401b031681565b6040516001600160401b0390911681526020016103b4565b6103c5610450366004614e04565b610f72565b606a54610468906001600160a01b031681565b6040516103b49190614e51565b6103aa620493e081565b6103f461048d366004614e65565b611113565b6103e56104a0366004614e65565b61115a565b6103e56104b3366004614fa2565b611316565b60685461042a90600160401b90046001600160401b031681565b60685461042a90600160801b90046001600160401b031681565b60725461042a906001600160401b031681565b6103e561050d366004614d53565b611add565b60725461042a90600160401b90046001600160401b031681565b6103e561053a366004614e65565b611e25565b6103aa61054d366004614e65565b606d6020526000908152604090205481565b6103c5611edb565b6103e56105753660046150cd565b611ee8565b6103aa6105883660046150ea565b611f12565b6103e561059b36600461515f565b611f55565b6103aa6105ae366004614e65565b60666020526000908152604090205481565b6103e56105ce3660046150cd565b6122b0565b6103e56105e13660046150cd565b61232e565b6103e56123a3565b6103e56105fc366004614e65565b6123b7565b6103e561060f366004615236565b6125be565b60695461042a906001600160401b031681565b61066a6106353660046152d4565b6071602052600090815260409020805460018201546002909201546001600160401b0380831693600160401b90930416919084565b604080516001600160401b0395861681529490931660208501529183015260608201526080016103b4565b60725461042a90600160c01b90046001600160401b031681565b61042a62093a8081565b6103e56106c73660046152fb565b61264d565b6033546001600160a01b0316610468565b6103e56106eb366004614e65565b6126c4565b6103aa6126ee565b6103e5610706366004614e65565b6127d6565b6103e5610719366004614e65565b61280b565b6103aa600c81565b6074546103aa565b607054610468906001600160a01b031681565b60655461042a9061010090046001600160401b031681565b61042a600081565b606c5461042a90600160a81b90046001600160401b031681565b60655461079090600160481b900461ffff1681565b60405161ffff90911681526020016103b4565b6107de6107b1366004614e65565b606760205260009081526040902080546001909101546001600160401b0380821691600160401b90041683565b604080519384526001600160401b0392831660208501529116908201526060016103b4565b60655461046890600160581b90046001600160a01b031681565b6103e561082b366004615318565b6129b9565b61042a6129d1565b6103e5610846366004615318565b612a1e565b6103e5610859366004614e65565b612a84565b60695461046890600160401b90046001600160a01b031681565b606c54610468906001600160a01b031681565b6103e561089936600461534c565b612b05565b606c546103f490600160a01b900460ff1681565b60725461042a90600160801b90046001600160401b031681565b6103e5612fc2565b6103e56108e236600461543e565b61307e565b6103e56108f5366004615236565b6130f0565b61042a6103e881565b60685461042a90600160c01b90046001600160401b031681565b606b54610468906001600160a01b031681565b6103e561093e36600461548b565b613234565b6103e5610951366004614d53565b61355d565b6103e56109643660046150cd565b61367c565b6103e56109773660046150cd565b6136f1565b607354610468906001600160a01b031681565b6103aa60745481565b6103e56109a63660046154cf565b613767565b60008060006109b86129d1565b90506001600160401b03881615610a55576072546001600160401b039081169089161115610a015760405162461bcd60e51b81526004016109f8906154fb565b60405180910390fd5b6001600160401b038089166000908152607160205260409020600281015481549094509091898116600160401b9092041614610a4f5760405162461bcd60e51b81526004016109f890615579565b50610abf565b6001600160401b0387166000908152606d6020526040902054915081610a8d5760405162461bcd60e51b81526004016109f8906155d9565b806001600160401b0316876001600160401b03161115610abf5760405162461bcd60e51b81526004016109f890615630565b806001600160401b0316866001600160401b031611610af05760405162461bcd60e51b81526004016109f8906156a1565b6000610aff8888888689610f72565b90506000600080516020615e8d833981519152600283604051610b22919061571e565b602060405180830381855afa158015610b3f573d6000803e3d6000fd5b5050506040513d601f19601f82011682018060405250810190610b62919061573a565b610b6c9190615769565b9a9950505050505050505050565b606f8054610b879061577d565b80601f0160208091040260200160405190810160405280929190818152602001828054610bb39061577d565b8015610c005780601f10610bd557610100808354040283529160200191610c00565b820191906000526020600020905b815481529060010190602001808311610be357829003601f168201915b505050505081565b610c10613789565b600080610c1b6129d1565b90506001600160401b038a1615610caf576072546001600160401b03908116908b161115610c5b5760405162461bcd60e51b81526004016109f8906154fb565b6001600160401b03808b1660009081526071602052604090206002810154815490945090918b8116600160401b9092041614610ca95760405162461bcd60e51b81526004016109f890615579565b50610d19565b6001600160401b0389166000908152606d6020526040902054915081610ce75760405162461bcd60e51b81526004016109f8906155d9565b806001600160401b0316896001600160401b03161115610d195760405162461bcd60e51b81526004016109f890615630565b806001600160401b0316886001600160401b031611610d4a5760405162461bcd60e51b81526004016109f8906156a1565b6000610d598a8a8a868b610f72565b606980546001600160401b0319166001600160401b038c81169182179092556000908152606d602052604090208990556072549192501615610da657607280546001600160801b03191690555b606c546040516333d6247d60e01b8152600481018a90526001600160a01b03909116906333d6247d90602401600060405180830381600087803b158015610dec57600080fd5b505af1158015610e00573d6000803e3d6000fd5b50506040518981523392506001600160401b038c1691507f0c0ce073a7d7b5850c04ccc4b20ee7d3179d5f57d0ac44399565792c0f72fce79060200160405180910390a35050505050505050505050565b6073546001600160a01b03163314610e7b5760405162461bcd60e51b81526004016109f8906157b7565b6103e88161ffff1610158015610e9657506104008161ffff16105b610f1b5760405162461bcd60e51b815260206004820152604a60248201527f506f6c79676f6e5a6b45564d3a3a7365744d756c7469706c696572426174636860448201527f4665653a206e65774d756c7469706c696572426174636846656520696e636f72606482015269726563742072616e676560b01b608482015260a4016109f8565b6065805461ffff60481b1916600160481b61ffff8416908102919091179091556040519081527f7019933d795eba185c180209e8ae8bffbaa25bcef293364687702c31f4d302c5906020015b60405180910390a150565b6001600160401b03808616600081815260676020526040808220549388168252902054606092911580610fa457508115155b611018576040805162461bcd60e51b81526020600482015260248101919091527f506f6c79676f6e5a6b45564d3a3a676574496e707574536e61726b427974657360448201527f3a206f6c64416363496e7075744861736820646f6573206e6f7420657869737460648201526084016109f8565b8061108d576040805162461bcd60e51b81526020600482015260248101919091527f506f6c79676f6e5a6b45564d3a3a676574496e707574536e61726b427974657360448201527f3a206e6577416363496e7075744861736820646f6573206e6f7420657869737460648201526084016109f8565b606c54604080516001600160601b03193360601b166020820152603481019790975260548701939093526001600160c01b031960c0998a1b81166074880152600160a81b909104891b8116607c870152608486019490945260a485015260c4840194909452509290931b90911660e4830152805180830360cc01815260ec909201905290565b6072546001600160401b038281166000908152607160205260408120549092429261114992600160801b90920481169116615810565b6001600160401b0316111592915050565b6073546001600160a01b031633146111845760405162461bcd60e51b81526004016109f8906157b7565b62093a806001600160401b038216111561121d5760405162461bcd60e51b815260206004820152604e60248201527f506f6c79676f6e5a6b45564d3a3a73657454727573746564416767726567617460448201527f6f7254696d656f75743a20457863656564206d61782068616c7420616767726560648201526d19d85d1a5bdb881d1a5b595bdd5d60921b608482015260a4016109f8565b60655460ff166112c0576072546001600160401b03600160c01b9091048116908216106112c05760405162461bcd60e51b8152602060048201526044602482018190527f506f6c79676f6e5a6b45564d3a3a736574547275737465644167677265676174908201527f6f7254696d656f75743a204e65772074696d656f7574206d757374206265206c60648201526337bbb2b960e11b608482015260a4016109f8565b607280546001600160c01b0316600160c01b6001600160401b038416908102919091179091556040519081527f1f4fa24c2e4bad19a7f3ec5c5485f70d46c798461c2e684f55bbd0fc661373a190602001610f67565b60655460ff16156113395760405162461bcd60e51b81526004016109f89061583b565b606954600160401b90046001600160a01b031633146113c05760405162461bcd60e51b815260206004820152603a60248201527f506f6c79676f6e5a6b45564d3a3a6f6e6c795472757374656453657175656e6360448201527f65723a204f6e6c7920747275737465642073657175656e63657200000000000060648201526084016109f8565b8051806114355760405162461bcd60e51b815260206004820152603d60248201527f506f6c79676f6e5a6b45564d3a3a73657175656e6365426174636865733a204160448201527f74206c65617374206d7573742073657175656e6365203120626174636800000060648201526084016109f8565b6103e881106114ae576040805162461bcd60e51b81526020600482015260248101919091527f506f6c79676f6e5a6b45564d3a3a73657175656e6365426174636865733a204360448201527f616e6e6f742073657175656e63652074686174206d616e79206261746368657360648201526084016109f8565b6068546001600160401b03600160401b82048116600081815260676020526040812054838516949293600160801b90930490921691905b85811015611913576000878281518110611501576115016158a3565b60200260200101519050600081606001516001600160401b03161115611691578361152b816158b9565b945050600081600001518051906020012082602001518360600151604051602001611558939291906158df565b60408051601f1981840301815291815281516020928301206001600160401b0388166000908152606690935291205490915081146115ec5760405162461bcd60e51b815260206004820152603d6024820152600080516020615ead83398151915260448201527f6f7263656420626174636865732064617461206d757374206d6174636800000060648201526084016109f8565b81606001516001600160401b031682604001516001600160401b0316101561168b5760405162461bcd60e51b81526020600482015260586024820152600080516020615ead83398151915260448201527f6f7263656420626174636865732074696d657374616d70206d757374206265206064820152773134b3b3b2b91037b91032b8bab0b6103a3430b71036b4b760411b608482015260a4016109f8565b50611806565b6020810151158061171a5750606c5460208201516040516312bd9b1960e11b81526001600160a01b039092169163257b3632916116d49160040190815260200190565b6020604051808303816000875af11580156116f3573d6000803e3d6000fd5b505050506040513d601f19601f82011682018060405250810190611717919061573a565b15155b61178c5760405162461bcd60e51b815260206004820152603a60248201527f506f6c79676f6e5a6b45564d3a3a73657175656e6365426174636865733a204760448201527f6c6f62616c206578697420726f6f74206d75737420657869737400000000000060648201526084016109f8565b805151620493e0116118065760405162461bcd60e51b815260206004820152603a60248201527f506f6c79676f6e5a6b45564d3a3a73657175656e6365426174636865733a205460448201527f72616e73616374696f6e73206279746573206f766572666c6f7700000000000060648201526084016109f8565b856001600160401b031681604001516001600160401b03161015801561183957504281604001516001600160401b031611155b6118ab5760405162461bcd60e51b815260206004820152603d60248201527f506f6c79676f6e5a6b45564d3a3a73657175656e6365426174636865733a205460448201527f696d657374616d70206d75737420626520696e736964652072616e676500000060648201526084016109f8565b805180516020918201208183015160408085015190516118d2948894939291339101615902565b60405160208183030381529060405280519060200120925084806118f5906158b9565b9550508060400151955050808061190b90615941565b9150506114e5565b506068546001600160401b03600160c01b909104811690831611156119865760405162461bcd60e51b81526020600482015260356024820152600080516020615ead8339815191526044820152746f7263652062617463686573206f766572666c6f7760581b60648201526084016109f8565b6068546000906119a690600160801b90046001600160401b03168461595a565b6119b9906001600160401b031687615982565b60408051606081018252848152426001600160401b03908116602080840191825260688054600160401b9081900485168688019081528c861660008181526067909552979093209551865592516001909501805492519585166001600160801b03199384161795851684029590951790945583548b841691161793029290921767ffffffffffffffff60801b1916600160801b92871692909202919091179055607454909150611a8e90339030908490611a739190615999565b606554600160581b90046001600160a01b03169291906137e3565b611a9661384e565b606854604051600160401b9091046001600160401b0316907f303446e6a8cb73c83dff421c0b1d5e5ce0719dab1bff13660fc254e58cc17fce90600090a250505050505050565b60655460ff1615611b005760405162461bcd60e51b81526004016109f89061583b565b6072546001600160401b038781166000908152606760205260409020600101544292611b3792600160c01b90910481169116615810565b6001600160401b03161115611bc05760405162461bcd60e51b815260206004820152604360248201527f506f6c79676f6e5a6b45564d3a3a766572696679426174636865733a2054727560448201527f737465642061676772656761746f722074696d656f7574206e6f7420657870696064820152621c995960ea1b608482015260a4016109f8565b6103e8611bcd888861595a565b6001600160401b031610611c495760405162461bcd60e51b815260206004820152603c60248201527f506f6c79676f6e5a6b45564d3a3a766572696679426174636865733a2043616e60448201527f6e6f74207665726966792074686174206d616e7920626174636865730000000060648201526084016109f8565b611c5988888888888888886138ee565b611c6286613ddf565b607254600160801b90046001600160401b0316600003611d2957606980546001600160401b0319166001600160401b038881169182179092556000908152606d602052604090208590556072541615611cc657607280546001600160801b03191690555b606c546040516333d6247d60e01b8152600481018790526001600160a01b03909116906333d6247d90602401600060405180830381600087803b158015611d0c57600080fd5b505af1158015611d20573d6000803e3d6000fd5b50505050611dda565b611d3161384e565b607280546001600160401b0316906000611d4a836158b9565b82546001600160401b039182166101009390930a92830292820219169190911790915560408051608081018252428316815289831660208083019182528284018b8152606084018b8152607254871660009081526071909352949091209251835492518616600160401b026001600160801b03199093169516949094171781559151600183015551600290910155505b60405184815233906001600160401b038816907f9c72852172521097ba7e1482e6b44b351323df0155f97f4ea18fcec28e1f5966906020015b60405180910390a35050505050505050565b606a546001600160a01b03163314611ecf57611e4081611113565b611ecf5760405162461bcd60e51b815260206004820152605460248201527f506f6c79676f6e5a6b45564d3a3a636f6e736f6c696461746550656e64696e6760448201527f53746174653a2050656e64696e67207374617465206973206e6f7420726561646064820152731e481d1bc818994818dbdb9cdbdb1a59185d195960621b608482015260a4016109f8565b611ed881613fc5565b50565b606e8054610b879061577d565b611ef0613789565b606b80546001600160a01b0319166001600160a01b0392909216919091179055565b6000858580519060200120858585604051602001611f34959493929190615902565b60405160208183030381529060405280519060200120905095945050505050565b600054610100900460ff1615808015611f755750600054600160ff909116105b80611f8f5750303b158015611f8f575060005460ff166001145b611ff25760405162461bcd60e51b815260206004820152602e60248201527f496e697469616c697a61626c653a20636f6e747261637420697320616c72656160448201526d191e481a5b9a5d1a585b1a5e995960921b60648201526084016109f8565b6000805460ff191660011790558015612015576000805461ff0019166101001790555b606c80546001600160a01b03199081166001600160a01b038c81169190911790925560658054600160581b600160f81b031916600160581b8c851602179055606b805482168a84161790556070805490911691881691909117905561207d60208601866150cd565b607380546001600160a01b0319166001600160a01b03929092169190911790556120ad60608601604087016150cd565b606980546001600160a01b0392909216600160401b02600160401b600160e01b03199092169190911790556120e860c0860160a087016150cd565b606a80546001600160a01b0319166001600160a01b039290921691909117905560008052606d6020527fda90043ba5b4096ba14704bc227ab0d3167da15b887e62ab2e76e37daa71135684905561214560e0860160c08701614e65565b607280546001600160401b0392909216600160c01b026001600160c01b0390921691909117905561217c6040860160208701614e65565b606c80546001600160401b0392909216600160a81b0267ffffffffffffffff60a81b199092169190911790556121b86080860160608701614e65565b607280546001600160401b0392909216600160801b0267ffffffffffffffff60801b199092169190911790556121f460a08601608087016152fb565b606c8054911515600160a01b0260ff60a01b19909216919091179055606e61221c84826159fe565b50606f61222983826159fe565b50670de0b6b3a7640000607455606580546affffffffffffffffffff0019166a03ea00000000000007080017905561225f6141a9565b80156122a5576000805461ff0019169055604051600181527f7f26b83ff96e1f2b6a682f133852f6798a09c465da95921460cefb38474024989060200160405180910390a15b505050505050505050565b6073546001600160a01b031633146122da5760405162461bcd60e51b81526004016109f8906157b7565b60698054600160401b600160e01b031916600160401b6001600160a01b038416021790556040517ff54144f9611984021529f814a1cb6a41e22c58351510a0d9f7e822618abb9cc090610f67908390614e51565b6073546001600160a01b031633146123585760405162461bcd60e51b81526004016109f8906157b7565b607380546001600160a01b0319166001600160a01b0383161790556040517f5a272403b402d892977df56625f4164ccaf70ca3863991c43ecfe76a6905b0a190610f67908390614e51565b6123ab613789565b6123b56000614219565b565b6033546001600160a01b031633146125b65760006123d36129d1565b9050806001600160401b0316826001600160401b03161161244a5760405162461bcd60e51b815260206004820152603c6024820152600080516020615e0d83398151915260448201527f746174653a20426174636820616c72656164792076657269666965640000000060648201526084016109f8565b6068546001600160401b03600160401b90910481169083161180159061248c57506001600160401b038083166000908152606760205260409020600101541615155b6125055760405162461bcd60e51b81526020600482015260506024820152600080516020615e0d83398151915260448201527f746174653a204261746368206e6f742073657175656e636564206f72206e6f7460648201526f20656e64206f662073657175656e636560801b608482015260a4016109f8565b6001600160401b0380831660009081526067602052604090206001015442916125339162093a809116615810565b6001600160401b031611156125b45760405162461bcd60e51b815260206004820152604d6024820152600080516020615e0d83398151915260448201527f746174653a204167677265676174696f6e2068616c742074696d656f7574206960648201526c1cc81b9bdd08195e1c1a5c9959609a1b608482015260a4016109f8565b505b611ed861426b565b60655460ff16156125e15760405162461bcd60e51b81526004016109f89061583b565b6125f28989898989898989896142db565b6001600160401b0386166000908152606d60209081526040918290205482519081529081018690527f1f44c21118c4603cfb4e1b621dbcfa2b73efcececee2b99b620b2953d33a7010910160405180910390a16122a561426b565b6073546001600160a01b031633146126775760405162461bcd60e51b81526004016109f8906157b7565b606c8054821515600160a01b0260ff60a01b199091161790556040517fbacda50a4a8575be1d91a7ebe29ee45056f3a94f12a2281eb6b43afa33bcefe690610f6790831515815260200190565b6126cc613789565b606980546001600160401b0319166001600160401b0392909216919091179055565b6065546040516370a0823160e01b81526000918291600160581b9091046001600160a01b0316906370a0823190612729903090600401614e51565b602060405180830381865afa158015612746573d6000803e3d6000fd5b505050506040513d601f19601f8201168201806040525081019061276a919061573a565b905060006127766129d1565b6068546001600160401b03600160401b82048116916127a691600160801b8204811691600160c01b90041661595a565b6127b09190615810565b6127ba919061595a565b6001600160401b031690506127cf8183615abd565b9250505090565b6127de613789565b606880546001600160401b03909216600160401b0267ffffffffffffffff60401b19909216919091179055565b6073546001600160a01b031633146128355760405162461bcd60e51b81526004016109f8906157b7565b62093a806001600160401b03821611156128c95760405162461bcd60e51b815260206004820152604960248201527f506f6c79676f6e5a6b45564d3a3a73657450656e64696e67537461746554696d60448201527f656f75743a20457863656564206d61782068616c74206167677265676174696f6064820152681b881d1a5b595bdd5d60ba1b608482015260a4016109f8565b60655460ff1661295e576072546001600160401b03600160801b90910481169082161061295e5760405162461bcd60e51b815260206004820152603f60248201527f506f6c79676f6e5a6b45564d3a3a73657450656e64696e67537461746554696d60448201527f656f75743a204e65772074696d656f7574206d757374206265206c6f7765720060648201526084016109f8565b6072805467ffffffffffffffff60801b1916600160801b6001600160401b038416908102919091179091556040519081527fc4121f4e22c69632ebb7cf1f462be0511dc034f999b52013eddfb24aab765c7590602001610f67565b6129c1613789565b606f6129cd82826159fe565b5050565b6072546000906001600160401b031615612a0e57506072546001600160401b03908116600090815260716020526040902054600160401b90041690565b506069546001600160401b031690565b6073546001600160a01b03163314612a485760405162461bcd60e51b81526004016109f8906157b7565b606e612a5482826159fe565b507f6b8f723a4c7a5335cafae8a598a0aa0301be1387c037dccc085b62add6448b2081604051610f679190614d11565b6073546001600160a01b03163314612aae5760405162461bcd60e51b81526004016109f8906157b7565b6065805468ffffffffffffffff0019166101006001600160401b038416908102919091179091556040519081527f03a12f7e53d2a9e31a9e913d85c12c4c38feb92abe003c111329298af088437f90602001610f67565b60655460ff1615612b285760405162461bcd60e51b81526004016109f89061583b565b606c54600160a01b900460ff161515600114612b565760405162461bcd60e51b81526004016109f890615ad1565b805180612bb95760405162461bcd60e51b815260206004820152603f6024820152600080516020615e6d83398151915260448201527f65733a204d75737420666f726365206174206c6561737420312062617463680060648201526084016109f8565b6103e88110612c2a5760405162461bcd60e51b81526020600482015260436024820152600080516020615e6d83398151915260448201527f65733a2043616e6e6f74207665726966792074686174206d616e79206261746360648201526268657360e81b608482015260a4016109f8565b6068546001600160401b03600160c01b8204811691612c52918491600160801b900416615b3a565b1115612cae5760405162461bcd60e51b81526020600482015260376024820152600080516020615e6d833981519152604482015276195cce88119bdc98d94818985d18da081a5b9d985b1a59604a1b60648201526084016109f8565b6068546001600160401b03600160401b820481166000818152606760205260408120549193600160801b9004909216915b84811015612eda576000868281518110612cfb57612cfb6158a3565b602002602001015190508380612d10906158b9565b945050600081600001518051906020012082602001518360400151604051602001612d3d939291906158df565b60408051601f1981840301815291815281516020928301206001600160401b038816600090815260669093529120549091508114612ddc5760405162461bcd60e51b81526020600482015260426024820152600080516020615e6d83398151915260448201527f65733a20466f7263656420626174636865732064617461206d757374206d61746064820152610c6d60f31b608482015260a4016109f8565b612de7600188615982565b8303612e7c574260008360400151612dff9190615810565b6001600160401b03161115612e7c5760405162461bcd60e51b81526020600482015260496024820152600080516020615e6d83398151915260448201527f65733a20466f72636564206261746368206973206e6f7420696e2074696d656f6064820152681d5d081c195c9a5bd960ba1b608482015260a4016109f8565b8151805160209182012081840151604051612e9f93889392914291339101615902565b6040516020818303038152906040528051906020012093508580612ec2906158b9565b96505050508080612ed290615941565b915050612cdf565b50606880546001600160401b031916426001600160401b03908116918217808455604080516060810182528681526020808201958652600160401b9384900485168284019081528a861660008181526067909352848320935184559651600193909301805491519387166001600160801b0319909216919091179286168502929092179091558554600160401b600160c01b03191694830267ffffffffffffffff60801b191694909417600160801b88851602179485905551930416917f648a61dd2438f072f5a1960939abd30f37aea80d2e94c9792ad142d3e0a490a49190a25050505050565b60655460ff16612fe45760405162461bcd60e51b81526004016109f890615b52565b6073546001600160a01b0316331461300e5760405162461bcd60e51b81526004016109f8906157b7565b607060009054906101000a90046001600160a01b03166001600160a01b031663dbc169766040518163ffffffff1660e01b8152600401600060405180830381600087803b15801561305e57600080fd5b505af1158015613072573d6000803e3d6000fd5b505050506123b56148ff565b613086613789565b604080516060810182529384526001600160401b03928316602080860191825292841685830190815295841660009081526067909352912092518355516001909201805493518216600160401b026001600160801b03199094169290911691909117919091179055565b606a546001600160a01b0316331461311a5760405162461bcd60e51b81526004016109f890615baf565b61312b8989898989898989896142db565b606980546001600160401b0319166001600160401b038881169182179092556000908152606d60205260409020859055607254161561317557607280546001600160801b03191690555b606c546040516333d6247d60e01b8152600481018790526001600160a01b03909116906333d6247d90602401600060405180830381600087803b1580156131bb57600080fd5b505af11580156131cf573d6000803e3d6000fd5b5050607280546001600160c01b031661127560c71b179055505060405184815233906001600160401b038816907fcc1b5520188bf1dd3e63f98164b577c4d75c11a619ddea692112f0d1aec4cf729060200160405180910390a3505050505050505050565b60655460ff16156132575760405162461bcd60e51b81526004016109f89061583b565b606c54600160a01b900460ff1615156001146132855760405162461bcd60e51b81526004016109f890615ad1565b600061329060745490565b9050818111156132f55760405162461bcd60e51b815260206004820152602a60248201527f506f6c79676f6e5a6b45564d3a3a666f72636542617463683a204e6f7420656e6044820152696f756768206d6174696360b01b60648201526084016109f8565b620493e08351106133665760405162461bcd60e51b815260206004820152603560248201527f506f6c79676f6e5a6b45564d3a3a666f72636542617463683a205472616e73616044820152746374696f6e73206279746573206f766572666c6f7760581b60648201526084016109f8565b60655461338590600160581b90046001600160a01b03163330846137e3565b606c5460408051633ed691ef60e01b815290516000926001600160a01b031691633ed691ef9160048083019260209291908290030181865afa1580156133cf573d6000803e3d6000fd5b505050506040513d601f19601f820116820180604052508101906133f3919061573a565b60688054919250600160c01b9091046001600160401b0316906018613417836158b9565b91906101000a8154816001600160401b0302191690836001600160401b031602179055505083805190602001208142604051602001613458939291906158df565b60408051808303601f190181529181528151602092830120606854600160c01b90046001600160401b0316600090815260669093529120553233036134fc57606854604080518381523360208201526060918101829052600091810191909152600160c01b9091046001600160401b0316907ff94bb37db835f1ab585ee00041849a09b12cd081d77fa15ca070757619cbc9319060800160405180910390a2613557565b606860189054906101000a90046001600160401b03166001600160401b03167ff94bb37db835f1ab585ee00041849a09b12cd081d77fa15ca070757619cbc93182338760405161354e93929190615c0c565b60405180910390a25b50505050565b606a546001600160a01b031633146135875760405162461bcd60e51b81526004016109f890615baf565b61359788888888888888886138ee565b606980546001600160401b0319166001600160401b038881169182179092556000908152606d6020526040902085905560725416156135e157607280546001600160801b03191690555b606c546040516333d6247d60e01b8152600481018790526001600160a01b03909116906333d6247d90602401600060405180830381600087803b15801561362757600080fd5b505af115801561363b573d6000803e3d6000fd5b50506040518681523392506001600160401b03891691507f0c0ce073a7d7b5850c04ccc4b20ee7d3179d5f57d0ac44399565792c0f72fce790602001611e13565b6073546001600160a01b031633146136a65760405162461bcd60e51b81526004016109f8906157b7565b606a80546001600160a01b0319166001600160a01b0383161790556040517f61f8fec29495a3078e9271456f05fb0707fd4e41f7661865f80fc437d06681ca90610f67908390614e51565b6136f9613789565b6001600160a01b03811661375e5760405162461bcd60e51b815260206004820152602660248201527f4f776e61626c653a206e6577206f776e657220697320746865207a65726f206160448201526564647265737360d01b60648201526084016109f8565b611ed881614219565b61376f613789565b6001600160401b03166000908152606d6020526040902055565b6033546001600160a01b031633146123b55760405162461bcd60e51b815260206004820181905260248201527f4f776e61626c653a2063616c6c6572206973206e6f7420746865206f776e657260448201526064016109f8565b6040516001600160a01b03808516602483015283166044820152606481018290526135579085906323b872dd60e01b906084015b60408051601f198184030181529190526020810180516001600160e01b03166001600160e01b031990931692909217909152614956565b6072546001600160401b03600160401b82048116911611156123b55760725460009061388b90600160401b90046001600160401b03166001615810565b905061389681611113565b15611ed8576072546000906002906138b89084906001600160401b031661595a565b6138c29190615c3f565b6138cc9083615810565b90506138d781611113565b156138e5576129cd81613fc5565b6129cd82613fc5565b6000806138f96129d1565b90506001600160401b038a1615613a5f576072546001600160401b03908116908b1611156139b15760405162461bcd60e51b815260206004820152605960248201527f506f6c79676f6e5a6b45564d3a3a5f766572696679426174636865733a20706560448201527f6e64696e6753746174654e756d206d757374206265206c657373206f7220657160648201527875616c207468616e206c61737450656e64696e67537461746560381b608482015260a4016109f8565b6001600160401b03808b1660009081526071602052604090206002810154815490945090918b8116600160401b9092041614613a595760405162461bcd60e51b815260206004820152604d6024820152600080516020615e2d83398151915260448201527f69744e756d4261746368206d757374206d61746368207468652070656e64696e60648201526c0ce40e6e8c2e8ca40c4c2e8c6d609b1b608482015260a4016109f8565b50613b85565b6001600160401b0389166000908152606d6020526040902054915081613ae95760405162461bcd60e51b815260206004820152604460248201819052600080516020615e2d833981519152908201527f69744e756d426174636820737461746520726f6f7420646f6573206e6f7420656064820152631e1a5cdd60e21b608482015260a4016109f8565b806001600160401b0316896001600160401b03161115613b855760405162461bcd60e51b815260206004820152605e6024820152600080516020615e2d83398151915260448201527f69744e756d4261746368206d757374206265206c657373206f7220657175616c60648201527f207468616e2063757272656e744c617374566572696669656442617463680000608482015260a4016109f8565b806001600160401b0316886001600160401b031611613c2d5760405162461bcd60e51b815260206004820152605860248201527f506f6c79676f6e5a6b45564d3a3a5f766572696679426174636865733a20666960448201527f6e616c4e65774261746368206d75737420626520626967676572207468616e206064820152770c6eae4e4cadce898c2e6e8accae4d2ccd2cac884c2e8c6d60431b608482015260a4016109f8565b6000613c3c8a8a8a868b610f72565b90506000600080516020615e8d833981519152600283604051613c5f919061571e565b602060405180830381855afa158015613c7c573d6000803e3d6000fd5b5050506040513d601f19601f82011682018060405250810190613c9f919061573a565b613ca99190615769565b606b546040805160208101825283815290516343753b4d60e01b81529293506001600160a01b03909116916343753b4d91613ced918b918b918b9190600401615c65565b602060405180830381865afa158015613d0a573d6000803e3d6000fd5b505050506040513d601f19601f82011682018060405250810190613d2e9190615cdf565b613d8e5760405162461bcd60e51b815260206004820152602b60248201527f506f6c79676f6e5a6b45564d3a3a5f766572696679426174636865733a20496e60448201526a3b30b634b210383937b7b360a91b60648201526084016109f8565b613dd133613d9c858d61595a565b6001600160401b0316613dad6126ee565b613db79190615999565b606554600160581b90046001600160a01b03169190614a2d565b505050505050505050505050565b6000613de96129d1565b905081600080613df9848461595a565b6001600160401b031690505b836001600160401b0316836001600160401b031614613eab576001600160401b03808416600090815260676020526040902060655460018201549192610100909104811691613e55911642615982565b1115613e90576001810154613e7a90600160401b90046001600160401b03168561595a565b613e8d906001600160401b031684615b3a565b92505b60010154600160401b90046001600160401b03169250613e05565b6000613eb78383615982565b905082811015613f31576000613ecd8285615982565b9050600c8111613edd5780613ee0565b600c5b9050613eed816003615999565b613ef890600a615de0565b606554613f11908390600160481b900461ffff16615de0565b607454613f1e9190615999565b613f289190615abd565b60745550613fbd565b6000613f3d8483615982565b9050600c8111613f4d5780613f50565b600c5b90506000613f5f826003615999565b613f6a90600a615de0565b606554613f83908490600160481b900461ffff16615de0565b607454613f909190615999565b613f9a9190615abd565b905080607454607454613fad9190615999565b613fb79190615abd565b60745550505b505050505050565b6001600160401b03811615801590613ff257506072546001600160401b03600160401b9091048116908216115b801561400d57506072546001600160401b0390811690821611155b61407f5760405162461bcd60e51b815260206004820152603f60248201527f506f6c79676f6e5a6b45564d3a3a5f636f6e736f6c696461746550656e64696e60448201527f6753746174653a2070656e64696e6753746174654e756d20696e76616c69640060648201526084016109f8565b6001600160401b038181166000818152607160209081526040808320805460698054600160401b928390049098166001600160401b0319909816881790556002820154878652606d90945293829020929092556072805467ffffffffffffffff60401b19169390940292909217909255606c54600183015491516333d6247d60e01b815260048101929092529192916001600160a01b0316906333d6247d90602401600060405180830381600087803b15801561413b57600080fd5b505af115801561414f573d6000803e3d6000fd5b50505050826001600160401b0316816001600160401b03167f328d3c6c0fd6f1be0515e422f2d87e59f25922cbc2233568515a0c4bc3f8510e846002015460405161419c91815260200190565b60405180910390a3505050565b600054610100900460ff166142145760405162461bcd60e51b815260206004820152602b60248201527f496e697469616c697a61626c653a20636f6e7472616374206973206e6f74206960448201526a6e697469616c697a696e6760a81b60648201526084016109f8565b6123b5335b603380546001600160a01b038381166001600160a01b0319831681179093556040519116919082907f8be0079c531659141344cd1fd0a4f28419497f9722a3daafe3b4186f6b6457e090600090a35050565b607060009054906101000a90046001600160a01b03166001600160a01b0316632072f6c56040518163ffffffff1660e01b8152600401600060405180830381600087803b1580156142bb57600080fd5b505af11580156142cf573d6000803e3d6000fd5b505050506123b5614a5d565b60006001600160401b038a161561444b576072546001600160401b03908116908b1611156143935760405162461bcd60e51b81526020600482015260656024820152600080516020615e4d83398151915260448201527f696e6753746174653a2070656e64696e6753746174654e756d206d757374206260648201527f65206c657373206f7220657175616c207468616e206c61737450656e64696e67608482015264537461746560d81b60a482015260c4016109f8565b506001600160401b03808a1660009081526071602052604090206002810154815490928a8116600160401b90920416146144455760405162461bcd60e51b81526020600482015260596024820152600080516020615e4d83398151915260448201527f696e6753746174653a20696e69744e756d4261746368206d757374206d6174636064820152780d040e8d0ca40e0cadcc8d2dcce40e6e8c2e8ca40c4c2e8c6d603b1b608482015260a4016109f8565b50614584565b506001600160401b0387166000908152606d6020526040902054806144df5760405162461bcd60e51b81526020600482015260506024820152600080516020615e4d83398151915260448201527f696e6753746174653a20696e69744e756d426174636820737461746520726f6f60648201526f1d08191bd95cc81b9bdd08195e1a5cdd60821b608482015260a4016109f8565b6069546001600160401b0390811690891611156145845760405162461bcd60e51b81526020600482015260636024820152600080516020615e4d83398151915260448201527f696e6753746174653a20696e69744e756d4261746368206d757374206265206c60648201527f657373206f7220657175616c207468616e206c617374566572696669656442616084820152620e8c6d60eb1b60a482015260c4016109f8565b6072546001600160401b03908116908a16118015906145b45750896001600160401b0316896001600160401b0316115b80156145d557506072546001600160401b03600160401b9091048116908a16115b6146465760405162461bcd60e51b81526020600482015260486024820152600080516020615e4d83398151915260448201527f696e6753746174653a2066696e616c50656e64696e6753746174654e756d20696064820152671b98dbdc9c9958dd60c21b608482015260a4016109f8565b6001600160401b03898116600090815260716020526040902054600160401b90048116908816146146ff5760405162461bcd60e51b81526020600482015260636024820152600080516020615e4d83398151915260448201527f696e6753746174653a2066696e616c4e65774261746368206d7573742062652060648201527f657175616c207468616e2063757272656e744c617374566572696669656442616084820152620e8c6d60eb1b60a482015260c4016109f8565b600061470e898989858a610f72565b90506000600080516020615e8d833981519152600283604051614731919061571e565b602060405180830381855afa15801561474e573d6000803e3d6000fd5b5050506040513d601f19601f82011682018060405250810190614771919061573a565b61477b9190615769565b606b546040805160208101825283815290516343753b4d60e01b81529293506001600160a01b03909116916343753b4d916147bf918a918a918a9190600401615c65565b602060405180830381865afa1580156147dc573d6000803e3d6000fd5b505050506040513d601f19601f820116820180604052508101906148009190615cdf565b61485a5760405162461bcd60e51b81526020600482015260376024820152600080516020615e4d83398151915260448201527634b733a9ba30ba329d1024b73b30b634b210383937b7b360491b60648201526084016109f8565b6001600160401b038b16600090815260716020526040902060020154879003613dd15760405162461bcd60e51b815260206004820152605b6024820152600080516020615e4d83398151915260448201527f696e6753746174653a2053746f72656420726f6f74206d75737420626520646960648201527f66666572656e74207468616e206e657720737461746520726f6f740000000000608482015260a4016109f8565b60655460ff166149215760405162461bcd60e51b81526004016109f890615b52565b6065805460ff191690556040517f1e5e34eea33501aecf2ebec9fe0e884a40804275ea7fe10b2ba084c8374308b390600090a1565b60006149ab826040518060400160405280602081526020017f5361666545524332303a206c6f772d6c6576656c2063616c6c206661696c6564815250856001600160a01b0316614ab89092919063ffffffff16565b805190915015614a2857808060200190518101906149c99190615cdf565b614a285760405162461bcd60e51b815260206004820152602a60248201527f5361666545524332303a204552433230206f7065726174696f6e20646964206e6044820152691bdd081cdd58d8d9595960b21b60648201526084016109f8565b505050565b6040516001600160a01b038316602482015260448101829052614a2890849063a9059cbb60e01b90606401613817565b60655460ff1615614a805760405162461bcd60e51b81526004016109f89061583b565b6065805460ff191660011790556040517f2261efe5aef6fedc1fd1550b25facc9181745623049c7901287030b9ad1a549790600090a1565b6060614ac78484600085614acf565b949350505050565b606082471015614b305760405162461bcd60e51b815260206004820152602660248201527f416464726573733a20696e73756666696369656e742062616c616e636520666f6044820152651c8818d85b1b60d21b60648201526084016109f8565b600080866001600160a01b03168587604051614b4c919061571e565b60006040518083038185875af1925050503d8060008114614b89576040519150601f19603f3d011682016040523d82523d6000602084013e614b8e565b606091505b5091509150614b9f87838387614baa565b979650505050505050565b60608315614c19578251600003614c12576001600160a01b0385163b614c125760405162461bcd60e51b815260206004820152601d60248201527f416464726573733a2063616c6c20746f206e6f6e2d636f6e747261637400000060448201526064016109f8565b5081614ac7565b614ac78383815115614c2e5781518083602001fd5b8060405162461bcd60e51b81526004016109f89190614d11565b80356001600160401b0381168114614c5f57600080fd5b919050565b600080600080600060a08688031215614c7c57600080fd5b614c8586614c48565b9450614c9360208701614c48565b9350614ca160408701614c48565b94979396509394606081013594506080013592915050565b60005b83811015614cd4578181015183820152602001614cbc565b838111156135575750506000910152565b60008151808452614cfd816020860160208601614cb9565b601f01601f19169290920160200192915050565b602081526000614d246020830184614ce5565b9392505050565b8060408101831015614d3c57600080fd5b92915050565b8060808101831015614d3c57600080fd5b6000806000806000806000806101a0898b031215614d7057600080fd5b614d7989614c48565b9750614d8760208a01614c48565b9650614d9560408a01614c48565b95506060890135945060808901359350614db28a60a08b01614d2b565b9250614dc18a60e08b01614d42565b9150614dd18a6101608b01614d2b565b90509295985092959890939650565b600060208284031215614df257600080fd5b813561ffff81168114614d2457600080fd5b600080600080600060a08688031215614e1c57600080fd5b614e2586614c48565b9450614e3360208701614c48565b94979496505050506040830135926060810135926080909101359150565b6001600160a01b0391909116815260200190565b600060208284031215614e7757600080fd5b614d2482614c48565b634e487b7160e01b600052604160045260246000fd5b604051608081016001600160401b0381118282101715614eb857614eb8614e80565b60405290565b604051606081016001600160401b0381118282101715614eb857614eb8614e80565b604051601f8201601f191681016001600160401b0381118282101715614f0857614f08614e80565b604052919050565b60006001600160401b03821115614f2957614f29614e80565b5060051b60200190565b600082601f830112614f4457600080fd5b81356001600160401b03811115614f5d57614f5d614e80565b614f70601f8201601f1916602001614ee0565b818152846020838601011115614f8557600080fd5b816020850160208301376000918101602001919091529392505050565b60006020808385031215614fb557600080fd5b82356001600160401b0380821115614fcc57600080fd5b818501915085601f830112614fe057600080fd5b8135614ff3614fee82614f10565b614ee0565b81815260059190911b8301840190848101908883111561501257600080fd5b8585015b838110156150ab5780358581111561502e5760008081fd5b86016080818c03601f19018113156150465760008081fd5b61504e614e96565b89830135888111156150605760008081fd5b61506e8e8c83870101614f33565b8252506040808401358b8301526060615088818601614c48565b82840152615097848601614c48565b908301525085525050918601918601615016565b5098975050505050505050565b6001600160a01b0381168114611ed857600080fd5b6000602082840312156150df57600080fd5b8135614d24816150b8565b600080600080600060a0868803121561510257600080fd5b8535945060208601356001600160401b0381111561511f57600080fd5b61512b88828901614f33565b9450506040860135925061514160608701614c48565b91506080860135615151816150b8565b809150509295509295909350565b600080600080600080600080888a036101c081121561517d57600080fd5b8935615188816150b8565b985060208a0135615198816150b8565b975060408a01356151a8816150b8565b965060608a01356151b8816150b8565b955060e0607f19820112156151cc57600080fd5b5060808901935061016089013592506101808901356001600160401b03808211156151f657600080fd5b6152028c838d01614f33565b93506101a08b013591508082111561521957600080fd5b506152268b828c01614f33565b9150509295985092959890939650565b60008060008060008060008060006101c08a8c03121561525557600080fd5b61525e8a614c48565b985061526c60208b01614c48565b975061527a60408b01614c48565b965061528860608b01614c48565b955060808a0135945060a08a013593506152a58b60c08c01614d2b565b92506152b58b6101008c01614d42565b91506152c58b6101808c01614d2b565b90509295985092959850929598565b6000602082840312156152e657600080fd5b5035919050565b8015158114611ed857600080fd5b60006020828403121561530d57600080fd5b8135614d24816152ed565b60006020828403121561532a57600080fd5b81356001600160401b0381111561534057600080fd5b614ac784828501614f33565b6000602080838503121561535f57600080fd5b82356001600160401b038082111561537657600080fd5b818501915085601f83011261538a57600080fd5b8135615398614fee82614f10565b81815260059190911b830184019084810190888311156153b757600080fd5b8585015b838110156150ab578035858111156153d35760008081fd5b86016060818c03601f19018113156153eb5760008081fd5b6153f3614ebe565b89830135888111156154055760008081fd5b6154138e8c83870101614f33565b8252506040808401358b83015261542b838501614c48565b90820152855250509186019186016153bb565b6000806000806080858703121561545457600080fd5b61545d85614c48565b93506020850135925061547260408601614c48565b915061548060608601614c48565b905092959194509250565b6000806040838503121561549e57600080fd5b82356001600160401b038111156154b457600080fd5b6154c085828601614f33565b95602094909401359450505050565b600080604083850312156154e257600080fd5b823591506154f260208401614c48565b90509250929050565b60208082526058908201527f506f6c79676f6e5a6b45564d3a3a766572696679426174636865733a2070656e60408201527f64696e6753746174654e756d206d757374206265206c657373206f7220657175606082015277616c207468616e206c61737450656e64696e67537461746560401b608082015260a00190565b6020808252604c90820152600080516020615ded83398151915260408201527f744e756d4261746368206d757374206d61746368207468652070656e64696e6760608201526b040e6e8c2e8ca40c4c2e8c6d60a31b608082015260a00190565b6020808252604390820152600080516020615ded83398151915260408201527f744e756d426174636820737461746520726f6f7420646f6573206e6f742065786060820152621a5cdd60ea1b608082015260a00190565b6020808252605d90820152600080516020615ded83398151915260408201527f744e756d4261746368206d757374206265206c657373206f7220657175616c2060608201527f7468616e2063757272656e744c61737456657269666965644261746368000000608082015260a00190565b60208082526057908201527f506f6c79676f6e5a6b45564d3a3a766572696679426174636865733a2066696e60408201527f616c4e65774261746368206d75737420626520626967676572207468616e20636060820152760eae4e4cadce898c2e6e8accae4d2ccd2cac884c2e8c6d604b1b608082015260a00190565b60008251615730818460208701614cb9565b9190910192915050565b60006020828403121561574c57600080fd5b5051919050565b634e487b7160e01b600052601260045260246000fd5b60008261577857615778615753565b500690565b600181811c9082168061579157607f821691505b6020821081036157b157634e487b7160e01b600052602260045260246000fd5b50919050565b60208082526023908201527f506f6c79676f6e5a6b45564d3a3a6f6e6c7941646d696e3a204f6e6c7920616460408201526236b4b760e91b606082015260800190565b634e487b7160e01b600052601160045260246000fd5b60006001600160401b03808316818516808303821115615832576158326157fa565b01949350505050565b60208082526042908201527f456d657267656e63794d616e616765723a3a69664e6f74456d657267656e637960408201527f53746174653a206f6e6c79206966206e6f7420656d657267656e637920737461606082015261746560f01b608082015260a00190565b634e487b7160e01b600052603260045260246000fd5b60006001600160401b038083168181036158d5576158d56157fa565b6001019392505050565b928352602083019190915260c01b6001600160c01b031916604082015260480190565b9485526020850193909352604084019190915260c01b6001600160c01b0319166060808401919091521b6001600160601b0319166068820152607c0190565b600060018201615953576159536157fa565b5060010190565b60006001600160401b038381169083168181101561597a5761597a6157fa565b039392505050565b600082821015615994576159946157fa565b500390565b60008160001904831182151516156159b3576159b36157fa565b500290565b601f821115614a2857600081815260208120601f850160051c810160208610156159df5750805b601f850160051c820191505b81811015613fbd578281556001016159eb565b81516001600160401b03811115615a1757615a17614e80565b615a2b81615a25845461577d565b846159b8565b602080601f831160018114615a605760008415615a485750858301515b600019600386901b1c1916600185901b178555613fbd565b600085815260208120601f198616915b82811015615a8f57888601518255948401946001909101908401615a70565b5085821015615aad5787850151600019600388901b60f8161c191681555b5050505050600190811b01905550565b600082615acc57615acc615753565b500490565b60208082526043908201527f506f6c79676f6e5a6b45564d3a3a6973466f7263654261746368416c6c6f776560408201527f643a204f6e6c7920696620666f72636520626174636820697320617661696c61606082015262626c6560e81b608082015260a00190565b60008219821115615b4d57615b4d6157fa565b500190565b6020808252603b908201527f456d657267656e63794d616e616765723a3a6966456d657267656e637953746160408201527f74653a206f6e6c7920696620656d657267656e63792073746174650000000000606082015260800190565b6020808252603c908201527f506f6c79676f6e5a6b45564d3a3a6f6e6c79547275737465644167677265676160408201527f746f723a204f6e6c7920747275737465642061676772656761746f7200000000606082015260800190565b8381526001600160a01b0383166020820152606060408201819052600090615c3690830184614ce5565b95945050505050565b60006001600160401b0380841680615c5957615c59615753565b92169190910492915050565b61012081016040808784376000838201818152879190815b6002811015615c9d57848483379084018281529284019290600101615c7d565b5050828760c0870137610100850181815286935091505b6001811015615cd3578251825260209283019290910190600101615cb4565b50505095945050505050565b600060208284031215615cf157600080fd5b8151614d24816152ed565b600181815b80851115615d37578160001904821115615d1d57615d1d6157fa565b80851615615d2a57918102915b93841c9390800290615d01565b509250929050565b600082615d4e57506001614d3c565b81615d5b57506000614d3c565b8160018114615d715760028114615d7b57615d97565b6001915050614d3c565b60ff841115615d8c57615d8c6157fa565b50506001821b614d3c565b5060208310610133831016604e8410600b8410161715615dba575081810a614d3c565b615dc48383615cfc565b8060001904821115615dd857615dd86157fa565b029392505050565b6000614d248383615d3f56fe506f6c79676f6e5a6b45564d3a3a766572696679426174636865733a20696e69506f6c79676f6e5a6b45564d3a3a6163746976617465456d657267656e637953506f6c79676f6e5a6b45564d3a3a5f766572696679426174636865733a20696e506f6c79676f6e5a6b45564d3a3a5f70726f766544697374696e637450656e64506f6c79676f6e5a6b45564d3a3a73657175656e6365466f726365426174636830644e72e131a029b85045b68181585d2833e84879b9709143e1f593f0000001506f6c79676f6e5a6b45564d3a3a73657175656e6365426174636865733a2046a2646970667358221220b63cea079139581ba47aadd2bf125d95d7a7a0709a1f0e8aa234dabeebd8aeaa64736f6c634300080f0033",
  "linkReferences": {},
  "deployedLinkReferences": {}
}