{
  "_format": "hh-sol-artifact-1",
  "contractName": "PolygonZkEVMMock",
  "sourceName": "contracts/mocks/PolygonZkEVMMock.sol",
  "abi": [
    {
      "inputs": [
        {
          "internalType": "contract IPolygonZkEVMGlobalExitRoot",
          "name": "_globalExitRootManager",
          "type": "address"
        },
        {
          "internalType": "contract IERC20Upgradeable",
          "name": "_matic",
          "type": "address"
        },
        {
          "internalType": "contract IVerifierRollup",
          "name": "_rollupVerifier",
          "type": "address"
        },
        {
          "internalType": "contract IPolygonZkEVMBridge",
          "name": "_bridgeAddress",
          "type": "address"
        },
        {
          "internalType": "contract IHotShot",
          "name": "_hotShot",
          "type": "address"
        },
        {
          "internalType": "uint64",
          "name": "_chainID",
          "type": "uint64"
        },
        {
          "internalType": "uint64",
          "name": "_forkID",
          "type": "uint64"
        }
      ],
      "stateMutability": "nonpayable",
      "type": "constructor"
    },
    {
      "inputs": [],
      "name": "BatchAlreadyVerified",
      "type": "error"
    },
    {
      "inputs": [],
      "name": "BatchNotSequencedOrNotSequenceEnd",
      "type": "error"
    },
    {
      "inputs": [],
      "name": "ExceedMaxVerifyBatches",
      "type": "error"
    },
    {
      "inputs": [],
      "name": "FinalNumBatchBelowLastVerifiedBatch",
      "type": "error"
    },
    {
      "inputs": [],
      "name": "FinalNumBatchDoesNotMatchPendingState",
      "type": "error"
    },
    {
      "inputs": [],
      "name": "FinalPendingStateNumInvalid",
      "type": "error"
    },
    {
      "inputs": [],
      "name": "ForceBatchTimeoutNotExpired",
      "type": "error"
    },
    {
      "inputs": [],
      "name": "ForceBatchesOverflow",
      "type": "error"
    },
    {
      "inputs": [],
      "name": "ForcedDataDoesNotMatch",
      "type": "error"
    },
    {
      "inputs": [],
      "name": "GlobalExitRootNotExist",
      "type": "error"
    },
    {
      "inputs": [],
      "name": "HaltTimeoutNotExpired",
      "type": "error"
    },
    {
      "inputs": [],
      "name": "InitNumBatchAboveLastVerifiedBatch",
      "type": "error"
    },
    {
      "inputs": [],
      "name": "InitNumBatchDoesNotMatchPendingState",
      "type": "error"
    },
    {
      "inputs": [],
      "name": "InvalidProof",
      "type": "error"
    },
    {
      "inputs": [],
      "name": "InvalidRangeBatchTimeTarget",
      "type": "error"
    },
    {
      "inputs": [],
      "name": "InvalidRangeMultiplierBatchFee",
      "type": "error"
    },
    {
      "inputs": [],
      "name": "NewAccInputHashDoesNotExist",
      "type": "error"
    },
    {
      "inputs": [],
      "name": "NewPendingStateTimeoutMustBeLower",
      "type": "error"
    },
    {
      "inputs": [],
      "name": "NewTrustedAggregatorTimeoutMustBeLower",
      "type": "error"
    },
    {
      "inputs": [],
      "name": "NotEnoughMaticAmount",
      "type": "error"
    },
    {
      "inputs": [],
      "name": "OldAccInputHashDoesNotExist",
      "type": "error"
    },
    {
      "inputs": [],
      "name": "OldStateRootDoesNotExist",
      "type": "error"
    },
    {
      "inputs": [],
      "name": "OnlyAdmin",
      "type": "error"
    },
    {
      "inputs": [],
      "name": "OnlyEmergencyState",
      "type": "error"
    },
    {
      "inputs": [],
      "name": "OnlyNotEmergencyState",
      "type": "error"
    },
    {
      "inputs": [],
      "name": "OnlyPendingAdmin",
      "type": "error"
    },
    {
      "inputs": [],
      "name": "OnlyTrustedAggregator",
      "type": "error"
    },
    {
      "inputs": [],
      "name": "OnlyTrustedSequencer",
      "type": "error"
    },
    {
      "inputs": [],
      "name": "PendingStateDoesNotExist",
      "type": "error"
    },
    {
      "inputs": [],
      "name": "PendingStateInvalid",
      "type": "error"
    },
    {
      "inputs": [],
      "name": "PendingStateNotConsolidable",
      "type": "error"
    },
    {
      "inputs": [],
      "name": "PendingStateTimeoutExceedHaltAggregationTimeout",
      "type": "error"
    },
    {
      "inputs": [],
      "name": "SequenceZeroBatches",
      "type": "error"
    },
    {
      "inputs": [],
      "name": "SequencedTimestampBelowForcedTimestamp",
      "type": "error"
    },
    {
      "inputs": [],
      "name": "SequencedTimestampInvalid",
      "type": "error"
    },
    {
      "inputs": [],
      "name": "StoredRootMustBeDifferentThanNewRoot",
      "type": "error"
    },
    {
      "inputs": [],
      "name": "TransactionsLengthAboveMax",
      "type": "error"
    },
    {
      "inputs": [],
      "name": "TrustedAggregatorTimeoutExceedHaltAggregationTimeout",
      "type": "error"
    },
    {
      "inputs": [],
      "name": "TrustedAggregatorTimeoutNotExpired",
      "type": "error"
    },
    {
      "anonymous": false,
      "inputs": [
        {
          "indexed": false,
          "internalType": "address",
          "name": "newAdmin",
          "type": "address"
        }
      ],
      "name": "AcceptAdminRole",
      "type": "event"
    },
    {
      "anonymous": false,
      "inputs": [
        {
          "indexed": true,
          "internalType": "uint64",
          "name": "numBatch",
          "type": "uint64"
        },
        {
          "indexed": false,
          "internalType": "bytes32",
          "name": "stateRoot",
          "type": "bytes32"
        },
        {
          "indexed": true,
          "internalType": "uint64",
          "name": "pendingStateNum",
          "type": "uint64"
        }
      ],
      "name": "ConsolidatePendingState",
      "type": "event"
    },
    {
      "anonymous": false,
      "inputs": [],
      "name": "EmergencyStateActivated",
      "type": "event"
    },
    {
      "anonymous": false,
      "inputs": [],
      "name": "EmergencyStateDeactivated",
      "type": "event"
    },
    {
      "anonymous": false,
      "inputs": [
        {
          "indexed": true,
          "internalType": "uint64",
          "name": "forceBatchNum",
          "type": "uint64"
        },
        {
          "indexed": false,
          "internalType": "bytes32",
          "name": "lastGlobalExitRoot",
          "type": "bytes32"
        },
        {
          "indexed": false,
          "internalType": "address",
          "name": "sequencer",
          "type": "address"
        },
        {
          "indexed": false,
          "internalType": "bytes",
          "name": "transactions",
          "type": "bytes"
        }
      ],
      "name": "ForceBatch",
      "type": "event"
    },
    {
      "anonymous": false,
      "inputs": [
        {
          "indexed": false,
          "internalType": "uint8",
          "name": "version",
          "type": "uint8"
        }
      ],
      "name": "Initialized",
      "type": "event"
    },
    {
      "anonymous": false,
      "inputs": [
        {
          "indexed": true,
          "internalType": "uint64",
          "name": "numBatch",
          "type": "uint64"
        },
        {
          "indexed": false,
          "internalType": "bytes32",
          "name": "stateRoot",
          "type": "bytes32"
        },
        {
          "indexed": true,
          "internalType": "address",
          "name": "aggregator",
          "type": "address"
        }
      ],
      "name": "OverridePendingState",
      "type": "event"
    },
    {
      "anonymous": false,
      "inputs": [
        {
          "indexed": true,
          "internalType": "address",
          "name": "previousOwner",
          "type": "address"
        },
        {
          "indexed": true,
          "internalType": "address",
          "name": "newOwner",
          "type": "address"
        }
      ],
      "name": "OwnershipTransferred",
      "type": "event"
    },
    {
      "anonymous": false,
      "inputs": [
        {
          "indexed": false,
          "internalType": "bytes32",
          "name": "storedStateRoot",
          "type": "bytes32"
        },
        {
          "indexed": false,
          "internalType": "bytes32",
          "name": "provedStateRoot",
          "type": "bytes32"
        }
      ],
      "name": "ProveNonDeterministicPendingState",
      "type": "event"
    },
    {
      "anonymous": false,
      "inputs": [
        {
          "indexed": true,
          "internalType": "uint64",
          "name": "numBatch",
          "type": "uint64"
        }
      ],
      "name": "SequenceBatches",
      "type": "event"
    },
    {
      "anonymous": false,
      "inputs": [
        {
          "indexed": true,
          "internalType": "uint64",
          "name": "numBatch",
          "type": "uint64"
        }
      ],
      "name": "SequenceForceBatches",
      "type": "event"
    },
    {
      "anonymous": false,
      "inputs": [
        {
          "indexed": false,
          "internalType": "uint16",
          "name": "newMultiplierBatchFee",
          "type": "uint16"
        }
      ],
      "name": "SetMultiplierBatchFee",
      "type": "event"
    },
    {
      "anonymous": false,
      "inputs": [
        {
          "indexed": false,
          "internalType": "uint64",
          "name": "newPendingStateTimeout",
          "type": "uint64"
        }
      ],
      "name": "SetPendingStateTimeout",
      "type": "event"
    },
    {
      "anonymous": false,
      "inputs": [
        {
          "indexed": false,
          "internalType": "address",
          "name": "newTrustedAggregator",
          "type": "address"
        }
      ],
      "name": "SetTrustedAggregator",
      "type": "event"
    },
    {
      "anonymous": false,
      "inputs": [
        {
          "indexed": false,
          "internalType": "uint64",
          "name": "newTrustedAggregatorTimeout",
          "type": "uint64"
        }
      ],
      "name": "SetTrustedAggregatorTimeout",
      "type": "event"
    },
    {
      "anonymous": false,
      "inputs": [
        {
          "indexed": false,
          "internalType": "address",
          "name": "newTrustedSequencer",
          "type": "address"
        }
      ],
      "name": "SetTrustedSequencer",
      "type": "event"
    },
    {
      "anonymous": false,
      "inputs": [
        {
          "indexed": false,
          "internalType": "string",
          "name": "newTrustedSequencerURL",
          "type": "string"
        }
      ],
      "name": "SetTrustedSequencerURL",
      "type": "event"
    },
    {
      "anonymous": false,
      "inputs": [
        {
          "indexed": false,
          "internalType": "uint64",
          "name": "newVerifyBatchTimeTarget",
          "type": "uint64"
        }
      ],
      "name": "SetVerifyBatchTimeTarget",
      "type": "event"
    },
    {
      "anonymous": false,
      "inputs": [
        {
          "indexed": false,
          "internalType": "address",
          "name": "newPendingAdmin",
          "type": "address"
        }
      ],
      "name": "TransferAdminRole",
      "type": "event"
    },
    {
      "anonymous": false,
      "inputs": [
        {
          "indexed": false,
          "internalType": "uint64",
          "name": "numBatch",
          "type": "uint64"
        },
        {
          "indexed": false,
          "internalType": "uint64",
          "name": "forkID",
          "type": "uint64"
        },
        {
          "indexed": false,
          "internalType": "string",
          "name": "version",
          "type": "string"
        }
      ],
      "name": "UpdateZkEVMVersion",
      "type": "event"
    },
    {
      "anonymous": false,
      "inputs": [
        {
          "indexed": true,
          "internalType": "uint64",
          "name": "numBatch",
          "type": "uint64"
        },
        {
          "indexed": false,
          "internalType": "bytes32",
          "name": "stateRoot",
          "type": "bytes32"
        },
        {
          "indexed": true,
          "internalType": "address",
          "name": "aggregator",
          "type": "address"
        }
      ],
      "name": "VerifyBatches",
      "type": "event"
    },
    {
      "anonymous": false,
      "inputs": [
        {
          "indexed": true,
          "internalType": "uint64",
          "name": "numBatch",
          "type": "uint64"
        },
        {
          "indexed": false,
          "internalType": "bytes32",
          "name": "stateRoot",
          "type": "bytes32"
        },
        {
          "indexed": true,
          "internalType": "address",
          "name": "aggregator",
          "type": "address"
        }
      ],
      "name": "VerifyBatchesTrustedAggregator",
      "type": "event"
    },
    {
      "inputs": [],
      "name": "acceptAdminRole",
      "outputs": [],
      "stateMutability": "nonpayable",
      "type": "function"
    },
    {
      "inputs": [
        {
          "internalType": "uint64",
          "name": "sequencedBatchNum",
          "type": "uint64"
        }
      ],
      "name": "activateEmergencyState",
      "outputs": [],
      "stateMutability": "nonpayable",
      "type": "function"
    },
    {
      "inputs": [],
      "name": "admin",
      "outputs": [
        {
          "internalType": "address",
          "name": "",
          "type": "address"
        }
      ],
      "stateMutability": "view",
      "type": "function"
    },
    {
      "inputs": [],
      "name": "batchFee",
      "outputs": [
        {
          "internalType": "uint256",
          "name": "",
          "type": "uint256"
        }
      ],
      "stateMutability": "view",
      "type": "function"
    },
    {
      "inputs": [
        {
          "internalType": "uint64",
          "name": "",
          "type": "uint64"
        }
      ],
      "name": "batchNumToStateRoot",
      "outputs": [
        {
          "internalType": "bytes32",
          "name": "",
          "type": "bytes32"
        }
      ],
      "stateMutability": "view",
      "type": "function"
    },
    {
      "inputs": [],
      "name": "bridgeAddress",
      "outputs": [
        {
          "internalType": "contract IPolygonZkEVMBridge",
          "name": "",
          "type": "address"
        }
      ],
      "stateMutability": "view",
      "type": "function"
    },
    {
      "inputs": [
        {
          "internalType": "bytes32",
          "name": "currentAccInputHash",
          "type": "bytes32"
        },
        {
          "internalType": "bytes",
          "name": "transactions",
          "type": "bytes"
        },
        {
          "internalType": "bytes32",
          "name": "globalExitRoot",
          "type": "bytes32"
        },
        {
          "internalType": "uint64",
          "name": "timestamp",
          "type": "uint64"
        },
        {
          "internalType": "address",
          "name": "sequencerAddress",
          "type": "address"
        }
      ],
      "name": "calculateAccInputHash",
      "outputs": [
        {
          "internalType": "bytes32",
          "name": "",
          "type": "bytes32"
        }
      ],
      "stateMutability": "pure",
      "type": "function"
    },
    {
      "inputs": [],
      "name": "calculateRewardPerBatch",
      "outputs": [
        {
          "internalType": "uint256",
          "name": "",
          "type": "uint256"
        }
      ],
      "stateMutability": "view",
      "type": "function"
    },
    {
      "inputs": [],
      "name": "chainID",
      "outputs": [
        {
          "internalType": "uint64",
          "name": "",
          "type": "uint64"
        }
      ],
      "stateMutability": "view",
      "type": "function"
    },
    {
      "inputs": [
        {
          "internalType": "uint64",
          "name": "pendingStateNum",
          "type": "uint64"
        }
      ],
      "name": "consolidatePendingState",
      "outputs": [],
      "stateMutability": "nonpayable",
      "type": "function"
    },
    {
      "inputs": [],
      "name": "deactivateEmergencyState",
      "outputs": [],
      "stateMutability": "nonpayable",
      "type": "function"
    },
    {
      "inputs": [
        {
          "internalType": "uint64",
          "name": "",
          "type": "uint64"
        }
      ],
      "name": "forcedBatches",
      "outputs": [
        {
          "internalType": "bytes32",
          "name": "",
          "type": "bytes32"
        }
      ],
      "stateMutability": "view",
      "type": "function"
    },
    {
      "inputs": [],
      "name": "forkID",
      "outputs": [
        {
          "internalType": "uint64",
          "name": "",
          "type": "uint64"
        }
      ],
      "stateMutability": "view",
      "type": "function"
    },
    {
      "inputs": [],
      "name": "getCurrentBatchFee",
      "outputs": [
        {
          "internalType": "uint256",
          "name": "",
          "type": "uint256"
        }
      ],
      "stateMutability": "view",
      "type": "function"
    },
    {
      "inputs": [
        {
          "internalType": "uint64",
          "name": "initNumBatch",
          "type": "uint64"
        },
        {
          "internalType": "uint64",
          "name": "finalNewBatch",
          "type": "uint64"
        },
        {
          "internalType": "bytes32",
          "name": "newLocalExitRoot",
          "type": "bytes32"
        },
        {
          "internalType": "bytes32",
          "name": "oldStateRoot",
          "type": "bytes32"
        },
        {
          "internalType": "bytes32",
          "name": "newStateRoot",
          "type": "bytes32"
        }
      ],
      "name": "getInputSnarkBytes",
      "outputs": [
        {
          "internalType": "bytes",
          "name": "",
          "type": "bytes"
        }
      ],
      "stateMutability": "view",
      "type": "function"
    },
    {
      "inputs": [],
      "name": "getLastVerifiedBatch",
      "outputs": [
        {
          "internalType": "uint64",
          "name": "",
          "type": "uint64"
        }
      ],
      "stateMutability": "view",
      "type": "function"
    },
    {
      "inputs": [
        {
          "internalType": "uint64",
          "name": "pendingStateNum",
          "type": "uint64"
        },
        {
          "internalType": "uint64",
          "name": "initNumBatch",
          "type": "uint64"
        },
        {
          "internalType": "uint64",
          "name": "finalNewBatch",
          "type": "uint64"
        },
        {
          "internalType": "bytes32",
          "name": "newLocalExitRoot",
          "type": "bytes32"
        },
        {
          "internalType": "bytes32",
          "name": "newStateRoot",
          "type": "bytes32"
        }
      ],
      "name": "getNextSnarkInput",
      "outputs": [
        {
          "internalType": "uint256",
          "name": "",
          "type": "uint256"
        }
      ],
      "stateMutability": "view",
      "type": "function"
    },
    {
      "inputs": [],
      "name": "globalExitRootManager",
      "outputs": [
        {
          "internalType": "contract IPolygonZkEVMGlobalExitRoot",
          "name": "",
          "type": "address"
        }
      ],
      "stateMutability": "view",
      "type": "function"
    },
    {
      "inputs": [],
      "name": "hotShot",
      "outputs": [
        {
          "internalType": "contract IHotShot",
          "name": "",
          "type": "address"
        }
      ],
      "stateMutability": "view",
      "type": "function"
    },
    {
      "inputs": [
        {
          "components": [
            {
              "internalType": "address",
              "name": "admin",
              "type": "address"
            },
            {
              "internalType": "address",
              "name": "trustedSequencer",
              "type": "address"
            },
            {
              "internalType": "uint64",
              "name": "pendingStateTimeout",
              "type": "uint64"
            },
            {
              "internalType": "address",
              "name": "trustedAggregator",
              "type": "address"
            },
            {
              "internalType": "uint64",
              "name": "trustedAggregatorTimeout",
              "type": "uint64"
            }
          ],
          "internalType": "struct PolygonZkEVM.InitializePackedParameters",
          "name": "initializePackedParameters",
          "type": "tuple"
        },
        {
          "internalType": "bytes32",
          "name": "genesisRoot",
          "type": "bytes32"
        },
        {
          "internalType": "string",
          "name": "_trustedSequencerURL",
          "type": "string"
        },
        {
          "internalType": "string",
          "name": "_networkName",
          "type": "string"
        },
        {
          "internalType": "string",
          "name": "_version",
          "type": "string"
        }
      ],
      "name": "initialize",
      "outputs": [],
      "stateMutability": "nonpayable",
      "type": "function"
    },
    {
      "inputs": [],
      "name": "isEmergencyState",
      "outputs": [
        {
          "internalType": "bool",
          "name": "",
          "type": "bool"
        }
      ],
      "stateMutability": "view",
      "type": "function"
    },
    {
      "inputs": [
        {
          "internalType": "uint64",
          "name": "pendingStateNum",
          "type": "uint64"
        }
      ],
      "name": "isPendingStateConsolidable",
      "outputs": [
        {
          "internalType": "bool",
          "name": "",
          "type": "bool"
        }
      ],
      "stateMutability": "view",
      "type": "function"
    },
    {
      "inputs": [],
      "name": "lastBatchSequenced",
      "outputs": [
        {
          "internalType": "uint64",
          "name": "",
          "type": "uint64"
        }
      ],
      "stateMutability": "view",
      "type": "function"
    },
    {
      "inputs": [],
      "name": "lastForceBatch",
      "outputs": [
        {
          "internalType": "uint64",
          "name": "",
          "type": "uint64"
        }
      ],
      "stateMutability": "view",
      "type": "function"
    },
    {
      "inputs": [],
      "name": "lastForceBatchSequenced",
      "outputs": [
        {
          "internalType": "uint64",
          "name": "",
          "type": "uint64"
        }
      ],
      "stateMutability": "view",
      "type": "function"
    },
    {
      "inputs": [],
      "name": "lastPendingState",
      "outputs": [
        {
          "internalType": "uint64",
          "name": "",
          "type": "uint64"
        }
      ],
      "stateMutability": "view",
      "type": "function"
    },
    {
      "inputs": [],
      "name": "lastPendingStateConsolidated",
      "outputs": [
        {
          "internalType": "uint64",
          "name": "",
          "type": "uint64"
        }
      ],
      "stateMutability": "view",
      "type": "function"
    },
    {
      "inputs": [],
      "name": "lastTimestamp",
      "outputs": [
        {
          "internalType": "uint64",
          "name": "",
          "type": "uint64"
        }
      ],
      "stateMutability": "view",
      "type": "function"
    },
    {
      "inputs": [],
      "name": "lastVerifiedBatch",
      "outputs": [
        {
          "internalType": "uint64",
          "name": "",
          "type": "uint64"
        }
      ],
      "stateMutability": "view",
      "type": "function"
    },
    {
      "inputs": [],
      "name": "matic",
      "outputs": [
        {
          "internalType": "contract IERC20Upgradeable",
          "name": "",
          "type": "address"
        }
      ],
      "stateMutability": "view",
      "type": "function"
    },
    {
      "inputs": [],
      "name": "multiplierBatchFee",
      "outputs": [
        {
          "internalType": "uint16",
          "name": "",
          "type": "uint16"
        }
      ],
      "stateMutability": "view",
      "type": "function"
    },
    {
      "inputs": [],
      "name": "networkName",
      "outputs": [
        {
          "internalType": "string",
          "name": "",
          "type": "string"
        }
      ],
      "stateMutability": "view",
      "type": "function"
    },
    {
      "inputs": [
        {
          "internalType": "uint64",
          "name": "initPendingStateNum",
          "type": "uint64"
        },
        {
          "internalType": "uint64",
          "name": "finalPendingStateNum",
          "type": "uint64"
        },
        {
          "internalType": "uint64",
          "name": "initNumBatch",
          "type": "uint64"
        },
        {
          "internalType": "uint64",
          "name": "finalNewBatch",
          "type": "uint64"
        },
        {
          "internalType": "bytes32",
          "name": "newLocalExitRoot",
          "type": "bytes32"
        },
        {
          "internalType": "bytes32",
          "name": "newStateRoot",
          "type": "bytes32"
        },
        {
          "internalType": "uint256[2]",
          "name": "proofA",
          "type": "uint256[2]"
        },
        {
          "internalType": "uint256[2][2]",
          "name": "proofB",
          "type": "uint256[2][2]"
        },
        {
          "internalType": "uint256[2]",
          "name": "proofC",
          "type": "uint256[2]"
        }
      ],
      "name": "overridePendingState",
      "outputs": [],
      "stateMutability": "nonpayable",
      "type": "function"
    },
    {
      "inputs": [],
      "name": "owner",
      "outputs": [
        {
          "internalType": "address",
          "name": "",
          "type": "address"
        }
      ],
      "stateMutability": "view",
      "type": "function"
    },
    {
      "inputs": [],
      "name": "pendingAdmin",
      "outputs": [
        {
          "internalType": "address",
          "name": "",
          "type": "address"
        }
      ],
      "stateMutability": "view",
      "type": "function"
    },
    {
      "inputs": [],
      "name": "pendingStateTimeout",
      "outputs": [
        {
          "internalType": "uint64",
          "name": "",
          "type": "uint64"
        }
      ],
      "stateMutability": "view",
      "type": "function"
    },
    {
      "inputs": [
        {
          "internalType": "uint256",
          "name": "",
          "type": "uint256"
        }
      ],
      "name": "pendingStateTransitions",
      "outputs": [
        {
          "internalType": "uint64",
          "name": "timestamp",
          "type": "uint64"
        },
        {
          "internalType": "uint64",
          "name": "lastVerifiedBatch",
          "type": "uint64"
        },
        {
          "internalType": "bytes32",
          "name": "exitRoot",
          "type": "bytes32"
        },
        {
          "internalType": "bytes32",
          "name": "stateRoot",
          "type": "bytes32"
        }
      ],
      "stateMutability": "view",
      "type": "function"
    },
    {
      "inputs": [
        {
          "internalType": "uint64",
          "name": "initPendingStateNum",
          "type": "uint64"
        },
        {
          "internalType": "uint64",
          "name": "finalPendingStateNum",
          "type": "uint64"
        },
        {
          "internalType": "uint64",
          "name": "initNumBatch",
          "type": "uint64"
        },
        {
          "internalType": "uint64",
          "name": "finalNewBatch",
          "type": "uint64"
        },
        {
          "internalType": "bytes32",
          "name": "newLocalExitRoot",
          "type": "bytes32"
        },
        {
          "internalType": "bytes32",
          "name": "newStateRoot",
          "type": "bytes32"
        },
        {
          "internalType": "uint256[2]",
          "name": "proofA",
          "type": "uint256[2]"
        },
        {
          "internalType": "uint256[2][2]",
          "name": "proofB",
          "type": "uint256[2][2]"
        },
        {
          "internalType": "uint256[2]",
          "name": "proofC",
          "type": "uint256[2]"
        }
      ],
      "name": "proveNonDeterministicPendingState",
      "outputs": [],
      "stateMutability": "nonpayable",
      "type": "function"
    },
    {
      "inputs": [],
      "name": "renounceOwnership",
      "outputs": [],
      "stateMutability": "nonpayable",
      "type": "function"
    },
    {
      "inputs": [],
      "name": "rollupVerifier",
      "outputs": [
        {
          "internalType": "contract IVerifierRollup",
          "name": "",
          "type": "address"
        }
      ],
      "stateMutability": "view",
      "type": "function"
    },
    {
      "inputs": [
        {
          "internalType": "uint64",
          "name": "",
          "type": "uint64"
        }
      ],
      "name": "sequencedBatches",
      "outputs": [
        {
          "internalType": "bytes32",
          "name": "accInputHash",
          "type": "bytes32"
        },
        {
          "internalType": "uint64",
          "name": "sequencedTimestamp",
          "type": "uint64"
        },
        {
          "internalType": "uint64",
          "name": "previousLastBatchSequenced",
          "type": "uint64"
        }
      ],
      "stateMutability": "view",
      "type": "function"
    },
    {
      "inputs": [
        {
          "internalType": "uint16",
          "name": "newMultiplierBatchFee",
          "type": "uint16"
        }
      ],
      "name": "setMultiplierBatchFee",
      "outputs": [],
      "stateMutability": "nonpayable",
      "type": "function"
    },
    {
      "inputs": [
        {
          "internalType": "string",
          "name": "_networkName",
          "type": "string"
        }
      ],
      "name": "setNetworkName",
      "outputs": [],
      "stateMutability": "nonpayable",
      "type": "function"
    },
    {
      "inputs": [
        {
          "internalType": "uint64",
          "name": "newPendingStateTimeout",
          "type": "uint64"
        }
      ],
      "name": "setPendingStateTimeout",
      "outputs": [],
      "stateMutability": "nonpayable",
      "type": "function"
    },
    {
      "inputs": [
        {
          "internalType": "uint64",
          "name": "_numBatch",
          "type": "uint64"
        }
      ],
      "name": "setSequencedBatch",
      "outputs": [],
      "stateMutability": "nonpayable",
      "type": "function"
    },
    {
      "inputs": [
        {
          "internalType": "uint64",
          "name": "batchNum",
          "type": "uint64"
        },
        {
          "internalType": "bytes32",
          "name": "accInputData",
          "type": "bytes32"
        },
        {
          "internalType": "uint64",
          "name": "timestamp",
          "type": "uint64"
        },
        {
          "internalType": "uint64",
          "name": "lastPendingStateConsolidated",
          "type": "uint64"
        }
      ],
      "name": "setSequencedBatches",
      "outputs": [],
      "stateMutability": "nonpayable",
      "type": "function"
    },
    {
      "inputs": [
        {
          "internalType": "bytes32",
          "name": "newStateRoot",
          "type": "bytes32"
        },
        {
          "internalType": "uint64",
          "name": "batchNum",
          "type": "uint64"
        }
      ],
      "name": "setStateRoot",
      "outputs": [],
      "stateMutability": "nonpayable",
      "type": "function"
    },
    {
      "inputs": [
        {
          "internalType": "address",
          "name": "newTrustedAggregator",
          "type": "address"
        }
      ],
      "name": "setTrustedAggregator",
      "outputs": [],
      "stateMutability": "nonpayable",
      "type": "function"
    },
    {
      "inputs": [
        {
          "internalType": "uint64",
          "name": "newTrustedAggregatorTimeout",
          "type": "uint64"
        }
      ],
      "name": "setTrustedAggregatorTimeout",
      "outputs": [],
      "stateMutability": "nonpayable",
      "type": "function"
    },
    {
      "inputs": [
        {
          "internalType": "address",
          "name": "newTrustedSequencer",
          "type": "address"
        }
      ],
      "name": "setTrustedSequencer",
      "outputs": [],
      "stateMutability": "nonpayable",
      "type": "function"
    },
    {
      "inputs": [
        {
          "internalType": "string",
          "name": "newTrustedSequencerURL",
          "type": "string"
        }
      ],
      "name": "setTrustedSequencerURL",
      "outputs": [],
      "stateMutability": "nonpayable",
      "type": "function"
    },
    {
      "inputs": [
        {
          "internalType": "uint64",
          "name": "_numBatch",
          "type": "uint64"
        }
      ],
      "name": "setVerifiedBatch",
      "outputs": [],
      "stateMutability": "nonpayable",
      "type": "function"
    },
    {
      "inputs": [
        {
          "internalType": "uint64",
          "name": "newVerifyBatchTimeTarget",
          "type": "uint64"
        }
      ],
      "name": "setVerifyBatchTimeTarget",
      "outputs": [],
      "stateMutability": "nonpayable",
      "type": "function"
    },
    {
      "inputs": [
        {
          "internalType": "address",
          "name": "newPendingAdmin",
          "type": "address"
        }
      ],
      "name": "transferAdminRole",
      "outputs": [],
      "stateMutability": "nonpayable",
      "type": "function"
    },
    {
      "inputs": [
        {
          "internalType": "address",
          "name": "newOwner",
          "type": "address"
        }
      ],
      "name": "transferOwnership",
      "outputs": [],
      "stateMutability": "nonpayable",
      "type": "function"
    },
    {
      "inputs": [],
      "name": "trustedAggregator",
      "outputs": [
        {
          "internalType": "address",
          "name": "",
          "type": "address"
        }
      ],
      "stateMutability": "view",
      "type": "function"
    },
    {
      "inputs": [],
      "name": "trustedAggregatorTimeout",
      "outputs": [
        {
          "internalType": "uint64",
          "name": "",
          "type": "uint64"
        }
      ],
      "stateMutability": "view",
      "type": "function"
    },
    {
      "inputs": [],
      "name": "trustedSequencer",
      "outputs": [
        {
          "internalType": "address",
          "name": "",
          "type": "address"
        }
      ],
      "stateMutability": "view",
      "type": "function"
    },
    {
      "inputs": [],
      "name": "trustedSequencerURL",
      "outputs": [
        {
          "internalType": "string",
          "name": "",
          "type": "string"
        }
      ],
      "stateMutability": "view",
      "type": "function"
    },
    {
      "inputs": [
        {
          "internalType": "uint64",
          "name": "pendingStateNum",
          "type": "uint64"
        },
        {
          "internalType": "uint64",
          "name": "initNumBatch",
          "type": "uint64"
        },
        {
          "internalType": "uint64",
          "name": "finalNewBatch",
          "type": "uint64"
        },
        {
          "internalType": "bytes32",
          "name": "newLocalExitRoot",
          "type": "bytes32"
        },
        {
          "internalType": "bytes32",
          "name": "newStateRoot",
          "type": "bytes32"
        },
        {
          "internalType": "uint256[2]",
          "name": "proofA",
          "type": "uint256[2]"
        },
        {
          "internalType": "uint256[2][2]",
          "name": "proofB",
          "type": "uint256[2][2]"
        },
        {
          "internalType": "uint256[2]",
          "name": "proofC",
          "type": "uint256[2]"
        }
      ],
      "name": "trustedVerifyBatchesMock",
      "outputs": [],
      "stateMutability": "nonpayable",
      "type": "function"
    },
    {
      "inputs": [
        {
          "internalType": "uint64",
          "name": "newLastVerifiedBatch",
          "type": "uint64"
        }
      ],
      "name": "updateBatchFee",
      "outputs": [],
      "stateMutability": "nonpayable",
      "type": "function"
    },
    {
      "inputs": [],
      "name": "verifyBatchTimeTarget",
      "outputs": [
        {
          "internalType": "uint64",
          "name": "",
          "type": "uint64"
        }
      ],
      "stateMutability": "view",
      "type": "function"
    },
    {
      "inputs": [
        {
          "internalType": "uint64",
          "name": "pendingStateNum",
          "type": "uint64"
        },
        {
          "internalType": "uint64",
          "name": "initNumBatch",
          "type": "uint64"
        },
        {
          "internalType": "uint64",
          "name": "finalNewBatch",
          "type": "uint64"
        },
        {
          "internalType": "bytes32",
          "name": "newLocalExitRoot",
          "type": "bytes32"
        },
        {
          "internalType": "bytes32",
          "name": "newStateRoot",
          "type": "bytes32"
        },
        {
          "internalType": "uint256[2]",
          "name": "proofA",
          "type": "uint256[2]"
        },
        {
          "internalType": "uint256[2][2]",
          "name": "proofB",
          "type": "uint256[2][2]"
        },
        {
          "internalType": "uint256[2]",
          "name": "proofC",
          "type": "uint256[2]"
        },
        {
          "components": [
            {
              "internalType": "bytes32",
              "name": "oldAccInputHash",
              "type": "bytes32"
            },
            {
              "internalType": "bytes32",
              "name": "newAccInputHash",
              "type": "bytes32"
            },
            {
              "internalType": "bytes",
              "name": "commProof",
              "type": "bytes"
            }
          ],
          "internalType": "struct PolygonZkEVM.HotShotParameters",
          "name": "packed",
          "type": "tuple"
        }
      ],
      "name": "verifyBatches",
      "outputs": [],
      "stateMutability": "nonpayable",
      "type": "function"
    },
    {
      "inputs": [
        {
          "internalType": "uint64",
          "name": "pendingStateNum",
          "type": "uint64"
        },
        {
          "internalType": "uint64",
          "name": "initNumBatch",
          "type": "uint64"
        },
        {
          "internalType": "uint64",
          "name": "finalNewBatch",
          "type": "uint64"
        },
        {
          "internalType": "bytes32",
          "name": "newLocalExitRoot",
          "type": "bytes32"
        },
        {
          "internalType": "bytes32",
          "name": "newStateRoot",
          "type": "bytes32"
        },
        {
          "internalType": "bytes32",
          "name": "oldAccInputHash",
          "type": "bytes32"
        },
        {
          "internalType": "bytes32",
          "name": "newAccInputHash",
          "type": "bytes32"
        },
        {
          "internalType": "uint256[2]",
          "name": "proofA",
          "type": "uint256[2]"
        },
        {
          "internalType": "uint256[2][2]",
          "name": "proofB",
          "type": "uint256[2][2]"
        },
        {
          "internalType": "uint256[2]",
          "name": "proofC",
          "type": "uint256[2]"
        },
        {
          "internalType": "bytes",
          "name": "commProof",
          "type": "bytes"
        }
      ],
      "name": "verifyBatchesTrustedAggregator",
      "outputs": [],
      "stateMutability": "nonpayable",
      "type": "function"
    }
  ],
  "bytecode": "0x6101606040523480156200001257600080fd5b5060405162004630380380620046308339810160408190526200003591620000ac565b6001600160a01b0396871660c05294861660805292851660a05290841660e052909216610100526001600160401b039182166101205216610140526200014f565b6001600160a01b03811681146200008c57600080fd5b50565b80516001600160401b0381168114620000a757600080fd5b919050565b600080600080600080600060e0888a031215620000c857600080fd5b8751620000d58162000076565b6020890151909750620000e88162000076565b6040890151909650620000fb8162000076565b60608901519095506200010e8162000076565b6080890151909450620001218162000076565b92506200013160a089016200008f565b91506200014160c089016200008f565b905092959891949750929550565b60805160a05160c05160e05161010051610120516101405161440862000228600039600081816106380152818161101201528181611ee701526132930152600081816107a901528181610ff1015261327201526000818161059d01528181612bf60152612c9501526000818161075c0152818161214601526126eb0152600081816108da01528181610e120152818161193e01528181612066015281816122d501526125dd015260008181610989015281816129b40152612da501526000818161086b0152818161150a0152612e7201526144086000f3fe608060405234801561001057600080fd5b50600436106103505760003560e01c806396dc3d39116101bf578063c89e42df116100fa578063e11f3f181161009d578063e11f3f1814610957578063e7a7ed021461096a578063e8bf92ed14610984578063f14916d6146109ab578063f2fde38b146109be578063f851a440146109d1578063f8b823e4146109e4578063fe16564f146109ed57600080fd5b8063c89e42df146108a8578063cfa8ed47146108bb578063d02103ca146108d5578063d2e129f9146108fc578063d939b3151461090f578063d979413614610929578063dbc169761461093c578063e0d174411461094457600080fd5b8063ada8f91911610162578063ada8f91914610791578063adc879e9146107a4578063afd23cbe146107cb578063b4d63f58146107f3578063b4f77ea914610853578063b6b0b09714610866578063c0cad3021461088d578063c0ed84e0146108a057600080fd5b806396dc3d39146106fb57806399f5634e1461070e5780639b796760146107165780639c9f3dfe146107295780639f0d039d1461073c578063a066215c14610744578063a3c573eb14610757578063aba576f11461077e57600080fd5b80634a910e6a1161028f5780637215541a116102325780637215541a146105fa57806375c508b31461060d5780637fcb365314610620578063831c7ead14610633578063837a47381461065a578063841b24d7146106c85780638c3d7301146106e25780638da5cb5b146106ea57600080fd5b80634a910e6a146104ec5780635392c5e0146104ff578063542028d51461051f578063574f649e146105275780636375e13c146105985780636b8616ce146105bf5780636ff512cc146105df578063715018a6146105f257600080fd5b806326782247116102f7578063267822471461042b578063298789831461044b578063383b3be814610465578063394218e914610478578063423fa8561461048b57806345605267146104a5578063458c0477146104bf5780634a1a89a7146104d257600080fd5b80630a0d9fbe146103555780630eaa86ea1461038a578063107bf28c146103ab57806310a01a72146103c057806315064c96146103d55780631816b7e5146103f257806319d8ac6114610405578063220d789914610418575b600080fd5b606f5461036d9061010090046001600160401b031681565b6040516001600160401b0390911681526020015b60405180910390f35b61039d6103983660046135c3565b610a00565b604051908152602001610381565b6103b3610bcf565b6040516103819190613668565b6103d36103ce3660046136aa565b610c5d565b005b606f546103e29060ff1681565b6040519015158152602001610381565b6103d3610400366004613737565b610ec3565b60735461036d906001600160401b031681565b6103b361042636600461375b565b610f7c565b607b5461043e906001600160a01b031681565b60405161038191906137a8565b60745461043e90600160401b90046001600160a01b031681565b6103e26104733660046137bc565b61106a565b6103d36104863660046137bc565b6110b1565b60735461036d90600160401b90046001600160401b031681565b60735461036d90600160801b90046001600160401b031681565b60795461036d906001600160401b031681565b60795461036d90600160401b90046001600160401b031681565b6103d36104fa3660046137bc565b61119f565b61039d61050d3660046137bc565b60756020526000908152604090205481565b6103b361120e565b61039d610535366004613890565b835160209485012060408051808701979097528681019190915260608087019490945260c09290921b6001600160c01b031916608086015290911b6001600160601b03191660888401528051808403607c018152609c9093019052815191012090565b61043e7f000000000000000000000000000000000000000000000000000000000000000081565b61039d6105cd3660046137bc565b60716020526000908152604090205481565b6103d36105ed366004613901565b61121b565b6103d361129a565b6103d36106083660046137bc565b6112ae565b6103d361061b36600461391c565b6113bb565b60745461036d906001600160401b031681565b61036d7f000000000000000000000000000000000000000000000000000000000000000081565b61069d6106683660046139ba565b6078602052600090815260409020805460018201546002909201546001600160401b0380831693600160401b90930416919084565b604080516001600160401b039586168152949093166020850152918301526060820152608001610381565b60795461036d90600160c01b90046001600160401b031681565b6103d3611456565b6033546001600160a01b031661043e565b6103d36107093660046137bc565b6114da565b61039d611505565b6103d36107243660046137bc565b611612565b6103d36107373660046137bc565b611647565b60705461039d565b6103d36107523660046137bc565b61173a565b61043e7f000000000000000000000000000000000000000000000000000000000000000081565b6103d361078c3660046139d3565b6117e9565b6103d361079f366004613901565b611aa4565b61036d7f000000000000000000000000000000000000000000000000000000000000000081565b606f546107e090600160481b900461ffff1681565b60405161ffff9091168152602001610381565b61082e6108013660046137bc565b607260205260009081526040902080546001909101546001600160401b0380821691600160401b90041683565b604080519384526001600160401b039283166020850152911690820152606001610381565b6103d36108613660046137bc565b611b1a565b61043e7f000000000000000000000000000000000000000000000000000000000000000081565b6103d361089b366004613a92565b611b2b565b61036d611b43565b6103d36108b6366004613a92565b611b90565b606f5461043e90600160581b90046001600160a01b031681565b61043e7f000000000000000000000000000000000000000000000000000000000000000081565b6103d361090a366004613b0e565b611bf7565b60795461036d90600160801b90046001600160401b031681565b6103d3610937366004613bc0565b611f6f565b6103d3612119565b6103d3610952366004613c97565b6121bf565b6103d361096536600461391c565b612231565b60735461036d90600160c01b90046001600160401b031681565b61043e7f000000000000000000000000000000000000000000000000000000000000000081565b6103d36109b9366004613901565b61238c565b6103d36109cc366004613901565b61240b565b607a5461043e906001600160a01b031681565b61039d60705481565b6103d36109fb366004613ce4565b612481565b6000806000610a0d611b43565b90506001600160401b03881615610aaa576079546001600160401b039081169089161115610a565760405162461bcd60e51b8152600401610a4d90613d10565b60405180910390fd5b6001600160401b038089166000908152607860205260409020600281015481549094509091898116600160401b9092041614610aa45760405162461bcd60e51b8152600401610a4d90613d8e565b50610b14565b6001600160401b038716600090815260756020526040902054915081610ae25760405162461bcd60e51b8152600401610a4d90613dee565b806001600160401b0316876001600160401b03161115610b145760405162461bcd60e51b8152600401610a4d90613e45565b806001600160401b0316866001600160401b031611610b455760405162461bcd60e51b8152600401610a4d90613eb6565b6000610b548888888689610f7c565b905060006000805160206143b3833981519152600283604051610b779190613f33565b602060405180830381855afa158015610b94573d6000803e3d6000fd5b5050506040513d601f19601f82011682018060405250810190610bb79190613f4f565b610bc19190613f7e565b9a9950505050505050505050565b60778054610bdc90613f92565b80601f0160208091040260200160405190810160405280929190818152602001828054610c0890613f92565b8015610c555780601f10610c2a57610100808354040283529160200191610c55565b820191906000526020600020905b815481529060010190602001808311610c3857829003601f168201915b505050505081565b610c656124a3565b600080610c70611b43565b90506001600160401b038a1615610d04576079546001600160401b03908116908b161115610cb05760405162461bcd60e51b8152600401610a4d90613d10565b6001600160401b03808b1660009081526078602052604090206002810154815490945090918b8116600160401b9092041614610cfe5760405162461bcd60e51b8152600401610a4d90613d8e565b50610d6e565b6001600160401b038916600090815260756020526040902054915081610d3c5760405162461bcd60e51b8152600401610a4d90613dee565b806001600160401b0316896001600160401b03161115610d6e5760405162461bcd60e51b8152600401610a4d90613e45565b806001600160401b0316886001600160401b031611610d9f5760405162461bcd60e51b8152600401610a4d90613eb6565b6000610dae8a8a8a868b610f7c565b6074805467ffffffffffffffff19166001600160401b038c811691821790925560009081526075602052604090208990556079549192501615610dfc57607980546001600160801b03191690555b6040516333d6247d60e01b8152600481018990527f00000000000000000000000000000000000000000000000000000000000000006001600160a01b0316906333d6247d90602401600060405180830381600087803b158015610e5e57600080fd5b505af1158015610e72573d6000803e3d6000fd5b50506040518981523392506001600160401b038c1691507fcb339b570a7f0b25afa7333371ff11192092a0aeace12b671f4c212f2815c6fe9060200160405180910390a35050505050505050505050565b607a546001600160a01b03163314610eee57604051634755657960e01b815260040160405180910390fd5b6103e88161ffff161080610f0757506103ff8161ffff16115b15610f2557604051630984a67960e31b815260040160405180910390fd5b606f805461ffff60481b1916600160481b61ffff8416908102919091179091556040519081527f7019933d795eba185c180209e8ae8bffbaa25bcef293364687702c31f4d302c5906020015b60405180910390a150565b6001600160401b038086166000818152607260205260408082205493881682529020546060929115801590610faf575081155b15610fcd5760405163340c614f60e11b815260040160405180910390fd5b80610feb576040516366385b5160e01b815260040160405180910390fd5b3385838a7f00000000000000000000000000000000000000000000000000000000000000007f000000000000000000000000000000000000000000000000000000000000000089878d8f60405160200161104e9a99989796959493929190613fcc565b6040516020818303038152906040529250505095945050505050565b6079546001600160401b03828116600090815260786020526040812054909242926110a092600160801b90920481169116614050565b6001600160401b0316111592915050565b607a546001600160a01b031633146110dc57604051634755657960e01b815260040160405180910390fd5b62093a806001600160401b038216111561110957604051631d06e87960e01b815260040160405180910390fd5b606f5460ff16611149576079546001600160401b03600160c01b9091048116908216106111495760405163401636df60e01b815260040160405180910390fd5b607980546001600160c01b0316600160c01b6001600160401b038416908102919091179091556040519081527f1f4fa24c2e4bad19a7f3ec5c5485f70d46c798461c2e684f55bbd0fc661373a190602001610f71565b607454600160401b90046001600160a01b0316331461120257606f5460ff16156111dc57604051630bc011ff60e21b815260040160405180910390fd5b6111e58161106a565b61120257604051630674f25160e11b815260040160405180910390fd5b61120b816124fd565b50565b60768054610bdc90613f92565b607a546001600160a01b0316331461124657604051634755657960e01b815260040160405180910390fd5b606f8054600160581b600160f81b031916600160581b6001600160a01b038416021790556040517ff54144f9611984021529f814a1cb6a41e22c58351510a0d9f7e822618abb9cc090610f719083906137a8565b6112a26124a3565b6112ac6000612697565b565b6033546001600160a01b031633146113b35760006112ca611b43565b9050806001600160401b0316826001600160401b0316116112fe5760405163812a372d60e01b815260040160405180910390fd5b6073546001600160401b03600160401b9091048116908316118061133d57506001600160401b0380831660009081526072602052604090206001015416155b1561135b57604051632631700560e21b815260040160405180910390fd5b6001600160401b0380831660009081526072602052604090206001015442916113899162093a809116614050565b6001600160401b031611156113b15760405163692baaad60e11b815260040160405180910390fd5b505b61120b6126e9565b606f5460ff16156113df57604051630bc011ff60e21b815260040160405180910390fd5b6113f0898989898989898989612764565b6001600160401b0386166000908152607560209081526040918290205482519081529081018690527f1f44c21118c4603cfb4e1b621dbcfa2b73efcececee2b99b620b2953d33a7010910160405180910390a161144b6126e9565b505050505050505050565b607b546001600160a01b031633146114815760405163d1ec4b2360e01b815260040160405180910390fd5b607b54607a80546001600160a01b0319166001600160a01b0390921691821790556040517f056dc487bbf0795d0bbb1b4f0af523a855503cff740bfb4d5475f7a90c091e8e916114d0916137a8565b60405180910390a1565b6114e26124a3565b6074805467ffffffffffffffff19166001600160401b0392909216919091179055565b6000807f00000000000000000000000000000000000000000000000000000000000000006001600160a01b03166370a08231306040518263ffffffff1660e01b815260040161155491906137a8565b602060405180830381865afa158015611571573d6000803e3d6000fd5b505050506040513d601f19601f820116820180604052508101906115959190613f4f565b905060006115a1611b43565b6073546001600160401b03600160401b82048116916115d191600160801b8204811691600160c01b900416614077565b6115db9190614050565b6115e59190614077565b6001600160401b03169050806000036116015760009250505090565b61160b8183614097565b9250505090565b61161a6124a3565b607380546001600160401b03909216600160401b0267ffffffffffffffff60401b19909216919091179055565b607a546001600160a01b0316331461167257604051634755657960e01b815260040160405180910390fd5b62093a806001600160401b038216111561169f57604051630cc9650760e41b815260040160405180910390fd5b606f5460ff166116df576079546001600160401b03600160801b9091048116908216106116df5760405163048a05a960e41b815260040160405180910390fd5b6079805467ffffffffffffffff60801b1916600160801b6001600160401b038416908102919091179091556040519081527fc4121f4e22c69632ebb7cf1f462be0511dc034f999b52013eddfb24aab765c7590602001610f71565b607a546001600160a01b0316331461176557604051634755657960e01b815260040160405180910390fd5b62015180816001600160401b0316111561179257604051631c0cfbfd60e31b815260040160405180910390fd5b606f805468ffffffffffffffff0019166101006001600160401b038416908102919091179091556040519081527f1b023231a1ab6b5d93992f168fb44498e1a7e64cef58daff6f1c216de6a68c2890602001610f71565b606f5460ff161561180d57604051630bc011ff60e21b815260040160405180910390fd5b6079546001600160401b03888116600090815260726020526040902060010154429261184492600160c01b90910481169116614050565b6001600160401b0316111561186c57604051638a0704d360e01b815260040160405180910390fd5b6103e86118798989614077565b6001600160401b031611156118a157604051635acfba9d60e11b815260040160405180910390fd5b6118ba89898989898989896118b58a6140ab565b612a96565b6118c387612eaa565b607954600160801b90046001600160401b03166000036119a7576074805467ffffffffffffffff19166001600160401b038981169182179092556000908152607560205260409020869055607954161561192857607980546001600160801b03191690555b6040516333d6247d60e01b8152600481018790527f00000000000000000000000000000000000000000000000000000000000000006001600160a01b0316906333d6247d90602401600060405180830381600087803b15801561198a57600080fd5b505af115801561199e573d6000803e3d6000fd5b50505050611a58565b6119af61309e565b607980546001600160401b03169060006119c88361411f565b82546001600160401b039182166101009390930a9283029282021916919091179091556040805160808101825242831681528a831660208083019182528284018c8152606084018c8152607954871660009081526078909352949091209251835492518616600160401b026001600160801b03199093169516949094171781559151600183015551600290910155505b60405185815233906001600160401b038916907f9c72852172521097ba7e1482e6b44b351323df0155f97f4ea18fcec28e1f5966906020015b60405180910390a3505050505050505050565b607a546001600160a01b03163314611acf57604051634755657960e01b815260040160405180910390fd5b607b80546001600160a01b0319166001600160a01b0383161790556040517fa5b56b7906fd0a20e3f35120dd8343db1e12e037a6c90111c7e42885e82a1ce690610f719083906137a8565b611b226124a3565b61120b81612eaa565b611b336124a3565b6077611b3f8282614193565b5050565b6079546000906001600160401b031615611b8057506079546001600160401b03908116600090815260786020526040902054600160401b90041690565b506074546001600160401b031690565b607a546001600160a01b03163314611bbb57604051634755657960e01b815260040160405180910390fd5b6076611bc78282614193565b507f6b8f723a4c7a5335cafae8a598a0aa0301be1387c037dccc085b62add6448b2081604051610f719190613668565b600054610100900460ff1615808015611c175750600054600160ff909116105b80611c315750303b158015611c31575060005460ff166001145b611c945760405162461bcd60e51b815260206004820152602e60248201527f496e697469616c697a61626c653a20636f6e747261637420697320616c72656160448201526d191e481a5b9a5d1a585b1a5e995960921b6064820152608401610a4d565b6000805460ff191660011790558015611cb7576000805461ff0019166101001790555b611cc46020880188613901565b607a80546001600160a01b0319166001600160a01b0392909216919091179055611cf46040880160208901613901565b606f80546001600160a01b0392909216600160581b02600160581b600160f81b0319909216919091179055611d2f6080880160608901613901565b607480546001600160a01b0392909216600160401b02600160401b600160e01b03199092169190911790556000805260756020527ff9e3fbf150b7a0077118526f473c53cb4734f166167e2c6213e3567dd390b4ad8690556076611d938682614193565b506077611da08582614193565b5062093a80611db56060890160408a016137bc565b6001600160401b03161115611ddd57604051630cc9650760e41b815260040160405180910390fd5b611ded60608801604089016137bc565b607980546001600160401b0392909216600160801b0267ffffffffffffffff60801b1990921691909117905562093a80611e2d60a0890160808a016137bc565b6001600160401b03161115611e5557604051631d06e87960e01b815260040160405180910390fd5b611e6560a08801608089016137bc565b607980546001600160c01b0316600160c01b6001600160401b039390931692909202919091179055670de0b6b3a7640000607055606f80546affffffffffffffffffff0019166a03ea000000000000070800179055611ec261313e565b7fed7be53c9f1a96a481223b15568a5b1a475e01a74b347d6ca187c8bf0c078cd660007f00000000000000000000000000000000000000000000000000000000000000008585604051611f189493929190614252565b60405180910390a18015611f66576000805461ff0019169055604051600181527f7f26b83ff96e1f2b6a682f133852f6798a09c465da95921460cefb38474024989060200160405180910390a15b50505050505050565b607454600160401b90046001600160a01b03163314611fa15760405163bbcbbc0560e01b815260040160405180910390fd5b6000604051806060016040528089815260200188815260200184848080601f016020809104026020016040519081016040528093929190818152602001838380828437600092019190915250505091525090506120058d8d8d8d8d8b8b8b89612a96565b6074805467ffffffffffffffff19166001600160401b038d811691821790925560009081526075602052604090208a9055607954161561205057607980546001600160801b03191690555b6040516333d6247d60e01b8152600481018b90527f00000000000000000000000000000000000000000000000000000000000000006001600160a01b0316906333d6247d90602401600060405180830381600087803b1580156120b257600080fd5b505af11580156120c6573d6000803e3d6000fd5b50506040518b81523392506001600160401b038e1691507fcb339b570a7f0b25afa7333371ff11192092a0aeace12b671f4c212f2815c6fe9060200160405180910390a350505050505050505050505050565b607a546001600160a01b0316331461214457604051634755657960e01b815260040160405180910390fd5b7f00000000000000000000000000000000000000000000000000000000000000006001600160a01b031663dbc169766040518163ffffffff1660e01b8152600401600060405180830381600087803b15801561219f57600080fd5b505af11580156121b3573d6000803e3d6000fd5b505050506112ac6131b2565b6121c76124a3565b604080516060810182529384526001600160401b03928316602080860191825292841685830190815295841660009081526072909352912092518355516001909201805493518216600160401b026001600160801b03199094169290911691909117919091179055565b607454600160401b90046001600160a01b031633146122635760405163bbcbbc0560e01b815260040160405180910390fd5b612274898989898989898989612764565b6074805467ffffffffffffffff19166001600160401b03888116918217909255600090815260756020526040902085905560795416156122bf57607980546001600160801b03191690555b6040516333d6247d60e01b8152600481018690527f00000000000000000000000000000000000000000000000000000000000000006001600160a01b0316906333d6247d90602401600060405180830381600087803b15801561232157600080fd5b505af1158015612335573d6000803e3d6000fd5b5050607980546001600160c01b031661127560c71b179055505060405184815233906001600160401b038816907fcc1b5520188bf1dd3e63f98164b577c4d75c11a619ddea692112f0d1aec4cf7290602001611a91565b607a546001600160a01b031633146123b757604051634755657960e01b815260040160405180910390fd5b60748054600160401b600160e01b031916600160401b6001600160a01b038416021790556040517f61f8fec29495a3078e9271456f05fb0707fd4e41f7661865f80fc437d06681ca90610f719083906137a8565b6124136124a3565b6001600160a01b0381166124785760405162461bcd60e51b815260206004820152602660248201527f4f776e61626c653a206e6577206f776e657220697320746865207a65726f206160448201526564647265737360d01b6064820152608401610a4d565b61120b81612697565b6124896124a3565b6001600160401b0316600090815260756020526040902055565b6033546001600160a01b031633146112ac5760405162461bcd60e51b815260206004820181905260248201527f4f776e61626c653a2063616c6c6572206973206e6f7420746865206f776e65726044820152606401610a4d565b6079546001600160401b03600160401b909104811690821611158061253057506079546001600160401b03908116908216115b1561254e5760405163d086b70b60e01b815260040160405180910390fd5b6001600160401b038181166000818152607860209081526040808320805460748054600160401b9283900490981667ffffffffffffffff19909816881790556002820154878652607590945293829020929092556079805467ffffffffffffffff60401b19169390940292909217909255600182015490516333d6247d60e01b815260048101919091529091907f00000000000000000000000000000000000000000000000000000000000000006001600160a01b0316906333d6247d90602401600060405180830381600087803b15801561262957600080fd5b505af115801561263d573d6000803e3d6000fd5b50505050826001600160401b0316816001600160401b03167f328d3c6c0fd6f1be0515e422f2d87e59f25922cbc2233568515a0c4bc3f8510e846002015460405161268a91815260200190565b60405180910390a3505050565b603380546001600160a01b038381166001600160a01b0319831681179093556040519116919082907f8be0079c531659141344cd1fd0a4f28419497f9722a3daafe3b4186f6b6457e090600090a35050565b7f00000000000000000000000000000000000000000000000000000000000000006001600160a01b0316632072f6c56040518163ffffffff1660e01b8152600401600060405180830381600087803b15801561274457600080fd5b505af1158015612758573d6000803e3d6000fd5b505050506112ac61320a565b60006001600160401b038a16156127f8576079546001600160401b03908116908b1611156127a55760405163bb14c20560e01b815260040160405180910390fd5b506001600160401b03808a1660009081526078602052604090206002810154815490928a8116600160401b90920416146127f257604051632bd2e3e760e01b815260040160405180910390fd5b50612860565b506001600160401b03871660009081526075602052604090205480612830576040516324cbdcc360e11b815260040160405180910390fd5b6074546001600160401b03908116908916111561286057604051630f2b74f160e11b815260040160405180910390fd5b6079546001600160401b03908116908a16118061288f5750896001600160401b0316896001600160401b031611155b806128b057506079546001600160401b03600160401b9091048116908a1611155b156128ce5760405163bfa7079f60e01b815260040160405180910390fd5b6001600160401b03898116600090815260786020526040902054600160401b9004811690881614612912576040516332a2a77f60e01b815260040160405180910390fd5b6000612921898989858a610f7c565b905060006000805160206143b38339815191526002836040516129449190613f33565b602060405180830381855afa158015612961573d6000803e3d6000fd5b5050506040513d601f19601f820116820180604052508101906129849190613f4f565b61298e9190613f7e565b6040805160208101825282815290516343753b4d60e01b81529192506001600160a01b037f000000000000000000000000000000000000000000000000000000000000000016916343753b4d916129ee918a918a918a919060040161429f565b602060405180830381865afa158015612a0b573d6000803e3d6000fd5b505050506040513d601f19601f82011682018060405250810190612a2f919061430d565b612a4c576040516309bde33960e01b815260040160405180910390fd5b6001600160401b038b16600090815260786020526040902060020154879003612a885760405163a47276bd60e01b815260040160405180910390fd5b505050505050505050505050565b600080612aa1611b43565b90506001600160401b038b1615612b37576079546001600160401b03908116908c161115612ae25760405163bb14c20560e01b815260040160405180910390fd5b6001600160401b03808c1660009081526078602052604090206002810154815490945090918c8116600160401b9092041614612b3157604051632bd2e3e760e01b815260040160405180910390fd5b50612ba3565b6001600160401b038a16600090815260756020526040902054915081612b70576040516324cbdcc360e11b815260040160405180910390fd5b806001600160401b03168a6001600160401b03161115612ba357604051630f2b74f160e11b815260040160405180910390fd5b806001600160401b0316896001600160401b031611612bd55760405163b9b18f5760e01b815260040160405180910390fd5b6040516349ce899760e01b81526001600160401b038b1660048201526000907f00000000000000000000000000000000000000000000000000000000000000006001600160a01b0316906349ce899790602401602060405180830381865afa158015612c45573d6000803e3d6000fd5b505050506040513d601f19601f82011682018060405250810190612c699190613f4f565b6040516349ce899760e01b81526001600160401b038c1660048201529091506000906001600160a01b037f000000000000000000000000000000000000000000000000000000000000000016906349ce899790602401602060405180830381865afa158015612cdc573d6000803e3d6000fd5b505050506040513d601f19601f82011682018060405250810190612d009190613f4f565b90506000612d12858e8e8d8f8b613266565b905060006000805160206143b3833981519152600283604051612d359190613f33565b602060405180830381855afa158015612d52573d6000803e3d6000fd5b5050506040513d601f19601f82011682018060405250810190612d759190613f4f565b612d7f9190613f7e565b6040805160208101825282815290516343753b4d60e01b81529192506001600160a01b037f000000000000000000000000000000000000000000000000000000000000000016916343753b4d91612ddf918e918e918e919060040161429f565b602060405180830381865afa158015612dfc573d6000803e3d6000fd5b505050506040513d601f19601f82011682018060405250810190612e20919061430d565b612e3d576040516309bde33960e01b815260040160405180910390fd5b612e9933868f612e4d9190614077565b6001600160401b0316612e5e611505565b612e68919061432f565b6001600160a01b037f00000000000000000000000000000000000000000000000000000000000000001691906132ee565b505050505050505050505050505050565b6000612eb4611b43565b905081600080612ec48484614077565b606f546001600160401b039182169250600091612ee79161010090041642614346565b90505b846001600160401b0316846001600160401b031614612f87576001600160401b0380851660009081526072602052604090206001810154909116821015612f7b576001810154612f4a90600160401b90046001600160401b031686614077565b612f5d906001600160401b031685614359565b6001820154600160401b90046001600160401b031695509350612f81565b50612f87565b50612eea565b6000612f938484614346565b905080841015612fea57838103600c8111612fae5780612fb1565b600c5b9050806103e80a81606f60099054906101000a900461ffff1661ffff160a6070540281612fe057612fe0613f68565b046070555061305a565b808403600c8111612ffb5780612ffe565b600c5b90506000816103e80a82606f60099054906101000a900461ffff1661ffff160a670de0b6b3a7640000028161303557613035613f68565b04905080607054670de0b6b3a7640000028161305357613053613f68565b0460705550505b683635c9adc5dea00000607054111561307f57683635c9adc5dea00000607055611f66565b633b9aca006070541015611f6657633b9aca0060705550505050505050565b6079546001600160401b03600160401b82048116911611156112ac576079546000906130db90600160401b90046001600160401b03166001614050565b90506130e68161106a565b1561120b576079546000906002906131089084906001600160401b0316614077565b613112919061436c565b61311c9083614050565b90506131278161106a565b1561313557611b3f816124fd565b611b3f826124fd565b600054610100900460ff166131a95760405162461bcd60e51b815260206004820152602b60248201527f496e697469616c697a61626c653a20636f6e7472616374206973206e6f74206960448201526a6e697469616c697a696e6760a81b6064820152608401610a4d565b6112ac33612697565b606f5460ff166131d557604051635386698160e01b815260040160405180910390fd5b606f805460ff191690556040517f1e5e34eea33501aecf2ebec9fe0e884a40804275ea7fe10b2ba084c8374308b390600090a1565b606f5460ff161561322e57604051630bc011ff60e21b815260040160405180910390fd5b606f805460ff191660011790556040517f2261efe5aef6fedc1fd1550b25facc9181745623049c7901287030b9ad1a549790600090a1565b606033878360000151887f00000000000000000000000000000000000000000000000000000000000000007f00000000000000000000000000000000000000000000000000000000000000008988602001518a8d6040516020016132d39a99989796959493929190613fcc565b60405160208183030381529060405290509695505050505050565b604080516001600160a01b038416602482015260448082018490528251808303909101815260649091019091526020810180516001600160e01b031663a9059cbb60e01b179052613340908490613345565b505050565b600061339a826040518060400160405280602081526020017f5361666545524332303a206c6f772d6c6576656c2063616c6c206661696c6564815250856001600160a01b03166134179092919063ffffffff16565b80519091501561334057808060200190518101906133b8919061430d565b6133405760405162461bcd60e51b815260206004820152602a60248201527f5361666545524332303a204552433230206f7065726174696f6e20646964206e6044820152691bdd081cdd58d8d9595960b21b6064820152608401610a4d565b6060613426848460008561342e565b949350505050565b60608247101561348f5760405162461bcd60e51b815260206004820152602660248201527f416464726573733a20696e73756666696369656e742062616c616e636520666f6044820152651c8818d85b1b60d21b6064820152608401610a4d565b600080866001600160a01b031685876040516134ab9190613f33565b60006040518083038185875af1925050503d80600081146134e8576040519150601f19603f3d011682016040523d82523d6000602084013e6134ed565b606091505b50915091506134fe87838387613509565b979650505050505050565b60608315613578578251600003613571576001600160a01b0385163b6135715760405162461bcd60e51b815260206004820152601d60248201527f416464726573733a2063616c6c20746f206e6f6e2d636f6e74726163740000006044820152606401610a4d565b5081613426565b613426838381511561358d5781518083602001fd5b8060405162461bcd60e51b8152600401610a4d9190613668565b80356001600160401b03811681146135be57600080fd5b919050565b600080600080600060a086880312156135db57600080fd5b6135e4866135a7565b94506135f2602087016135a7565b9350613600604087016135a7565b94979396509394606081013594506080013592915050565b60005b8381101561363357818101518382015260200161361b565b50506000910152565b60008151808452613654816020860160208601613618565b601f01601f19169290920160200192915050565b60208152600061367b602083018461363c565b9392505050565b806040810183101561369357600080fd5b92915050565b806080810183101561369357600080fd5b6000806000806000806000806101a0898b0312156136c757600080fd5b6136d0896135a7565b97506136de60208a016135a7565b96506136ec60408a016135a7565b955060608901359450608089013593506137098a60a08b01613682565b92506137188a60e08b01613699565b91506137288a6101608b01613682565b90509295985092959890939650565b60006020828403121561374957600080fd5b813561ffff8116811461367b57600080fd5b600080600080600060a0868803121561377357600080fd5b61377c866135a7565b945061378a602087016135a7565b94979496505050506040830135926060810135926080909101359150565b6001600160a01b0391909116815260200190565b6000602082840312156137ce57600080fd5b61367b826135a7565b634e487b7160e01b600052604160045260246000fd5b600082601f8301126137fe57600080fd5b81356001600160401b0380821115613818576138186137d7565b604051601f8301601f19908116603f01168101908282118183101715613840576138406137d7565b8160405283815286602085880101111561385957600080fd5b836020870160208301376000602085830101528094505050505092915050565b80356001600160a01b03811681146135be57600080fd5b600080600080600060a086880312156138a857600080fd5b8535945060208601356001600160401b038111156138c557600080fd5b6138d1888289016137ed565b945050604086013592506138e7606087016135a7565b91506138f560808701613879565b90509295509295909350565b60006020828403121561391357600080fd5b61367b82613879565b60008060008060008060008060006101c08a8c03121561393b57600080fd5b6139448a6135a7565b985061395260208b016135a7565b975061396060408b016135a7565b965061396e60608b016135a7565b955060808a0135945060a08a0135935061398b8b60c08c01613682565b925061399b8b6101008c01613699565b91506139ab8b6101808c01613682565b90509295985092959850929598565b6000602082840312156139cc57600080fd5b5035919050565b60008060008060008060008060006101c08a8c0312156139f257600080fd5b6139fb8a6135a7565b9850613a0960208b016135a7565b9750613a1760408b016135a7565b965060608a0135955060808a01359450613a348b60a08c01613682565b9350613a438b60e08c01613699565b9250613a538b6101608c01613682565b91506101a08a01356001600160401b03811115613a6f57600080fd5b8a016060818d031215613a8157600080fd5b809150509295985092959850929598565b600060208284031215613aa457600080fd5b81356001600160401b03811115613aba57600080fd5b613426848285016137ed565b60008083601f840112613ad857600080fd5b5081356001600160401b03811115613aef57600080fd5b602083019150836020828501011115613b0757600080fd5b9250929050565b600080600080600080868803610120811215613b2957600080fd5b60a0811215613b3757600080fd5b5086955060a0870135945060c08701356001600160401b0380821115613b5c57600080fd5b613b688a838b016137ed565b955060e0890135915080821115613b7e57600080fd5b613b8a8a838b016137ed565b9450610100890135915080821115613ba157600080fd5b50613bae89828a01613ac6565b979a9699509497509295939492505050565b6000806000806000806000806000806000806102008d8f031215613be357600080fd5b613bec8d6135a7565b9b50613bfa60208e016135a7565b9a50613c0860408e016135a7565b995060608d0135985060808d0135975060a08d0135965060c08d01359550613c338e60e08f01613682565b9450613c438e6101208f01613699565b9350613c538e6101a08f01613682565b92506001600160401b036101e08e01351115613c6e57600080fd5b613c7f8e6101e08f01358f01613ac6565b81935080925050509295989b509295989b509295989b565b60008060008060808587031215613cad57600080fd5b613cb6856135a7565b935060208501359250613ccb604086016135a7565b9150613cd9606086016135a7565b905092959194509250565b60008060408385031215613cf757600080fd5b82359150613d07602084016135a7565b90509250929050565b60208082526058908201527f506f6c79676f6e5a6b45564d3a3a766572696679426174636865733a2070656e60408201527f64696e6753746174654e756d206d757374206265206c657373206f7220657175606082015277616c207468616e206c61737450656e64696e67537461746560401b608082015260a00190565b6020808252604c9082015260008051602061439383398151915260408201527f744e756d4261746368206d757374206d61746368207468652070656e64696e6760608201526b040e6e8c2e8ca40c4c2e8c6d60a31b608082015260a00190565b602080825260439082015260008051602061439383398151915260408201527f744e756d426174636820737461746520726f6f7420646f6573206e6f742065786060820152621a5cdd60ea1b608082015260a00190565b6020808252605d9082015260008051602061439383398151915260408201527f744e756d4261746368206d757374206265206c657373206f7220657175616c2060608201527f7468616e2063757272656e744c61737456657269666965644261746368000000608082015260a00190565b60208082526057908201527f506f6c79676f6e5a6b45564d3a3a766572696679426174636865733a2066696e60408201527f616c4e65774261746368206d75737420626520626967676572207468616e20636060820152760eae4e4cadce898c2e6e8accae4d2ccd2cac884c2e8c6d604b1b608082015260a00190565b60008251613f45818460208701613618565b9190910192915050565b600060208284031215613f6157600080fd5b5051919050565b634e487b7160e01b600052601260045260246000fd5b600082613f8d57613f8d613f68565b500690565b600181811c90821680613fa657607f821691505b602082108103613fc657634e487b7160e01b600052602260045260246000fd5b50919050565b60609a909a1b6001600160601b0319168a5260148a0198909852603489019690965260c094851b6001600160c01b031990811660548a015293851b8416605c89015291841b83166064880152606c870152608c86015260ac8501929092529190911b1660cc82015260d40190565b634e487b7160e01b600052601160045260246000fd5b6001600160401b038181168382160190808211156140705761407061403a565b5092915050565b6001600160401b038281168282160390808211156140705761407061403a565b6000826140a6576140a6613f68565b500490565b6000606082360312156140bd57600080fd5b604051606081016001600160401b0382821081831117156140e0576140e06137d7565b816040528435835260208501356020840152604085013591508082111561410657600080fd5b50614113368286016137ed565b60408301525092915050565b60006001600160401b0380831681810361413b5761413b61403a565b6001019392505050565b601f82111561334057600081815260208120601f850160051c8101602086101561416c5750805b601f850160051c820191505b8181101561418b57828155600101614178565b505050505050565b81516001600160401b038111156141ac576141ac6137d7565b6141c0816141ba8454613f92565b84614145565b602080601f8311600181146141f557600084156141dd5750858301515b600019600386901b1c1916600185901b17855561418b565b600085815260208120601f198616915b8281101561422457888601518255948401946001909101908401614205565b50858210156142425787850151600019600388901b60f8161c191681555b5050505050600190811b01905550565b60006001600160401b03808716835280861660208401525060606040830152826060830152828460808401376000608084840101526080601f19601f850116830101905095945050505050565b61012081016040808784378083018660005b60028110156142ce578382843791830191908301906001016142b1565b505050808560c08501375061010082018360005b60018110156143015781518352602092830192909101906001016142e2565b50505095945050505050565b60006020828403121561431f57600080fd5b8151801515811461367b57600080fd5b80820281158282048414176136935761369361403a565b818103818111156136935761369361403a565b808201808211156136935761369361403a565b60006001600160401b038084168061438657614386613f68565b9216919091049291505056fe506f6c79676f6e5a6b45564d3a3a766572696679426174636865733a20696e6930644e72e131a029b85045b68181585d2833e84879b9709143e1f593f0000001a264697066735822122073e51b4388b64c3528fa04c094aa75f75ed063ae7d5bb4a7c6a18fc24cd07b6964736f6c63430008110033",
  "linkReferences": {},
  "deployedLinkReferences": {}
}