{
  "_format": "hh-sol-artifact-1",
  "contractName": "PolygonZkEVMMock",
  "sourceName": "contracts/mocks/PolygonZkEVMMock.sol",
  "abi": [
    {
      "inputs": [
        {
          "internalType": "contract IPolygonZkEVMGlobalExitRoot",
          "name": "_globalExitRootManager",
          "type": "address"
        },
        {
          "internalType": "contract IERC20Upgradeable",
          "name": "_matic",
          "type": "address"
        },
        {
          "internalType": "contract IVerifierRollup",
          "name": "_rollupVerifier",
          "type": "address"
        },
        {
          "internalType": "contract IPolygonZkEVMBridge",
          "name": "_bridgeAddress",
          "type": "address"
        },
        {
          "internalType": "contract IHotShot",
          "name": "_hotShot",
          "type": "address"
        },
        {
          "internalType": "uint64",
          "name": "_chainID",
          "type": "uint64"
        },
        {
          "internalType": "uint64",
          "name": "_forkID",
          "type": "uint64"
        }
      ],
      "stateMutability": "nonpayable",
      "type": "constructor"
    },
    {
      "inputs": [],
      "name": "BatchAlreadyVerified",
      "type": "error"
    },
    {
      "inputs": [],
      "name": "BatchNotSequencedOrNotSequenceEnd",
      "type": "error"
    },
    {
      "inputs": [],
      "name": "ExceedMaxVerifyBatches",
      "type": "error"
    },
    {
      "inputs": [],
      "name": "FinalNumBatchBelowLastVerifiedBatch",
      "type": "error"
    },
    {
      "inputs": [],
      "name": "FinalNumBatchDoesNotMatchPendingState",
      "type": "error"
    },
    {
      "inputs": [],
      "name": "FinalPendingStateNumInvalid",
      "type": "error"
    },
    {
      "inputs": [],
      "name": "ForceBatchTimeoutNotExpired",
      "type": "error"
    },
    {
      "inputs": [],
      "name": "ForceBatchesOverflow",
      "type": "error"
    },
    {
      "inputs": [],
      "name": "ForcedDataDoesNotMatch",
      "type": "error"
    },
    {
      "inputs": [],
      "name": "GlobalExitRootNotExist",
      "type": "error"
    },
    {
      "inputs": [],
      "name": "HaltTimeoutNotExpired",
      "type": "error"
    },
    {
      "inputs": [],
      "name": "InitNumBatchAboveLastVerifiedBatch",
      "type": "error"
    },
    {
      "inputs": [],
      "name": "InitNumBatchDoesNotMatchPendingState",
      "type": "error"
    },
    {
      "inputs": [],
      "name": "InvalidProof",
      "type": "error"
    },
    {
      "inputs": [],
      "name": "InvalidRangeBatchTimeTarget",
      "type": "error"
    },
    {
      "inputs": [],
      "name": "InvalidRangeMultiplierBatchFee",
      "type": "error"
    },
    {
      "inputs": [],
      "name": "NewAccInputHashDoesNotExist",
      "type": "error"
    },
    {
      "inputs": [],
      "name": "NewPendingStateTimeoutMustBeLower",
      "type": "error"
    },
    {
      "inputs": [],
      "name": "NewTrustedAggregatorTimeoutMustBeLower",
      "type": "error"
    },
    {
      "inputs": [],
      "name": "NotEnoughMaticAmount",
      "type": "error"
    },
    {
      "inputs": [],
      "name": "OldAccInputHashDoesNotExist",
      "type": "error"
    },
    {
      "inputs": [],
      "name": "OldStateRootDoesNotExist",
      "type": "error"
    },
    {
      "inputs": [],
      "name": "OnlyAdmin",
      "type": "error"
    },
    {
      "inputs": [],
      "name": "OnlyEmergencyState",
      "type": "error"
    },
    {
      "inputs": [],
      "name": "OnlyNotEmergencyState",
      "type": "error"
    },
    {
      "inputs": [],
      "name": "OnlyPendingAdmin",
      "type": "error"
    },
    {
      "inputs": [],
      "name": "OnlyTrustedAggregator",
      "type": "error"
    },
    {
      "inputs": [],
      "name": "OnlyTrustedSequencer",
      "type": "error"
    },
    {
      "inputs": [],
      "name": "PendingStateDoesNotExist",
      "type": "error"
    },
    {
      "inputs": [],
      "name": "PendingStateInvalid",
      "type": "error"
    },
    {
      "inputs": [],
      "name": "PendingStateNotConsolidable",
      "type": "error"
    },
    {
      "inputs": [],
      "name": "PendingStateTimeoutExceedHaltAggregationTimeout",
      "type": "error"
    },
    {
      "inputs": [],
      "name": "SequenceZeroBatches",
      "type": "error"
    },
    {
      "inputs": [],
      "name": "SequencedTimestampBelowForcedTimestamp",
      "type": "error"
    },
    {
      "inputs": [],
      "name": "SequencedTimestampInvalid",
      "type": "error"
    },
    {
      "inputs": [],
      "name": "StoredRootMustBeDifferentThanNewRoot",
      "type": "error"
    },
    {
      "inputs": [],
      "name": "TransactionsLengthAboveMax",
      "type": "error"
    },
    {
      "inputs": [],
      "name": "TrustedAggregatorTimeoutExceedHaltAggregationTimeout",
      "type": "error"
    },
    {
      "inputs": [],
      "name": "TrustedAggregatorTimeoutNotExpired",
      "type": "error"
    },
    {
      "anonymous": false,
      "inputs": [
        {
          "indexed": false,
          "internalType": "address",
          "name": "newAdmin",
          "type": "address"
        }
      ],
      "name": "AcceptAdminRole",
      "type": "event"
    },
    {
      "anonymous": false,
      "inputs": [
        {
          "indexed": true,
          "internalType": "uint64",
          "name": "numBatch",
          "type": "uint64"
        },
        {
          "indexed": false,
          "internalType": "bytes32",
          "name": "stateRoot",
          "type": "bytes32"
        },
        {
          "indexed": true,
          "internalType": "uint64",
          "name": "pendingStateNum",
          "type": "uint64"
        }
      ],
      "name": "ConsolidatePendingState",
      "type": "event"
    },
    {
      "anonymous": false,
      "inputs": [],
      "name": "EmergencyStateActivated",
      "type": "event"
    },
    {
      "anonymous": false,
      "inputs": [],
      "name": "EmergencyStateDeactivated",
      "type": "event"
    },
    {
      "anonymous": false,
      "inputs": [
        {
          "indexed": true,
          "internalType": "uint64",
          "name": "forceBatchNum",
          "type": "uint64"
        },
        {
          "indexed": false,
          "internalType": "bytes32",
          "name": "lastGlobalExitRoot",
          "type": "bytes32"
        },
        {
          "indexed": false,
          "internalType": "address",
          "name": "sequencer",
          "type": "address"
        },
        {
          "indexed": false,
          "internalType": "bytes",
          "name": "transactions",
          "type": "bytes"
        }
      ],
      "name": "ForceBatch",
      "type": "event"
    },
    {
      "anonymous": false,
      "inputs": [
        {
          "indexed": false,
          "internalType": "uint8",
          "name": "version",
          "type": "uint8"
        }
      ],
      "name": "Initialized",
      "type": "event"
    },
    {
      "anonymous": false,
      "inputs": [
        {
          "indexed": true,
          "internalType": "uint64",
          "name": "numBatch",
          "type": "uint64"
        },
        {
          "indexed": false,
          "internalType": "bytes32",
          "name": "stateRoot",
          "type": "bytes32"
        },
        {
          "indexed": true,
          "internalType": "address",
          "name": "aggregator",
          "type": "address"
        }
      ],
      "name": "OverridePendingState",
      "type": "event"
    },
    {
      "anonymous": false,
      "inputs": [
        {
          "indexed": true,
          "internalType": "address",
          "name": "previousOwner",
          "type": "address"
        },
        {
          "indexed": true,
          "internalType": "address",
          "name": "newOwner",
          "type": "address"
        }
      ],
      "name": "OwnershipTransferred",
      "type": "event"
    },
    {
      "anonymous": false,
      "inputs": [
        {
          "indexed": false,
          "internalType": "bytes32",
          "name": "storedStateRoot",
          "type": "bytes32"
        },
        {
          "indexed": false,
          "internalType": "bytes32",
          "name": "provedStateRoot",
          "type": "bytes32"
        }
      ],
      "name": "ProveNonDeterministicPendingState",
      "type": "event"
    },
    {
      "anonymous": false,
      "inputs": [
        {
          "indexed": true,
          "internalType": "uint64",
          "name": "numBatch",
          "type": "uint64"
        }
      ],
      "name": "SequenceBatches",
      "type": "event"
    },
    {
      "anonymous": false,
      "inputs": [
        {
          "indexed": true,
          "internalType": "uint64",
          "name": "numBatch",
          "type": "uint64"
        }
      ],
      "name": "SequenceForceBatches",
      "type": "event"
    },
    {
      "anonymous": false,
      "inputs": [
        {
          "indexed": false,
          "internalType": "uint16",
          "name": "newMultiplierBatchFee",
          "type": "uint16"
        }
      ],
      "name": "SetMultiplierBatchFee",
      "type": "event"
    },
    {
      "anonymous": false,
      "inputs": [
        {
          "indexed": false,
          "internalType": "uint64",
          "name": "newPendingStateTimeout",
          "type": "uint64"
        }
      ],
      "name": "SetPendingStateTimeout",
      "type": "event"
    },
    {
      "anonymous": false,
      "inputs": [
        {
          "indexed": false,
          "internalType": "address",
          "name": "newTrustedAggregator",
          "type": "address"
        }
      ],
      "name": "SetTrustedAggregator",
      "type": "event"
    },
    {
      "anonymous": false,
      "inputs": [
        {
          "indexed": false,
          "internalType": "uint64",
          "name": "newTrustedAggregatorTimeout",
          "type": "uint64"
        }
      ],
      "name": "SetTrustedAggregatorTimeout",
      "type": "event"
    },
    {
      "anonymous": false,
      "inputs": [
        {
          "indexed": false,
          "internalType": "address",
          "name": "newTrustedSequencer",
          "type": "address"
        }
      ],
      "name": "SetTrustedSequencer",
      "type": "event"
    },
    {
      "anonymous": false,
      "inputs": [
        {
          "indexed": false,
          "internalType": "string",
          "name": "newTrustedSequencerURL",
          "type": "string"
        }
      ],
      "name": "SetTrustedSequencerURL",
      "type": "event"
    },
    {
      "anonymous": false,
      "inputs": [
        {
          "indexed": false,
          "internalType": "uint64",
          "name": "newVerifyBatchTimeTarget",
          "type": "uint64"
        }
      ],
      "name": "SetVerifyBatchTimeTarget",
      "type": "event"
    },
    {
      "anonymous": false,
      "inputs": [
        {
          "indexed": false,
          "internalType": "address",
          "name": "newPendingAdmin",
          "type": "address"
        }
      ],
      "name": "TransferAdminRole",
      "type": "event"
    },
    {
      "anonymous": false,
      "inputs": [
        {
          "indexed": false,
          "internalType": "uint64",
          "name": "numBatch",
          "type": "uint64"
        },
        {
          "indexed": false,
          "internalType": "uint64",
          "name": "forkID",
          "type": "uint64"
        },
        {
          "indexed": false,
          "internalType": "string",
          "name": "version",
          "type": "string"
        }
      ],
      "name": "UpdateZkEVMVersion",
      "type": "event"
    },
    {
      "anonymous": false,
      "inputs": [
        {
          "indexed": true,
          "internalType": "uint64",
          "name": "numBatch",
          "type": "uint64"
        },
        {
          "indexed": false,
          "internalType": "bytes32",
          "name": "stateRoot",
          "type": "bytes32"
        },
        {
          "indexed": true,
          "internalType": "address",
          "name": "aggregator",
          "type": "address"
        }
      ],
      "name": "VerifyBatches",
      "type": "event"
    },
    {
      "anonymous": false,
      "inputs": [
        {
          "indexed": true,
          "internalType": "uint64",
          "name": "numBatch",
          "type": "uint64"
        },
        {
          "indexed": false,
          "internalType": "bytes32",
          "name": "stateRoot",
          "type": "bytes32"
        },
        {
          "indexed": true,
          "internalType": "address",
          "name": "aggregator",
          "type": "address"
        }
      ],
      "name": "VerifyBatchesTrustedAggregator",
      "type": "event"
    },
    {
      "inputs": [],
      "name": "acceptAdminRole",
      "outputs": [],
      "stateMutability": "nonpayable",
      "type": "function"
    },
    {
      "inputs": [
        {
          "internalType": "uint64",
          "name": "sequencedBatchNum",
          "type": "uint64"
        }
      ],
      "name": "activateEmergencyState",
      "outputs": [],
      "stateMutability": "nonpayable",
      "type": "function"
    },
    {
      "inputs": [],
      "name": "admin",
      "outputs": [
        {
          "internalType": "address",
          "name": "",
          "type": "address"
        }
      ],
      "stateMutability": "view",
      "type": "function"
    },
    {
      "inputs": [],
      "name": "batchFee",
      "outputs": [
        {
          "internalType": "uint256",
          "name": "",
          "type": "uint256"
        }
      ],
      "stateMutability": "view",
      "type": "function"
    },
    {
      "inputs": [
        {
          "internalType": "uint64",
          "name": "",
          "type": "uint64"
        }
      ],
      "name": "batchNumToStateRoot",
      "outputs": [
        {
          "internalType": "bytes32",
          "name": "",
          "type": "bytes32"
        }
      ],
      "stateMutability": "view",
      "type": "function"
    },
    {
      "inputs": [],
      "name": "bridgeAddress",
      "outputs": [
        {
          "internalType": "contract IPolygonZkEVMBridge",
          "name": "",
          "type": "address"
        }
      ],
      "stateMutability": "view",
      "type": "function"
    },
    {
      "inputs": [
        {
          "internalType": "bytes32",
          "name": "currentAccInputHash",
          "type": "bytes32"
        },
        {
          "internalType": "bytes",
          "name": "transactions",
          "type": "bytes"
        },
        {
          "internalType": "bytes32",
          "name": "globalExitRoot",
          "type": "bytes32"
        },
        {
          "internalType": "uint64",
          "name": "timestamp",
          "type": "uint64"
        },
        {
          "internalType": "address",
          "name": "sequencerAddress",
          "type": "address"
        }
      ],
      "name": "calculateAccInputHash",
      "outputs": [
        {
          "internalType": "bytes32",
          "name": "",
          "type": "bytes32"
        }
      ],
      "stateMutability": "pure",
      "type": "function"
    },
    {
      "inputs": [],
      "name": "calculateRewardPerBatch",
      "outputs": [
        {
          "internalType": "uint256",
          "name": "",
          "type": "uint256"
        }
      ],
      "stateMutability": "view",
      "type": "function"
    },
    {
      "inputs": [],
      "name": "chainID",
      "outputs": [
        {
          "internalType": "uint64",
          "name": "",
          "type": "uint64"
        }
      ],
      "stateMutability": "view",
      "type": "function"
    },
    {
      "inputs": [
        {
          "internalType": "uint64",
          "name": "pendingStateNum",
          "type": "uint64"
        }
      ],
      "name": "consolidatePendingState",
      "outputs": [],
      "stateMutability": "nonpayable",
      "type": "function"
    },
    {
      "inputs": [],
      "name": "deactivateEmergencyState",
      "outputs": [],
      "stateMutability": "nonpayable",
      "type": "function"
    },
    {
      "inputs": [
        {
          "internalType": "bytes",
          "name": "transactions",
          "type": "bytes"
        },
        {
          "internalType": "uint256",
          "name": "maticAmount",
          "type": "uint256"
        }
      ],
      "name": "forceBatch",
      "outputs": [],
      "stateMutability": "nonpayable",
      "type": "function"
    },
    {
      "inputs": [
        {
          "internalType": "uint64",
          "name": "",
          "type": "uint64"
        }
      ],
      "name": "forcedBatches",
      "outputs": [
        {
          "internalType": "bytes32",
          "name": "",
          "type": "bytes32"
        }
      ],
      "stateMutability": "view",
      "type": "function"
    },
    {
      "inputs": [],
      "name": "forkID",
      "outputs": [
        {
          "internalType": "uint64",
          "name": "",
          "type": "uint64"
        }
      ],
      "stateMutability": "view",
      "type": "function"
    },
    {
      "inputs": [],
      "name": "getCurrentBatchFee",
      "outputs": [
        {
          "internalType": "uint256",
          "name": "",
          "type": "uint256"
        }
      ],
      "stateMutability": "view",
      "type": "function"
    },
    {
      "inputs": [
        {
          "internalType": "uint64",
          "name": "initNumBatch",
          "type": "uint64"
        },
        {
          "internalType": "uint64",
          "name": "finalNewBatch",
          "type": "uint64"
        },
        {
          "internalType": "bytes32",
          "name": "newLocalExitRoot",
          "type": "bytes32"
        },
        {
          "internalType": "bytes32",
          "name": "oldStateRoot",
          "type": "bytes32"
        },
        {
          "internalType": "bytes32",
          "name": "newStateRoot",
          "type": "bytes32"
        }
      ],
      "name": "getInputSnarkBytes",
      "outputs": [
        {
          "internalType": "bytes",
          "name": "",
          "type": "bytes"
        }
      ],
      "stateMutability": "view",
      "type": "function"
    },
    {
      "inputs": [],
      "name": "getLastVerifiedBatch",
      "outputs": [
        {
          "internalType": "uint64",
          "name": "",
          "type": "uint64"
        }
      ],
      "stateMutability": "view",
      "type": "function"
    },
    {
      "inputs": [
        {
          "internalType": "uint64",
          "name": "pendingStateNum",
          "type": "uint64"
        },
        {
          "internalType": "uint64",
          "name": "initNumBatch",
          "type": "uint64"
        },
        {
          "internalType": "uint64",
          "name": "finalNewBatch",
          "type": "uint64"
        },
        {
          "internalType": "bytes32",
          "name": "newLocalExitRoot",
          "type": "bytes32"
        },
        {
          "internalType": "bytes32",
          "name": "newStateRoot",
          "type": "bytes32"
        }
      ],
      "name": "getNextSnarkInput",
      "outputs": [
        {
          "internalType": "uint256",
          "name": "",
          "type": "uint256"
        }
      ],
      "stateMutability": "view",
      "type": "function"
    },
    {
      "inputs": [],
      "name": "globalExitRootManager",
      "outputs": [
        {
          "internalType": "contract IPolygonZkEVMGlobalExitRoot",
          "name": "",
          "type": "address"
        }
      ],
      "stateMutability": "view",
      "type": "function"
    },
    {
      "inputs": [],
      "name": "hotShot",
      "outputs": [
        {
          "internalType": "contract IHotShot",
          "name": "",
          "type": "address"
        }
      ],
      "stateMutability": "view",
      "type": "function"
    },
    {
      "inputs": [
        {
          "components": [
            {
              "internalType": "address",
              "name": "admin",
              "type": "address"
            },
            {
              "internalType": "address",
              "name": "trustedSequencer",
              "type": "address"
            },
            {
              "internalType": "uint64",
              "name": "pendingStateTimeout",
              "type": "uint64"
            },
            {
              "internalType": "address",
              "name": "trustedAggregator",
              "type": "address"
            },
            {
              "internalType": "uint64",
              "name": "trustedAggregatorTimeout",
              "type": "uint64"
            }
          ],
          "internalType": "struct PolygonZkEVM.InitializePackedParameters",
          "name": "initializePackedParameters",
          "type": "tuple"
        },
        {
          "internalType": "bytes32",
          "name": "genesisRoot",
          "type": "bytes32"
        },
        {
          "internalType": "string",
          "name": "_trustedSequencerURL",
          "type": "string"
        },
        {
          "internalType": "string",
          "name": "_networkName",
          "type": "string"
        },
        {
          "internalType": "string",
          "name": "_version",
          "type": "string"
        }
      ],
      "name": "initialize",
      "outputs": [],
      "stateMutability": "nonpayable",
      "type": "function"
    },
    {
      "inputs": [],
      "name": "isEmergencyState",
      "outputs": [
        {
          "internalType": "bool",
          "name": "",
          "type": "bool"
        }
      ],
      "stateMutability": "view",
      "type": "function"
    },
    {
      "inputs": [
        {
          "internalType": "uint64",
          "name": "pendingStateNum",
          "type": "uint64"
        }
      ],
      "name": "isPendingStateConsolidable",
      "outputs": [
        {
          "internalType": "bool",
          "name": "",
          "type": "bool"
        }
      ],
      "stateMutability": "view",
      "type": "function"
    },
    {
      "inputs": [],
      "name": "lastBatchSequenced",
      "outputs": [
        {
          "internalType": "uint64",
          "name": "",
          "type": "uint64"
        }
      ],
      "stateMutability": "view",
      "type": "function"
    },
    {
      "inputs": [],
      "name": "lastForceBatch",
      "outputs": [
        {
          "internalType": "uint64",
          "name": "",
          "type": "uint64"
        }
      ],
      "stateMutability": "view",
      "type": "function"
    },
    {
      "inputs": [],
      "name": "lastForceBatchSequenced",
      "outputs": [
        {
          "internalType": "uint64",
          "name": "",
          "type": "uint64"
        }
      ],
      "stateMutability": "view",
      "type": "function"
    },
    {
      "inputs": [],
      "name": "lastPendingState",
      "outputs": [
        {
          "internalType": "uint64",
          "name": "",
          "type": "uint64"
        }
      ],
      "stateMutability": "view",
      "type": "function"
    },
    {
      "inputs": [],
      "name": "lastPendingStateConsolidated",
      "outputs": [
        {
          "internalType": "uint64",
          "name": "",
          "type": "uint64"
        }
      ],
      "stateMutability": "view",
      "type": "function"
    },
    {
      "inputs": [],
      "name": "lastTimestamp",
      "outputs": [
        {
          "internalType": "uint64",
          "name": "",
          "type": "uint64"
        }
      ],
      "stateMutability": "view",
      "type": "function"
    },
    {
      "inputs": [],
      "name": "lastVerifiedBatch",
      "outputs": [
        {
          "internalType": "uint64",
          "name": "",
          "type": "uint64"
        }
      ],
      "stateMutability": "view",
      "type": "function"
    },
    {
      "inputs": [],
      "name": "matic",
      "outputs": [
        {
          "internalType": "contract IERC20Upgradeable",
          "name": "",
          "type": "address"
        }
      ],
      "stateMutability": "view",
      "type": "function"
    },
    {
      "inputs": [],
      "name": "multiplierBatchFee",
      "outputs": [
        {
          "internalType": "uint16",
          "name": "",
          "type": "uint16"
        }
      ],
      "stateMutability": "view",
      "type": "function"
    },
    {
      "inputs": [],
      "name": "networkName",
      "outputs": [
        {
          "internalType": "string",
          "name": "",
          "type": "string"
        }
      ],
      "stateMutability": "view",
      "type": "function"
    },
    {
      "inputs": [
        {
          "internalType": "uint64",
          "name": "initPendingStateNum",
          "type": "uint64"
        },
        {
          "internalType": "uint64",
          "name": "finalPendingStateNum",
          "type": "uint64"
        },
        {
          "internalType": "uint64",
          "name": "initNumBatch",
          "type": "uint64"
        },
        {
          "internalType": "uint64",
          "name": "finalNewBatch",
          "type": "uint64"
        },
        {
          "internalType": "bytes32",
          "name": "newLocalExitRoot",
          "type": "bytes32"
        },
        {
          "internalType": "bytes32",
          "name": "newStateRoot",
          "type": "bytes32"
        },
        {
          "internalType": "uint256[2]",
          "name": "proofA",
          "type": "uint256[2]"
        },
        {
          "internalType": "uint256[2][2]",
          "name": "proofB",
          "type": "uint256[2][2]"
        },
        {
          "internalType": "uint256[2]",
          "name": "proofC",
          "type": "uint256[2]"
        }
      ],
      "name": "overridePendingState",
      "outputs": [],
      "stateMutability": "nonpayable",
      "type": "function"
    },
    {
      "inputs": [],
      "name": "owner",
      "outputs": [
        {
          "internalType": "address",
          "name": "",
          "type": "address"
        }
      ],
      "stateMutability": "view",
      "type": "function"
    },
    {
      "inputs": [],
      "name": "pendingAdmin",
      "outputs": [
        {
          "internalType": "address",
          "name": "",
          "type": "address"
        }
      ],
      "stateMutability": "view",
      "type": "function"
    },
    {
      "inputs": [],
      "name": "pendingStateTimeout",
      "outputs": [
        {
          "internalType": "uint64",
          "name": "",
          "type": "uint64"
        }
      ],
      "stateMutability": "view",
      "type": "function"
    },
    {
      "inputs": [
        {
          "internalType": "uint256",
          "name": "",
          "type": "uint256"
        }
      ],
      "name": "pendingStateTransitions",
      "outputs": [
        {
          "internalType": "uint64",
          "name": "timestamp",
          "type": "uint64"
        },
        {
          "internalType": "uint64",
          "name": "lastVerifiedBatch",
          "type": "uint64"
        },
        {
          "internalType": "bytes32",
          "name": "exitRoot",
          "type": "bytes32"
        },
        {
          "internalType": "bytes32",
          "name": "stateRoot",
          "type": "bytes32"
        }
      ],
      "stateMutability": "view",
      "type": "function"
    },
    {
      "inputs": [
        {
          "internalType": "uint64",
          "name": "initPendingStateNum",
          "type": "uint64"
        },
        {
          "internalType": "uint64",
          "name": "finalPendingStateNum",
          "type": "uint64"
        },
        {
          "internalType": "uint64",
          "name": "initNumBatch",
          "type": "uint64"
        },
        {
          "internalType": "uint64",
          "name": "finalNewBatch",
          "type": "uint64"
        },
        {
          "internalType": "bytes32",
          "name": "newLocalExitRoot",
          "type": "bytes32"
        },
        {
          "internalType": "bytes32",
          "name": "newStateRoot",
          "type": "bytes32"
        },
        {
          "internalType": "uint256[2]",
          "name": "proofA",
          "type": "uint256[2]"
        },
        {
          "internalType": "uint256[2][2]",
          "name": "proofB",
          "type": "uint256[2][2]"
        },
        {
          "internalType": "uint256[2]",
          "name": "proofC",
          "type": "uint256[2]"
        }
      ],
      "name": "proveNonDeterministicPendingState",
      "outputs": [],
      "stateMutability": "nonpayable",
      "type": "function"
    },
    {
      "inputs": [],
      "name": "renounceOwnership",
      "outputs": [],
      "stateMutability": "nonpayable",
      "type": "function"
    },
    {
      "inputs": [],
      "name": "rollupVerifier",
      "outputs": [
        {
          "internalType": "contract IVerifierRollup",
          "name": "",
          "type": "address"
        }
      ],
      "stateMutability": "view",
      "type": "function"
    },
    {
      "inputs": [
        {
          "components": [
            {
              "internalType": "bytes",
              "name": "transactions",
              "type": "bytes"
            },
            {
              "internalType": "bytes32",
              "name": "globalExitRoot",
              "type": "bytes32"
            },
            {
              "internalType": "uint64",
              "name": "timestamp",
              "type": "uint64"
            },
            {
              "internalType": "uint64",
              "name": "minForcedTimestamp",
              "type": "uint64"
            }
          ],
          "internalType": "struct PolygonZkEVM.BatchData[]",
          "name": "batches",
          "type": "tuple[]"
        },
        {
          "internalType": "address",
          "name": "feeRecipient",
          "type": "address"
        }
      ],
      "name": "sequenceBatches",
      "outputs": [],
      "stateMutability": "nonpayable",
      "type": "function"
    },
    {
      "inputs": [
        {
          "components": [
            {
              "internalType": "bytes",
              "name": "transactions",
              "type": "bytes"
            },
            {
              "internalType": "bytes32",
              "name": "globalExitRoot",
              "type": "bytes32"
            },
            {
              "internalType": "uint64",
              "name": "minForcedTimestamp",
              "type": "uint64"
            }
          ],
          "internalType": "struct PolygonZkEVM.ForcedBatchData[]",
          "name": "batches",
          "type": "tuple[]"
        }
      ],
      "name": "sequenceForceBatches",
      "outputs": [],
      "stateMutability": "nonpayable",
      "type": "function"
    },
    {
      "inputs": [
        {
          "internalType": "uint64",
          "name": "",
          "type": "uint64"
        }
      ],
      "name": "sequencedBatches",
      "outputs": [
        {
          "internalType": "bytes32",
          "name": "accInputHash",
          "type": "bytes32"
        },
        {
          "internalType": "uint64",
          "name": "sequencedTimestamp",
          "type": "uint64"
        },
        {
          "internalType": "uint64",
          "name": "previousLastBatchSequenced",
          "type": "uint64"
        }
      ],
      "stateMutability": "view",
      "type": "function"
    },
    {
      "inputs": [
        {
          "internalType": "uint16",
          "name": "newMultiplierBatchFee",
          "type": "uint16"
        }
      ],
      "name": "setMultiplierBatchFee",
      "outputs": [],
      "stateMutability": "nonpayable",
      "type": "function"
    },
    {
      "inputs": [
        {
          "internalType": "string",
          "name": "_networkName",
          "type": "string"
        }
      ],
      "name": "setNetworkName",
      "outputs": [],
      "stateMutability": "nonpayable",
      "type": "function"
    },
    {
      "inputs": [
        {
          "internalType": "uint64",
          "name": "newPendingStateTimeout",
          "type": "uint64"
        }
      ],
      "name": "setPendingStateTimeout",
      "outputs": [],
      "stateMutability": "nonpayable",
      "type": "function"
    },
    {
      "inputs": [
        {
          "internalType": "uint64",
          "name": "_numBatch",
          "type": "uint64"
        }
      ],
      "name": "setSequencedBatch",
      "outputs": [],
      "stateMutability": "nonpayable",
      "type": "function"
    },
    {
      "inputs": [
        {
          "internalType": "uint64",
          "name": "batchNum",
          "type": "uint64"
        },
        {
          "internalType": "bytes32",
          "name": "accInputData",
          "type": "bytes32"
        },
        {
          "internalType": "uint64",
          "name": "timestamp",
          "type": "uint64"
        },
        {
          "internalType": "uint64",
          "name": "lastPendingStateConsolidated",
          "type": "uint64"
        }
      ],
      "name": "setSequencedBatches",
      "outputs": [],
      "stateMutability": "nonpayable",
      "type": "function"
    },
    {
      "inputs": [
        {
          "internalType": "bytes32",
          "name": "newStateRoot",
          "type": "bytes32"
        },
        {
          "internalType": "uint64",
          "name": "batchNum",
          "type": "uint64"
        }
      ],
      "name": "setStateRoot",
      "outputs": [],
      "stateMutability": "nonpayable",
      "type": "function"
    },
    {
      "inputs": [
        {
          "internalType": "address",
          "name": "newTrustedAggregator",
          "type": "address"
        }
      ],
      "name": "setTrustedAggregator",
      "outputs": [],
      "stateMutability": "nonpayable",
      "type": "function"
    },
    {
      "inputs": [
        {
          "internalType": "uint64",
          "name": "newTrustedAggregatorTimeout",
          "type": "uint64"
        }
      ],
      "name": "setTrustedAggregatorTimeout",
      "outputs": [],
      "stateMutability": "nonpayable",
      "type": "function"
    },
    {
      "inputs": [
        {
          "internalType": "address",
          "name": "newTrustedSequencer",
          "type": "address"
        }
      ],
      "name": "setTrustedSequencer",
      "outputs": [],
      "stateMutability": "nonpayable",
      "type": "function"
    },
    {
      "inputs": [
        {
          "internalType": "string",
          "name": "newTrustedSequencerURL",
          "type": "string"
        }
      ],
      "name": "setTrustedSequencerURL",
      "outputs": [],
      "stateMutability": "nonpayable",
      "type": "function"
    },
    {
      "inputs": [
        {
          "internalType": "uint64",
          "name": "_numBatch",
          "type": "uint64"
        }
      ],
      "name": "setVerifiedBatch",
      "outputs": [],
      "stateMutability": "nonpayable",
      "type": "function"
    },
    {
      "inputs": [
        {
          "internalType": "uint64",
          "name": "newVerifyBatchTimeTarget",
          "type": "uint64"
        }
      ],
      "name": "setVerifyBatchTimeTarget",
      "outputs": [],
      "stateMutability": "nonpayable",
      "type": "function"
    },
    {
      "inputs": [
        {
          "internalType": "address",
          "name": "newPendingAdmin",
          "type": "address"
        }
      ],
      "name": "transferAdminRole",
      "outputs": [],
      "stateMutability": "nonpayable",
      "type": "function"
    },
    {
      "inputs": [
        {
          "internalType": "address",
          "name": "newOwner",
          "type": "address"
        }
      ],
      "name": "transferOwnership",
      "outputs": [],
      "stateMutability": "nonpayable",
      "type": "function"
    },
    {
      "inputs": [],
      "name": "trustedAggregator",
      "outputs": [
        {
          "internalType": "address",
          "name": "",
          "type": "address"
        }
      ],
      "stateMutability": "view",
      "type": "function"
    },
    {
      "inputs": [],
      "name": "trustedAggregatorTimeout",
      "outputs": [
        {
          "internalType": "uint64",
          "name": "",
          "type": "uint64"
        }
      ],
      "stateMutability": "view",
      "type": "function"
    },
    {
      "inputs": [],
      "name": "trustedSequencer",
      "outputs": [
        {
          "internalType": "address",
          "name": "",
          "type": "address"
        }
      ],
      "stateMutability": "view",
      "type": "function"
    },
    {
      "inputs": [],
      "name": "trustedSequencerURL",
      "outputs": [
        {
          "internalType": "string",
          "name": "",
          "type": "string"
        }
      ],
      "stateMutability": "view",
      "type": "function"
    },
    {
      "inputs": [
        {
          "internalType": "uint64",
          "name": "pendingStateNum",
          "type": "uint64"
        },
        {
          "internalType": "uint64",
          "name": "initNumBatch",
          "type": "uint64"
        },
        {
          "internalType": "uint64",
          "name": "finalNewBatch",
          "type": "uint64"
        },
        {
          "internalType": "bytes32",
          "name": "newLocalExitRoot",
          "type": "bytes32"
        },
        {
          "internalType": "bytes32",
          "name": "newStateRoot",
          "type": "bytes32"
        },
        {
          "internalType": "uint256[2]",
          "name": "proofA",
          "type": "uint256[2]"
        },
        {
          "internalType": "uint256[2][2]",
          "name": "proofB",
          "type": "uint256[2][2]"
        },
        {
          "internalType": "uint256[2]",
          "name": "proofC",
          "type": "uint256[2]"
        }
      ],
      "name": "trustedVerifyBatchesMock",
      "outputs": [],
      "stateMutability": "nonpayable",
      "type": "function"
    },
    {
      "inputs": [
        {
          "internalType": "uint64",
          "name": "newLastVerifiedBatch",
          "type": "uint64"
        }
      ],
      "name": "updateBatchFee",
      "outputs": [],
      "stateMutability": "nonpayable",
      "type": "function"
    },
    {
      "inputs": [],
      "name": "verifyBatchTimeTarget",
      "outputs": [
        {
          "internalType": "uint64",
          "name": "",
          "type": "uint64"
        }
      ],
      "stateMutability": "view",
      "type": "function"
    },
    {
      "inputs": [
        {
          "internalType": "uint64",
          "name": "pendingStateNum",
          "type": "uint64"
        },
        {
          "internalType": "uint64",
          "name": "initNumBatch",
          "type": "uint64"
        },
        {
          "internalType": "uint64",
          "name": "finalNewBatch",
          "type": "uint64"
        },
        {
          "internalType": "bytes32",
          "name": "newLocalExitRoot",
          "type": "bytes32"
        },
        {
          "internalType": "bytes32",
          "name": "newStateRoot",
          "type": "bytes32"
        },
        {
          "internalType": "uint256[2]",
          "name": "proofA",
          "type": "uint256[2]"
        },
        {
          "internalType": "uint256[2][2]",
          "name": "proofB",
          "type": "uint256[2][2]"
        },
        {
          "internalType": "uint256[2]",
          "name": "proofC",
          "type": "uint256[2]"
        },
        {
          "components": [
            {
              "internalType": "bytes32",
              "name": "oldAccInputHash",
              "type": "bytes32"
            },
            {
              "internalType": "bytes32",
              "name": "newAccInputHash",
              "type": "bytes32"
            },
            {
              "internalType": "bytes",
              "name": "commProof",
              "type": "bytes"
            }
          ],
          "internalType": "struct PolygonZkEVM.PackedHotShotParams",
          "name": "packedHotShotParams",
          "type": "tuple"
        }
      ],
      "name": "verifyBatches",
      "outputs": [],
      "stateMutability": "nonpayable",
      "type": "function"
    },
    {
      "inputs": [
        {
          "internalType": "uint64",
          "name": "pendingStateNum",
          "type": "uint64"
        },
        {
          "internalType": "uint64",
          "name": "initNumBatch",
          "type": "uint64"
        },
        {
          "internalType": "uint64",
          "name": "finalNewBatch",
          "type": "uint64"
        },
        {
          "internalType": "bytes32",
          "name": "newLocalExitRoot",
          "type": "bytes32"
        },
        {
          "internalType": "bytes32",
          "name": "newStateRoot",
          "type": "bytes32"
        },
        {
          "internalType": "bytes32",
          "name": "oldAccInputHash",
          "type": "bytes32"
        },
        {
          "internalType": "bytes32",
          "name": "newAccInputHash",
          "type": "bytes32"
        },
        {
          "internalType": "uint256[2]",
          "name": "proofA",
          "type": "uint256[2]"
        },
        {
          "internalType": "uint256[2][2]",
          "name": "proofB",
          "type": "uint256[2][2]"
        },
        {
          "internalType": "uint256[2]",
          "name": "proofC",
          "type": "uint256[2]"
        },
        {
          "internalType": "bytes",
          "name": "commProof",
          "type": "bytes"
        }
      ],
      "name": "verifyBatchesTrustedAggregator",
      "outputs": [],
      "stateMutability": "nonpayable",
      "type": "function"
    }
  ],
  "bytecode": "0x6101606040523480156200001257600080fd5b506040516200551c3803806200551c8339810160408190526200003591620000ac565b6001600160a01b0396871660c05294861660805292851660a05290841660e052909216610100526001600160401b039182166101205216610140526200014f565b6001600160a01b03811681146200008c57600080fd5b50565b80516001600160401b0381168114620000a757600080fd5b919050565b600080600080600080600060e0888a031215620000c857600080fd5b8751620000d58162000076565b6020890151909750620000e88162000076565b6040890151909650620000fb8162000076565b60608901519095506200010e8162000076565b6080890151909450620001218162000076565b92506200013160a089016200008f565b91506200014160c089016200008f565b905092959891949750929550565b60805160a05160c05160e0516101005161012051610140516152d8620002446000396000818161060e0152818161100d015281816124530152613f3501526000818161077f01528181610fec0152613f14015260008181610573015281816138610152613900015260008181610732015281816129f901526133560152600081816108b001528181610e0d0152818161147e01528181611eaa0152818161291901528181612b8701528181612ced01526131370152600081816109720152818161361f0152613a100152600081816108410152818161171901528181611a7701528181612cc10152613add01526152d86000f3fe608060405234801561001057600080fd5b50600436106103715760003560e01c806396dc3d39116101d5578063cfa8ed4711610105578063e11f3f18116100a8578063e11f3f1814610940578063e7a7ed0214610953578063e8bf92ed1461096d578063eaeb077b14610994578063f14916d6146109a7578063f2fde38b146109ba578063f851a440146109cd578063f8b823e4146109e0578063fe16564f146109e957600080fd5b8063cfa8ed4714610891578063d02103ca146108ab578063d2e129f9146108d2578063d8d1091b146108e5578063d939b315146108f8578063d979413614610912578063dbc1697614610925578063e0d174411461092d57600080fd5b8063ada8f91911610178578063ada8f91914610767578063adc879e91461077a578063afd23cbe146107a1578063b4d63f58146107c9578063b4f77ea914610829578063b6b0b0971461083c578063c0cad30214610863578063c0ed84e014610876578063c89e42df1461087e57600080fd5b806396dc3d39146106d157806399f5634e146106e45780639b796760146106ec5780639c9f3dfe146106ff5780639f0d039d14610712578063a066215c1461071a578063a3c573eb1461072d578063aba576f11461075457600080fd5b80634a910e6a116102b0578063715018a611610253578063715018a6146105c85780637215541a146105d057806375c508b3146105e35780637fcb3653146105f6578063831c7ead14610609578063837a473814610630578063841b24d71461069e5780638c3d7301146106b85780638da5cb5b146106c057600080fd5b80634a910e6a1461050d5780635392c5e014610520578063542028d514610540578063574f649e146105485780635e9145c91461055b5780636375e13c1461056e5780636b8616ce146105955780636ff512cc146105b557600080fd5b80632678224711610318578063267822471461044c578063298789831461046c578063383b3be814610486578063394218e914610499578063423fa856146104ac57806345605267146104c6578063458c0477146104e05780634a1a89a7146104f357600080fd5b80630a0d9fbe146103765780630eaa86ea146103ab578063107bf28c146103cc57806310a01a72146103e157806315064c96146103f65780631816b7e51461041357806319d8ac6114610426578063220d789914610439575b600080fd5b606f5461038e9061010090046001600160401b031681565b6040516001600160401b0390911681526020015b60405180910390f35b6103be6103b936600461416c565b6109fc565b6040519081526020016103a2565b6103d4610bcb565b6040516103a29190614211565b6103f46103ef366004614253565b610c59565b005b606f546104039060ff1681565b60405190151581526020016103a2565b6103f46104213660046142e0565b610ebe565b60735461038e906001600160401b031681565b6103d4610447366004614304565b610f77565b607b5461045f906001600160a01b031681565b6040516103a29190614351565b60745461045f90600160401b90046001600160a01b031681565b610403610494366004614365565b611065565b6103f46104a7366004614365565b6110ac565b60735461038e90600160401b90046001600160401b031681565b60735461038e90600160801b90046001600160401b031681565b60795461038e906001600160401b031681565b60795461038e90600160401b90046001600160401b031681565b6103f461051b366004614365565b61119a565b6103be61052e366004614365565b60756020526000908152604090205481565b6103d4611209565b6103be610556366004614461565b611216565b6103f461056936600461451d565b611259565b61045f7f000000000000000000000000000000000000000000000000000000000000000081565b6103be6105a3366004614365565b60716020526000908152604090205481565b6103f46105c3366004614570565b611789565b6103f4611808565b6103f46105de366004614365565b61181c565b6103f46105f136600461458b565b611929565b60745461038e906001600160401b031681565b61038e7f000000000000000000000000000000000000000000000000000000000000000081565b61067361063e366004614629565b6078602052600090815260409020805460018201546002909201546001600160401b0380831693600160401b90930416919084565b604080516001600160401b0395861681529490931660208501529183015260608201526080016103a2565b60795461038e90600160c01b90046001600160401b031681565b6103f46119c4565b6033546001600160a01b031661045f565b6103f46106df366004614365565b611a48565b6103be611a72565b6103f46106fa366004614365565b611b7f565b6103f461070d366004614365565b611bb4565b6070546103be565b6103f4610728366004614365565b611ca7565b61045f7f000000000000000000000000000000000000000000000000000000000000000081565b6103f4610762366004614642565b611d56565b6103f4610775366004614570565b612010565b61038e7f000000000000000000000000000000000000000000000000000000000000000081565b606f546107b690600160481b900461ffff1681565b60405161ffff90911681526020016103a2565b6108046107d7366004614365565b607260205260009081526040902080546001909101546001600160401b0380821691600160401b90041683565b604080519384526001600160401b0392831660208501529116908201526060016103a2565b6103f4610837366004614365565b612086565b61045f7f000000000000000000000000000000000000000000000000000000000000000081565b6103f4610871366004614701565b612097565b61038e6120af565b6103f461088c366004614701565b6120fc565b606f5461045f90600160581b90046001600160a01b031681565b61045f7f000000000000000000000000000000000000000000000000000000000000000081565b6103f46108e0366004614776565b612163565b6103f46108f3366004614828565b6124db565b60795461038e90600160801b90046001600160401b031681565b6103f4610920366004614869565b612823565b6103f46129cc565b6103f461093b366004614940565b612a72565b6103f461094e36600461458b565b612ae4565b60735461038e90600160c01b90046001600160401b031681565b61045f7f000000000000000000000000000000000000000000000000000000000000000081565b6103f46109a236600461498d565b612c3e565b6103f46109b5366004614570565b612ee7565b6103f46109c8366004614570565b612f66565b607a5461045f906001600160a01b031681565b6103be60705481565b6103f46109f73660046149d8565b612fdc565b6000806000610a096120af565b90506001600160401b03881615610aa6576079546001600160401b039081169089161115610a525760405162461bcd60e51b8152600401610a4990614a04565b60405180910390fd5b6001600160401b038089166000908152607860205260409020600281015481549094509091898116600160401b9092041614610aa05760405162461bcd60e51b8152600401610a4990614a82565b50610b10565b6001600160401b038716600090815260756020526040902054915081610ade5760405162461bcd60e51b8152600401610a4990614ae2565b806001600160401b0316876001600160401b03161115610b105760405162461bcd60e51b8152600401610a4990614b39565b806001600160401b0316866001600160401b031611610b415760405162461bcd60e51b8152600401610a4990614baa565b6000610b508888888689610f77565b90506000600080516020615283833981519152600283604051610b739190614c27565b602060405180830381855afa158015610b90573d6000803e3d6000fd5b5050506040513d601f19601f82011682018060405250810190610bb39190614c43565b610bbd9190614c72565b9a9950505050505050505050565b60778054610bd890614c86565b80601f0160208091040260200160405190810160405280929190818152602001828054610c0490614c86565b8015610c515780601f10610c2657610100808354040283529160200191610c51565b820191906000526020600020905b815481529060010190602001808311610c3457829003601f168201915b505050505081565b610c61612ffe565b600080610c6c6120af565b90506001600160401b038a1615610d00576079546001600160401b03908116908b161115610cac5760405162461bcd60e51b8152600401610a4990614a04565b6001600160401b03808b1660009081526078602052604090206002810154815490945090918b8116600160401b9092041614610cfa5760405162461bcd60e51b8152600401610a4990614a82565b50610d6a565b6001600160401b038916600090815260756020526040902054915081610d385760405162461bcd60e51b8152600401610a4990614ae2565b806001600160401b0316896001600160401b03161115610d6a5760405162461bcd60e51b8152600401610a4990614b39565b806001600160401b0316886001600160401b031611610d9b5760405162461bcd60e51b8152600401610a4990614baa565b6000610daa8a8a8a868b610f77565b607480546001600160401b0319166001600160401b038c811691821790925560009081526075602052604090208990556079549192501615610df757607980546001600160801b03191690555b6040516333d6247d60e01b8152600481018990527f00000000000000000000000000000000000000000000000000000000000000006001600160a01b0316906333d6247d90602401600060405180830381600087803b158015610e5957600080fd5b505af1158015610e6d573d6000803e3d6000fd5b50506040518981523392506001600160401b038c1691507fcb339b570a7f0b25afa7333371ff11192092a0aeace12b671f4c212f2815c6fe9060200160405180910390a35050505050505050505050565b607a546001600160a01b03163314610ee957604051634755657960e01b815260040160405180910390fd5b6103e88161ffff161080610f0257506103ff8161ffff16115b15610f2057604051630984a67960e31b815260040160405180910390fd5b606f805461ffff60481b1916600160481b61ffff8416908102919091179091556040519081527f7019933d795eba185c180209e8ae8bffbaa25bcef293364687702c31f4d302c5906020015b60405180910390a150565b6001600160401b038086166000818152607260205260408082205493881682529020546060929115801590610faa575081155b15610fc85760405163340c614f60e11b815260040160405180910390fd5b80610fe6576040516366385b5160e01b815260040160405180910390fd5b3385838a7f00000000000000000000000000000000000000000000000000000000000000007f000000000000000000000000000000000000000000000000000000000000000089878d8f6040516020016110499a99989796959493929190614cc0565b6040516020818303038152906040529250505095945050505050565b6079546001600160401b038281166000908152607860205260408120549092429261109b92600160801b90920481169116614d44565b6001600160401b0316111592915050565b607a546001600160a01b031633146110d757604051634755657960e01b815260040160405180910390fd5b62093a806001600160401b038216111561110457604051631d06e87960e01b815260040160405180910390fd5b606f5460ff16611144576079546001600160401b03600160c01b9091048116908216106111445760405163401636df60e01b815260040160405180910390fd5b607980546001600160c01b0316600160c01b6001600160401b038416908102919091179091556040519081527f1f4fa24c2e4bad19a7f3ec5c5485f70d46c798461c2e684f55bbd0fc661373a190602001610f6c565b607454600160401b90046001600160a01b031633146111fd57606f5460ff16156111d757604051630bc011ff60e21b815260040160405180910390fd5b6111e081611065565b6111fd57604051630674f25160e11b815260040160405180910390fd5b61120681613058565b50565b60768054610bd890614c86565b6000858580519060200120858585604051602001611238959493929190614d6b565b60405160208183030381529060405280519060200120905095945050505050565b606f5460ff161561127d57604051630bc011ff60e21b815260040160405180910390fd5b606f54600160581b90046001600160a01b031633146112af576040516311e7be1560e01b815260040160405180910390fd5b8160008190036112d25760405163cb591a5f60e01b815260040160405180910390fd5b6103e88111156112f557604051635acfba9d60e11b815260040160405180910390fd5b6073546001600160401b03600160401b82048116600081815260726020526040812054838516949293600160801b909304909216919082905b868110156115dc5760008a8a8381811061134a5761134a614daa565b905060200281019061135c9190614dc0565b61136590614dd6565b805180516020909101206060820151919250906001600160401b031615611454578561139081614e62565b965050600081836020015184606001516040516020016113b293929190614e88565b60408051601f1981840301815291815281516020928301206001600160401b038a166000908152607190935291205490915081146114035760405163671ebaaf60e11b815260040160405180910390fd5b6001600160401b03808816600090815260716020526040808220919091556060850151908501519082169116101561144e57604051633fbd5c3960e11b815260040160405180910390fd5b50611539565b6020820151158015906114f5575060208201516040516312bd9b1960e11b815260048101919091527f00000000000000000000000000000000000000000000000000000000000000006001600160a01b03169063257b3632906024016020604051808303816000875af11580156114cf573d6000803e3d6000fd5b505050506040513d601f19601f820116820180604052508101906114f39190614c43565b155b15611513576040516373bd668d60e01b815260040160405180910390fd5b815151620493e01015611539576040516328a69b1f60e21b815260040160405180910390fd5b876001600160401b031682604001516001600160401b0316108061156957504282604001516001600160401b0316115b15611587576040516375413c8b60e11b815260040160405180910390fd5b8481836020015184604001518d6040516020016115a8959493929190614d6b565b60405160208183030381529060405280519060200120945081604001519750505080806115d490614eab565b91505061132e565b506115e78685614d44565b6073549094506001600160401b03600160c01b909104811690841611156116215760405163c630a00d60e01b815260040160405180910390fd5b600061162d8285614ec4565b611640906001600160401b031688614ee4565b60408051606081018252858152426001600160401b03908116602080840191825260738054600160401b9081900485168688019081528d861660008181526072909552979093209551865592516001909501805492519585166001600160801b03199384161795851684029590951790945583548c84169116179302929092179055909150828116908516146116f6576073805467ffffffffffffffff60801b1916600160801b6001600160401b038716021790555b61174133308361170560705490565b61170f9190614ef7565b6001600160a01b037f0000000000000000000000000000000000000000000000000000000000000000169291906131f1565b611749613262565b6040516001600160401b038616907f303446e6a8cb73c83dff421c0b1d5e5ce0719dab1bff13660fc254e58cc17fce90600090a250505050505050505050565b607a546001600160a01b031633146117b457604051634755657960e01b815260040160405180910390fd5b606f8054600160581b600160f81b031916600160581b6001600160a01b038416021790556040517ff54144f9611984021529f814a1cb6a41e22c58351510a0d9f7e822618abb9cc090610f6c908390614351565b611810612ffe565b61181a6000613302565b565b6033546001600160a01b031633146119215760006118386120af565b9050806001600160401b0316826001600160401b03161161186c5760405163812a372d60e01b815260040160405180910390fd5b6073546001600160401b03600160401b909104811690831611806118ab57506001600160401b0380831660009081526072602052604090206001015416155b156118c957604051632631700560e21b815260040160405180910390fd5b6001600160401b0380831660009081526072602052604090206001015442916118f79162093a809116614d44565b6001600160401b0316111561191f5760405163692baaad60e11b815260040160405180910390fd5b505b611206613354565b606f5460ff161561194d57604051630bc011ff60e21b815260040160405180910390fd5b61195e8989898989898989896133cf565b6001600160401b0386166000908152607560209081526040918290205482519081529081018690527f1f44c21118c4603cfb4e1b621dbcfa2b73efcececee2b99b620b2953d33a7010910160405180910390a16119b9613354565b505050505050505050565b607b546001600160a01b031633146119ef5760405163d1ec4b2360e01b815260040160405180910390fd5b607b54607a80546001600160a01b0319166001600160a01b0390921691821790556040517f056dc487bbf0795d0bbb1b4f0af523a855503cff740bfb4d5475f7a90c091e8e91611a3e91614351565b60405180910390a1565b611a50612ffe565b607480546001600160401b0319166001600160401b0392909216919091179055565b6000807f00000000000000000000000000000000000000000000000000000000000000006001600160a01b03166370a08231306040518263ffffffff1660e01b8152600401611ac19190614351565b602060405180830381865afa158015611ade573d6000803e3d6000fd5b505050506040513d601f19601f82011682018060405250810190611b029190614c43565b90506000611b0e6120af565b6073546001600160401b03600160401b8204811691611b3e91600160801b8204811691600160c01b900416614ec4565b611b489190614d44565b611b529190614ec4565b6001600160401b0316905080600003611b6e5760009250505090565b611b788183614f0e565b9250505090565b611b87612ffe565b607380546001600160401b03909216600160401b0267ffffffffffffffff60401b19909216919091179055565b607a546001600160a01b03163314611bdf57604051634755657960e01b815260040160405180910390fd5b62093a806001600160401b0382161115611c0c57604051630cc9650760e41b815260040160405180910390fd5b606f5460ff16611c4c576079546001600160401b03600160801b909104811690821610611c4c5760405163048a05a960e41b815260040160405180910390fd5b6079805467ffffffffffffffff60801b1916600160801b6001600160401b038416908102919091179091556040519081527fc4121f4e22c69632ebb7cf1f462be0511dc034f999b52013eddfb24aab765c7590602001610f6c565b607a546001600160a01b03163314611cd257604051634755657960e01b815260040160405180910390fd5b62015180816001600160401b03161115611cff57604051631c0cfbfd60e31b815260040160405180910390fd5b606f805468ffffffffffffffff0019166101006001600160401b038416908102919091179091556040519081527f1b023231a1ab6b5d93992f168fb44498e1a7e64cef58daff6f1c216de6a68c2890602001610f6c565b606f5460ff1615611d7a57604051630bc011ff60e21b815260040160405180910390fd5b6079546001600160401b038881166000908152607260205260409020600101544292611db192600160c01b90910481169116614d44565b6001600160401b03161115611dd957604051638a0704d360e01b815260040160405180910390fd5b6103e8611de68989614ec4565b6001600160401b03161115611e0e57604051635acfba9d60e11b815260040160405180910390fd5b611e278989898989898989611e228a614f22565b613701565b611e3087613b15565b607954600160801b90046001600160401b0316600003611f1357607480546001600160401b0319166001600160401b0389811691821790925560009081526075602052604090208690556079541615611e9457607980546001600160801b03191690555b6040516333d6247d60e01b8152600481018790527f00000000000000000000000000000000000000000000000000000000000000006001600160a01b0316906333d6247d90602401600060405180830381600087803b158015611ef657600080fd5b505af1158015611f0a573d6000803e3d6000fd5b50505050611fc4565b611f1b613262565b607980546001600160401b0316906000611f3483614e62565b82546001600160401b039182166101009390930a9283029282021916919091179091556040805160808101825242831681528a831660208083019182528284018c8152606084018c8152607954871660009081526078909352949091209251835492518616600160401b026001600160801b03199093169516949094171781559151600183015551600290910155505b60405185815233906001600160401b038916907f9c72852172521097ba7e1482e6b44b351323df0155f97f4ea18fcec28e1f5966906020015b60405180910390a3505050505050505050565b607a546001600160a01b0316331461203b57604051634755657960e01b815260040160405180910390fd5b607b80546001600160a01b0319166001600160a01b0383161790556040517fa5b56b7906fd0a20e3f35120dd8343db1e12e037a6c90111c7e42885e82a1ce690610f6c908390614351565b61208e612ffe565b61120681613b15565b61209f612ffe565b60776120ab8282614fc9565b5050565b6079546000906001600160401b0316156120ec57506079546001600160401b03908116600090815260786020526040902054600160401b90041690565b506074546001600160401b031690565b607a546001600160a01b0316331461212757604051634755657960e01b815260040160405180910390fd5b60766121338282614fc9565b507f6b8f723a4c7a5335cafae8a598a0aa0301be1387c037dccc085b62add6448b2081604051610f6c9190614211565b600054610100900460ff16158080156121835750600054600160ff909116105b8061219d5750303b15801561219d575060005460ff166001145b6122005760405162461bcd60e51b815260206004820152602e60248201527f496e697469616c697a61626c653a20636f6e747261637420697320616c72656160448201526d191e481a5b9a5d1a585b1a5e995960921b6064820152608401610a49565b6000805460ff191660011790558015612223576000805461ff0019166101001790555b6122306020880188614570565b607a80546001600160a01b0319166001600160a01b03929092169190911790556122606040880160208901614570565b606f80546001600160a01b0392909216600160581b02600160581b600160f81b031990921691909117905561229b6080880160608901614570565b607480546001600160a01b0392909216600160401b02600160401b600160e01b03199092169190911790556000805260756020527ff9e3fbf150b7a0077118526f473c53cb4734f166167e2c6213e3567dd390b4ad86905560766122ff8682614fc9565b50607761230c8582614fc9565b5062093a806123216060890160408a01614365565b6001600160401b0316111561234957604051630cc9650760e41b815260040160405180910390fd5b6123596060880160408901614365565b607980546001600160401b0392909216600160801b0267ffffffffffffffff60801b1990921691909117905562093a8061239960a0890160808a01614365565b6001600160401b031611156123c157604051631d06e87960e01b815260040160405180910390fd5b6123d160a0880160808901614365565b607980546001600160c01b0316600160c01b6001600160401b039390931692909202919091179055670de0b6b3a7640000607055606f80546affffffffffffffffffff0019166a03ea00000000000007080017905561242e613d09565b7fed7be53c9f1a96a481223b15568a5b1a475e01a74b347d6ca187c8bf0c078cd660007f0000000000000000000000000000000000000000000000000000000000000000858560405161248494939291906150b1565b60405180910390a180156124d2576000805461ff0019169055604051600181527f7f26b83ff96e1f2b6a682f133852f6798a09c465da95921460cefb38474024989060200160405180910390a15b50505050505050565b606f5460ff16156124ff57604051630bc011ff60e21b815260040160405180910390fd5b8060008190036125225760405163cb591a5f60e01b815260040160405180910390fd5b6103e881111561254557604051635acfba9d60e11b815260040160405180910390fd5b6073546001600160401b03600160c01b820481169161256d918491600160801b9004166150e8565b111561258c5760405163c630a00d60e01b815260040160405180910390fd5b6073546001600160401b03600160401b820481166000818152607260205260408120549193600160801b9004909216915b8481101561272c5760008787838181106125d9576125d9614daa565b90506020028101906125eb91906150fb565b6125f490615111565b90508361260081614e62565b8251805160209182012081850151604080870151905194995091945060009361262c9386939101614e88565b60408051601f1981840301815291815281516020928301206001600160401b03891660009081526071909352912054909150811461267d5760405163671ebaaf60e11b815260040160405180910390fd5b6001600160401b0386166000908152607160205260408120556126a1600189614ee4565b84036126e15742600084604001516126b99190614d44565b6001600160401b031611156126e15760405163c44a082160e01b815260040160405180910390fd5b8482846020015142336040516020016126fe959493929190614d6b565b604051602081830303815290604052805190602001209450505050808061272490614eab565b9150506125bd565b506127378484614d44565b607380546001600160401b034281166001600160401b03199092168217808455604080516060810182528781526020808201958652600160401b9384900485168284019081528589166000818152607290935284832093518455965160019390930180549151871686026001600160801b031990921693871693909317179091558554938916600160801b0267ffffffffffffffff60801b1993860293909316600160401b600160c01b031990941693909317919091179093559151929550917f648a61dd2438f072f5a1960939abd30f37aea80d2e94c9792ad142d3e0a490a49190a2505050505050565b607454600160401b90046001600160a01b031633146128555760405163bbcbbc0560e01b815260040160405180910390fd5b6000604051806060016040528089815260200188815260200184848080601f016020809104026020016040519081016040528093929190818152602001838380828437600092019190915250505091525090506128b98d8d8d8d8d8b8b8b89613701565b607480546001600160401b0319166001600160401b038d811691821790925560009081526075602052604090208a9055607954161561290357607980546001600160801b03191690555b6040516333d6247d60e01b8152600481018b90527f00000000000000000000000000000000000000000000000000000000000000006001600160a01b0316906333d6247d90602401600060405180830381600087803b15801561296557600080fd5b505af1158015612979573d6000803e3d6000fd5b50506040518b81523392506001600160401b038e1691507fcb339b570a7f0b25afa7333371ff11192092a0aeace12b671f4c212f2815c6fe9060200160405180910390a350505050505050505050505050565b607a546001600160a01b031633146129f757604051634755657960e01b815260040160405180910390fd5b7f00000000000000000000000000000000000000000000000000000000000000006001600160a01b031663dbc169766040518163ffffffff1660e01b8152600401600060405180830381600087803b158015612a5257600080fd5b505af1158015612a66573d6000803e3d6000fd5b5050505061181a613d7d565b612a7a612ffe565b604080516060810182529384526001600160401b03928316602080860191825292841685830190815295841660009081526072909352912092518355516001909201805493518216600160401b026001600160801b03199094169290911691909117919091179055565b607454600160401b90046001600160a01b03163314612b165760405163bbcbbc0560e01b815260040160405180910390fd5b612b278989898989898989896133cf565b607480546001600160401b0319166001600160401b0388811691821790925560009081526075602052604090208590556079541615612b7157607980546001600160801b03191690555b6040516333d6247d60e01b8152600481018690527f00000000000000000000000000000000000000000000000000000000000000006001600160a01b0316906333d6247d90602401600060405180830381600087803b158015612bd357600080fd5b505af1158015612be7573d6000803e3d6000fd5b5050607980546001600160c01b031661127560c71b179055505060405184815233906001600160401b038816907fcc1b5520188bf1dd3e63f98164b577c4d75c11a619ddea692112f0d1aec4cf7290602001611ffd565b606f5460ff1615612c6257604051630bc011ff60e21b815260040160405180910390fd5b6000612c6d60705490565b905081811115612c9057604051634732fdb560e01b815260040160405180910390fd5b620493e0831115612cb4576040516328a69b1f60e21b815260040160405180910390fd5b612ce96001600160a01b037f0000000000000000000000000000000000000000000000000000000000000000163330846131f1565b60007f00000000000000000000000000000000000000000000000000000000000000006001600160a01b0316633ed691ef6040518163ffffffff1660e01b8152600401602060405180830381865afa158015612d49573d6000803e3d6000fd5b505050506040513d601f19601f82011682018060405250810190612d6d9190614c43565b60738054919250600160c01b9091046001600160401b0316906018612d9183614e62565b91906101000a8154816001600160401b0302191690836001600160401b03160217905550508484604051612dc6929190615171565b604051908190038120612ddf9183904290602001614e88565b60408051808303601f190181529181528151602092830120607354600160c01b90046001600160401b031660009081526071909352912055323303612e8357607354604080518381523360208201526060918101829052600091810191909152600160c01b9091046001600160401b0316907ff94bb37db835f1ab585ee00041849a09b12cd081d77fa15ca070757619cbc9319060800160405180910390a2612ee0565b607360189054906101000a90046001600160401b03166001600160401b03167ff94bb37db835f1ab585ee00041849a09b12cd081d77fa15ca070757619cbc93182338888604051612ed79493929190615181565b60405180910390a25b5050505050565b607a546001600160a01b03163314612f1257604051634755657960e01b815260040160405180910390fd5b60748054600160401b600160e01b031916600160401b6001600160a01b038416021790556040517f61f8fec29495a3078e9271456f05fb0707fd4e41f7661865f80fc437d06681ca90610f6c908390614351565b612f6e612ffe565b6001600160a01b038116612fd35760405162461bcd60e51b815260206004820152602660248201527f4f776e61626c653a206e6577206f776e657220697320746865207a65726f206160448201526564647265737360d01b6064820152608401610a49565b61120681613302565b612fe4612ffe565b6001600160401b0316600090815260756020526040902055565b6033546001600160a01b0316331461181a5760405162461bcd60e51b815260206004820181905260248201527f4f776e61626c653a2063616c6c6572206973206e6f7420746865206f776e65726044820152606401610a49565b6079546001600160401b03600160401b909104811690821611158061308b57506079546001600160401b03908116908216115b156130a95760405163d086b70b60e01b815260040160405180910390fd5b6001600160401b038181166000818152607860209081526040808320805460748054600160401b928390049098166001600160401b0319909816881790556002820154878652607590945293829020929092556079805467ffffffffffffffff60401b19169390940292909217909255600182015490516333d6247d60e01b815260048101919091529091907f00000000000000000000000000000000000000000000000000000000000000006001600160a01b0316906333d6247d90602401600060405180830381600087803b15801561318357600080fd5b505af1158015613197573d6000803e3d6000fd5b50505050826001600160401b0316816001600160401b03167f328d3c6c0fd6f1be0515e422f2d87e59f25922cbc2233568515a0c4bc3f8510e84600201546040516131e491815260200190565b60405180910390a3505050565b6040516001600160a01b038085166024830152831660448201526064810182905261325c9085906323b872dd60e01b906084015b60408051601f198184030181529190526020810180516001600160e01b03166001600160e01b031990931692909217909152613dd5565b50505050565b6079546001600160401b03600160401b820481169116111561181a5760795460009061329f90600160401b90046001600160401b03166001614d44565b90506132aa81611065565b15611206576079546000906002906132cc9084906001600160401b0316614ec4565b6132d691906151ac565b6132e09083614d44565b90506132eb81611065565b156132f9576120ab81613058565b6120ab82613058565b603380546001600160a01b038381166001600160a01b0319831681179093556040519116919082907f8be0079c531659141344cd1fd0a4f28419497f9722a3daafe3b4186f6b6457e090600090a35050565b7f00000000000000000000000000000000000000000000000000000000000000006001600160a01b0316632072f6c56040518163ffffffff1660e01b8152600401600060405180830381600087803b1580156133af57600080fd5b505af11580156133c3573d6000803e3d6000fd5b5050505061181a613eac565b60006001600160401b038a1615613463576079546001600160401b03908116908b1611156134105760405163bb14c20560e01b815260040160405180910390fd5b506001600160401b03808a1660009081526078602052604090206002810154815490928a8116600160401b909204161461345d57604051632bd2e3e760e01b815260040160405180910390fd5b506134cb565b506001600160401b0387166000908152607560205260409020548061349b576040516324cbdcc360e11b815260040160405180910390fd5b6074546001600160401b0390811690891611156134cb57604051630f2b74f160e11b815260040160405180910390fd5b6079546001600160401b03908116908a1611806134fa5750896001600160401b0316896001600160401b031611155b8061351b57506079546001600160401b03600160401b9091048116908a1611155b156135395760405163bfa7079f60e01b815260040160405180910390fd5b6001600160401b03898116600090815260786020526040902054600160401b900481169088161461357d576040516332a2a77f60e01b815260040160405180910390fd5b600061358c898989858a610f77565b905060006000805160206152838339815191526002836040516135af9190614c27565b602060405180830381855afa1580156135cc573d6000803e3d6000fd5b5050506040513d601f19601f820116820180604052508101906135ef9190614c43565b6135f99190614c72565b6040805160208101825282815290516343753b4d60e01b81529192506001600160a01b037f000000000000000000000000000000000000000000000000000000000000000016916343753b4d91613659918a918a918a91906004016151d2565b602060405180830381865afa158015613676573d6000803e3d6000fd5b505050506040513d601f19601f8201168201806040525081019061369a9190615240565b6136b7576040516309bde33960e01b815260040160405180910390fd5b6001600160401b038b166000908152607860205260409020600201548790036136f35760405163a47276bd60e01b815260040160405180910390fd5b505050505050505050505050565b60008061370c6120af565b90506001600160401b038b16156137a2576079546001600160401b03908116908c16111561374d5760405163bb14c20560e01b815260040160405180910390fd5b6001600160401b03808c1660009081526078602052604090206002810154815490945090918c8116600160401b909204161461379c57604051632bd2e3e760e01b815260040160405180910390fd5b5061380e565b6001600160401b038a166000908152607560205260409020549150816137db576040516324cbdcc360e11b815260040160405180910390fd5b806001600160401b03168a6001600160401b0316111561380e57604051630f2b74f160e11b815260040160405180910390fd5b806001600160401b0316896001600160401b0316116138405760405163b9b18f5760e01b815260040160405180910390fd5b6040516349ce899760e01b81526001600160401b038b1660048201526000907f00000000000000000000000000000000000000000000000000000000000000006001600160a01b0316906349ce899790602401602060405180830381865afa1580156138b0573d6000803e3d6000fd5b505050506040513d601f19601f820116820180604052508101906138d49190614c43565b6040516349ce899760e01b81526001600160401b038c1660048201529091506000906001600160a01b037f000000000000000000000000000000000000000000000000000000000000000016906349ce899790602401602060405180830381865afa158015613947573d6000803e3d6000fd5b505050506040513d601f19601f8201168201806040525081019061396b9190614c43565b9050600061397d858e8e8d8f8b613f08565b905060006000805160206152838339815191526002836040516139a09190614c27565b602060405180830381855afa1580156139bd573d6000803e3d6000fd5b5050506040513d601f19601f820116820180604052508101906139e09190614c43565b6139ea9190614c72565b6040805160208101825282815290516343753b4d60e01b81529192506001600160a01b037f000000000000000000000000000000000000000000000000000000000000000016916343753b4d91613a4a918e918e918e91906004016151d2565b602060405180830381865afa158015613a67573d6000803e3d6000fd5b505050506040513d601f19601f82011682018060405250810190613a8b9190615240565b613aa8576040516309bde33960e01b815260040160405180910390fd5b613b0433868f613ab89190614ec4565b6001600160401b0316613ac9611a72565b613ad39190614ef7565b6001600160a01b037f0000000000000000000000000000000000000000000000000000000000000000169190613f90565b505050505050505050505050505050565b6000613b1f6120af565b905081600080613b2f8484614ec4565b606f546001600160401b039182169250600091613b529161010090041642614ee4565b90505b846001600160401b0316846001600160401b031614613bf2576001600160401b0380851660009081526072602052604090206001810154909116821015613be6576001810154613bb590600160401b90046001600160401b031686614ec4565b613bc8906001600160401b0316856150e8565b6001820154600160401b90046001600160401b031695509350613bec565b50613bf2565b50613b55565b6000613bfe8484614ee4565b905080841015613c5557838103600c8111613c195780613c1c565b600c5b9050806103e80a81606f60099054906101000a900461ffff1661ffff160a6070540281613c4b57613c4b614c5c565b0460705550613cc5565b808403600c8111613c665780613c69565b600c5b90506000816103e80a82606f60099054906101000a900461ffff1661ffff160a670de0b6b3a76400000281613ca057613ca0614c5c565b04905080607054670de0b6b3a76400000281613cbe57613cbe614c5c565b0460705550505b683635c9adc5dea000006070541115613cea57683635c9adc5dea000006070556124d2565b633b9aca0060705410156124d257633b9aca0060705550505050505050565b600054610100900460ff16613d745760405162461bcd60e51b815260206004820152602b60248201527f496e697469616c697a61626c653a20636f6e7472616374206973206e6f74206960448201526a6e697469616c697a696e6760a81b6064820152608401610a49565b61181a33613302565b606f5460ff16613da057604051635386698160e01b815260040160405180910390fd5b606f805460ff191690556040517f1e5e34eea33501aecf2ebec9fe0e884a40804275ea7fe10b2ba084c8374308b390600090a1565b6000613e2a826040518060400160405280602081526020017f5361666545524332303a206c6f772d6c6576656c2063616c6c206661696c6564815250856001600160a01b0316613fc09092919063ffffffff16565b805190915015613ea75780806020019051810190613e489190615240565b613ea75760405162461bcd60e51b815260206004820152602a60248201527f5361666545524332303a204552433230206f7065726174696f6e20646964206e6044820152691bdd081cdd58d8d9595960b21b6064820152608401610a49565b505050565b606f5460ff1615613ed057604051630bc011ff60e21b815260040160405180910390fd5b606f805460ff191660011790556040517f2261efe5aef6fedc1fd1550b25facc9181745623049c7901287030b9ad1a549790600090a1565b606033878360000151887f00000000000000000000000000000000000000000000000000000000000000007f00000000000000000000000000000000000000000000000000000000000000008988602001518a8d604051602001613f759a99989796959493929190614cc0565b60405160208183030381529060405290509695505050505050565b6040516001600160a01b038316602482015260448101829052613ea790849063a9059cbb60e01b90606401613225565b6060613fcf8484600085613fd7565b949350505050565b6060824710156140385760405162461bcd60e51b815260206004820152602660248201527f416464726573733a20696e73756666696369656e742062616c616e636520666f6044820152651c8818d85b1b60d21b6064820152608401610a49565b600080866001600160a01b031685876040516140549190614c27565b60006040518083038185875af1925050503d8060008114614091576040519150601f19603f3d011682016040523d82523d6000602084013e614096565b606091505b50915091506140a7878383876140b2565b979650505050505050565b6060831561412157825160000361411a576001600160a01b0385163b61411a5760405162461bcd60e51b815260206004820152601d60248201527f416464726573733a2063616c6c20746f206e6f6e2d636f6e74726163740000006044820152606401610a49565b5081613fcf565b613fcf83838151156141365781518083602001fd5b8060405162461bcd60e51b8152600401610a499190614211565b80356001600160401b038116811461416757600080fd5b919050565b600080600080600060a0868803121561418457600080fd5b61418d86614150565b945061419b60208701614150565b93506141a960408701614150565b94979396509394606081013594506080013592915050565b60005b838110156141dc5781810151838201526020016141c4565b50506000910152565b600081518084526141fd8160208601602086016141c1565b601f01601f19169290920160200192915050565b60208152600061422460208301846141e5565b9392505050565b806040810183101561423c57600080fd5b92915050565b806080810183101561423c57600080fd5b6000806000806000806000806101a0898b03121561427057600080fd5b61427989614150565b975061428760208a01614150565b965061429560408a01614150565b955060608901359450608089013593506142b28a60a08b0161422b565b92506142c18a60e08b01614242565b91506142d18a6101608b0161422b565b90509295985092959890939650565b6000602082840312156142f257600080fd5b813561ffff8116811461422457600080fd5b600080600080600060a0868803121561431c57600080fd5b61432586614150565b945061433360208701614150565b94979496505050506040830135926060810135926080909101359150565b6001600160a01b0391909116815260200190565b60006020828403121561437757600080fd5b61422482614150565b634e487b7160e01b600052604160045260246000fd5b604051606081016001600160401b03811182821017156143b8576143b8614380565b60405290565b600082601f8301126143cf57600080fd5b81356001600160401b03808211156143e9576143e9614380565b604051601f8301601f19908116603f0116810190828211818310171561441157614411614380565b8160405283815286602085880101111561442a57600080fd5b836020870160208301376000602085830101528094505050505092915050565b80356001600160a01b038116811461416757600080fd5b600080600080600060a0868803121561447957600080fd5b8535945060208601356001600160401b0381111561449657600080fd5b6144a2888289016143be565b945050604086013592506144b860608701614150565b91506144c66080870161444a565b90509295509295909350565b60008083601f8401126144e457600080fd5b5081356001600160401b038111156144fb57600080fd5b6020830191508360208260051b850101111561451657600080fd5b9250929050565b60008060006040848603121561453257600080fd5b83356001600160401b0381111561454857600080fd5b614554868287016144d2565b909450925061456790506020850161444a565b90509250925092565b60006020828403121561458257600080fd5b6142248261444a565b60008060008060008060008060006101c08a8c0312156145aa57600080fd5b6145b38a614150565b98506145c160208b01614150565b97506145cf60408b01614150565b96506145dd60608b01614150565b955060808a0135945060a08a013593506145fa8b60c08c0161422b565b925061460a8b6101008c01614242565b915061461a8b6101808c0161422b565b90509295985092959850929598565b60006020828403121561463b57600080fd5b5035919050565b60008060008060008060008060006101c08a8c03121561466157600080fd5b61466a8a614150565b985061467860208b01614150565b975061468660408b01614150565b965060608a0135955060808a013594506146a38b60a08c0161422b565b93506146b28b60e08c01614242565b92506146c28b6101608c0161422b565b91506101a08a01356001600160401b038111156146de57600080fd5b8a016060818d0312156146f057600080fd5b809150509295985092959850929598565b60006020828403121561471357600080fd5b81356001600160401b0381111561472957600080fd5b613fcf848285016143be565b60008083601f84011261474757600080fd5b5081356001600160401b0381111561475e57600080fd5b60208301915083602082850101111561451657600080fd5b60008060008060008086880361012081121561479157600080fd5b60a081121561479f57600080fd5b5086955060a0870135945060c08701356001600160401b03808211156147c457600080fd5b6147d08a838b016143be565b955060e08901359150808211156147e657600080fd5b6147f28a838b016143be565b945061010089013591508082111561480957600080fd5b5061481689828a01614735565b979a9699509497509295939492505050565b6000806020838503121561483b57600080fd5b82356001600160401b0381111561485157600080fd5b61485d858286016144d2565b90969095509350505050565b6000806000806000806000806000806000806102008d8f03121561488c57600080fd5b6148958d614150565b9b506148a360208e01614150565b9a506148b160408e01614150565b995060608d0135985060808d0135975060a08d0135965060c08d013595506148dc8e60e08f0161422b565b94506148ec8e6101208f01614242565b93506148fc8e6101a08f0161422b565b92506001600160401b036101e08e0135111561491757600080fd5b6149288e6101e08f01358f01614735565b81935080925050509295989b509295989b509295989b565b6000806000806080858703121561495657600080fd5b61495f85614150565b93506020850135925061497460408601614150565b915061498260608601614150565b905092959194509250565b6000806000604084860312156149a257600080fd5b83356001600160401b038111156149b857600080fd5b6149c486828701614735565b909790965060209590950135949350505050565b600080604083850312156149eb57600080fd5b823591506149fb60208401614150565b90509250929050565b60208082526058908201527f506f6c79676f6e5a6b45564d3a3a766572696679426174636865733a2070656e60408201527f64696e6753746174654e756d206d757374206265206c657373206f7220657175606082015277616c207468616e206c61737450656e64696e67537461746560401b608082015260a00190565b6020808252604c9082015260008051602061526383398151915260408201527f744e756d4261746368206d757374206d61746368207468652070656e64696e6760608201526b040e6e8c2e8ca40c4c2e8c6d60a31b608082015260a00190565b602080825260439082015260008051602061526383398151915260408201527f744e756d426174636820737461746520726f6f7420646f6573206e6f742065786060820152621a5cdd60ea1b608082015260a00190565b6020808252605d9082015260008051602061526383398151915260408201527f744e756d4261746368206d757374206265206c657373206f7220657175616c2060608201527f7468616e2063757272656e744c61737456657269666965644261746368000000608082015260a00190565b60208082526057908201527f506f6c79676f6e5a6b45564d3a3a766572696679426174636865733a2066696e60408201527f616c4e65774261746368206d75737420626520626967676572207468616e20636060820152760eae4e4cadce898c2e6e8accae4d2ccd2cac884c2e8c6d604b1b608082015260a00190565b60008251614c398184602087016141c1565b9190910192915050565b600060208284031215614c5557600080fd5b5051919050565b634e487b7160e01b600052601260045260246000fd5b600082614c8157614c81614c5c565b500690565b600181811c90821680614c9a57607f821691505b602082108103614cba57634e487b7160e01b600052602260045260246000fd5b50919050565b60609a909a1b6001600160601b0319168a5260148a0198909852603489019690965260c094851b6001600160c01b031990811660548a015293851b8416605c89015291841b83166064880152606c870152608c86015260ac8501929092529190911b1660cc82015260d40190565b634e487b7160e01b600052601160045260246000fd5b6001600160401b03818116838216019080821115614d6457614d64614d2e565b5092915050565b9485526020850193909352604084019190915260c01b6001600160c01b0319166060808401919091521b6001600160601b0319166068820152607c0190565b634e487b7160e01b600052603260045260246000fd5b60008235607e19833603018112614c3957600080fd5b600060808236031215614de857600080fd5b604051608081016001600160401b038282108183111715614e0b57614e0b614380565b816040528435915080821115614e2057600080fd5b50614e2d368286016143be565b82525060208301356020820152614e4660408401614150565b6040820152614e5760608401614150565b606082015292915050565b60006001600160401b03808316818103614e7e57614e7e614d2e565b6001019392505050565b928352602083019190915260c01b6001600160c01b031916604082015260480190565b600060018201614ebd57614ebd614d2e565b5060010190565b6001600160401b03828116828216039080821115614d6457614d64614d2e565b8181038181111561423c5761423c614d2e565b808202811582820484141761423c5761423c614d2e565b600082614f1d57614f1d614c5c565b500490565b600060608236031215614f3457600080fd5b614f3c614396565b823581526020830135602082015260408301356001600160401b03811115614f6357600080fd5b614f6f368286016143be565b60408301525092915050565b601f821115613ea757600081815260208120601f850160051c81016020861015614fa25750805b601f850160051c820191505b81811015614fc157828155600101614fae565b505050505050565b81516001600160401b03811115614fe257614fe2614380565b614ff681614ff08454614c86565b84614f7b565b602080601f83116001811461502b57600084156150135750858301515b600019600386901b1c1916600185901b178555614fc1565b600085815260208120601f198616915b8281101561505a5788860151825594840194600190910190840161503b565b50858210156150785787850151600019600388901b60f8161c191681555b5050505050600190811b01905550565b81835281816020850137506000828201602090810191909152601f909101601f19169091010190565b60006001600160401b038087168352808616602084015250606060408301526150de606083018486615088565b9695505050505050565b8082018082111561423c5761423c614d2e565b60008235605e19833603018112614c3957600080fd5b60006060823603121561512357600080fd5b61512b614396565b82356001600160401b0381111561514157600080fd5b61514d368286016143be565b8252506020830135602082015261516660408401614150565b604082015292915050565b8183823760009101908152919050565b8481526001600160a01b03841660208201526060604082018190526000906150de9083018486615088565b60006001600160401b03808416806151c6576151c6614c5c565b92169190910492915050565b61012081016040808784378083018660005b6002811015615201578382843791830191908301906001016151e4565b505050808560c08501375061010082018360005b6001811015615234578151835260209283019290910190600101615215565b50505095945050505050565b60006020828403121561525257600080fd5b8151801515811461422457600080fdfe506f6c79676f6e5a6b45564d3a3a766572696679426174636865733a20696e6930644e72e131a029b85045b68181585d2833e84879b9709143e1f593f0000001a264697066735822122032af8e1057396f319b0d874ebc1c555cdd7afe965b3aa17eec23c0294ff681fc64736f6c63430008110033",
  "linkReferences": {},
  "deployedLinkReferences": {}
}