{
  "_format": "hh-sol-artifact-1",
  "contractName": "PolygonZkEVMMock",
  "sourceName": "contracts/mocks/PolygonZkEVMMock.sol",
  "abi": [
    {
      "inputs": [
        {
          "internalType": "contract IPolygonZkEVMGlobalExitRoot",
          "name": "_globalExitRootManager",
          "type": "address"
        },
        {
          "internalType": "contract IERC20Upgradeable",
          "name": "_matic",
          "type": "address"
        },
        {
          "internalType": "contract IVerifierRollup",
          "name": "_rollupVerifier",
          "type": "address"
        },
        {
          "internalType": "contract IPolygonZkEVMBridge",
          "name": "_bridgeAddress",
          "type": "address"
        },
        {
          "internalType": "uint64",
          "name": "_chainID",
          "type": "uint64"
        },
        {
          "internalType": "uint64",
          "name": "_forkID",
          "type": "uint64"
        }
      ],
      "stateMutability": "nonpayable",
      "type": "constructor"
    },
    {
      "inputs": [],
      "name": "BatchAlreadyVerified",
      "type": "error"
    },
    {
      "inputs": [],
      "name": "BatchNotSequencedOrNotSequenceEnd",
      "type": "error"
    },
    {
      "inputs": [],
      "name": "ExceedMaxVerifyBatches",
      "type": "error"
    },
    {
      "inputs": [],
      "name": "FinalNumBatchBelowLastVerifiedBatch",
      "type": "error"
    },
    {
      "inputs": [],
      "name": "FinalNumBatchDoesNotMatchPendingState",
      "type": "error"
    },
    {
      "inputs": [],
      "name": "FinalPendingStateNumInvalid",
      "type": "error"
    },
    {
      "inputs": [],
      "name": "ForceBatchTimeoutNotExpired",
      "type": "error"
    },
    {
      "inputs": [],
      "name": "ForceBatchesOverflow",
      "type": "error"
    },
    {
      "inputs": [],
      "name": "ForcedDataDoesNotMatch",
      "type": "error"
    },
    {
      "inputs": [],
      "name": "GlobalExitRootNotExist",
      "type": "error"
    },
    {
      "inputs": [],
      "name": "HaltTimeoutNotExpired",
      "type": "error"
    },
    {
      "inputs": [],
      "name": "InitNumBatchAboveLastVerifiedBatch",
      "type": "error"
    },
    {
      "inputs": [],
      "name": "InitNumBatchDoesNotMatchPendingState",
      "type": "error"
    },
    {
      "inputs": [],
      "name": "InvalidProof",
      "type": "error"
    },
    {
      "inputs": [],
      "name": "InvalidRangeBatchTimeTarget",
      "type": "error"
    },
    {
      "inputs": [],
      "name": "InvalidRangeMultiplierBatchFee",
      "type": "error"
    },
    {
      "inputs": [],
      "name": "NewAccInputHashDoesNotExist",
      "type": "error"
    },
    {
      "inputs": [],
      "name": "NewPendingStateTimeoutMustBeLower",
      "type": "error"
    },
    {
      "inputs": [],
      "name": "NewTrustedAggregatorTimeoutMustBeLower",
      "type": "error"
    },
    {
      "inputs": [],
      "name": "NotEnoughMaticAmount",
      "type": "error"
    },
    {
      "inputs": [],
      "name": "OldAccInputHashDoesNotExist",
      "type": "error"
    },
    {
      "inputs": [],
      "name": "OldStateRootDoesNotExist",
      "type": "error"
    },
    {
      "inputs": [],
      "name": "OnlyAdmin",
      "type": "error"
    },
    {
      "inputs": [],
      "name": "OnlyEmergencyState",
      "type": "error"
    },
    {
      "inputs": [],
      "name": "OnlyNotEmergencyState",
      "type": "error"
    },
    {
      "inputs": [],
      "name": "OnlyPendingAdmin",
      "type": "error"
    },
    {
      "inputs": [],
      "name": "OnlyTrustedAggregator",
      "type": "error"
    },
    {
      "inputs": [],
      "name": "OnlyTrustedSequencer",
      "type": "error"
    },
    {
      "inputs": [],
      "name": "PendingStateDoesNotExist",
      "type": "error"
    },
    {
      "inputs": [],
      "name": "PendingStateInvalid",
      "type": "error"
    },
    {
      "inputs": [],
      "name": "PendingStateNotConsolidable",
      "type": "error"
    },
    {
      "inputs": [],
      "name": "PendingStateTimeoutExceedHaltAggregationTimeout",
      "type": "error"
    },
    {
      "inputs": [],
      "name": "SequenceZeroBatches",
      "type": "error"
    },
    {
      "inputs": [],
      "name": "SequencedTimestampBelowForcedTimestamp",
      "type": "error"
    },
    {
      "inputs": [],
      "name": "SequencedTimestampInvalid",
      "type": "error"
    },
    {
      "inputs": [],
      "name": "StoredRootMustBeDifferentThanNewRoot",
      "type": "error"
    },
    {
      "inputs": [],
      "name": "TransactionsLengthAboveMax",
      "type": "error"
    },
    {
      "inputs": [],
      "name": "TrustedAggregatorTimeoutExceedHaltAggregationTimeout",
      "type": "error"
    },
    {
      "inputs": [],
      "name": "TrustedAggregatorTimeoutNotExpired",
      "type": "error"
    },
    {
      "anonymous": false,
      "inputs": [
        {
          "indexed": false,
          "internalType": "address",
          "name": "newAdmin",
          "type": "address"
        }
      ],
      "name": "AcceptAdminRole",
      "type": "event"
    },
    {
      "anonymous": false,
      "inputs": [
        {
          "indexed": true,
          "internalType": "uint64",
          "name": "numBatch",
          "type": "uint64"
        },
        {
          "indexed": false,
          "internalType": "bytes32",
          "name": "stateRoot",
          "type": "bytes32"
        },
        {
          "indexed": true,
          "internalType": "uint64",
          "name": "pendingStateNum",
          "type": "uint64"
        }
      ],
      "name": "ConsolidatePendingState",
      "type": "event"
    },
    {
      "anonymous": false,
      "inputs": [],
      "name": "EmergencyStateActivated",
      "type": "event"
    },
    {
      "anonymous": false,
      "inputs": [],
      "name": "EmergencyStateDeactivated",
      "type": "event"
    },
    {
      "anonymous": false,
      "inputs": [
        {
          "indexed": true,
          "internalType": "uint64",
          "name": "forceBatchNum",
          "type": "uint64"
        },
        {
          "indexed": false,
          "internalType": "bytes32",
          "name": "lastGlobalExitRoot",
          "type": "bytes32"
        },
        {
          "indexed": false,
          "internalType": "address",
          "name": "sequencer",
          "type": "address"
        },
        {
          "indexed": false,
          "internalType": "bytes",
          "name": "transactions",
          "type": "bytes"
        }
      ],
      "name": "ForceBatch",
      "type": "event"
    },
    {
      "anonymous": false,
      "inputs": [
        {
          "indexed": false,
          "internalType": "uint8",
          "name": "version",
          "type": "uint8"
        }
      ],
      "name": "Initialized",
      "type": "event"
    },
    {
      "anonymous": false,
      "inputs": [
        {
          "indexed": true,
          "internalType": "uint64",
          "name": "numBatch",
          "type": "uint64"
        },
        {
          "indexed": false,
          "internalType": "bytes32",
          "name": "stateRoot",
          "type": "bytes32"
        },
        {
          "indexed": true,
          "internalType": "address",
          "name": "aggregator",
          "type": "address"
        }
      ],
      "name": "OverridePendingState",
      "type": "event"
    },
    {
      "anonymous": false,
      "inputs": [
        {
          "indexed": true,
          "internalType": "address",
          "name": "previousOwner",
          "type": "address"
        },
        {
          "indexed": true,
          "internalType": "address",
          "name": "newOwner",
          "type": "address"
        }
      ],
      "name": "OwnershipTransferred",
      "type": "event"
    },
    {
      "anonymous": false,
      "inputs": [
        {
          "indexed": false,
          "internalType": "bytes32",
          "name": "storedStateRoot",
          "type": "bytes32"
        },
        {
          "indexed": false,
          "internalType": "bytes32",
          "name": "provedStateRoot",
          "type": "bytes32"
        }
      ],
      "name": "ProveNonDeterministicPendingState",
      "type": "event"
    },
    {
      "anonymous": false,
      "inputs": [
        {
          "indexed": true,
          "internalType": "uint64",
          "name": "numBatch",
          "type": "uint64"
        }
      ],
      "name": "SequenceBatches",
      "type": "event"
    },
    {
      "anonymous": false,
      "inputs": [
        {
          "indexed": true,
          "internalType": "uint64",
          "name": "numBatch",
          "type": "uint64"
        }
      ],
      "name": "SequenceForceBatches",
      "type": "event"
    },
    {
      "anonymous": false,
      "inputs": [
        {
          "indexed": false,
          "internalType": "uint16",
          "name": "newMultiplierBatchFee",
          "type": "uint16"
        }
      ],
      "name": "SetMultiplierBatchFee",
      "type": "event"
    },
    {
      "anonymous": false,
      "inputs": [
        {
          "indexed": false,
          "internalType": "uint64",
          "name": "newPendingStateTimeout",
          "type": "uint64"
        }
      ],
      "name": "SetPendingStateTimeout",
      "type": "event"
    },
    {
      "anonymous": false,
      "inputs": [
        {
          "indexed": false,
          "internalType": "address",
          "name": "newTrustedAggregator",
          "type": "address"
        }
      ],
      "name": "SetTrustedAggregator",
      "type": "event"
    },
    {
      "anonymous": false,
      "inputs": [
        {
          "indexed": false,
          "internalType": "uint64",
          "name": "newTrustedAggregatorTimeout",
          "type": "uint64"
        }
      ],
      "name": "SetTrustedAggregatorTimeout",
      "type": "event"
    },
    {
      "anonymous": false,
      "inputs": [
        {
          "indexed": false,
          "internalType": "address",
          "name": "newTrustedSequencer",
          "type": "address"
        }
      ],
      "name": "SetTrustedSequencer",
      "type": "event"
    },
    {
      "anonymous": false,
      "inputs": [
        {
          "indexed": false,
          "internalType": "string",
          "name": "newTrustedSequencerURL",
          "type": "string"
        }
      ],
      "name": "SetTrustedSequencerURL",
      "type": "event"
    },
    {
      "anonymous": false,
      "inputs": [
        {
          "indexed": false,
          "internalType": "uint64",
          "name": "newVerifyBatchTimeTarget",
          "type": "uint64"
        }
      ],
      "name": "SetVerifyBatchTimeTarget",
      "type": "event"
    },
    {
      "anonymous": false,
      "inputs": [
        {
          "indexed": false,
          "internalType": "address",
          "name": "newPendingAdmin",
          "type": "address"
        }
      ],
      "name": "TransferAdminRole",
      "type": "event"
    },
    {
      "anonymous": false,
      "inputs": [
        {
          "indexed": false,
          "internalType": "uint64",
          "name": "numBatch",
          "type": "uint64"
        },
        {
          "indexed": false,
          "internalType": "uint64",
          "name": "forkID",
          "type": "uint64"
        },
        {
          "indexed": false,
          "internalType": "string",
          "name": "version",
          "type": "string"
        }
      ],
      "name": "UpdateZkEVMVersion",
      "type": "event"
    },
    {
      "anonymous": false,
      "inputs": [
        {
          "indexed": true,
          "internalType": "uint64",
          "name": "numBatch",
          "type": "uint64"
        },
        {
          "indexed": false,
          "internalType": "bytes32",
          "name": "stateRoot",
          "type": "bytes32"
        },
        {
          "indexed": true,
          "internalType": "address",
          "name": "aggregator",
          "type": "address"
        }
      ],
      "name": "VerifyBatches",
      "type": "event"
    },
    {
      "anonymous": false,
      "inputs": [
        {
          "indexed": true,
          "internalType": "uint64",
          "name": "numBatch",
          "type": "uint64"
        },
        {
          "indexed": false,
          "internalType": "bytes32",
          "name": "stateRoot",
          "type": "bytes32"
        },
        {
          "indexed": true,
          "internalType": "address",
          "name": "aggregator",
          "type": "address"
        }
      ],
      "name": "VerifyBatchesTrustedAggregator",
      "type": "event"
    },
    {
      "inputs": [],
      "name": "acceptAdminRole",
      "outputs": [],
      "stateMutability": "nonpayable",
      "type": "function"
    },
    {
      "inputs": [
        {
          "internalType": "uint64",
          "name": "sequencedBatchNum",
          "type": "uint64"
        }
      ],
      "name": "activateEmergencyState",
      "outputs": [],
      "stateMutability": "nonpayable",
      "type": "function"
    },
    {
      "inputs": [],
      "name": "admin",
      "outputs": [
        {
          "internalType": "address",
          "name": "",
          "type": "address"
        }
      ],
      "stateMutability": "view",
      "type": "function"
    },
    {
      "inputs": [],
      "name": "batchFee",
      "outputs": [
        {
          "internalType": "uint256",
          "name": "",
          "type": "uint256"
        }
      ],
      "stateMutability": "view",
      "type": "function"
    },
    {
      "inputs": [
        {
          "internalType": "uint64",
          "name": "",
          "type": "uint64"
        }
      ],
      "name": "batchNumToStateRoot",
      "outputs": [
        {
          "internalType": "bytes32",
          "name": "",
          "type": "bytes32"
        }
      ],
      "stateMutability": "view",
      "type": "function"
    },
    {
      "inputs": [],
      "name": "bridgeAddress",
      "outputs": [
        {
          "internalType": "contract IPolygonZkEVMBridge",
          "name": "",
          "type": "address"
        }
      ],
      "stateMutability": "view",
      "type": "function"
    },
    {
      "inputs": [
        {
          "internalType": "bytes32",
          "name": "currentAccInputHash",
          "type": "bytes32"
        },
        {
          "internalType": "bytes",
          "name": "transactions",
          "type": "bytes"
        },
        {
          "internalType": "bytes32",
          "name": "globalExitRoot",
          "type": "bytes32"
        },
        {
          "internalType": "uint64",
          "name": "timestamp",
          "type": "uint64"
        },
        {
          "internalType": "address",
          "name": "sequencerAddress",
          "type": "address"
        }
      ],
      "name": "calculateAccInputHash",
      "outputs": [
        {
          "internalType": "bytes32",
          "name": "",
          "type": "bytes32"
        }
      ],
      "stateMutability": "pure",
      "type": "function"
    },
    {
      "inputs": [],
      "name": "calculateRewardPerBatch",
      "outputs": [
        {
          "internalType": "uint256",
          "name": "",
          "type": "uint256"
        }
      ],
      "stateMutability": "view",
      "type": "function"
    },
    {
      "inputs": [],
      "name": "chainID",
      "outputs": [
        {
          "internalType": "uint64",
          "name": "",
          "type": "uint64"
        }
      ],
      "stateMutability": "view",
      "type": "function"
    },
    {
      "inputs": [
        {
          "internalType": "uint64",
          "name": "pendingStateNum",
          "type": "uint64"
        }
      ],
      "name": "consolidatePendingState",
      "outputs": [],
      "stateMutability": "nonpayable",
      "type": "function"
    },
    {
      "inputs": [],
      "name": "deactivateEmergencyState",
      "outputs": [],
      "stateMutability": "nonpayable",
      "type": "function"
    },
    {
      "inputs": [
        {
          "internalType": "bytes",
          "name": "transactions",
          "type": "bytes"
        },
        {
          "internalType": "uint256",
          "name": "maticAmount",
          "type": "uint256"
        }
      ],
      "name": "forceBatch",
      "outputs": [],
      "stateMutability": "nonpayable",
      "type": "function"
    },
    {
      "inputs": [
        {
          "internalType": "uint64",
          "name": "",
          "type": "uint64"
        }
      ],
      "name": "forcedBatches",
      "outputs": [
        {
          "internalType": "bytes32",
          "name": "",
          "type": "bytes32"
        }
      ],
      "stateMutability": "view",
      "type": "function"
    },
    {
      "inputs": [],
      "name": "forkID",
      "outputs": [
        {
          "internalType": "uint64",
          "name": "",
          "type": "uint64"
        }
      ],
      "stateMutability": "view",
      "type": "function"
    },
    {
      "inputs": [],
      "name": "getCurrentBatchFee",
      "outputs": [
        {
          "internalType": "uint256",
          "name": "",
          "type": "uint256"
        }
      ],
      "stateMutability": "view",
      "type": "function"
    },
    {
      "inputs": [
        {
          "internalType": "uint64",
          "name": "initNumBatch",
          "type": "uint64"
        },
        {
          "internalType": "uint64",
          "name": "finalNewBatch",
          "type": "uint64"
        },
        {
          "internalType": "bytes32",
          "name": "newLocalExitRoot",
          "type": "bytes32"
        },
        {
          "internalType": "bytes32",
          "name": "oldStateRoot",
          "type": "bytes32"
        },
        {
          "internalType": "bytes32",
          "name": "newStateRoot",
          "type": "bytes32"
        }
      ],
      "name": "getInputSnarkBytes",
      "outputs": [
        {
          "internalType": "bytes",
          "name": "",
          "type": "bytes"
        }
      ],
      "stateMutability": "view",
      "type": "function"
    },
    {
      "inputs": [],
      "name": "getLastVerifiedBatch",
      "outputs": [
        {
          "internalType": "uint64",
          "name": "",
          "type": "uint64"
        }
      ],
      "stateMutability": "view",
      "type": "function"
    },
    {
      "inputs": [
        {
          "internalType": "uint64",
          "name": "pendingStateNum",
          "type": "uint64"
        },
        {
          "internalType": "uint64",
          "name": "initNumBatch",
          "type": "uint64"
        },
        {
          "internalType": "uint64",
          "name": "finalNewBatch",
          "type": "uint64"
        },
        {
          "internalType": "bytes32",
          "name": "newLocalExitRoot",
          "type": "bytes32"
        },
        {
          "internalType": "bytes32",
          "name": "newStateRoot",
          "type": "bytes32"
        }
      ],
      "name": "getNextSnarkInput",
      "outputs": [
        {
          "internalType": "uint256",
          "name": "",
          "type": "uint256"
        }
      ],
      "stateMutability": "view",
      "type": "function"
    },
    {
      "inputs": [],
      "name": "globalExitRootManager",
      "outputs": [
        {
          "internalType": "contract IPolygonZkEVMGlobalExitRoot",
          "name": "",
          "type": "address"
        }
      ],
      "stateMutability": "view",
      "type": "function"
    },
    {
      "inputs": [
        {
          "components": [
            {
              "internalType": "address",
              "name": "admin",
              "type": "address"
            },
            {
              "internalType": "address",
              "name": "trustedSequencer",
              "type": "address"
            },
            {
              "internalType": "uint64",
              "name": "pendingStateTimeout",
              "type": "uint64"
            },
            {
              "internalType": "address",
              "name": "trustedAggregator",
              "type": "address"
            },
            {
              "internalType": "uint64",
              "name": "trustedAggregatorTimeout",
              "type": "uint64"
            }
          ],
          "internalType": "struct PolygonZkEVM.InitializePackedParameters",
          "name": "initializePackedParameters",
          "type": "tuple"
        },
        {
          "internalType": "bytes32",
          "name": "genesisRoot",
          "type": "bytes32"
        },
        {
          "internalType": "string",
          "name": "_trustedSequencerURL",
          "type": "string"
        },
        {
          "internalType": "string",
          "name": "_networkName",
          "type": "string"
        },
        {
          "internalType": "string",
          "name": "_version",
          "type": "string"
        }
      ],
      "name": "initialize",
      "outputs": [],
      "stateMutability": "nonpayable",
      "type": "function"
    },
    {
      "inputs": [],
      "name": "isEmergencyState",
      "outputs": [
        {
          "internalType": "bool",
          "name": "",
          "type": "bool"
        }
      ],
      "stateMutability": "view",
      "type": "function"
    },
    {
      "inputs": [
        {
          "internalType": "uint64",
          "name": "pendingStateNum",
          "type": "uint64"
        }
      ],
      "name": "isPendingStateConsolidable",
      "outputs": [
        {
          "internalType": "bool",
          "name": "",
          "type": "bool"
        }
      ],
      "stateMutability": "view",
      "type": "function"
    },
    {
      "inputs": [],
      "name": "lastBatchSequenced",
      "outputs": [
        {
          "internalType": "uint64",
          "name": "",
          "type": "uint64"
        }
      ],
      "stateMutability": "view",
      "type": "function"
    },
    {
      "inputs": [],
      "name": "lastForceBatch",
      "outputs": [
        {
          "internalType": "uint64",
          "name": "",
          "type": "uint64"
        }
      ],
      "stateMutability": "view",
      "type": "function"
    },
    {
      "inputs": [],
      "name": "lastForceBatchSequenced",
      "outputs": [
        {
          "internalType": "uint64",
          "name": "",
          "type": "uint64"
        }
      ],
      "stateMutability": "view",
      "type": "function"
    },
    {
      "inputs": [],
      "name": "lastPendingState",
      "outputs": [
        {
          "internalType": "uint64",
          "name": "",
          "type": "uint64"
        }
      ],
      "stateMutability": "view",
      "type": "function"
    },
    {
      "inputs": [],
      "name": "lastPendingStateConsolidated",
      "outputs": [
        {
          "internalType": "uint64",
          "name": "",
          "type": "uint64"
        }
      ],
      "stateMutability": "view",
      "type": "function"
    },
    {
      "inputs": [],
      "name": "lastTimestamp",
      "outputs": [
        {
          "internalType": "uint64",
          "name": "",
          "type": "uint64"
        }
      ],
      "stateMutability": "view",
      "type": "function"
    },
    {
      "inputs": [],
      "name": "lastVerifiedBatch",
      "outputs": [
        {
          "internalType": "uint64",
          "name": "",
          "type": "uint64"
        }
      ],
      "stateMutability": "view",
      "type": "function"
    },
    {
      "inputs": [],
      "name": "matic",
      "outputs": [
        {
          "internalType": "contract IERC20Upgradeable",
          "name": "",
          "type": "address"
        }
      ],
      "stateMutability": "view",
      "type": "function"
    },
    {
      "inputs": [],
      "name": "multiplierBatchFee",
      "outputs": [
        {
          "internalType": "uint16",
          "name": "",
          "type": "uint16"
        }
      ],
      "stateMutability": "view",
      "type": "function"
    },
    {
      "inputs": [],
      "name": "networkName",
      "outputs": [
        {
          "internalType": "string",
          "name": "",
          "type": "string"
        }
      ],
      "stateMutability": "view",
      "type": "function"
    },
    {
      "inputs": [
        {
          "internalType": "uint64",
          "name": "initPendingStateNum",
          "type": "uint64"
        },
        {
          "internalType": "uint64",
          "name": "finalPendingStateNum",
          "type": "uint64"
        },
        {
          "internalType": "uint64",
          "name": "initNumBatch",
          "type": "uint64"
        },
        {
          "internalType": "uint64",
          "name": "finalNewBatch",
          "type": "uint64"
        },
        {
          "internalType": "bytes32",
          "name": "newLocalExitRoot",
          "type": "bytes32"
        },
        {
          "internalType": "bytes32",
          "name": "newStateRoot",
          "type": "bytes32"
        },
        {
          "internalType": "uint256[2]",
          "name": "proofA",
          "type": "uint256[2]"
        },
        {
          "internalType": "uint256[2][2]",
          "name": "proofB",
          "type": "uint256[2][2]"
        },
        {
          "internalType": "uint256[2]",
          "name": "proofC",
          "type": "uint256[2]"
        }
      ],
      "name": "overridePendingState",
      "outputs": [],
      "stateMutability": "nonpayable",
      "type": "function"
    },
    {
      "inputs": [],
      "name": "owner",
      "outputs": [
        {
          "internalType": "address",
          "name": "",
          "type": "address"
        }
      ],
      "stateMutability": "view",
      "type": "function"
    },
    {
      "inputs": [],
      "name": "pendingAdmin",
      "outputs": [
        {
          "internalType": "address",
          "name": "",
          "type": "address"
        }
      ],
      "stateMutability": "view",
      "type": "function"
    },
    {
      "inputs": [],
      "name": "pendingStateTimeout",
      "outputs": [
        {
          "internalType": "uint64",
          "name": "",
          "type": "uint64"
        }
      ],
      "stateMutability": "view",
      "type": "function"
    },
    {
      "inputs": [
        {
          "internalType": "uint256",
          "name": "",
          "type": "uint256"
        }
      ],
      "name": "pendingStateTransitions",
      "outputs": [
        {
          "internalType": "uint64",
          "name": "timestamp",
          "type": "uint64"
        },
        {
          "internalType": "uint64",
          "name": "lastVerifiedBatch",
          "type": "uint64"
        },
        {
          "internalType": "bytes32",
          "name": "exitRoot",
          "type": "bytes32"
        },
        {
          "internalType": "bytes32",
          "name": "stateRoot",
          "type": "bytes32"
        }
      ],
      "stateMutability": "view",
      "type": "function"
    },
    {
      "inputs": [
        {
          "internalType": "uint64",
          "name": "initPendingStateNum",
          "type": "uint64"
        },
        {
          "internalType": "uint64",
          "name": "finalPendingStateNum",
          "type": "uint64"
        },
        {
          "internalType": "uint64",
          "name": "initNumBatch",
          "type": "uint64"
        },
        {
          "internalType": "uint64",
          "name": "finalNewBatch",
          "type": "uint64"
        },
        {
          "internalType": "bytes32",
          "name": "newLocalExitRoot",
          "type": "bytes32"
        },
        {
          "internalType": "bytes32",
          "name": "newStateRoot",
          "type": "bytes32"
        },
        {
          "internalType": "uint256[2]",
          "name": "proofA",
          "type": "uint256[2]"
        },
        {
          "internalType": "uint256[2][2]",
          "name": "proofB",
          "type": "uint256[2][2]"
        },
        {
          "internalType": "uint256[2]",
          "name": "proofC",
          "type": "uint256[2]"
        }
      ],
      "name": "proveNonDeterministicPendingState",
      "outputs": [],
      "stateMutability": "nonpayable",
      "type": "function"
    },
    {
      "inputs": [],
      "name": "renounceOwnership",
      "outputs": [],
      "stateMutability": "nonpayable",
      "type": "function"
    },
    {
      "inputs": [],
      "name": "rollupVerifier",
      "outputs": [
        {
          "internalType": "contract IVerifierRollup",
          "name": "",
          "type": "address"
        }
      ],
      "stateMutability": "view",
      "type": "function"
    },
    {
      "inputs": [
        {
          "components": [
            {
              "internalType": "bytes",
              "name": "transactions",
              "type": "bytes"
            },
            {
              "internalType": "bytes32",
              "name": "globalExitRoot",
              "type": "bytes32"
            },
            {
              "internalType": "uint64",
              "name": "timestamp",
              "type": "uint64"
            },
            {
              "internalType": "uint64",
              "name": "minForcedTimestamp",
              "type": "uint64"
            }
          ],
          "internalType": "struct PolygonZkEVM.BatchData[]",
          "name": "batches",
          "type": "tuple[]"
        },
        {
          "internalType": "address",
          "name": "feeRecipient",
          "type": "address"
        }
      ],
      "name": "sequenceBatches",
      "outputs": [],
      "stateMutability": "nonpayable",
      "type": "function"
    },
    {
      "inputs": [
        {
          "components": [
            {
              "internalType": "bytes",
              "name": "transactions",
              "type": "bytes"
            },
            {
              "internalType": "bytes32",
              "name": "globalExitRoot",
              "type": "bytes32"
            },
            {
              "internalType": "uint64",
              "name": "minForcedTimestamp",
              "type": "uint64"
            }
          ],
          "internalType": "struct PolygonZkEVM.ForcedBatchData[]",
          "name": "batches",
          "type": "tuple[]"
        }
      ],
      "name": "sequenceForceBatches",
      "outputs": [],
      "stateMutability": "nonpayable",
      "type": "function"
    },
    {
      "inputs": [
        {
          "internalType": "uint64",
          "name": "",
          "type": "uint64"
        }
      ],
      "name": "sequencedBatches",
      "outputs": [
        {
          "internalType": "bytes32",
          "name": "accInputHash",
          "type": "bytes32"
        },
        {
          "internalType": "uint64",
          "name": "sequencedTimestamp",
          "type": "uint64"
        },
        {
          "internalType": "uint64",
          "name": "previousLastBatchSequenced",
          "type": "uint64"
        }
      ],
      "stateMutability": "view",
      "type": "function"
    },
    {
      "inputs": [
        {
          "internalType": "uint16",
          "name": "newMultiplierBatchFee",
          "type": "uint16"
        }
      ],
      "name": "setMultiplierBatchFee",
      "outputs": [],
      "stateMutability": "nonpayable",
      "type": "function"
    },
    {
      "inputs": [
        {
          "internalType": "string",
          "name": "_networkName",
          "type": "string"
        }
      ],
      "name": "setNetworkName",
      "outputs": [],
      "stateMutability": "nonpayable",
      "type": "function"
    },
    {
      "inputs": [
        {
          "internalType": "uint64",
          "name": "newPendingStateTimeout",
          "type": "uint64"
        }
      ],
      "name": "setPendingStateTimeout",
      "outputs": [],
      "stateMutability": "nonpayable",
      "type": "function"
    },
    {
      "inputs": [
        {
          "internalType": "uint64",
          "name": "_numBatch",
          "type": "uint64"
        }
      ],
      "name": "setSequencedBatch",
      "outputs": [],
      "stateMutability": "nonpayable",
      "type": "function"
    },
    {
      "inputs": [
        {
          "internalType": "uint64",
          "name": "batchNum",
          "type": "uint64"
        },
        {
          "internalType": "bytes32",
          "name": "accInputData",
          "type": "bytes32"
        },
        {
          "internalType": "uint64",
          "name": "timestamp",
          "type": "uint64"
        },
        {
          "internalType": "uint64",
          "name": "lastPendingStateConsolidated",
          "type": "uint64"
        }
      ],
      "name": "setSequencedBatches",
      "outputs": [],
      "stateMutability": "nonpayable",
      "type": "function"
    },
    {
      "inputs": [
        {
          "internalType": "bytes32",
          "name": "newStateRoot",
          "type": "bytes32"
        },
        {
          "internalType": "uint64",
          "name": "batchNum",
          "type": "uint64"
        }
      ],
      "name": "setStateRoot",
      "outputs": [],
      "stateMutability": "nonpayable",
      "type": "function"
    },
    {
      "inputs": [
        {
          "internalType": "address",
          "name": "newTrustedAggregator",
          "type": "address"
        }
      ],
      "name": "setTrustedAggregator",
      "outputs": [],
      "stateMutability": "nonpayable",
      "type": "function"
    },
    {
      "inputs": [
        {
          "internalType": "uint64",
          "name": "newTrustedAggregatorTimeout",
          "type": "uint64"
        }
      ],
      "name": "setTrustedAggregatorTimeout",
      "outputs": [],
      "stateMutability": "nonpayable",
      "type": "function"
    },
    {
      "inputs": [
        {
          "internalType": "address",
          "name": "newTrustedSequencer",
          "type": "address"
        }
      ],
      "name": "setTrustedSequencer",
      "outputs": [],
      "stateMutability": "nonpayable",
      "type": "function"
    },
    {
      "inputs": [
        {
          "internalType": "string",
          "name": "newTrustedSequencerURL",
          "type": "string"
        }
      ],
      "name": "setTrustedSequencerURL",
      "outputs": [],
      "stateMutability": "nonpayable",
      "type": "function"
    },
    {
      "inputs": [
        {
          "internalType": "uint64",
          "name": "_numBatch",
          "type": "uint64"
        }
      ],
      "name": "setVerifiedBatch",
      "outputs": [],
      "stateMutability": "nonpayable",
      "type": "function"
    },
    {
      "inputs": [
        {
          "internalType": "uint64",
          "name": "newVerifyBatchTimeTarget",
          "type": "uint64"
        }
      ],
      "name": "setVerifyBatchTimeTarget",
      "outputs": [],
      "stateMutability": "nonpayable",
      "type": "function"
    },
    {
      "inputs": [
        {
          "internalType": "address",
          "name": "newPendingAdmin",
          "type": "address"
        }
      ],
      "name": "transferAdminRole",
      "outputs": [],
      "stateMutability": "nonpayable",
      "type": "function"
    },
    {
      "inputs": [
        {
          "internalType": "address",
          "name": "newOwner",
          "type": "address"
        }
      ],
      "name": "transferOwnership",
      "outputs": [],
      "stateMutability": "nonpayable",
      "type": "function"
    },
    {
      "inputs": [],
      "name": "trustedAggregator",
      "outputs": [
        {
          "internalType": "address",
          "name": "",
          "type": "address"
        }
      ],
      "stateMutability": "view",
      "type": "function"
    },
    {
      "inputs": [],
      "name": "trustedAggregatorTimeout",
      "outputs": [
        {
          "internalType": "uint64",
          "name": "",
          "type": "uint64"
        }
      ],
      "stateMutability": "view",
      "type": "function"
    },
    {
      "inputs": [],
      "name": "trustedSequencer",
      "outputs": [
        {
          "internalType": "address",
          "name": "",
          "type": "address"
        }
      ],
      "stateMutability": "view",
      "type": "function"
    },
    {
      "inputs": [],
      "name": "trustedSequencerURL",
      "outputs": [
        {
          "internalType": "string",
          "name": "",
          "type": "string"
        }
      ],
      "stateMutability": "view",
      "type": "function"
    },
    {
      "inputs": [
        {
          "internalType": "uint64",
          "name": "pendingStateNum",
          "type": "uint64"
        },
        {
          "internalType": "uint64",
          "name": "initNumBatch",
          "type": "uint64"
        },
        {
          "internalType": "uint64",
          "name": "finalNewBatch",
          "type": "uint64"
        },
        {
          "internalType": "bytes32",
          "name": "newLocalExitRoot",
          "type": "bytes32"
        },
        {
          "internalType": "bytes32",
          "name": "newStateRoot",
          "type": "bytes32"
        },
        {
          "internalType": "uint256[2]",
          "name": "proofA",
          "type": "uint256[2]"
        },
        {
          "internalType": "uint256[2][2]",
          "name": "proofB",
          "type": "uint256[2][2]"
        },
        {
          "internalType": "uint256[2]",
          "name": "proofC",
          "type": "uint256[2]"
        }
      ],
      "name": "trustedVerifyBatchesMock",
      "outputs": [],
      "stateMutability": "nonpayable",
      "type": "function"
    },
    {
      "inputs": [
        {
          "internalType": "uint64",
          "name": "newLastVerifiedBatch",
          "type": "uint64"
        }
      ],
      "name": "updateBatchFee",
      "outputs": [],
      "stateMutability": "nonpayable",
      "type": "function"
    },
    {
      "inputs": [],
      "name": "verifyBatchTimeTarget",
      "outputs": [
        {
          "internalType": "uint64",
          "name": "",
          "type": "uint64"
        }
      ],
      "stateMutability": "view",
      "type": "function"
    },
    {
      "inputs": [
        {
          "internalType": "uint64",
          "name": "pendingStateNum",
          "type": "uint64"
        },
        {
          "internalType": "uint64",
          "name": "initNumBatch",
          "type": "uint64"
        },
        {
          "internalType": "uint64",
          "name": "finalNewBatch",
          "type": "uint64"
        },
        {
          "internalType": "bytes32",
          "name": "newLocalExitRoot",
          "type": "bytes32"
        },
        {
          "internalType": "bytes32",
          "name": "newStateRoot",
          "type": "bytes32"
        },
        {
          "internalType": "uint256[2]",
          "name": "proofA",
          "type": "uint256[2]"
        },
        {
          "internalType": "uint256[2][2]",
          "name": "proofB",
          "type": "uint256[2][2]"
        },
        {
          "internalType": "uint256[2]",
          "name": "proofC",
          "type": "uint256[2]"
        }
      ],
      "name": "verifyBatches",
      "outputs": [],
      "stateMutability": "nonpayable",
      "type": "function"
    },
    {
      "inputs": [
        {
          "internalType": "uint64",
          "name": "pendingStateNum",
          "type": "uint64"
        },
        {
          "internalType": "uint64",
          "name": "initNumBatch",
          "type": "uint64"
        },
        {
          "internalType": "uint64",
          "name": "finalNewBatch",
          "type": "uint64"
        },
        {
          "internalType": "bytes32",
          "name": "newLocalExitRoot",
          "type": "bytes32"
        },
        {
          "internalType": "bytes32",
          "name": "newStateRoot",
          "type": "bytes32"
        },
        {
          "internalType": "uint256[2]",
          "name": "proofA",
          "type": "uint256[2]"
        },
        {
          "internalType": "uint256[2][2]",
          "name": "proofB",
          "type": "uint256[2][2]"
        },
        {
          "internalType": "uint256[2]",
          "name": "proofC",
          "type": "uint256[2]"
        }
      ],
      "name": "verifyBatchesTrustedAggregator",
      "outputs": [],
      "stateMutability": "nonpayable",
      "type": "function"
    }
  ],
  "bytecode": "0x6101406040523480156200001257600080fd5b5060405162005053380380620050538339810160408190526200003591620000a5565b6001600160a01b0395861660c05293851660805291841660a05290921660e0526001600160401b0391821661010052166101205262000131565b6001600160a01b03811681146200008557600080fd5b50565b80516001600160401b0381168114620000a057600080fd5b919050565b60008060008060008060c08789031215620000bf57600080fd5b8651620000cc816200006f565b6020880151909650620000df816200006f565b6040880151909550620000f2816200006f565b606088015190945062000105816200006f565b9250620001156080880162000088565b91506200012560a0880162000088565b90509295509295509295565b60805160a05160c05160e0516101005161012051614e54620001ff600039600081816105ef0152818161101c015261245e01526000818161074d0152610ff20152600081816107130152818161285b01526137da01526000818161087e01528181610ddb015281816112fa01528181611743015281816129e901528181612b5d01528181612df9015261365b01526000818161092d015281816131ec0152613aa301526000818161080f015281816119de01528181611d3c01528181612b3101526132b70152614e546000f3fe608060405234801561001057600080fd5b50600436106103665760003560e01c806396dc3d39116101ca578063cfa8ed4711610105578063e7a7ed02116100a8578063e7a7ed021461090e578063e8bf92ed14610928578063eaeb077b1461094f578063f020c93e14610962578063f14916d614610975578063f2fde38b14610988578063f851a4401461099b578063f8b823e4146109ae578063fe16564f146109b757600080fd5b8063cfa8ed471461085f578063d02103ca14610879578063d2e129f9146108a0578063d8d1091b146108b3578063d939b315146108c6578063dbc16976146108e0578063e0d17441146108e8578063e11f3f18146108fb57600080fd5b8063adc879e91161016d578063adc879e914610748578063afd23cbe1461076f578063b4d63f5814610797578063b4f77ea9146107f7578063b6b0b0971461080a578063c0cad30214610831578063c0ed84e014610844578063c89e42df1461084c57600080fd5b806396dc3d39146106b257806399f5634e146106c55780639b796760146106cd5780639c9f3dfe146106e05780639f0d039d146106f3578063a066215c146106fb578063a3c573eb1461070e578063ada8f9191461073557600080fd5b80634a1a89a7116102a5578063715018a611610248578063715018a6146105a95780637215541a146105b157806375c508b3146105c45780637fcb3653146105d7578063831c7ead146105ea578063837a473814610611578063841b24d71461067f5780638c3d7301146106995780638da5cb5b146106a157600080fd5b80634a1a89a7146104fb5780634a910e6a146105155780635392c5e014610528578063542028d514610548578063574f649e146105505780635e9145c9146105635780636b8616ce146105765780636ff512cc1461059657600080fd5b8063267822471161030d57806326782247146104415780632987898314610461578063383b3be81461047b578063394218e91461048e578063423fa856146104a157806345605267146104bb578063458c0477146104d55780634834a343146104e857600080fd5b80630a0d9fbe1461036b5780630eaa86ea146103a0578063107bf28c146103c157806310a01a72146103d657806315064c96146103eb5780631816b7e51461040857806319d8ac611461041b578063220d78991461042e575b600080fd5b606f546103839061010090046001600160401b031681565b6040516001600160401b0390911681526020015b60405180910390f35b6103b36103ae366004613f52565b6109ca565b604051908152602001610397565b6103c9610b99565b6040516103979190613ff7565b6103e96103e4366004614039565b610c27565b005b606f546103f89060ff1681565b6040519015158152602001610397565b6103e96104163660046140c6565b610e8c565b607354610383906001600160401b031681565b6103c961043c3660046140ea565b610f45565b607b54610454906001600160a01b031681565b6040516103979190614137565b60745461045490600160401b90046001600160a01b031681565b6103f861048936600461414b565b61107a565b6103e961049c36600461414b565b6110c1565b60735461038390600160401b90046001600160401b031681565b60735461038390600160801b90046001600160401b031681565b607954610383906001600160401b031681565b6103e96104f6366004614039565b6111af565b60795461038390600160401b90046001600160401b031681565b6103e961052336600461414b565b61145f565b6103b361053636600461414b565b60756020526000908152604090205481565b6103c96114ce565b6103b361055e36600461421f565b6114db565b6103e96105713660046142db565b61151e565b6103b361058436600461414b565b60716020526000908152604090205481565b6103e96105a436600461432e565b611a4e565b6103e9611acd565b6103e96105bf36600461414b565b611ae1565b6103e96105d2366004614349565b611bee565b607454610383906001600160401b031681565b6103837f000000000000000000000000000000000000000000000000000000000000000081565b61065461061f3660046143e7565b6078602052600090815260409020805460018201546002909201546001600160401b0380831693600160401b90930416919084565b604080516001600160401b039586168152949093166020850152918301526060820152608001610397565b60795461038390600160c01b90046001600160401b031681565b6103e9611c89565b6033546001600160a01b0316610454565b6103e96106c036600461414b565b611d0d565b6103b3611d37565b6103e96106db36600461414b565b611e44565b6103e96106ee36600461414b565b611e79565b6070546103b3565b6103e961070936600461414b565b611f6c565b6104547f000000000000000000000000000000000000000000000000000000000000000081565b6103e961074336600461432e565b61201b565b6103837f000000000000000000000000000000000000000000000000000000000000000081565b606f5461078490600160481b900461ffff1681565b60405161ffff9091168152602001610397565b6107d26107a536600461414b565b607260205260009081526040902080546001909101546001600160401b0380821691600160401b90041683565b604080519384526001600160401b039283166020850152911690820152606001610397565b6103e961080536600461414b565b612091565b6104547f000000000000000000000000000000000000000000000000000000000000000081565b6103e961083f366004614400565b6120a2565b6103836120ba565b6103e961085a366004614400565b612107565b606f5461045490600160581b90046001600160a01b031681565b6104547f000000000000000000000000000000000000000000000000000000000000000081565b6103e96108ae366004614475565b61216e565b6103e96108c1366004614527565b6124e6565b60795461038390600160801b90046001600160401b031681565b6103e961282e565b6103e96108f6366004614568565b6128d4565b6103e9610909366004614349565b612946565b60735461038390600160c01b90046001600160401b031681565b6104547f000000000000000000000000000000000000000000000000000000000000000081565b6103e961095d3660046145b5565b612aae565b6103e9610970366004614039565b612d57565b6103e961098336600461432e565b612e9a565b6103e961099636600461432e565b612f19565b607a54610454906001600160a01b031681565b6103b360705481565b6103e96109c5366004614600565b612f8f565b60008060006109d76120ba565b90506001600160401b03881615610a74576079546001600160401b039081169089161115610a205760405162461bcd60e51b8152600401610a179061462c565b60405180910390fd5b6001600160401b038089166000908152607860205260409020600281015481549094509091898116600160401b9092041614610a6e5760405162461bcd60e51b8152600401610a17906146aa565b50610ade565b6001600160401b038716600090815260756020526040902054915081610aac5760405162461bcd60e51b8152600401610a179061470a565b806001600160401b0316876001600160401b03161115610ade5760405162461bcd60e51b8152600401610a1790614761565b806001600160401b0316866001600160401b031611610b0f5760405162461bcd60e51b8152600401610a17906147d2565b6000610b1e8888888689610f45565b90506000600080516020614dff833981519152600283604051610b41919061484f565b602060405180830381855afa158015610b5e573d6000803e3d6000fd5b5050506040513d601f19601f82011682018060405250810190610b81919061486b565b610b8b919061489a565b9a9950505050505050505050565b60778054610ba6906148ae565b80601f0160208091040260200160405190810160405280929190818152602001828054610bd2906148ae565b8015610c1f5780601f10610bf457610100808354040283529160200191610c1f565b820191906000526020600020905b815481529060010190602001808311610c0257829003601f168201915b505050505081565b610c2f612fb1565b600080610c3a6120ba565b90506001600160401b038a1615610cce576079546001600160401b03908116908b161115610c7a5760405162461bcd60e51b8152600401610a179061462c565b6001600160401b03808b1660009081526078602052604090206002810154815490945090918b8116600160401b9092041614610cc85760405162461bcd60e51b8152600401610a17906146aa565b50610d38565b6001600160401b038916600090815260756020526040902054915081610d065760405162461bcd60e51b8152600401610a179061470a565b806001600160401b0316896001600160401b03161115610d385760405162461bcd60e51b8152600401610a1790614761565b806001600160401b0316886001600160401b031611610d695760405162461bcd60e51b8152600401610a17906147d2565b6000610d788a8a8a868b610f45565b607480546001600160401b0319166001600160401b038c811691821790925560009081526075602052604090208990556079549192501615610dc557607980546001600160801b03191690555b6040516333d6247d60e01b8152600481018990527f00000000000000000000000000000000000000000000000000000000000000006001600160a01b0316906333d6247d90602401600060405180830381600087803b158015610e2757600080fd5b505af1158015610e3b573d6000803e3d6000fd5b50506040518981523392506001600160401b038c1691507fcb339b570a7f0b25afa7333371ff11192092a0aeace12b671f4c212f2815c6fe9060200160405180910390a35050505050505050505050565b607a546001600160a01b03163314610eb757604051634755657960e01b815260040160405180910390fd5b6103e88161ffff161080610ed057506103ff8161ffff16115b15610eee57604051630984a67960e31b815260040160405180910390fd5b606f805461ffff60481b1916600160481b61ffff8416908102919091179091556040519081527f7019933d795eba185c180209e8ae8bffbaa25bcef293364687702c31f4d302c5906020015b60405180910390a150565b6001600160401b038086166000818152607260205260408082205493881682529020546060929115801590610f78575081155b15610f965760405163340c614f60e11b815260040160405180910390fd5b80610fb4576040516366385b5160e01b815260040160405180910390fd5b604080516001600160601b03193360601b166020820152603481019690965260548601929092526001600160c01b031960c098891b811660748701527f0000000000000000000000000000000000000000000000000000000000000000891b8116607c8701527f0000000000000000000000000000000000000000000000000000000000000000891b81166084870152608c86019490945260ac85015260cc840194909452509290931b90911660ec830152805180830360d401815260f4909201905290565b6079546001600160401b03828116600090815260786020526040812054909242926110b092600160801b909204811691166148fe565b6001600160401b0316111592915050565b607a546001600160a01b031633146110ec57604051634755657960e01b815260040160405180910390fd5b62093a806001600160401b038216111561111957604051631d06e87960e01b815260040160405180910390fd5b606f5460ff16611159576079546001600160401b03600160c01b9091048116908216106111595760405163401636df60e01b815260040160405180910390fd5b607980546001600160c01b0316600160c01b6001600160401b038416908102919091179091556040519081527f1f4fa24c2e4bad19a7f3ec5c5485f70d46c798461c2e684f55bbd0fc661373a190602001610f3a565b606f5460ff16156111d357604051630bc011ff60e21b815260040160405180910390fd5b6079546001600160401b03878116600090815260726020526040902060010154429261120a92600160c01b909104811691166148fe565b6001600160401b0316111561123257604051638a0704d360e01b815260040160405180910390fd5b6103e861123f8888614925565b6001600160401b0316111561126757604051635acfba9d60e11b815260040160405180910390fd5b611277888888888888888861300b565b611280866132ec565b607954600160801b90046001600160401b031660000361136357607480546001600160401b0319166001600160401b03888116918217909255600090815260756020526040902085905560795416156112e457607980546001600160801b03191690555b6040516333d6247d60e01b8152600481018690527f00000000000000000000000000000000000000000000000000000000000000006001600160a01b0316906333d6247d90602401600060405180830381600087803b15801561134657600080fd5b505af115801561135a573d6000803e3d6000fd5b50505050611414565b61136b6134e0565b607980546001600160401b031690600061138483614945565b82546001600160401b039182166101009390930a92830292820219169190911790915560408051608081018252428316815289831660208083019182528284018b8152606084018b8152607954871660009081526078909352949091209251835492518616600160401b026001600160801b03199093169516949094171781559151600183015551600290910155505b60405184815233906001600160401b038816907f9c72852172521097ba7e1482e6b44b351323df0155f97f4ea18fcec28e1f5966906020015b60405180910390a35050505050505050565b607454600160401b90046001600160a01b031633146114c257606f5460ff161561149c57604051630bc011ff60e21b815260040160405180910390fd5b6114a58161107a565b6114c257604051630674f25160e11b815260040160405180910390fd5b6114cb8161357c565b50565b60768054610ba6906148ae565b60008585805190602001208585856040516020016114fd95949392919061496b565b60405160208183030381529060405280519060200120905095945050505050565b606f5460ff161561154257604051630bc011ff60e21b815260040160405180910390fd5b606f54600160581b90046001600160a01b03163314611574576040516311e7be1560e01b815260040160405180910390fd5b8160008190036115975760405163cb591a5f60e01b815260040160405180910390fd5b6103e88111156115ba57604051635acfba9d60e11b815260040160405180910390fd5b6073546001600160401b03600160401b82048116600081815260726020526040812054838516949293600160801b909304909216919082905b868110156118a15760008a8a8381811061160f5761160f6149aa565b905060200281019061162191906149c0565b61162a906149d6565b805180516020909101206060820151919250906001600160401b031615611719578561165581614945565b9650506000818360200151846060015160405160200161167793929190614a62565b60408051601f1981840301815291815281516020928301206001600160401b038a166000908152607190935291205490915081146116c85760405163671ebaaf60e11b815260040160405180910390fd5b6001600160401b03808816600090815260716020526040808220919091556060850151908501519082169116101561171357604051633fbd5c3960e11b815260040160405180910390fd5b506117fe565b6020820151158015906117ba575060208201516040516312bd9b1960e11b815260048101919091527f00000000000000000000000000000000000000000000000000000000000000006001600160a01b03169063257b3632906024016020604051808303816000875af1158015611794573d6000803e3d6000fd5b505050506040513d601f19601f820116820180604052508101906117b8919061486b565b155b156117d8576040516373bd668d60e01b815260040160405180910390fd5b815151620493e010156117fe576040516328a69b1f60e21b815260040160405180910390fd5b876001600160401b031682604001516001600160401b0316108061182e57504282604001516001600160401b0316115b1561184c576040516375413c8b60e11b815260040160405180910390fd5b8481836020015184604001518d60405160200161186d95949392919061496b565b604051602081830303815290604052805190602001209450816040015197505050808061189990614a85565b9150506115f3565b506118ac86856148fe565b6073549094506001600160401b03600160c01b909104811690841611156118e65760405163c630a00d60e01b815260040160405180910390fd5b60006118f28285614925565b611905906001600160401b031688614a9e565b60408051606081018252858152426001600160401b03908116602080840191825260738054600160401b9081900485168688019081528d861660008181526072909552979093209551865592516001909501805492519585166001600160801b03199384161795851684029590951790945583548c84169116179302929092179055909150828116908516146119bb576073805467ffffffffffffffff60801b1916600160801b6001600160401b038716021790555b611a063330836119ca60705490565b6119d49190614ab1565b6001600160a01b037f000000000000000000000000000000000000000000000000000000000000000016929190613715565b611a0e6134e0565b6040516001600160401b038616907f303446e6a8cb73c83dff421c0b1d5e5ce0719dab1bff13660fc254e58cc17fce90600090a250505050505050505050565b607a546001600160a01b03163314611a7957604051634755657960e01b815260040160405180910390fd5b606f8054600160581b600160f81b031916600160581b6001600160a01b038416021790556040517ff54144f9611984021529f814a1cb6a41e22c58351510a0d9f7e822618abb9cc090610f3a908390614137565b611ad5612fb1565b611adf6000613786565b565b6033546001600160a01b03163314611be6576000611afd6120ba565b9050806001600160401b0316826001600160401b031611611b315760405163812a372d60e01b815260040160405180910390fd5b6073546001600160401b03600160401b90910481169083161180611b7057506001600160401b0380831660009081526072602052604090206001015416155b15611b8e57604051632631700560e21b815260040160405180910390fd5b6001600160401b038083166000908152607260205260409020600101544291611bbc9162093a8091166148fe565b6001600160401b03161115611be45760405163692baaad60e11b815260040160405180910390fd5b505b6114cb6137d8565b606f5460ff1615611c1257604051630bc011ff60e21b815260040160405180910390fd5b611c23898989898989898989613853565b6001600160401b0386166000908152607560209081526040918290205482519081529081018690527f1f44c21118c4603cfb4e1b621dbcfa2b73efcececee2b99b620b2953d33a7010910160405180910390a1611c7e6137d8565b505050505050505050565b607b546001600160a01b03163314611cb45760405163d1ec4b2360e01b815260040160405180910390fd5b607b54607a80546001600160a01b0319166001600160a01b0390921691821790556040517f056dc487bbf0795d0bbb1b4f0af523a855503cff740bfb4d5475f7a90c091e8e91611d0391614137565b60405180910390a1565b611d15612fb1565b607480546001600160401b0319166001600160401b0392909216919091179055565b6000807f00000000000000000000000000000000000000000000000000000000000000006001600160a01b03166370a08231306040518263ffffffff1660e01b8152600401611d869190614137565b602060405180830381865afa158015611da3573d6000803e3d6000fd5b505050506040513d601f19601f82011682018060405250810190611dc7919061486b565b90506000611dd36120ba565b6073546001600160401b03600160401b8204811691611e0391600160801b8204811691600160c01b900416614925565b611e0d91906148fe565b611e179190614925565b6001600160401b0316905080600003611e335760009250505090565b611e3d8183614ac8565b9250505090565b611e4c612fb1565b607380546001600160401b03909216600160401b0267ffffffffffffffff60401b19909216919091179055565b607a546001600160a01b03163314611ea457604051634755657960e01b815260040160405180910390fd5b62093a806001600160401b0382161115611ed157604051630cc9650760e41b815260040160405180910390fd5b606f5460ff16611f11576079546001600160401b03600160801b909104811690821610611f115760405163048a05a960e41b815260040160405180910390fd5b6079805467ffffffffffffffff60801b1916600160801b6001600160401b038416908102919091179091556040519081527fc4121f4e22c69632ebb7cf1f462be0511dc034f999b52013eddfb24aab765c7590602001610f3a565b607a546001600160a01b03163314611f9757604051634755657960e01b815260040160405180910390fd5b62015180816001600160401b03161115611fc457604051631c0cfbfd60e31b815260040160405180910390fd5b606f805468ffffffffffffffff0019166101006001600160401b038416908102919091179091556040519081527f1b023231a1ab6b5d93992f168fb44498e1a7e64cef58daff6f1c216de6a68c2890602001610f3a565b607a546001600160a01b0316331461204657604051634755657960e01b815260040160405180910390fd5b607b80546001600160a01b0319166001600160a01b0383161790556040517fa5b56b7906fd0a20e3f35120dd8343db1e12e037a6c90111c7e42885e82a1ce690610f3a908390614137565b612099612fb1565b6114cb816132ec565b6120aa612fb1565b60776120b68282614b2a565b5050565b6079546000906001600160401b0316156120f757506079546001600160401b03908116600090815260786020526040902054600160401b90041690565b506074546001600160401b031690565b607a546001600160a01b0316331461213257604051634755657960e01b815260040160405180910390fd5b607661213e8282614b2a565b507f6b8f723a4c7a5335cafae8a598a0aa0301be1387c037dccc085b62add6448b2081604051610f3a9190613ff7565b600054610100900460ff161580801561218e5750600054600160ff909116105b806121a85750303b1580156121a8575060005460ff166001145b61220b5760405162461bcd60e51b815260206004820152602e60248201527f496e697469616c697a61626c653a20636f6e747261637420697320616c72656160448201526d191e481a5b9a5d1a585b1a5e995960921b6064820152608401610a17565b6000805460ff19166001179055801561222e576000805461ff0019166101001790555b61223b602088018861432e565b607a80546001600160a01b0319166001600160a01b039290921691909117905561226b604088016020890161432e565b606f80546001600160a01b0392909216600160581b02600160581b600160f81b03199092169190911790556122a6608088016060890161432e565b607480546001600160a01b0392909216600160401b02600160401b600160e01b03199092169190911790556000805260756020527ff9e3fbf150b7a0077118526f473c53cb4734f166167e2c6213e3567dd390b4ad869055607661230a8682614b2a565b5060776123178582614b2a565b5062093a8061232c6060890160408a0161414b565b6001600160401b0316111561235457604051630cc9650760e41b815260040160405180910390fd5b612364606088016040890161414b565b607980546001600160401b0392909216600160801b0267ffffffffffffffff60801b1990921691909117905562093a806123a460a0890160808a0161414b565b6001600160401b031611156123cc57604051631d06e87960e01b815260040160405180910390fd5b6123dc60a088016080890161414b565b607980546001600160c01b0316600160c01b6001600160401b039390931692909202919091179055670de0b6b3a7640000607055606f80546affffffffffffffffffff0019166a03ea000000000000070800179055612439613b77565b7fed7be53c9f1a96a481223b15568a5b1a475e01a74b347d6ca187c8bf0c078cd660007f0000000000000000000000000000000000000000000000000000000000000000858560405161248f9493929190614c12565b60405180910390a180156124dd576000805461ff0019169055604051600181527f7f26b83ff96e1f2b6a682f133852f6798a09c465da95921460cefb38474024989060200160405180910390a15b50505050505050565b606f5460ff161561250a57604051630bc011ff60e21b815260040160405180910390fd5b80600081900361252d5760405163cb591a5f60e01b815260040160405180910390fd5b6103e881111561255057604051635acfba9d60e11b815260040160405180910390fd5b6073546001600160401b03600160c01b8204811691612578918491600160801b900416614c49565b11156125975760405163c630a00d60e01b815260040160405180910390fd5b6073546001600160401b03600160401b820481166000818152607260205260408120549193600160801b9004909216915b848110156127375760008787838181106125e4576125e46149aa565b90506020028101906125f69190614c5c565b6125ff90614c72565b90508361260b81614945565b825180516020918201208185015160408087015190519499509194506000936126379386939101614a62565b60408051601f1981840301815291815281516020928301206001600160401b0389166000908152607190935291205490915081146126885760405163671ebaaf60e11b815260040160405180910390fd5b6001600160401b0386166000908152607160205260408120556126ac600189614a9e565b84036126ec5742600084604001516126c491906148fe565b6001600160401b031611156126ec5760405163c44a082160e01b815260040160405180910390fd5b84828460200151423360405160200161270995949392919061496b565b604051602081830303815290604052805190602001209450505050808061272f90614a85565b9150506125c8565b5061274284846148fe565b607380546001600160401b034281166001600160401b03199092168217808455604080516060810182528781526020808201958652600160401b9384900485168284019081528589166000818152607290935284832093518455965160019390930180549151871686026001600160801b031990921693871693909317179091558554938916600160801b0267ffffffffffffffff60801b1993860293909316600160401b600160c01b031990941693909317919091179093559151929550917f648a61dd2438f072f5a1960939abd30f37aea80d2e94c9792ad142d3e0a490a49190a2505050505050565b607a546001600160a01b0316331461285957604051634755657960e01b815260040160405180910390fd5b7f00000000000000000000000000000000000000000000000000000000000000006001600160a01b031663dbc169766040518163ffffffff1660e01b8152600401600060405180830381600087803b1580156128b457600080fd5b505af11580156128c8573d6000803e3d6000fd5b50505050611adf613beb565b6128dc612fb1565b604080516060810182529384526001600160401b03928316602080860191825292841685830190815295841660009081526072909352912092518355516001909201805493518216600160401b026001600160801b03199094169290911691909117919091179055565b607454600160401b90046001600160a01b031633146129785760405163bbcbbc0560e01b815260040160405180910390fd5b612989898989898989898989613853565b607480546001600160401b0319166001600160401b03888116918217909255600090815260756020526040902085905560795416156129d357607980546001600160801b03191690555b6040516333d6247d60e01b8152600481018690527f00000000000000000000000000000000000000000000000000000000000000006001600160a01b0316906333d6247d90602401600060405180830381600087803b158015612a3557600080fd5b505af1158015612a49573d6000803e3d6000fd5b5050607980546001600160c01b031661127560c71b179055505060405184815233906001600160401b038816907fcc1b5520188bf1dd3e63f98164b577c4d75c11a619ddea692112f0d1aec4cf729060200160405180910390a3505050505050505050565b606f5460ff1615612ad257604051630bc011ff60e21b815260040160405180910390fd5b6000612add60705490565b905081811115612b0057604051634732fdb560e01b815260040160405180910390fd5b620493e0831115612b24576040516328a69b1f60e21b815260040160405180910390fd5b612b596001600160a01b037f000000000000000000000000000000000000000000000000000000000000000016333084613715565b60007f00000000000000000000000000000000000000000000000000000000000000006001600160a01b0316633ed691ef6040518163ffffffff1660e01b8152600401602060405180830381865afa158015612bb9573d6000803e3d6000fd5b505050506040513d601f19601f82011682018060405250810190612bdd919061486b565b60738054919250600160c01b9091046001600160401b0316906018612c0183614945565b91906101000a8154816001600160401b0302191690836001600160401b03160217905550508484604051612c36929190614ced565b604051908190038120612c4f9183904290602001614a62565b60408051808303601f190181529181528151602092830120607354600160c01b90046001600160401b031660009081526071909352912055323303612cf357607354604080518381523360208201526060918101829052600091810191909152600160c01b9091046001600160401b0316907ff94bb37db835f1ab585ee00041849a09b12cd081d77fa15ca070757619cbc9319060800160405180910390a2612d50565b607360189054906101000a90046001600160401b03166001600160401b03167ff94bb37db835f1ab585ee00041849a09b12cd081d77fa15ca070757619cbc93182338888604051612d479493929190614cfd565b60405180910390a25b5050505050565b607454600160401b90046001600160a01b03163314612d895760405163bbcbbc0560e01b815260040160405180910390fd5b612d99888888888888888861300b565b607480546001600160401b0319166001600160401b0388811691821790925560009081526075602052604090208590556079541615612de357607980546001600160801b03191690555b6040516333d6247d60e01b8152600481018690527f00000000000000000000000000000000000000000000000000000000000000006001600160a01b0316906333d6247d90602401600060405180830381600087803b158015612e4557600080fd5b505af1158015612e59573d6000803e3d6000fd5b50506040518681523392506001600160401b03891691507fcb339b570a7f0b25afa7333371ff11192092a0aeace12b671f4c212f2815c6fe9060200161144d565b607a546001600160a01b03163314612ec557604051634755657960e01b815260040160405180910390fd5b60748054600160401b600160e01b031916600160401b6001600160a01b038416021790556040517f61f8fec29495a3078e9271456f05fb0707fd4e41f7661865f80fc437d06681ca90610f3a908390614137565b612f21612fb1565b6001600160a01b038116612f865760405162461bcd60e51b815260206004820152602660248201527f4f776e61626c653a206e6577206f776e657220697320746865207a65726f206160448201526564647265737360d01b6064820152608401610a17565b6114cb81613786565b612f97612fb1565b6001600160401b0316600090815260756020526040902055565b6033546001600160a01b03163314611adf5760405162461bcd60e51b815260206004820181905260248201527f4f776e61626c653a2063616c6c6572206973206e6f7420746865206f776e65726044820152606401610a17565b6000806130166120ba565b90506001600160401b038a16156130ac576079546001600160401b03908116908b1611156130575760405163bb14c20560e01b815260040160405180910390fd5b6001600160401b03808b1660009081526078602052604090206002810154815490945090918b8116600160401b90920416146130a657604051632bd2e3e760e01b815260040160405180910390fd5b50613118565b6001600160401b0389166000908152607560205260409020549150816130e5576040516324cbdcc360e11b815260040160405180910390fd5b806001600160401b0316896001600160401b0316111561311857604051630f2b74f160e11b815260040160405180910390fd5b806001600160401b0316886001600160401b03161161314a5760405163b9b18f5760e01b815260040160405180910390fd5b60006131598a8a8a868b610f45565b90506000600080516020614dff83398151915260028360405161317c919061484f565b602060405180830381855afa158015613199573d6000803e3d6000fd5b5050506040513d601f19601f820116820180604052508101906131bc919061486b565b6131c6919061489a565b6040805160208101825282815290516343753b4d60e01b81529192506001600160a01b037f000000000000000000000000000000000000000000000000000000000000000016916343753b4d91613226918b918b918b9190600401614d28565b602060405180830381865afa158015613243573d6000803e3d6000fd5b505050506040513d601f19601f820116820180604052508101906132679190614d96565b613284576040516309bde33960e01b815260040160405180910390fd5b6132de33613292858d614925565b6001600160401b03166132a3611d37565b6132ad9190614ab1565b6001600160a01b037f0000000000000000000000000000000000000000000000000000000000000000169190613c43565b505050505050505050505050565b60006132f66120ba565b9050816000806133068484614925565b606f546001600160401b0391821692506000916133299161010090041642614a9e565b90505b846001600160401b0316846001600160401b0316146133c9576001600160401b03808516600090815260726020526040902060018101549091168210156133bd57600181015461338c90600160401b90046001600160401b031686614925565b61339f906001600160401b031685614c49565b6001820154600160401b90046001600160401b0316955093506133c3565b506133c9565b5061332c565b60006133d58484614a9e565b90508084101561342c57838103600c81116133f057806133f3565b600c5b9050806103e80a81606f60099054906101000a900461ffff1661ffff160a607054028161342257613422614884565b046070555061349c565b808403600c811161343d5780613440565b600c5b90506000816103e80a82606f60099054906101000a900461ffff1661ffff160a670de0b6b3a7640000028161347757613477614884565b04905080607054670de0b6b3a7640000028161349557613495614884565b0460705550505b683635c9adc5dea0000060705411156134c157683635c9adc5dea000006070556124dd565b633b9aca0060705410156124dd57633b9aca0060705550505050505050565b6079546001600160401b03600160401b8204811691161115611adf5760795460009061351d90600160401b90046001600160401b031660016148fe565b90506135288161107a565b156114cb5760795460009060029061354a9084906001600160401b0316614925565b6135549190614db8565b61355e90836148fe565b90506135698161107a565b15613577576120b68161357c565b6120b6825b6079546001600160401b03600160401b90910481169082161115806135af57506079546001600160401b03908116908216115b156135cd5760405163d086b70b60e01b815260040160405180910390fd5b6001600160401b038181166000818152607860209081526040808320805460748054600160401b928390049098166001600160401b0319909816881790556002820154878652607590945293829020929092556079805467ffffffffffffffff60401b19169390940292909217909255600182015490516333d6247d60e01b815260048101919091529091907f00000000000000000000000000000000000000000000000000000000000000006001600160a01b0316906333d6247d90602401600060405180830381600087803b1580156136a757600080fd5b505af11580156136bb573d6000803e3d6000fd5b50505050826001600160401b0316816001600160401b03167f328d3c6c0fd6f1be0515e422f2d87e59f25922cbc2233568515a0c4bc3f8510e846002015460405161370891815260200190565b60405180910390a3505050565b6040516001600160a01b03808516602483015283166044820152606481018290526137809085906323b872dd60e01b906084015b60408051601f198184030181529190526020810180516001600160e01b03166001600160e01b031990931692909217909152613c78565b50505050565b603380546001600160a01b038381166001600160a01b0319831681179093556040519116919082907f8be0079c531659141344cd1fd0a4f28419497f9722a3daafe3b4186f6b6457e090600090a35050565b7f00000000000000000000000000000000000000000000000000000000000000006001600160a01b0316632072f6c56040518163ffffffff1660e01b8152600401600060405180830381600087803b15801561383357600080fd5b505af1158015613847573d6000803e3d6000fd5b50505050611adf613d4a565b60006001600160401b038a16156138e7576079546001600160401b03908116908b1611156138945760405163bb14c20560e01b815260040160405180910390fd5b506001600160401b03808a1660009081526078602052604090206002810154815490928a8116600160401b90920416146138e157604051632bd2e3e760e01b815260040160405180910390fd5b5061394f565b506001600160401b0387166000908152607560205260409020548061391f576040516324cbdcc360e11b815260040160405180910390fd5b6074546001600160401b03908116908916111561394f57604051630f2b74f160e11b815260040160405180910390fd5b6079546001600160401b03908116908a16118061397e5750896001600160401b0316896001600160401b031611155b8061399f57506079546001600160401b03600160401b9091048116908a1611155b156139bd5760405163bfa7079f60e01b815260040160405180910390fd5b6001600160401b03898116600090815260786020526040902054600160401b9004811690881614613a01576040516332a2a77f60e01b815260040160405180910390fd5b6000613a10898989858a610f45565b90506000600080516020614dff833981519152600283604051613a33919061484f565b602060405180830381855afa158015613a50573d6000803e3d6000fd5b5050506040513d601f19601f82011682018060405250810190613a73919061486b565b613a7d919061489a565b6040805160208101825282815290516343753b4d60e01b81529192506001600160a01b037f000000000000000000000000000000000000000000000000000000000000000016916343753b4d91613add918a918a918a9190600401614d28565b602060405180830381865afa158015613afa573d6000803e3d6000fd5b505050506040513d601f19601f82011682018060405250810190613b1e9190614d96565b613b3b576040516309bde33960e01b815260040160405180910390fd5b6001600160401b038b166000908152607860205260409020600201548790036132de5760405163a47276bd60e01b815260040160405180910390fd5b600054610100900460ff16613be25760405162461bcd60e51b815260206004820152602b60248201527f496e697469616c697a61626c653a20636f6e7472616374206973206e6f74206960448201526a6e697469616c697a696e6760a81b6064820152608401610a17565b611adf33613786565b606f5460ff16613c0e57604051635386698160e01b815260040160405180910390fd5b606f805460ff191690556040517f1e5e34eea33501aecf2ebec9fe0e884a40804275ea7fe10b2ba084c8374308b390600090a1565b6040516001600160a01b038316602482015260448101829052613c7390849063a9059cbb60e01b90606401613749565b505050565b6000613ccd826040518060400160405280602081526020017f5361666545524332303a206c6f772d6c6576656c2063616c6c206661696c6564815250856001600160a01b0316613da69092919063ffffffff16565b805190915015613c735780806020019051810190613ceb9190614d96565b613c735760405162461bcd60e51b815260206004820152602a60248201527f5361666545524332303a204552433230206f7065726174696f6e20646964206e6044820152691bdd081cdd58d8d9595960b21b6064820152608401610a17565b606f5460ff1615613d6e57604051630bc011ff60e21b815260040160405180910390fd5b606f805460ff191660011790556040517f2261efe5aef6fedc1fd1550b25facc9181745623049c7901287030b9ad1a549790600090a1565b6060613db58484600085613dbd565b949350505050565b606082471015613e1e5760405162461bcd60e51b815260206004820152602660248201527f416464726573733a20696e73756666696369656e742062616c616e636520666f6044820152651c8818d85b1b60d21b6064820152608401610a17565b600080866001600160a01b03168587604051613e3a919061484f565b60006040518083038185875af1925050503d8060008114613e77576040519150601f19603f3d011682016040523d82523d6000602084013e613e7c565b606091505b5091509150613e8d87838387613e98565b979650505050505050565b60608315613f07578251600003613f00576001600160a01b0385163b613f005760405162461bcd60e51b815260206004820152601d60248201527f416464726573733a2063616c6c20746f206e6f6e2d636f6e74726163740000006044820152606401610a17565b5081613db5565b613db58383815115613f1c5781518083602001fd5b8060405162461bcd60e51b8152600401610a179190613ff7565b80356001600160401b0381168114613f4d57600080fd5b919050565b600080600080600060a08688031215613f6a57600080fd5b613f7386613f36565b9450613f8160208701613f36565b9350613f8f60408701613f36565b94979396509394606081013594506080013592915050565b60005b83811015613fc2578181015183820152602001613faa565b50506000910152565b60008151808452613fe3816020860160208601613fa7565b601f01601f19169290920160200192915050565b60208152600061400a6020830184613fcb565b9392505050565b806040810183101561402257600080fd5b92915050565b806080810183101561402257600080fd5b6000806000806000806000806101a0898b03121561405657600080fd5b61405f89613f36565b975061406d60208a01613f36565b965061407b60408a01613f36565b955060608901359450608089013593506140988a60a08b01614011565b92506140a78a60e08b01614028565b91506140b78a6101608b01614011565b90509295985092959890939650565b6000602082840312156140d857600080fd5b813561ffff8116811461400a57600080fd5b600080600080600060a0868803121561410257600080fd5b61410b86613f36565b945061411960208701613f36565b94979496505050506040830135926060810135926080909101359150565b6001600160a01b0391909116815260200190565b60006020828403121561415d57600080fd5b61400a82613f36565b634e487b7160e01b600052604160045260246000fd5b600082601f83011261418d57600080fd5b81356001600160401b03808211156141a7576141a7614166565b604051601f8301601f19908116603f011681019082821181831017156141cf576141cf614166565b816040528381528660208588010111156141e857600080fd5b836020870160208301376000602085830101528094505050505092915050565b80356001600160a01b0381168114613f4d57600080fd5b600080600080600060a0868803121561423757600080fd5b8535945060208601356001600160401b0381111561425457600080fd5b6142608882890161417c565b9450506040860135925061427660608701613f36565b915061428460808701614208565b90509295509295909350565b60008083601f8401126142a257600080fd5b5081356001600160401b038111156142b957600080fd5b6020830191508360208260051b85010111156142d457600080fd5b9250929050565b6000806000604084860312156142f057600080fd5b83356001600160401b0381111561430657600080fd5b61431286828701614290565b9094509250614325905060208501614208565b90509250925092565b60006020828403121561434057600080fd5b61400a82614208565b60008060008060008060008060006101c08a8c03121561436857600080fd5b6143718a613f36565b985061437f60208b01613f36565b975061438d60408b01613f36565b965061439b60608b01613f36565b955060808a0135945060a08a013593506143b88b60c08c01614011565b92506143c88b6101008c01614028565b91506143d88b6101808c01614011565b90509295985092959850929598565b6000602082840312156143f957600080fd5b5035919050565b60006020828403121561441257600080fd5b81356001600160401b0381111561442857600080fd5b613db58482850161417c565b60008083601f84011261444657600080fd5b5081356001600160401b0381111561445d57600080fd5b6020830191508360208285010111156142d457600080fd5b60008060008060008086880361012081121561449057600080fd5b60a081121561449e57600080fd5b5086955060a0870135945060c08701356001600160401b03808211156144c357600080fd5b6144cf8a838b0161417c565b955060e08901359150808211156144e557600080fd5b6144f18a838b0161417c565b945061010089013591508082111561450857600080fd5b5061451589828a01614434565b979a9699509497509295939492505050565b6000806020838503121561453a57600080fd5b82356001600160401b0381111561455057600080fd5b61455c85828601614290565b90969095509350505050565b6000806000806080858703121561457e57600080fd5b61458785613f36565b93506020850135925061459c60408601613f36565b91506145aa60608601613f36565b905092959194509250565b6000806000604084860312156145ca57600080fd5b83356001600160401b038111156145e057600080fd5b6145ec86828701614434565b909790965060209590950135949350505050565b6000806040838503121561461357600080fd5b8235915061462360208401613f36565b90509250929050565b60208082526058908201527f506f6c79676f6e5a6b45564d3a3a766572696679426174636865733a2070656e60408201527f64696e6753746174654e756d206d757374206265206c657373206f7220657175606082015277616c207468616e206c61737450656e64696e67537461746560401b608082015260a00190565b6020808252604c90820152600080516020614ddf83398151915260408201527f744e756d4261746368206d757374206d61746368207468652070656e64696e6760608201526b040e6e8c2e8ca40c4c2e8c6d60a31b608082015260a00190565b6020808252604390820152600080516020614ddf83398151915260408201527f744e756d426174636820737461746520726f6f7420646f6573206e6f742065786060820152621a5cdd60ea1b608082015260a00190565b6020808252605d90820152600080516020614ddf83398151915260408201527f744e756d4261746368206d757374206265206c657373206f7220657175616c2060608201527f7468616e2063757272656e744c61737456657269666965644261746368000000608082015260a00190565b60208082526057908201527f506f6c79676f6e5a6b45564d3a3a766572696679426174636865733a2066696e60408201527f616c4e65774261746368206d75737420626520626967676572207468616e20636060820152760eae4e4cadce898c2e6e8accae4d2ccd2cac884c2e8c6d604b1b608082015260a00190565b60008251614861818460208701613fa7565b9190910192915050565b60006020828403121561487d57600080fd5b5051919050565b634e487b7160e01b600052601260045260246000fd5b6000826148a9576148a9614884565b500690565b600181811c908216806148c257607f821691505b6020821081036148e257634e487b7160e01b600052602260045260246000fd5b50919050565b634e487b7160e01b600052601160045260246000fd5b6001600160401b0381811683821601908082111561491e5761491e6148e8565b5092915050565b6001600160401b0382811682821603908082111561491e5761491e6148e8565b60006001600160401b03808316818103614961576149616148e8565b6001019392505050565b9485526020850193909352604084019190915260c01b6001600160c01b0319166060808401919091521b6001600160601b0319166068820152607c0190565b634e487b7160e01b600052603260045260246000fd5b60008235607e1983360301811261486157600080fd5b6000608082360312156149e857600080fd5b604051608081016001600160401b038282108183111715614a0b57614a0b614166565b816040528435915080821115614a2057600080fd5b50614a2d3682860161417c565b82525060208301356020820152614a4660408401613f36565b6040820152614a5760608401613f36565b606082015292915050565b928352602083019190915260c01b6001600160c01b031916604082015260480190565b600060018201614a9757614a976148e8565b5060010190565b81810381811115614022576140226148e8565b8082028115828204841417614022576140226148e8565b600082614ad757614ad7614884565b500490565b601f821115613c7357600081815260208120601f850160051c81016020861015614b035750805b601f850160051c820191505b81811015614b2257828155600101614b0f565b505050505050565b81516001600160401b03811115614b4357614b43614166565b614b5781614b5184546148ae565b84614adc565b602080601f831160018114614b8c5760008415614b745750858301515b600019600386901b1c1916600185901b178555614b22565b600085815260208120601f198616915b82811015614bbb57888601518255948401946001909101908401614b9c565b5085821015614bd95787850151600019600388901b60f8161c191681555b5050505050600190811b01905550565b81835281816020850137506000828201602090810191909152601f909101601f19169091010190565b60006001600160401b03808716835280861660208401525060606040830152614c3f606083018486614be9565b9695505050505050565b80820180821115614022576140226148e8565b60008235605e1983360301811261486157600080fd5b600060608236031215614c8457600080fd5b604051606081016001600160401b038282108183111715614ca757614ca7614166565b816040528435915080821115614cbc57600080fd5b50614cc93682860161417c565b82525060208301356020820152614ce260408401613f36565b604082015292915050565b8183823760009101908152919050565b8481526001600160a01b0384166020820152606060408201819052600090614c3f9083018486614be9565b61012081016040808784378083018660005b6002811015614d5757838284379183019190830190600101614d3a565b505050808560c08501375061010082018360005b6001811015614d8a578151835260209283019290910190600101614d6b565b50505095945050505050565b600060208284031215614da857600080fd5b8151801515811461400a57600080fd5b60006001600160401b0380841680614dd257614dd2614884565b9216919091049291505056fe506f6c79676f6e5a6b45564d3a3a766572696679426174636865733a20696e6930644e72e131a029b85045b68181585d2833e84879b9709143e1f593f0000001a2646970667358221220876edece3404ae295221e61359b7501f8ca36496ee0a4f1e3ad5a3e25c75160264736f6c63430008110033",
  "linkReferences": {},
  "deployedLinkReferences": {}
}