{
  "_format": "hh-sol-artifact-1",
  "contractName": "PolygonZkEVMMock",
  "sourceName": "contracts/mocks/PolygonZkEVMMock.sol",
  "abi": [
    {
      "inputs": [
        {
          "internalType": "contract IPolygonZkEVMGlobalExitRoot",
          "name": "_globalExitRootManager",
          "type": "address"
        },
        {
          "internalType": "contract IERC20Upgradeable",
          "name": "_matic",
          "type": "address"
        },
        {
          "internalType": "contract IVerifierRollup",
          "name": "_rollupVerifier",
          "type": "address"
        },
        {
          "internalType": "contract IPolygonZkEVMBridge",
          "name": "_bridgeAddress",
          "type": "address"
        },
        {
          "internalType": "uint64",
          "name": "_chainID",
          "type": "uint64"
        },
        {
          "internalType": "uint64",
          "name": "_forkID",
          "type": "uint64"
        }
      ],
      "stateMutability": "nonpayable",
      "type": "constructor"
    },
    {
      "inputs": [],
      "name": "BatchAlreadyVerified",
      "type": "error"
    },
    {
      "inputs": [],
      "name": "BatchNotSequencedOrNotSequenceEnd",
      "type": "error"
    },
    {
      "inputs": [],
      "name": "ExceedMaxVerifyBatches",
      "type": "error"
    },
    {
      "inputs": [],
      "name": "FinalNumBatchBelowLastVerifiedBatch",
      "type": "error"
    },
    {
      "inputs": [],
      "name": "FinalNumBatchDoesNotMatchPendingState",
      "type": "error"
    },
    {
      "inputs": [],
      "name": "FinalPendingStateNumInvalid",
      "type": "error"
    },
    {
      "inputs": [],
      "name": "ForceBatchTimeoutNotExpired",
      "type": "error"
    },
    {
      "inputs": [],
      "name": "ForceBatchesOverflow",
      "type": "error"
    },
    {
      "inputs": [],
      "name": "ForcedDataDoesNotMatch",
      "type": "error"
    },
    {
      "inputs": [],
      "name": "GlobalExitRootNotExist",
      "type": "error"
    },
    {
      "inputs": [],
      "name": "HaltTimeoutNotExpired",
      "type": "error"
    },
    {
      "inputs": [],
      "name": "InitNumBatchAboveLastVerifiedBatch",
      "type": "error"
    },
    {
      "inputs": [],
      "name": "InitNumBatchDoesNotMatchPendingState",
      "type": "error"
    },
    {
      "inputs": [],
      "name": "InvalidProof",
      "type": "error"
    },
    {
      "inputs": [],
      "name": "InvalidRangeBatchTimeTarget",
      "type": "error"
    },
    {
      "inputs": [],
      "name": "InvalidRangeMultiplierBatchFee",
      "type": "error"
    },
    {
      "inputs": [],
      "name": "NewAccInputHashDoesNotExist",
      "type": "error"
    },
    {
      "inputs": [],
      "name": "NewPendingStateTimeoutMustBeLower",
      "type": "error"
    },
    {
      "inputs": [],
      "name": "NewTrustedAggregatorTimeoutMustBeLower",
      "type": "error"
    },
    {
      "inputs": [],
      "name": "NotEnoughMaticAmount",
      "type": "error"
    },
    {
      "inputs": [],
      "name": "OldAccInputHashDoesNotExist",
      "type": "error"
    },
    {
      "inputs": [],
      "name": "OldStateRootDoesNotExist",
      "type": "error"
    },
    {
      "inputs": [],
      "name": "OnlyAdmin",
      "type": "error"
    },
    {
      "inputs": [],
      "name": "OnlyEmergencyState",
      "type": "error"
    },
    {
      "inputs": [],
      "name": "OnlyNotEmergencyState",
      "type": "error"
    },
    {
      "inputs": [],
      "name": "OnlyPendingAdmin",
      "type": "error"
    },
    {
      "inputs": [],
      "name": "OnlyTrustedAggregator",
      "type": "error"
    },
    {
      "inputs": [],
      "name": "OnlyTrustedSequencer",
      "type": "error"
    },
    {
      "inputs": [],
      "name": "PendingStateDoesNotExist",
      "type": "error"
    },
    {
      "inputs": [],
      "name": "PendingStateInvalid",
      "type": "error"
    },
    {
      "inputs": [],
      "name": "PendingStateNotConsolidable",
      "type": "error"
    },
    {
      "inputs": [],
      "name": "PendingStateTimeoutExceedHaltAggregationTimeout",
      "type": "error"
    },
    {
      "inputs": [],
      "name": "SequenceZeroBatches",
      "type": "error"
    },
    {
      "inputs": [],
      "name": "SequencedTimestampBelowForcedTimestamp",
      "type": "error"
    },
    {
      "inputs": [],
      "name": "SequencedTimestampInvalid",
      "type": "error"
    },
    {
      "inputs": [],
      "name": "StoredRootMustBeDifferentThanNewRoot",
      "type": "error"
    },
    {
      "inputs": [],
      "name": "TransactionsLengthAboveMax",
      "type": "error"
    },
    {
      "inputs": [],
      "name": "TrustedAggregatorTimeoutExceedHaltAggregationTimeout",
      "type": "error"
    },
    {
      "inputs": [],
      "name": "TrustedAggregatorTimeoutNotExpired",
      "type": "error"
    },
    {
      "anonymous": false,
      "inputs": [
        {
          "indexed": false,
          "internalType": "address",
          "name": "newAdmin",
          "type": "address"
        }
      ],
      "name": "AcceptAdminRole",
      "type": "event"
    },
    {
      "anonymous": false,
      "inputs": [
        {
          "indexed": true,
          "internalType": "uint64",
          "name": "numBatch",
          "type": "uint64"
        },
        {
          "indexed": false,
          "internalType": "bytes32",
          "name": "stateRoot",
          "type": "bytes32"
        },
        {
          "indexed": true,
          "internalType": "uint64",
          "name": "pendingStateNum",
          "type": "uint64"
        }
      ],
      "name": "ConsolidatePendingState",
      "type": "event"
    },
    {
      "anonymous": false,
      "inputs": [],
      "name": "EmergencyStateActivated",
      "type": "event"
    },
    {
      "anonymous": false,
      "inputs": [],
      "name": "EmergencyStateDeactivated",
      "type": "event"
    },
    {
      "anonymous": false,
      "inputs": [
        {
          "indexed": true,
          "internalType": "uint64",
          "name": "forceBatchNum",
          "type": "uint64"
        },
        {
          "indexed": false,
          "internalType": "bytes32",
          "name": "lastGlobalExitRoot",
          "type": "bytes32"
        },
        {
          "indexed": false,
          "internalType": "address",
          "name": "sequencer",
          "type": "address"
        },
        {
          "indexed": false,
          "internalType": "bytes",
          "name": "transactions",
          "type": "bytes"
        }
      ],
      "name": "ForceBatch",
      "type": "event"
    },
    {
      "anonymous": false,
      "inputs": [
        {
          "indexed": false,
          "internalType": "uint8",
          "name": "version",
          "type": "uint8"
        }
      ],
      "name": "Initialized",
      "type": "event"
    },
    {
      "anonymous": false,
      "inputs": [
        {
          "indexed": true,
          "internalType": "uint64",
          "name": "numBatch",
          "type": "uint64"
        },
        {
          "indexed": false,
          "internalType": "bytes32",
          "name": "stateRoot",
          "type": "bytes32"
        },
        {
          "indexed": true,
          "internalType": "address",
          "name": "aggregator",
          "type": "address"
        }
      ],
      "name": "OverridePendingState",
      "type": "event"
    },
    {
      "anonymous": false,
      "inputs": [
        {
          "indexed": true,
          "internalType": "address",
          "name": "previousOwner",
          "type": "address"
        },
        {
          "indexed": true,
          "internalType": "address",
          "name": "newOwner",
          "type": "address"
        }
      ],
      "name": "OwnershipTransferred",
      "type": "event"
    },
    {
      "anonymous": false,
      "inputs": [
        {
          "indexed": false,
          "internalType": "bytes32",
          "name": "storedStateRoot",
          "type": "bytes32"
        },
        {
          "indexed": false,
          "internalType": "bytes32",
          "name": "provedStateRoot",
          "type": "bytes32"
        }
      ],
      "name": "ProveNonDeterministicPendingState",
      "type": "event"
    },
    {
      "anonymous": false,
      "inputs": [
        {
          "indexed": true,
          "internalType": "uint64",
          "name": "numBatch",
          "type": "uint64"
        }
      ],
      "name": "SequenceBatches",
      "type": "event"
    },
    {
      "anonymous": false,
      "inputs": [
        {
          "indexed": true,
          "internalType": "uint64",
          "name": "numBatch",
          "type": "uint64"
        }
      ],
      "name": "SequenceForceBatches",
      "type": "event"
    },
    {
      "anonymous": false,
      "inputs": [
        {
          "indexed": false,
          "internalType": "uint16",
          "name": "newMultiplierBatchFee",
          "type": "uint16"
        }
      ],
      "name": "SetMultiplierBatchFee",
      "type": "event"
    },
    {
      "anonymous": false,
      "inputs": [
        {
          "indexed": false,
          "internalType": "uint64",
          "name": "newPendingStateTimeout",
          "type": "uint64"
        }
      ],
      "name": "SetPendingStateTimeout",
      "type": "event"
    },
    {
      "anonymous": false,
      "inputs": [
        {
          "indexed": false,
          "internalType": "address",
          "name": "newTrustedAggregator",
          "type": "address"
        }
      ],
      "name": "SetTrustedAggregator",
      "type": "event"
    },
    {
      "anonymous": false,
      "inputs": [
        {
          "indexed": false,
          "internalType": "uint64",
          "name": "newTrustedAggregatorTimeout",
          "type": "uint64"
        }
      ],
      "name": "SetTrustedAggregatorTimeout",
      "type": "event"
    },
    {
      "anonymous": false,
      "inputs": [
        {
          "indexed": false,
          "internalType": "address",
          "name": "newTrustedSequencer",
          "type": "address"
        }
      ],
      "name": "SetTrustedSequencer",
      "type": "event"
    },
    {
      "anonymous": false,
      "inputs": [
        {
          "indexed": false,
          "internalType": "string",
          "name": "newTrustedSequencerURL",
          "type": "string"
        }
      ],
      "name": "SetTrustedSequencerURL",
      "type": "event"
    },
    {
      "anonymous": false,
      "inputs": [
        {
          "indexed": false,
          "internalType": "uint64",
          "name": "newVerifyBatchTimeTarget",
          "type": "uint64"
        }
      ],
      "name": "SetVerifyBatchTimeTarget",
      "type": "event"
    },
    {
      "anonymous": false,
      "inputs": [
        {
          "indexed": false,
          "internalType": "address",
          "name": "newPendingAdmin",
          "type": "address"
        }
      ],
      "name": "TransferAdminRole",
      "type": "event"
    },
    {
      "anonymous": false,
      "inputs": [
        {
          "indexed": false,
          "internalType": "uint64",
          "name": "numBatch",
          "type": "uint64"
        },
        {
          "indexed": false,
          "internalType": "uint64",
          "name": "forkID",
          "type": "uint64"
        },
        {
          "indexed": false,
          "internalType": "string",
          "name": "version",
          "type": "string"
        }
      ],
      "name": "UpdateZkEVMVersion",
      "type": "event"
    },
    {
      "anonymous": false,
      "inputs": [
        {
          "indexed": true,
          "internalType": "uint64",
          "name": "numBatch",
          "type": "uint64"
        },
        {
          "indexed": false,
          "internalType": "bytes32",
          "name": "stateRoot",
          "type": "bytes32"
        },
        {
          "indexed": true,
          "internalType": "address",
          "name": "aggregator",
          "type": "address"
        }
      ],
      "name": "VerifyBatches",
      "type": "event"
    },
    {
      "anonymous": false,
      "inputs": [
        {
          "indexed": true,
          "internalType": "uint64",
          "name": "numBatch",
          "type": "uint64"
        },
        {
          "indexed": false,
          "internalType": "bytes32",
          "name": "stateRoot",
          "type": "bytes32"
        },
        {
          "indexed": true,
          "internalType": "address",
          "name": "aggregator",
          "type": "address"
        }
      ],
      "name": "VerifyBatchesTrustedAggregator",
      "type": "event"
    },
    {
      "inputs": [],
      "name": "_FORCE_BATCH_TIMEOUT",
      "outputs": [
        {
          "internalType": "uint64",
          "name": "",
          "type": "uint64"
        }
      ],
      "stateMutability": "view",
      "type": "function"
    },
    {
      "inputs": [],
      "name": "acceptAdminRole",
      "outputs": [],
      "stateMutability": "nonpayable",
      "type": "function"
    },
    {
      "inputs": [
        {
          "internalType": "uint64",
          "name": "sequencedBatchNum",
          "type": "uint64"
        }
      ],
      "name": "activateEmergencyState",
      "outputs": [],
      "stateMutability": "nonpayable",
      "type": "function"
    },
    {
      "inputs": [],
      "name": "admin",
      "outputs": [
        {
          "internalType": "address",
          "name": "",
          "type": "address"
        }
      ],
      "stateMutability": "view",
      "type": "function"
    },
    {
      "inputs": [],
      "name": "batchFee",
      "outputs": [
        {
          "internalType": "uint256",
          "name": "",
          "type": "uint256"
        }
      ],
      "stateMutability": "view",
      "type": "function"
    },
    {
      "inputs": [
        {
          "internalType": "uint64",
          "name": "",
          "type": "uint64"
        }
      ],
      "name": "batchNumToStateRoot",
      "outputs": [
        {
          "internalType": "bytes32",
          "name": "",
          "type": "bytes32"
        }
      ],
      "stateMutability": "view",
      "type": "function"
    },
    {
      "inputs": [],
      "name": "bridgeAddress",
      "outputs": [
        {
          "internalType": "contract IPolygonZkEVMBridge",
          "name": "",
          "type": "address"
        }
      ],
      "stateMutability": "view",
      "type": "function"
    },
    {
      "inputs": [
        {
          "internalType": "bytes32",
          "name": "currentAccInputHash",
          "type": "bytes32"
        },
        {
          "internalType": "bytes",
          "name": "transactions",
          "type": "bytes"
        },
        {
          "internalType": "bytes32",
          "name": "globalExitRoot",
          "type": "bytes32"
        },
        {
          "internalType": "uint64",
          "name": "timestamp",
          "type": "uint64"
        },
        {
          "internalType": "address",
          "name": "sequencerAddress",
          "type": "address"
        }
      ],
      "name": "calculateAccInputHash",
      "outputs": [
        {
          "internalType": "bytes32",
          "name": "",
          "type": "bytes32"
        }
      ],
      "stateMutability": "pure",
      "type": "function"
    },
    {
      "inputs": [],
      "name": "calculateRewardPerBatch",
      "outputs": [
        {
          "internalType": "uint256",
          "name": "",
          "type": "uint256"
        }
      ],
      "stateMutability": "view",
      "type": "function"
    },
    {
      "inputs": [],
      "name": "chainID",
      "outputs": [
        {
          "internalType": "uint64",
          "name": "",
          "type": "uint64"
        }
      ],
      "stateMutability": "view",
      "type": "function"
    },
    {
      "inputs": [
        {
          "internalType": "uint64",
          "name": "pendingStateNum",
          "type": "uint64"
        }
      ],
      "name": "consolidatePendingState",
      "outputs": [],
      "stateMutability": "nonpayable",
      "type": "function"
    },
    {
      "inputs": [],
      "name": "deactivateEmergencyState",
      "outputs": [],
      "stateMutability": "nonpayable",
      "type": "function"
    },
    {
      "inputs": [
        {
          "internalType": "bytes",
          "name": "transactions",
          "type": "bytes"
        },
        {
          "internalType": "uint256",
          "name": "maticAmount",
          "type": "uint256"
        }
      ],
      "name": "forceBatch",
      "outputs": [],
      "stateMutability": "nonpayable",
      "type": "function"
    },
    {
      "inputs": [
        {
          "internalType": "uint64",
          "name": "",
          "type": "uint64"
        }
      ],
      "name": "forcedBatches",
      "outputs": [
        {
          "internalType": "bytes32",
          "name": "",
          "type": "bytes32"
        }
      ],
      "stateMutability": "view",
      "type": "function"
    },
    {
      "inputs": [],
      "name": "forkID",
      "outputs": [
        {
          "internalType": "uint64",
          "name": "",
          "type": "uint64"
        }
      ],
      "stateMutability": "view",
      "type": "function"
    },
    {
      "inputs": [],
      "name": "getCurrentBatchFee",
      "outputs": [
        {
          "internalType": "uint256",
          "name": "",
          "type": "uint256"
        }
      ],
      "stateMutability": "view",
      "type": "function"
    },
    {
      "inputs": [
        {
          "internalType": "uint64",
          "name": "initNumBatch",
          "type": "uint64"
        },
        {
          "internalType": "uint64",
          "name": "finalNewBatch",
          "type": "uint64"
        },
        {
          "internalType": "bytes32",
          "name": "newLocalExitRoot",
          "type": "bytes32"
        },
        {
          "internalType": "bytes32",
          "name": "oldStateRoot",
          "type": "bytes32"
        },
        {
          "internalType": "bytes32",
          "name": "newStateRoot",
          "type": "bytes32"
        }
      ],
      "name": "getInputSnarkBytes",
      "outputs": [
        {
          "internalType": "bytes",
          "name": "",
          "type": "bytes"
        }
      ],
      "stateMutability": "view",
      "type": "function"
    },
    {
      "inputs": [],
      "name": "getLastVerifiedBatch",
      "outputs": [
        {
          "internalType": "uint64",
          "name": "",
          "type": "uint64"
        }
      ],
      "stateMutability": "view",
      "type": "function"
    },
    {
      "inputs": [
        {
          "internalType": "uint64",
          "name": "pendingStateNum",
          "type": "uint64"
        },
        {
          "internalType": "uint64",
          "name": "initNumBatch",
          "type": "uint64"
        },
        {
          "internalType": "uint64",
          "name": "finalNewBatch",
          "type": "uint64"
        },
        {
          "internalType": "bytes32",
          "name": "newLocalExitRoot",
          "type": "bytes32"
        },
        {
          "internalType": "bytes32",
          "name": "newStateRoot",
          "type": "bytes32"
        }
      ],
      "name": "getNextSnarkInput",
      "outputs": [
        {
          "internalType": "uint256",
          "name": "",
          "type": "uint256"
        }
      ],
      "stateMutability": "view",
      "type": "function"
    },
    {
      "inputs": [],
      "name": "globalExitRootManager",
      "outputs": [
        {
          "internalType": "contract IPolygonZkEVMGlobalExitRoot",
          "name": "",
          "type": "address"
        }
      ],
      "stateMutability": "view",
      "type": "function"
    },
    {
      "inputs": [
        {
          "components": [
            {
              "internalType": "address",
              "name": "admin",
              "type": "address"
            },
            {
              "internalType": "address",
              "name": "trustedSequencer",
              "type": "address"
            },
            {
              "internalType": "uint64",
              "name": "pendingStateTimeout",
              "type": "uint64"
            },
            {
              "internalType": "address",
              "name": "trustedAggregator",
              "type": "address"
            },
            {
              "internalType": "uint64",
              "name": "trustedAggregatorTimeout",
              "type": "uint64"
            }
          ],
          "internalType": "struct PolygonZkEVM.InitializePackedParameters",
          "name": "initializePackedParameters",
          "type": "tuple"
        },
        {
          "internalType": "bytes32",
          "name": "genesisRoot",
          "type": "bytes32"
        },
        {
          "internalType": "string",
          "name": "_trustedSequencerURL",
          "type": "string"
        },
        {
          "internalType": "string",
          "name": "_networkName",
          "type": "string"
        },
        {
          "internalType": "string",
          "name": "_version",
          "type": "string"
        }
      ],
      "name": "initialize",
      "outputs": [],
      "stateMutability": "nonpayable",
      "type": "function"
    },
    {
      "inputs": [],
      "name": "isEmergencyState",
      "outputs": [
        {
          "internalType": "bool",
          "name": "",
          "type": "bool"
        }
      ],
      "stateMutability": "view",
      "type": "function"
    },
    {
      "inputs": [
        {
          "internalType": "uint64",
          "name": "pendingStateNum",
          "type": "uint64"
        }
      ],
      "name": "isPendingStateConsolidable",
      "outputs": [
        {
          "internalType": "bool",
          "name": "",
          "type": "bool"
        }
      ],
      "stateMutability": "view",
      "type": "function"
    },
    {
      "inputs": [],
      "name": "lastBatchSequenced",
      "outputs": [
        {
          "internalType": "uint64",
          "name": "",
          "type": "uint64"
        }
      ],
      "stateMutability": "view",
      "type": "function"
    },
    {
      "inputs": [],
      "name": "lastForceBatch",
      "outputs": [
        {
          "internalType": "uint64",
          "name": "",
          "type": "uint64"
        }
      ],
      "stateMutability": "view",
      "type": "function"
    },
    {
      "inputs": [],
      "name": "lastForceBatchSequenced",
      "outputs": [
        {
          "internalType": "uint64",
          "name": "",
          "type": "uint64"
        }
      ],
      "stateMutability": "view",
      "type": "function"
    },
    {
      "inputs": [],
      "name": "lastPendingState",
      "outputs": [
        {
          "internalType": "uint64",
          "name": "",
          "type": "uint64"
        }
      ],
      "stateMutability": "view",
      "type": "function"
    },
    {
      "inputs": [],
      "name": "lastPendingStateConsolidated",
      "outputs": [
        {
          "internalType": "uint64",
          "name": "",
          "type": "uint64"
        }
      ],
      "stateMutability": "view",
      "type": "function"
    },
    {
      "inputs": [],
      "name": "lastTimestamp",
      "outputs": [
        {
          "internalType": "uint64",
          "name": "",
          "type": "uint64"
        }
      ],
      "stateMutability": "view",
      "type": "function"
    },
    {
      "inputs": [],
      "name": "lastVerifiedBatch",
      "outputs": [
        {
          "internalType": "uint64",
          "name": "",
          "type": "uint64"
        }
      ],
      "stateMutability": "view",
      "type": "function"
    },
    {
      "inputs": [],
      "name": "matic",
      "outputs": [
        {
          "internalType": "contract IERC20Upgradeable",
          "name": "",
          "type": "address"
        }
      ],
      "stateMutability": "view",
      "type": "function"
    },
    {
      "inputs": [],
      "name": "multiplierBatchFee",
      "outputs": [
        {
          "internalType": "uint16",
          "name": "",
          "type": "uint16"
        }
      ],
      "stateMutability": "view",
      "type": "function"
    },
    {
      "inputs": [],
      "name": "networkName",
      "outputs": [
        {
          "internalType": "string",
          "name": "",
          "type": "string"
        }
      ],
      "stateMutability": "view",
      "type": "function"
    },
    {
      "inputs": [
        {
          "internalType": "uint64",
          "name": "initPendingStateNum",
          "type": "uint64"
        },
        {
          "internalType": "uint64",
          "name": "finalPendingStateNum",
          "type": "uint64"
        },
        {
          "internalType": "uint64",
          "name": "initNumBatch",
          "type": "uint64"
        },
        {
          "internalType": "uint64",
          "name": "finalNewBatch",
          "type": "uint64"
        },
        {
          "internalType": "bytes32",
          "name": "newLocalExitRoot",
          "type": "bytes32"
        },
        {
          "internalType": "bytes32",
          "name": "newStateRoot",
          "type": "bytes32"
        },
        {
          "internalType": "uint256[2]",
          "name": "proofA",
          "type": "uint256[2]"
        },
        {
          "internalType": "uint256[2][2]",
          "name": "proofB",
          "type": "uint256[2][2]"
        },
        {
          "internalType": "uint256[2]",
          "name": "proofC",
          "type": "uint256[2]"
        }
      ],
      "name": "overridePendingState",
      "outputs": [],
      "stateMutability": "nonpayable",
      "type": "function"
    },
    {
      "inputs": [],
      "name": "owner",
      "outputs": [
        {
          "internalType": "address",
          "name": "",
          "type": "address"
        }
      ],
      "stateMutability": "view",
      "type": "function"
    },
    {
      "inputs": [],
      "name": "pendingAdmin",
      "outputs": [
        {
          "internalType": "address",
          "name": "",
          "type": "address"
        }
      ],
      "stateMutability": "view",
      "type": "function"
    },
    {
      "inputs": [],
      "name": "pendingStateTimeout",
      "outputs": [
        {
          "internalType": "uint64",
          "name": "",
          "type": "uint64"
        }
      ],
      "stateMutability": "view",
      "type": "function"
    },
    {
      "inputs": [
        {
          "internalType": "uint256",
          "name": "",
          "type": "uint256"
        }
      ],
      "name": "pendingStateTransitions",
      "outputs": [
        {
          "internalType": "uint64",
          "name": "timestamp",
          "type": "uint64"
        },
        {
          "internalType": "uint64",
          "name": "lastVerifiedBatch",
          "type": "uint64"
        },
        {
          "internalType": "bytes32",
          "name": "exitRoot",
          "type": "bytes32"
        },
        {
          "internalType": "bytes32",
          "name": "stateRoot",
          "type": "bytes32"
        }
      ],
      "stateMutability": "view",
      "type": "function"
    },
    {
      "inputs": [
        {
          "internalType": "uint64",
          "name": "initPendingStateNum",
          "type": "uint64"
        },
        {
          "internalType": "uint64",
          "name": "finalPendingStateNum",
          "type": "uint64"
        },
        {
          "internalType": "uint64",
          "name": "initNumBatch",
          "type": "uint64"
        },
        {
          "internalType": "uint64",
          "name": "finalNewBatch",
          "type": "uint64"
        },
        {
          "internalType": "bytes32",
          "name": "newLocalExitRoot",
          "type": "bytes32"
        },
        {
          "internalType": "bytes32",
          "name": "newStateRoot",
          "type": "bytes32"
        },
        {
          "internalType": "uint256[2]",
          "name": "proofA",
          "type": "uint256[2]"
        },
        {
          "internalType": "uint256[2][2]",
          "name": "proofB",
          "type": "uint256[2][2]"
        },
        {
          "internalType": "uint256[2]",
          "name": "proofC",
          "type": "uint256[2]"
        }
      ],
      "name": "proveNonDeterministicPendingState",
      "outputs": [],
      "stateMutability": "nonpayable",
      "type": "function"
    },
    {
      "inputs": [],
      "name": "renounceOwnership",
      "outputs": [],
      "stateMutability": "nonpayable",
      "type": "function"
    },
    {
      "inputs": [],
      "name": "rollupVerifier",
      "outputs": [
        {
          "internalType": "contract IVerifierRollup",
          "name": "",
          "type": "address"
        }
      ],
      "stateMutability": "view",
      "type": "function"
    },
    {
      "inputs": [
        {
          "components": [
            {
              "internalType": "bytes",
              "name": "transactions",
              "type": "bytes"
            },
            {
              "internalType": "bytes32",
              "name": "globalExitRoot",
              "type": "bytes32"
            },
            {
              "internalType": "uint64",
              "name": "timestamp",
              "type": "uint64"
            },
            {
              "internalType": "uint64",
              "name": "minForcedTimestamp",
              "type": "uint64"
            }
          ],
          "internalType": "struct PolygonZkEVM.BatchData[]",
          "name": "batches",
          "type": "tuple[]"
        },
        {
          "internalType": "address",
          "name": "feeRecipient",
          "type": "address"
        }
      ],
      "name": "sequenceBatches",
      "outputs": [],
      "stateMutability": "nonpayable",
      "type": "function"
    },
    {
      "inputs": [
        {
          "components": [
            {
              "internalType": "bytes",
              "name": "transactions",
              "type": "bytes"
            },
            {
              "internalType": "bytes32",
              "name": "globalExitRoot",
              "type": "bytes32"
            },
            {
              "internalType": "uint64",
              "name": "minForcedTimestamp",
              "type": "uint64"
            }
          ],
          "internalType": "struct PolygonZkEVM.ForcedBatchData[]",
          "name": "batches",
          "type": "tuple[]"
        }
      ],
      "name": "sequenceForceBatches",
      "outputs": [],
      "stateMutability": "nonpayable",
      "type": "function"
    },
    {
      "inputs": [
        {
          "internalType": "uint64",
          "name": "",
          "type": "uint64"
        }
      ],
      "name": "sequencedBatches",
      "outputs": [
        {
          "internalType": "bytes32",
          "name": "accInputHash",
          "type": "bytes32"
        },
        {
          "internalType": "uint64",
          "name": "sequencedTimestamp",
          "type": "uint64"
        },
        {
          "internalType": "uint64",
          "name": "previousLastBatchSequenced",
          "type": "uint64"
        }
      ],
      "stateMutability": "view",
      "type": "function"
    },
    {
      "inputs": [
        {
          "internalType": "uint16",
          "name": "newMultiplierBatchFee",
          "type": "uint16"
        }
      ],
      "name": "setMultiplierBatchFee",
      "outputs": [],
      "stateMutability": "nonpayable",
      "type": "function"
    },
    {
      "inputs": [
        {
          "internalType": "string",
          "name": "_networkName",
          "type": "string"
        }
      ],
      "name": "setNetworkName",
      "outputs": [],
      "stateMutability": "nonpayable",
      "type": "function"
    },
    {
      "inputs": [
        {
          "internalType": "uint64",
          "name": "newPendingStateTimeout",
          "type": "uint64"
        }
      ],
      "name": "setPendingStateTimeout",
      "outputs": [],
      "stateMutability": "nonpayable",
      "type": "function"
    },
    {
      "inputs": [
        {
          "internalType": "uint64",
          "name": "_numBatch",
          "type": "uint64"
        }
      ],
      "name": "setSequencedBatch",
      "outputs": [],
      "stateMutability": "nonpayable",
      "type": "function"
    },
    {
      "inputs": [
        {
          "internalType": "uint64",
          "name": "batchNum",
          "type": "uint64"
        },
        {
          "internalType": "bytes32",
          "name": "accInputData",
          "type": "bytes32"
        },
        {
          "internalType": "uint64",
          "name": "timestamp",
          "type": "uint64"
        },
        {
          "internalType": "uint64",
          "name": "lastPendingStateConsolidated",
          "type": "uint64"
        }
      ],
      "name": "setSequencedBatches",
      "outputs": [],
      "stateMutability": "nonpayable",
      "type": "function"
    },
    {
      "inputs": [
        {
          "internalType": "bytes32",
          "name": "newStateRoot",
          "type": "bytes32"
        },
        {
          "internalType": "uint64",
          "name": "batchNum",
          "type": "uint64"
        }
      ],
      "name": "setStateRoot",
      "outputs": [],
      "stateMutability": "nonpayable",
      "type": "function"
    },
    {
      "inputs": [
        {
          "internalType": "address",
          "name": "newTrustedAggregator",
          "type": "address"
        }
      ],
      "name": "setTrustedAggregator",
      "outputs": [],
      "stateMutability": "nonpayable",
      "type": "function"
    },
    {
      "inputs": [
        {
          "internalType": "uint64",
          "name": "newTrustedAggregatorTimeout",
          "type": "uint64"
        }
      ],
      "name": "setTrustedAggregatorTimeout",
      "outputs": [],
      "stateMutability": "nonpayable",
      "type": "function"
    },
    {
      "inputs": [
        {
          "internalType": "address",
          "name": "newTrustedSequencer",
          "type": "address"
        }
      ],
      "name": "setTrustedSequencer",
      "outputs": [],
      "stateMutability": "nonpayable",
      "type": "function"
    },
    {
      "inputs": [
        {
          "internalType": "string",
          "name": "newTrustedSequencerURL",
          "type": "string"
        }
      ],
      "name": "setTrustedSequencerURL",
      "outputs": [],
      "stateMutability": "nonpayable",
      "type": "function"
    },
    {
      "inputs": [
        {
          "internalType": "uint64",
          "name": "_numBatch",
          "type": "uint64"
        }
      ],
      "name": "setVerifiedBatch",
      "outputs": [],
      "stateMutability": "nonpayable",
      "type": "function"
    },
    {
      "inputs": [
        {
          "internalType": "uint64",
          "name": "newVerifyBatchTimeTarget",
          "type": "uint64"
        }
      ],
      "name": "setVerifyBatchTimeTarget",
      "outputs": [],
      "stateMutability": "nonpayable",
      "type": "function"
    },
    {
      "inputs": [
        {
          "internalType": "address",
          "name": "newPendingAdmin",
          "type": "address"
        }
      ],
      "name": "transferAdminRole",
      "outputs": [],
      "stateMutability": "nonpayable",
      "type": "function"
    },
    {
      "inputs": [
        {
          "internalType": "address",
          "name": "newOwner",
          "type": "address"
        }
      ],
      "name": "transferOwnership",
      "outputs": [],
      "stateMutability": "nonpayable",
      "type": "function"
    },
    {
      "inputs": [],
      "name": "trustedAggregator",
      "outputs": [
        {
          "internalType": "address",
          "name": "",
          "type": "address"
        }
      ],
      "stateMutability": "view",
      "type": "function"
    },
    {
      "inputs": [],
      "name": "trustedAggregatorTimeout",
      "outputs": [
        {
          "internalType": "uint64",
          "name": "",
          "type": "uint64"
        }
      ],
      "stateMutability": "view",
      "type": "function"
    },
    {
      "inputs": [],
      "name": "trustedSequencer",
      "outputs": [
        {
          "internalType": "address",
          "name": "",
          "type": "address"
        }
      ],
      "stateMutability": "view",
      "type": "function"
    },
    {
      "inputs": [],
      "name": "trustedSequencerURL",
      "outputs": [
        {
          "internalType": "string",
          "name": "",
          "type": "string"
        }
      ],
      "stateMutability": "view",
      "type": "function"
    },
    {
      "inputs": [
        {
          "internalType": "uint64",
          "name": "pendingStateNum",
          "type": "uint64"
        },
        {
          "internalType": "uint64",
          "name": "initNumBatch",
          "type": "uint64"
        },
        {
          "internalType": "uint64",
          "name": "finalNewBatch",
          "type": "uint64"
        },
        {
          "internalType": "bytes32",
          "name": "newLocalExitRoot",
          "type": "bytes32"
        },
        {
          "internalType": "bytes32",
          "name": "newStateRoot",
          "type": "bytes32"
        },
        {
          "internalType": "uint256[2]",
          "name": "proofA",
          "type": "uint256[2]"
        },
        {
          "internalType": "uint256[2][2]",
          "name": "proofB",
          "type": "uint256[2][2]"
        },
        {
          "internalType": "uint256[2]",
          "name": "proofC",
          "type": "uint256[2]"
        }
      ],
      "name": "trustedVerifyBatchesMock",
      "outputs": [],
      "stateMutability": "nonpayable",
      "type": "function"
    },
    {
      "inputs": [
        {
          "internalType": "uint64",
          "name": "newLastVerifiedBatch",
          "type": "uint64"
        }
      ],
      "name": "updateBatchFee",
      "outputs": [],
      "stateMutability": "nonpayable",
      "type": "function"
    },
    {
      "inputs": [],
      "name": "verifyBatchTimeTarget",
      "outputs": [
        {
          "internalType": "uint64",
          "name": "",
          "type": "uint64"
        }
      ],
      "stateMutability": "view",
      "type": "function"
    },
    {
      "inputs": [
        {
          "internalType": "uint64",
          "name": "pendingStateNum",
          "type": "uint64"
        },
        {
          "internalType": "uint64",
          "name": "initNumBatch",
          "type": "uint64"
        },
        {
          "internalType": "uint64",
          "name": "finalNewBatch",
          "type": "uint64"
        },
        {
          "internalType": "bytes32",
          "name": "newLocalExitRoot",
          "type": "bytes32"
        },
        {
          "internalType": "bytes32",
          "name": "newStateRoot",
          "type": "bytes32"
        },
        {
          "internalType": "uint256[2]",
          "name": "proofA",
          "type": "uint256[2]"
        },
        {
          "internalType": "uint256[2][2]",
          "name": "proofB",
          "type": "uint256[2][2]"
        },
        {
          "internalType": "uint256[2]",
          "name": "proofC",
          "type": "uint256[2]"
        }
      ],
      "name": "verifyBatches",
      "outputs": [],
      "stateMutability": "nonpayable",
      "type": "function"
    },
    {
      "inputs": [
        {
          "internalType": "uint64",
          "name": "pendingStateNum",
          "type": "uint64"
        },
        {
          "internalType": "uint64",
          "name": "initNumBatch",
          "type": "uint64"
        },
        {
          "internalType": "uint64",
          "name": "finalNewBatch",
          "type": "uint64"
        },
        {
          "internalType": "bytes32",
          "name": "newLocalExitRoot",
          "type": "bytes32"
        },
        {
          "internalType": "bytes32",
          "name": "newStateRoot",
          "type": "bytes32"
        },
        {
          "internalType": "uint256[2]",
          "name": "proofA",
          "type": "uint256[2]"
        },
        {
          "internalType": "uint256[2][2]",
          "name": "proofB",
          "type": "uint256[2][2]"
        },
        {
          "internalType": "uint256[2]",
          "name": "proofC",
          "type": "uint256[2]"
        }
      ],
      "name": "verifyBatchesTrustedAggregator",
      "outputs": [],
      "stateMutability": "nonpayable",
      "type": "function"
    }
  ],
  "bytecode": "0x6101406040523480156200001257600080fd5b5060405162005066380380620050668339810160408190526200003591620000a5565b6001600160a01b0395861660c05293851660805291841660a05290921660e0526001600160401b0391821661010052166101205262000131565b6001600160a01b03811681146200008557600080fd5b50565b80516001600160401b0381168114620000a057600080fd5b919050565b60008060008060008060c08789031215620000bf57600080fd5b8651620000cc816200006f565b6020880151909650620000df816200006f565b6040880151909550620000f2816200006f565b606088015190945062000105816200006f565b9250620001156080880162000088565b91506200012560a0880162000088565b90509295509295509295565b60805160a05160c05160e0516101005161012051614e67620001ff600039600081816105fa0152818161102f015261247101526000818161076001526110050152600081816107260152818161286e01526137ed01526000818161089101528181610dee0152818161130d01528181611756015281816129fc01528181612b7001528181612e0c015261366e015260008181610940015281816131ff0152613ab6015260008181610822015281816119f101528181611d4f01528181612b4401526132ca0152614e676000f3fe608060405234801561001057600080fd5b50600436106103715760003560e01c80638da5cb5b116101d5578063cfa8ed4711610105578063e7a7ed02116100a8578063e7a7ed0214610921578063e8bf92ed1461093b578063eaeb077b14610962578063f020c93e14610975578063f14916d614610988578063f2fde38b1461099b578063f851a440146109ae578063f8b823e4146109c1578063fe16564f146109ca57600080fd5b8063cfa8ed4714610872578063d02103ca1461088c578063d2e129f9146108b3578063d8d1091b146108c6578063d939b315146108d9578063dbc16976146108f3578063e0d17441146108fb578063e11f3f181461090e57600080fd5b8063ada8f91911610178578063ada8f91914610748578063adc879e91461075b578063afd23cbe14610782578063b4d63f58146107aa578063b4f77ea91461080a578063b6b0b0971461081d578063c0cad30214610844578063c0ed84e014610857578063c89e42df1461085f57600080fd5b80638da5cb5b146106b457806396dc3d39146106c557806399f5634e146106d85780639b796760146106e05780639c9f3dfe146106f35780639f0d039d14610706578063a066215c1461070e578063a3c573eb1461072157600080fd5b80634a1a89a7116102b0578063715018a611610253578063715018a6146105b45780637215541a146105bc57806375c508b3146105cf5780637fcb3653146105e2578063831c7ead146105f5578063837a47381461061c578063841b24d71461068a578063888ce098146106a45780638c3d7301146106ac57600080fd5b80634a1a89a7146105065780634a910e6a146105205780635392c5e014610533578063542028d514610553578063574f649e1461055b5780635e9145c91461056e5780636b8616ce146105815780636ff512cc146105a157600080fd5b80632678224711610318578063267822471461044c578063298789831461046c578063383b3be814610486578063394218e914610499578063423fa856146104ac57806345605267146104c6578063458c0477146104e05780634834a343146104f357600080fd5b80630a0d9fbe146103765780630eaa86ea146103ab578063107bf28c146103cc57806310a01a72146103e157806315064c96146103f65780631816b7e51461041357806319d8ac6114610426578063220d789914610439575b600080fd5b606f5461038e9061010090046001600160401b031681565b6040516001600160401b0390911681526020015b60405180910390f35b6103be6103b9366004613f65565b6109dd565b6040519081526020016103a2565b6103d4610bac565b6040516103a2919061400a565b6103f46103ef36600461404c565b610c3a565b005b606f546104039060ff1681565b60405190151581526020016103a2565b6103f46104213660046140d9565b610e9f565b60735461038e906001600160401b031681565b6103d46104473660046140fd565b610f58565b607b5461045f906001600160a01b031681565b6040516103a2919061414a565b60745461045f90600160401b90046001600160a01b031681565b61040361049436600461415e565b61108d565b6103f46104a736600461415e565b6110d4565b60735461038e90600160401b90046001600160401b031681565b60735461038e90600160801b90046001600160401b031681565b60795461038e906001600160401b031681565b6103f461050136600461404c565b6111c2565b60795461038e90600160401b90046001600160401b031681565b6103f461052e36600461415e565b611472565b6103be61054136600461415e565b60756020526000908152604090205481565b6103d46114e1565b6103be610569366004614232565b6114ee565b6103f461057c3660046142ee565b611531565b6103be61058f36600461415e565b60716020526000908152604090205481565b6103f46105af366004614341565b611a61565b6103f4611ae0565b6103f46105ca36600461415e565b611af4565b6103f46105dd36600461435c565b611c01565b60745461038e906001600160401b031681565b61038e7f000000000000000000000000000000000000000000000000000000000000000081565b61065f61062a3660046143fa565b6078602052600090815260409020805460018201546002909201546001600160401b0380831693600160401b90930416919084565b604080516001600160401b0395861681529490931660208501529183015260608201526080016103a2565b60795461038e90600160c01b90046001600160401b031681565b61038e600081565b6103f4611c9c565b6033546001600160a01b031661045f565b6103f46106d336600461415e565b611d20565b6103be611d4a565b6103f46106ee36600461415e565b611e57565b6103f461070136600461415e565b611e8c565b6070546103be565b6103f461071c36600461415e565b611f7f565b61045f7f000000000000000000000000000000000000000000000000000000000000000081565b6103f4610756366004614341565b61202e565b61038e7f000000000000000000000000000000000000000000000000000000000000000081565b606f5461079790600160481b900461ffff1681565b60405161ffff90911681526020016103a2565b6107e56107b836600461415e565b607260205260009081526040902080546001909101546001600160401b0380821691600160401b90041683565b604080519384526001600160401b0392831660208501529116908201526060016103a2565b6103f461081836600461415e565b6120a4565b61045f7f000000000000000000000000000000000000000000000000000000000000000081565b6103f4610852366004614413565b6120b5565b61038e6120cd565b6103f461086d366004614413565b61211a565b606f5461045f90600160581b90046001600160a01b031681565b61045f7f000000000000000000000000000000000000000000000000000000000000000081565b6103f46108c1366004614488565b612181565b6103f46108d436600461453a565b6124f9565b60795461038e90600160801b90046001600160401b031681565b6103f4612841565b6103f461090936600461457b565b6128e7565b6103f461091c36600461435c565b612959565b60735461038e90600160c01b90046001600160401b031681565b61045f7f000000000000000000000000000000000000000000000000000000000000000081565b6103f46109703660046145c8565b612ac1565b6103f461098336600461404c565b612d6a565b6103f4610996366004614341565b612ead565b6103f46109a9366004614341565b612f2c565b607a5461045f906001600160a01b031681565b6103be60705481565b6103f46109d8366004614613565b612fa2565b60008060006109ea6120cd565b90506001600160401b03881615610a87576079546001600160401b039081169089161115610a335760405162461bcd60e51b8152600401610a2a9061463f565b60405180910390fd5b6001600160401b038089166000908152607860205260409020600281015481549094509091898116600160401b9092041614610a815760405162461bcd60e51b8152600401610a2a906146bd565b50610af1565b6001600160401b038716600090815260756020526040902054915081610abf5760405162461bcd60e51b8152600401610a2a9061471d565b806001600160401b0316876001600160401b03161115610af15760405162461bcd60e51b8152600401610a2a90614774565b806001600160401b0316866001600160401b031611610b225760405162461bcd60e51b8152600401610a2a906147e5565b6000610b318888888689610f58565b90506000600080516020614e12833981519152600283604051610b549190614862565b602060405180830381855afa158015610b71573d6000803e3d6000fd5b5050506040513d601f19601f82011682018060405250810190610b94919061487e565b610b9e91906148ad565b9a9950505050505050505050565b60778054610bb9906148c1565b80601f0160208091040260200160405190810160405280929190818152602001828054610be5906148c1565b8015610c325780601f10610c0757610100808354040283529160200191610c32565b820191906000526020600020905b815481529060010190602001808311610c1557829003601f168201915b505050505081565b610c42612fc4565b600080610c4d6120cd565b90506001600160401b038a1615610ce1576079546001600160401b03908116908b161115610c8d5760405162461bcd60e51b8152600401610a2a9061463f565b6001600160401b03808b1660009081526078602052604090206002810154815490945090918b8116600160401b9092041614610cdb5760405162461bcd60e51b8152600401610a2a906146bd565b50610d4b565b6001600160401b038916600090815260756020526040902054915081610d195760405162461bcd60e51b8152600401610a2a9061471d565b806001600160401b0316896001600160401b03161115610d4b5760405162461bcd60e51b8152600401610a2a90614774565b806001600160401b0316886001600160401b031611610d7c5760405162461bcd60e51b8152600401610a2a906147e5565b6000610d8b8a8a8a868b610f58565b607480546001600160401b0319166001600160401b038c811691821790925560009081526075602052604090208990556079549192501615610dd857607980546001600160801b03191690555b6040516333d6247d60e01b8152600481018990527f00000000000000000000000000000000000000000000000000000000000000006001600160a01b0316906333d6247d90602401600060405180830381600087803b158015610e3a57600080fd5b505af1158015610e4e573d6000803e3d6000fd5b50506040518981523392506001600160401b038c1691507fcb339b570a7f0b25afa7333371ff11192092a0aeace12b671f4c212f2815c6fe9060200160405180910390a35050505050505050505050565b607a546001600160a01b03163314610eca57604051634755657960e01b815260040160405180910390fd5b6103e88161ffff161080610ee357506103ff8161ffff16115b15610f0157604051630984a67960e31b815260040160405180910390fd5b606f805461ffff60481b1916600160481b61ffff8416908102919091179091556040519081527f7019933d795eba185c180209e8ae8bffbaa25bcef293364687702c31f4d302c5906020015b60405180910390a150565b6001600160401b038086166000818152607260205260408082205493881682529020546060929115801590610f8b575081155b15610fa95760405163340c614f60e11b815260040160405180910390fd5b80610fc7576040516366385b5160e01b815260040160405180910390fd5b604080516001600160601b03193360601b166020820152603481019690965260548601929092526001600160c01b031960c098891b811660748701527f0000000000000000000000000000000000000000000000000000000000000000891b8116607c8701527f0000000000000000000000000000000000000000000000000000000000000000891b81166084870152608c86019490945260ac85015260cc840194909452509290931b90911660ec830152805180830360d401815260f4909201905290565b6079546001600160401b03828116600090815260786020526040812054909242926110c392600160801b90920481169116614911565b6001600160401b0316111592915050565b607a546001600160a01b031633146110ff57604051634755657960e01b815260040160405180910390fd5b62093a806001600160401b038216111561112c57604051631d06e87960e01b815260040160405180910390fd5b606f5460ff1661116c576079546001600160401b03600160c01b90910481169082161061116c5760405163401636df60e01b815260040160405180910390fd5b607980546001600160c01b0316600160c01b6001600160401b038416908102919091179091556040519081527f1f4fa24c2e4bad19a7f3ec5c5485f70d46c798461c2e684f55bbd0fc661373a190602001610f4d565b606f5460ff16156111e657604051630bc011ff60e21b815260040160405180910390fd5b6079546001600160401b03878116600090815260726020526040902060010154429261121d92600160c01b90910481169116614911565b6001600160401b0316111561124557604051638a0704d360e01b815260040160405180910390fd5b6103e86112528888614938565b6001600160401b0316111561127a57604051635acfba9d60e11b815260040160405180910390fd5b61128a888888888888888861301e565b611293866132ff565b607954600160801b90046001600160401b031660000361137657607480546001600160401b0319166001600160401b03888116918217909255600090815260756020526040902085905560795416156112f757607980546001600160801b03191690555b6040516333d6247d60e01b8152600481018690527f00000000000000000000000000000000000000000000000000000000000000006001600160a01b0316906333d6247d90602401600060405180830381600087803b15801561135957600080fd5b505af115801561136d573d6000803e3d6000fd5b50505050611427565b61137e6134f3565b607980546001600160401b031690600061139783614958565b82546001600160401b039182166101009390930a92830292820219169190911790915560408051608081018252428316815289831660208083019182528284018b8152606084018b8152607954871660009081526078909352949091209251835492518616600160401b026001600160801b03199093169516949094171781559151600183015551600290910155505b60405184815233906001600160401b038816907f9c72852172521097ba7e1482e6b44b351323df0155f97f4ea18fcec28e1f5966906020015b60405180910390a35050505050505050565b607454600160401b90046001600160a01b031633146114d557606f5460ff16156114af57604051630bc011ff60e21b815260040160405180910390fd5b6114b88161108d565b6114d557604051630674f25160e11b815260040160405180910390fd5b6114de8161358f565b50565b60768054610bb9906148c1565b600085858051906020012085858560405160200161151095949392919061497e565b60405160208183030381529060405280519060200120905095945050505050565b606f5460ff161561155557604051630bc011ff60e21b815260040160405180910390fd5b606f54600160581b90046001600160a01b03163314611587576040516311e7be1560e01b815260040160405180910390fd5b8160008190036115aa5760405163cb591a5f60e01b815260040160405180910390fd5b6103e88111156115cd57604051635acfba9d60e11b815260040160405180910390fd5b6073546001600160401b03600160401b82048116600081815260726020526040812054838516949293600160801b909304909216919082905b868110156118b45760008a8a83818110611622576116226149bd565b905060200281019061163491906149d3565b61163d906149e9565b805180516020909101206060820151919250906001600160401b03161561172c578561166881614958565b9650506000818360200151846060015160405160200161168a93929190614a75565b60408051601f1981840301815291815281516020928301206001600160401b038a166000908152607190935291205490915081146116db5760405163671ebaaf60e11b815260040160405180910390fd5b6001600160401b03808816600090815260716020526040808220919091556060850151908501519082169116101561172657604051633fbd5c3960e11b815260040160405180910390fd5b50611811565b6020820151158015906117cd575060208201516040516312bd9b1960e11b815260048101919091527f00000000000000000000000000000000000000000000000000000000000000006001600160a01b03169063257b3632906024016020604051808303816000875af11580156117a7573d6000803e3d6000fd5b505050506040513d601f19601f820116820180604052508101906117cb919061487e565b155b156117eb576040516373bd668d60e01b815260040160405180910390fd5b815151620493e01015611811576040516328a69b1f60e21b815260040160405180910390fd5b876001600160401b031682604001516001600160401b0316108061184157504282604001516001600160401b0316115b1561185f576040516375413c8b60e11b815260040160405180910390fd5b8481836020015184604001518d60405160200161188095949392919061497e565b60405160208183030381529060405280519060200120945081604001519750505080806118ac90614a98565b915050611606565b506118bf8685614911565b6073549094506001600160401b03600160c01b909104811690841611156118f95760405163c630a00d60e01b815260040160405180910390fd5b60006119058285614938565b611918906001600160401b031688614ab1565b60408051606081018252858152426001600160401b03908116602080840191825260738054600160401b9081900485168688019081528d861660008181526072909552979093209551865592516001909501805492519585166001600160801b03199384161795851684029590951790945583548c84169116179302929092179055909150828116908516146119ce576073805467ffffffffffffffff60801b1916600160801b6001600160401b038716021790555b611a193330836119dd60705490565b6119e79190614ac4565b6001600160a01b037f000000000000000000000000000000000000000000000000000000000000000016929190613728565b611a216134f3565b6040516001600160401b038616907f303446e6a8cb73c83dff421c0b1d5e5ce0719dab1bff13660fc254e58cc17fce90600090a250505050505050505050565b607a546001600160a01b03163314611a8c57604051634755657960e01b815260040160405180910390fd5b606f8054600160581b600160f81b031916600160581b6001600160a01b038416021790556040517ff54144f9611984021529f814a1cb6a41e22c58351510a0d9f7e822618abb9cc090610f4d90839061414a565b611ae8612fc4565b611af26000613799565b565b6033546001600160a01b03163314611bf9576000611b106120cd565b9050806001600160401b0316826001600160401b031611611b445760405163812a372d60e01b815260040160405180910390fd5b6073546001600160401b03600160401b90910481169083161180611b8357506001600160401b0380831660009081526072602052604090206001015416155b15611ba157604051632631700560e21b815260040160405180910390fd5b6001600160401b038083166000908152607260205260409020600101544291611bcf9162093a809116614911565b6001600160401b03161115611bf75760405163692baaad60e11b815260040160405180910390fd5b505b6114de6137eb565b606f5460ff1615611c2557604051630bc011ff60e21b815260040160405180910390fd5b611c36898989898989898989613866565b6001600160401b0386166000908152607560209081526040918290205482519081529081018690527f1f44c21118c4603cfb4e1b621dbcfa2b73efcececee2b99b620b2953d33a7010910160405180910390a1611c916137eb565b505050505050505050565b607b546001600160a01b03163314611cc75760405163d1ec4b2360e01b815260040160405180910390fd5b607b54607a80546001600160a01b0319166001600160a01b0390921691821790556040517f056dc487bbf0795d0bbb1b4f0af523a855503cff740bfb4d5475f7a90c091e8e91611d169161414a565b60405180910390a1565b611d28612fc4565b607480546001600160401b0319166001600160401b0392909216919091179055565b6000807f00000000000000000000000000000000000000000000000000000000000000006001600160a01b03166370a08231306040518263ffffffff1660e01b8152600401611d99919061414a565b602060405180830381865afa158015611db6573d6000803e3d6000fd5b505050506040513d601f19601f82011682018060405250810190611dda919061487e565b90506000611de66120cd565b6073546001600160401b03600160401b8204811691611e1691600160801b8204811691600160c01b900416614938565b611e209190614911565b611e2a9190614938565b6001600160401b0316905080600003611e465760009250505090565b611e508183614adb565b9250505090565b611e5f612fc4565b607380546001600160401b03909216600160401b0267ffffffffffffffff60401b19909216919091179055565b607a546001600160a01b03163314611eb757604051634755657960e01b815260040160405180910390fd5b62093a806001600160401b0382161115611ee457604051630cc9650760e41b815260040160405180910390fd5b606f5460ff16611f24576079546001600160401b03600160801b909104811690821610611f245760405163048a05a960e41b815260040160405180910390fd5b6079805467ffffffffffffffff60801b1916600160801b6001600160401b038416908102919091179091556040519081527fc4121f4e22c69632ebb7cf1f462be0511dc034f999b52013eddfb24aab765c7590602001610f4d565b607a546001600160a01b03163314611faa57604051634755657960e01b815260040160405180910390fd5b62015180816001600160401b03161115611fd757604051631c0cfbfd60e31b815260040160405180910390fd5b606f805468ffffffffffffffff0019166101006001600160401b038416908102919091179091556040519081527f1b023231a1ab6b5d93992f168fb44498e1a7e64cef58daff6f1c216de6a68c2890602001610f4d565b607a546001600160a01b0316331461205957604051634755657960e01b815260040160405180910390fd5b607b80546001600160a01b0319166001600160a01b0383161790556040517fa5b56b7906fd0a20e3f35120dd8343db1e12e037a6c90111c7e42885e82a1ce690610f4d90839061414a565b6120ac612fc4565b6114de816132ff565b6120bd612fc4565b60776120c98282614b3d565b5050565b6079546000906001600160401b03161561210a57506079546001600160401b03908116600090815260786020526040902054600160401b90041690565b506074546001600160401b031690565b607a546001600160a01b0316331461214557604051634755657960e01b815260040160405180910390fd5b60766121518282614b3d565b507f6b8f723a4c7a5335cafae8a598a0aa0301be1387c037dccc085b62add6448b2081604051610f4d919061400a565b600054610100900460ff16158080156121a15750600054600160ff909116105b806121bb5750303b1580156121bb575060005460ff166001145b61221e5760405162461bcd60e51b815260206004820152602e60248201527f496e697469616c697a61626c653a20636f6e747261637420697320616c72656160448201526d191e481a5b9a5d1a585b1a5e995960921b6064820152608401610a2a565b6000805460ff191660011790558015612241576000805461ff0019166101001790555b61224e6020880188614341565b607a80546001600160a01b0319166001600160a01b039290921691909117905561227e6040880160208901614341565b606f80546001600160a01b0392909216600160581b02600160581b600160f81b03199092169190911790556122b96080880160608901614341565b607480546001600160a01b0392909216600160401b02600160401b600160e01b03199092169190911790556000805260756020527ff9e3fbf150b7a0077118526f473c53cb4734f166167e2c6213e3567dd390b4ad869055607661231d8682614b3d565b50607761232a8582614b3d565b5062093a8061233f6060890160408a0161415e565b6001600160401b0316111561236757604051630cc9650760e41b815260040160405180910390fd5b612377606088016040890161415e565b607980546001600160401b0392909216600160801b0267ffffffffffffffff60801b1990921691909117905562093a806123b760a0890160808a0161415e565b6001600160401b031611156123df57604051631d06e87960e01b815260040160405180910390fd5b6123ef60a088016080890161415e565b607980546001600160c01b0316600160c01b6001600160401b039390931692909202919091179055670de0b6b3a7640000607055606f80546affffffffffffffffffff0019166a03ea00000000000007080017905561244c613b8a565b7fed7be53c9f1a96a481223b15568a5b1a475e01a74b347d6ca187c8bf0c078cd660007f000000000000000000000000000000000000000000000000000000000000000085856040516124a29493929190614c25565b60405180910390a180156124f0576000805461ff0019169055604051600181527f7f26b83ff96e1f2b6a682f133852f6798a09c465da95921460cefb38474024989060200160405180910390a15b50505050505050565b606f5460ff161561251d57604051630bc011ff60e21b815260040160405180910390fd5b8060008190036125405760405163cb591a5f60e01b815260040160405180910390fd5b6103e881111561256357604051635acfba9d60e11b815260040160405180910390fd5b6073546001600160401b03600160c01b820481169161258b918491600160801b900416614c5c565b11156125aa5760405163c630a00d60e01b815260040160405180910390fd5b6073546001600160401b03600160401b820481166000818152607260205260408120549193600160801b9004909216915b8481101561274a5760008787838181106125f7576125f76149bd565b90506020028101906126099190614c6f565b61261290614c85565b90508361261e81614958565b8251805160209182012081850151604080870151905194995091945060009361264a9386939101614a75565b60408051601f1981840301815291815281516020928301206001600160401b03891660009081526071909352912054909150811461269b5760405163671ebaaf60e11b815260040160405180910390fd5b6001600160401b0386166000908152607160205260408120556126bf600189614ab1565b84036126ff5742600084604001516126d79190614911565b6001600160401b031611156126ff5760405163c44a082160e01b815260040160405180910390fd5b84828460200151423360405160200161271c95949392919061497e565b604051602081830303815290604052805190602001209450505050808061274290614a98565b9150506125db565b506127558484614911565b607380546001600160401b034281166001600160401b03199092168217808455604080516060810182528781526020808201958652600160401b9384900485168284019081528589166000818152607290935284832093518455965160019390930180549151871686026001600160801b031990921693871693909317179091558554938916600160801b0267ffffffffffffffff60801b1993860293909316600160401b600160c01b031990941693909317919091179093559151929550917f648a61dd2438f072f5a1960939abd30f37aea80d2e94c9792ad142d3e0a490a49190a2505050505050565b607a546001600160a01b0316331461286c57604051634755657960e01b815260040160405180910390fd5b7f00000000000000000000000000000000000000000000000000000000000000006001600160a01b031663dbc169766040518163ffffffff1660e01b8152600401600060405180830381600087803b1580156128c757600080fd5b505af11580156128db573d6000803e3d6000fd5b50505050611af2613bfe565b6128ef612fc4565b604080516060810182529384526001600160401b03928316602080860191825292841685830190815295841660009081526072909352912092518355516001909201805493518216600160401b026001600160801b03199094169290911691909117919091179055565b607454600160401b90046001600160a01b0316331461298b5760405163bbcbbc0560e01b815260040160405180910390fd5b61299c898989898989898989613866565b607480546001600160401b0319166001600160401b03888116918217909255600090815260756020526040902085905560795416156129e657607980546001600160801b03191690555b6040516333d6247d60e01b8152600481018690527f00000000000000000000000000000000000000000000000000000000000000006001600160a01b0316906333d6247d90602401600060405180830381600087803b158015612a4857600080fd5b505af1158015612a5c573d6000803e3d6000fd5b5050607980546001600160c01b031661127560c71b179055505060405184815233906001600160401b038816907fcc1b5520188bf1dd3e63f98164b577c4d75c11a619ddea692112f0d1aec4cf729060200160405180910390a3505050505050505050565b606f5460ff1615612ae557604051630bc011ff60e21b815260040160405180910390fd5b6000612af060705490565b905081811115612b1357604051634732fdb560e01b815260040160405180910390fd5b620493e0831115612b37576040516328a69b1f60e21b815260040160405180910390fd5b612b6c6001600160a01b037f000000000000000000000000000000000000000000000000000000000000000016333084613728565b60007f00000000000000000000000000000000000000000000000000000000000000006001600160a01b0316633ed691ef6040518163ffffffff1660e01b8152600401602060405180830381865afa158015612bcc573d6000803e3d6000fd5b505050506040513d601f19601f82011682018060405250810190612bf0919061487e565b60738054919250600160c01b9091046001600160401b0316906018612c1483614958565b91906101000a8154816001600160401b0302191690836001600160401b03160217905550508484604051612c49929190614d00565b604051908190038120612c629183904290602001614a75565b60408051808303601f190181529181528151602092830120607354600160c01b90046001600160401b031660009081526071909352912055323303612d0657607354604080518381523360208201526060918101829052600091810191909152600160c01b9091046001600160401b0316907ff94bb37db835f1ab585ee00041849a09b12cd081d77fa15ca070757619cbc9319060800160405180910390a2612d63565b607360189054906101000a90046001600160401b03166001600160401b03167ff94bb37db835f1ab585ee00041849a09b12cd081d77fa15ca070757619cbc93182338888604051612d5a9493929190614d10565b60405180910390a25b5050505050565b607454600160401b90046001600160a01b03163314612d9c5760405163bbcbbc0560e01b815260040160405180910390fd5b612dac888888888888888861301e565b607480546001600160401b0319166001600160401b0388811691821790925560009081526075602052604090208590556079541615612df657607980546001600160801b03191690555b6040516333d6247d60e01b8152600481018690527f00000000000000000000000000000000000000000000000000000000000000006001600160a01b0316906333d6247d90602401600060405180830381600087803b158015612e5857600080fd5b505af1158015612e6c573d6000803e3d6000fd5b50506040518681523392506001600160401b03891691507fcb339b570a7f0b25afa7333371ff11192092a0aeace12b671f4c212f2815c6fe90602001611460565b607a546001600160a01b03163314612ed857604051634755657960e01b815260040160405180910390fd5b60748054600160401b600160e01b031916600160401b6001600160a01b038416021790556040517f61f8fec29495a3078e9271456f05fb0707fd4e41f7661865f80fc437d06681ca90610f4d90839061414a565b612f34612fc4565b6001600160a01b038116612f995760405162461bcd60e51b815260206004820152602660248201527f4f776e61626c653a206e6577206f776e657220697320746865207a65726f206160448201526564647265737360d01b6064820152608401610a2a565b6114de81613799565b612faa612fc4565b6001600160401b0316600090815260756020526040902055565b6033546001600160a01b03163314611af25760405162461bcd60e51b815260206004820181905260248201527f4f776e61626c653a2063616c6c6572206973206e6f7420746865206f776e65726044820152606401610a2a565b6000806130296120cd565b90506001600160401b038a16156130bf576079546001600160401b03908116908b16111561306a5760405163bb14c20560e01b815260040160405180910390fd5b6001600160401b03808b1660009081526078602052604090206002810154815490945090918b8116600160401b90920416146130b957604051632bd2e3e760e01b815260040160405180910390fd5b5061312b565b6001600160401b0389166000908152607560205260409020549150816130f8576040516324cbdcc360e11b815260040160405180910390fd5b806001600160401b0316896001600160401b0316111561312b57604051630f2b74f160e11b815260040160405180910390fd5b806001600160401b0316886001600160401b03161161315d5760405163b9b18f5760e01b815260040160405180910390fd5b600061316c8a8a8a868b610f58565b90506000600080516020614e1283398151915260028360405161318f9190614862565b602060405180830381855afa1580156131ac573d6000803e3d6000fd5b5050506040513d601f19601f820116820180604052508101906131cf919061487e565b6131d991906148ad565b6040805160208101825282815290516343753b4d60e01b81529192506001600160a01b037f000000000000000000000000000000000000000000000000000000000000000016916343753b4d91613239918b918b918b9190600401614d3b565b602060405180830381865afa158015613256573d6000803e3d6000fd5b505050506040513d601f19601f8201168201806040525081019061327a9190614da9565b613297576040516309bde33960e01b815260040160405180910390fd5b6132f1336132a5858d614938565b6001600160401b03166132b6611d4a565b6132c09190614ac4565b6001600160a01b037f0000000000000000000000000000000000000000000000000000000000000000169190613c56565b505050505050505050505050565b60006133096120cd565b9050816000806133198484614938565b606f546001600160401b03918216925060009161333c9161010090041642614ab1565b90505b846001600160401b0316846001600160401b0316146133dc576001600160401b03808516600090815260726020526040902060018101549091168210156133d057600181015461339f90600160401b90046001600160401b031686614938565b6133b2906001600160401b031685614c5c565b6001820154600160401b90046001600160401b0316955093506133d6565b506133dc565b5061333f565b60006133e88484614ab1565b90508084101561343f57838103600c81116134035780613406565b600c5b9050806103e80a81606f60099054906101000a900461ffff1661ffff160a607054028161343557613435614897565b04607055506134af565b808403600c81116134505780613453565b600c5b90506000816103e80a82606f60099054906101000a900461ffff1661ffff160a670de0b6b3a7640000028161348a5761348a614897565b04905080607054670de0b6b3a764000002816134a8576134a8614897565b0460705550505b683635c9adc5dea0000060705411156134d457683635c9adc5dea000006070556124f0565b633b9aca0060705410156124f057633b9aca0060705550505050505050565b6079546001600160401b03600160401b8204811691161115611af25760795460009061353090600160401b90046001600160401b03166001614911565b905061353b8161108d565b156114de5760795460009060029061355d9084906001600160401b0316614938565b6135679190614dcb565b6135719083614911565b905061357c8161108d565b1561358a576120c98161358f565b6120c9825b6079546001600160401b03600160401b90910481169082161115806135c257506079546001600160401b03908116908216115b156135e05760405163d086b70b60e01b815260040160405180910390fd5b6001600160401b038181166000818152607860209081526040808320805460748054600160401b928390049098166001600160401b0319909816881790556002820154878652607590945293829020929092556079805467ffffffffffffffff60401b19169390940292909217909255600182015490516333d6247d60e01b815260048101919091529091907f00000000000000000000000000000000000000000000000000000000000000006001600160a01b0316906333d6247d90602401600060405180830381600087803b1580156136ba57600080fd5b505af11580156136ce573d6000803e3d6000fd5b50505050826001600160401b0316816001600160401b03167f328d3c6c0fd6f1be0515e422f2d87e59f25922cbc2233568515a0c4bc3f8510e846002015460405161371b91815260200190565b60405180910390a3505050565b6040516001600160a01b03808516602483015283166044820152606481018290526137939085906323b872dd60e01b906084015b60408051601f198184030181529190526020810180516001600160e01b03166001600160e01b031990931692909217909152613c8b565b50505050565b603380546001600160a01b038381166001600160a01b0319831681179093556040519116919082907f8be0079c531659141344cd1fd0a4f28419497f9722a3daafe3b4186f6b6457e090600090a35050565b7f00000000000000000000000000000000000000000000000000000000000000006001600160a01b0316632072f6c56040518163ffffffff1660e01b8152600401600060405180830381600087803b15801561384657600080fd5b505af115801561385a573d6000803e3d6000fd5b50505050611af2613d5d565b60006001600160401b038a16156138fa576079546001600160401b03908116908b1611156138a75760405163bb14c20560e01b815260040160405180910390fd5b506001600160401b03808a1660009081526078602052604090206002810154815490928a8116600160401b90920416146138f457604051632bd2e3e760e01b815260040160405180910390fd5b50613962565b506001600160401b03871660009081526075602052604090205480613932576040516324cbdcc360e11b815260040160405180910390fd5b6074546001600160401b03908116908916111561396257604051630f2b74f160e11b815260040160405180910390fd5b6079546001600160401b03908116908a1611806139915750896001600160401b0316896001600160401b031611155b806139b257506079546001600160401b03600160401b9091048116908a1611155b156139d05760405163bfa7079f60e01b815260040160405180910390fd5b6001600160401b03898116600090815260786020526040902054600160401b9004811690881614613a14576040516332a2a77f60e01b815260040160405180910390fd5b6000613a23898989858a610f58565b90506000600080516020614e12833981519152600283604051613a469190614862565b602060405180830381855afa158015613a63573d6000803e3d6000fd5b5050506040513d601f19601f82011682018060405250810190613a86919061487e565b613a9091906148ad565b6040805160208101825282815290516343753b4d60e01b81529192506001600160a01b037f000000000000000000000000000000000000000000000000000000000000000016916343753b4d91613af0918a918a918a9190600401614d3b565b602060405180830381865afa158015613b0d573d6000803e3d6000fd5b505050506040513d601f19601f82011682018060405250810190613b319190614da9565b613b4e576040516309bde33960e01b815260040160405180910390fd5b6001600160401b038b166000908152607860205260409020600201548790036132f15760405163a47276bd60e01b815260040160405180910390fd5b600054610100900460ff16613bf55760405162461bcd60e51b815260206004820152602b60248201527f496e697469616c697a61626c653a20636f6e7472616374206973206e6f74206960448201526a6e697469616c697a696e6760a81b6064820152608401610a2a565b611af233613799565b606f5460ff16613c2157604051635386698160e01b815260040160405180910390fd5b606f805460ff191690556040517f1e5e34eea33501aecf2ebec9fe0e884a40804275ea7fe10b2ba084c8374308b390600090a1565b6040516001600160a01b038316602482015260448101829052613c8690849063a9059cbb60e01b9060640161375c565b505050565b6000613ce0826040518060400160405280602081526020017f5361666545524332303a206c6f772d6c6576656c2063616c6c206661696c6564815250856001600160a01b0316613db99092919063ffffffff16565b805190915015613c865780806020019051810190613cfe9190614da9565b613c865760405162461bcd60e51b815260206004820152602a60248201527f5361666545524332303a204552433230206f7065726174696f6e20646964206e6044820152691bdd081cdd58d8d9595960b21b6064820152608401610a2a565b606f5460ff1615613d8157604051630bc011ff60e21b815260040160405180910390fd5b606f805460ff191660011790556040517f2261efe5aef6fedc1fd1550b25facc9181745623049c7901287030b9ad1a549790600090a1565b6060613dc88484600085613dd0565b949350505050565b606082471015613e315760405162461bcd60e51b815260206004820152602660248201527f416464726573733a20696e73756666696369656e742062616c616e636520666f6044820152651c8818d85b1b60d21b6064820152608401610a2a565b600080866001600160a01b03168587604051613e4d9190614862565b60006040518083038185875af1925050503d8060008114613e8a576040519150601f19603f3d011682016040523d82523d6000602084013e613e8f565b606091505b5091509150613ea087838387613eab565b979650505050505050565b60608315613f1a578251600003613f13576001600160a01b0385163b613f135760405162461bcd60e51b815260206004820152601d60248201527f416464726573733a2063616c6c20746f206e6f6e2d636f6e74726163740000006044820152606401610a2a565b5081613dc8565b613dc88383815115613f2f5781518083602001fd5b8060405162461bcd60e51b8152600401610a2a919061400a565b80356001600160401b0381168114613f6057600080fd5b919050565b600080600080600060a08688031215613f7d57600080fd5b613f8686613f49565b9450613f9460208701613f49565b9350613fa260408701613f49565b94979396509394606081013594506080013592915050565b60005b83811015613fd5578181015183820152602001613fbd565b50506000910152565b60008151808452613ff6816020860160208601613fba565b601f01601f19169290920160200192915050565b60208152600061401d6020830184613fde565b9392505050565b806040810183101561403557600080fd5b92915050565b806080810183101561403557600080fd5b6000806000806000806000806101a0898b03121561406957600080fd5b61407289613f49565b975061408060208a01613f49565b965061408e60408a01613f49565b955060608901359450608089013593506140ab8a60a08b01614024565b92506140ba8a60e08b0161403b565b91506140ca8a6101608b01614024565b90509295985092959890939650565b6000602082840312156140eb57600080fd5b813561ffff8116811461401d57600080fd5b600080600080600060a0868803121561411557600080fd5b61411e86613f49565b945061412c60208701613f49565b94979496505050506040830135926060810135926080909101359150565b6001600160a01b0391909116815260200190565b60006020828403121561417057600080fd5b61401d82613f49565b634e487b7160e01b600052604160045260246000fd5b600082601f8301126141a057600080fd5b81356001600160401b03808211156141ba576141ba614179565b604051601f8301601f19908116603f011681019082821181831017156141e2576141e2614179565b816040528381528660208588010111156141fb57600080fd5b836020870160208301376000602085830101528094505050505092915050565b80356001600160a01b0381168114613f6057600080fd5b600080600080600060a0868803121561424a57600080fd5b8535945060208601356001600160401b0381111561426757600080fd5b6142738882890161418f565b9450506040860135925061428960608701613f49565b91506142976080870161421b565b90509295509295909350565b60008083601f8401126142b557600080fd5b5081356001600160401b038111156142cc57600080fd5b6020830191508360208260051b85010111156142e757600080fd5b9250929050565b60008060006040848603121561430357600080fd5b83356001600160401b0381111561431957600080fd5b614325868287016142a3565b909450925061433890506020850161421b565b90509250925092565b60006020828403121561435357600080fd5b61401d8261421b565b60008060008060008060008060006101c08a8c03121561437b57600080fd5b6143848a613f49565b985061439260208b01613f49565b97506143a060408b01613f49565b96506143ae60608b01613f49565b955060808a0135945060a08a013593506143cb8b60c08c01614024565b92506143db8b6101008c0161403b565b91506143eb8b6101808c01614024565b90509295985092959850929598565b60006020828403121561440c57600080fd5b5035919050565b60006020828403121561442557600080fd5b81356001600160401b0381111561443b57600080fd5b613dc88482850161418f565b60008083601f84011261445957600080fd5b5081356001600160401b0381111561447057600080fd5b6020830191508360208285010111156142e757600080fd5b6000806000806000808688036101208112156144a357600080fd5b60a08112156144b157600080fd5b5086955060a0870135945060c08701356001600160401b03808211156144d657600080fd5b6144e28a838b0161418f565b955060e08901359150808211156144f857600080fd5b6145048a838b0161418f565b945061010089013591508082111561451b57600080fd5b5061452889828a01614447565b979a9699509497509295939492505050565b6000806020838503121561454d57600080fd5b82356001600160401b0381111561456357600080fd5b61456f858286016142a3565b90969095509350505050565b6000806000806080858703121561459157600080fd5b61459a85613f49565b9350602085013592506145af60408601613f49565b91506145bd60608601613f49565b905092959194509250565b6000806000604084860312156145dd57600080fd5b83356001600160401b038111156145f357600080fd5b6145ff86828701614447565b909790965060209590950135949350505050565b6000806040838503121561462657600080fd5b8235915061463660208401613f49565b90509250929050565b60208082526058908201527f506f6c79676f6e5a6b45564d3a3a766572696679426174636865733a2070656e60408201527f64696e6753746174654e756d206d757374206265206c657373206f7220657175606082015277616c207468616e206c61737450656e64696e67537461746560401b608082015260a00190565b6020808252604c90820152600080516020614df283398151915260408201527f744e756d4261746368206d757374206d61746368207468652070656e64696e6760608201526b040e6e8c2e8ca40c4c2e8c6d60a31b608082015260a00190565b6020808252604390820152600080516020614df283398151915260408201527f744e756d426174636820737461746520726f6f7420646f6573206e6f742065786060820152621a5cdd60ea1b608082015260a00190565b6020808252605d90820152600080516020614df283398151915260408201527f744e756d4261746368206d757374206265206c657373206f7220657175616c2060608201527f7468616e2063757272656e744c61737456657269666965644261746368000000608082015260a00190565b60208082526057908201527f506f6c79676f6e5a6b45564d3a3a766572696679426174636865733a2066696e60408201527f616c4e65774261746368206d75737420626520626967676572207468616e20636060820152760eae4e4cadce898c2e6e8accae4d2ccd2cac884c2e8c6d604b1b608082015260a00190565b60008251614874818460208701613fba565b9190910192915050565b60006020828403121561489057600080fd5b5051919050565b634e487b7160e01b600052601260045260246000fd5b6000826148bc576148bc614897565b500690565b600181811c908216806148d557607f821691505b6020821081036148f557634e487b7160e01b600052602260045260246000fd5b50919050565b634e487b7160e01b600052601160045260246000fd5b6001600160401b03818116838216019080821115614931576149316148fb565b5092915050565b6001600160401b03828116828216039080821115614931576149316148fb565b60006001600160401b03808316818103614974576149746148fb565b6001019392505050565b9485526020850193909352604084019190915260c01b6001600160c01b0319166060808401919091521b6001600160601b0319166068820152607c0190565b634e487b7160e01b600052603260045260246000fd5b60008235607e1983360301811261487457600080fd5b6000608082360312156149fb57600080fd5b604051608081016001600160401b038282108183111715614a1e57614a1e614179565b816040528435915080821115614a3357600080fd5b50614a403682860161418f565b82525060208301356020820152614a5960408401613f49565b6040820152614a6a60608401613f49565b606082015292915050565b928352602083019190915260c01b6001600160c01b031916604082015260480190565b600060018201614aaa57614aaa6148fb565b5060010190565b81810381811115614035576140356148fb565b8082028115828204841417614035576140356148fb565b600082614aea57614aea614897565b500490565b601f821115613c8657600081815260208120601f850160051c81016020861015614b165750805b601f850160051c820191505b81811015614b3557828155600101614b22565b505050505050565b81516001600160401b03811115614b5657614b56614179565b614b6a81614b6484546148c1565b84614aef565b602080601f831160018114614b9f5760008415614b875750858301515b600019600386901b1c1916600185901b178555614b35565b600085815260208120601f198616915b82811015614bce57888601518255948401946001909101908401614baf565b5085821015614bec5787850151600019600388901b60f8161c191681555b5050505050600190811b01905550565b81835281816020850137506000828201602090810191909152601f909101601f19169091010190565b60006001600160401b03808716835280861660208401525060606040830152614c52606083018486614bfc565b9695505050505050565b80820180821115614035576140356148fb565b60008235605e1983360301811261487457600080fd5b600060608236031215614c9757600080fd5b604051606081016001600160401b038282108183111715614cba57614cba614179565b816040528435915080821115614ccf57600080fd5b50614cdc3682860161418f565b82525060208301356020820152614cf560408401613f49565b604082015292915050565b8183823760009101908152919050565b8481526001600160a01b0384166020820152606060408201819052600090614c529083018486614bfc565b61012081016040808784378083018660005b6002811015614d6a57838284379183019190830190600101614d4d565b505050808560c08501375061010082018360005b6001811015614d9d578151835260209283019290910190600101614d7e565b50505095945050505050565b600060208284031215614dbb57600080fd5b8151801515811461401d57600080fd5b60006001600160401b0380841680614de557614de5614897565b9216919091049291505056fe506f6c79676f6e5a6b45564d3a3a766572696679426174636865733a20696e6930644e72e131a029b85045b68181585d2833e84879b9709143e1f593f0000001a264697066735822122079f7d6d909f52541253d3fa1a069a303a3e3f6bf4399b9ec6ccc3cb62cce368364736f6c63430008110033",
  "linkReferences": {},
  "deployedLinkReferences": {}
}