{
  "_format": "hh-sol-artifact-1",
  "contractName": "PolygonZkEVMMock",
  "sourceName": "contracts/mocks/PolygonZkEVMMock.sol",
  "abi": [
    {
      "inputs": [
        {
          "internalType": "contract IPolygonZkEVMGlobalExitRoot",
          "name": "_globalExitRootManager",
          "type": "address"
        },
        {
          "internalType": "contract IERC20Upgradeable",
          "name": "_matic",
          "type": "address"
        },
        {
          "internalType": "contract IVerifierRollup",
          "name": "_rollupVerifier",
          "type": "address"
        },
        {
          "internalType": "contract IPolygonZkEVMBridge",
          "name": "_bridgeAddress",
          "type": "address"
        },
        {
          "internalType": "contract IHotShot",
          "name": "_hotShot",
          "type": "address"
        },
        {
          "internalType": "uint64",
          "name": "_chainID",
          "type": "uint64"
        },
        {
          "internalType": "uint64",
          "name": "_forkID",
          "type": "uint64"
        }
      ],
      "stateMutability": "nonpayable",
      "type": "constructor"
    },
    {
      "inputs": [],
      "name": "BatchAlreadyVerified",
      "type": "error"
    },
    {
      "inputs": [],
      "name": "BatchNotSequencedOrNotSequenceEnd",
      "type": "error"
    },
    {
      "inputs": [],
      "name": "ExceedMaxVerifyBatches",
      "type": "error"
    },
    {
      "inputs": [],
      "name": "FinalNumBatchBelowLastVerifiedBatch",
      "type": "error"
    },
    {
      "inputs": [],
      "name": "FinalNumBatchDoesNotMatchPendingState",
      "type": "error"
    },
    {
      "inputs": [],
      "name": "FinalPendingStateNumInvalid",
      "type": "error"
    },
    {
      "inputs": [],
      "name": "ForceBatchTimeoutNotExpired",
      "type": "error"
    },
    {
      "inputs": [],
      "name": "ForceBatchesOverflow",
      "type": "error"
    },
    {
      "inputs": [],
      "name": "ForcedDataDoesNotMatch",
      "type": "error"
    },
    {
      "inputs": [],
      "name": "GlobalExitRootNotExist",
      "type": "error"
    },
    {
      "inputs": [],
      "name": "HaltTimeoutNotExpired",
      "type": "error"
    },
    {
      "inputs": [],
      "name": "InitNumBatchAboveLastVerifiedBatch",
      "type": "error"
    },
    {
      "inputs": [],
      "name": "InitNumBatchDoesNotMatchPendingState",
      "type": "error"
    },
    {
      "inputs": [],
      "name": "InvalidProof",
      "type": "error"
    },
    {
      "inputs": [],
      "name": "InvalidRangeBatchTimeTarget",
      "type": "error"
    },
    {
      "inputs": [],
      "name": "InvalidRangeMultiplierBatchFee",
      "type": "error"
    },
    {
      "inputs": [],
      "name": "NewAccInputHashDoesNotExist",
      "type": "error"
    },
    {
      "inputs": [],
      "name": "NewPendingStateTimeoutMustBeLower",
      "type": "error"
    },
    {
      "inputs": [],
      "name": "NewTrustedAggregatorTimeoutMustBeLower",
      "type": "error"
    },
    {
      "inputs": [],
      "name": "NotEnoughMaticAmount",
      "type": "error"
    },
    {
      "inputs": [],
      "name": "OldAccInputHashDoesNotExist",
      "type": "error"
    },
    {
      "inputs": [],
      "name": "OldStateRootDoesNotExist",
      "type": "error"
    },
    {
      "inputs": [],
      "name": "OnlyAdmin",
      "type": "error"
    },
    {
      "inputs": [],
      "name": "OnlyEmergencyState",
      "type": "error"
    },
    {
      "inputs": [],
      "name": "OnlyNotEmergencyState",
      "type": "error"
    },
    {
      "inputs": [],
      "name": "OnlyPendingAdmin",
      "type": "error"
    },
    {
      "inputs": [],
      "name": "OnlyTrustedAggregator",
      "type": "error"
    },
    {
      "inputs": [],
      "name": "OnlyTrustedSequencer",
      "type": "error"
    },
    {
      "inputs": [],
      "name": "PendingStateDoesNotExist",
      "type": "error"
    },
    {
      "inputs": [],
      "name": "PendingStateInvalid",
      "type": "error"
    },
    {
      "inputs": [],
      "name": "PendingStateNotConsolidable",
      "type": "error"
    },
    {
      "inputs": [],
      "name": "PendingStateTimeoutExceedHaltAggregationTimeout",
      "type": "error"
    },
    {
      "inputs": [],
      "name": "SequenceZeroBatches",
      "type": "error"
    },
    {
      "inputs": [],
      "name": "SequencedTimestampBelowForcedTimestamp",
      "type": "error"
    },
    {
      "inputs": [],
      "name": "SequencedTimestampInvalid",
      "type": "error"
    },
    {
      "inputs": [],
      "name": "StoredRootMustBeDifferentThanNewRoot",
      "type": "error"
    },
    {
      "inputs": [],
      "name": "TransactionsLengthAboveMax",
      "type": "error"
    },
    {
      "inputs": [],
      "name": "TrustedAggregatorTimeoutExceedHaltAggregationTimeout",
      "type": "error"
    },
    {
      "inputs": [],
      "name": "TrustedAggregatorTimeoutNotExpired",
      "type": "error"
    },
    {
      "anonymous": false,
      "inputs": [
        {
          "indexed": false,
          "internalType": "address",
          "name": "newAdmin",
          "type": "address"
        }
      ],
      "name": "AcceptAdminRole",
      "type": "event"
    },
    {
      "anonymous": false,
      "inputs": [
        {
          "indexed": true,
          "internalType": "uint64",
          "name": "numBatch",
          "type": "uint64"
        },
        {
          "indexed": false,
          "internalType": "bytes32",
          "name": "stateRoot",
          "type": "bytes32"
        },
        {
          "indexed": true,
          "internalType": "uint64",
          "name": "pendingStateNum",
          "type": "uint64"
        }
      ],
      "name": "ConsolidatePendingState",
      "type": "event"
    },
    {
      "anonymous": false,
      "inputs": [],
      "name": "EmergencyStateActivated",
      "type": "event"
    },
    {
      "anonymous": false,
      "inputs": [],
      "name": "EmergencyStateDeactivated",
      "type": "event"
    },
    {
      "anonymous": false,
      "inputs": [
        {
          "indexed": true,
          "internalType": "uint64",
          "name": "forceBatchNum",
          "type": "uint64"
        },
        {
          "indexed": false,
          "internalType": "bytes32",
          "name": "lastGlobalExitRoot",
          "type": "bytes32"
        },
        {
          "indexed": false,
          "internalType": "address",
          "name": "sequencer",
          "type": "address"
        },
        {
          "indexed": false,
          "internalType": "bytes",
          "name": "transactions",
          "type": "bytes"
        }
      ],
      "name": "ForceBatch",
      "type": "event"
    },
    {
      "anonymous": false,
      "inputs": [
        {
          "indexed": false,
          "internalType": "uint8",
          "name": "version",
          "type": "uint8"
        }
      ],
      "name": "Initialized",
      "type": "event"
    },
    {
      "anonymous": false,
      "inputs": [
        {
          "indexed": true,
          "internalType": "uint64",
          "name": "numBatch",
          "type": "uint64"
        },
        {
          "indexed": false,
          "internalType": "bytes32",
          "name": "stateRoot",
          "type": "bytes32"
        },
        {
          "indexed": true,
          "internalType": "address",
          "name": "aggregator",
          "type": "address"
        }
      ],
      "name": "OverridePendingState",
      "type": "event"
    },
    {
      "anonymous": false,
      "inputs": [
        {
          "indexed": true,
          "internalType": "address",
          "name": "previousOwner",
          "type": "address"
        },
        {
          "indexed": true,
          "internalType": "address",
          "name": "newOwner",
          "type": "address"
        }
      ],
      "name": "OwnershipTransferred",
      "type": "event"
    },
    {
      "anonymous": false,
      "inputs": [
        {
          "indexed": false,
          "internalType": "bytes32",
          "name": "storedStateRoot",
          "type": "bytes32"
        },
        {
          "indexed": false,
          "internalType": "bytes32",
          "name": "provedStateRoot",
          "type": "bytes32"
        }
      ],
      "name": "ProveNonDeterministicPendingState",
      "type": "event"
    },
    {
      "anonymous": false,
      "inputs": [
        {
          "indexed": true,
          "internalType": "uint64",
          "name": "numBatch",
          "type": "uint64"
        }
      ],
      "name": "SequenceBatches",
      "type": "event"
    },
    {
      "anonymous": false,
      "inputs": [
        {
          "indexed": true,
          "internalType": "uint64",
          "name": "numBatch",
          "type": "uint64"
        }
      ],
      "name": "SequenceForceBatches",
      "type": "event"
    },
    {
      "anonymous": false,
      "inputs": [
        {
          "indexed": false,
          "internalType": "uint16",
          "name": "newMultiplierBatchFee",
          "type": "uint16"
        }
      ],
      "name": "SetMultiplierBatchFee",
      "type": "event"
    },
    {
      "anonymous": false,
      "inputs": [
        {
          "indexed": false,
          "internalType": "uint64",
          "name": "newPendingStateTimeout",
          "type": "uint64"
        }
      ],
      "name": "SetPendingStateTimeout",
      "type": "event"
    },
    {
      "anonymous": false,
      "inputs": [
        {
          "indexed": false,
          "internalType": "address",
          "name": "newTrustedAggregator",
          "type": "address"
        }
      ],
      "name": "SetTrustedAggregator",
      "type": "event"
    },
    {
      "anonymous": false,
      "inputs": [
        {
          "indexed": false,
          "internalType": "uint64",
          "name": "newTrustedAggregatorTimeout",
          "type": "uint64"
        }
      ],
      "name": "SetTrustedAggregatorTimeout",
      "type": "event"
    },
    {
      "anonymous": false,
      "inputs": [
        {
          "indexed": false,
          "internalType": "address",
          "name": "newTrustedSequencer",
          "type": "address"
        }
      ],
      "name": "SetTrustedSequencer",
      "type": "event"
    },
    {
      "anonymous": false,
      "inputs": [
        {
          "indexed": false,
          "internalType": "string",
          "name": "newTrustedSequencerURL",
          "type": "string"
        }
      ],
      "name": "SetTrustedSequencerURL",
      "type": "event"
    },
    {
      "anonymous": false,
      "inputs": [
        {
          "indexed": false,
          "internalType": "uint64",
          "name": "newVerifyBatchTimeTarget",
          "type": "uint64"
        }
      ],
      "name": "SetVerifyBatchTimeTarget",
      "type": "event"
    },
    {
      "anonymous": false,
      "inputs": [
        {
          "indexed": false,
          "internalType": "address",
          "name": "newPendingAdmin",
          "type": "address"
        }
      ],
      "name": "TransferAdminRole",
      "type": "event"
    },
    {
      "anonymous": false,
      "inputs": [
        {
          "indexed": false,
          "internalType": "uint64",
          "name": "numBatch",
          "type": "uint64"
        },
        {
          "indexed": false,
          "internalType": "uint64",
          "name": "forkID",
          "type": "uint64"
        },
        {
          "indexed": false,
          "internalType": "string",
          "name": "version",
          "type": "string"
        }
      ],
      "name": "UpdateZkEVMVersion",
      "type": "event"
    },
    {
      "anonymous": false,
      "inputs": [
        {
          "indexed": true,
          "internalType": "uint64",
          "name": "numBatch",
          "type": "uint64"
        },
        {
          "indexed": false,
          "internalType": "bytes32",
          "name": "stateRoot",
          "type": "bytes32"
        },
        {
          "indexed": true,
          "internalType": "address",
          "name": "aggregator",
          "type": "address"
        }
      ],
      "name": "VerifyBatches",
      "type": "event"
    },
    {
      "anonymous": false,
      "inputs": [
        {
          "indexed": true,
          "internalType": "uint64",
          "name": "numBatch",
          "type": "uint64"
        },
        {
          "indexed": false,
          "internalType": "bytes32",
          "name": "stateRoot",
          "type": "bytes32"
        },
        {
          "indexed": true,
          "internalType": "address",
          "name": "aggregator",
          "type": "address"
        }
      ],
      "name": "VerifyBatchesTrustedAggregator",
      "type": "event"
    },
    {
      "inputs": [],
      "name": "acceptAdminRole",
      "outputs": [],
      "stateMutability": "nonpayable",
      "type": "function"
    },
    {
      "inputs": [
        {
          "internalType": "uint64",
          "name": "sequencedBatchNum",
          "type": "uint64"
        }
      ],
      "name": "activateEmergencyState",
      "outputs": [],
      "stateMutability": "nonpayable",
      "type": "function"
    },
    {
      "inputs": [],
      "name": "admin",
      "outputs": [
        {
          "internalType": "address",
          "name": "",
          "type": "address"
        }
      ],
      "stateMutability": "view",
      "type": "function"
    },
    {
      "inputs": [],
      "name": "batchFee",
      "outputs": [
        {
          "internalType": "uint256",
          "name": "",
          "type": "uint256"
        }
      ],
      "stateMutability": "view",
      "type": "function"
    },
    {
      "inputs": [
        {
          "internalType": "uint64",
          "name": "",
          "type": "uint64"
        }
      ],
      "name": "batchNumToStateRoot",
      "outputs": [
        {
          "internalType": "bytes32",
          "name": "",
          "type": "bytes32"
        }
      ],
      "stateMutability": "view",
      "type": "function"
    },
    {
      "inputs": [],
      "name": "bridgeAddress",
      "outputs": [
        {
          "internalType": "contract IPolygonZkEVMBridge",
          "name": "",
          "type": "address"
        }
      ],
      "stateMutability": "view",
      "type": "function"
    },
    {
      "inputs": [
        {
          "internalType": "bytes32",
          "name": "currentAccInputHash",
          "type": "bytes32"
        },
        {
          "internalType": "bytes",
          "name": "transactions",
          "type": "bytes"
        },
        {
          "internalType": "bytes32",
          "name": "globalExitRoot",
          "type": "bytes32"
        },
        {
          "internalType": "uint64",
          "name": "timestamp",
          "type": "uint64"
        },
        {
          "internalType": "address",
          "name": "sequencerAddress",
          "type": "address"
        }
      ],
      "name": "calculateAccInputHash",
      "outputs": [
        {
          "internalType": "bytes32",
          "name": "",
          "type": "bytes32"
        }
      ],
      "stateMutability": "pure",
      "type": "function"
    },
    {
      "inputs": [],
      "name": "calculateRewardPerBatch",
      "outputs": [
        {
          "internalType": "uint256",
          "name": "",
          "type": "uint256"
        }
      ],
      "stateMutability": "view",
      "type": "function"
    },
    {
      "inputs": [],
      "name": "chainID",
      "outputs": [
        {
          "internalType": "uint64",
          "name": "",
          "type": "uint64"
        }
      ],
      "stateMutability": "view",
      "type": "function"
    },
    {
      "inputs": [
        {
          "internalType": "uint64",
          "name": "pendingStateNum",
          "type": "uint64"
        }
      ],
      "name": "consolidatePendingState",
      "outputs": [],
      "stateMutability": "nonpayable",
      "type": "function"
    },
    {
      "inputs": [],
      "name": "deactivateEmergencyState",
      "outputs": [],
      "stateMutability": "nonpayable",
      "type": "function"
    },
    {
      "inputs": [
        {
          "internalType": "uint64",
          "name": "",
          "type": "uint64"
        }
      ],
      "name": "forcedBatches",
      "outputs": [
        {
          "internalType": "bytes32",
          "name": "",
          "type": "bytes32"
        }
      ],
      "stateMutability": "view",
      "type": "function"
    },
    {
      "inputs": [],
      "name": "forkID",
      "outputs": [
        {
          "internalType": "uint64",
          "name": "",
          "type": "uint64"
        }
      ],
      "stateMutability": "view",
      "type": "function"
    },
    {
      "inputs": [],
      "name": "getCurrentBatchFee",
      "outputs": [
        {
          "internalType": "uint256",
          "name": "",
          "type": "uint256"
        }
      ],
      "stateMutability": "view",
      "type": "function"
    },
    {
      "inputs": [
        {
          "internalType": "uint64",
          "name": "initNumBatch",
          "type": "uint64"
        },
        {
          "internalType": "uint64",
          "name": "finalNewBatch",
          "type": "uint64"
        },
        {
          "internalType": "bytes32",
          "name": "newLocalExitRoot",
          "type": "bytes32"
        },
        {
          "internalType": "bytes32",
          "name": "oldStateRoot",
          "type": "bytes32"
        },
        {
          "internalType": "bytes32",
          "name": "newStateRoot",
          "type": "bytes32"
        }
      ],
      "name": "getInputSnarkBytes",
      "outputs": [
        {
          "internalType": "bytes",
          "name": "",
          "type": "bytes"
        }
      ],
      "stateMutability": "view",
      "type": "function"
    },
    {
      "inputs": [],
      "name": "getLastVerifiedBatch",
      "outputs": [
        {
          "internalType": "uint64",
          "name": "",
          "type": "uint64"
        }
      ],
      "stateMutability": "view",
      "type": "function"
    },
    {
      "inputs": [
        {
          "internalType": "uint64",
          "name": "pendingStateNum",
          "type": "uint64"
        },
        {
          "internalType": "uint64",
          "name": "initNumBatch",
          "type": "uint64"
        },
        {
          "internalType": "uint64",
          "name": "finalNewBatch",
          "type": "uint64"
        },
        {
          "internalType": "bytes32",
          "name": "newLocalExitRoot",
          "type": "bytes32"
        },
        {
          "internalType": "bytes32",
          "name": "newStateRoot",
          "type": "bytes32"
        }
      ],
      "name": "getNextSnarkInput",
      "outputs": [
        {
          "internalType": "uint256",
          "name": "",
          "type": "uint256"
        }
      ],
      "stateMutability": "view",
      "type": "function"
    },
    {
      "inputs": [],
      "name": "globalExitRootManager",
      "outputs": [
        {
          "internalType": "contract IPolygonZkEVMGlobalExitRoot",
          "name": "",
          "type": "address"
        }
      ],
      "stateMutability": "view",
      "type": "function"
    },
    {
      "inputs": [],
      "name": "hotShot",
      "outputs": [
        {
          "internalType": "contract IHotShot",
          "name": "",
          "type": "address"
        }
      ],
      "stateMutability": "view",
      "type": "function"
    },
    {
      "inputs": [
        {
          "components": [
            {
              "internalType": "address",
              "name": "admin",
              "type": "address"
            },
            {
              "internalType": "address",
              "name": "trustedSequencer",
              "type": "address"
            },
            {
              "internalType": "uint64",
              "name": "pendingStateTimeout",
              "type": "uint64"
            },
            {
              "internalType": "address",
              "name": "trustedAggregator",
              "type": "address"
            },
            {
              "internalType": "uint64",
              "name": "trustedAggregatorTimeout",
              "type": "uint64"
            }
          ],
          "internalType": "struct PolygonZkEVM.InitializePackedParameters",
          "name": "initializePackedParameters",
          "type": "tuple"
        },
        {
          "internalType": "bytes32",
          "name": "genesisRoot",
          "type": "bytes32"
        },
        {
          "internalType": "string",
          "name": "_trustedSequencerURL",
          "type": "string"
        },
        {
          "internalType": "string",
          "name": "_networkName",
          "type": "string"
        },
        {
          "internalType": "string",
          "name": "_version",
          "type": "string"
        }
      ],
      "name": "initialize",
      "outputs": [],
      "stateMutability": "nonpayable",
      "type": "function"
    },
    {
      "inputs": [],
      "name": "isEmergencyState",
      "outputs": [
        {
          "internalType": "bool",
          "name": "",
          "type": "bool"
        }
      ],
      "stateMutability": "view",
      "type": "function"
    },
    {
      "inputs": [
        {
          "internalType": "uint64",
          "name": "pendingStateNum",
          "type": "uint64"
        }
      ],
      "name": "isPendingStateConsolidable",
      "outputs": [
        {
          "internalType": "bool",
          "name": "",
          "type": "bool"
        }
      ],
      "stateMutability": "view",
      "type": "function"
    },
    {
      "inputs": [],
      "name": "lastBatchSequenced",
      "outputs": [
        {
          "internalType": "uint64",
          "name": "",
          "type": "uint64"
        }
      ],
      "stateMutability": "view",
      "type": "function"
    },
    {
      "inputs": [],
      "name": "lastForceBatch",
      "outputs": [
        {
          "internalType": "uint64",
          "name": "",
          "type": "uint64"
        }
      ],
      "stateMutability": "view",
      "type": "function"
    },
    {
      "inputs": [],
      "name": "lastForceBatchSequenced",
      "outputs": [
        {
          "internalType": "uint64",
          "name": "",
          "type": "uint64"
        }
      ],
      "stateMutability": "view",
      "type": "function"
    },
    {
      "inputs": [],
      "name": "lastPendingState",
      "outputs": [
        {
          "internalType": "uint64",
          "name": "",
          "type": "uint64"
        }
      ],
      "stateMutability": "view",
      "type": "function"
    },
    {
      "inputs": [],
      "name": "lastPendingStateConsolidated",
      "outputs": [
        {
          "internalType": "uint64",
          "name": "",
          "type": "uint64"
        }
      ],
      "stateMutability": "view",
      "type": "function"
    },
    {
      "inputs": [],
      "name": "lastTimestamp",
      "outputs": [
        {
          "internalType": "uint64",
          "name": "",
          "type": "uint64"
        }
      ],
      "stateMutability": "view",
      "type": "function"
    },
    {
      "inputs": [],
      "name": "lastVerifiedBatch",
      "outputs": [
        {
          "internalType": "uint64",
          "name": "",
          "type": "uint64"
        }
      ],
      "stateMutability": "view",
      "type": "function"
    },
    {
      "inputs": [],
      "name": "matic",
      "outputs": [
        {
          "internalType": "contract IERC20Upgradeable",
          "name": "",
          "type": "address"
        }
      ],
      "stateMutability": "view",
      "type": "function"
    },
    {
      "inputs": [],
      "name": "multiplierBatchFee",
      "outputs": [
        {
          "internalType": "uint16",
          "name": "",
          "type": "uint16"
        }
      ],
      "stateMutability": "view",
      "type": "function"
    },
    {
      "inputs": [],
      "name": "networkName",
      "outputs": [
        {
          "internalType": "string",
          "name": "",
          "type": "string"
        }
      ],
      "stateMutability": "view",
      "type": "function"
    },
    {
      "inputs": [
        {
          "internalType": "uint64",
          "name": "initPendingStateNum",
          "type": "uint64"
        },
        {
          "internalType": "uint64",
          "name": "finalPendingStateNum",
          "type": "uint64"
        },
        {
          "internalType": "uint64",
          "name": "initNumBatch",
          "type": "uint64"
        },
        {
          "internalType": "uint64",
          "name": "finalNewBatch",
          "type": "uint64"
        },
        {
          "internalType": "bytes32",
          "name": "newLocalExitRoot",
          "type": "bytes32"
        },
        {
          "internalType": "bytes32",
          "name": "newStateRoot",
          "type": "bytes32"
        },
        {
          "internalType": "uint256[2]",
          "name": "proofA",
          "type": "uint256[2]"
        },
        {
          "internalType": "uint256[2][2]",
          "name": "proofB",
          "type": "uint256[2][2]"
        },
        {
          "internalType": "uint256[2]",
          "name": "proofC",
          "type": "uint256[2]"
        }
      ],
      "name": "overridePendingState",
      "outputs": [],
      "stateMutability": "nonpayable",
      "type": "function"
    },
    {
      "inputs": [],
      "name": "owner",
      "outputs": [
        {
          "internalType": "address",
          "name": "",
          "type": "address"
        }
      ],
      "stateMutability": "view",
      "type": "function"
    },
    {
      "inputs": [],
      "name": "pendingAdmin",
      "outputs": [
        {
          "internalType": "address",
          "name": "",
          "type": "address"
        }
      ],
      "stateMutability": "view",
      "type": "function"
    },
    {
      "inputs": [],
      "name": "pendingStateTimeout",
      "outputs": [
        {
          "internalType": "uint64",
          "name": "",
          "type": "uint64"
        }
      ],
      "stateMutability": "view",
      "type": "function"
    },
    {
      "inputs": [
        {
          "internalType": "uint256",
          "name": "",
          "type": "uint256"
        }
      ],
      "name": "pendingStateTransitions",
      "outputs": [
        {
          "internalType": "uint64",
          "name": "timestamp",
          "type": "uint64"
        },
        {
          "internalType": "uint64",
          "name": "lastVerifiedBatch",
          "type": "uint64"
        },
        {
          "internalType": "bytes32",
          "name": "exitRoot",
          "type": "bytes32"
        },
        {
          "internalType": "bytes32",
          "name": "stateRoot",
          "type": "bytes32"
        }
      ],
      "stateMutability": "view",
      "type": "function"
    },
    {
      "inputs": [
        {
          "internalType": "uint64",
          "name": "initPendingStateNum",
          "type": "uint64"
        },
        {
          "internalType": "uint64",
          "name": "finalPendingStateNum",
          "type": "uint64"
        },
        {
          "internalType": "uint64",
          "name": "initNumBatch",
          "type": "uint64"
        },
        {
          "internalType": "uint64",
          "name": "finalNewBatch",
          "type": "uint64"
        },
        {
          "internalType": "bytes32",
          "name": "newLocalExitRoot",
          "type": "bytes32"
        },
        {
          "internalType": "bytes32",
          "name": "newStateRoot",
          "type": "bytes32"
        },
        {
          "internalType": "uint256[2]",
          "name": "proofA",
          "type": "uint256[2]"
        },
        {
          "internalType": "uint256[2][2]",
          "name": "proofB",
          "type": "uint256[2][2]"
        },
        {
          "internalType": "uint256[2]",
          "name": "proofC",
          "type": "uint256[2]"
        }
      ],
      "name": "proveNonDeterministicPendingState",
      "outputs": [],
      "stateMutability": "nonpayable",
      "type": "function"
    },
    {
      "inputs": [],
      "name": "renounceOwnership",
      "outputs": [],
      "stateMutability": "nonpayable",
      "type": "function"
    },
    {
      "inputs": [],
      "name": "rollupVerifier",
      "outputs": [
        {
          "internalType": "contract IVerifierRollup",
          "name": "",
          "type": "address"
        }
      ],
      "stateMutability": "view",
      "type": "function"
    },
    {
      "inputs": [
        {
          "internalType": "uint64",
          "name": "",
          "type": "uint64"
        }
      ],
      "name": "sequencedBatches",
      "outputs": [
        {
          "internalType": "bytes32",
          "name": "accInputHash",
          "type": "bytes32"
        },
        {
          "internalType": "uint64",
          "name": "sequencedTimestamp",
          "type": "uint64"
        },
        {
          "internalType": "uint64",
          "name": "previousLastBatchSequenced",
          "type": "uint64"
        }
      ],
      "stateMutability": "view",
      "type": "function"
    },
    {
      "inputs": [
        {
          "internalType": "uint16",
          "name": "newMultiplierBatchFee",
          "type": "uint16"
        }
      ],
      "name": "setMultiplierBatchFee",
      "outputs": [],
      "stateMutability": "nonpayable",
      "type": "function"
    },
    {
      "inputs": [
        {
          "internalType": "string",
          "name": "_networkName",
          "type": "string"
        }
      ],
      "name": "setNetworkName",
      "outputs": [],
      "stateMutability": "nonpayable",
      "type": "function"
    },
    {
      "inputs": [
        {
          "internalType": "uint64",
          "name": "newPendingStateTimeout",
          "type": "uint64"
        }
      ],
      "name": "setPendingStateTimeout",
      "outputs": [],
      "stateMutability": "nonpayable",
      "type": "function"
    },
    {
      "inputs": [
        {
          "internalType": "uint64",
          "name": "_numBatch",
          "type": "uint64"
        }
      ],
      "name": "setSequencedBatch",
      "outputs": [],
      "stateMutability": "nonpayable",
      "type": "function"
    },
    {
      "inputs": [
        {
          "internalType": "uint64",
          "name": "batchNum",
          "type": "uint64"
        },
        {
          "internalType": "bytes32",
          "name": "accInputData",
          "type": "bytes32"
        },
        {
          "internalType": "uint64",
          "name": "timestamp",
          "type": "uint64"
        },
        {
          "internalType": "uint64",
          "name": "lastPendingStateConsolidated",
          "type": "uint64"
        }
      ],
      "name": "setSequencedBatches",
      "outputs": [],
      "stateMutability": "nonpayable",
      "type": "function"
    },
    {
      "inputs": [
        {
          "internalType": "bytes32",
          "name": "newStateRoot",
          "type": "bytes32"
        },
        {
          "internalType": "uint64",
          "name": "batchNum",
          "type": "uint64"
        }
      ],
      "name": "setStateRoot",
      "outputs": [],
      "stateMutability": "nonpayable",
      "type": "function"
    },
    {
      "inputs": [
        {
          "internalType": "address",
          "name": "newTrustedAggregator",
          "type": "address"
        }
      ],
      "name": "setTrustedAggregator",
      "outputs": [],
      "stateMutability": "nonpayable",
      "type": "function"
    },
    {
      "inputs": [
        {
          "internalType": "uint64",
          "name": "newTrustedAggregatorTimeout",
          "type": "uint64"
        }
      ],
      "name": "setTrustedAggregatorTimeout",
      "outputs": [],
      "stateMutability": "nonpayable",
      "type": "function"
    },
    {
      "inputs": [
        {
          "internalType": "address",
          "name": "newTrustedSequencer",
          "type": "address"
        }
      ],
      "name": "setTrustedSequencer",
      "outputs": [],
      "stateMutability": "nonpayable",
      "type": "function"
    },
    {
      "inputs": [
        {
          "internalType": "string",
          "name": "newTrustedSequencerURL",
          "type": "string"
        }
      ],
      "name": "setTrustedSequencerURL",
      "outputs": [],
      "stateMutability": "nonpayable",
      "type": "function"
    },
    {
      "inputs": [
        {
          "internalType": "uint64",
          "name": "_numBatch",
          "type": "uint64"
        }
      ],
      "name": "setVerifiedBatch",
      "outputs": [],
      "stateMutability": "nonpayable",
      "type": "function"
    },
    {
      "inputs": [
        {
          "internalType": "uint64",
          "name": "newVerifyBatchTimeTarget",
          "type": "uint64"
        }
      ],
      "name": "setVerifyBatchTimeTarget",
      "outputs": [],
      "stateMutability": "nonpayable",
      "type": "function"
    },
    {
      "inputs": [
        {
          "internalType": "address",
          "name": "newPendingAdmin",
          "type": "address"
        }
      ],
      "name": "transferAdminRole",
      "outputs": [],
      "stateMutability": "nonpayable",
      "type": "function"
    },
    {
      "inputs": [
        {
          "internalType": "address",
          "name": "newOwner",
          "type": "address"
        }
      ],
      "name": "transferOwnership",
      "outputs": [],
      "stateMutability": "nonpayable",
      "type": "function"
    },
    {
      "inputs": [],
      "name": "trustedAggregator",
      "outputs": [
        {
          "internalType": "address",
          "name": "",
          "type": "address"
        }
      ],
      "stateMutability": "view",
      "type": "function"
    },
    {
      "inputs": [],
      "name": "trustedAggregatorTimeout",
      "outputs": [
        {
          "internalType": "uint64",
          "name": "",
          "type": "uint64"
        }
      ],
      "stateMutability": "view",
      "type": "function"
    },
    {
      "inputs": [],
      "name": "trustedSequencer",
      "outputs": [
        {
          "internalType": "address",
          "name": "",
          "type": "address"
        }
      ],
      "stateMutability": "view",
      "type": "function"
    },
    {
      "inputs": [],
      "name": "trustedSequencerURL",
      "outputs": [
        {
          "internalType": "string",
          "name": "",
          "type": "string"
        }
      ],
      "stateMutability": "view",
      "type": "function"
    },
    {
      "inputs": [
        {
          "internalType": "uint64",
          "name": "pendingStateNum",
          "type": "uint64"
        },
        {
          "internalType": "uint64",
          "name": "initNumBatch",
          "type": "uint64"
        },
        {
          "internalType": "uint64",
          "name": "finalNewBatch",
          "type": "uint64"
        },
        {
          "internalType": "bytes32",
          "name": "newLocalExitRoot",
          "type": "bytes32"
        },
        {
          "internalType": "bytes32",
          "name": "newStateRoot",
          "type": "bytes32"
        },
        {
          "internalType": "uint256[2]",
          "name": "proofA",
          "type": "uint256[2]"
        },
        {
          "internalType": "uint256[2][2]",
          "name": "proofB",
          "type": "uint256[2][2]"
        },
        {
          "internalType": "uint256[2]",
          "name": "proofC",
          "type": "uint256[2]"
        }
      ],
      "name": "trustedVerifyBatchesMock",
      "outputs": [],
      "stateMutability": "nonpayable",
      "type": "function"
    },
    {
      "inputs": [
        {
          "internalType": "uint64",
          "name": "newLastVerifiedBatch",
          "type": "uint64"
        }
      ],
      "name": "updateBatchFee",
      "outputs": [],
      "stateMutability": "nonpayable",
      "type": "function"
    },
    {
      "inputs": [],
      "name": "verifyBatchTimeTarget",
      "outputs": [
        {
          "internalType": "uint64",
          "name": "",
          "type": "uint64"
        }
      ],
      "stateMutability": "view",
      "type": "function"
    },
    {
      "inputs": [
        {
          "internalType": "uint64",
          "name": "pendingStateNum",
          "type": "uint64"
        },
        {
          "internalType": "uint64",
          "name": "initNumBatch",
          "type": "uint64"
        },
        {
          "internalType": "uint64",
          "name": "finalNewBatch",
          "type": "uint64"
        },
        {
          "internalType": "bytes32",
          "name": "newLocalExitRoot",
          "type": "bytes32"
        },
        {
          "internalType": "bytes32",
          "name": "newStateRoot",
          "type": "bytes32"
        },
        {
          "internalType": "uint256[2]",
          "name": "proofA",
          "type": "uint256[2]"
        },
        {
          "internalType": "uint256[2][2]",
          "name": "proofB",
          "type": "uint256[2][2]"
        },
        {
          "internalType": "uint256[2]",
          "name": "proofC",
          "type": "uint256[2]"
        },
        {
          "components": [
            {
              "internalType": "bytes32",
              "name": "oldAccInputHash",
              "type": "bytes32"
            },
            {
              "internalType": "bytes32",
              "name": "newAccInputHash",
              "type": "bytes32"
            },
            {
              "internalType": "bytes",
              "name": "commProof",
              "type": "bytes"
            }
          ],
          "internalType": "struct PolygonZkEVM.PackedHotShotParams",
          "name": "packedHotShotParams",
          "type": "tuple"
        }
      ],
      "name": "verifyBatches",
      "outputs": [],
      "stateMutability": "nonpayable",
      "type": "function"
    },
    {
      "inputs": [
        {
          "internalType": "uint64",
          "name": "pendingStateNum",
          "type": "uint64"
        },
        {
          "internalType": "uint64",
          "name": "initNumBatch",
          "type": "uint64"
        },
        {
          "internalType": "uint64",
          "name": "finalNewBatch",
          "type": "uint64"
        },
        {
          "internalType": "bytes32",
          "name": "newLocalExitRoot",
          "type": "bytes32"
        },
        {
          "internalType": "bytes32",
          "name": "newStateRoot",
          "type": "bytes32"
        },
        {
          "internalType": "uint256[2]",
          "name": "proofA",
          "type": "uint256[2]"
        },
        {
          "internalType": "uint256[2][2]",
          "name": "proofB",
          "type": "uint256[2][2]"
        },
        {
          "internalType": "uint256[2]",
          "name": "proofC",
          "type": "uint256[2]"
        },
        {
          "components": [
            {
              "internalType": "bytes32",
              "name": "oldAccInputHash",
              "type": "bytes32"
            },
            {
              "internalType": "bytes32",
              "name": "newAccInputHash",
              "type": "bytes32"
            },
            {
              "internalType": "bytes",
              "name": "commProof",
              "type": "bytes"
            }
          ],
          "internalType": "struct PolygonZkEVM.PackedHotShotParams",
          "name": "packedHotShotParams",
          "type": "tuple"
        }
      ],
      "name": "verifyBatchesTrustedAggregator",
      "outputs": [],
      "stateMutability": "nonpayable",
      "type": "function"
    }
  ],
  "bytecode": "0x6101606040523480156200001257600080fd5b5060405162004276380380620042768339810160408190526200003591620000ac565b6001600160a01b0396871660c05294861660805292851660a05290841660e052909216610100526001600160401b039182166101205216610140526200014f565b6001600160a01b03811681146200008c57600080fd5b50565b80516001600160401b0381168114620000a757600080fd5b919050565b600080600080600080600060e0888a031215620000c857600080fd5b8751620000d58162000076565b6020890151909750620000e88162000076565b6040890151909650620000fb8162000076565b60608901519095506200010e8162000076565b6080890151909450620001218162000076565b92506200013160a089016200008f565b91506200014160c089016200008f565b905092959891949750929550565b60805160a05160c05160e051610100516101205161014051614055620002216000396000818161064b015281816110120152818161202c01526131760152600081816107bc01528181610ff101526131550152600081816105b001528181612792015261283101526000818161076f015281816120e10152612a3e0152600081816108ed01528181610e12015281816112bf01528181611a92015281816122700152612578015260008181610989015281816129410152612d0701526000818161087e015261165e01526140556000f3fe608060405234801561001057600080fd5b50600436106103505760003560e01c80638da5cb5b116101bf578063c0ed84e0116100fa578063e11f3f181161009d578063e11f3f1814610957578063e7a7ed021461096a578063e8bf92ed14610984578063f14916d6146109ab578063f2fde38b146109be578063f851a440146109d1578063f8b823e4146109e4578063fe16564f146109ed57600080fd5b8063c0ed84e0146108b3578063c89e42df146108bb578063cfa8ed47146108ce578063d02103ca146108e8578063d2e129f91461090f578063d939b31514610922578063dbc169761461093c578063e0d174411461094457600080fd5b8063aba576f111610162578063aba576f114610791578063ada8f919146107a4578063adc879e9146107b7578063afd23cbe146107de578063b4d63f5814610806578063b4f77ea914610866578063b6b0b09714610879578063c0cad302146108a057600080fd5b80638da5cb5b146106fd57806396dc3d391461070e57806399f5634e146107215780639b796760146107295780639c9f3dfe1461073c5780639f0d039d1461074f578063a066215c14610757578063a3c573eb1461076a57600080fd5b80634a910e6a1161028f578063715018a611610232578063715018a6146106055780637215541a1461060d57806375c508b3146106205780637fcb365314610633578063831c7ead14610646578063837a47381461066d578063841b24d7146106db5780638c3d7301146106f557600080fd5b80634a910e6a146104ec5780635392c5e0146104ff578063542028d51461051f578063574f649e14610527578063590ae211146105985780636375e13c146105ab5780636b8616ce146105d25780636ff512cc146105f257600080fd5b806326782247116102f7578063267822471461042b578063298789831461044b578063383b3be814610465578063394218e914610478578063423fa8561461048b57806345605267146104a5578063458c0477146104bf5780634a1a89a7146104d257600080fd5b80630a0d9fbe146103555780630eaa86ea1461038a578063107bf28c146103ab57806310a01a72146103c057806315064c96146103d55780631816b7e5146103f257806319d8ac6114610405578063220d789914610418575b600080fd5b606f5461036d9061010090046001600160401b031681565b6040516001600160401b0390911681526020015b60405180910390f35b61039d610398366004613249565b610a00565b604051908152602001610381565b6103b3610bcf565b60405161038191906132ee565b6103d36103ce366004613330565b610c5d565b005b606f546103e29060ff1681565b6040519015158152602001610381565b6103d36104003660046133bd565b610ec3565b60735461036d906001600160401b031681565b6103b36104263660046133e1565b610f7c565b607b5461043e906001600160a01b031681565b604051610381919061342e565b60745461043e90600160401b90046001600160a01b031681565b6103e2610473366004613442565b61106a565b6103d3610486366004613442565b6110b1565b60735461036d90600160401b90046001600160401b031681565b60735461036d90600160801b90046001600160401b031681565b60795461036d906001600160401b031681565b60795461036d90600160401b90046001600160401b031681565b6103d36104fa366004613442565b61119f565b61039d61050d366004613442565b60756020526000908152604090205481565b6103b361120e565b61039d610535366004613516565b835160209485012060408051808701979097528681019190915260608087019490945260c09290921b6001600160c01b031916608086015290911b6001600160601b03191660888401528051808403607c018152609c9093019052815191012090565b6103d36105a63660046135ff565b61121b565b61043e7f000000000000000000000000000000000000000000000000000000000000000081565b61039d6105e0366004613442565b60716020526000908152604090205481565b6103d36106003660046136b7565b61136f565b6103d36113ee565b6103d361061b366004613442565b611402565b6103d361062e3660046136d2565b61150f565b60745461036d906001600160401b031681565b61036d7f000000000000000000000000000000000000000000000000000000000000000081565b6106b061067b366004613770565b6078602052600090815260409020805460018201546002909201546001600160401b0380831693600160401b90930416919084565b604080516001600160401b039586168152949093166020850152918301526060820152608001610381565b60795461036d90600160c01b90046001600160401b031681565b6103d36115aa565b6033546001600160a01b031661043e565b6103d361071c366004613442565b61162e565b61039d611659565b6103d3610737366004613442565b611766565b6103d361074a366004613442565b61179b565b60705461039d565b6103d3610765366004613442565b61188e565b61043e7f000000000000000000000000000000000000000000000000000000000000000081565b6103d361079f366004613789565b61193d565b6103d36107b23660046136b7565b611be9565b61036d7f000000000000000000000000000000000000000000000000000000000000000081565b606f546107f390600160481b900461ffff1681565b60405161ffff9091168152602001610381565b610841610814366004613442565b607260205260009081526040902080546001909101546001600160401b0380821691600160401b90041683565b604080519384526001600160401b039283166020850152911690820152606001610381565b6103d3610874366004613442565b611c5f565b61043e7f000000000000000000000000000000000000000000000000000000000000000081565b6103d36108ae366004613848565b611c70565b61036d611c88565b6103d36108c9366004613848565b611cd5565b606f5461043e90600160581b90046001600160a01b031681565b61043e7f000000000000000000000000000000000000000000000000000000000000000081565b6103d361091d366004613884565b611d3c565b60795461036d90600160801b90046001600160401b031681565b6103d36120b4565b6103d3610952366004613962565b61215a565b6103d36109653660046136d2565b6121cc565b60735461036d90600160c01b90046001600160401b031681565b61043e7f000000000000000000000000000000000000000000000000000000000000000081565b6103d36109b93660046136b7565b612327565b6103d36109cc3660046136b7565b6123a6565b607a5461043e906001600160a01b031681565b61039d60705481565b6103d36109fb3660046139af565b61241c565b6000806000610a0d611c88565b90506001600160401b03881615610aaa576079546001600160401b039081169089161115610a565760405162461bcd60e51b8152600401610a4d906139db565b60405180910390fd5b6001600160401b038089166000908152607860205260409020600281015481549094509091898116600160401b9092041614610aa45760405162461bcd60e51b8152600401610a4d90613a59565b50610b14565b6001600160401b038716600090815260756020526040902054915081610ae25760405162461bcd60e51b8152600401610a4d90613ab9565b806001600160401b0316876001600160401b03161115610b145760405162461bcd60e51b8152600401610a4d90613b10565b806001600160401b0316866001600160401b031611610b455760405162461bcd60e51b8152600401610a4d90613b81565b6000610b548888888689610f7c565b90506000600080516020614000833981519152600283604051610b779190613bfe565b602060405180830381855afa158015610b94573d6000803e3d6000fd5b5050506040513d601f19601f82011682018060405250810190610bb79190613c1a565b610bc19190613c49565b9a9950505050505050505050565b60778054610bdc90613c5d565b80601f0160208091040260200160405190810160405280929190818152602001828054610c0890613c5d565b8015610c555780601f10610c2a57610100808354040283529160200191610c55565b820191906000526020600020905b815481529060010190602001808311610c3857829003601f168201915b505050505081565b610c6561243e565b600080610c70611c88565b90506001600160401b038a1615610d04576079546001600160401b03908116908b161115610cb05760405162461bcd60e51b8152600401610a4d906139db565b6001600160401b03808b1660009081526078602052604090206002810154815490945090918b8116600160401b9092041614610cfe5760405162461bcd60e51b8152600401610a4d90613a59565b50610d6e565b6001600160401b038916600090815260756020526040902054915081610d3c5760405162461bcd60e51b8152600401610a4d90613ab9565b806001600160401b0316896001600160401b03161115610d6e5760405162461bcd60e51b8152600401610a4d90613b10565b806001600160401b0316886001600160401b031611610d9f5760405162461bcd60e51b8152600401610a4d90613b81565b6000610dae8a8a8a868b610f7c565b6074805467ffffffffffffffff19166001600160401b038c811691821790925560009081526075602052604090208990556079549192501615610dfc57607980546001600160801b03191690555b6040516333d6247d60e01b8152600481018990527f00000000000000000000000000000000000000000000000000000000000000006001600160a01b0316906333d6247d90602401600060405180830381600087803b158015610e5e57600080fd5b505af1158015610e72573d6000803e3d6000fd5b50506040518981523392506001600160401b038c1691507fcb339b570a7f0b25afa7333371ff11192092a0aeace12b671f4c212f2815c6fe9060200160405180910390a35050505050505050505050565b607a546001600160a01b03163314610eee57604051634755657960e01b815260040160405180910390fd5b6103e88161ffff161080610f0757506103ff8161ffff16115b15610f2557604051630984a67960e31b815260040160405180910390fd5b606f805461ffff60481b1916600160481b61ffff8416908102919091179091556040519081527f7019933d795eba185c180209e8ae8bffbaa25bcef293364687702c31f4d302c5906020015b60405180910390a150565b6001600160401b038086166000818152607260205260408082205493881682529020546060929115801590610faf575081155b15610fcd5760405163340c614f60e11b815260040160405180910390fd5b80610feb576040516366385b5160e01b815260040160405180910390fd5b3385838a7f00000000000000000000000000000000000000000000000000000000000000007f000000000000000000000000000000000000000000000000000000000000000089878d8f60405160200161104e9a99989796959493929190613c97565b6040516020818303038152906040529250505095945050505050565b6079546001600160401b03828116600090815260786020526040812054909242926110a092600160801b90920481169116613d1b565b6001600160401b0316111592915050565b607a546001600160a01b031633146110dc57604051634755657960e01b815260040160405180910390fd5b62093a806001600160401b038216111561110957604051631d06e87960e01b815260040160405180910390fd5b606f5460ff16611149576079546001600160401b03600160c01b9091048116908216106111495760405163401636df60e01b815260040160405180910390fd5b607980546001600160c01b0316600160c01b6001600160401b038416908102919091179091556040519081527f1f4fa24c2e4bad19a7f3ec5c5485f70d46c798461c2e684f55bbd0fc661373a190602001610f71565b607454600160401b90046001600160a01b0316331461120257606f5460ff16156111dc57604051630bc011ff60e21b815260040160405180910390fd5b6111e58161106a565b61120257604051630674f25160e11b815260040160405180910390fd5b61120b81612498565b50565b60768054610bdc90613c5d565b607454600160401b90046001600160a01b0316331461124d5760405163bbcbbc0560e01b815260040160405180910390fd5b61125e898989898989898989612632565b6074805467ffffffffffffffff19166001600160401b03898116918217909255600090815260756020526040902086905560795416156112a957607980546001600160801b03191690555b6040516333d6247d60e01b8152600481018790527f00000000000000000000000000000000000000000000000000000000000000006001600160a01b0316906333d6247d90602401600060405180830381600087803b15801561130b57600080fd5b505af115801561131f573d6000803e3d6000fd5b50506040518781523392506001600160401b038a1691507fcb339b570a7f0b25afa7333371ff11192092a0aeace12b671f4c212f2815c6fe906020015b60405180910390a3505050505050505050565b607a546001600160a01b0316331461139a57604051634755657960e01b815260040160405180910390fd5b606f8054600160581b600160f81b031916600160581b6001600160a01b038416021790556040517ff54144f9611984021529f814a1cb6a41e22c58351510a0d9f7e822618abb9cc090610f7190839061342e565b6113f661243e565b61140060006129ea565b565b6033546001600160a01b0316331461150757600061141e611c88565b9050806001600160401b0316826001600160401b0316116114525760405163812a372d60e01b815260040160405180910390fd5b6073546001600160401b03600160401b9091048116908316118061149157506001600160401b0380831660009081526072602052604090206001015416155b156114af57604051632631700560e21b815260040160405180910390fd5b6001600160401b0380831660009081526072602052604090206001015442916114dd9162093a809116613d1b565b6001600160401b031611156115055760405163692baaad60e11b815260040160405180910390fd5b505b61120b612a3c565b606f5460ff161561153357604051630bc011ff60e21b815260040160405180910390fd5b611544898989898989898989612ab7565b6001600160401b0386166000908152607560209081526040918290205482519081529081018690527f1f44c21118c4603cfb4e1b621dbcfa2b73efcececee2b99b620b2953d33a7010910160405180910390a161159f612a3c565b505050505050505050565b607b546001600160a01b031633146115d55760405163d1ec4b2360e01b815260040160405180910390fd5b607b54607a80546001600160a01b0319166001600160a01b0390921691821790556040517f056dc487bbf0795d0bbb1b4f0af523a855503cff740bfb4d5475f7a90c091e8e916116249161342e565b60405180910390a1565b61163661243e565b6074805467ffffffffffffffff19166001600160401b0392909216919091179055565b6000807f00000000000000000000000000000000000000000000000000000000000000006001600160a01b03166370a08231306040518263ffffffff1660e01b81526004016116a8919061342e565b602060405180830381865afa1580156116c5573d6000803e3d6000fd5b505050506040513d601f19601f820116820180604052508101906116e99190613c1a565b905060006116f5611c88565b6073546001600160401b03600160401b820481169161172591600160801b8204811691600160c01b900416613d42565b61172f9190613d1b565b6117399190613d42565b6001600160401b03169050806000036117555760009250505090565b61175f8183613d62565b9250505090565b61176e61243e565b607380546001600160401b03909216600160401b0267ffffffffffffffff60401b19909216919091179055565b607a546001600160a01b031633146117c657604051634755657960e01b815260040160405180910390fd5b62093a806001600160401b03821611156117f357604051630cc9650760e41b815260040160405180910390fd5b606f5460ff16611833576079546001600160401b03600160801b9091048116908216106118335760405163048a05a960e41b815260040160405180910390fd5b6079805467ffffffffffffffff60801b1916600160801b6001600160401b038416908102919091179091556040519081527fc4121f4e22c69632ebb7cf1f462be0511dc034f999b52013eddfb24aab765c7590602001610f71565b607a546001600160a01b031633146118b957604051634755657960e01b815260040160405180910390fd5b62015180816001600160401b031611156118e657604051631c0cfbfd60e31b815260040160405180910390fd5b606f805468ffffffffffffffff0019166101006001600160401b038416908102919091179091556040519081527f1b023231a1ab6b5d93992f168fb44498e1a7e64cef58daff6f1c216de6a68c2890602001610f71565b606f5460ff161561196157604051630bc011ff60e21b815260040160405180910390fd5b6079546001600160401b03888116600090815260726020526040902060010154429261199892600160c01b90910481169116613d1b565b6001600160401b031611156119c057604051638a0704d360e01b815260040160405180910390fd5b6103e86119cd8989613d42565b6001600160401b031611156119f557604051635acfba9d60e11b815260040160405180910390fd5b611a0e8989898989898989611a098a613d76565b612632565b611a1787612de9565b607954600160801b90046001600160401b0316600003611afb576074805467ffffffffffffffff19166001600160401b0389811691821790925560009081526075602052604090208690556079541615611a7c57607980546001600160801b03191690555b6040516333d6247d60e01b8152600481018790527f00000000000000000000000000000000000000000000000000000000000000006001600160a01b0316906333d6247d90602401600060405180830381600087803b158015611ade57600080fd5b505af1158015611af2573d6000803e3d6000fd5b50505050611bac565b611b03612fdd565b607980546001600160401b0316906000611b1c83613d82565b82546001600160401b039182166101009390930a9283029282021916919091179091556040805160808101825242831681528a831660208083019182528284018c8152606084018c8152607954871660009081526078909352949091209251835492518616600160401b026001600160801b03199093169516949094171781559151600183015551600290910155505b60405185815233906001600160401b038916907f9c72852172521097ba7e1482e6b44b351323df0155f97f4ea18fcec28e1f59669060200161135c565b607a546001600160a01b03163314611c1457604051634755657960e01b815260040160405180910390fd5b607b80546001600160a01b0319166001600160a01b0383161790556040517fa5b56b7906fd0a20e3f35120dd8343db1e12e037a6c90111c7e42885e82a1ce690610f7190839061342e565b611c6761243e565b61120b81612de9565b611c7861243e565b6077611c848282613df7565b5050565b6079546000906001600160401b031615611cc557506079546001600160401b03908116600090815260786020526040902054600160401b90041690565b506074546001600160401b031690565b607a546001600160a01b03163314611d0057604051634755657960e01b815260040160405180910390fd5b6076611d0c8282613df7565b507f6b8f723a4c7a5335cafae8a598a0aa0301be1387c037dccc085b62add6448b2081604051610f7191906132ee565b600054610100900460ff1615808015611d5c5750600054600160ff909116105b80611d765750303b158015611d76575060005460ff166001145b611dd95760405162461bcd60e51b815260206004820152602e60248201527f496e697469616c697a61626c653a20636f6e747261637420697320616c72656160448201526d191e481a5b9a5d1a585b1a5e995960921b6064820152608401610a4d565b6000805460ff191660011790558015611dfc576000805461ff0019166101001790555b611e0960208801886136b7565b607a80546001600160a01b0319166001600160a01b0392909216919091179055611e3960408801602089016136b7565b606f80546001600160a01b0392909216600160581b02600160581b600160f81b0319909216919091179055611e7460808801606089016136b7565b607480546001600160a01b0392909216600160401b02600160401b600160e01b03199092169190911790556000805260756020527ff9e3fbf150b7a0077118526f473c53cb4734f166167e2c6213e3567dd390b4ad8690556076611ed88682613df7565b506077611ee58582613df7565b5062093a80611efa6060890160408a01613442565b6001600160401b03161115611f2257604051630cc9650760e41b815260040160405180910390fd5b611f326060880160408901613442565b607980546001600160401b0392909216600160801b0267ffffffffffffffff60801b1990921691909117905562093a80611f7260a0890160808a01613442565b6001600160401b03161115611f9a57604051631d06e87960e01b815260040160405180910390fd5b611faa60a0880160808901613442565b607980546001600160c01b0316600160c01b6001600160401b039390931692909202919091179055670de0b6b3a7640000607055606f80546affffffffffffffffffff0019166a03ea00000000000007080017905561200761307d565b7fed7be53c9f1a96a481223b15568a5b1a475e01a74b347d6ca187c8bf0c078cd660007f0000000000000000000000000000000000000000000000000000000000000000858560405161205d9493929190613eb6565b60405180910390a180156120ab576000805461ff0019169055604051600181527f7f26b83ff96e1f2b6a682f133852f6798a09c465da95921460cefb38474024989060200160405180910390a15b50505050505050565b607a546001600160a01b031633146120df57604051634755657960e01b815260040160405180910390fd5b7f00000000000000000000000000000000000000000000000000000000000000006001600160a01b031663dbc169766040518163ffffffff1660e01b8152600401600060405180830381600087803b15801561213a57600080fd5b505af115801561214e573d6000803e3d6000fd5b505050506114006130f1565b61216261243e565b604080516060810182529384526001600160401b03928316602080860191825292841685830190815295841660009081526072909352912092518355516001909201805493518216600160401b026001600160801b03199094169290911691909117919091179055565b607454600160401b90046001600160a01b031633146121fe5760405163bbcbbc0560e01b815260040160405180910390fd5b61220f898989898989898989612ab7565b6074805467ffffffffffffffff19166001600160401b038881169182179092556000908152607560205260409020859055607954161561225a57607980546001600160801b03191690555b6040516333d6247d60e01b8152600481018690527f00000000000000000000000000000000000000000000000000000000000000006001600160a01b0316906333d6247d90602401600060405180830381600087803b1580156122bc57600080fd5b505af11580156122d0573d6000803e3d6000fd5b5050607980546001600160c01b031661127560c71b179055505060405184815233906001600160401b038816907fcc1b5520188bf1dd3e63f98164b577c4d75c11a619ddea692112f0d1aec4cf729060200161135c565b607a546001600160a01b0316331461235257604051634755657960e01b815260040160405180910390fd5b60748054600160401b600160e01b031916600160401b6001600160a01b038416021790556040517f61f8fec29495a3078e9271456f05fb0707fd4e41f7661865f80fc437d06681ca90610f7190839061342e565b6123ae61243e565b6001600160a01b0381166124135760405162461bcd60e51b815260206004820152602660248201527f4f776e61626c653a206e6577206f776e657220697320746865207a65726f206160448201526564647265737360d01b6064820152608401610a4d565b61120b816129ea565b61242461243e565b6001600160401b0316600090815260756020526040902055565b6033546001600160a01b031633146114005760405162461bcd60e51b815260206004820181905260248201527f4f776e61626c653a2063616c6c6572206973206e6f7420746865206f776e65726044820152606401610a4d565b6079546001600160401b03600160401b90910481169082161115806124cb57506079546001600160401b03908116908216115b156124e95760405163d086b70b60e01b815260040160405180910390fd5b6001600160401b038181166000818152607860209081526040808320805460748054600160401b9283900490981667ffffffffffffffff19909816881790556002820154878652607590945293829020929092556079805467ffffffffffffffff60401b19169390940292909217909255600182015490516333d6247d60e01b815260048101919091529091907f00000000000000000000000000000000000000000000000000000000000000006001600160a01b0316906333d6247d90602401600060405180830381600087803b1580156125c457600080fd5b505af11580156125d8573d6000803e3d6000fd5b50505050826001600160401b0316816001600160401b03167f328d3c6c0fd6f1be0515e422f2d87e59f25922cbc2233568515a0c4bc3f8510e846002015460405161262591815260200190565b60405180910390a3505050565b60008061263d611c88565b90506001600160401b038b16156126d3576079546001600160401b03908116908c16111561267e5760405163bb14c20560e01b815260040160405180910390fd5b6001600160401b03808c1660009081526078602052604090206002810154815490945090918c8116600160401b90920416146126cd57604051632bd2e3e760e01b815260040160405180910390fd5b5061273f565b6001600160401b038a1660009081526075602052604090205491508161270c576040516324cbdcc360e11b815260040160405180910390fd5b806001600160401b03168a6001600160401b0316111561273f57604051630f2b74f160e11b815260040160405180910390fd5b806001600160401b0316896001600160401b0316116127715760405163b9b18f5760e01b815260040160405180910390fd5b6040516349ce899760e01b81526001600160401b038b1660048201526000907f00000000000000000000000000000000000000000000000000000000000000006001600160a01b0316906349ce899790602401602060405180830381865afa1580156127e1573d6000803e3d6000fd5b505050506040513d601f19601f820116820180604052508101906128059190613c1a565b6040516349ce899760e01b81526001600160401b038c1660048201529091506000906001600160a01b037f000000000000000000000000000000000000000000000000000000000000000016906349ce899790602401602060405180830381865afa158015612878573d6000803e3d6000fd5b505050506040513d601f19601f8201168201806040525081019061289c9190613c1a565b905060006128ae858e8e8d8f8b613149565b905060006000805160206140008339815191526002836040516128d19190613bfe565b602060405180830381855afa1580156128ee573d6000803e3d6000fd5b5050506040513d601f19601f820116820180604052508101906129119190613c1a565b61291b9190613c49565b6040805160208101825282815290516343753b4d60e01b81529192506001600160a01b037f000000000000000000000000000000000000000000000000000000000000000016916343753b4d9161297b918e918e918e9190600401613f03565b602060405180830381865afa158015612998573d6000803e3d6000fd5b505050506040513d601f19601f820116820180604052508101906129bc9190613f71565b6129d9576040516309bde33960e01b815260040160405180910390fd5b505050505050505050505050505050565b603380546001600160a01b038381166001600160a01b0319831681179093556040519116919082907f8be0079c531659141344cd1fd0a4f28419497f9722a3daafe3b4186f6b6457e090600090a35050565b7f00000000000000000000000000000000000000000000000000000000000000006001600160a01b0316632072f6c56040518163ffffffff1660e01b8152600401600060405180830381600087803b158015612a9757600080fd5b505af1158015612aab573d6000803e3d6000fd5b505050506114006131d1565b60006001600160401b038a1615612b4b576079546001600160401b03908116908b161115612af85760405163bb14c20560e01b815260040160405180910390fd5b506001600160401b03808a1660009081526078602052604090206002810154815490928a8116600160401b9092041614612b4557604051632bd2e3e760e01b815260040160405180910390fd5b50612bb3565b506001600160401b03871660009081526075602052604090205480612b83576040516324cbdcc360e11b815260040160405180910390fd5b6074546001600160401b039081169089161115612bb357604051630f2b74f160e11b815260040160405180910390fd5b6079546001600160401b03908116908a161180612be25750896001600160401b0316896001600160401b031611155b80612c0357506079546001600160401b03600160401b9091048116908a1611155b15612c215760405163bfa7079f60e01b815260040160405180910390fd5b6001600160401b03898116600090815260786020526040902054600160401b9004811690881614612c65576040516332a2a77f60e01b815260040160405180910390fd5b6000612c74898989858a610f7c565b90506000600080516020614000833981519152600283604051612c979190613bfe565b602060405180830381855afa158015612cb4573d6000803e3d6000fd5b5050506040513d601f19601f82011682018060405250810190612cd79190613c1a565b612ce19190613c49565b6040805160208101825282815290516343753b4d60e01b81529192506001600160a01b037f000000000000000000000000000000000000000000000000000000000000000016916343753b4d91612d41918a918a918a9190600401613f03565b602060405180830381865afa158015612d5e573d6000803e3d6000fd5b505050506040513d601f19601f82011682018060405250810190612d829190613f71565b612d9f576040516309bde33960e01b815260040160405180910390fd5b6001600160401b038b16600090815260786020526040902060020154879003612ddb5760405163a47276bd60e01b815260040160405180910390fd5b505050505050505050505050565b6000612df3611c88565b905081600080612e038484613d42565b606f546001600160401b039182169250600091612e269161010090041642613f93565b90505b846001600160401b0316846001600160401b031614612ec6576001600160401b0380851660009081526072602052604090206001810154909116821015612eba576001810154612e8990600160401b90046001600160401b031686613d42565b612e9c906001600160401b031685613fa6565b6001820154600160401b90046001600160401b031695509350612ec0565b50612ec6565b50612e29565b6000612ed28484613f93565b905080841015612f2957838103600c8111612eed5780612ef0565b600c5b9050806103e80a81606f60099054906101000a900461ffff1661ffff160a6070540281612f1f57612f1f613c33565b0460705550612f99565b808403600c8111612f3a5780612f3d565b600c5b90506000816103e80a82606f60099054906101000a900461ffff1661ffff160a670de0b6b3a76400000281612f7457612f74613c33565b04905080607054670de0b6b3a76400000281612f9257612f92613c33565b0460705550505b683635c9adc5dea000006070541115612fbe57683635c9adc5dea000006070556120ab565b633b9aca0060705410156120ab57633b9aca0060705550505050505050565b6079546001600160401b03600160401b82048116911611156114005760795460009061301a90600160401b90046001600160401b03166001613d1b565b90506130258161106a565b1561120b576079546000906002906130479084906001600160401b0316613d42565b6130519190613fb9565b61305b9083613d1b565b90506130668161106a565b1561307457611c8481612498565b611c8482612498565b600054610100900460ff166130e85760405162461bcd60e51b815260206004820152602b60248201527f496e697469616c697a61626c653a20636f6e7472616374206973206e6f74206960448201526a6e697469616c697a696e6760a81b6064820152608401610a4d565b611400336129ea565b606f5460ff1661311457604051635386698160e01b815260040160405180910390fd5b606f805460ff191690556040517f1e5e34eea33501aecf2ebec9fe0e884a40804275ea7fe10b2ba084c8374308b390600090a1565b606033878360000151887f00000000000000000000000000000000000000000000000000000000000000007f00000000000000000000000000000000000000000000000000000000000000008988602001518a8d6040516020016131b69a99989796959493929190613c97565b60405160208183030381529060405290509695505050505050565b606f5460ff16156131f557604051630bc011ff60e21b815260040160405180910390fd5b606f805460ff191660011790556040517f2261efe5aef6fedc1fd1550b25facc9181745623049c7901287030b9ad1a549790600090a1565b80356001600160401b038116811461324457600080fd5b919050565b600080600080600060a0868803121561326157600080fd5b61326a8661322d565b94506132786020870161322d565b93506132866040870161322d565b94979396509394606081013594506080013592915050565b60005b838110156132b95781810151838201526020016132a1565b50506000910152565b600081518084526132da81602086016020860161329e565b601f01601f19169290920160200192915050565b60208152600061330160208301846132c2565b9392505050565b806040810183101561331957600080fd5b92915050565b806080810183101561331957600080fd5b6000806000806000806000806101a0898b03121561334d57600080fd5b6133568961322d565b975061336460208a0161322d565b965061337260408a0161322d565b9550606089013594506080890135935061338f8a60a08b01613308565b925061339e8a60e08b0161331f565b91506133ae8a6101608b01613308565b90509295985092959890939650565b6000602082840312156133cf57600080fd5b813561ffff8116811461330157600080fd5b600080600080600060a086880312156133f957600080fd5b6134028661322d565b94506134106020870161322d565b94979496505050506040830135926060810135926080909101359150565b6001600160a01b0391909116815260200190565b60006020828403121561345457600080fd5b6133018261322d565b634e487b7160e01b600052604160045260246000fd5b600082601f83011261348457600080fd5b81356001600160401b038082111561349e5761349e61345d565b604051601f8301601f19908116603f011681019082821181831017156134c6576134c661345d565b816040528381528660208588010111156134df57600080fd5b836020870160208301376000602085830101528094505050505092915050565b80356001600160a01b038116811461324457600080fd5b600080600080600060a0868803121561352e57600080fd5b8535945060208601356001600160401b0381111561354b57600080fd5b61355788828901613473565b9450506040860135925061356d6060870161322d565b915061357b608087016134ff565b90509295509295909350565b60006060828403121561359957600080fd5b604051606081016001600160401b0382821081831117156135bc576135bc61345d565b81604052829350843583526020850135602084015260408501359150808211156135e557600080fd5b506135f285828601613473565b6040830152505092915050565b60008060008060008060008060006101c08a8c03121561361e57600080fd5b6136278a61322d565b985061363560208b0161322d565b975061364360408b0161322d565b965060608a0135955060808a013594506136608b60a08c01613308565b935061366f8b60e08c0161331f565b925061367f8b6101608c01613308565b91506101a08a01356001600160401b0381111561369b57600080fd5b6136a78c828d01613587565b9150509295985092959850929598565b6000602082840312156136c957600080fd5b613301826134ff565b60008060008060008060008060006101c08a8c0312156136f157600080fd5b6136fa8a61322d565b985061370860208b0161322d565b975061371660408b0161322d565b965061372460608b0161322d565b955060808a0135945060a08a013593506137418b60c08c01613308565b92506137518b6101008c0161331f565b91506137618b6101808c01613308565b90509295985092959850929598565b60006020828403121561378257600080fd5b5035919050565b60008060008060008060008060006101c08a8c0312156137a857600080fd5b6137b18a61322d565b98506137bf60208b0161322d565b97506137cd60408b0161322d565b965060608a0135955060808a013594506137ea8b60a08c01613308565b93506137f98b60e08c0161331f565b92506138098b6101608c01613308565b91506101a08a01356001600160401b0381111561382557600080fd5b8a016060818d03121561383757600080fd5b809150509295985092959850929598565b60006020828403121561385a57600080fd5b81356001600160401b0381111561387057600080fd5b61387c84828501613473565b949350505050565b60008060008060008086880361012081121561389f57600080fd5b60a08112156138ad57600080fd5b5086955060a0870135945060c08701356001600160401b03808211156138d257600080fd5b6138de8a838b01613473565b955060e08901359150808211156138f457600080fd5b6139008a838b01613473565b945061010089013591508082111561391757600080fd5b818901915089601f83011261392b57600080fd5b81358181111561393a57600080fd5b8a602082850101111561394c57600080fd5b6020830194508093505050509295509295509295565b6000806000806080858703121561397857600080fd5b6139818561322d565b9350602085013592506139966040860161322d565b91506139a46060860161322d565b905092959194509250565b600080604083850312156139c257600080fd5b823591506139d26020840161322d565b90509250929050565b60208082526058908201527f506f6c79676f6e5a6b45564d3a3a766572696679426174636865733a2070656e60408201527f64696e6753746174654e756d206d757374206265206c657373206f7220657175606082015277616c207468616e206c61737450656e64696e67537461746560401b608082015260a00190565b6020808252604c90820152600080516020613fe083398151915260408201527f744e756d4261746368206d757374206d61746368207468652070656e64696e6760608201526b040e6e8c2e8ca40c4c2e8c6d60a31b608082015260a00190565b6020808252604390820152600080516020613fe083398151915260408201527f744e756d426174636820737461746520726f6f7420646f6573206e6f742065786060820152621a5cdd60ea1b608082015260a00190565b6020808252605d90820152600080516020613fe083398151915260408201527f744e756d4261746368206d757374206265206c657373206f7220657175616c2060608201527f7468616e2063757272656e744c61737456657269666965644261746368000000608082015260a00190565b60208082526057908201527f506f6c79676f6e5a6b45564d3a3a766572696679426174636865733a2066696e60408201527f616c4e65774261746368206d75737420626520626967676572207468616e20636060820152760eae4e4cadce898c2e6e8accae4d2ccd2cac884c2e8c6d604b1b608082015260a00190565b60008251613c1081846020870161329e565b9190910192915050565b600060208284031215613c2c57600080fd5b5051919050565b634e487b7160e01b600052601260045260246000fd5b600082613c5857613c58613c33565b500690565b600181811c90821680613c7157607f821691505b602082108103613c9157634e487b7160e01b600052602260045260246000fd5b50919050565b60609a909a1b6001600160601b0319168a5260148a0198909852603489019690965260c094851b6001600160c01b031990811660548a015293851b8416605c89015291841b83166064880152606c870152608c86015260ac8501929092529190911b1660cc82015260d40190565b634e487b7160e01b600052601160045260246000fd5b6001600160401b03818116838216019080821115613d3b57613d3b613d05565b5092915050565b6001600160401b03828116828216039080821115613d3b57613d3b613d05565b600082613d7157613d71613c33565b500490565b60006133193683613587565b60006001600160401b03808316818103613d9e57613d9e613d05565b6001019392505050565b601f821115613df257600081815260208120601f850160051c81016020861015613dcf5750805b601f850160051c820191505b81811015613dee57828155600101613ddb565b5050505b505050565b81516001600160401b03811115613e1057613e1061345d565b613e2481613e1e8454613c5d565b84613da8565b602080601f831160018114613e595760008415613e415750858301515b600019600386901b1c1916600185901b178555613dee565b600085815260208120601f198616915b82811015613e8857888601518255948401946001909101908401613e69565b5085821015613ea65787850151600019600388901b60f8161c191681555b5050505050600190811b01905550565b60006001600160401b03808716835280861660208401525060606040830152826060830152828460808401376000608084840101526080601f19601f850116830101905095945050505050565b61012081016040808784378083018660005b6002811015613f3257838284379183019190830190600101613f15565b505050808560c08501375061010082018360005b6001811015613f65578151835260209283019290910190600101613f46565b50505095945050505050565b600060208284031215613f8357600080fd5b8151801515811461330157600080fd5b8181038181111561331957613319613d05565b8082018082111561331957613319613d05565b60006001600160401b0380841680613fd357613fd3613c33565b9216919091049291505056fe506f6c79676f6e5a6b45564d3a3a766572696679426174636865733a20696e6930644e72e131a029b85045b68181585d2833e84879b9709143e1f593f0000001a2646970667358221220bbced696b4998af7b50b61bbb824338ed1af21cd32d804303d049ba4a51dfcc364736f6c63430008110033",
  "linkReferences": {},
  "deployedLinkReferences": {}
}