{
  "_format": "hh-sol-artifact-1",
  "contractName": "PolygonZkEVMMock",
  "sourceName": "contracts/mocks/PolygonZkEVMMock.sol",
  "abi": [
    {
      "inputs": [
        {
          "internalType": "contract IPolygonZkEVMGlobalExitRoot",
          "name": "_globalExitRootManager",
          "type": "address"
        },
        {
          "internalType": "contract IERC20Upgradeable",
          "name": "_matic",
          "type": "address"
        },
        {
          "internalType": "contract IVerifierRollup",
          "name": "_rollupVerifier",
          "type": "address"
        },
        {
          "internalType": "contract IPolygonZkEVMBridge",
          "name": "_bridgeAddress",
          "type": "address"
        },
        {
          "internalType": "contract IHotShot",
          "name": "_hotShot",
          "type": "address"
        },
        {
          "internalType": "uint64",
          "name": "_chainID",
          "type": "uint64"
        },
        {
          "internalType": "uint64",
          "name": "_forkID",
          "type": "uint64"
        }
      ],
      "stateMutability": "nonpayable",
      "type": "constructor"
    },
    {
      "inputs": [],
      "name": "BatchAlreadyVerified",
      "type": "error"
    },
    {
      "inputs": [],
      "name": "BatchNotSequencedOrNotSequenceEnd",
      "type": "error"
    },
    {
      "inputs": [],
      "name": "ExceedMaxVerifyBatches",
      "type": "error"
    },
    {
      "inputs": [],
      "name": "FinalNumBatchBelowLastVerifiedBatch",
      "type": "error"
    },
    {
      "inputs": [],
      "name": "FinalNumBatchDoesNotMatchPendingState",
      "type": "error"
    },
    {
      "inputs": [],
      "name": "FinalPendingStateNumInvalid",
      "type": "error"
    },
    {
      "inputs": [],
      "name": "ForceBatchTimeoutNotExpired",
      "type": "error"
    },
    {
      "inputs": [],
      "name": "ForceBatchesOverflow",
      "type": "error"
    },
    {
      "inputs": [],
      "name": "ForcedDataDoesNotMatch",
      "type": "error"
    },
    {
      "inputs": [],
      "name": "GlobalExitRootNotExist",
      "type": "error"
    },
    {
      "inputs": [],
      "name": "HaltTimeoutNotExpired",
      "type": "error"
    },
    {
      "inputs": [],
      "name": "InitNumBatchAboveLastVerifiedBatch",
      "type": "error"
    },
    {
      "inputs": [],
      "name": "InitNumBatchDoesNotMatchPendingState",
      "type": "error"
    },
    {
      "inputs": [],
      "name": "InvalidProof",
      "type": "error"
    },
    {
      "inputs": [],
      "name": "InvalidRangeBatchTimeTarget",
      "type": "error"
    },
    {
      "inputs": [],
      "name": "InvalidRangeMultiplierBatchFee",
      "type": "error"
    },
    {
      "inputs": [],
      "name": "NewAccInputHashDoesNotExist",
      "type": "error"
    },
    {
      "inputs": [],
      "name": "NewPendingStateTimeoutMustBeLower",
      "type": "error"
    },
    {
      "inputs": [],
      "name": "NewTrustedAggregatorTimeoutMustBeLower",
      "type": "error"
    },
    {
      "inputs": [],
      "name": "NotEnoughMaticAmount",
      "type": "error"
    },
    {
      "inputs": [],
      "name": "OldAccInputHashDoesNotExist",
      "type": "error"
    },
    {
      "inputs": [],
      "name": "OldStateRootDoesNotExist",
      "type": "error"
    },
    {
      "inputs": [],
      "name": "OnlyAdmin",
      "type": "error"
    },
    {
      "inputs": [],
      "name": "OnlyEmergencyState",
      "type": "error"
    },
    {
      "inputs": [],
      "name": "OnlyNotEmergencyState",
      "type": "error"
    },
    {
      "inputs": [],
      "name": "OnlyPendingAdmin",
      "type": "error"
    },
    {
      "inputs": [],
      "name": "OnlyTrustedAggregator",
      "type": "error"
    },
    {
      "inputs": [],
      "name": "OnlyTrustedSequencer",
      "type": "error"
    },
    {
      "inputs": [],
      "name": "PendingStateDoesNotExist",
      "type": "error"
    },
    {
      "inputs": [],
      "name": "PendingStateInvalid",
      "type": "error"
    },
    {
      "inputs": [],
      "name": "PendingStateNotConsolidable",
      "type": "error"
    },
    {
      "inputs": [],
      "name": "PendingStateTimeoutExceedHaltAggregationTimeout",
      "type": "error"
    },
    {
      "inputs": [],
      "name": "SequenceZeroBatches",
      "type": "error"
    },
    {
      "inputs": [],
      "name": "SequencedTimestampBelowForcedTimestamp",
      "type": "error"
    },
    {
      "inputs": [],
      "name": "SequencedTimestampInvalid",
      "type": "error"
    },
    {
      "inputs": [],
      "name": "StoredRootMustBeDifferentThanNewRoot",
      "type": "error"
    },
    {
      "inputs": [],
      "name": "TransactionsLengthAboveMax",
      "type": "error"
    },
    {
      "inputs": [],
      "name": "TrustedAggregatorTimeoutExceedHaltAggregationTimeout",
      "type": "error"
    },
    {
      "inputs": [],
      "name": "TrustedAggregatorTimeoutNotExpired",
      "type": "error"
    },
    {
      "anonymous": false,
      "inputs": [
        {
          "indexed": false,
          "internalType": "address",
          "name": "newAdmin",
          "type": "address"
        }
      ],
      "name": "AcceptAdminRole",
      "type": "event"
    },
    {
      "anonymous": false,
      "inputs": [
        {
          "indexed": true,
          "internalType": "uint64",
          "name": "numBatch",
          "type": "uint64"
        },
        {
          "indexed": false,
          "internalType": "bytes32",
          "name": "stateRoot",
          "type": "bytes32"
        },
        {
          "indexed": true,
          "internalType": "uint64",
          "name": "pendingStateNum",
          "type": "uint64"
        }
      ],
      "name": "ConsolidatePendingState",
      "type": "event"
    },
    {
      "anonymous": false,
      "inputs": [],
      "name": "EmergencyStateActivated",
      "type": "event"
    },
    {
      "anonymous": false,
      "inputs": [],
      "name": "EmergencyStateDeactivated",
      "type": "event"
    },
    {
      "anonymous": false,
      "inputs": [
        {
          "indexed": true,
          "internalType": "uint64",
          "name": "forceBatchNum",
          "type": "uint64"
        },
        {
          "indexed": false,
          "internalType": "bytes32",
          "name": "lastGlobalExitRoot",
          "type": "bytes32"
        },
        {
          "indexed": false,
          "internalType": "address",
          "name": "sequencer",
          "type": "address"
        },
        {
          "indexed": false,
          "internalType": "bytes",
          "name": "transactions",
          "type": "bytes"
        }
      ],
      "name": "ForceBatch",
      "type": "event"
    },
    {
      "anonymous": false,
      "inputs": [
        {
          "indexed": false,
          "internalType": "uint8",
          "name": "version",
          "type": "uint8"
        }
      ],
      "name": "Initialized",
      "type": "event"
    },
    {
      "anonymous": false,
      "inputs": [
        {
          "indexed": true,
          "internalType": "uint64",
          "name": "numBatch",
          "type": "uint64"
        },
        {
          "indexed": false,
          "internalType": "bytes32",
          "name": "stateRoot",
          "type": "bytes32"
        },
        {
          "indexed": true,
          "internalType": "address",
          "name": "aggregator",
          "type": "address"
        }
      ],
      "name": "OverridePendingState",
      "type": "event"
    },
    {
      "anonymous": false,
      "inputs": [
        {
          "indexed": true,
          "internalType": "address",
          "name": "previousOwner",
          "type": "address"
        },
        {
          "indexed": true,
          "internalType": "address",
          "name": "newOwner",
          "type": "address"
        }
      ],
      "name": "OwnershipTransferred",
      "type": "event"
    },
    {
      "anonymous": false,
      "inputs": [
        {
          "indexed": false,
          "internalType": "bytes32",
          "name": "storedStateRoot",
          "type": "bytes32"
        },
        {
          "indexed": false,
          "internalType": "bytes32",
          "name": "provedStateRoot",
          "type": "bytes32"
        }
      ],
      "name": "ProveNonDeterministicPendingState",
      "type": "event"
    },
    {
      "anonymous": false,
      "inputs": [
        {
          "indexed": true,
          "internalType": "uint64",
          "name": "numBatch",
          "type": "uint64"
        }
      ],
      "name": "SequenceBatches",
      "type": "event"
    },
    {
      "anonymous": false,
      "inputs": [
        {
          "indexed": true,
          "internalType": "uint64",
          "name": "numBatch",
          "type": "uint64"
        }
      ],
      "name": "SequenceForceBatches",
      "type": "event"
    },
    {
      "anonymous": false,
      "inputs": [
        {
          "indexed": false,
          "internalType": "uint16",
          "name": "newMultiplierBatchFee",
          "type": "uint16"
        }
      ],
      "name": "SetMultiplierBatchFee",
      "type": "event"
    },
    {
      "anonymous": false,
      "inputs": [
        {
          "indexed": false,
          "internalType": "uint64",
          "name": "newPendingStateTimeout",
          "type": "uint64"
        }
      ],
      "name": "SetPendingStateTimeout",
      "type": "event"
    },
    {
      "anonymous": false,
      "inputs": [
        {
          "indexed": false,
          "internalType": "address",
          "name": "newTrustedAggregator",
          "type": "address"
        }
      ],
      "name": "SetTrustedAggregator",
      "type": "event"
    },
    {
      "anonymous": false,
      "inputs": [
        {
          "indexed": false,
          "internalType": "uint64",
          "name": "newTrustedAggregatorTimeout",
          "type": "uint64"
        }
      ],
      "name": "SetTrustedAggregatorTimeout",
      "type": "event"
    },
    {
      "anonymous": false,
      "inputs": [
        {
          "indexed": false,
          "internalType": "address",
          "name": "newTrustedSequencer",
          "type": "address"
        }
      ],
      "name": "SetTrustedSequencer",
      "type": "event"
    },
    {
      "anonymous": false,
      "inputs": [
        {
          "indexed": false,
          "internalType": "string",
          "name": "newTrustedSequencerURL",
          "type": "string"
        }
      ],
      "name": "SetTrustedSequencerURL",
      "type": "event"
    },
    {
      "anonymous": false,
      "inputs": [
        {
          "indexed": false,
          "internalType": "uint64",
          "name": "newVerifyBatchTimeTarget",
          "type": "uint64"
        }
      ],
      "name": "SetVerifyBatchTimeTarget",
      "type": "event"
    },
    {
      "anonymous": false,
      "inputs": [
        {
          "indexed": false,
          "internalType": "address",
          "name": "newPendingAdmin",
          "type": "address"
        }
      ],
      "name": "TransferAdminRole",
      "type": "event"
    },
    {
      "anonymous": false,
      "inputs": [
        {
          "indexed": false,
          "internalType": "uint64",
          "name": "numBatch",
          "type": "uint64"
        },
        {
          "indexed": false,
          "internalType": "uint64",
          "name": "forkID",
          "type": "uint64"
        },
        {
          "indexed": false,
          "internalType": "string",
          "name": "version",
          "type": "string"
        }
      ],
      "name": "UpdateZkEVMVersion",
      "type": "event"
    },
    {
      "anonymous": false,
      "inputs": [
        {
          "indexed": true,
          "internalType": "uint64",
          "name": "numBatch",
          "type": "uint64"
        },
        {
          "indexed": false,
          "internalType": "bytes32",
          "name": "stateRoot",
          "type": "bytes32"
        },
        {
          "indexed": true,
          "internalType": "address",
          "name": "aggregator",
          "type": "address"
        }
      ],
      "name": "VerifyBatches",
      "type": "event"
    },
    {
      "anonymous": false,
      "inputs": [
        {
          "indexed": true,
          "internalType": "uint64",
          "name": "numBatch",
          "type": "uint64"
        },
        {
          "indexed": false,
          "internalType": "bytes32",
          "name": "stateRoot",
          "type": "bytes32"
        },
        {
          "indexed": true,
          "internalType": "address",
          "name": "aggregator",
          "type": "address"
        }
      ],
      "name": "VerifyBatchesTrustedAggregator",
      "type": "event"
    },
    {
      "inputs": [],
      "name": "acceptAdminRole",
      "outputs": [],
      "stateMutability": "nonpayable",
      "type": "function"
    },
    {
      "inputs": [
        {
          "internalType": "uint64",
          "name": "sequencedBatchNum",
          "type": "uint64"
        }
      ],
      "name": "activateEmergencyState",
      "outputs": [],
      "stateMutability": "nonpayable",
      "type": "function"
    },
    {
      "inputs": [],
      "name": "admin",
      "outputs": [
        {
          "internalType": "address",
          "name": "",
          "type": "address"
        }
      ],
      "stateMutability": "view",
      "type": "function"
    },
    {
      "inputs": [],
      "name": "batchFee",
      "outputs": [
        {
          "internalType": "uint256",
          "name": "",
          "type": "uint256"
        }
      ],
      "stateMutability": "view",
      "type": "function"
    },
    {
      "inputs": [
        {
          "internalType": "uint64",
          "name": "",
          "type": "uint64"
        }
      ],
      "name": "batchNumToStateRoot",
      "outputs": [
        {
          "internalType": "bytes32",
          "name": "",
          "type": "bytes32"
        }
      ],
      "stateMutability": "view",
      "type": "function"
    },
    {
      "inputs": [],
      "name": "bridgeAddress",
      "outputs": [
        {
          "internalType": "contract IPolygonZkEVMBridge",
          "name": "",
          "type": "address"
        }
      ],
      "stateMutability": "view",
      "type": "function"
    },
    {
      "inputs": [
        {
          "internalType": "bytes32",
          "name": "currentAccInputHash",
          "type": "bytes32"
        },
        {
          "internalType": "bytes",
          "name": "transactions",
          "type": "bytes"
        },
        {
          "internalType": "bytes32",
          "name": "globalExitRoot",
          "type": "bytes32"
        },
        {
          "internalType": "uint64",
          "name": "timestamp",
          "type": "uint64"
        },
        {
          "internalType": "address",
          "name": "sequencerAddress",
          "type": "address"
        }
      ],
      "name": "calculateAccInputHash",
      "outputs": [
        {
          "internalType": "bytes32",
          "name": "",
          "type": "bytes32"
        }
      ],
      "stateMutability": "pure",
      "type": "function"
    },
    {
      "inputs": [],
      "name": "calculateRewardPerBatch",
      "outputs": [
        {
          "internalType": "uint256",
          "name": "",
          "type": "uint256"
        }
      ],
      "stateMutability": "view",
      "type": "function"
    },
    {
      "inputs": [],
      "name": "chainID",
      "outputs": [
        {
          "internalType": "uint64",
          "name": "",
          "type": "uint64"
        }
      ],
      "stateMutability": "view",
      "type": "function"
    },
    {
      "inputs": [
        {
          "internalType": "uint64",
          "name": "pendingStateNum",
          "type": "uint64"
        }
      ],
      "name": "consolidatePendingState",
      "outputs": [],
      "stateMutability": "nonpayable",
      "type": "function"
    },
    {
      "inputs": [],
      "name": "deactivateEmergencyState",
      "outputs": [],
      "stateMutability": "nonpayable",
      "type": "function"
    },
    {
      "inputs": [
        {
          "internalType": "uint64",
          "name": "",
          "type": "uint64"
        }
      ],
      "name": "forcedBatches",
      "outputs": [
        {
          "internalType": "bytes32",
          "name": "",
          "type": "bytes32"
        }
      ],
      "stateMutability": "view",
      "type": "function"
    },
    {
      "inputs": [],
      "name": "forkID",
      "outputs": [
        {
          "internalType": "uint64",
          "name": "",
          "type": "uint64"
        }
      ],
      "stateMutability": "view",
      "type": "function"
    },
    {
      "inputs": [],
      "name": "getCurrentBatchFee",
      "outputs": [
        {
          "internalType": "uint256",
          "name": "",
          "type": "uint256"
        }
      ],
      "stateMutability": "view",
      "type": "function"
    },
    {
      "inputs": [
        {
          "internalType": "uint64",
          "name": "initNumBatch",
          "type": "uint64"
        },
        {
          "internalType": "uint64",
          "name": "finalNewBatch",
          "type": "uint64"
        },
        {
          "internalType": "bytes32",
          "name": "newLocalExitRoot",
          "type": "bytes32"
        },
        {
          "internalType": "bytes32",
          "name": "oldStateRoot",
          "type": "bytes32"
        },
        {
          "internalType": "bytes32",
          "name": "newStateRoot",
          "type": "bytes32"
        }
      ],
      "name": "getInputSnarkBytes",
      "outputs": [
        {
          "internalType": "bytes",
          "name": "",
          "type": "bytes"
        }
      ],
      "stateMutability": "view",
      "type": "function"
    },
    {
      "inputs": [],
      "name": "getLastVerifiedBatch",
      "outputs": [
        {
          "internalType": "uint64",
          "name": "",
          "type": "uint64"
        }
      ],
      "stateMutability": "view",
      "type": "function"
    },
    {
      "inputs": [
        {
          "internalType": "uint64",
          "name": "pendingStateNum",
          "type": "uint64"
        },
        {
          "internalType": "uint64",
          "name": "initNumBatch",
          "type": "uint64"
        },
        {
          "internalType": "uint64",
          "name": "finalNewBatch",
          "type": "uint64"
        },
        {
          "internalType": "bytes32",
          "name": "newLocalExitRoot",
          "type": "bytes32"
        },
        {
          "internalType": "bytes32",
          "name": "newStateRoot",
          "type": "bytes32"
        }
      ],
      "name": "getNextSnarkInput",
      "outputs": [
        {
          "internalType": "uint256",
          "name": "",
          "type": "uint256"
        }
      ],
      "stateMutability": "view",
      "type": "function"
    },
    {
      "inputs": [],
      "name": "globalExitRootManager",
      "outputs": [
        {
          "internalType": "contract IPolygonZkEVMGlobalExitRoot",
          "name": "",
          "type": "address"
        }
      ],
      "stateMutability": "view",
      "type": "function"
    },
    {
      "inputs": [],
      "name": "hotShot",
      "outputs": [
        {
          "internalType": "contract IHotShot",
          "name": "",
          "type": "address"
        }
      ],
      "stateMutability": "view",
      "type": "function"
    },
    {
      "inputs": [
        {
          "components": [
            {
              "internalType": "address",
              "name": "admin",
              "type": "address"
            },
            {
              "internalType": "address",
              "name": "trustedSequencer",
              "type": "address"
            },
            {
              "internalType": "uint64",
              "name": "pendingStateTimeout",
              "type": "uint64"
            },
            {
              "internalType": "address",
              "name": "trustedAggregator",
              "type": "address"
            },
            {
              "internalType": "uint64",
              "name": "trustedAggregatorTimeout",
              "type": "uint64"
            }
          ],
          "internalType": "struct PolygonZkEVM.InitializePackedParameters",
          "name": "initializePackedParameters",
          "type": "tuple"
        },
        {
          "internalType": "bytes32",
          "name": "genesisRoot",
          "type": "bytes32"
        },
        {
          "internalType": "string",
          "name": "_trustedSequencerURL",
          "type": "string"
        },
        {
          "internalType": "string",
          "name": "_networkName",
          "type": "string"
        },
        {
          "internalType": "string",
          "name": "_version",
          "type": "string"
        }
      ],
      "name": "initialize",
      "outputs": [],
      "stateMutability": "nonpayable",
      "type": "function"
    },
    {
      "inputs": [],
      "name": "isEmergencyState",
      "outputs": [
        {
          "internalType": "bool",
          "name": "",
          "type": "bool"
        }
      ],
      "stateMutability": "view",
      "type": "function"
    },
    {
      "inputs": [
        {
          "internalType": "uint64",
          "name": "pendingStateNum",
          "type": "uint64"
        }
      ],
      "name": "isPendingStateConsolidable",
      "outputs": [
        {
          "internalType": "bool",
          "name": "",
          "type": "bool"
        }
      ],
      "stateMutability": "view",
      "type": "function"
    },
    {
      "inputs": [],
      "name": "lastBatchSequenced",
      "outputs": [
        {
          "internalType": "uint64",
          "name": "",
          "type": "uint64"
        }
      ],
      "stateMutability": "view",
      "type": "function"
    },
    {
      "inputs": [],
      "name": "lastForceBatch",
      "outputs": [
        {
          "internalType": "uint64",
          "name": "",
          "type": "uint64"
        }
      ],
      "stateMutability": "view",
      "type": "function"
    },
    {
      "inputs": [],
      "name": "lastForceBatchSequenced",
      "outputs": [
        {
          "internalType": "uint64",
          "name": "",
          "type": "uint64"
        }
      ],
      "stateMutability": "view",
      "type": "function"
    },
    {
      "inputs": [],
      "name": "lastPendingState",
      "outputs": [
        {
          "internalType": "uint64",
          "name": "",
          "type": "uint64"
        }
      ],
      "stateMutability": "view",
      "type": "function"
    },
    {
      "inputs": [],
      "name": "lastPendingStateConsolidated",
      "outputs": [
        {
          "internalType": "uint64",
          "name": "",
          "type": "uint64"
        }
      ],
      "stateMutability": "view",
      "type": "function"
    },
    {
      "inputs": [],
      "name": "lastTimestamp",
      "outputs": [
        {
          "internalType": "uint64",
          "name": "",
          "type": "uint64"
        }
      ],
      "stateMutability": "view",
      "type": "function"
    },
    {
      "inputs": [],
      "name": "lastVerifiedBatch",
      "outputs": [
        {
          "internalType": "uint64",
          "name": "",
          "type": "uint64"
        }
      ],
      "stateMutability": "view",
      "type": "function"
    },
    {
      "inputs": [],
      "name": "matic",
      "outputs": [
        {
          "internalType": "contract IERC20Upgradeable",
          "name": "",
          "type": "address"
        }
      ],
      "stateMutability": "view",
      "type": "function"
    },
    {
      "inputs": [],
      "name": "multiplierBatchFee",
      "outputs": [
        {
          "internalType": "uint16",
          "name": "",
          "type": "uint16"
        }
      ],
      "stateMutability": "view",
      "type": "function"
    },
    {
      "inputs": [],
      "name": "networkName",
      "outputs": [
        {
          "internalType": "string",
          "name": "",
          "type": "string"
        }
      ],
      "stateMutability": "view",
      "type": "function"
    },
    {
      "inputs": [
        {
          "internalType": "uint64",
          "name": "initPendingStateNum",
          "type": "uint64"
        },
        {
          "internalType": "uint64",
          "name": "finalPendingStateNum",
          "type": "uint64"
        },
        {
          "internalType": "uint64",
          "name": "initNumBatch",
          "type": "uint64"
        },
        {
          "internalType": "uint64",
          "name": "finalNewBatch",
          "type": "uint64"
        },
        {
          "internalType": "bytes32",
          "name": "newLocalExitRoot",
          "type": "bytes32"
        },
        {
          "internalType": "bytes32",
          "name": "newStateRoot",
          "type": "bytes32"
        },
        {
          "internalType": "uint256[2]",
          "name": "proofA",
          "type": "uint256[2]"
        },
        {
          "internalType": "uint256[2][2]",
          "name": "proofB",
          "type": "uint256[2][2]"
        },
        {
          "internalType": "uint256[2]",
          "name": "proofC",
          "type": "uint256[2]"
        }
      ],
      "name": "overridePendingState",
      "outputs": [],
      "stateMutability": "nonpayable",
      "type": "function"
    },
    {
      "inputs": [],
      "name": "owner",
      "outputs": [
        {
          "internalType": "address",
          "name": "",
          "type": "address"
        }
      ],
      "stateMutability": "view",
      "type": "function"
    },
    {
      "inputs": [],
      "name": "pendingAdmin",
      "outputs": [
        {
          "internalType": "address",
          "name": "",
          "type": "address"
        }
      ],
      "stateMutability": "view",
      "type": "function"
    },
    {
      "inputs": [],
      "name": "pendingStateTimeout",
      "outputs": [
        {
          "internalType": "uint64",
          "name": "",
          "type": "uint64"
        }
      ],
      "stateMutability": "view",
      "type": "function"
    },
    {
      "inputs": [
        {
          "internalType": "uint256",
          "name": "",
          "type": "uint256"
        }
      ],
      "name": "pendingStateTransitions",
      "outputs": [
        {
          "internalType": "uint64",
          "name": "timestamp",
          "type": "uint64"
        },
        {
          "internalType": "uint64",
          "name": "lastVerifiedBatch",
          "type": "uint64"
        },
        {
          "internalType": "bytes32",
          "name": "exitRoot",
          "type": "bytes32"
        },
        {
          "internalType": "bytes32",
          "name": "stateRoot",
          "type": "bytes32"
        }
      ],
      "stateMutability": "view",
      "type": "function"
    },
    {
      "inputs": [
        {
          "internalType": "uint64",
          "name": "initPendingStateNum",
          "type": "uint64"
        },
        {
          "internalType": "uint64",
          "name": "finalPendingStateNum",
          "type": "uint64"
        },
        {
          "internalType": "uint64",
          "name": "initNumBatch",
          "type": "uint64"
        },
        {
          "internalType": "uint64",
          "name": "finalNewBatch",
          "type": "uint64"
        },
        {
          "internalType": "bytes32",
          "name": "newLocalExitRoot",
          "type": "bytes32"
        },
        {
          "internalType": "bytes32",
          "name": "newStateRoot",
          "type": "bytes32"
        },
        {
          "internalType": "uint256[2]",
          "name": "proofA",
          "type": "uint256[2]"
        },
        {
          "internalType": "uint256[2][2]",
          "name": "proofB",
          "type": "uint256[2][2]"
        },
        {
          "internalType": "uint256[2]",
          "name": "proofC",
          "type": "uint256[2]"
        }
      ],
      "name": "proveNonDeterministicPendingState",
      "outputs": [],
      "stateMutability": "nonpayable",
      "type": "function"
    },
    {
      "inputs": [],
      "name": "renounceOwnership",
      "outputs": [],
      "stateMutability": "nonpayable",
      "type": "function"
    },
    {
      "inputs": [],
      "name": "rollupVerifier",
      "outputs": [
        {
          "internalType": "contract IVerifierRollup",
          "name": "",
          "type": "address"
        }
      ],
      "stateMutability": "view",
      "type": "function"
    },
    {
      "inputs": [
        {
          "internalType": "uint64",
          "name": "",
          "type": "uint64"
        }
      ],
      "name": "sequencedBatches",
      "outputs": [
        {
          "internalType": "bytes32",
          "name": "accInputHash",
          "type": "bytes32"
        },
        {
          "internalType": "uint64",
          "name": "sequencedTimestamp",
          "type": "uint64"
        },
        {
          "internalType": "uint64",
          "name": "previousLastBatchSequenced",
          "type": "uint64"
        }
      ],
      "stateMutability": "view",
      "type": "function"
    },
    {
      "inputs": [
        {
          "internalType": "uint16",
          "name": "newMultiplierBatchFee",
          "type": "uint16"
        }
      ],
      "name": "setMultiplierBatchFee",
      "outputs": [],
      "stateMutability": "nonpayable",
      "type": "function"
    },
    {
      "inputs": [
        {
          "internalType": "string",
          "name": "_networkName",
          "type": "string"
        }
      ],
      "name": "setNetworkName",
      "outputs": [],
      "stateMutability": "nonpayable",
      "type": "function"
    },
    {
      "inputs": [
        {
          "internalType": "uint64",
          "name": "newPendingStateTimeout",
          "type": "uint64"
        }
      ],
      "name": "setPendingStateTimeout",
      "outputs": [],
      "stateMutability": "nonpayable",
      "type": "function"
    },
    {
      "inputs": [
        {
          "internalType": "uint64",
          "name": "_numBatch",
          "type": "uint64"
        }
      ],
      "name": "setSequencedBatch",
      "outputs": [],
      "stateMutability": "nonpayable",
      "type": "function"
    },
    {
      "inputs": [
        {
          "internalType": "uint64",
          "name": "batchNum",
          "type": "uint64"
        },
        {
          "internalType": "bytes32",
          "name": "accInputData",
          "type": "bytes32"
        },
        {
          "internalType": "uint64",
          "name": "timestamp",
          "type": "uint64"
        },
        {
          "internalType": "uint64",
          "name": "lastPendingStateConsolidated",
          "type": "uint64"
        }
      ],
      "name": "setSequencedBatches",
      "outputs": [],
      "stateMutability": "nonpayable",
      "type": "function"
    },
    {
      "inputs": [
        {
          "internalType": "bytes32",
          "name": "newStateRoot",
          "type": "bytes32"
        },
        {
          "internalType": "uint64",
          "name": "batchNum",
          "type": "uint64"
        }
      ],
      "name": "setStateRoot",
      "outputs": [],
      "stateMutability": "nonpayable",
      "type": "function"
    },
    {
      "inputs": [
        {
          "internalType": "address",
          "name": "newTrustedAggregator",
          "type": "address"
        }
      ],
      "name": "setTrustedAggregator",
      "outputs": [],
      "stateMutability": "nonpayable",
      "type": "function"
    },
    {
      "inputs": [
        {
          "internalType": "uint64",
          "name": "newTrustedAggregatorTimeout",
          "type": "uint64"
        }
      ],
      "name": "setTrustedAggregatorTimeout",
      "outputs": [],
      "stateMutability": "nonpayable",
      "type": "function"
    },
    {
      "inputs": [
        {
          "internalType": "address",
          "name": "newTrustedSequencer",
          "type": "address"
        }
      ],
      "name": "setTrustedSequencer",
      "outputs": [],
      "stateMutability": "nonpayable",
      "type": "function"
    },
    {
      "inputs": [
        {
          "internalType": "string",
          "name": "newTrustedSequencerURL",
          "type": "string"
        }
      ],
      "name": "setTrustedSequencerURL",
      "outputs": [],
      "stateMutability": "nonpayable",
      "type": "function"
    },
    {
      "inputs": [
        {
          "internalType": "uint64",
          "name": "_numBatch",
          "type": "uint64"
        }
      ],
      "name": "setVerifiedBatch",
      "outputs": [],
      "stateMutability": "nonpayable",
      "type": "function"
    },
    {
      "inputs": [
        {
          "internalType": "uint64",
          "name": "newVerifyBatchTimeTarget",
          "type": "uint64"
        }
      ],
      "name": "setVerifyBatchTimeTarget",
      "outputs": [],
      "stateMutability": "nonpayable",
      "type": "function"
    },
    {
      "inputs": [
        {
          "internalType": "address",
          "name": "newPendingAdmin",
          "type": "address"
        }
      ],
      "name": "transferAdminRole",
      "outputs": [],
      "stateMutability": "nonpayable",
      "type": "function"
    },
    {
      "inputs": [
        {
          "internalType": "address",
          "name": "newOwner",
          "type": "address"
        }
      ],
      "name": "transferOwnership",
      "outputs": [],
      "stateMutability": "nonpayable",
      "type": "function"
    },
    {
      "inputs": [],
      "name": "trustedAggregator",
      "outputs": [
        {
          "internalType": "address",
          "name": "",
          "type": "address"
        }
      ],
      "stateMutability": "view",
      "type": "function"
    },
    {
      "inputs": [],
      "name": "trustedAggregatorTimeout",
      "outputs": [
        {
          "internalType": "uint64",
          "name": "",
          "type": "uint64"
        }
      ],
      "stateMutability": "view",
      "type": "function"
    },
    {
      "inputs": [],
      "name": "trustedSequencer",
      "outputs": [
        {
          "internalType": "address",
          "name": "",
          "type": "address"
        }
      ],
      "stateMutability": "view",
      "type": "function"
    },
    {
      "inputs": [],
      "name": "trustedSequencerURL",
      "outputs": [
        {
          "internalType": "string",
          "name": "",
          "type": "string"
        }
      ],
      "stateMutability": "view",
      "type": "function"
    },
    {
      "inputs": [
        {
          "internalType": "uint64",
          "name": "pendingStateNum",
          "type": "uint64"
        },
        {
          "internalType": "uint64",
          "name": "initNumBatch",
          "type": "uint64"
        },
        {
          "internalType": "uint64",
          "name": "finalNewBatch",
          "type": "uint64"
        },
        {
          "internalType": "bytes32",
          "name": "newLocalExitRoot",
          "type": "bytes32"
        },
        {
          "internalType": "bytes32",
          "name": "newStateRoot",
          "type": "bytes32"
        },
        {
          "internalType": "uint256[2]",
          "name": "proofA",
          "type": "uint256[2]"
        },
        {
          "internalType": "uint256[2][2]",
          "name": "proofB",
          "type": "uint256[2][2]"
        },
        {
          "internalType": "uint256[2]",
          "name": "proofC",
          "type": "uint256[2]"
        }
      ],
      "name": "trustedVerifyBatchesMock",
      "outputs": [],
      "stateMutability": "nonpayable",
      "type": "function"
    },
    {
      "inputs": [
        {
          "internalType": "uint64",
          "name": "newLastVerifiedBatch",
          "type": "uint64"
        }
      ],
      "name": "updateBatchFee",
      "outputs": [],
      "stateMutability": "nonpayable",
      "type": "function"
    },
    {
      "inputs": [],
      "name": "verifyBatchTimeTarget",
      "outputs": [
        {
          "internalType": "uint64",
          "name": "",
          "type": "uint64"
        }
      ],
      "stateMutability": "view",
      "type": "function"
    },
    {
      "inputs": [
        {
          "components": [
            {
              "internalType": "uint64",
              "name": "pendingStateNum",
              "type": "uint64"
            },
            {
              "internalType": "uint64",
              "name": "initNumBatch",
              "type": "uint64"
            },
            {
              "internalType": "uint64",
              "name": "finalNewBatch",
              "type": "uint64"
            },
            {
              "internalType": "bytes32",
              "name": "newLocalExitRoot",
              "type": "bytes32"
            },
            {
              "internalType": "bytes32",
              "name": "newStateRoot",
              "type": "bytes32"
            },
            {
              "internalType": "bytes32",
              "name": "oldAccInputHash",
              "type": "bytes32"
            },
            {
              "internalType": "bytes32",
              "name": "newAccInputHash",
              "type": "bytes32"
            }
          ],
          "internalType": "struct PolygonZkEVM.VerifyBatchPackedParameters",
          "name": "packed",
          "type": "tuple"
        },
        {
          "internalType": "uint256[2]",
          "name": "proofA",
          "type": "uint256[2]"
        },
        {
          "internalType": "uint256[2][2]",
          "name": "proofB",
          "type": "uint256[2][2]"
        },
        {
          "internalType": "uint256[2]",
          "name": "proofC",
          "type": "uint256[2]"
        },
        {
          "internalType": "bytes",
          "name": "commProof",
          "type": "bytes"
        }
      ],
      "name": "verifyBatches",
      "outputs": [],
      "stateMutability": "nonpayable",
      "type": "function"
    },
    {
      "inputs": [
        {
          "internalType": "uint64",
          "name": "pendingStateNum",
          "type": "uint64"
        },
        {
          "internalType": "uint64",
          "name": "initNumBatch",
          "type": "uint64"
        },
        {
          "internalType": "uint64",
          "name": "finalNewBatch",
          "type": "uint64"
        },
        {
          "internalType": "bytes32",
          "name": "newLocalExitRoot",
          "type": "bytes32"
        },
        {
          "internalType": "bytes32",
          "name": "newStateRoot",
          "type": "bytes32"
        },
        {
          "internalType": "bytes32",
          "name": "oldAccInputHash",
          "type": "bytes32"
        },
        {
          "internalType": "bytes32",
          "name": "newAccInputHash",
          "type": "bytes32"
        },
        {
          "internalType": "uint256[2]",
          "name": "proofA",
          "type": "uint256[2]"
        },
        {
          "internalType": "uint256[2][2]",
          "name": "proofB",
          "type": "uint256[2][2]"
        },
        {
          "internalType": "uint256[2]",
          "name": "proofC",
          "type": "uint256[2]"
        },
        {
          "internalType": "bytes",
          "name": "commProof",
          "type": "bytes"
        }
      ],
      "name": "verifyBatchesTrustedAggregator",
      "outputs": [],
      "stateMutability": "nonpayable",
      "type": "function"
    }
  ],
  "bytecode": "0x6101606040523480156200001257600080fd5b5060405162004725380380620047258339810160408190526200003591620000ac565b6001600160a01b0396871660c05294861660805292851660a05290841660e052909216610100526001600160401b039182166101205216610140526200014f565b6001600160a01b03811681146200008c57600080fd5b50565b80516001600160401b0381168114620000a757600080fd5b919050565b600080600080600080600060e0888a031215620000c857600080fd5b8751620000d58162000076565b6020890151909750620000e88162000076565b6040890151909650620000fb8162000076565b60608901519095506200010e8162000076565b6080890151909450620001218162000076565b92506200013160a089016200008f565b91506200014160c089016200008f565b905092959891949750929550565b60805160a05160c05160e0516101005161012051610140516144fd620002286000396000818161064b0152818161101201528181611fb501526133270152600081816107a901528181610ff101526133060152600081816105b0015281816128ee015261299301526000818161076f015281816122100152612e8d0152600081816108da01528181610e12015281816113f9015281816121300152818161239f01526126b501526000818161098901528181612a9f015261315601526000818161086b015281816118930152612b7001526144fd6000f3fe608060405234801561001057600080fd5b50600436106103505760003560e01c80638da5cb5b116101bf578063c89e42df116100fa578063e11f3f181161009d578063e11f3f1814610957578063e7a7ed021461096a578063e8bf92ed14610984578063f14916d6146109ab578063f2fde38b146109be578063f851a440146109d1578063f8b823e4146109e4578063fe16564f146109ed57600080fd5b8063c89e42df146108a8578063cfa8ed47146108bb578063d02103ca146108d5578063d2e129f9146108fc578063d939b3151461090f578063d979413614610929578063dbc169761461093c578063e0d174411461094457600080fd5b8063ada8f91911610162578063ada8f91914610791578063adc879e9146107a4578063afd23cbe146107cb578063b4d63f58146107f3578063b4f77ea914610853578063b6b0b09714610866578063c0cad3021461088d578063c0ed84e0146108a057600080fd5b80638da5cb5b146106fd57806396dc3d391461070e57806399f5634e146107215780639b796760146107295780639c9f3dfe1461073c5780639f0d039d1461074f578063a066215c14610757578063a3c573eb1461076a57600080fd5b80634a910e6a1161028f578063715018a611610232578063715018a6146106055780637215541a1461060d57806375c508b3146106205780637fcb365314610633578063831c7ead14610646578063837a47381461066d578063841b24d7146106db5780638c3d7301146106f557600080fd5b80634a910e6a146104ec5780635392c5e0146104ff578063542028d51461051f578063574f649e146105275780635e0ab44f146105985780636375e13c146105ab5780636b8616ce146105d25780636ff512cc146105f257600080fd5b806326782247116102f7578063267822471461042b578063298789831461044b578063383b3be814610465578063394218e914610478578063423fa8561461048b57806345605267146104a5578063458c0477146104bf5780634a1a89a7146104d257600080fd5b80630a0d9fbe146103555780630eaa86ea1461038a578063107bf28c146103ab57806310a01a72146103c057806315064c96146103d55780631816b7e5146103f257806319d8ac6114610405578063220d789914610418575b600080fd5b606f5461036d9061010090046001600160401b031681565b6040516001600160401b0390911681526020015b60405180910390f35b61039d6103983660046136bc565b610a00565b604051908152602001610381565b6103b3610bcf565b6040516103819190613761565b6103d36103ce36600461379d565b610c5d565b005b606f546103e29060ff1681565b6040519015158152602001610381565b6103d361040036600461382a565b610ec3565b60735461036d906001600160401b031681565b6103b361042636600461384e565b610f7c565b607b5461043e906001600160a01b031681565b604051610381919061389b565b60745461043e90600160401b90046001600160a01b031681565b6103e26104733660046138af565b61106a565b6103d36104863660046138af565b6110b1565b60735461036d90600160401b90046001600160401b031681565b60735461036d90600160801b90046001600160401b031681565b60795461036d906001600160401b031681565b60795461036d90600160401b90046001600160401b031681565b6103d36104fa3660046138af565b61119f565b61039d61050d3660046138af565b60756020526000908152604090205481565b6103b361120e565b61039d61053536600461396c565b835160209485012060408051808701979097528681019190915260608087019490945260c09290921b6001600160c01b031916608086015290911b6001600160601b03191660888401528051808403607c018152609c9093019052815191012090565b6103d36105a6366004613a39565b61121b565b61043e7f000000000000000000000000000000000000000000000000000000000000000081565b61039d6105e03660046138af565b60716020526000908152604090205481565b6103d3610600366004613acd565b6115a4565b6103d3611623565b6103d361061b3660046138af565b611637565b6103d361062e366004613ae8565b611744565b60745461036d906001600160401b031681565b61036d7f000000000000000000000000000000000000000000000000000000000000000081565b6106b061067b366004613b86565b6078602052600090815260409020805460018201546002909201546001600160401b0380831693600160401b90930416919084565b604080516001600160401b039586168152949093166020850152918301526060820152608001610381565b60795461036d90600160c01b90046001600160401b031681565b6103d36117df565b6033546001600160a01b031661043e565b6103d361071c3660046138af565b611863565b61039d61188e565b6103d36107373660046138af565b61199b565b6103d361074a3660046138af565b6119d0565b60705461039d565b6103d36107653660046138af565b611ac3565b61043e7f000000000000000000000000000000000000000000000000000000000000000081565b6103d361079f366004613acd565b611b72565b61036d7f000000000000000000000000000000000000000000000000000000000000000081565b606f546107e090600160481b900461ffff1681565b60405161ffff9091168152602001610381565b61082e6108013660046138af565b607260205260009081526040902080546001909101546001600160401b0380821691600160401b90041683565b604080519384526001600160401b039283166020850152911690820152606001610381565b6103d36108613660046138af565b611be8565b61043e7f000000000000000000000000000000000000000000000000000000000000000081565b6103d361089b366004613bbf565b611bf9565b61036d611c11565b6103d36108b6366004613bbf565b611c5e565b606f5461043e90600160581b90046001600160a01b031681565b61043e7f000000000000000000000000000000000000000000000000000000000000000081565b6103d361090a366004613bf3565b611cc5565b60795461036d90600160801b90046001600160401b031681565b6103d3610937366004613c93565b61203d565b6103d36121e3565b6103d3610952366004613d6a565b612289565b6103d3610965366004613ae8565b6122fb565b60735461036d90600160c01b90046001600160401b031681565b61043e7f000000000000000000000000000000000000000000000000000000000000000081565b6103d36109b9366004613acd565b612464565b6103d36109cc366004613acd565b6124e3565b607a5461043e906001600160a01b031681565b61039d60705481565b6103d36109fb366004613db7565b612559565b6000806000610a0d611c11565b90506001600160401b03881615610aaa576079546001600160401b039081169089161115610a565760405162461bcd60e51b8152600401610a4d90613de3565b60405180910390fd5b6001600160401b038089166000908152607860205260409020600281015481549094509091898116600160401b9092041614610aa45760405162461bcd60e51b8152600401610a4d90613e61565b50610b14565b6001600160401b038716600090815260756020526040902054915081610ae25760405162461bcd60e51b8152600401610a4d90613ec1565b806001600160401b0316876001600160401b03161115610b145760405162461bcd60e51b8152600401610a4d90613f18565b806001600160401b0316866001600160401b031611610b455760405162461bcd60e51b8152600401610a4d90613f89565b6000610b548888888689610f7c565b905060006000805160206144a8833981519152600283604051610b779190614006565b602060405180830381855afa158015610b94573d6000803e3d6000fd5b5050506040513d601f19601f82011682018060405250810190610bb79190614022565b610bc19190614051565b9a9950505050505050505050565b60778054610bdc90614065565b80601f0160208091040260200160405190810160405280929190818152602001828054610c0890614065565b8015610c555780601f10610c2a57610100808354040283529160200191610c55565b820191906000526020600020905b815481529060010190602001808311610c3857829003601f168201915b505050505081565b610c6561257b565b600080610c70611c11565b90506001600160401b038a1615610d04576079546001600160401b03908116908b161115610cb05760405162461bcd60e51b8152600401610a4d90613de3565b6001600160401b03808b1660009081526078602052604090206002810154815490945090918b8116600160401b9092041614610cfe5760405162461bcd60e51b8152600401610a4d90613e61565b50610d6e565b6001600160401b038916600090815260756020526040902054915081610d3c5760405162461bcd60e51b8152600401610a4d90613ec1565b806001600160401b0316896001600160401b03161115610d6e5760405162461bcd60e51b8152600401610a4d90613f18565b806001600160401b0316886001600160401b031611610d9f5760405162461bcd60e51b8152600401610a4d90613f89565b6000610dae8a8a8a868b610f7c565b6074805467ffffffffffffffff19166001600160401b038c811691821790925560009081526075602052604090208990556079549192501615610dfc57607980546001600160801b03191690555b6040516333d6247d60e01b8152600481018990527f00000000000000000000000000000000000000000000000000000000000000006001600160a01b0316906333d6247d90602401600060405180830381600087803b158015610e5e57600080fd5b505af1158015610e72573d6000803e3d6000fd5b50506040518981523392506001600160401b038c1691507fcb339b570a7f0b25afa7333371ff11192092a0aeace12b671f4c212f2815c6fe9060200160405180910390a35050505050505050505050565b607a546001600160a01b03163314610eee57604051634755657960e01b815260040160405180910390fd5b6103e88161ffff161080610f0757506103ff8161ffff16115b15610f2557604051630984a67960e31b815260040160405180910390fd5b606f805461ffff60481b1916600160481b61ffff8416908102919091179091556040519081527f7019933d795eba185c180209e8ae8bffbaa25bcef293364687702c31f4d302c5906020015b60405180910390a150565b6001600160401b038086166000818152607260205260408082205493881682529020546060929115801590610faf575081155b15610fcd5760405163340c614f60e11b815260040160405180910390fd5b80610feb576040516366385b5160e01b815260040160405180910390fd5b3385838a7f00000000000000000000000000000000000000000000000000000000000000007f000000000000000000000000000000000000000000000000000000000000000089878d8f60405160200161104e9a9998979695949392919061409f565b6040516020818303038152906040529250505095945050505050565b6079546001600160401b03828116600090815260786020526040812054909242926110a092600160801b90920481169116614123565b6001600160401b0316111592915050565b607a546001600160a01b031633146110dc57604051634755657960e01b815260040160405180910390fd5b62093a806001600160401b038216111561110957604051631d06e87960e01b815260040160405180910390fd5b606f5460ff16611149576079546001600160401b03600160c01b9091048116908216106111495760405163401636df60e01b815260040160405180910390fd5b607980546001600160c01b0316600160c01b6001600160401b038416908102919091179091556040519081527f1f4fa24c2e4bad19a7f3ec5c5485f70d46c798461c2e684f55bbd0fc661373a190602001610f71565b607454600160401b90046001600160a01b0316331461120257606f5460ff16156111dc57604051630bc011ff60e21b815260040160405180910390fd5b6111e58161106a565b61120257604051630674f25160e11b815260040160405180910390fd5b61120b816125d5565b50565b60768054610bdc90614065565b606f5460ff161561123f57604051630bc011ff60e21b815260040160405180910390fd5b6079544290600160c01b90046001600160401b03166072600061126860608b0160408c016138af565b6001600160401b039081168252602082019290925260400160002060010154611292929116614123565b6001600160401b031611156112ba57604051638a0704d360e01b815260040160405180910390fd5b6103e86112cd60408801602089016138af565b6112dd6060890160408a016138af565b6112e7919061414a565b6001600160401b0316111561130f57604051635acfba9d60e11b815260040160405180910390fd5b61132b6113213688900388018861416a565b868686868661276f565b61134361133e60608801604089016138af565b612ba5565b607954600160801b90046001600160401b03166000036114625761136d60608701604088016138af565b6074805467ffffffffffffffff19166001600160401b03929092169190911790556080860135607560006113a760608a0160408b016138af565b6001600160401b03908116825260208201929092526040016000209190915560795416156113e057607980546001600160801b03191690555b6040516333d6247d60e01b8152606087013560048201527f00000000000000000000000000000000000000000000000000000000000000006001600160a01b0316906333d6247d90602401600060405180830381600087803b15801561144557600080fd5b505af1158015611459573d6000803e3d6000fd5b50505050611545565b61146a612d99565b607980546001600160401b031690600061148383614200565b91906101000a8154816001600160401b0302191690836001600160401b03160217905550506040518060800160405280426001600160401b031681526020018760400160208101906114d591906138af565b6001600160401b0390811682526060808a013560208085019190915260808b0135604094850152607954831660009081526078825284902085518154928701518516600160401b026001600160801b03199093169416939093171782559183015160018201559101516002909101555b3361155660608801604089016138af565b6001600160401b03167f9c72852172521097ba7e1482e6b44b351323df0155f97f4ea18fcec28e1f5966886080013560405161159491815260200190565b60405180910390a3505050505050565b607a546001600160a01b031633146115cf57604051634755657960e01b815260040160405180910390fd5b606f8054600160581b600160f81b031916600160581b6001600160a01b038416021790556040517ff54144f9611984021529f814a1cb6a41e22c58351510a0d9f7e822618abb9cc090610f7190839061389b565b61162b61257b565b6116356000612e39565b565b6033546001600160a01b0316331461173c576000611653611c11565b9050806001600160401b0316826001600160401b0316116116875760405163812a372d60e01b815260040160405180910390fd5b6073546001600160401b03600160401b909104811690831611806116c657506001600160401b0380831660009081526072602052604090206001015416155b156116e457604051632631700560e21b815260040160405180910390fd5b6001600160401b0380831660009081526072602052604090206001015442916117129162093a809116614123565b6001600160401b0316111561173a5760405163692baaad60e11b815260040160405180910390fd5b505b61120b612e8b565b606f5460ff161561176857604051630bc011ff60e21b815260040160405180910390fd5b611779898989898989898989612f06565b6001600160401b0386166000908152607560209081526040918290205482519081529081018690527f1f44c21118c4603cfb4e1b621dbcfa2b73efcececee2b99b620b2953d33a7010910160405180910390a16117d4612e8b565b505050505050505050565b607b546001600160a01b0316331461180a5760405163d1ec4b2360e01b815260040160405180910390fd5b607b54607a80546001600160a01b0319166001600160a01b0390921691821790556040517f056dc487bbf0795d0bbb1b4f0af523a855503cff740bfb4d5475f7a90c091e8e916118599161389b565b60405180910390a1565b61186b61257b565b6074805467ffffffffffffffff19166001600160401b0392909216919091179055565b6000807f00000000000000000000000000000000000000000000000000000000000000006001600160a01b03166370a08231306040518263ffffffff1660e01b81526004016118dd919061389b565b602060405180830381865afa1580156118fa573d6000803e3d6000fd5b505050506040513d601f19601f8201168201806040525081019061191e9190614022565b9050600061192a611c11565b6073546001600160401b03600160401b820481169161195a91600160801b8204811691600160c01b90041661414a565b6119649190614123565b61196e919061414a565b6001600160401b031690508060000361198a5760009250505090565b6119948183614226565b9250505090565b6119a361257b565b607380546001600160401b03909216600160401b0267ffffffffffffffff60401b19909216919091179055565b607a546001600160a01b031633146119fb57604051634755657960e01b815260040160405180910390fd5b62093a806001600160401b0382161115611a2857604051630cc9650760e41b815260040160405180910390fd5b606f5460ff16611a68576079546001600160401b03600160801b909104811690821610611a685760405163048a05a960e41b815260040160405180910390fd5b6079805467ffffffffffffffff60801b1916600160801b6001600160401b038416908102919091179091556040519081527fc4121f4e22c69632ebb7cf1f462be0511dc034f999b52013eddfb24aab765c7590602001610f71565b607a546001600160a01b03163314611aee57604051634755657960e01b815260040160405180910390fd5b62015180816001600160401b03161115611b1b57604051631c0cfbfd60e31b815260040160405180910390fd5b606f805468ffffffffffffffff0019166101006001600160401b038416908102919091179091556040519081527f1b023231a1ab6b5d93992f168fb44498e1a7e64cef58daff6f1c216de6a68c2890602001610f71565b607a546001600160a01b03163314611b9d57604051634755657960e01b815260040160405180910390fd5b607b80546001600160a01b0319166001600160a01b0383161790556040517fa5b56b7906fd0a20e3f35120dd8343db1e12e037a6c90111c7e42885e82a1ce690610f7190839061389b565b611bf061257b565b61120b81612ba5565b611c0161257b565b6077611c0d8282614288565b5050565b6079546000906001600160401b031615611c4e57506079546001600160401b03908116600090815260786020526040902054600160401b90041690565b506074546001600160401b031690565b607a546001600160a01b03163314611c8957604051634755657960e01b815260040160405180910390fd5b6076611c958282614288565b507f6b8f723a4c7a5335cafae8a598a0aa0301be1387c037dccc085b62add6448b2081604051610f719190613761565b600054610100900460ff1615808015611ce55750600054600160ff909116105b80611cff5750303b158015611cff575060005460ff166001145b611d625760405162461bcd60e51b815260206004820152602e60248201527f496e697469616c697a61626c653a20636f6e747261637420697320616c72656160448201526d191e481a5b9a5d1a585b1a5e995960921b6064820152608401610a4d565b6000805460ff191660011790558015611d85576000805461ff0019166101001790555b611d926020880188613acd565b607a80546001600160a01b0319166001600160a01b0392909216919091179055611dc26040880160208901613acd565b606f80546001600160a01b0392909216600160581b02600160581b600160f81b0319909216919091179055611dfd6080880160608901613acd565b607480546001600160a01b0392909216600160401b02600160401b600160e01b03199092169190911790556000805260756020527ff9e3fbf150b7a0077118526f473c53cb4734f166167e2c6213e3567dd390b4ad8690556076611e618682614288565b506077611e6e8582614288565b5062093a80611e836060890160408a016138af565b6001600160401b03161115611eab57604051630cc9650760e41b815260040160405180910390fd5b611ebb60608801604089016138af565b607980546001600160401b0392909216600160801b0267ffffffffffffffff60801b1990921691909117905562093a80611efb60a0890160808a016138af565b6001600160401b03161115611f2357604051631d06e87960e01b815260040160405180910390fd5b611f3360a08801608089016138af565b607980546001600160c01b0316600160c01b6001600160401b039390931692909202919091179055670de0b6b3a7640000607055606f80546affffffffffffffffffff0019166a03ea000000000000070800179055611f9061322a565b7fed7be53c9f1a96a481223b15568a5b1a475e01a74b347d6ca187c8bf0c078cd660007f00000000000000000000000000000000000000000000000000000000000000008585604051611fe69493929190614347565b60405180910390a18015612034576000805461ff0019169055604051600181527f7f26b83ff96e1f2b6a682f133852f6798a09c465da95921460cefb38474024989060200160405180910390a15b50505050505050565b607454600160401b90046001600160a01b0316331461206f5760405163bbcbbc0560e01b815260040160405180910390fd5b60006040518060e001604052808e6001600160401b031681526020018d6001600160401b031681526020018c6001600160401b031681526020018b81526020018a81526020018981526020018881525090506120cf81878787878761276f565b6074805467ffffffffffffffff19166001600160401b038d811691821790925560009081526075602052604090208a9055607954161561211a57607980546001600160801b03191690555b6040516333d6247d60e01b8152600481018b90527f00000000000000000000000000000000000000000000000000000000000000006001600160a01b0316906333d6247d90602401600060405180830381600087803b15801561217c57600080fd5b505af1158015612190573d6000803e3d6000fd5b50506040518b81523392506001600160401b038e1691507fcb339b570a7f0b25afa7333371ff11192092a0aeace12b671f4c212f2815c6fe9060200160405180910390a350505050505050505050505050565b607a546001600160a01b0316331461220e57604051634755657960e01b815260040160405180910390fd5b7f00000000000000000000000000000000000000000000000000000000000000006001600160a01b031663dbc169766040518163ffffffff1660e01b8152600401600060405180830381600087803b15801561226957600080fd5b505af115801561227d573d6000803e3d6000fd5b5050505061163561329e565b61229161257b565b604080516060810182529384526001600160401b03928316602080860191825292841685830190815295841660009081526072909352912092518355516001909201805493518216600160401b026001600160801b03199094169290911691909117919091179055565b607454600160401b90046001600160a01b0316331461232d5760405163bbcbbc0560e01b815260040160405180910390fd5b61233e898989898989898989612f06565b6074805467ffffffffffffffff19166001600160401b038881169182179092556000908152607560205260409020859055607954161561238957607980546001600160801b03191690555b6040516333d6247d60e01b8152600481018690527f00000000000000000000000000000000000000000000000000000000000000006001600160a01b0316906333d6247d90602401600060405180830381600087803b1580156123eb57600080fd5b505af11580156123ff573d6000803e3d6000fd5b5050607980546001600160c01b031661127560c71b179055505060405184815233906001600160401b038816907fcc1b5520188bf1dd3e63f98164b577c4d75c11a619ddea692112f0d1aec4cf729060200160405180910390a3505050505050505050565b607a546001600160a01b0316331461248f57604051634755657960e01b815260040160405180910390fd5b60748054600160401b600160e01b031916600160401b6001600160a01b038416021790556040517f61f8fec29495a3078e9271456f05fb0707fd4e41f7661865f80fc437d06681ca90610f7190839061389b565b6124eb61257b565b6001600160a01b0381166125505760405162461bcd60e51b815260206004820152602660248201527f4f776e61626c653a206e6577206f776e657220697320746865207a65726f206160448201526564647265737360d01b6064820152608401610a4d565b61120b81612e39565b61256161257b565b6001600160401b0316600090815260756020526040902055565b6033546001600160a01b031633146116355760405162461bcd60e51b815260206004820181905260248201527f4f776e61626c653a2063616c6c6572206973206e6f7420746865206f776e65726044820152606401610a4d565b6079546001600160401b03600160401b909104811690821611158061260857506079546001600160401b03908116908216115b156126265760405163d086b70b60e01b815260040160405180910390fd5b6001600160401b038181166000818152607860209081526040808320805460748054600160401b9283900490981667ffffffffffffffff19909816881790556002820154878652607590945293829020929092556079805467ffffffffffffffff60401b19169390940292909217909255600182015490516333d6247d60e01b815260048101919091529091907f00000000000000000000000000000000000000000000000000000000000000006001600160a01b0316906333d6247d90602401600060405180830381600087803b15801561270157600080fd5b505af1158015612715573d6000803e3d6000fd5b50505050826001600160401b0316816001600160401b03167f328d3c6c0fd6f1be0515e422f2d87e59f25922cbc2233568515a0c4bc3f8510e846002015460405161276291815260200190565b60405180910390a3505050565b60008061277a611c11565b88519091506001600160401b03161561281c5760795488516001600160401b03918216911611156127be5760405163bb14c20560e01b815260040160405180910390fd5b87516001600160401b03908116600090815260786020908152604090912060028101548154928c01519095509092908116600160401b909204161461281657604051632bd2e3e760e01b815260040160405180910390fd5b50612891565b6020808901516001600160401b031660009081526075909152604090205491508161285a576040516324cbdcc360e11b815260040160405180910390fd5b806001600160401b031688602001516001600160401b0316111561289157604051630f2b74f160e11b815260040160405180910390fd5b806001600160401b031688604001516001600160401b0316116128c75760405163b9b18f5760e01b815260040160405180910390fd5b60208801516040516349ce899760e01b81526001600160401b0390911660048201526000907f00000000000000000000000000000000000000000000000000000000000000006001600160a01b0316906349ce899790602401602060405180830381865afa15801561293d573d6000803e3d6000fd5b505050506040513d601f19601f820116820180604052508101906129619190614022565b6040808b015190516349ce899760e01b81526001600160401b0390911660048201529091506000906001600160a01b037f000000000000000000000000000000000000000000000000000000000000000016906349ce899790602401602060405180830381865afa1580156129da573d6000803e3d6000fd5b505050506040513d601f19601f820116820180604052508101906129fe9190614022565b90506000612a0c858c6132f6565b905060006000805160206144a8833981519152600283604051612a2f9190614006565b602060405180830381855afa158015612a4c573d6000803e3d6000fd5b5050506040513d601f19601f82011682018060405250810190612a6f9190614022565b612a799190614051565b6040805160208101825282815290516343753b4d60e01b81529192506001600160a01b037f000000000000000000000000000000000000000000000000000000000000000016916343753b4d91612ad9918f918f918f9190600401614394565b602060405180830381865afa158015612af6573d6000803e3d6000fd5b505050506040513d601f19601f82011682018060405250810190612b1a9190614402565b612b37576040516309bde33960e01b815260040160405180910390fd5b612b9733868e60400151612b4b919061414a565b6001600160401b0316612b5c61188e565b612b669190614424565b6001600160a01b037f000000000000000000000000000000000000000000000000000000000000000016919061338b565b505050505050505050505050565b6000612baf611c11565b905081600080612bbf848461414a565b606f546001600160401b039182169250600091612be2916101009004164261443b565b90505b846001600160401b0316846001600160401b031614612c82576001600160401b0380851660009081526072602052604090206001810154909116821015612c76576001810154612c4590600160401b90046001600160401b03168661414a565b612c58906001600160401b03168561444e565b6001820154600160401b90046001600160401b031695509350612c7c565b50612c82565b50612be5565b6000612c8e848461443b565b905080841015612ce557838103600c8111612ca95780612cac565b600c5b9050806103e80a81606f60099054906101000a900461ffff1661ffff160a6070540281612cdb57612cdb61403b565b0460705550612d55565b808403600c8111612cf65780612cf9565b600c5b90506000816103e80a82606f60099054906101000a900461ffff1661ffff160a670de0b6b3a76400000281612d3057612d3061403b565b04905080607054670de0b6b3a76400000281612d4e57612d4e61403b565b0460705550505b683635c9adc5dea000006070541115612d7a57683635c9adc5dea00000607055612034565b633b9aca00607054101561203457633b9aca0060705550505050505050565b6079546001600160401b03600160401b820481169116111561163557607954600090612dd690600160401b90046001600160401b03166001614123565b9050612de18161106a565b1561120b57607954600090600290612e039084906001600160401b031661414a565b612e0d9190614461565b612e179083614123565b9050612e228161106a565b15612e3057611c0d816125d5565b611c0d826125d5565b603380546001600160a01b038381166001600160a01b0319831681179093556040519116919082907f8be0079c531659141344cd1fd0a4f28419497f9722a3daafe3b4186f6b6457e090600090a35050565b7f00000000000000000000000000000000000000000000000000000000000000006001600160a01b0316632072f6c56040518163ffffffff1660e01b8152600401600060405180830381600087803b158015612ee657600080fd5b505af1158015612efa573d6000803e3d6000fd5b505050506116356133e2565b60006001600160401b038a1615612f9a576079546001600160401b03908116908b161115612f475760405163bb14c20560e01b815260040160405180910390fd5b506001600160401b03808a1660009081526078602052604090206002810154815490928a8116600160401b9092041614612f9457604051632bd2e3e760e01b815260040160405180910390fd5b50613002565b506001600160401b03871660009081526075602052604090205480612fd2576040516324cbdcc360e11b815260040160405180910390fd5b6074546001600160401b03908116908916111561300257604051630f2b74f160e11b815260040160405180910390fd5b6079546001600160401b03908116908a1611806130315750896001600160401b0316896001600160401b031611155b8061305257506079546001600160401b03600160401b9091048116908a1611155b156130705760405163bfa7079f60e01b815260040160405180910390fd5b6001600160401b03898116600090815260786020526040902054600160401b90048116908816146130b4576040516332a2a77f60e01b815260040160405180910390fd5b60006130c3898989858a610f7c565b905060006000805160206144a88339815191526002836040516130e69190614006565b602060405180830381855afa158015613103573d6000803e3d6000fd5b5050506040513d601f19601f820116820180604052508101906131269190614022565b6131309190614051565b6040805160208101825282815290516343753b4d60e01b81529192506001600160a01b037f000000000000000000000000000000000000000000000000000000000000000016916343753b4d91613190918a918a918a9190600401614394565b602060405180830381865afa1580156131ad573d6000803e3d6000fd5b505050506040513d601f19601f820116820180604052508101906131d19190614402565b6131ee576040516309bde33960e01b815260040160405180910390fd5b6001600160401b038b16600090815260786020526040902060020154879003612b975760405163a47276bd60e01b815260040160405180910390fd5b600054610100900460ff166132955760405162461bcd60e51b815260206004820152602b60248201527f496e697469616c697a61626c653a20636f6e7472616374206973206e6f74206960448201526a6e697469616c697a696e6760a81b6064820152608401610a4d565b61163533612e39565b606f5460ff166132c157604051635386698160e01b815260040160405180910390fd5b606f805460ff191690556040517f1e5e34eea33501aecf2ebec9fe0e884a40804275ea7fe10b2ba084c8374308b390600090a1565b606033838360a0015184602001517f00000000000000000000000000000000000000000000000000000000000000007f000000000000000000000000000000000000000000000000000000000000000087608001518860c0015189606001518a604001516040516020016133739a9998979695949392919061409f565b60405160208183030381529060405290505b92915050565b604080516001600160a01b038416602482015260448082018490528251808303909101815260649091019091526020810180516001600160e01b031663a9059cbb60e01b1790526133dd90849061343e565b505050565b606f5460ff161561340657604051630bc011ff60e21b815260040160405180910390fd5b606f805460ff191660011790556040517f2261efe5aef6fedc1fd1550b25facc9181745623049c7901287030b9ad1a549790600090a1565b6000613493826040518060400160405280602081526020017f5361666545524332303a206c6f772d6c6576656c2063616c6c206661696c6564815250856001600160a01b03166135109092919063ffffffff16565b8051909150156133dd57808060200190518101906134b19190614402565b6133dd5760405162461bcd60e51b815260206004820152602a60248201527f5361666545524332303a204552433230206f7065726174696f6e20646964206e6044820152691bdd081cdd58d8d9595960b21b6064820152608401610a4d565b606061351f8484600085613527565b949350505050565b6060824710156135885760405162461bcd60e51b815260206004820152602660248201527f416464726573733a20696e73756666696369656e742062616c616e636520666f6044820152651c8818d85b1b60d21b6064820152608401610a4d565b600080866001600160a01b031685876040516135a49190614006565b60006040518083038185875af1925050503d80600081146135e1576040519150601f19603f3d011682016040523d82523d6000602084013e6135e6565b606091505b50915091506135f787838387613602565b979650505050505050565b6060831561367157825160000361366a576001600160a01b0385163b61366a5760405162461bcd60e51b815260206004820152601d60248201527f416464726573733a2063616c6c20746f206e6f6e2d636f6e74726163740000006044820152606401610a4d565b508161351f565b61351f83838151156136865781518083602001fd5b8060405162461bcd60e51b8152600401610a4d9190613761565b80356001600160401b03811681146136b757600080fd5b919050565b600080600080600060a086880312156136d457600080fd5b6136dd866136a0565b94506136eb602087016136a0565b93506136f9604087016136a0565b94979396509394606081013594506080013592915050565b60005b8381101561372c578181015183820152602001613714565b50506000910152565b6000815180845261374d816020860160208601613711565b601f01601f19169290920160200192915050565b6020815260006137746020830184613735565b9392505050565b806040810183101561338557600080fd5b806080810183101561338557600080fd5b6000806000806000806000806101a0898b0312156137ba57600080fd5b6137c3896136a0565b97506137d160208a016136a0565b96506137df60408a016136a0565b955060608901359450608089013593506137fc8a60a08b0161377b565b925061380b8a60e08b0161378c565b915061381b8a6101608b0161377b565b90509295985092959890939650565b60006020828403121561383c57600080fd5b813561ffff8116811461377457600080fd5b600080600080600060a0868803121561386657600080fd5b61386f866136a0565b945061387d602087016136a0565b94979496505050506040830135926060810135926080909101359150565b6001600160a01b0391909116815260200190565b6000602082840312156138c157600080fd5b613774826136a0565b634e487b7160e01b600052604160045260246000fd5b60006001600160401b03808411156138fa576138fa6138ca565b604051601f8501601f19908116603f01168101908282118183101715613922576139226138ca565b8160405280935085815286868601111561393b57600080fd5b858560208301376000602087830101525050509392505050565b80356001600160a01b03811681146136b757600080fd5b600080600080600060a0868803121561398457600080fd5b8535945060208601356001600160401b038111156139a157600080fd5b8601601f810188136139b257600080fd5b6139c1888235602084016138e0565b945050604086013592506139d7606087016136a0565b91506139e560808701613955565b90509295509295909350565b60008083601f840112613a0357600080fd5b5081356001600160401b03811115613a1a57600080fd5b602083019150836020828501011115613a3257600080fd5b9250929050565b600080600080600080868803610200811215613a5457600080fd5b60e0811215613a6257600080fd5b50869550613a738860e0890161377b565b9450613a8388610120890161378c565b9350613a93886101a0890161377b565b92506101e08701356001600160401b03811115613aaf57600080fd5b613abb89828a016139f1565b979a9699509497509295939492505050565b600060208284031215613adf57600080fd5b61377482613955565b60008060008060008060008060006101c08a8c031215613b0757600080fd5b613b108a6136a0565b9850613b1e60208b016136a0565b9750613b2c60408b016136a0565b9650613b3a60608b016136a0565b955060808a0135945060a08a01359350613b578b60c08c0161377b565b9250613b678b6101008c0161378c565b9150613b778b6101808c0161377b565b90509295985092959850929598565b600060208284031215613b9857600080fd5b5035919050565b600082601f830112613bb057600080fd5b613774838335602085016138e0565b600060208284031215613bd157600080fd5b81356001600160401b03811115613be757600080fd5b61351f84828501613b9f565b600080600080600080868803610120811215613c0e57600080fd5b60a0811215613c1c57600080fd5b5086955060a0870135945060c08701356001600160401b0380821115613c4157600080fd5b613c4d8a838b01613b9f565b955060e0890135915080821115613c6357600080fd5b613c6f8a838b01613b9f565b9450610100890135915080821115613c8657600080fd5b50613abb89828a016139f1565b6000806000806000806000806000806000806102008d8f031215613cb657600080fd5b613cbf8d6136a0565b9b50613ccd60208e016136a0565b9a50613cdb60408e016136a0565b995060608d0135985060808d0135975060a08d0135965060c08d01359550613d068e60e08f0161377b565b9450613d168e6101208f0161378c565b9350613d268e6101a08f0161377b565b92506001600160401b036101e08e01351115613d4157600080fd5b613d528e6101e08f01358f016139f1565b81935080925050509295989b509295989b509295989b565b60008060008060808587031215613d8057600080fd5b613d89856136a0565b935060208501359250613d9e604086016136a0565b9150613dac606086016136a0565b905092959194509250565b60008060408385031215613dca57600080fd5b82359150613dda602084016136a0565b90509250929050565b60208082526058908201527f506f6c79676f6e5a6b45564d3a3a766572696679426174636865733a2070656e60408201527f64696e6753746174654e756d206d757374206265206c657373206f7220657175606082015277616c207468616e206c61737450656e64696e67537461746560401b608082015260a00190565b6020808252604c9082015260008051602061448883398151915260408201527f744e756d4261746368206d757374206d61746368207468652070656e64696e6760608201526b040e6e8c2e8ca40c4c2e8c6d60a31b608082015260a00190565b602080825260439082015260008051602061448883398151915260408201527f744e756d426174636820737461746520726f6f7420646f6573206e6f742065786060820152621a5cdd60ea1b608082015260a00190565b6020808252605d9082015260008051602061448883398151915260408201527f744e756d4261746368206d757374206265206c657373206f7220657175616c2060608201527f7468616e2063757272656e744c61737456657269666965644261746368000000608082015260a00190565b60208082526057908201527f506f6c79676f6e5a6b45564d3a3a766572696679426174636865733a2066696e60408201527f616c4e65774261746368206d75737420626520626967676572207468616e20636060820152760eae4e4cadce898c2e6e8accae4d2ccd2cac884c2e8c6d604b1b608082015260a00190565b60008251614018818460208701613711565b9190910192915050565b60006020828403121561403457600080fd5b5051919050565b634e487b7160e01b600052601260045260246000fd5b6000826140605761406061403b565b500690565b600181811c9082168061407957607f821691505b60208210810361409957634e487b7160e01b600052602260045260246000fd5b50919050565b60609a909a1b6001600160601b0319168a5260148a0198909852603489019690965260c094851b6001600160c01b031990811660548a015293851b8416605c89015291841b83166064880152606c870152608c86015260ac8501929092529190911b1660cc82015260d40190565b634e487b7160e01b600052601160045260246000fd5b6001600160401b038181168382160190808211156141435761414361410d565b5092915050565b6001600160401b038281168282160390808211156141435761414361410d565b600060e0828403121561417c57600080fd5b60405160e081018181106001600160401b038211171561419e5761419e6138ca565b6040526141aa836136a0565b81526141b8602084016136a0565b60208201526141c9604084016136a0565b6040820152606083013560608201526080830135608082015260a083013560a082015260c083013560c08201528091505092915050565b60006001600160401b0380831681810361421c5761421c61410d565b6001019392505050565b6000826142355761423561403b565b500490565b601f8211156133dd57600081815260208120601f850160051c810160208610156142615750805b601f850160051c820191505b818110156142805782815560010161426d565b505050505050565b81516001600160401b038111156142a1576142a16138ca565b6142b5816142af8454614065565b8461423a565b602080601f8311600181146142ea57600084156142d25750858301515b600019600386901b1c1916600185901b178555614280565b600085815260208120601f198616915b82811015614319578886015182559484019460019091019084016142fa565b50858210156143375787850151600019600388901b60f8161c191681555b5050505050600190811b01905550565b60006001600160401b03808716835280861660208401525060606040830152826060830152828460808401376000608084840101526080601f19601f850116830101905095945050505050565b61012081016040808784378083018660005b60028110156143c3578382843791830191908301906001016143a6565b505050808560c08501375061010082018360005b60018110156143f65781518352602092830192909101906001016143d7565b50505095945050505050565b60006020828403121561441457600080fd5b8151801515811461377457600080fd5b80820281158282048414176133855761338561410d565b818103818111156133855761338561410d565b808201808211156133855761338561410d565b60006001600160401b038084168061447b5761447b61403b565b9216919091049291505056fe506f6c79676f6e5a6b45564d3a3a766572696679426174636865733a20696e6930644e72e131a029b85045b68181585d2833e84879b9709143e1f593f0000001a2646970667358221220eedd3c2f9ac0ed8a9875beecef29cbafe83995973036ba5f10c762e38e4abb2d64736f6c63430008110033",
  "linkReferences": {},
  "deployedLinkReferences": {}
}