{
  "_format": "hh-sol-artifact-1",
  "contractName": "Dai",
  "sourceName": "contracts/mocks/DAI.sol",
  "abi": [
    {
      "inputs": [
        {
          "internalType": "uint256",
          "name": "chainId_",
          "type": "uint256"
        }
      ],
      "payable": false,
      "stateMutability": "nonpayable",
      "type": "constructor"
    },
    {
      "anonymous": false,
      "inputs": [
        {
          "indexed": true,
          "internalType": "address",
          "name": "src",
          "type": "address"
        },
        {
          "indexed": true,
          "internalType": "address",
          "name": "guy",
          "type": "address"
        },
        {
          "indexed": false,
          "internalType": "uint256",
          "name": "wad",
          "type": "uint256"
        }
      ],
      "name": "Approval",
      "type": "event"
    },
    {
      "anonymous": true,
      "inputs": [
        {
          "indexed": true,
          "internalType": "bytes4",
          "name": "sig",
          "type": "bytes4"
        },
        {
          "indexed": true,
          "internalType": "address",
          "name": "usr",
          "type": "address"
        },
        {
          "indexed": true,
          "internalType": "bytes32",
          "name": "arg1",
          "type": "bytes32"
        },
        {
          "indexed": true,
          "internalType": "bytes32",
          "name": "arg2",
          "type": "bytes32"
        },
        {
          "indexed": false,
          "internalType": "bytes",
          "name": "data",
          "type": "bytes"
        }
      ],
      "name": "LogNote",
      "type": "event"
    },
    {
      "anonymous": false,
      "inputs": [
        {
          "indexed": true,
          "internalType": "address",
          "name": "src",
          "type": "address"
        },
        {
          "indexed": true,
          "internalType": "address",
          "name": "dst",
          "type": "address"
        },
        {
          "indexed": false,
          "internalType": "uint256",
          "name": "wad",
          "type": "uint256"
        }
      ],
      "name": "Transfer",
      "type": "event"
    },
    {
      "constant": true,
      "inputs": [],
      "name": "DOMAIN_SEPARATOR",
      "outputs": [
        {
          "internalType": "bytes32",
          "name": "",
          "type": "bytes32"
        }
      ],
      "payable": false,
      "stateMutability": "view",
      "type": "function"
    },
    {
      "constant": true,
      "inputs": [],
      "name": "PERMIT_TYPEHASH",
      "outputs": [
        {
          "internalType": "bytes32",
          "name": "",
          "type": "bytes32"
        }
      ],
      "payable": false,
      "stateMutability": "view",
      "type": "function"
    },
    {
      "constant": true,
      "inputs": [
        {
          "internalType": "address",
          "name": "",
          "type": "address"
        },
        {
          "internalType": "address",
          "name": "",
          "type": "address"
        }
      ],
      "name": "allowance",
      "outputs": [
        {
          "internalType": "uint256",
          "name": "",
          "type": "uint256"
        }
      ],
      "payable": false,
      "stateMutability": "view",
      "type": "function"
    },
    {
      "constant": false,
      "inputs": [
        {
          "internalType": "address",
          "name": "usr",
          "type": "address"
        },
        {
          "internalType": "uint256",
          "name": "wad",
          "type": "uint256"
        }
      ],
      "name": "approve",
      "outputs": [
        {
          "internalType": "bool",
          "name": "",
          "type": "bool"
        }
      ],
      "payable": false,
      "stateMutability": "nonpayable",
      "type": "function"
    },
    {
      "constant": true,
      "inputs": [
        {
          "internalType": "address",
          "name": "",
          "type": "address"
        }
      ],
      "name": "balanceOf",
      "outputs": [
        {
          "internalType": "uint256",
          "name": "",
          "type": "uint256"
        }
      ],
      "payable": false,
      "stateMutability": "view",
      "type": "function"
    },
    {
      "constant": false,
      "inputs": [
        {
          "internalType": "address",
          "name": "usr",
          "type": "address"
        },
        {
          "internalType": "uint256",
          "name": "wad",
          "type": "uint256"
        }
      ],
      "name": "burn",
      "outputs": [],
      "payable": false,
      "stateMutability": "nonpayable",
      "type": "function"
    },
    {
      "constant": true,
      "inputs": [],
      "name": "decimals",
      "outputs": [
        {
          "internalType": "uint8",
          "name": "",
          "type": "uint8"
        }
      ],
      "payable": false,
      "stateMutability": "view",
      "type": "function"
    },
    {
      "constant": false,
      "inputs": [
        {
          "internalType": "address",
          "name": "guy",
          "type": "address"
        }
      ],
      "name": "deny",
      "outputs": [],
      "payable": false,
      "stateMutability": "nonpayable",
      "type": "function"
    },
    {
      "constant": false,
      "inputs": [
        {
          "internalType": "address",
          "name": "usr",
          "type": "address"
        },
        {
          "internalType": "uint256",
          "name": "wad",
          "type": "uint256"
        }
      ],
      "name": "mint",
      "outputs": [],
      "payable": false,
      "stateMutability": "nonpayable",
      "type": "function"
    },
    {
      "constant": false,
      "inputs": [
        {
          "internalType": "address",
          "name": "src",
          "type": "address"
        },
        {
          "internalType": "address",
          "name": "dst",
          "type": "address"
        },
        {
          "internalType": "uint256",
          "name": "wad",
          "type": "uint256"
        }
      ],
      "name": "move",
      "outputs": [],
      "payable": false,
      "stateMutability": "nonpayable",
      "type": "function"
    },
    {
      "constant": true,
      "inputs": [],
      "name": "name",
      "outputs": [
        {
          "internalType": "string",
          "name": "",
          "type": "string"
        }
      ],
      "payable": false,
      "stateMutability": "view",
      "type": "function"
    },
    {
      "constant": true,
      "inputs": [
        {
          "internalType": "address",
          "name": "",
          "type": "address"
        }
      ],
      "name": "nonces",
      "outputs": [
        {
          "internalType": "uint256",
          "name": "",
          "type": "uint256"
        }
      ],
      "payable": false,
      "stateMutability": "view",
      "type": "function"
    },
    {
      "constant": false,
      "inputs": [
        {
          "internalType": "address",
          "name": "holder",
          "type": "address"
        },
        {
          "internalType": "address",
          "name": "spender",
          "type": "address"
        },
        {
          "internalType": "uint256",
          "name": "nonce",
          "type": "uint256"
        },
        {
          "internalType": "uint256",
          "name": "expiry",
          "type": "uint256"
        },
        {
          "internalType": "bool",
          "name": "allowed",
          "type": "bool"
        },
        {
          "internalType": "uint8",
          "name": "v",
          "type": "uint8"
        },
        {
          "internalType": "bytes32",
          "name": "r",
          "type": "bytes32"
        },
        {
          "internalType": "bytes32",
          "name": "s",
          "type": "bytes32"
        }
      ],
      "name": "permit",
      "outputs": [],
      "payable": false,
      "stateMutability": "nonpayable",
      "type": "function"
    },
    {
      "constant": false,
      "inputs": [
        {
          "internalType": "address",
          "name": "usr",
          "type": "address"
        },
        {
          "internalType": "uint256",
          "name": "wad",
          "type": "uint256"
        }
      ],
      "name": "pull",
      "outputs": [],
      "payable": false,
      "stateMutability": "nonpayable",
      "type": "function"
    },
    {
      "constant": false,
      "inputs": [
        {
          "internalType": "address",
          "name": "usr",
          "type": "address"
        },
        {
          "internalType": "uint256",
          "name": "wad",
          "type": "uint256"
        }
      ],
      "name": "push",
      "outputs": [],
      "payable": false,
      "stateMutability": "nonpayable",
      "type": "function"
    },
    {
      "constant": false,
      "inputs": [
        {
          "internalType": "address",
          "name": "guy",
          "type": "address"
        }
      ],
      "name": "rely",
      "outputs": [],
      "payable": false,
      "stateMutability": "nonpayable",
      "type": "function"
    },
    {
      "constant": true,
      "inputs": [],
      "name": "symbol",
      "outputs": [
        {
          "internalType": "string",
          "name": "",
          "type": "string"
        }
      ],
      "payable": false,
      "stateMutability": "view",
      "type": "function"
    },
    {
      "constant": true,
      "inputs": [],
      "name": "totalSupply",
      "outputs": [
        {
          "internalType": "uint256",
          "name": "",
          "type": "uint256"
        }
      ],
      "payable": false,
      "stateMutability": "view",
      "type": "function"
    },
    {
      "constant": false,
      "inputs": [
        {
          "internalType": "address",
          "name": "dst",
          "type": "address"
        },
        {
          "internalType": "uint256",
          "name": "wad",
          "type": "uint256"
        }
      ],
      "name": "transfer",
      "outputs": [
        {
          "internalType": "bool",
          "name": "",
          "type": "bool"
        }
      ],
      "payable": false,
      "stateMutability": "nonpayable",
      "type": "function"
    },
    {
      "constant": false,
      "inputs": [
        {
          "internalType": "address",
          "name": "src",
          "type": "address"
        },
        {
          "internalType": "address",
          "name": "dst",
          "type": "address"
        },
        {
          "internalType": "uint256",
          "name": "wad",
          "type": "uint256"
        }
      ],
      "name": "transferFrom",
      "outputs": [
        {
          "internalType": "bool",
          "name": "",
          "type": "bool"
        }
      ],
      "payable": false,
      "stateMutability": "nonpayable",
      "type": "function"
    },
    {
      "constant": true,
      "inputs": [],
      "name": "version",
      "outputs": [
        {
          "internalType": "string",
          "name": "",
          "type": "string"
        }
      ],
      "payable": false,
      "stateMutability": "view",
      "type": "function"
    },
    {
      "constant": true,
      "inputs": [
        {
          "internalType": "address",
          "name": "",
          "type": "address"
        }
      ],
      "name": "wards",
      "outputs": [
        {
          "internalType": "uint256",
          "name": "",
          "type": "uint256"
        }
      ],
      "payable": false,
      "stateMutability": "view",
      "type": "function"
    }
  ],
  "bytecode": "0x608060405234801561001057600080fd5b506040516117743803806117748339818101604052602081101561003357600080fd5b5051336000908152602081905260409081902060019055518060526117228239604080519182900360520182208282018252600e83527f44616920537461626c65636f696e00000000000000000000000000000000000060209384015281518083018352600181527f3100000000000000000000000000000000000000000000000000000000000000908401528151808401919091527f0b1461ddc0c1d5ded79a1db0f74dae949050a7c0b28728c724b24958c27a328b818301527fc89efdaa54c0f20c7adf612882df0950f5a951637e0307cdcb4c672f298b8bc6606082015260808101949094523060a0808601919091528151808603909101815260c090940190528251920191909120600555506115d0806101526000396000f3fe608060405234801561001057600080fd5b50600436106101825760003560e01c80637ecebe00116100d8578063a9059cbb1161008c578063bf353dbb11610066578063bf353dbb1461054a578063dd62ed3e1461057d578063f2d5d56b146105b857610182565b8063a9059cbb14610495578063b753a98c146104ce578063bb35783b1461050757610182565b806395d89b41116100bd57806395d89b41146104215780639c52a7f1146104295780639dc29fac1461045c57610182565b80637ecebe00146103875780638fcbaf0c146103ba57610182565b8063313ce5671161013a57806354fd4d501161011457806354fd4d501461031957806365fae35e1461032157806370a082311461035457610182565b8063313ce567146102b85780633644e515146102d657806340c10f19146102de57610182565b806318160ddd1161016b57806318160ddd1461025357806323b872dd1461026d57806330adf81f146102b057610182565b806306fdde0314610187578063095ea7b314610206575b600080fd5b61018f6105f1565b60405160208082528190810183818151815260200191508051906020019080838360005b838110156101cb5780820151838201526020016101b3565b50505050905090810190601f1680156101f85780820380516001836020036101000a031916815260200191505b509250505060405180910390f35b61023f6004803603604081101561021c57600080fd5b5073ffffffffffffffffffffffffffffffffffffffff8135169060200135610628565b604051901515815260200160405180910390f35b61025b6106b4565b60405190815260200160405180910390f35b61023f6004803603606081101561028357600080fd5b5073ffffffffffffffffffffffffffffffffffffffff8135811691602081013590911690604001356106ba565b61025b6109ed565b6102c0610a11565b60405160ff909116815260200160405180910390f35b61025b610a16565b610317600480360360408110156102f457600080fd5b5073ffffffffffffffffffffffffffffffffffffffff8135169060200135610a1c565b005b61018f610b4f565b6103176004803603602081101561033757600080fd5b503573ffffffffffffffffffffffffffffffffffffffff16610b86565b61025b6004803603602081101561036a57600080fd5b503573ffffffffffffffffffffffffffffffffffffffff16610c7e565b61025b6004803603602081101561039d57600080fd5b503573ffffffffffffffffffffffffffffffffffffffff16610c92565b61031760048036036101008110156103d157600080fd5b5073ffffffffffffffffffffffffffffffffffffffff8135811691602081013590911690604081013590606081013590608081013515159060ff60a0820135169060c08101359060e00135610ca6565b61018f6110f3565b6103176004803603602081101561043f57600080fd5b503573ffffffffffffffffffffffffffffffffffffffff1661112a565b6103176004803603604081101561047257600080fd5b5073ffffffffffffffffffffffffffffffffffffffff813516906020013561121f565b61023f600480360360408110156104ab57600080fd5b5073ffffffffffffffffffffffffffffffffffffffff8135169060200135611505565b610317600480360360408110156104e457600080fd5b5073ffffffffffffffffffffffffffffffffffffffff8135169060200135611519565b6103176004803603606081101561051d57600080fd5b5073ffffffffffffffffffffffffffffffffffffffff813581169160208101359091169060400135611529565b61025b6004803603602081101561056057600080fd5b503573ffffffffffffffffffffffffffffffffffffffff1661153a565b61025b6004803603604081101561059357600080fd5b5073ffffffffffffffffffffffffffffffffffffffff8135811691602001351661154e565b610317600480360360408110156105ce57600080fd5b5073ffffffffffffffffffffffffffffffffffffffff8135169060200135611570565b60405160408082019052600e81527f44616920537461626c65636f696e000000000000000000000000000000000000602082015281565b3360009081526003602052816040822073ffffffffffffffffffffffffffffffffffffffff85166000908152602091909152604090205573ffffffffffffffffffffffffffffffffffffffff8316337f8c5be1e5ebec7d5bd14f71427d1e84f3dd0314c0f7b2291e5b200ac8c7c3b9258460405190815260200160405180910390a35060015b92915050565b60015481565b73ffffffffffffffffffffffffffffffffffffffff831660009081526002602052816040822054101561074d576040517f08c379a000000000000000000000000000000000000000000000000000000000815260206004820152601860248201527f4461692f696e73756666696369656e742d62616c616e63650000000000000000604482015260640160405180910390fd5b73ffffffffffffffffffffffffffffffffffffffff841633148015906107c9575073ffffffffffffffffffffffffffffffffffffffff8416600090815260036020527fffffffffffffffffffffffffffffffffffffffffffffffffffffffffffffffff9060409020336000908152602091909152604090205414155b156108e95773ffffffffffffffffffffffffffffffffffffffff84166000908152600360205282906040902033600090815260209190915260409020541015610872576040517f08c379a000000000000000000000000000000000000000000000000000000000815260206004820152601a60248201527f4461692f696e73756666696369656e742d616c6c6f77616e6365000000000000604482015260640160405180910390fd5b73ffffffffffffffffffffffffffffffffffffffff8416600090815260036020526108b2906040902033600090815260209190915260409020548361157b565b73ffffffffffffffffffffffffffffffffffffffff8516600090815260036020526040902033600090815260209190915260409020555b73ffffffffffffffffffffffffffffffffffffffff8416600090815260026020526109199060409020548361157b565b73ffffffffffffffffffffffffffffffffffffffff851660009081526002602052604090205573ffffffffffffffffffffffffffffffffffffffff83166000908152600260205261096f9060409020548361158b565b73ffffffffffffffffffffffffffffffffffffffff841660009081526002602052604090205573ffffffffffffffffffffffffffffffffffffffff8084169085167fddf252ad1be2c89b69c2b068fc378daa952ba7f163c4a11628f55a4df523b3ef8460405190815260200160405180910390a35060019392505050565b7fea2aa0a1be11a07ed86d755c93467f4f82362b452371d1ba94d1715123511acb81565b601281565b60055481565b33600090815260208190526040902054600114610a99576040517f08c379a000000000000000000000000000000000000000000000000000000000815260206004820152601260248201527f4461692f6e6f742d617574686f72697a65640000000000000000000000000000604482015260640160405180910390fd5b73ffffffffffffffffffffffffffffffffffffffff821660009081526002602052610ac99060409020548261158b565b73ffffffffffffffffffffffffffffffffffffffff8316600090815260026020526040902055600154610afc908261158b565b60015573ffffffffffffffffffffffffffffffffffffffff821660007fddf252ad1be2c89b69c2b068fc378daa952ba7f163c4a11628f55a4df523b3ef8360405190815260200160405180910390a35050565b60405160408082019052600181527f3100000000000000000000000000000000000000000000000000000000000000602082015281565b33600090815260208190526040902054600114610c03576040517f08c379a000000000000000000000000000000000000000000000000000000000815260206004820152601260248201527f4461692f6e6f742d617574686f72697a65640000000000000000000000000000604482015260640160405180910390fd5b73ffffffffffffffffffffffffffffffffffffffff81166000908152602081905260019060409020555961012081016040526020815260e0602082015260e060006040830137602435600435337fffffffff000000000000000000000000000000000000000000000000000000006000351661012085a45050565b600260205280600052604060002054905081565b600460205280600052604060002054905081565b6005546000907fea2aa0a1be11a07ed86d755c93467f4f82362b452371d1ba94d1715123511acb8a8a8a8a8a604051602081019690965273ffffffffffffffffffffffffffffffffffffffff948516604080880191909152939094166060860152608085019190915260a084015290151560c083015260e09091019051602081830303815290604052805190602001206040517f190100000000000000000000000000000000000000000000000000000000000060208201526022810192909252604282015260620160405160208183030381529060405280519060200120905073ffffffffffffffffffffffffffffffffffffffff8916610e08576040517f08c379a000000000000000000000000000000000000000000000000000000000815260206004820152601560248201527f4461692f696e76616c69642d616464726573732d300000000000000000000000604482015260640160405180910390fd5b60018185858560405160008152602001604052604051808581526020018460ff1660ff1681526020018381526020018281526020019450505050506020604051602081039080840390855afa158015610e65573d6000803e3d6000fd5b5050506020604051035173ffffffffffffffffffffffffffffffffffffffff168973ffffffffffffffffffffffffffffffffffffffff1614610f07576040517f08c379a000000000000000000000000000000000000000000000000000000000815260206004820152601260248201527f4461692f696e76616c69642d7065726d69740000000000000000000000000000604482015260640160405180910390fd5b851580610f145750854211155b610f7e576040517f08c379a000000000000000000000000000000000000000000000000000000000815260206004820152601260248201527f4461692f7065726d69742d657870697265640000000000000000000000000000604482015260640160405180910390fd5b73ffffffffffffffffffffffffffffffffffffffff891660009081526004602052604090208054600181019091558714611018576040517f08c379a000000000000000000000000000000000000000000000000000000000815260206004820152601160248201527f4461692f696e76616c69642d6e6f6e6365000000000000000000000000000000604482015260640160405180910390fd5b600085611026576000611048565b7fffffffffffffffffffffffffffffffffffffffffffffffffffffffffffffffff5b73ffffffffffffffffffffffffffffffffffffffff8b166000908152600360205290915081906040902073ffffffffffffffffffffffffffffffffffffffff8b166000908152602091909152604090205573ffffffffffffffffffffffffffffffffffffffff808a16908b167f8c5be1e5ebec7d5bd14f71427d1e84f3dd0314c0f7b2291e5b200ac8c7c3b9258360405190815260200160405180910390a350505050505050505050565b60405160408082019052600381527f4441490000000000000000000000000000000000000000000000000000000000602082015281565b336000908152602081905260409020546001146111a7576040517f08c379a000000000000000000000000000000000000000000000000000000000815260206004820152601260248201527f4461692f6e6f742d617574686f72697a65640000000000000000000000000000604482015260640160405180910390fd5b73ffffffffffffffffffffffffffffffffffffffff81166000908152602081905260408120555961012081016040526020815260e0602082015260e060006040830137602435600435337fffffffff000000000000000000000000000000000000000000000000000000006000351661012085a45050565b73ffffffffffffffffffffffffffffffffffffffff8216600090815260026020528190604090205410156112b3576040517f08c379a000000000000000000000000000000000000000000000000000000000815260206004820152601860248201527f4461692f696e73756666696369656e742d62616c616e63650000000000000000604482015260640160405180910390fd5b73ffffffffffffffffffffffffffffffffffffffff8216331480159061132f575073ffffffffffffffffffffffffffffffffffffffff8216600090815260036020527fffffffffffffffffffffffffffffffffffffffffffffffffffffffffffffffff9060409020336000908152602091909152604090205414155b1561144f5773ffffffffffffffffffffffffffffffffffffffff821660009081526003602052819060409020336000908152602091909152604090205410156113d8576040517f08c379a000000000000000000000000000000000000000000000000000000000815260206004820152601a60248201527f4461692f696e73756666696369656e742d616c6c6f77616e6365000000000000604482015260640160405180910390fd5b73ffffffffffffffffffffffffffffffffffffffff821660009081526003602052611418906040902033600090815260209190915260409020548261157b565b73ffffffffffffffffffffffffffffffffffffffff8316600090815260036020526040902033600090815260209190915260409020555b73ffffffffffffffffffffffffffffffffffffffff82166000908152600260205261147f9060409020548261157b565b73ffffffffffffffffffffffffffffffffffffffff83166000908152600260205260409020556001546114b2908261157b565b600155600073ffffffffffffffffffffffffffffffffffffffff83167fddf252ad1be2c89b69c2b068fc378daa952ba7f163c4a11628f55a4df523b3ef8360405190815260200160405180910390a35050565b60006115123384846106ba565b9392505050565b6115243383836106ba565b505050565b6115348383836106ba565b50505050565b600060205280600052604060002054905081565b6003602052816000526040600020602052806000526040600020549150829050565b6115248233836106ba565b808203828111156106ae57600080fd5b808201828110156106ae57600080fdfea265627a7a7231582069af58b269343ccd8a684d681fd06ca88502bca11060dafe4ab4e04be239882564736f6c634300050c0032454950373132446f6d61696e28737472696e67206e616d652c737472696e672076657273696f6e2c75696e7432353620636861696e49642c6164647265737320766572696679696e67436f6e747261637429",
  "linkReferences": {},
  "deployedLinkReferences": {}
}